{
	"Voting.sol": {
		"Voting": {
			"abi": [
				{
					"inputs": [],
					"stateMutability": "nonpayable",
					"type": "constructor"
				},
				{
					"inputs": [
						{
							"internalType": "address",
							"name": "owner",
							"type": "address"
						}
					],
					"name": "OwnableInvalidOwner",
					"type": "error"
				},
				{
					"inputs": [
						{
							"internalType": "address",
							"name": "account",
							"type": "address"
						}
					],
					"name": "OwnableUnauthorizedAccount",
					"type": "error"
				},
				{
					"anonymous": false,
					"inputs": [
						{
							"indexed": true,
							"internalType": "address",
							"name": "previousOwner",
							"type": "address"
						},
						{
							"indexed": true,
							"internalType": "address",
							"name": "newOwner",
							"type": "address"
						}
					],
					"name": "OwnershipTransferred",
					"type": "event"
				},
				{
					"anonymous": false,
					"inputs": [
						{
							"indexed": false,
							"internalType": "uint256",
							"name": "proposalId",
							"type": "uint256"
						}
					],
					"name": "ProposalRegistered",
					"type": "event"
				},
				{
					"anonymous": false,
					"inputs": [
						{
							"indexed": false,
							"internalType": "address",
							"name": "voter",
							"type": "address"
						},
						{
							"indexed": false,
							"internalType": "uint256",
							"name": "proposalId",
							"type": "uint256"
						}
					],
					"name": "Voted",
					"type": "event"
				},
				{
					"anonymous": false,
					"inputs": [
						{
							"indexed": false,
							"internalType": "address",
							"name": "voterAddress",
							"type": "address"
						}
					],
					"name": "VoterRegistered",
					"type": "event"
				},
				{
					"anonymous": false,
					"inputs": [
						{
							"indexed": false,
							"internalType": "enum Voting.WorkflowStatus",
							"name": "previousStatus",
							"type": "uint8"
						},
						{
							"indexed": false,
							"internalType": "enum Voting.WorkflowStatus",
							"name": "newStatus",
							"type": "uint8"
						}
					],
					"name": "WorkflowStatusChange",
					"type": "event"
				},
				{
					"inputs": [
						{
							"internalType": "string",
							"name": "_description",
							"type": "string"
						}
					],
					"name": "addProposal",
					"outputs": [],
					"stateMutability": "nonpayable",
					"type": "function"
				},
				{
					"inputs": [
						{
							"internalType": "address",
							"name": "_address",
							"type": "address"
						}
					],
					"name": "addVoter",
					"outputs": [],
					"stateMutability": "nonpayable",
					"type": "function"
				},
				{
					"inputs": [],
					"name": "getVoteStep",
					"outputs": [
						{
							"internalType": "enum Voting.WorkflowStatus",
							"name": "",
							"type": "uint8"
						}
					],
					"stateMutability": "view",
					"type": "function"
				},
				{
					"inputs": [],
					"name": "getWinner",
					"outputs": [
						{
							"components": [
								{
									"internalType": "uint256",
									"name": "id",
									"type": "uint256"
								},
								{
									"internalType": "string",
									"name": "description",
									"type": "string"
								},
								{
									"internalType": "uint256",
									"name": "voteCount",
									"type": "uint256"
								}
							],
							"internalType": "struct Voting.Proposal",
							"name": "",
							"type": "tuple"
						}
					],
					"stateMutability": "nonpayable",
					"type": "function"
				},
				{
					"inputs": [],
					"name": "nextVoteStep",
					"outputs": [],
					"stateMutability": "nonpayable",
					"type": "function"
				},
				{
					"inputs": [],
					"name": "owner",
					"outputs": [
						{
							"internalType": "address",
							"name": "",
							"type": "address"
						}
					],
					"stateMutability": "view",
					"type": "function"
				},
				{
					"inputs": [],
					"name": "renounceOwnership",
					"outputs": [],
					"stateMutability": "nonpayable",
					"type": "function"
				},
				{
					"inputs": [
						{
							"internalType": "address",
							"name": "newOwner",
							"type": "address"
						}
					],
					"name": "transferOwnership",
					"outputs": [],
					"stateMutability": "nonpayable",
					"type": "function"
				},
				{
					"inputs": [
						{
							"internalType": "uint256",
							"name": "_proposalId",
							"type": "uint256"
						}
					],
					"name": "voteForProposition",
					"outputs": [],
					"stateMutability": "nonpayable",
					"type": "function"
				}
			],
			"devdoc": {
				"author": "Maxime AUBURTIN",
				"details": "All corner cases of a vote are not handled in this version also there is no egality, the first vote which has           the maximum voices wins.",
				"errors": {
					"OwnableInvalidOwner(address)": [
						{
							"details": "The owner is not a valid owner account. (eg. `address(0)`)"
						}
					],
					"OwnableUnauthorizedAccount(address)": [
						{
							"details": "The caller account is not authorized to perform an operation."
						}
					]
				},
				"kind": "dev",
				"methods": {
					"owner()": {
						"details": "Returns the address of the current owner."
					},
					"renounceOwnership()": {
						"details": "Leaves the contract without owner. It will not be possible to call `onlyOwner` functions. Can only be called by the current owner. NOTE: Renouncing ownership will leave the contract without an owner, thereby disabling any functionality that is only available to the owner."
					},
					"transferOwnership(address)": {
						"details": "Transfers ownership of the contract to a new account (`newOwner`). Can only be called by the current owner."
					}
				},
				"title": "Voting contrat: this contract allow a whitelist of voters to vote for their favorite proposition.",
				"version": 1
			},
			"evm": {
				"assembly": "    /* \"Voting.sol\":541:4707  contract Voting is Ownable {... */\n  mstore(0x40, 0x80)\n    /* \"Voting.sol\":1780:1781  0 */\n  0x00\n    /* \"Voting.sol\":1755:1781  uint proposalIdCounter = 0 */\n  0x04\n  sstore\n    /* \"Voting.sol\":3049:3151  constructor() Ownable(msg.sender) {... */\n  callvalue\n  dup1\n  iszero\n  tag_1\n  jumpi\n  0x00\n  dup1\n  revert\ntag_1:\n  pop\n    /* \"Voting.sol\":3071:3081  msg.sender */\n  caller\n    /* \"https://github.com/OpenZeppelin/openzeppelin-contracts/blob/master/contracts/access/Ownable.sol\":1297:1298  0 */\n  0x00\n    /* \"https://github.com/OpenZeppelin/openzeppelin-contracts/blob/master/contracts/access/Ownable.sol\":1273:1299  initialOwner == address(0) */\n  0xffffffffffffffffffffffffffffffffffffffff\n  and\n    /* \"https://github.com/OpenZeppelin/openzeppelin-contracts/blob/master/contracts/access/Ownable.sol\":1273:1285  initialOwner */\n  dup2\n    /* \"https://github.com/OpenZeppelin/openzeppelin-contracts/blob/master/contracts/access/Ownable.sol\":1273:1299  initialOwner == address(0) */\n  0xffffffffffffffffffffffffffffffffffffffff\n  and\n  sub\n    /* \"https://github.com/OpenZeppelin/openzeppelin-contracts/blob/master/contracts/access/Ownable.sol\":1269:1364  if (initialOwner == address(0)) {... */\n  tag_5\n  jumpi\n    /* \"https://github.com/OpenZeppelin/openzeppelin-contracts/blob/master/contracts/access/Ownable.sol\":1350:1351  0 */\n  0x00\n    /* \"https://github.com/OpenZeppelin/openzeppelin-contracts/blob/master/contracts/access/Ownable.sol\":1322:1353  OwnableInvalidOwner(address(0)) */\n  mload(0x40)\n  0x1e4fbdf700000000000000000000000000000000000000000000000000000000\n  dup2\n  mstore\n  0x04\n  add\n  tag_6\n  swap2\n  swap1\n  tag_7\n  jump\t// in\ntag_6:\n  mload(0x40)\n  dup1\n  swap2\n  sub\n  swap1\n  revert\n    /* \"https://github.com/OpenZeppelin/openzeppelin-contracts/blob/master/contracts/access/Ownable.sol\":1269:1364  if (initialOwner == address(0)) {... */\ntag_5:\n    /* \"https://github.com/OpenZeppelin/openzeppelin-contracts/blob/master/contracts/access/Ownable.sol\":1373:1405  _transferOwnership(initialOwner) */\n  tag_8\n    /* \"https://github.com/OpenZeppelin/openzeppelin-contracts/blob/master/contracts/access/Ownable.sol\":1392:1404  initialOwner */\n  dup2\n    /* \"https://github.com/OpenZeppelin/openzeppelin-contracts/blob/master/contracts/access/Ownable.sol\":1373:1391  _transferOwnership */\n  shl(0x20, tag_9)\n    /* \"https://github.com/OpenZeppelin/openzeppelin-contracts/blob/master/contracts/access/Ownable.sol\":1373:1405  _transferOwnership(initialOwner) */\n  0x20\n  shr\n  jump\t// in\ntag_8:\n    /* \"https://github.com/OpenZeppelin/openzeppelin-contracts/blob/master/contracts/access/Ownable.sol\":1225:1412  constructor(address initialOwner) {... */\n  pop\n    /* \"Voting.sol\":3112:3144  WorkflowStatus.RegisteringVoters */\n  0x00\n    /* \"Voting.sol\":3093:3109  currentVoteState */\n  0x05\n  0x00\n    /* \"Voting.sol\":3093:3144  currentVoteState = WorkflowStatus.RegisteringVoters */\n  0x0100\n  exp\n  dup2\n  sload\n  dup2\n  0xff\n  mul\n  not\n  and\n  swap1\n  dup4\n  0x05\n  dup2\n  gt\n  iszero\n  tag_11\n  jumpi\n  tag_12\n  tag_13\n  jump\t// in\ntag_12:\ntag_11:\n  mul\n  or\n  swap1\n  sstore\n  pop\n    /* \"Voting.sol\":541:4707  contract Voting is Ownable {... */\n  jump(tag_14)\n    /* \"https://github.com/OpenZeppelin/openzeppelin-contracts/blob/master/contracts/access/Ownable.sol\":2912:3099  function _transferOwnership(address newOwner) internal virtual {... */\ntag_9:\n    /* \"https://github.com/OpenZeppelin/openzeppelin-contracts/blob/master/contracts/access/Ownable.sol\":2985:3001  address oldOwner */\n  0x00\n    /* \"https://github.com/OpenZeppelin/openzeppelin-contracts/blob/master/contracts/access/Ownable.sol\":3004:3010  _owner */\n  dup1\n  0x00\n  swap1\n  sload\n  swap1\n  0x0100\n  exp\n  swap1\n  div\n  0xffffffffffffffffffffffffffffffffffffffff\n  and\n    /* \"https://github.com/OpenZeppelin/openzeppelin-contracts/blob/master/contracts/access/Ownable.sol\":2985:3010  address oldOwner = _owner */\n  swap1\n  pop\n    /* \"https://github.com/OpenZeppelin/openzeppelin-contracts/blob/master/contracts/access/Ownable.sol\":3029:3037  newOwner */\n  dup2\n    /* \"https://github.com/OpenZeppelin/openzeppelin-contracts/blob/master/contracts/access/Ownable.sol\":3020:3026  _owner */\n  0x00\n  dup1\n    /* \"https://github.com/OpenZeppelin/openzeppelin-contracts/blob/master/contracts/access/Ownable.sol\":3020:3037  _owner = newOwner */\n  0x0100\n  exp\n  dup2\n  sload\n  dup2\n  0xffffffffffffffffffffffffffffffffffffffff\n  mul\n  not\n  and\n  swap1\n  dup4\n  0xffffffffffffffffffffffffffffffffffffffff\n  and\n  mul\n  or\n  swap1\n  sstore\n  pop\n    /* \"https://github.com/OpenZeppelin/openzeppelin-contracts/blob/master/contracts/access/Ownable.sol\":3083:3091  newOwner */\n  dup2\n    /* \"https://github.com/OpenZeppelin/openzeppelin-contracts/blob/master/contracts/access/Ownable.sol\":3052:3092  OwnershipTransferred(oldOwner, newOwner) */\n  0xffffffffffffffffffffffffffffffffffffffff\n  and\n    /* \"https://github.com/OpenZeppelin/openzeppelin-contracts/blob/master/contracts/access/Ownable.sol\":3073:3081  oldOwner */\n  dup2\n    /* \"https://github.com/OpenZeppelin/openzeppelin-contracts/blob/master/contracts/access/Ownable.sol\":3052:3092  OwnershipTransferred(oldOwner, newOwner) */\n  0xffffffffffffffffffffffffffffffffffffffff\n  and\n  0x8be0079c531659141344cd1fd0a4f28419497f9722a3daafe3b4186f6b6457e0\n  mload(0x40)\n  mload(0x40)\n  dup1\n  swap2\n  sub\n  swap1\n  log3\n    /* \"https://github.com/OpenZeppelin/openzeppelin-contracts/blob/master/contracts/access/Ownable.sol\":2975:3099  {... */\n  pop\n    /* \"https://github.com/OpenZeppelin/openzeppelin-contracts/blob/master/contracts/access/Ownable.sol\":2912:3099  function _transferOwnership(address newOwner) internal virtual {... */\n  pop\n  jump\t// out\n    /* \"#utility.yul\":7:133   */\ntag_16:\n    /* \"#utility.yul\":44:51   */\n  0x00\n    /* \"#utility.yul\":84:126   */\n  0xffffffffffffffffffffffffffffffffffffffff\n    /* \"#utility.yul\":77:82   */\n  dup3\n    /* \"#utility.yul\":73:127   */\n  and\n    /* \"#utility.yul\":62:127   */\n  swap1\n  pop\n    /* \"#utility.yul\":7:133   */\n  swap2\n  swap1\n  pop\n  jump\t// out\n    /* \"#utility.yul\":139:235   */\ntag_17:\n    /* \"#utility.yul\":176:183   */\n  0x00\n    /* \"#utility.yul\":205:229   */\n  tag_22\n    /* \"#utility.yul\":223:228   */\n  dup3\n    /* \"#utility.yul\":205:229   */\n  tag_16\n  jump\t// in\ntag_22:\n    /* \"#utility.yul\":194:229   */\n  swap1\n  pop\n    /* \"#utility.yul\":139:235   */\n  swap2\n  swap1\n  pop\n  jump\t// out\n    /* \"#utility.yul\":241:359   */\ntag_18:\n    /* \"#utility.yul\":328:352   */\n  tag_24\n    /* \"#utility.yul\":346:351   */\n  dup2\n    /* \"#utility.yul\":328:352   */\n  tag_17\n  jump\t// in\ntag_24:\n    /* \"#utility.yul\":323:326   */\n  dup3\n    /* \"#utility.yul\":316:353   */\n  mstore\n    /* \"#utility.yul\":241:359   */\n  pop\n  pop\n  jump\t// out\n    /* \"#utility.yul\":365:587   */\ntag_7:\n    /* \"#utility.yul\":458:462   */\n  0x00\n    /* \"#utility.yul\":496:498   */\n  0x20\n    /* \"#utility.yul\":485:494   */\n  dup3\n    /* \"#utility.yul\":481:499   */\n  add\n    /* \"#utility.yul\":473:499   */\n  swap1\n  pop\n    /* \"#utility.yul\":509:580   */\n  tag_26\n    /* \"#utility.yul\":577:578   */\n  0x00\n    /* \"#utility.yul\":566:575   */\n  dup4\n    /* \"#utility.yul\":562:579   */\n  add\n    /* \"#utility.yul\":553:559   */\n  dup5\n    /* \"#utility.yul\":509:580   */\n  tag_18\n  jump\t// in\ntag_26:\n    /* \"#utility.yul\":365:587   */\n  swap3\n  swap2\n  pop\n  pop\n  jump\t// out\n    /* \"#utility.yul\":593:773   */\ntag_13:\n    /* \"#utility.yul\":641:718   */\n  0x4e487b7100000000000000000000000000000000000000000000000000000000\n    /* \"#utility.yul\":638:639   */\n  0x00\n    /* \"#utility.yul\":631:719   */\n  mstore\n    /* \"#utility.yul\":738:742   */\n  0x21\n    /* \"#utility.yul\":735:736   */\n  0x04\n    /* \"#utility.yul\":728:743   */\n  mstore\n    /* \"#utility.yul\":762:766   */\n  0x24\n    /* \"#utility.yul\":759:760   */\n  0x00\n    /* \"#utility.yul\":752:767   */\n  revert\n    /* \"Voting.sol\":541:4707  contract Voting is Ownable {... */\ntag_14:\n  dataSize(sub_0)\n  dup1\n  dataOffset(sub_0)\n  0x00\n  codecopy\n  0x00\n  return\nstop\n\nsub_0: assembly {\n        /* \"Voting.sol\":541:4707  contract Voting is Ownable {... */\n      mstore(0x40, 0x80)\n      callvalue\n      dup1\n      iszero\n      tag_1\n      jumpi\n      0x00\n      dup1\n      revert\n    tag_1:\n      pop\n      jumpi(tag_2, lt(calldatasize, 0x04))\n      shr(0xe0, calldataload(0x00))\n      dup1\n      0x8da5cb5b\n      gt\n      tag_12\n      jumpi\n      dup1\n      0x8da5cb5b\n      eq\n      tag_7\n      jumpi\n      dup1\n      0x8e7ea5b2\n      eq\n      tag_8\n      jumpi\n      dup1\n      0xf2fde38b\n      eq\n      tag_9\n      jumpi\n      dup1\n      0xf4ab9adf\n      eq\n      tag_10\n      jumpi\n      dup1\n      0xfd20255c\n      eq\n      tag_11\n      jumpi\n      jump(tag_2)\n    tag_12:\n      dup1\n      0x1e09506d\n      eq\n      tag_3\n      jumpi\n      dup1\n      0x2fdae3c5\n      eq\n      tag_4\n      jumpi\n      dup1\n      0x715018a6\n      eq\n      tag_5\n      jumpi\n      dup1\n      0x746536b5\n      eq\n      tag_6\n      jumpi\n    tag_2:\n      0x00\n      dup1\n      revert\n        /* \"Voting.sol\":3158:3260  function getVoteStep() external view returns (WorkflowStatus) {... */\n    tag_3:\n      tag_13\n      tag_14\n      jump\t// in\n    tag_13:\n      mload(0x40)\n      tag_15\n      swap2\n      swap1\n      tag_16\n      jump\t// in\n    tag_15:\n      mload(0x40)\n      dup1\n      swap2\n      sub\n      swap1\n      return\n        /* \"Voting.sol\":3710:3933  function addProposal(string calldata _description) external onlyVoters registeringProposals {... */\n    tag_4:\n      tag_17\n      0x04\n      dup1\n      calldatasize\n      sub\n      dup2\n      add\n      swap1\n      tag_18\n      swap2\n      swap1\n      tag_19\n      jump\t// in\n    tag_18:\n      tag_20\n      jump\t// in\n    tag_17:\n      stop\n        /* \"https://github.com/OpenZeppelin/openzeppelin-contracts/blob/master/contracts/access/Ownable.sol\":2293:2394  function renounceOwnership() public virtual onlyOwner {... */\n    tag_5:\n      tag_21\n      tag_22\n      jump\t// in\n    tag_21:\n      stop\n        /* \"Voting.sol\":3939:4266  function voteForProposition(uint _proposalId) external onlyVoters votingProposals VoteOnce {... */\n    tag_6:\n      tag_23\n      0x04\n      dup1\n      calldatasize\n      sub\n      dup2\n      add\n      swap1\n      tag_24\n      swap2\n      swap1\n      tag_25\n      jump\t// in\n    tag_24:\n      tag_26\n      jump\t// in\n    tag_23:\n      stop\n        /* \"https://github.com/OpenZeppelin/openzeppelin-contracts/blob/master/contracts/access/Ownable.sol\":1638:1723  function owner() public view virtual returns (address) {... */\n    tag_7:\n      tag_27\n      tag_28\n      jump\t// in\n    tag_27:\n      mload(0x40)\n      tag_29\n      swap2\n      swap1\n      tag_30\n      jump\t// in\n    tag_29:\n      mload(0x40)\n      dup1\n      swap2\n      sub\n      swap1\n      return\n        /* \"Voting.sol\":4272:4705  function getWinner() external votesTallied returns (Proposal memory) {... */\n    tag_8:\n      tag_31\n      tag_32\n      jump\t// in\n    tag_31:\n      mload(0x40)\n      tag_33\n      swap2\n      swap1\n      tag_34\n      jump\t// in\n    tag_33:\n      mload(0x40)\n      dup1\n      swap2\n      sub\n      swap1\n      return\n        /* \"https://github.com/OpenZeppelin/openzeppelin-contracts/blob/master/contracts/access/Ownable.sol\":2543:2758  function transferOwnership(address newOwner) public virtual onlyOwner {... */\n    tag_9:\n      tag_35\n      0x04\n      dup1\n      calldatasize\n      sub\n      dup2\n      add\n      swap1\n      tag_36\n      swap2\n      swap1\n      tag_37\n      jump\t// in\n    tag_36:\n      tag_38\n      jump\t// in\n    tag_35:\n      stop\n        /* \"Voting.sol\":3538:3704  function addVoter(address _address) external onlyOwner registeringVoters {... */\n    tag_10:\n      tag_39\n      0x04\n      dup1\n      calldatasize\n      sub\n      dup2\n      add\n      swap1\n      tag_40\n      swap2\n      swap1\n      tag_37\n      jump\t// in\n    tag_40:\n      tag_41\n      jump\t// in\n    tag_39:\n      stop\n        /* \"Voting.sol\":3266:3528  function nextVoteStep() external onlyOwner votesNotTallied {... */\n    tag_11:\n      tag_42\n      tag_43\n      jump\t// in\n    tag_42:\n      stop\n        /* \"Voting.sol\":3158:3260  function getVoteStep() external view returns (WorkflowStatus) {... */\n    tag_14:\n        /* \"Voting.sol\":3204:3218  WorkflowStatus */\n      0x00\n        /* \"Voting.sol\":3237:3253  currentVoteState */\n      0x05\n      0x00\n      swap1\n      sload\n      swap1\n      0x0100\n      exp\n      swap1\n      div\n      0xff\n      and\n        /* \"Voting.sol\":3230:3253  return currentVoteState */\n      swap1\n      pop\n        /* \"Voting.sol\":3158:3260  function getVoteStep() external view returns (WorkflowStatus) {... */\n      swap1\n      jump\t// out\n        /* \"Voting.sol\":3710:3933  function addProposal(string calldata _description) external onlyVoters registeringProposals {... */\n    tag_20:\n        /* \"Voting.sol\":1271:1275  true */\n      0x01\n        /* \"Voting.sol\":1236:1275  voters[msg.sender].isRegistered == true */\n      iszero\n      iszero\n        /* \"Voting.sol\":1236:1242  voters */\n      0x02\n        /* \"Voting.sol\":1236:1254  voters[msg.sender] */\n      0x00\n        /* \"Voting.sol\":1243:1253  msg.sender */\n      caller\n        /* \"Voting.sol\":1236:1254  voters[msg.sender] */\n      0xffffffffffffffffffffffffffffffffffffffff\n      and\n      0xffffffffffffffffffffffffffffffffffffffff\n      and\n      dup2\n      mstore\n      0x20\n      add\n      swap1\n      dup2\n      mstore\n      0x20\n      add\n      0x00\n      keccak256\n        /* \"Voting.sol\":1236:1267  voters[msg.sender].isRegistered */\n      0x00\n      add\n      0x00\n      swap1\n      sload\n      swap1\n      0x0100\n      exp\n      swap1\n      div\n      0xff\n      and\n        /* \"Voting.sol\":1236:1275  voters[msg.sender].isRegistered == true */\n      iszero\n      iszero\n      eq\n        /* \"Voting.sol\":1228:1306  require(voters[msg.sender].isRegistered == true, \"You are not a valid voter!\") */\n      tag_46\n      jumpi\n      mload(0x40)\n      0x08c379a000000000000000000000000000000000000000000000000000000000\n      dup2\n      mstore\n      0x04\n      add\n      tag_47\n      swap1\n      tag_48\n      jump\t// in\n    tag_47:\n      mload(0x40)\n      dup1\n      swap2\n      sub\n      swap1\n      revert\n    tag_46:\n        /* \"Voting.sol\":2756:2799  WorkflowStatus.ProposalsRegistrationStarted */\n      0x01\n        /* \"Voting.sol\":2736:2799  currentVoteState == WorkflowStatus.ProposalsRegistrationStarted */\n      0x05\n      dup2\n      gt\n      iszero\n      tag_50\n      jumpi\n      tag_51\n      tag_52\n      jump\t// in\n    tag_51:\n    tag_50:\n        /* \"Voting.sol\":2736:2752  currentVoteState */\n      0x05\n      0x00\n      swap1\n      sload\n      swap1\n      0x0100\n      exp\n      swap1\n      div\n      0xff\n      and\n        /* \"Voting.sol\":2736:2799  currentVoteState == WorkflowStatus.ProposalsRegistrationStarted */\n      0x05\n      dup2\n      gt\n      iszero\n      tag_53\n      jumpi\n      tag_54\n      tag_52\n      jump\t// in\n    tag_54:\n    tag_53:\n      eq\n        /* \"Voting.sol\":2728:2834  require(currentVoteState == WorkflowStatus.ProposalsRegistrationStarted, \"You cannot register proposals.\") */\n      tag_55\n      jumpi\n      mload(0x40)\n      0x08c379a000000000000000000000000000000000000000000000000000000000\n      dup2\n      mstore\n      0x04\n      add\n      tag_56\n      swap1\n      tag_57\n      jump\t// in\n    tag_56:\n      mload(0x40)\n      dup1\n      swap2\n      sub\n      swap1\n      revert\n    tag_55:\n        /* \"Voting.sol\":3812:3821  proposals */\n      0x03\n        /* \"Voting.sol\":3827:3871  Proposal(proposalIdCounter, _description, 0) */\n      mload(0x40)\n      dup1\n      0x60\n      add\n      0x40\n      mstore\n      dup1\n        /* \"Voting.sol\":3836:3853  proposalIdCounter */\n      sload(0x04)\n        /* \"Voting.sol\":3827:3871  Proposal(proposalIdCounter, _description, 0) */\n      dup2\n      mstore\n      0x20\n      add\n        /* \"Voting.sol\":3855:3867  _description */\n      dup5\n      dup5\n        /* \"Voting.sol\":3827:3871  Proposal(proposalIdCounter, _description, 0) */\n      dup1\n      dup1\n      0x1f\n      add\n      0x20\n      dup1\n      swap2\n      div\n      mul\n      0x20\n      add\n      mload(0x40)\n      swap1\n      dup2\n      add\n      0x40\n      mstore\n      dup1\n      swap4\n      swap3\n      swap2\n      swap1\n      dup2\n      dup2\n      mstore\n      0x20\n      add\n      dup4\n      dup4\n      dup1\n      dup3\n      dup5\n      calldatacopy\n      0x00\n      dup2\n      dup5\n      add\n      mstore\n      not(0x1f)\n      0x1f\n      dup3\n      add\n      and\n      swap1\n      pop\n      dup1\n      dup4\n      add\n      swap3\n      pop\n      pop\n      pop\n      pop\n      pop\n      pop\n      pop\n      dup2\n      mstore\n      0x20\n      add\n        /* \"Voting.sol\":3869:3870  0 */\n      0x00\n        /* \"Voting.sol\":3827:3871  Proposal(proposalIdCounter, _description, 0) */\n      dup2\n      mstore\n      pop\n        /* \"Voting.sol\":3812:3872  proposals.push(Proposal(proposalIdCounter, _description, 0)) */\n      swap1\n      dup1\n      0x01\n      dup2\n      sload\n      add\n      dup1\n      dup3\n      sstore\n      dup1\n      swap2\n      pop\n      pop\n      0x01\n      swap1\n      sub\n      swap1\n      0x00\n      mstore\n      keccak256(0x00, 0x20)\n      swap1\n      0x03\n      mul\n      add\n      0x00\n      swap1\n      swap2\n      swap1\n      swap2\n      swap1\n      swap2\n      pop\n      0x00\n      dup3\n      add\n      mload\n      dup2\n      0x00\n      add\n      sstore\n      0x20\n      dup3\n      add\n      mload\n      dup2\n      0x01\n      add\n      swap1\n      dup2\n      tag_60\n      swap2\n      swap1\n      tag_61\n      jump\t// in\n    tag_60:\n      pop\n      0x40\n      dup3\n      add\n      mload\n      dup2\n      0x02\n      add\n      sstore\n      pop\n      pop\n        /* \"Voting.sol\":3887:3926  ProposalRegistered(proposalIdCounter++) */\n      0x92e393e9b54e2f801d3ea4beb0c5e71a21cc34a5d34b77d0fb8a3aa1650dc18f\n        /* \"Voting.sol\":3906:3923  proposalIdCounter */\n      0x04\n      0x00\n        /* \"Voting.sol\":3906:3925  proposalIdCounter++ */\n      dup2\n      sload\n      dup1\n      swap3\n      swap2\n      swap1\n      tag_62\n      swap1\n      tag_63\n      jump\t// in\n    tag_62:\n      swap2\n      swap1\n      pop\n      sstore\n        /* \"Voting.sol\":3887:3926  ProposalRegistered(proposalIdCounter++) */\n      mload(0x40)\n      tag_64\n      swap2\n      swap1\n      tag_65\n      jump\t// in\n    tag_64:\n      mload(0x40)\n      dup1\n      swap2\n      sub\n      swap1\n      log1\n        /* \"Voting.sol\":3710:3933  function addProposal(string calldata _description) external onlyVoters registeringProposals {... */\n      pop\n      pop\n      jump\t// out\n        /* \"https://github.com/OpenZeppelin/openzeppelin-contracts/blob/master/contracts/access/Ownable.sol\":2293:2394  function renounceOwnership() public virtual onlyOwner {... */\n    tag_22:\n        /* \"https://github.com/OpenZeppelin/openzeppelin-contracts/blob/master/contracts/access/Ownable.sol\":1531:1544  _checkOwner() */\n      tag_67\n        /* \"https://github.com/OpenZeppelin/openzeppelin-contracts/blob/master/contracts/access/Ownable.sol\":1531:1542  _checkOwner */\n      tag_68\n        /* \"https://github.com/OpenZeppelin/openzeppelin-contracts/blob/master/contracts/access/Ownable.sol\":1531:1544  _checkOwner() */\n      jump\t// in\n    tag_67:\n        /* \"https://github.com/OpenZeppelin/openzeppelin-contracts/blob/master/contracts/access/Ownable.sol\":2357:2387  _transferOwnership(address(0)) */\n      tag_70\n        /* \"https://github.com/OpenZeppelin/openzeppelin-contracts/blob/master/contracts/access/Ownable.sol\":2384:2385  0 */\n      0x00\n        /* \"https://github.com/OpenZeppelin/openzeppelin-contracts/blob/master/contracts/access/Ownable.sol\":2357:2375  _transferOwnership */\n      tag_71\n        /* \"https://github.com/OpenZeppelin/openzeppelin-contracts/blob/master/contracts/access/Ownable.sol\":2357:2387  _transferOwnership(address(0)) */\n      jump\t// in\n    tag_70:\n        /* \"https://github.com/OpenZeppelin/openzeppelin-contracts/blob/master/contracts/access/Ownable.sol\":2293:2394  function renounceOwnership() public virtual onlyOwner {... */\n      jump\t// out\n        /* \"Voting.sol\":3939:4266  function voteForProposition(uint _proposalId) external onlyVoters votingProposals VoteOnce {... */\n    tag_26:\n        /* \"Voting.sol\":1271:1275  true */\n      0x01\n        /* \"Voting.sol\":1236:1275  voters[msg.sender].isRegistered == true */\n      iszero\n      iszero\n        /* \"Voting.sol\":1236:1242  voters */\n      0x02\n        /* \"Voting.sol\":1236:1254  voters[msg.sender] */\n      0x00\n        /* \"Voting.sol\":1243:1253  msg.sender */\n      caller\n        /* \"Voting.sol\":1236:1254  voters[msg.sender] */\n      0xffffffffffffffffffffffffffffffffffffffff\n      and\n      0xffffffffffffffffffffffffffffffffffffffff\n      and\n      dup2\n      mstore\n      0x20\n      add\n      swap1\n      dup2\n      mstore\n      0x20\n      add\n      0x00\n      keccak256\n        /* \"Voting.sol\":1236:1267  voters[msg.sender].isRegistered */\n      0x00\n      add\n      0x00\n      swap1\n      sload\n      swap1\n      0x0100\n      exp\n      swap1\n      div\n      0xff\n      and\n        /* \"Voting.sol\":1236:1275  voters[msg.sender].isRegistered == true */\n      iszero\n      iszero\n      eq\n        /* \"Voting.sol\":1228:1306  require(voters[msg.sender].isRegistered == true, \"You are not a valid voter!\") */\n      tag_73\n      jumpi\n      mload(0x40)\n      0x08c379a000000000000000000000000000000000000000000000000000000000\n      dup2\n      mstore\n      0x04\n      add\n      tag_74\n      swap1\n      tag_48\n      jump\t// in\n    tag_74:\n      mload(0x40)\n      dup1\n      swap2\n      sub\n      swap1\n      revert\n    tag_73:\n        /* \"Voting.sol\":2923:2958  WorkflowStatus.VotingSessionStarted */\n      0x03\n        /* \"Voting.sol\":2903:2958  currentVoteState == WorkflowStatus.VotingSessionStarted */\n      0x05\n      dup2\n      gt\n      iszero\n      tag_76\n      jumpi\n      tag_77\n      tag_52\n      jump\t// in\n    tag_77:\n    tag_76:\n        /* \"Voting.sol\":2903:2919  currentVoteState */\n      0x05\n      0x00\n      swap1\n      sload\n      swap1\n      0x0100\n      exp\n      swap1\n      div\n      0xff\n      and\n        /* \"Voting.sol\":2903:2958  currentVoteState == WorkflowStatus.VotingSessionStarted */\n      0x05\n      dup2\n      gt\n      iszero\n      tag_78\n      jumpi\n      tag_79\n      tag_52\n      jump\t// in\n    tag_79:\n    tag_78:\n      eq\n        /* \"Voting.sol\":2895:2989  require(currentVoteState == WorkflowStatus.VotingSessionStarted, \"You cannot vote proposals.\") */\n      tag_80\n      jumpi\n      mload(0x40)\n      0x08c379a000000000000000000000000000000000000000000000000000000000\n      dup2\n      mstore\n      0x04\n      add\n      tag_81\n      swap1\n      tag_82\n      jump\t// in\n    tag_81:\n      mload(0x40)\n      dup1\n      swap2\n      sub\n      swap1\n      revert\n    tag_80:\n        /* \"Voting.sol\":1457:1462  false */\n      0x00\n        /* \"Voting.sol\":1426:1462  voters[msg.sender].hasVoted == false */\n      iszero\n      iszero\n        /* \"Voting.sol\":1426:1432  voters */\n      0x02\n        /* \"Voting.sol\":1426:1444  voters[msg.sender] */\n      0x00\n        /* \"Voting.sol\":1433:1443  msg.sender */\n      caller\n        /* \"Voting.sol\":1426:1444  voters[msg.sender] */\n      0xffffffffffffffffffffffffffffffffffffffff\n      and\n      0xffffffffffffffffffffffffffffffffffffffff\n      and\n      dup2\n      mstore\n      0x20\n      add\n      swap1\n      dup2\n      mstore\n      0x20\n      add\n      0x00\n      keccak256\n        /* \"Voting.sol\":1426:1453  voters[msg.sender].hasVoted */\n      0x00\n      add\n      0x01\n      swap1\n      sload\n      swap1\n      0x0100\n      exp\n      swap1\n      div\n      0xff\n      and\n        /* \"Voting.sol\":1426:1462  voters[msg.sender].hasVoted == false */\n      iszero\n      iszero\n      eq\n        /* \"Voting.sol\":1418:1485  require(voters[msg.sender].hasVoted == false, \"You already voted!\") */\n      tag_84\n      jumpi\n      mload(0x40)\n      0x08c379a000000000000000000000000000000000000000000000000000000000\n      dup2\n      mstore\n      0x04\n      add\n      tag_85\n      swap1\n      tag_86\n      jump\t// in\n    tag_85:\n      mload(0x40)\n      dup1\n      swap2\n      sub\n      swap1\n      revert\n    tag_84:\n        /* \"Voting.sol\":4040:4049  proposals */\n      0x03\n        /* \"Voting.sol\":4050:4061  _proposalId */\n      dup2\n        /* \"Voting.sol\":4040:4062  proposals[_proposalId] */\n      dup2\n      sload\n      dup2\n      lt\n      tag_88\n      jumpi\n      tag_89\n      tag_90\n      jump\t// in\n    tag_89:\n    tag_88:\n      swap1\n      0x00\n      mstore\n      keccak256(0x00, 0x20)\n      swap1\n      0x03\n      mul\n      add\n        /* \"Voting.sol\":4040:4072  proposals[_proposalId].voteCount */\n      0x02\n      add\n      0x00\n        /* \"Voting.sol\":4040:4074  proposals[_proposalId].voteCount++ */\n      dup2\n      sload\n      dup1\n      swap3\n      swap2\n      swap1\n      tag_92\n      swap1\n      tag_63\n      jump\t// in\n    tag_92:\n      swap2\n      swap1\n      pop\n      sstore\n      pop\n        /* \"Voting.sol\":4114:4118  true */\n      0x01\n        /* \"Voting.sol\":4084:4090  voters */\n      0x02\n        /* \"Voting.sol\":4084:4102  voters[msg.sender] */\n      0x00\n        /* \"Voting.sol\":4091:4101  msg.sender */\n      caller\n        /* \"Voting.sol\":4084:4102  voters[msg.sender] */\n      0xffffffffffffffffffffffffffffffffffffffff\n      and\n      0xffffffffffffffffffffffffffffffffffffffff\n      and\n      dup2\n      mstore\n      0x20\n      add\n      swap1\n      dup2\n      mstore\n      0x20\n      add\n      0x00\n      keccak256\n        /* \"Voting.sol\":4084:4111  voters[msg.sender].hasVoted */\n      0x00\n      add\n      0x01\n        /* \"Voting.sol\":4084:4118  voters[msg.sender].hasVoted = true */\n      0x0100\n      exp\n      dup2\n      sload\n      dup2\n      0xff\n      mul\n      not\n      and\n      swap1\n      dup4\n      iszero\n      iszero\n      mul\n      or\n      swap1\n      sstore\n      pop\n        /* \"Voting.sol\":4165:4174  proposals */\n      0x03\n        /* \"Voting.sol\":4175:4186  _proposalId */\n      dup2\n        /* \"Voting.sol\":4165:4187  proposals[_proposalId] */\n      dup2\n      sload\n      dup2\n      lt\n      tag_93\n      jumpi\n      tag_94\n      tag_90\n      jump\t// in\n    tag_94:\n    tag_93:\n      swap1\n      0x00\n      mstore\n      keccak256(0x00, 0x20)\n      swap1\n      0x03\n      mul\n      add\n        /* \"Voting.sol\":4165:4190  proposals[_proposalId].id */\n      0x00\n      add\n      sload\n        /* \"Voting.sol\":4128:4134  voters */\n      0x02\n        /* \"Voting.sol\":4128:4146  voters[msg.sender] */\n      0x00\n        /* \"Voting.sol\":4135:4145  msg.sender */\n      caller\n        /* \"Voting.sol\":4128:4146  voters[msg.sender] */\n      0xffffffffffffffffffffffffffffffffffffffff\n      and\n      0xffffffffffffffffffffffffffffffffffffffff\n      and\n      dup2\n      mstore\n      0x20\n      add\n      swap1\n      dup2\n      mstore\n      0x20\n      add\n      0x00\n      keccak256\n        /* \"Voting.sol\":4128:4162  voters[msg.sender].votedProposalId */\n      0x01\n      add\n        /* \"Voting.sol\":4128:4190  voters[msg.sender].votedProposalId = proposals[_proposalId].id */\n      dup2\n      swap1\n      sstore\n      pop\n        /* \"Voting.sol\":4206:4259  Voted(msg.sender, voters[msg.sender].votedProposalId) */\n      0x4d99b957a2bc29a30ebd96a7be8e68fe50a3c701db28a91436490b7d53870ca4\n        /* \"Voting.sol\":4212:4222  msg.sender */\n      caller\n        /* \"Voting.sol\":4224:4230  voters */\n      0x02\n        /* \"Voting.sol\":4224:4242  voters[msg.sender] */\n      0x00\n        /* \"Voting.sol\":4231:4241  msg.sender */\n      caller\n        /* \"Voting.sol\":4224:4242  voters[msg.sender] */\n      0xffffffffffffffffffffffffffffffffffffffff\n      and\n      0xffffffffffffffffffffffffffffffffffffffff\n      and\n      dup2\n      mstore\n      0x20\n      add\n      swap1\n      dup2\n      mstore\n      0x20\n      add\n      0x00\n      keccak256\n        /* \"Voting.sol\":4224:4258  voters[msg.sender].votedProposalId */\n      0x01\n      add\n      sload\n        /* \"Voting.sol\":4206:4259  Voted(msg.sender, voters[msg.sender].votedProposalId) */\n      mload(0x40)\n      tag_96\n      swap3\n      swap2\n      swap1\n      tag_97\n      jump\t// in\n    tag_96:\n      mload(0x40)\n      dup1\n      swap2\n      sub\n      swap1\n      log1\n        /* \"Voting.sol\":3939:4266  function voteForProposition(uint _proposalId) external onlyVoters votingProposals VoteOnce {... */\n      pop\n      jump\t// out\n        /* \"https://github.com/OpenZeppelin/openzeppelin-contracts/blob/master/contracts/access/Ownable.sol\":1638:1723  function owner() public view virtual returns (address) {... */\n    tag_28:\n        /* \"https://github.com/OpenZeppelin/openzeppelin-contracts/blob/master/contracts/access/Ownable.sol\":1684:1691  address */\n      0x00\n        /* \"https://github.com/OpenZeppelin/openzeppelin-contracts/blob/master/contracts/access/Ownable.sol\":1710:1716  _owner */\n      dup1\n      0x00\n      swap1\n      sload\n      swap1\n      0x0100\n      exp\n      swap1\n      div\n      0xffffffffffffffffffffffffffffffffffffffff\n      and\n        /* \"https://github.com/OpenZeppelin/openzeppelin-contracts/blob/master/contracts/access/Ownable.sol\":1703:1716  return _owner */\n      swap1\n      pop\n        /* \"https://github.com/OpenZeppelin/openzeppelin-contracts/blob/master/contracts/access/Ownable.sol\":1638:1723  function owner() public view virtual returns (address) {... */\n      swap1\n      jump\t// out\n        /* \"Voting.sol\":4272:4705  function getWinner() external votesTallied returns (Proposal memory) {... */\n    tag_32:\n        /* \"Voting.sol\":4324:4339  Proposal memory */\n      tag_99\n      tag_100\n      jump\t// in\n    tag_99:\n        /* \"Voting.sol\":2250:2277  WorkflowStatus.VotesTallied */\n      0x05\n        /* \"Voting.sol\":2230:2277  currentVoteState == WorkflowStatus.VotesTallied */\n      dup1\n      dup2\n      gt\n      iszero\n      tag_102\n      jumpi\n      tag_103\n      tag_52\n      jump\t// in\n    tag_103:\n    tag_102:\n        /* \"Voting.sol\":2230:2246  currentVoteState */\n      0x05\n      0x00\n      swap1\n      sload\n      swap1\n      0x0100\n      exp\n      swap1\n      div\n      0xff\n      and\n        /* \"Voting.sol\":2230:2277  currentVoteState == WorkflowStatus.VotesTallied */\n      0x05\n      dup2\n      gt\n      iszero\n      tag_104\n      jumpi\n      tag_105\n      tag_52\n      jump\t// in\n    tag_105:\n    tag_104:\n      eq\n        /* \"Voting.sol\":2222:2327  require(currentVoteState == WorkflowStatus.VotesTallied, \"Votes need to be tallied in order to do that.\") */\n      tag_106\n      jumpi\n      mload(0x40)\n      0x08c379a000000000000000000000000000000000000000000000000000000000\n      dup2\n      mstore\n      0x04\n      add\n      tag_107\n      swap1\n      tag_108\n      jump\t// in\n    tag_107:\n      mload(0x40)\n      dup1\n      swap2\n      sub\n      swap1\n      revert\n    tag_106:\n        /* \"Voting.sol\":4351:4368  uint maxVoteCount */\n      0x00\n        /* \"Voting.sol\":4387:4393  uint i */\n      dup1\n        /* \"Voting.sol\":4382:4653  for (uint i=0; i<proposals.length; i++) {... */\n    tag_110:\n        /* \"Voting.sol\":4399:4408  proposals */\n      0x03\n        /* \"Voting.sol\":4399:4415  proposals.length */\n      dup1\n      sload\n      swap1\n      pop\n        /* \"Voting.sol\":4397:4398  i */\n      dup2\n        /* \"Voting.sol\":4397:4415  i<proposals.length */\n      lt\n        /* \"Voting.sol\":4382:4653  for (uint i=0; i<proposals.length; i++) {... */\n      iszero\n      tag_111\n      jumpi\n        /* \"Voting.sol\":4436:4460  Proposal memory proposal */\n      0x00\n        /* \"Voting.sol\":4463:4472  proposals */\n      0x03\n        /* \"Voting.sol\":4473:4474  i */\n      dup3\n        /* \"Voting.sol\":4463:4475  proposals[i] */\n      dup2\n      sload\n      dup2\n      lt\n      tag_113\n      jumpi\n      tag_114\n      tag_90\n      jump\t// in\n    tag_114:\n    tag_113:\n      swap1\n      0x00\n      mstore\n      keccak256(0x00, 0x20)\n      swap1\n      0x03\n      mul\n      add\n        /* \"Voting.sol\":4436:4475  Proposal memory proposal = proposals[i] */\n      mload(0x40)\n      dup1\n      0x60\n      add\n      0x40\n      mstore\n      swap1\n      dup2\n      0x00\n      dup3\n      add\n      sload\n      dup2\n      mstore\n      0x20\n      add\n      0x01\n      dup3\n      add\n      dup1\n      sload\n      tag_116\n      swap1\n      tag_117\n      jump\t// in\n    tag_116:\n      dup1\n      0x1f\n      add\n      0x20\n      dup1\n      swap2\n      div\n      mul\n      0x20\n      add\n      mload(0x40)\n      swap1\n      dup2\n      add\n      0x40\n      mstore\n      dup1\n      swap3\n      swap2\n      swap1\n      dup2\n      dup2\n      mstore\n      0x20\n      add\n      dup3\n      dup1\n      sload\n      tag_118\n      swap1\n      tag_117\n      jump\t// in\n    tag_118:\n      dup1\n      iszero\n      tag_119\n      jumpi\n      dup1\n      0x1f\n      lt\n      tag_120\n      jumpi\n      0x0100\n      dup1\n      dup4\n      sload\n      div\n      mul\n      dup4\n      mstore\n      swap2\n      0x20\n      add\n      swap2\n      jump(tag_119)\n    tag_120:\n      dup3\n      add\n      swap2\n      swap1\n      0x00\n      mstore\n      keccak256(0x00, 0x20)\n      swap1\n    tag_121:\n      dup2\n      sload\n      dup2\n      mstore\n      swap1\n      0x01\n      add\n      swap1\n      0x20\n      add\n      dup1\n      dup4\n      gt\n      tag_121\n      jumpi\n      dup3\n      swap1\n      sub\n      0x1f\n      and\n      dup3\n      add\n      swap2\n    tag_119:\n      pop\n      pop\n      pop\n      pop\n      pop\n      dup2\n      mstore\n      0x20\n      add\n      0x02\n      dup3\n      add\n      sload\n      dup2\n      mstore\n      pop\n      pop\n      swap1\n      pop\n        /* \"Voting.sol\":4514:4526  maxVoteCount */\n      dup3\n        /* \"Voting.sol\":4493:4501  proposal */\n      dup2\n        /* \"Voting.sol\":4493:4511  proposal.voteCount */\n      0x40\n      add\n      mload\n        /* \"Voting.sol\":4493:4526  proposal.voteCount > maxVoteCount */\n      gt\n        /* \"Voting.sol\":4489:4643  if (proposal.voteCount > maxVoteCount) {... */\n      iszero\n      tag_122\n      jumpi\n        /* \"Voting.sol\":4566:4574  proposal */\n      dup1\n        /* \"Voting.sol\":4566:4577  proposal.id */\n      0x00\n      add\n      mload\n        /* \"Voting.sol\":4546:4563  winningProposalId */\n      0x01\n        /* \"Voting.sol\":4546:4577  winningProposalId = proposal.id */\n      dup2\n      swap1\n      sstore\n      pop\n        /* \"Voting.sol\":4610:4618  proposal */\n      dup1\n        /* \"Voting.sol\":4610:4628  proposal.voteCount */\n      0x40\n      add\n      mload\n        /* \"Voting.sol\":4595:4628  maxVoteCount = proposal.voteCount */\n      swap3\n      pop\n        /* \"Voting.sol\":4489:4643  if (proposal.voteCount > maxVoteCount) {... */\n    tag_122:\n        /* \"Voting.sol\":4422:4653  {... */\n      pop\n        /* \"Voting.sol\":4417:4420  i++ */\n      dup1\n      dup1\n      0x01\n      add\n      swap2\n      pop\n      pop\n        /* \"Voting.sol\":4382:4653  for (uint i=0; i<proposals.length; i++) {... */\n      jump(tag_110)\n    tag_111:\n      pop\n        /* \"Voting.sol\":4670:4679  proposals */\n      0x03\n        /* \"Voting.sol\":4680:4697  winningProposalId */\n      sload(0x01)\n        /* \"Voting.sol\":4670:4698  proposals[winningProposalId] */\n      dup2\n      sload\n      dup2\n      lt\n      tag_123\n      jumpi\n      tag_124\n      tag_90\n      jump\t// in\n    tag_124:\n    tag_123:\n      swap1\n      0x00\n      mstore\n      keccak256(0x00, 0x20)\n      swap1\n      0x03\n      mul\n      add\n        /* \"Voting.sol\":4663:4698  return proposals[winningProposalId] */\n      mload(0x40)\n      dup1\n      0x60\n      add\n      0x40\n      mstore\n      swap1\n      dup2\n      0x00\n      dup3\n      add\n      sload\n      dup2\n      mstore\n      0x20\n      add\n      0x01\n      dup3\n      add\n      dup1\n      sload\n      tag_126\n      swap1\n      tag_117\n      jump\t// in\n    tag_126:\n      dup1\n      0x1f\n      add\n      0x20\n      dup1\n      swap2\n      div\n      mul\n      0x20\n      add\n      mload(0x40)\n      swap1\n      dup2\n      add\n      0x40\n      mstore\n      dup1\n      swap3\n      swap2\n      swap1\n      dup2\n      dup2\n      mstore\n      0x20\n      add\n      dup3\n      dup1\n      sload\n      tag_127\n      swap1\n      tag_117\n      jump\t// in\n    tag_127:\n      dup1\n      iszero\n      tag_128\n      jumpi\n      dup1\n      0x1f\n      lt\n      tag_129\n      jumpi\n      0x0100\n      dup1\n      dup4\n      sload\n      div\n      mul\n      dup4\n      mstore\n      swap2\n      0x20\n      add\n      swap2\n      jump(tag_128)\n    tag_129:\n      dup3\n      add\n      swap2\n      swap1\n      0x00\n      mstore\n      keccak256(0x00, 0x20)\n      swap1\n    tag_130:\n      dup2\n      sload\n      dup2\n      mstore\n      swap1\n      0x01\n      add\n      swap1\n      0x20\n      add\n      dup1\n      dup4\n      gt\n      tag_130\n      jumpi\n      dup3\n      swap1\n      sub\n      0x1f\n      and\n      dup3\n      add\n      swap2\n    tag_128:\n      pop\n      pop\n      pop\n      pop\n      pop\n      dup2\n      mstore\n      0x20\n      add\n      0x02\n      dup3\n      add\n      sload\n      dup2\n      mstore\n      pop\n      pop\n      swap2\n      pop\n      pop\n        /* \"Voting.sol\":4272:4705  function getWinner() external votesTallied returns (Proposal memory) {... */\n      swap1\n      jump\t// out\n        /* \"https://github.com/OpenZeppelin/openzeppelin-contracts/blob/master/contracts/access/Ownable.sol\":2543:2758  function transferOwnership(address newOwner) public virtual onlyOwner {... */\n    tag_38:\n        /* \"https://github.com/OpenZeppelin/openzeppelin-contracts/blob/master/contracts/access/Ownable.sol\":1531:1544  _checkOwner() */\n      tag_132\n        /* \"https://github.com/OpenZeppelin/openzeppelin-contracts/blob/master/contracts/access/Ownable.sol\":1531:1542  _checkOwner */\n      tag_68\n        /* \"https://github.com/OpenZeppelin/openzeppelin-contracts/blob/master/contracts/access/Ownable.sol\":1531:1544  _checkOwner() */\n      jump\t// in\n    tag_132:\n        /* \"https://github.com/OpenZeppelin/openzeppelin-contracts/blob/master/contracts/access/Ownable.sol\":2647:2648  0 */\n      0x00\n        /* \"https://github.com/OpenZeppelin/openzeppelin-contracts/blob/master/contracts/access/Ownable.sol\":2627:2649  newOwner == address(0) */\n      0xffffffffffffffffffffffffffffffffffffffff\n      and\n        /* \"https://github.com/OpenZeppelin/openzeppelin-contracts/blob/master/contracts/access/Ownable.sol\":2627:2635  newOwner */\n      dup2\n        /* \"https://github.com/OpenZeppelin/openzeppelin-contracts/blob/master/contracts/access/Ownable.sol\":2627:2649  newOwner == address(0) */\n      0xffffffffffffffffffffffffffffffffffffffff\n      and\n      sub\n        /* \"https://github.com/OpenZeppelin/openzeppelin-contracts/blob/master/contracts/access/Ownable.sol\":2623:2714  if (newOwner == address(0)) {... */\n      tag_134\n      jumpi\n        /* \"https://github.com/OpenZeppelin/openzeppelin-contracts/blob/master/contracts/access/Ownable.sol\":2700:2701  0 */\n      0x00\n        /* \"https://github.com/OpenZeppelin/openzeppelin-contracts/blob/master/contracts/access/Ownable.sol\":2672:2703  OwnableInvalidOwner(address(0)) */\n      mload(0x40)\n      0x1e4fbdf700000000000000000000000000000000000000000000000000000000\n      dup2\n      mstore\n      0x04\n      add\n      tag_135\n      swap2\n      swap1\n      tag_30\n      jump\t// in\n    tag_135:\n      mload(0x40)\n      dup1\n      swap2\n      sub\n      swap1\n      revert\n        /* \"https://github.com/OpenZeppelin/openzeppelin-contracts/blob/master/contracts/access/Ownable.sol\":2623:2714  if (newOwner == address(0)) {... */\n    tag_134:\n        /* \"https://github.com/OpenZeppelin/openzeppelin-contracts/blob/master/contracts/access/Ownable.sol\":2723:2751  _transferOwnership(newOwner) */\n      tag_136\n        /* \"https://github.com/OpenZeppelin/openzeppelin-contracts/blob/master/contracts/access/Ownable.sol\":2742:2750  newOwner */\n      dup2\n        /* \"https://github.com/OpenZeppelin/openzeppelin-contracts/blob/master/contracts/access/Ownable.sol\":2723:2741  _transferOwnership */\n      tag_71\n        /* \"https://github.com/OpenZeppelin/openzeppelin-contracts/blob/master/contracts/access/Ownable.sol\":2723:2751  _transferOwnership(newOwner) */\n      jump\t// in\n    tag_136:\n        /* \"https://github.com/OpenZeppelin/openzeppelin-contracts/blob/master/contracts/access/Ownable.sol\":2543:2758  function transferOwnership(address newOwner) public virtual onlyOwner {... */\n      pop\n      jump\t// out\n        /* \"Voting.sol\":3538:3704  function addVoter(address _address) external onlyOwner registeringVoters {... */\n    tag_41:\n        /* \"https://github.com/OpenZeppelin/openzeppelin-contracts/blob/master/contracts/access/Ownable.sol\":1531:1544  _checkOwner() */\n      tag_138\n        /* \"https://github.com/OpenZeppelin/openzeppelin-contracts/blob/master/contracts/access/Ownable.sol\":1531:1542  _checkOwner */\n      tag_68\n        /* \"https://github.com/OpenZeppelin/openzeppelin-contracts/blob/master/contracts/access/Ownable.sol\":1531:1544  _checkOwner() */\n      jump\t// in\n    tag_138:\n        /* \"Voting.sol\":2598:2630  WorkflowStatus.RegisteringVoters */\n      0x00\n        /* \"Voting.sol\":2578:2630  currentVoteState == WorkflowStatus.RegisteringVoters */\n      0x05\n      dup2\n      gt\n      iszero\n      tag_140\n      jumpi\n      tag_141\n      tag_52\n      jump\t// in\n    tag_141:\n    tag_140:\n        /* \"Voting.sol\":2578:2594  currentVoteState */\n      0x05\n      0x00\n      swap1\n      sload\n      swap1\n      0x0100\n      exp\n      swap1\n      div\n      0xff\n      and\n        /* \"Voting.sol\":2578:2630  currentVoteState == WorkflowStatus.RegisteringVoters */\n      0x05\n      dup2\n      gt\n      iszero\n      tag_142\n      jumpi\n      tag_143\n      tag_52\n      jump\t// in\n    tag_143:\n    tag_142:\n      eq\n        /* \"Voting.sol\":2570:2662  require(currentVoteState == WorkflowStatus.RegisteringVoters, \"You cannot register voters.\") */\n      tag_144\n      jumpi\n      mload(0x40)\n      0x08c379a000000000000000000000000000000000000000000000000000000000\n      dup2\n      mstore\n      0x04\n      add\n      tag_145\n      swap1\n      tag_146\n      jump\t// in\n    tag_145:\n      mload(0x40)\n      dup1\n      swap2\n      sub\n      swap1\n      revert\n    tag_144:\n        /* \"Voting.sol\":3653:3657  true */\n      0x01\n        /* \"Voting.sol\":3621:3627  voters */\n      0x02\n        /* \"Voting.sol\":3621:3637  voters[_address] */\n      0x00\n        /* \"Voting.sol\":3628:3636  _address */\n      dup4\n        /* \"Voting.sol\":3621:3637  voters[_address] */\n      0xffffffffffffffffffffffffffffffffffffffff\n      and\n      0xffffffffffffffffffffffffffffffffffffffff\n      and\n      dup2\n      mstore\n      0x20\n      add\n      swap1\n      dup2\n      mstore\n      0x20\n      add\n      0x00\n      keccak256\n        /* \"Voting.sol\":3621:3650  voters[_address].isRegistered */\n      0x00\n      add\n      0x00\n        /* \"Voting.sol\":3621:3657  voters[_address].isRegistered = true */\n      0x0100\n      exp\n      dup2\n      sload\n      dup2\n      0xff\n      mul\n      not\n      and\n      swap1\n      dup4\n      iszero\n      iszero\n      mul\n      or\n      swap1\n      sstore\n      pop\n        /* \"Voting.sol\":3672:3697  VoterRegistered(_address) */\n      0xb6be2187d059cc2a55fe29e0e503b566e1e0f8c8780096e185429350acffd3dd\n        /* \"Voting.sol\":3688:3696  _address */\n      dup2\n        /* \"Voting.sol\":3672:3697  VoterRegistered(_address) */\n      mload(0x40)\n      tag_148\n      swap2\n      swap1\n      tag_30\n      jump\t// in\n    tag_148:\n      mload(0x40)\n      dup1\n      swap2\n      sub\n      swap1\n      log1\n        /* \"Voting.sol\":3538:3704  function addVoter(address _address) external onlyOwner registeringVoters {... */\n      pop\n      jump\t// out\n        /* \"Voting.sol\":3266:3528  function nextVoteStep() external onlyOwner votesNotTallied {... */\n    tag_43:\n        /* \"https://github.com/OpenZeppelin/openzeppelin-contracts/blob/master/contracts/access/Ownable.sol\":1531:1544  _checkOwner() */\n      tag_150\n        /* \"https://github.com/OpenZeppelin/openzeppelin-contracts/blob/master/contracts/access/Ownable.sol\":1531:1542  _checkOwner */\n      tag_68\n        /* \"https://github.com/OpenZeppelin/openzeppelin-contracts/blob/master/contracts/access/Ownable.sol\":1531:1544  _checkOwner() */\n      jump\t// in\n    tag_150:\n        /* \"Voting.sol\":2416:2443  WorkflowStatus.VotesTallied */\n      0x05\n        /* \"Voting.sol\":2396:2443  currentVoteState != WorkflowStatus.VotesTallied */\n      dup1\n      dup2\n      gt\n      iszero\n      tag_152\n      jumpi\n      tag_153\n      tag_52\n      jump\t// in\n    tag_153:\n    tag_152:\n        /* \"Voting.sol\":2396:2412  currentVoteState */\n      0x05\n      0x00\n      swap1\n      sload\n      swap1\n      0x0100\n      exp\n      swap1\n      div\n      0xff\n      and\n        /* \"Voting.sol\":2396:2443  currentVoteState != WorkflowStatus.VotesTallied */\n      0x05\n      dup2\n      gt\n      iszero\n      tag_154\n      jumpi\n      tag_155\n      tag_52\n      jump\t// in\n    tag_155:\n    tag_154:\n      sub\n        /* \"Voting.sol\":2388:2507  require(currentVoteState != WorkflowStatus.VotesTallied, \"Votes have been tallied. It is over. There is no next step!\") */\n      tag_156\n      jumpi\n      mload(0x40)\n      0x08c379a000000000000000000000000000000000000000000000000000000000\n      dup2\n      mstore\n      0x04\n      add\n      tag_157\n      swap1\n      tag_158\n      jump\t// in\n    tag_157:\n      mload(0x40)\n      dup1\n      swap2\n      sub\n      swap1\n      revert\n    tag_156:\n        /* \"Voting.sol\":3335:3363  WorkflowStatus previousState */\n      0x00\n        /* \"Voting.sol\":3366:3382  currentVoteState */\n      0x05\n      0x00\n      swap1\n      sload\n      swap1\n      0x0100\n      exp\n      swap1\n      div\n      0xff\n      and\n        /* \"Voting.sol\":3335:3382  WorkflowStatus previousState = currentVoteState */\n      swap1\n      pop\n        /* \"Voting.sol\":3451:3452  1 */\n      0x01\n        /* \"Voting.sol\":3431:3447  currentVoteState */\n      0x05\n      0x00\n      swap1\n      sload\n      swap1\n      0x0100\n      exp\n      swap1\n      div\n      0xff\n      and\n        /* \"Voting.sol\":3426:3448  uint(currentVoteState) */\n      0x05\n      dup2\n      gt\n      iszero\n      tag_160\n      jumpi\n      tag_161\n      tag_52\n      jump\t// in\n    tag_161:\n    tag_160:\n        /* \"Voting.sol\":3426:3452  uint(currentVoteState) + 1 */\n      tag_162\n      swap2\n      swap1\n      tag_163\n      jump\t// in\n    tag_162:\n        /* \"Voting.sol\":3411:3453  WorkflowStatus(uint(currentVoteState) + 1) */\n      0x05\n      dup2\n      gt\n      iszero\n      tag_164\n      jumpi\n      tag_165\n      tag_52\n      jump\t// in\n    tag_165:\n    tag_164:\n        /* \"Voting.sol\":3392:3408  currentVoteState */\n      0x05\n      0x00\n        /* \"Voting.sol\":3392:3453  currentVoteState = WorkflowStatus(uint(currentVoteState) + 1) */\n      0x0100\n      exp\n      dup2\n      sload\n      dup2\n      0xff\n      mul\n      not\n      and\n      swap1\n      dup4\n      0x05\n      dup2\n      gt\n      iszero\n      tag_166\n      jumpi\n      tag_167\n      tag_52\n      jump\t// in\n    tag_167:\n    tag_166:\n      mul\n      or\n      swap1\n      sstore\n      pop\n        /* \"Voting.sol\":3468:3521  WorkflowStatusChange(previousState, currentVoteState) */\n      0x0a97a4ee45751e2abf3e4fc8946939630b11b371ea8ae39ccdc3056e98f5cc3f\n        /* \"Voting.sol\":3489:3502  previousState */\n      dup2\n        /* \"Voting.sol\":3504:3520  currentVoteState */\n      0x05\n      0x00\n      swap1\n      sload\n      swap1\n      0x0100\n      exp\n      swap1\n      div\n      0xff\n      and\n        /* \"Voting.sol\":3468:3521  WorkflowStatusChange(previousState, currentVoteState) */\n      mload(0x40)\n      tag_168\n      swap3\n      swap2\n      swap1\n      tag_169\n      jump\t// in\n    tag_168:\n      mload(0x40)\n      dup1\n      swap2\n      sub\n      swap1\n      log1\n        /* \"Voting.sol\":3325:3528  {... */\n      pop\n        /* \"Voting.sol\":3266:3528  function nextVoteStep() external onlyOwner votesNotTallied {... */\n      jump\t// out\n        /* \"https://github.com/OpenZeppelin/openzeppelin-contracts/blob/master/contracts/access/Ownable.sol\":1796:1958  function _checkOwner() internal view virtual {... */\n    tag_68:\n        /* \"https://github.com/OpenZeppelin/openzeppelin-contracts/blob/master/contracts/access/Ownable.sol\":1866:1878  _msgSender() */\n      tag_171\n        /* \"https://github.com/OpenZeppelin/openzeppelin-contracts/blob/master/contracts/access/Ownable.sol\":1866:1876  _msgSender */\n      tag_172\n        /* \"https://github.com/OpenZeppelin/openzeppelin-contracts/blob/master/contracts/access/Ownable.sol\":1866:1878  _msgSender() */\n      jump\t// in\n    tag_171:\n        /* \"https://github.com/OpenZeppelin/openzeppelin-contracts/blob/master/contracts/access/Ownable.sol\":1855:1878  owner() != _msgSender() */\n      0xffffffffffffffffffffffffffffffffffffffff\n      and\n        /* \"https://github.com/OpenZeppelin/openzeppelin-contracts/blob/master/contracts/access/Ownable.sol\":1855:1862  owner() */\n      tag_173\n        /* \"https://github.com/OpenZeppelin/openzeppelin-contracts/blob/master/contracts/access/Ownable.sol\":1855:1860  owner */\n      tag_28\n        /* \"https://github.com/OpenZeppelin/openzeppelin-contracts/blob/master/contracts/access/Ownable.sol\":1855:1862  owner() */\n      jump\t// in\n    tag_173:\n        /* \"https://github.com/OpenZeppelin/openzeppelin-contracts/blob/master/contracts/access/Ownable.sol\":1855:1878  owner() != _msgSender() */\n      0xffffffffffffffffffffffffffffffffffffffff\n      and\n      eq\n        /* \"https://github.com/OpenZeppelin/openzeppelin-contracts/blob/master/contracts/access/Ownable.sol\":1851:1952  if (owner() != _msgSender()) {... */\n      tag_174\n      jumpi\n        /* \"https://github.com/OpenZeppelin/openzeppelin-contracts/blob/master/contracts/access/Ownable.sol\":1928:1940  _msgSender() */\n      tag_175\n        /* \"https://github.com/OpenZeppelin/openzeppelin-contracts/blob/master/contracts/access/Ownable.sol\":1928:1938  _msgSender */\n      tag_172\n        /* \"https://github.com/OpenZeppelin/openzeppelin-contracts/blob/master/contracts/access/Ownable.sol\":1928:1940  _msgSender() */\n      jump\t// in\n    tag_175:\n        /* \"https://github.com/OpenZeppelin/openzeppelin-contracts/blob/master/contracts/access/Ownable.sol\":1901:1941  OwnableUnauthorizedAccount(_msgSender()) */\n      mload(0x40)\n      0x118cdaa700000000000000000000000000000000000000000000000000000000\n      dup2\n      mstore\n      0x04\n      add\n      tag_176\n      swap2\n      swap1\n      tag_30\n      jump\t// in\n    tag_176:\n      mload(0x40)\n      dup1\n      swap2\n      sub\n      swap1\n      revert\n        /* \"https://github.com/OpenZeppelin/openzeppelin-contracts/blob/master/contracts/access/Ownable.sol\":1851:1952  if (owner() != _msgSender()) {... */\n    tag_174:\n        /* \"https://github.com/OpenZeppelin/openzeppelin-contracts/blob/master/contracts/access/Ownable.sol\":1796:1958  function _checkOwner() internal view virtual {... */\n      jump\t// out\n        /* \"https://github.com/OpenZeppelin/openzeppelin-contracts/blob/master/contracts/access/Ownable.sol\":2912:3099  function _transferOwnership(address newOwner) internal virtual {... */\n    tag_71:\n        /* \"https://github.com/OpenZeppelin/openzeppelin-contracts/blob/master/contracts/access/Ownable.sol\":2985:3001  address oldOwner */\n      0x00\n        /* \"https://github.com/OpenZeppelin/openzeppelin-contracts/blob/master/contracts/access/Ownable.sol\":3004:3010  _owner */\n      dup1\n      0x00\n      swap1\n      sload\n      swap1\n      0x0100\n      exp\n      swap1\n      div\n      0xffffffffffffffffffffffffffffffffffffffff\n      and\n        /* \"https://github.com/OpenZeppelin/openzeppelin-contracts/blob/master/contracts/access/Ownable.sol\":2985:3010  address oldOwner = _owner */\n      swap1\n      pop\n        /* \"https://github.com/OpenZeppelin/openzeppelin-contracts/blob/master/contracts/access/Ownable.sol\":3029:3037  newOwner */\n      dup2\n        /* \"https://github.com/OpenZeppelin/openzeppelin-contracts/blob/master/contracts/access/Ownable.sol\":3020:3026  _owner */\n      0x00\n      dup1\n        /* \"https://github.com/OpenZeppelin/openzeppelin-contracts/blob/master/contracts/access/Ownable.sol\":3020:3037  _owner = newOwner */\n      0x0100\n      exp\n      dup2\n      sload\n      dup2\n      0xffffffffffffffffffffffffffffffffffffffff\n      mul\n      not\n      and\n      swap1\n      dup4\n      0xffffffffffffffffffffffffffffffffffffffff\n      and\n      mul\n      or\n      swap1\n      sstore\n      pop\n        /* \"https://github.com/OpenZeppelin/openzeppelin-contracts/blob/master/contracts/access/Ownable.sol\":3083:3091  newOwner */\n      dup2\n        /* \"https://github.com/OpenZeppelin/openzeppelin-contracts/blob/master/contracts/access/Ownable.sol\":3052:3092  OwnershipTransferred(oldOwner, newOwner) */\n      0xffffffffffffffffffffffffffffffffffffffff\n      and\n        /* \"https://github.com/OpenZeppelin/openzeppelin-contracts/blob/master/contracts/access/Ownable.sol\":3073:3081  oldOwner */\n      dup2\n        /* \"https://github.com/OpenZeppelin/openzeppelin-contracts/blob/master/contracts/access/Ownable.sol\":3052:3092  OwnershipTransferred(oldOwner, newOwner) */\n      0xffffffffffffffffffffffffffffffffffffffff\n      and\n      0x8be0079c531659141344cd1fd0a4f28419497f9722a3daafe3b4186f6b6457e0\n      mload(0x40)\n      mload(0x40)\n      dup1\n      swap2\n      sub\n      swap1\n      log3\n        /* \"https://github.com/OpenZeppelin/openzeppelin-contracts/blob/master/contracts/access/Ownable.sol\":2975:3099  {... */\n      pop\n        /* \"https://github.com/OpenZeppelin/openzeppelin-contracts/blob/master/contracts/access/Ownable.sol\":2912:3099  function _transferOwnership(address newOwner) internal virtual {... */\n      pop\n      jump\t// out\n        /* \"https://github.com/OpenZeppelin/openzeppelin-contracts/blob/master/contracts/utils/Context.sol\":656:752  function _msgSender() internal view virtual returns (address) {... */\n    tag_172:\n        /* \"https://github.com/OpenZeppelin/openzeppelin-contracts/blob/master/contracts/utils/Context.sol\":709:716  address */\n      0x00\n        /* \"https://github.com/OpenZeppelin/openzeppelin-contracts/blob/master/contracts/utils/Context.sol\":735:745  msg.sender */\n      caller\n        /* \"https://github.com/OpenZeppelin/openzeppelin-contracts/blob/master/contracts/utils/Context.sol\":728:745  return msg.sender */\n      swap1\n      pop\n        /* \"https://github.com/OpenZeppelin/openzeppelin-contracts/blob/master/contracts/utils/Context.sol\":656:752  function _msgSender() internal view virtual returns (address) {... */\n      swap1\n      jump\t// out\n    tag_100:\n      mload(0x40)\n      dup1\n      0x60\n      add\n      0x40\n      mstore\n      dup1\n      0x00\n      dup2\n      mstore\n      0x20\n      add\n      0x60\n      dup2\n      mstore\n      0x20\n      add\n      0x00\n      dup2\n      mstore\n      pop\n      swap1\n      jump\t// out\n        /* \"#utility.yul\":7:187   */\n    tag_52:\n        /* \"#utility.yul\":55:132   */\n      0x4e487b7100000000000000000000000000000000000000000000000000000000\n        /* \"#utility.yul\":52:53   */\n      0x00\n        /* \"#utility.yul\":45:133   */\n      mstore\n        /* \"#utility.yul\":152:156   */\n      0x21\n        /* \"#utility.yul\":149:150   */\n      0x04\n        /* \"#utility.yul\":142:157   */\n      mstore\n        /* \"#utility.yul\":176:180   */\n      0x24\n        /* \"#utility.yul\":173:174   */\n      0x00\n        /* \"#utility.yul\":166:181   */\n      revert\n        /* \"#utility.yul\":193:316   */\n    tag_179:\n        /* \"#utility.yul\":284:285   */\n      0x06\n        /* \"#utility.yul\":277:282   */\n      dup2\n        /* \"#utility.yul\":274:286   */\n      lt\n        /* \"#utility.yul\":264:310   */\n      tag_242\n      jumpi\n        /* \"#utility.yul\":290:308   */\n      tag_243\n      tag_52\n      jump\t// in\n    tag_243:\n        /* \"#utility.yul\":264:310   */\n    tag_242:\n        /* \"#utility.yul\":193:316   */\n      pop\n      jump\t// out\n        /* \"#utility.yul\":322:469   */\n    tag_180:\n        /* \"#utility.yul\":377:384   */\n      0x00\n        /* \"#utility.yul\":406:411   */\n      dup2\n        /* \"#utility.yul\":395:411   */\n      swap1\n      pop\n        /* \"#utility.yul\":412:463   */\n      tag_245\n        /* \"#utility.yul\":457:462   */\n      dup3\n        /* \"#utility.yul\":412:463   */\n      tag_179\n      jump\t// in\n    tag_245:\n        /* \"#utility.yul\":322:469   */\n      swap2\n      swap1\n      pop\n      jump\t// out\n        /* \"#utility.yul\":475:622   */\n    tag_181:\n        /* \"#utility.yul\":541:550   */\n      0x00\n        /* \"#utility.yul\":574:616   */\n      tag_247\n        /* \"#utility.yul\":610:615   */\n      dup3\n        /* \"#utility.yul\":574:616   */\n      tag_180\n      jump\t// in\n    tag_247:\n        /* \"#utility.yul\":561:616   */\n      swap1\n      pop\n        /* \"#utility.yul\":475:622   */\n      swap2\n      swap1\n      pop\n      jump\t// out\n        /* \"#utility.yul\":628:791   */\n    tag_182:\n        /* \"#utility.yul\":731:784   */\n      tag_249\n        /* \"#utility.yul\":778:783   */\n      dup2\n        /* \"#utility.yul\":731:784   */\n      tag_181\n      jump\t// in\n    tag_249:\n        /* \"#utility.yul\":726:729   */\n      dup3\n        /* \"#utility.yul\":719:785   */\n      mstore\n        /* \"#utility.yul\":628:791   */\n      pop\n      pop\n      jump\t// out\n        /* \"#utility.yul\":797:1051   */\n    tag_16:\n        /* \"#utility.yul\":906:910   */\n      0x00\n        /* \"#utility.yul\":944:946   */\n      0x20\n        /* \"#utility.yul\":933:942   */\n      dup3\n        /* \"#utility.yul\":929:947   */\n      add\n        /* \"#utility.yul\":921:947   */\n      swap1\n      pop\n        /* \"#utility.yul\":957:1044   */\n      tag_251\n        /* \"#utility.yul\":1041:1042   */\n      0x00\n        /* \"#utility.yul\":1030:1039   */\n      dup4\n        /* \"#utility.yul\":1026:1043   */\n      add\n        /* \"#utility.yul\":1017:1023   */\n      dup5\n        /* \"#utility.yul\":957:1044   */\n      tag_182\n      jump\t// in\n    tag_251:\n        /* \"#utility.yul\":797:1051   */\n      swap3\n      swap2\n      pop\n      pop\n      jump\t// out\n        /* \"#utility.yul\":1138:1255   */\n    tag_184:\n        /* \"#utility.yul\":1247:1248   */\n      0x00\n        /* \"#utility.yul\":1244:1245   */\n      dup1\n        /* \"#utility.yul\":1237:1249   */\n      revert\n        /* \"#utility.yul\":1261:1378   */\n    tag_185:\n        /* \"#utility.yul\":1370:1371   */\n      0x00\n        /* \"#utility.yul\":1367:1368   */\n      dup1\n        /* \"#utility.yul\":1360:1372   */\n      revert\n        /* \"#utility.yul\":1384:1501   */\n    tag_186:\n        /* \"#utility.yul\":1493:1494   */\n      0x00\n        /* \"#utility.yul\":1490:1491   */\n      dup1\n        /* \"#utility.yul\":1483:1495   */\n      revert\n        /* \"#utility.yul\":1507:1624   */\n    tag_187:\n        /* \"#utility.yul\":1616:1617   */\n      0x00\n        /* \"#utility.yul\":1613:1614   */\n      dup1\n        /* \"#utility.yul\":1606:1618   */\n      revert\n        /* \"#utility.yul\":1630:1747   */\n    tag_188:\n        /* \"#utility.yul\":1739:1740   */\n      0x00\n        /* \"#utility.yul\":1736:1737   */\n      dup1\n        /* \"#utility.yul\":1729:1741   */\n      revert\n        /* \"#utility.yul\":1767:2320   */\n    tag_189:\n        /* \"#utility.yul\":1825:1833   */\n      0x00\n        /* \"#utility.yul\":1835:1841   */\n      dup1\n        /* \"#utility.yul\":1885:1888   */\n      dup4\n        /* \"#utility.yul\":1878:1882   */\n      0x1f\n        /* \"#utility.yul\":1870:1876   */\n      dup5\n        /* \"#utility.yul\":1866:1883   */\n      add\n        /* \"#utility.yul\":1862:1889   */\n      slt\n        /* \"#utility.yul\":1852:1974   */\n      tag_259\n      jumpi\n        /* \"#utility.yul\":1893:1972   */\n      tag_260\n      tag_186\n      jump\t// in\n    tag_260:\n        /* \"#utility.yul\":1852:1974   */\n    tag_259:\n        /* \"#utility.yul\":2006:2012   */\n      dup3\n        /* \"#utility.yul\":1993:2013   */\n      calldataload\n        /* \"#utility.yul\":1983:2013   */\n      swap1\n      pop\n        /* \"#utility.yul\":2036:2054   */\n      0xffffffffffffffff\n        /* \"#utility.yul\":2028:2034   */\n      dup2\n        /* \"#utility.yul\":2025:2055   */\n      gt\n        /* \"#utility.yul\":2022:2139   */\n      iszero\n      tag_261\n      jumpi\n        /* \"#utility.yul\":2058:2137   */\n      tag_262\n      tag_187\n      jump\t// in\n    tag_262:\n        /* \"#utility.yul\":2022:2139   */\n    tag_261:\n        /* \"#utility.yul\":2172:2176   */\n      0x20\n        /* \"#utility.yul\":2164:2170   */\n      dup4\n        /* \"#utility.yul\":2160:2177   */\n      add\n        /* \"#utility.yul\":2148:2177   */\n      swap2\n      pop\n        /* \"#utility.yul\":2226:2229   */\n      dup4\n        /* \"#utility.yul\":2218:2222   */\n      0x01\n        /* \"#utility.yul\":2210:2216   */\n      dup3\n        /* \"#utility.yul\":2206:2223   */\n      mul\n        /* \"#utility.yul\":2196:2204   */\n      dup4\n        /* \"#utility.yul\":2192:2224   */\n      add\n        /* \"#utility.yul\":2189:2230   */\n      gt\n        /* \"#utility.yul\":2186:2314   */\n      iszero\n      tag_263\n      jumpi\n        /* \"#utility.yul\":2233:2312   */\n      tag_264\n      tag_188\n      jump\t// in\n    tag_264:\n        /* \"#utility.yul\":2186:2314   */\n    tag_263:\n        /* \"#utility.yul\":1767:2320   */\n      swap3\n      pop\n      swap3\n      swap1\n      pop\n      jump\t// out\n        /* \"#utility.yul\":2326:2855   */\n    tag_19:\n        /* \"#utility.yul\":2397:2403   */\n      0x00\n        /* \"#utility.yul\":2405:2411   */\n      dup1\n        /* \"#utility.yul\":2454:2456   */\n      0x20\n        /* \"#utility.yul\":2442:2451   */\n      dup4\n        /* \"#utility.yul\":2433:2440   */\n      dup6\n        /* \"#utility.yul\":2429:2452   */\n      sub\n        /* \"#utility.yul\":2425:2457   */\n      slt\n        /* \"#utility.yul\":2422:2541   */\n      iszero\n      tag_266\n      jumpi\n        /* \"#utility.yul\":2460:2539   */\n      tag_267\n      tag_184\n      jump\t// in\n    tag_267:\n        /* \"#utility.yul\":2422:2541   */\n    tag_266:\n        /* \"#utility.yul\":2608:2609   */\n      0x00\n        /* \"#utility.yul\":2597:2606   */\n      dup4\n        /* \"#utility.yul\":2593:2610   */\n      add\n        /* \"#utility.yul\":2580:2611   */\n      calldataload\n        /* \"#utility.yul\":2638:2656   */\n      0xffffffffffffffff\n        /* \"#utility.yul\":2630:2636   */\n      dup2\n        /* \"#utility.yul\":2627:2657   */\n      gt\n        /* \"#utility.yul\":2624:2741   */\n      iszero\n      tag_268\n      jumpi\n        /* \"#utility.yul\":2660:2739   */\n      tag_269\n      tag_185\n      jump\t// in\n    tag_269:\n        /* \"#utility.yul\":2624:2741   */\n    tag_268:\n        /* \"#utility.yul\":2773:2838   */\n      tag_270\n        /* \"#utility.yul\":2830:2837   */\n      dup6\n        /* \"#utility.yul\":2821:2827   */\n      dup3\n        /* \"#utility.yul\":2810:2819   */\n      dup7\n        /* \"#utility.yul\":2806:2828   */\n      add\n        /* \"#utility.yul\":2773:2838   */\n      tag_189\n      jump\t// in\n    tag_270:\n        /* \"#utility.yul\":2755:2838   */\n      swap3\n      pop\n      swap3\n      pop\n        /* \"#utility.yul\":2551:2848   */\n      pop\n        /* \"#utility.yul\":2326:2855   */\n      swap3\n      pop\n      swap3\n      swap1\n      pop\n      jump\t// out\n        /* \"#utility.yul\":2861:2938   */\n    tag_190:\n        /* \"#utility.yul\":2898:2905   */\n      0x00\n        /* \"#utility.yul\":2927:2932   */\n      dup2\n        /* \"#utility.yul\":2916:2932   */\n      swap1\n      pop\n        /* \"#utility.yul\":2861:2938   */\n      swap2\n      swap1\n      pop\n      jump\t// out\n        /* \"#utility.yul\":2944:3066   */\n    tag_191:\n        /* \"#utility.yul\":3017:3041   */\n      tag_273\n        /* \"#utility.yul\":3035:3040   */\n      dup2\n        /* \"#utility.yul\":3017:3041   */\n      tag_190\n      jump\t// in\n    tag_273:\n        /* \"#utility.yul\":3010:3015   */\n      dup2\n        /* \"#utility.yul\":3007:3042   */\n      eq\n        /* \"#utility.yul\":2997:3060   */\n      tag_274\n      jumpi\n        /* \"#utility.yul\":3056:3057   */\n      0x00\n        /* \"#utility.yul\":3053:3054   */\n      dup1\n        /* \"#utility.yul\":3046:3058   */\n      revert\n        /* \"#utility.yul\":2997:3060   */\n    tag_274:\n        /* \"#utility.yul\":2944:3066   */\n      pop\n      jump\t// out\n        /* \"#utility.yul\":3072:3211   */\n    tag_192:\n        /* \"#utility.yul\":3118:3123   */\n      0x00\n        /* \"#utility.yul\":3156:3162   */\n      dup2\n        /* \"#utility.yul\":3143:3163   */\n      calldataload\n        /* \"#utility.yul\":3134:3163   */\n      swap1\n      pop\n        /* \"#utility.yul\":3172:3205   */\n      tag_276\n        /* \"#utility.yul\":3199:3204   */\n      dup2\n        /* \"#utility.yul\":3172:3205   */\n      tag_191\n      jump\t// in\n    tag_276:\n        /* \"#utility.yul\":3072:3211   */\n      swap3\n      swap2\n      pop\n      pop\n      jump\t// out\n        /* \"#utility.yul\":3217:3546   */\n    tag_25:\n        /* \"#utility.yul\":3276:3282   */\n      0x00\n        /* \"#utility.yul\":3325:3327   */\n      0x20\n        /* \"#utility.yul\":3313:3322   */\n      dup3\n        /* \"#utility.yul\":3304:3311   */\n      dup5\n        /* \"#utility.yul\":3300:3323   */\n      sub\n        /* \"#utility.yul\":3296:3328   */\n      slt\n        /* \"#utility.yul\":3293:3412   */\n      iszero\n      tag_278\n      jumpi\n        /* \"#utility.yul\":3331:3410   */\n      tag_279\n      tag_184\n      jump\t// in\n    tag_279:\n        /* \"#utility.yul\":3293:3412   */\n    tag_278:\n        /* \"#utility.yul\":3451:3452   */\n      0x00\n        /* \"#utility.yul\":3476:3529   */\n      tag_280\n        /* \"#utility.yul\":3521:3528   */\n      dup5\n        /* \"#utility.yul\":3512:3518   */\n      dup3\n        /* \"#utility.yul\":3501:3510   */\n      dup6\n        /* \"#utility.yul\":3497:3519   */\n      add\n        /* \"#utility.yul\":3476:3529   */\n      tag_192\n      jump\t// in\n    tag_280:\n        /* \"#utility.yul\":3466:3529   */\n      swap2\n      pop\n        /* \"#utility.yul\":3422:3539   */\n      pop\n        /* \"#utility.yul\":3217:3546   */\n      swap3\n      swap2\n      pop\n      pop\n      jump\t// out\n        /* \"#utility.yul\":3552:3678   */\n    tag_193:\n        /* \"#utility.yul\":3589:3596   */\n      0x00\n        /* \"#utility.yul\":3629:3671   */\n      0xffffffffffffffffffffffffffffffffffffffff\n        /* \"#utility.yul\":3622:3627   */\n      dup3\n        /* \"#utility.yul\":3618:3672   */\n      and\n        /* \"#utility.yul\":3607:3672   */\n      swap1\n      pop\n        /* \"#utility.yul\":3552:3678   */\n      swap2\n      swap1\n      pop\n      jump\t// out\n        /* \"#utility.yul\":3684:3780   */\n    tag_194:\n        /* \"#utility.yul\":3721:3728   */\n      0x00\n        /* \"#utility.yul\":3750:3774   */\n      tag_283\n        /* \"#utility.yul\":3768:3773   */\n      dup3\n        /* \"#utility.yul\":3750:3774   */\n      tag_193\n      jump\t// in\n    tag_283:\n        /* \"#utility.yul\":3739:3774   */\n      swap1\n      pop\n        /* \"#utility.yul\":3684:3780   */\n      swap2\n      swap1\n      pop\n      jump\t// out\n        /* \"#utility.yul\":3786:3904   */\n    tag_195:\n        /* \"#utility.yul\":3873:3897   */\n      tag_285\n        /* \"#utility.yul\":3891:3896   */\n      dup2\n        /* \"#utility.yul\":3873:3897   */\n      tag_194\n      jump\t// in\n    tag_285:\n        /* \"#utility.yul\":3868:3871   */\n      dup3\n        /* \"#utility.yul\":3861:3898   */\n      mstore\n        /* \"#utility.yul\":3786:3904   */\n      pop\n      pop\n      jump\t// out\n        /* \"#utility.yul\":3910:4132   */\n    tag_30:\n        /* \"#utility.yul\":4003:4007   */\n      0x00\n        /* \"#utility.yul\":4041:4043   */\n      0x20\n        /* \"#utility.yul\":4030:4039   */\n      dup3\n        /* \"#utility.yul\":4026:4044   */\n      add\n        /* \"#utility.yul\":4018:4044   */\n      swap1\n      pop\n        /* \"#utility.yul\":4054:4125   */\n      tag_287\n        /* \"#utility.yul\":4122:4123   */\n      0x00\n        /* \"#utility.yul\":4111:4120   */\n      dup4\n        /* \"#utility.yul\":4107:4124   */\n      add\n        /* \"#utility.yul\":4098:4104   */\n      dup5\n        /* \"#utility.yul\":4054:4125   */\n      tag_195\n      jump\t// in\n    tag_287:\n        /* \"#utility.yul\":3910:4132   */\n      swap3\n      swap2\n      pop\n      pop\n      jump\t// out\n        /* \"#utility.yul\":4138:4246   */\n    tag_196:\n        /* \"#utility.yul\":4215:4239   */\n      tag_289\n        /* \"#utility.yul\":4233:4238   */\n      dup2\n        /* \"#utility.yul\":4215:4239   */\n      tag_190\n      jump\t// in\n    tag_289:\n        /* \"#utility.yul\":4210:4213   */\n      dup3\n        /* \"#utility.yul\":4203:4240   */\n      mstore\n        /* \"#utility.yul\":4138:4246   */\n      pop\n      pop\n      jump\t// out\n        /* \"#utility.yul\":4252:4351   */\n    tag_197:\n        /* \"#utility.yul\":4304:4310   */\n      0x00\n        /* \"#utility.yul\":4338:4343   */\n      dup2\n        /* \"#utility.yul\":4332:4344   */\n      mload\n        /* \"#utility.yul\":4322:4344   */\n      swap1\n      pop\n        /* \"#utility.yul\":4252:4351   */\n      swap2\n      swap1\n      pop\n      jump\t// out\n        /* \"#utility.yul\":4357:4516   */\n    tag_198:\n        /* \"#utility.yul\":4431:4442   */\n      0x00\n        /* \"#utility.yul\":4465:4471   */\n      dup3\n        /* \"#utility.yul\":4460:4463   */\n      dup3\n        /* \"#utility.yul\":4453:4472   */\n      mstore\n        /* \"#utility.yul\":4505:4509   */\n      0x20\n        /* \"#utility.yul\":4500:4503   */\n      dup3\n        /* \"#utility.yul\":4496:4510   */\n      add\n        /* \"#utility.yul\":4481:4510   */\n      swap1\n      pop\n        /* \"#utility.yul\":4357:4516   */\n      swap3\n      swap2\n      pop\n      pop\n      jump\t// out\n        /* \"#utility.yul\":4522:4768   */\n    tag_199:\n        /* \"#utility.yul\":4603:4604   */\n      0x00\n        /* \"#utility.yul\":4613:4726   */\n    tag_293:\n        /* \"#utility.yul\":4627:4633   */\n      dup4\n        /* \"#utility.yul\":4624:4625   */\n      dup2\n        /* \"#utility.yul\":4621:4634   */\n      lt\n        /* \"#utility.yul\":4613:4726   */\n      iszero\n      tag_295\n      jumpi\n        /* \"#utility.yul\":4712:4713   */\n      dup1\n        /* \"#utility.yul\":4707:4710   */\n      dup3\n        /* \"#utility.yul\":4703:4714   */\n      add\n        /* \"#utility.yul\":4697:4715   */\n      mload\n        /* \"#utility.yul\":4693:4694   */\n      dup2\n        /* \"#utility.yul\":4688:4691   */\n      dup5\n        /* \"#utility.yul\":4684:4695   */\n      add\n        /* \"#utility.yul\":4677:4716   */\n      mstore\n        /* \"#utility.yul\":4649:4651   */\n      0x20\n        /* \"#utility.yul\":4646:4647   */\n      dup2\n        /* \"#utility.yul\":4642:4652   */\n      add\n        /* \"#utility.yul\":4637:4652   */\n      swap1\n      pop\n        /* \"#utility.yul\":4613:4726   */\n      jump(tag_293)\n    tag_295:\n        /* \"#utility.yul\":4760:4761   */\n      0x00\n        /* \"#utility.yul\":4751:4757   */\n      dup5\n        /* \"#utility.yul\":4746:4749   */\n      dup5\n        /* \"#utility.yul\":4742:4758   */\n      add\n        /* \"#utility.yul\":4735:4762   */\n      mstore\n        /* \"#utility.yul\":4584:4768   */\n      pop\n        /* \"#utility.yul\":4522:4768   */\n      pop\n      pop\n      pop\n      jump\t// out\n        /* \"#utility.yul\":4774:4876   */\n    tag_200:\n        /* \"#utility.yul\":4815:4821   */\n      0x00\n        /* \"#utility.yul\":4866:4868   */\n      0x1f\n        /* \"#utility.yul\":4862:4869   */\n      not\n        /* \"#utility.yul\":4857:4859   */\n      0x1f\n        /* \"#utility.yul\":4850:4855   */\n      dup4\n        /* \"#utility.yul\":4846:4860   */\n      add\n        /* \"#utility.yul\":4842:4870   */\n      and\n        /* \"#utility.yul\":4832:4870   */\n      swap1\n      pop\n        /* \"#utility.yul\":4774:4876   */\n      swap2\n      swap1\n      pop\n      jump\t// out\n        /* \"#utility.yul\":4882:5239   */\n    tag_201:\n        /* \"#utility.yul\":4960:4963   */\n      0x00\n        /* \"#utility.yul\":4988:5027   */\n      tag_298\n        /* \"#utility.yul\":5021:5026   */\n      dup3\n        /* \"#utility.yul\":4988:5027   */\n      tag_197\n      jump\t// in\n    tag_298:\n        /* \"#utility.yul\":5043:5104   */\n      tag_299\n        /* \"#utility.yul\":5097:5103   */\n      dup2\n        /* \"#utility.yul\":5092:5095   */\n      dup6\n        /* \"#utility.yul\":5043:5104   */\n      tag_198\n      jump\t// in\n    tag_299:\n        /* \"#utility.yul\":5036:5104   */\n      swap4\n      pop\n        /* \"#utility.yul\":5113:5178   */\n      tag_300\n        /* \"#utility.yul\":5171:5177   */\n      dup2\n        /* \"#utility.yul\":5166:5169   */\n      dup6\n        /* \"#utility.yul\":5159:5163   */\n      0x20\n        /* \"#utility.yul\":5152:5157   */\n      dup7\n        /* \"#utility.yul\":5148:5164   */\n      add\n        /* \"#utility.yul\":5113:5178   */\n      tag_199\n      jump\t// in\n    tag_300:\n        /* \"#utility.yul\":5203:5232   */\n      tag_301\n        /* \"#utility.yul\":5225:5231   */\n      dup2\n        /* \"#utility.yul\":5203:5232   */\n      tag_200\n      jump\t// in\n    tag_301:\n        /* \"#utility.yul\":5198:5201   */\n      dup5\n        /* \"#utility.yul\":5194:5233   */\n      add\n        /* \"#utility.yul\":5187:5233   */\n      swap2\n      pop\n        /* \"#utility.yul\":4964:5239   */\n      pop\n        /* \"#utility.yul\":4882:5239   */\n      swap3\n      swap2\n      pop\n      pop\n      jump\t// out\n        /* \"#utility.yul\":5301:6089   */\n    tag_202:\n        /* \"#utility.yul\":5418:5421   */\n      0x00\n        /* \"#utility.yul\":5454:5458   */\n      0x60\n        /* \"#utility.yul\":5449:5452   */\n      dup4\n        /* \"#utility.yul\":5445:5459   */\n      add\n        /* \"#utility.yul\":5539:5543   */\n      0x00\n        /* \"#utility.yul\":5532:5537   */\n      dup4\n        /* \"#utility.yul\":5528:5544   */\n      add\n        /* \"#utility.yul\":5522:5545   */\n      mload\n        /* \"#utility.yul\":5558:5621   */\n      tag_303\n        /* \"#utility.yul\":5615:5619   */\n      0x00\n        /* \"#utility.yul\":5610:5613   */\n      dup7\n        /* \"#utility.yul\":5606:5620   */\n      add\n        /* \"#utility.yul\":5592:5604   */\n      dup3\n        /* \"#utility.yul\":5558:5621   */\n      tag_196\n      jump\t// in\n    tag_303:\n        /* \"#utility.yul\":5469:5631   */\n      pop\n        /* \"#utility.yul\":5720:5724   */\n      0x20\n        /* \"#utility.yul\":5713:5718   */\n      dup4\n        /* \"#utility.yul\":5709:5725   */\n      add\n        /* \"#utility.yul\":5703:5726   */\n      mload\n        /* \"#utility.yul\":5773:5776   */\n      dup5\n        /* \"#utility.yul\":5767:5771   */\n      dup3\n        /* \"#utility.yul\":5763:5777   */\n      sub\n        /* \"#utility.yul\":5756:5760   */\n      0x20\n        /* \"#utility.yul\":5751:5754   */\n      dup7\n        /* \"#utility.yul\":5747:5761   */\n      add\n        /* \"#utility.yul\":5740:5778   */\n      mstore\n        /* \"#utility.yul\":5799:5872   */\n      tag_304\n        /* \"#utility.yul\":5867:5871   */\n      dup3\n        /* \"#utility.yul\":5853:5865   */\n      dup3\n        /* \"#utility.yul\":5799:5872   */\n      tag_201\n      jump\t// in\n    tag_304:\n        /* \"#utility.yul\":5791:5872   */\n      swap2\n      pop\n        /* \"#utility.yul\":5641:5883   */\n      pop\n        /* \"#utility.yul\":5970:5974   */\n      0x40\n        /* \"#utility.yul\":5963:5968   */\n      dup4\n        /* \"#utility.yul\":5959:5975   */\n      add\n        /* \"#utility.yul\":5953:5976   */\n      mload\n        /* \"#utility.yul\":5989:6052   */\n      tag_305\n        /* \"#utility.yul\":6046:6050   */\n      0x40\n        /* \"#utility.yul\":6041:6044   */\n      dup7\n        /* \"#utility.yul\":6037:6051   */\n      add\n        /* \"#utility.yul\":6023:6035   */\n      dup3\n        /* \"#utility.yul\":5989:6052   */\n      tag_196\n      jump\t// in\n    tag_305:\n        /* \"#utility.yul\":5893:6062   */\n      pop\n        /* \"#utility.yul\":6079:6083   */\n      dup1\n        /* \"#utility.yul\":6072:6083   */\n      swap2\n      pop\n        /* \"#utility.yul\":5423:6089   */\n      pop\n        /* \"#utility.yul\":5301:6089   */\n      swap3\n      swap2\n      pop\n      pop\n      jump\t// out\n        /* \"#utility.yul\":6095:6464   */\n    tag_34:\n        /* \"#utility.yul\":6236:6240   */\n      0x00\n        /* \"#utility.yul\":6274:6276   */\n      0x20\n        /* \"#utility.yul\":6263:6272   */\n      dup3\n        /* \"#utility.yul\":6259:6277   */\n      add\n        /* \"#utility.yul\":6251:6277   */\n      swap1\n      pop\n        /* \"#utility.yul\":6323:6332   */\n      dup2\n        /* \"#utility.yul\":6317:6321   */\n      dup2\n        /* \"#utility.yul\":6313:6333   */\n      sub\n        /* \"#utility.yul\":6309:6310   */\n      0x00\n        /* \"#utility.yul\":6298:6307   */\n      dup4\n        /* \"#utility.yul\":6294:6311   */\n      add\n        /* \"#utility.yul\":6287:6334   */\n      mstore\n        /* \"#utility.yul\":6351:6457   */\n      tag_307\n        /* \"#utility.yul\":6452:6456   */\n      dup2\n        /* \"#utility.yul\":6443:6449   */\n      dup5\n        /* \"#utility.yul\":6351:6457   */\n      tag_202\n      jump\t// in\n    tag_307:\n        /* \"#utility.yul\":6343:6457   */\n      swap1\n      pop\n        /* \"#utility.yul\":6095:6464   */\n      swap3\n      swap2\n      pop\n      pop\n      jump\t// out\n        /* \"#utility.yul\":6470:6592   */\n    tag_203:\n        /* \"#utility.yul\":6543:6567   */\n      tag_309\n        /* \"#utility.yul\":6561:6566   */\n      dup2\n        /* \"#utility.yul\":6543:6567   */\n      tag_194\n      jump\t// in\n    tag_309:\n        /* \"#utility.yul\":6536:6541   */\n      dup2\n        /* \"#utility.yul\":6533:6568   */\n      eq\n        /* \"#utility.yul\":6523:6586   */\n      tag_310\n      jumpi\n        /* \"#utility.yul\":6582:6583   */\n      0x00\n        /* \"#utility.yul\":6579:6580   */\n      dup1\n        /* \"#utility.yul\":6572:6584   */\n      revert\n        /* \"#utility.yul\":6523:6586   */\n    tag_310:\n        /* \"#utility.yul\":6470:6592   */\n      pop\n      jump\t// out\n        /* \"#utility.yul\":6598:6737   */\n    tag_204:\n        /* \"#utility.yul\":6644:6649   */\n      0x00\n        /* \"#utility.yul\":6682:6688   */\n      dup2\n        /* \"#utility.yul\":6669:6689   */\n      calldataload\n        /* \"#utility.yul\":6660:6689   */\n      swap1\n      pop\n        /* \"#utility.yul\":6698:6731   */\n      tag_312\n        /* \"#utility.yul\":6725:6730   */\n      dup2\n        /* \"#utility.yul\":6698:6731   */\n      tag_203\n      jump\t// in\n    tag_312:\n        /* \"#utility.yul\":6598:6737   */\n      swap3\n      swap2\n      pop\n      pop\n      jump\t// out\n        /* \"#utility.yul\":6743:7072   */\n    tag_37:\n        /* \"#utility.yul\":6802:6808   */\n      0x00\n        /* \"#utility.yul\":6851:6853   */\n      0x20\n        /* \"#utility.yul\":6839:6848   */\n      dup3\n        /* \"#utility.yul\":6830:6837   */\n      dup5\n        /* \"#utility.yul\":6826:6849   */\n      sub\n        /* \"#utility.yul\":6822:6854   */\n      slt\n        /* \"#utility.yul\":6819:6938   */\n      iszero\n      tag_314\n      jumpi\n        /* \"#utility.yul\":6857:6936   */\n      tag_315\n      tag_184\n      jump\t// in\n    tag_315:\n        /* \"#utility.yul\":6819:6938   */\n    tag_314:\n        /* \"#utility.yul\":6977:6978   */\n      0x00\n        /* \"#utility.yul\":7002:7055   */\n      tag_316\n        /* \"#utility.yul\":7047:7054   */\n      dup5\n        /* \"#utility.yul\":7038:7044   */\n      dup3\n        /* \"#utility.yul\":7027:7036   */\n      dup6\n        /* \"#utility.yul\":7023:7045   */\n      add\n        /* \"#utility.yul\":7002:7055   */\n      tag_204\n      jump\t// in\n    tag_316:\n        /* \"#utility.yul\":6992:7055   */\n      swap2\n      pop\n        /* \"#utility.yul\":6948:7065   */\n      pop\n        /* \"#utility.yul\":6743:7072   */\n      swap3\n      swap2\n      pop\n      pop\n      jump\t// out\n        /* \"#utility.yul\":7078:7247   */\n    tag_205:\n        /* \"#utility.yul\":7162:7173   */\n      0x00\n        /* \"#utility.yul\":7196:7202   */\n      dup3\n        /* \"#utility.yul\":7191:7194   */\n      dup3\n        /* \"#utility.yul\":7184:7203   */\n      mstore\n        /* \"#utility.yul\":7236:7240   */\n      0x20\n        /* \"#utility.yul\":7231:7234   */\n      dup3\n        /* \"#utility.yul\":7227:7241   */\n      add\n        /* \"#utility.yul\":7212:7241   */\n      swap1\n      pop\n        /* \"#utility.yul\":7078:7247   */\n      swap3\n      swap2\n      pop\n      pop\n      jump\t// out\n        /* \"#utility.yul\":7253:7429   */\n    tag_206:\n        /* \"#utility.yul\":7393:7421   */\n      0x596f7520617265206e6f7420612076616c696420766f74657221000000000000\n        /* \"#utility.yul\":7389:7390   */\n      0x00\n        /* \"#utility.yul\":7381:7387   */\n      dup3\n        /* \"#utility.yul\":7377:7391   */\n      add\n        /* \"#utility.yul\":7370:7422   */\n      mstore\n        /* \"#utility.yul\":7253:7429   */\n      pop\n      jump\t// out\n        /* \"#utility.yul\":7435:7801   */\n    tag_207:\n        /* \"#utility.yul\":7577:7580   */\n      0x00\n        /* \"#utility.yul\":7598:7665   */\n      tag_320\n        /* \"#utility.yul\":7662:7664   */\n      0x1a\n        /* \"#utility.yul\":7657:7660   */\n      dup4\n        /* \"#utility.yul\":7598:7665   */\n      tag_205\n      jump\t// in\n    tag_320:\n        /* \"#utility.yul\":7591:7665   */\n      swap2\n      pop\n        /* \"#utility.yul\":7674:7767   */\n      tag_321\n        /* \"#utility.yul\":7763:7766   */\n      dup3\n        /* \"#utility.yul\":7674:7767   */\n      tag_206\n      jump\t// in\n    tag_321:\n        /* \"#utility.yul\":7792:7794   */\n      0x20\n        /* \"#utility.yul\":7787:7790   */\n      dup3\n        /* \"#utility.yul\":7783:7795   */\n      add\n        /* \"#utility.yul\":7776:7795   */\n      swap1\n      pop\n        /* \"#utility.yul\":7435:7801   */\n      swap2\n      swap1\n      pop\n      jump\t// out\n        /* \"#utility.yul\":7807:8226   */\n    tag_48:\n        /* \"#utility.yul\":7973:7977   */\n      0x00\n        /* \"#utility.yul\":8011:8013   */\n      0x20\n        /* \"#utility.yul\":8000:8009   */\n      dup3\n        /* \"#utility.yul\":7996:8014   */\n      add\n        /* \"#utility.yul\":7988:8014   */\n      swap1\n      pop\n        /* \"#utility.yul\":8060:8069   */\n      dup2\n        /* \"#utility.yul\":8054:8058   */\n      dup2\n        /* \"#utility.yul\":8050:8070   */\n      sub\n        /* \"#utility.yul\":8046:8047   */\n      0x00\n        /* \"#utility.yul\":8035:8044   */\n      dup4\n        /* \"#utility.yul\":8031:8048   */\n      add\n        /* \"#utility.yul\":8024:8071   */\n      mstore\n        /* \"#utility.yul\":8088:8219   */\n      tag_323\n        /* \"#utility.yul\":8214:8218   */\n      dup2\n        /* \"#utility.yul\":8088:8219   */\n      tag_207\n      jump\t// in\n    tag_323:\n        /* \"#utility.yul\":8080:8219   */\n      swap1\n      pop\n        /* \"#utility.yul\":7807:8226   */\n      swap2\n      swap1\n      pop\n      jump\t// out\n        /* \"#utility.yul\":8232:8412   */\n    tag_208:\n        /* \"#utility.yul\":8372:8404   */\n      0x596f752063616e6e6f742072656769737465722070726f706f73616c732e0000\n        /* \"#utility.yul\":8368:8369   */\n      0x00\n        /* \"#utility.yul\":8360:8366   */\n      dup3\n        /* \"#utility.yul\":8356:8370   */\n      add\n        /* \"#utility.yul\":8349:8405   */\n      mstore\n        /* \"#utility.yul\":8232:8412   */\n      pop\n      jump\t// out\n        /* \"#utility.yul\":8418:8784   */\n    tag_209:\n        /* \"#utility.yul\":8560:8563   */\n      0x00\n        /* \"#utility.yul\":8581:8648   */\n      tag_326\n        /* \"#utility.yul\":8645:8647   */\n      0x1e\n        /* \"#utility.yul\":8640:8643   */\n      dup4\n        /* \"#utility.yul\":8581:8648   */\n      tag_205\n      jump\t// in\n    tag_326:\n        /* \"#utility.yul\":8574:8648   */\n      swap2\n      pop\n        /* \"#utility.yul\":8657:8750   */\n      tag_327\n        /* \"#utility.yul\":8746:8749   */\n      dup3\n        /* \"#utility.yul\":8657:8750   */\n      tag_208\n      jump\t// in\n    tag_327:\n        /* \"#utility.yul\":8775:8777   */\n      0x20\n        /* \"#utility.yul\":8770:8773   */\n      dup3\n        /* \"#utility.yul\":8766:8778   */\n      add\n        /* \"#utility.yul\":8759:8778   */\n      swap1\n      pop\n        /* \"#utility.yul\":8418:8784   */\n      swap2\n      swap1\n      pop\n      jump\t// out\n        /* \"#utility.yul\":8790:9209   */\n    tag_57:\n        /* \"#utility.yul\":8956:8960   */\n      0x00\n        /* \"#utility.yul\":8994:8996   */\n      0x20\n        /* \"#utility.yul\":8983:8992   */\n      dup3\n        /* \"#utility.yul\":8979:8997   */\n      add\n        /* \"#utility.yul\":8971:8997   */\n      swap1\n      pop\n        /* \"#utility.yul\":9043:9052   */\n      dup2\n        /* \"#utility.yul\":9037:9041   */\n      dup2\n        /* \"#utility.yul\":9033:9053   */\n      sub\n        /* \"#utility.yul\":9029:9030   */\n      0x00\n        /* \"#utility.yul\":9018:9027   */\n      dup4\n        /* \"#utility.yul\":9014:9031   */\n      add\n        /* \"#utility.yul\":9007:9054   */\n      mstore\n        /* \"#utility.yul\":9071:9202   */\n      tag_329\n        /* \"#utility.yul\":9197:9201   */\n      dup2\n        /* \"#utility.yul\":9071:9202   */\n      tag_209\n      jump\t// in\n    tag_329:\n        /* \"#utility.yul\":9063:9202   */\n      swap1\n      pop\n        /* \"#utility.yul\":8790:9209   */\n      swap2\n      swap1\n      pop\n      jump\t// out\n        /* \"#utility.yul\":9215:9395   */\n    tag_210:\n        /* \"#utility.yul\":9263:9340   */\n      0x4e487b7100000000000000000000000000000000000000000000000000000000\n        /* \"#utility.yul\":9260:9261   */\n      0x00\n        /* \"#utility.yul\":9253:9341   */\n      mstore\n        /* \"#utility.yul\":9360:9364   */\n      0x41\n        /* \"#utility.yul\":9357:9358   */\n      0x04\n        /* \"#utility.yul\":9350:9365   */\n      mstore\n        /* \"#utility.yul\":9384:9388   */\n      0x24\n        /* \"#utility.yul\":9381:9382   */\n      0x00\n        /* \"#utility.yul\":9374:9389   */\n      revert\n        /* \"#utility.yul\":9401:9581   */\n    tag_211:\n        /* \"#utility.yul\":9449:9526   */\n      0x4e487b7100000000000000000000000000000000000000000000000000000000\n        /* \"#utility.yul\":9446:9447   */\n      0x00\n        /* \"#utility.yul\":9439:9527   */\n      mstore\n        /* \"#utility.yul\":9546:9550   */\n      0x22\n        /* \"#utility.yul\":9543:9544   */\n      0x04\n        /* \"#utility.yul\":9536:9551   */\n      mstore\n        /* \"#utility.yul\":9570:9574   */\n      0x24\n        /* \"#utility.yul\":9567:9568   */\n      0x00\n        /* \"#utility.yul\":9560:9575   */\n      revert\n        /* \"#utility.yul\":9587:9907   */\n    tag_117:\n        /* \"#utility.yul\":9631:9637   */\n      0x00\n        /* \"#utility.yul\":9668:9669   */\n      0x02\n        /* \"#utility.yul\":9662:9666   */\n      dup3\n        /* \"#utility.yul\":9658:9670   */\n      div\n        /* \"#utility.yul\":9648:9670   */\n      swap1\n      pop\n        /* \"#utility.yul\":9715:9716   */\n      0x01\n        /* \"#utility.yul\":9709:9713   */\n      dup3\n        /* \"#utility.yul\":9705:9717   */\n      and\n        /* \"#utility.yul\":9736:9754   */\n      dup1\n        /* \"#utility.yul\":9726:9807   */\n      tag_333\n      jumpi\n        /* \"#utility.yul\":9792:9796   */\n      0x7f\n        /* \"#utility.yul\":9784:9790   */\n      dup3\n        /* \"#utility.yul\":9780:9797   */\n      and\n        /* \"#utility.yul\":9770:9797   */\n      swap2\n      pop\n        /* \"#utility.yul\":9726:9807   */\n    tag_333:\n        /* \"#utility.yul\":9854:9856   */\n      0x20\n        /* \"#utility.yul\":9846:9852   */\n      dup3\n        /* \"#utility.yul\":9843:9857   */\n      lt\n        /* \"#utility.yul\":9823:9841   */\n      dup2\n        /* \"#utility.yul\":9820:9858   */\n      sub\n        /* \"#utility.yul\":9817:9901   */\n      tag_334\n      jumpi\n        /* \"#utility.yul\":9873:9891   */\n      tag_335\n      tag_211\n      jump\t// in\n    tag_335:\n        /* \"#utility.yul\":9817:9901   */\n    tag_334:\n        /* \"#utility.yul\":9638:9907   */\n      pop\n        /* \"#utility.yul\":9587:9907   */\n      swap2\n      swap1\n      pop\n      jump\t// out\n        /* \"#utility.yul\":9913:10054   */\n    tag_212:\n        /* \"#utility.yul\":9962:9966   */\n      0x00\n        /* \"#utility.yul\":9985:9988   */\n      dup2\n        /* \"#utility.yul\":9977:9988   */\n      swap1\n      pop\n        /* \"#utility.yul\":10008:10011   */\n      dup2\n        /* \"#utility.yul\":10005:10006   */\n      0x00\n        /* \"#utility.yul\":9998:10012   */\n      mstore\n        /* \"#utility.yul\":10042:10046   */\n      0x20\n        /* \"#utility.yul\":10039:10040   */\n      0x00\n        /* \"#utility.yul\":10029:10047   */\n      keccak256\n        /* \"#utility.yul\":10021:10047   */\n      swap1\n      pop\n        /* \"#utility.yul\":9913:10054   */\n      swap2\n      swap1\n      pop\n      jump\t// out\n        /* \"#utility.yul\":10060:10153   */\n    tag_213:\n        /* \"#utility.yul\":10097:10103   */\n      0x00\n        /* \"#utility.yul\":10144:10146   */\n      0x20\n        /* \"#utility.yul\":10139:10141   */\n      0x1f\n        /* \"#utility.yul\":10132:10137   */\n      dup4\n        /* \"#utility.yul\":10128:10142   */\n      add\n        /* \"#utility.yul\":10124:10147   */\n      div\n        /* \"#utility.yul\":10114:10147   */\n      swap1\n      pop\n        /* \"#utility.yul\":10060:10153   */\n      swap2\n      swap1\n      pop\n      jump\t// out\n        /* \"#utility.yul\":10159:10266   */\n    tag_214:\n        /* \"#utility.yul\":10203:10211   */\n      0x00\n        /* \"#utility.yul\":10253:10258   */\n      dup3\n        /* \"#utility.yul\":10247:10251   */\n      dup3\n        /* \"#utility.yul\":10243:10259   */\n      shl\n        /* \"#utility.yul\":10222:10259   */\n      swap1\n      pop\n        /* \"#utility.yul\":10159:10266   */\n      swap3\n      swap2\n      pop\n      pop\n      jump\t// out\n        /* \"#utility.yul\":10272:10665   */\n    tag_215:\n        /* \"#utility.yul\":10341:10347   */\n      0x00\n        /* \"#utility.yul\":10391:10392   */\n      0x08\n        /* \"#utility.yul\":10379:10389   */\n      dup4\n        /* \"#utility.yul\":10375:10393   */\n      mul\n        /* \"#utility.yul\":10414:10511   */\n      tag_340\n        /* \"#utility.yul\":10444:10510   */\n      0xffffffffffffffffffffffffffffffffffffffffffffffffffffffffffffffff\n        /* \"#utility.yul\":10433:10442   */\n      dup3\n        /* \"#utility.yul\":10414:10511   */\n      tag_214\n      jump\t// in\n    tag_340:\n        /* \"#utility.yul\":10532:10571   */\n      tag_341\n        /* \"#utility.yul\":10562:10570   */\n      dup7\n        /* \"#utility.yul\":10551:10560   */\n      dup4\n        /* \"#utility.yul\":10532:10571   */\n      tag_214\n      jump\t// in\n    tag_341:\n        /* \"#utility.yul\":10520:10571   */\n      swap6\n      pop\n        /* \"#utility.yul\":10604:10608   */\n      dup1\n        /* \"#utility.yul\":10600:10609   */\n      not\n        /* \"#utility.yul\":10593:10598   */\n      dup5\n        /* \"#utility.yul\":10589:10610   */\n      and\n        /* \"#utility.yul\":10580:10610   */\n      swap4\n      pop\n        /* \"#utility.yul\":10653:10657   */\n      dup1\n        /* \"#utility.yul\":10643:10651   */\n      dup7\n        /* \"#utility.yul\":10639:10658   */\n      and\n        /* \"#utility.yul\":10632:10637   */\n      dup5\n        /* \"#utility.yul\":10629:10659   */\n      or\n        /* \"#utility.yul\":10619:10659   */\n      swap3\n      pop\n        /* \"#utility.yul\":10348:10665   */\n      pop\n      pop\n        /* \"#utility.yul\":10272:10665   */\n      swap4\n      swap3\n      pop\n      pop\n      pop\n      jump\t// out\n        /* \"#utility.yul\":10671:10731   */\n    tag_216:\n        /* \"#utility.yul\":10699:10702   */\n      0x00\n        /* \"#utility.yul\":10720:10725   */\n      dup2\n        /* \"#utility.yul\":10713:10725   */\n      swap1\n      pop\n        /* \"#utility.yul\":10671:10731   */\n      swap2\n      swap1\n      pop\n      jump\t// out\n        /* \"#utility.yul\":10737:10879   */\n    tag_217:\n        /* \"#utility.yul\":10787:10796   */\n      0x00\n        /* \"#utility.yul\":10820:10873   */\n      tag_344\n        /* \"#utility.yul\":10838:10872   */\n      tag_345\n        /* \"#utility.yul\":10847:10871   */\n      tag_346\n        /* \"#utility.yul\":10865:10870   */\n      dup5\n        /* \"#utility.yul\":10847:10871   */\n      tag_190\n      jump\t// in\n    tag_346:\n        /* \"#utility.yul\":10838:10872   */\n      tag_216\n      jump\t// in\n    tag_345:\n        /* \"#utility.yul\":10820:10873   */\n      tag_190\n      jump\t// in\n    tag_344:\n        /* \"#utility.yul\":10807:10873   */\n      swap1\n      pop\n        /* \"#utility.yul\":10737:10879   */\n      swap2\n      swap1\n      pop\n      jump\t// out\n        /* \"#utility.yul\":10885:10960   */\n    tag_218:\n        /* \"#utility.yul\":10928:10931   */\n      0x00\n        /* \"#utility.yul\":10949:10954   */\n      dup2\n        /* \"#utility.yul\":10942:10954   */\n      swap1\n      pop\n        /* \"#utility.yul\":10885:10960   */\n      swap2\n      swap1\n      pop\n      jump\t// out\n        /* \"#utility.yul\":10966:11235   */\n    tag_219:\n        /* \"#utility.yul\":11076:11115   */\n      tag_349\n        /* \"#utility.yul\":11107:11114   */\n      dup4\n        /* \"#utility.yul\":11076:11115   */\n      tag_217\n      jump\t// in\n    tag_349:\n        /* \"#utility.yul\":11137:11228   */\n      tag_350\n        /* \"#utility.yul\":11186:11227   */\n      tag_351\n        /* \"#utility.yul\":11210:11226   */\n      dup3\n        /* \"#utility.yul\":11186:11227   */\n      tag_218\n      jump\t// in\n    tag_351:\n        /* \"#utility.yul\":11178:11184   */\n      dup5\n        /* \"#utility.yul\":11171:11175   */\n      dup5\n        /* \"#utility.yul\":11165:11176   */\n      sload\n        /* \"#utility.yul\":11137:11228   */\n      tag_215\n      jump\t// in\n    tag_350:\n        /* \"#utility.yul\":11131:11135   */\n      dup3\n        /* \"#utility.yul\":11124:11229   */\n      sstore\n        /* \"#utility.yul\":11042:11235   */\n      pop\n        /* \"#utility.yul\":10966:11235   */\n      pop\n      pop\n      pop\n      jump\t// out\n        /* \"#utility.yul\":11241:11314   */\n    tag_220:\n        /* \"#utility.yul\":11286:11289   */\n      0x00\n        /* \"#utility.yul\":11241:11314   */\n      swap1\n      jump\t// out\n        /* \"#utility.yul\":11320:11509   */\n    tag_221:\n        /* \"#utility.yul\":11397:11429   */\n      tag_354\n      tag_220\n      jump\t// in\n    tag_354:\n        /* \"#utility.yul\":11438:11503   */\n      tag_355\n        /* \"#utility.yul\":11496:11502   */\n      dup2\n        /* \"#utility.yul\":11488:11494   */\n      dup5\n        /* \"#utility.yul\":11482:11486   */\n      dup5\n        /* \"#utility.yul\":11438:11503   */\n      tag_219\n      jump\t// in\n    tag_355:\n        /* \"#utility.yul\":11373:11509   */\n      pop\n        /* \"#utility.yul\":11320:11509   */\n      pop\n      pop\n      jump\t// out\n        /* \"#utility.yul\":11515:11701   */\n    tag_222:\n        /* \"#utility.yul\":11575:11695   */\n    tag_357:\n        /* \"#utility.yul\":11592:11595   */\n      dup2\n        /* \"#utility.yul\":11585:11590   */\n      dup2\n        /* \"#utility.yul\":11582:11596   */\n      lt\n        /* \"#utility.yul\":11575:11695   */\n      iszero\n      tag_359\n      jumpi\n        /* \"#utility.yul\":11646:11685   */\n      tag_360\n        /* \"#utility.yul\":11683:11684   */\n      0x00\n        /* \"#utility.yul\":11676:11681   */\n      dup3\n        /* \"#utility.yul\":11646:11685   */\n      tag_221\n      jump\t// in\n    tag_360:\n        /* \"#utility.yul\":11619:11620   */\n      0x01\n        /* \"#utility.yul\":11612:11617   */\n      dup2\n        /* \"#utility.yul\":11608:11621   */\n      add\n        /* \"#utility.yul\":11599:11621   */\n      swap1\n      pop\n        /* \"#utility.yul\":11575:11695   */\n      jump(tag_357)\n    tag_359:\n        /* \"#utility.yul\":11515:11701   */\n      pop\n      pop\n      jump\t// out\n        /* \"#utility.yul\":11707:12250   */\n    tag_223:\n        /* \"#utility.yul\":11808:11810   */\n      0x1f\n        /* \"#utility.yul\":11803:11806   */\n      dup3\n        /* \"#utility.yul\":11800:11811   */\n      gt\n        /* \"#utility.yul\":11797:12243   */\n      iszero\n      tag_362\n      jumpi\n        /* \"#utility.yul\":11842:11880   */\n      tag_363\n        /* \"#utility.yul\":11874:11879   */\n      dup2\n        /* \"#utility.yul\":11842:11880   */\n      tag_212\n      jump\t// in\n    tag_363:\n        /* \"#utility.yul\":11926:11955   */\n      tag_364\n        /* \"#utility.yul\":11944:11954   */\n      dup5\n        /* \"#utility.yul\":11926:11955   */\n      tag_213\n      jump\t// in\n    tag_364:\n        /* \"#utility.yul\":11916:11924   */\n      dup2\n        /* \"#utility.yul\":11912:11956   */\n      add\n        /* \"#utility.yul\":12109:12111   */\n      0x20\n        /* \"#utility.yul\":12097:12107   */\n      dup6\n        /* \"#utility.yul\":12094:12112   */\n      lt\n        /* \"#utility.yul\":12091:12140   */\n      iszero\n      tag_365\n      jumpi\n        /* \"#utility.yul\":12130:12138   */\n      dup2\n        /* \"#utility.yul\":12115:12138   */\n      swap1\n      pop\n        /* \"#utility.yul\":12091:12140   */\n    tag_365:\n        /* \"#utility.yul\":12153:12233   */\n      tag_366\n        /* \"#utility.yul\":12209:12231   */\n      tag_367\n        /* \"#utility.yul\":12227:12230   */\n      dup6\n        /* \"#utility.yul\":12209:12231   */\n      tag_213\n      jump\t// in\n    tag_367:\n        /* \"#utility.yul\":12199:12207   */\n      dup4\n        /* \"#utility.yul\":12195:12232   */\n      add\n        /* \"#utility.yul\":12182:12193   */\n      dup3\n        /* \"#utility.yul\":12153:12233   */\n      tag_222\n      jump\t// in\n    tag_366:\n        /* \"#utility.yul\":11812:12243   */\n      pop\n      pop\n        /* \"#utility.yul\":11797:12243   */\n    tag_362:\n        /* \"#utility.yul\":11707:12250   */\n      pop\n      pop\n      pop\n      jump\t// out\n        /* \"#utility.yul\":12256:12373   */\n    tag_224:\n        /* \"#utility.yul\":12310:12318   */\n      0x00\n        /* \"#utility.yul\":12360:12365   */\n      dup3\n        /* \"#utility.yul\":12354:12358   */\n      dup3\n        /* \"#utility.yul\":12350:12366   */\n      shr\n        /* \"#utility.yul\":12329:12366   */\n      swap1\n      pop\n        /* \"#utility.yul\":12256:12373   */\n      swap3\n      swap2\n      pop\n      pop\n      jump\t// out\n        /* \"#utility.yul\":12379:12548   */\n    tag_225:\n        /* \"#utility.yul\":12423:12429   */\n      0x00\n        /* \"#utility.yul\":12456:12507   */\n      tag_370\n        /* \"#utility.yul\":12504:12505   */\n      0x00\n        /* \"#utility.yul\":12500:12506   */\n      not\n        /* \"#utility.yul\":12492:12497   */\n      dup5\n        /* \"#utility.yul\":12489:12490   */\n      0x08\n        /* \"#utility.yul\":12485:12498   */\n      mul\n        /* \"#utility.yul\":12456:12507   */\n      tag_224\n      jump\t// in\n    tag_370:\n        /* \"#utility.yul\":12452:12508   */\n      not\n        /* \"#utility.yul\":12537:12541   */\n      dup1\n        /* \"#utility.yul\":12531:12535   */\n      dup4\n        /* \"#utility.yul\":12527:12542   */\n      and\n        /* \"#utility.yul\":12517:12542   */\n      swap2\n      pop\n        /* \"#utility.yul\":12430:12548   */\n      pop\n        /* \"#utility.yul\":12379:12548   */\n      swap3\n      swap2\n      pop\n      pop\n      jump\t// out\n        /* \"#utility.yul\":12553:12848   */\n    tag_226:\n        /* \"#utility.yul\":12629:12633   */\n      0x00\n        /* \"#utility.yul\":12775:12804   */\n      tag_372\n        /* \"#utility.yul\":12800:12803   */\n      dup4\n        /* \"#utility.yul\":12794:12798   */\n      dup4\n        /* \"#utility.yul\":12775:12804   */\n      tag_225\n      jump\t// in\n    tag_372:\n        /* \"#utility.yul\":12767:12804   */\n      swap2\n      pop\n        /* \"#utility.yul\":12837:12840   */\n      dup3\n        /* \"#utility.yul\":12834:12835   */\n      0x02\n        /* \"#utility.yul\":12830:12841   */\n      mul\n        /* \"#utility.yul\":12824:12828   */\n      dup3\n        /* \"#utility.yul\":12821:12842   */\n      or\n        /* \"#utility.yul\":12813:12842   */\n      swap1\n      pop\n        /* \"#utility.yul\":12553:12848   */\n      swap3\n      swap2\n      pop\n      pop\n      jump\t// out\n        /* \"#utility.yul\":12853:14248   */\n    tag_61:\n        /* \"#utility.yul\":12970:13007   */\n      tag_374\n        /* \"#utility.yul\":13003:13006   */\n      dup3\n        /* \"#utility.yul\":12970:13007   */\n      tag_197\n      jump\t// in\n    tag_374:\n        /* \"#utility.yul\":13072:13090   */\n      0xffffffffffffffff\n        /* \"#utility.yul\":13064:13070   */\n      dup2\n        /* \"#utility.yul\":13061:13091   */\n      gt\n        /* \"#utility.yul\":13058:13114   */\n      iszero\n      tag_375\n      jumpi\n        /* \"#utility.yul\":13094:13112   */\n      tag_376\n      tag_210\n      jump\t// in\n    tag_376:\n        /* \"#utility.yul\":13058:13114   */\n    tag_375:\n        /* \"#utility.yul\":13138:13176   */\n      tag_377\n        /* \"#utility.yul\":13170:13174   */\n      dup3\n        /* \"#utility.yul\":13164:13175   */\n      sload\n        /* \"#utility.yul\":13138:13176   */\n      tag_117\n      jump\t// in\n    tag_377:\n        /* \"#utility.yul\":13223:13290   */\n      tag_378\n        /* \"#utility.yul\":13283:13289   */\n      dup3\n        /* \"#utility.yul\":13275:13281   */\n      dup3\n        /* \"#utility.yul\":13269:13273   */\n      dup6\n        /* \"#utility.yul\":13223:13290   */\n      tag_223\n      jump\t// in\n    tag_378:\n        /* \"#utility.yul\":13317:13318   */\n      0x00\n        /* \"#utility.yul\":13341:13345   */\n      0x20\n        /* \"#utility.yul\":13328:13345   */\n      swap1\n      pop\n        /* \"#utility.yul\":13373:13375   */\n      0x1f\n        /* \"#utility.yul\":13365:13371   */\n      dup4\n        /* \"#utility.yul\":13362:13376   */\n      gt\n        /* \"#utility.yul\":13390:13391   */\n      0x01\n        /* \"#utility.yul\":13385:14003   */\n      dup2\n      eq\n      tag_380\n      jumpi\n        /* \"#utility.yul\":14047:14048   */\n      0x00\n        /* \"#utility.yul\":14064:14070   */\n      dup5\n        /* \"#utility.yul\":14061:14138   */\n      iszero\n      tag_381\n      jumpi\n        /* \"#utility.yul\":14113:14122   */\n      dup3\n        /* \"#utility.yul\":14108:14111   */\n      dup8\n        /* \"#utility.yul\":14104:14123   */\n      add\n        /* \"#utility.yul\":14098:14124   */\n      mload\n        /* \"#utility.yul\":14089:14124   */\n      swap1\n      pop\n        /* \"#utility.yul\":14061:14138   */\n    tag_381:\n        /* \"#utility.yul\":14164:14231   */\n      tag_382\n        /* \"#utility.yul\":14224:14230   */\n      dup6\n        /* \"#utility.yul\":14217:14222   */\n      dup3\n        /* \"#utility.yul\":14164:14231   */\n      tag_226\n      jump\t// in\n    tag_382:\n        /* \"#utility.yul\":14158:14162   */\n      dup7\n        /* \"#utility.yul\":14151:14232   */\n      sstore\n        /* \"#utility.yul\":14020:14242   */\n      pop\n        /* \"#utility.yul\":13355:14242   */\n      jump(tag_379)\n        /* \"#utility.yul\":13385:14003   */\n    tag_380:\n        /* \"#utility.yul\":13437:13441   */\n      0x1f\n        /* \"#utility.yul\":13433:13442   */\n      not\n        /* \"#utility.yul\":13425:13431   */\n      dup5\n        /* \"#utility.yul\":13421:13443   */\n      and\n        /* \"#utility.yul\":13471:13508   */\n      tag_383\n        /* \"#utility.yul\":13503:13507   */\n      dup7\n        /* \"#utility.yul\":13471:13508   */\n      tag_212\n      jump\t// in\n    tag_383:\n        /* \"#utility.yul\":13530:13531   */\n      0x00\n        /* \"#utility.yul\":13544:13752   */\n    tag_384:\n        /* \"#utility.yul\":13558:13565   */\n      dup3\n        /* \"#utility.yul\":13555:13556   */\n      dup2\n        /* \"#utility.yul\":13552:13566   */\n      lt\n        /* \"#utility.yul\":13544:13752   */\n      iszero\n      tag_386\n      jumpi\n        /* \"#utility.yul\":13637:13646   */\n      dup5\n        /* \"#utility.yul\":13632:13635   */\n      dup10\n        /* \"#utility.yul\":13628:13647   */\n      add\n        /* \"#utility.yul\":13622:13648   */\n      mload\n        /* \"#utility.yul\":13614:13620   */\n      dup3\n        /* \"#utility.yul\":13607:13649   */\n      sstore\n        /* \"#utility.yul\":13688:13689   */\n      0x01\n        /* \"#utility.yul\":13680:13686   */\n      dup3\n        /* \"#utility.yul\":13676:13690   */\n      add\n        /* \"#utility.yul\":13666:13690   */\n      swap2\n      pop\n        /* \"#utility.yul\":13735:13737   */\n      0x20\n        /* \"#utility.yul\":13724:13733   */\n      dup6\n        /* \"#utility.yul\":13720:13738   */\n      add\n        /* \"#utility.yul\":13707:13738   */\n      swap5\n      pop\n        /* \"#utility.yul\":13581:13585   */\n      0x20\n        /* \"#utility.yul\":13578:13579   */\n      dup2\n        /* \"#utility.yul\":13574:13586   */\n      add\n        /* \"#utility.yul\":13569:13586   */\n      swap1\n      pop\n        /* \"#utility.yul\":13544:13752   */\n      jump(tag_384)\n    tag_386:\n        /* \"#utility.yul\":13780:13786   */\n      dup7\n        /* \"#utility.yul\":13771:13778   */\n      dup4\n        /* \"#utility.yul\":13768:13787   */\n      lt\n        /* \"#utility.yul\":13765:13944   */\n      iszero\n      tag_387\n      jumpi\n        /* \"#utility.yul\":13838:13847   */\n      dup5\n        /* \"#utility.yul\":13833:13836   */\n      dup10\n        /* \"#utility.yul\":13829:13848   */\n      add\n        /* \"#utility.yul\":13823:13849   */\n      mload\n        /* \"#utility.yul\":13881:13929   */\n      tag_388\n        /* \"#utility.yul\":13923:13927   */\n      0x1f\n        /* \"#utility.yul\":13915:13921   */\n      dup10\n        /* \"#utility.yul\":13911:13928   */\n      and\n        /* \"#utility.yul\":13900:13909   */\n      dup3\n        /* \"#utility.yul\":13881:13929   */\n      tag_225\n      jump\t// in\n    tag_388:\n        /* \"#utility.yul\":13873:13879   */\n      dup4\n        /* \"#utility.yul\":13866:13930   */\n      sstore\n        /* \"#utility.yul\":13788:13944   */\n      pop\n        /* \"#utility.yul\":13765:13944   */\n    tag_387:\n        /* \"#utility.yul\":13990:13991   */\n      0x01\n        /* \"#utility.yul\":13986:13987   */\n      0x02\n        /* \"#utility.yul\":13978:13984   */\n      dup9\n        /* \"#utility.yul\":13974:13988   */\n      mul\n        /* \"#utility.yul\":13970:13992   */\n      add\n        /* \"#utility.yul\":13964:13968   */\n      dup9\n        /* \"#utility.yul\":13957:13993   */\n      sstore\n        /* \"#utility.yul\":13392:14003   */\n      pop\n      pop\n      pop\n        /* \"#utility.yul\":13355:14242   */\n    tag_379:\n      pop\n        /* \"#utility.yul\":12945:14248   */\n      pop\n      pop\n      pop\n        /* \"#utility.yul\":12853:14248   */\n      pop\n      pop\n      jump\t// out\n        /* \"#utility.yul\":14254:14434   */\n    tag_227:\n        /* \"#utility.yul\":14302:14379   */\n      0x4e487b7100000000000000000000000000000000000000000000000000000000\n        /* \"#utility.yul\":14299:14300   */\n      0x00\n        /* \"#utility.yul\":14292:14380   */\n      mstore\n        /* \"#utility.yul\":14399:14403   */\n      0x11\n        /* \"#utility.yul\":14396:14397   */\n      0x04\n        /* \"#utility.yul\":14389:14404   */\n      mstore\n        /* \"#utility.yul\":14423:14427   */\n      0x24\n        /* \"#utility.yul\":14420:14421   */\n      0x00\n        /* \"#utility.yul\":14413:14428   */\n      revert\n        /* \"#utility.yul\":14440:14673   */\n    tag_63:\n        /* \"#utility.yul\":14479:14482   */\n      0x00\n        /* \"#utility.yul\":14502:14526   */\n      tag_391\n        /* \"#utility.yul\":14520:14525   */\n      dup3\n        /* \"#utility.yul\":14502:14526   */\n      tag_190\n      jump\t// in\n    tag_391:\n        /* \"#utility.yul\":14493:14526   */\n      swap2\n      pop\n        /* \"#utility.yul\":14548:14614   */\n      0xffffffffffffffffffffffffffffffffffffffffffffffffffffffffffffffff\n        /* \"#utility.yul\":14541:14546   */\n      dup3\n        /* \"#utility.yul\":14538:14615   */\n      sub\n        /* \"#utility.yul\":14535:14638   */\n      tag_392\n      jumpi\n        /* \"#utility.yul\":14618:14636   */\n      tag_393\n      tag_227\n      jump\t// in\n    tag_393:\n        /* \"#utility.yul\":14535:14638   */\n    tag_392:\n        /* \"#utility.yul\":14665:14666   */\n      0x01\n        /* \"#utility.yul\":14658:14663   */\n      dup3\n        /* \"#utility.yul\":14654:14667   */\n      add\n        /* \"#utility.yul\":14647:14667   */\n      swap1\n      pop\n        /* \"#utility.yul\":14440:14673   */\n      swap2\n      swap1\n      pop\n      jump\t// out\n        /* \"#utility.yul\":14679:14797   */\n    tag_228:\n        /* \"#utility.yul\":14766:14790   */\n      tag_395\n        /* \"#utility.yul\":14784:14789   */\n      dup2\n        /* \"#utility.yul\":14766:14790   */\n      tag_190\n      jump\t// in\n    tag_395:\n        /* \"#utility.yul\":14761:14764   */\n      dup3\n        /* \"#utility.yul\":14754:14791   */\n      mstore\n        /* \"#utility.yul\":14679:14797   */\n      pop\n      pop\n      jump\t// out\n        /* \"#utility.yul\":14803:15025   */\n    tag_65:\n        /* \"#utility.yul\":14896:14900   */\n      0x00\n        /* \"#utility.yul\":14934:14936   */\n      0x20\n        /* \"#utility.yul\":14923:14932   */\n      dup3\n        /* \"#utility.yul\":14919:14937   */\n      add\n        /* \"#utility.yul\":14911:14937   */\n      swap1\n      pop\n        /* \"#utility.yul\":14947:15018   */\n      tag_397\n        /* \"#utility.yul\":15015:15016   */\n      0x00\n        /* \"#utility.yul\":15004:15013   */\n      dup4\n        /* \"#utility.yul\":15000:15017   */\n      add\n        /* \"#utility.yul\":14991:14997   */\n      dup5\n        /* \"#utility.yul\":14947:15018   */\n      tag_228\n      jump\t// in\n    tag_397:\n        /* \"#utility.yul\":14803:15025   */\n      swap3\n      swap2\n      pop\n      pop\n      jump\t// out\n        /* \"#utility.yul\":15031:15207   */\n    tag_229:\n        /* \"#utility.yul\":15171:15199   */\n      0x596f752063616e6e6f7420766f74652070726f706f73616c732e000000000000\n        /* \"#utility.yul\":15167:15168   */\n      0x00\n        /* \"#utility.yul\":15159:15165   */\n      dup3\n        /* \"#utility.yul\":15155:15169   */\n      add\n        /* \"#utility.yul\":15148:15200   */\n      mstore\n        /* \"#utility.yul\":15031:15207   */\n      pop\n      jump\t// out\n        /* \"#utility.yul\":15213:15579   */\n    tag_230:\n        /* \"#utility.yul\":15355:15358   */\n      0x00\n        /* \"#utility.yul\":15376:15443   */\n      tag_400\n        /* \"#utility.yul\":15440:15442   */\n      0x1a\n        /* \"#utility.yul\":15435:15438   */\n      dup4\n        /* \"#utility.yul\":15376:15443   */\n      tag_205\n      jump\t// in\n    tag_400:\n        /* \"#utility.yul\":15369:15443   */\n      swap2\n      pop\n        /* \"#utility.yul\":15452:15545   */\n      tag_401\n        /* \"#utility.yul\":15541:15544   */\n      dup3\n        /* \"#utility.yul\":15452:15545   */\n      tag_229\n      jump\t// in\n    tag_401:\n        /* \"#utility.yul\":15570:15572   */\n      0x20\n        /* \"#utility.yul\":15565:15568   */\n      dup3\n        /* \"#utility.yul\":15561:15573   */\n      add\n        /* \"#utility.yul\":15554:15573   */\n      swap1\n      pop\n        /* \"#utility.yul\":15213:15579   */\n      swap2\n      swap1\n      pop\n      jump\t// out\n        /* \"#utility.yul\":15585:16004   */\n    tag_82:\n        /* \"#utility.yul\":15751:15755   */\n      0x00\n        /* \"#utility.yul\":15789:15791   */\n      0x20\n        /* \"#utility.yul\":15778:15787   */\n      dup3\n        /* \"#utility.yul\":15774:15792   */\n      add\n        /* \"#utility.yul\":15766:15792   */\n      swap1\n      pop\n        /* \"#utility.yul\":15838:15847   */\n      dup2\n        /* \"#utility.yul\":15832:15836   */\n      dup2\n        /* \"#utility.yul\":15828:15848   */\n      sub\n        /* \"#utility.yul\":15824:15825   */\n      0x00\n        /* \"#utility.yul\":15813:15822   */\n      dup4\n        /* \"#utility.yul\":15809:15826   */\n      add\n        /* \"#utility.yul\":15802:15849   */\n      mstore\n        /* \"#utility.yul\":15866:15997   */\n      tag_403\n        /* \"#utility.yul\":15992:15996   */\n      dup2\n        /* \"#utility.yul\":15866:15997   */\n      tag_230\n      jump\t// in\n    tag_403:\n        /* \"#utility.yul\":15858:15997   */\n      swap1\n      pop\n        /* \"#utility.yul\":15585:16004   */\n      swap2\n      swap1\n      pop\n      jump\t// out\n        /* \"#utility.yul\":16010:16178   */\n    tag_231:\n        /* \"#utility.yul\":16150:16170   */\n      0x596f7520616c726561647920766f746564210000000000000000000000000000\n        /* \"#utility.yul\":16146:16147   */\n      0x00\n        /* \"#utility.yul\":16138:16144   */\n      dup3\n        /* \"#utility.yul\":16134:16148   */\n      add\n        /* \"#utility.yul\":16127:16171   */\n      mstore\n        /* \"#utility.yul\":16010:16178   */\n      pop\n      jump\t// out\n        /* \"#utility.yul\":16184:16550   */\n    tag_232:\n        /* \"#utility.yul\":16326:16329   */\n      0x00\n        /* \"#utility.yul\":16347:16414   */\n      tag_406\n        /* \"#utility.yul\":16411:16413   */\n      0x12\n        /* \"#utility.yul\":16406:16409   */\n      dup4\n        /* \"#utility.yul\":16347:16414   */\n      tag_205\n      jump\t// in\n    tag_406:\n        /* \"#utility.yul\":16340:16414   */\n      swap2\n      pop\n        /* \"#utility.yul\":16423:16516   */\n      tag_407\n        /* \"#utility.yul\":16512:16515   */\n      dup3\n        /* \"#utility.yul\":16423:16516   */\n      tag_231\n      jump\t// in\n    tag_407:\n        /* \"#utility.yul\":16541:16543   */\n      0x20\n        /* \"#utility.yul\":16536:16539   */\n      dup3\n        /* \"#utility.yul\":16532:16544   */\n      add\n        /* \"#utility.yul\":16525:16544   */\n      swap1\n      pop\n        /* \"#utility.yul\":16184:16550   */\n      swap2\n      swap1\n      pop\n      jump\t// out\n        /* \"#utility.yul\":16556:16975   */\n    tag_86:\n        /* \"#utility.yul\":16722:16726   */\n      0x00\n        /* \"#utility.yul\":16760:16762   */\n      0x20\n        /* \"#utility.yul\":16749:16758   */\n      dup3\n        /* \"#utility.yul\":16745:16763   */\n      add\n        /* \"#utility.yul\":16737:16763   */\n      swap1\n      pop\n        /* \"#utility.yul\":16809:16818   */\n      dup2\n        /* \"#utility.yul\":16803:16807   */\n      dup2\n        /* \"#utility.yul\":16799:16819   */\n      sub\n        /* \"#utility.yul\":16795:16796   */\n      0x00\n        /* \"#utility.yul\":16784:16793   */\n      dup4\n        /* \"#utility.yul\":16780:16797   */\n      add\n        /* \"#utility.yul\":16773:16820   */\n      mstore\n        /* \"#utility.yul\":16837:16968   */\n      tag_409\n        /* \"#utility.yul\":16963:16967   */\n      dup2\n        /* \"#utility.yul\":16837:16968   */\n      tag_232\n      jump\t// in\n    tag_409:\n        /* \"#utility.yul\":16829:16968   */\n      swap1\n      pop\n        /* \"#utility.yul\":16556:16975   */\n      swap2\n      swap1\n      pop\n      jump\t// out\n        /* \"#utility.yul\":16981:17161   */\n    tag_90:\n        /* \"#utility.yul\":17029:17106   */\n      0x4e487b7100000000000000000000000000000000000000000000000000000000\n        /* \"#utility.yul\":17026:17027   */\n      0x00\n        /* \"#utility.yul\":17019:17107   */\n      mstore\n        /* \"#utility.yul\":17126:17130   */\n      0x32\n        /* \"#utility.yul\":17123:17124   */\n      0x04\n        /* \"#utility.yul\":17116:17131   */\n      mstore\n        /* \"#utility.yul\":17150:17154   */\n      0x24\n        /* \"#utility.yul\":17147:17148   */\n      0x00\n        /* \"#utility.yul\":17140:17155   */\n      revert\n        /* \"#utility.yul\":17167:17499   */\n    tag_97:\n        /* \"#utility.yul\":17288:17292   */\n      0x00\n        /* \"#utility.yul\":17326:17328   */\n      0x40\n        /* \"#utility.yul\":17315:17324   */\n      dup3\n        /* \"#utility.yul\":17311:17329   */\n      add\n        /* \"#utility.yul\":17303:17329   */\n      swap1\n      pop\n        /* \"#utility.yul\":17339:17410   */\n      tag_412\n        /* \"#utility.yul\":17407:17408   */\n      0x00\n        /* \"#utility.yul\":17396:17405   */\n      dup4\n        /* \"#utility.yul\":17392:17409   */\n      add\n        /* \"#utility.yul\":17383:17389   */\n      dup6\n        /* \"#utility.yul\":17339:17410   */\n      tag_195\n      jump\t// in\n    tag_412:\n        /* \"#utility.yul\":17420:17492   */\n      tag_413\n        /* \"#utility.yul\":17488:17490   */\n      0x20\n        /* \"#utility.yul\":17477:17486   */\n      dup4\n        /* \"#utility.yul\":17473:17491   */\n      add\n        /* \"#utility.yul\":17464:17470   */\n      dup5\n        /* \"#utility.yul\":17420:17492   */\n      tag_228\n      jump\t// in\n    tag_413:\n        /* \"#utility.yul\":17167:17499   */\n      swap4\n      swap3\n      pop\n      pop\n      pop\n      jump\t// out\n        /* \"#utility.yul\":17505:17737   */\n    tag_233:\n        /* \"#utility.yul\":17645:17679   */\n      0x566f746573206e65656420746f2062652074616c6c69656420696e206f726465\n        /* \"#utility.yul\":17641:17642   */\n      0x00\n        /* \"#utility.yul\":17633:17639   */\n      dup3\n        /* \"#utility.yul\":17629:17643   */\n      add\n        /* \"#utility.yul\":17622:17680   */\n      mstore\n        /* \"#utility.yul\":17714:17729   */\n      0x7220746f20646f20746861742e00000000000000000000000000000000000000\n        /* \"#utility.yul\":17709:17711   */\n      0x20\n        /* \"#utility.yul\":17701:17707   */\n      dup3\n        /* \"#utility.yul\":17697:17712   */\n      add\n        /* \"#utility.yul\":17690:17730   */\n      mstore\n        /* \"#utility.yul\":17505:17737   */\n      pop\n      jump\t// out\n        /* \"#utility.yul\":17743:18109   */\n    tag_234:\n        /* \"#utility.yul\":17885:17888   */\n      0x00\n        /* \"#utility.yul\":17906:17973   */\n      tag_416\n        /* \"#utility.yul\":17970:17972   */\n      0x2d\n        /* \"#utility.yul\":17965:17968   */\n      dup4\n        /* \"#utility.yul\":17906:17973   */\n      tag_205\n      jump\t// in\n    tag_416:\n        /* \"#utility.yul\":17899:17973   */\n      swap2\n      pop\n        /* \"#utility.yul\":17982:18075   */\n      tag_417\n        /* \"#utility.yul\":18071:18074   */\n      dup3\n        /* \"#utility.yul\":17982:18075   */\n      tag_233\n      jump\t// in\n    tag_417:\n        /* \"#utility.yul\":18100:18102   */\n      0x40\n        /* \"#utility.yul\":18095:18098   */\n      dup3\n        /* \"#utility.yul\":18091:18103   */\n      add\n        /* \"#utility.yul\":18084:18103   */\n      swap1\n      pop\n        /* \"#utility.yul\":17743:18109   */\n      swap2\n      swap1\n      pop\n      jump\t// out\n        /* \"#utility.yul\":18115:18534   */\n    tag_108:\n        /* \"#utility.yul\":18281:18285   */\n      0x00\n        /* \"#utility.yul\":18319:18321   */\n      0x20\n        /* \"#utility.yul\":18308:18317   */\n      dup3\n        /* \"#utility.yul\":18304:18322   */\n      add\n        /* \"#utility.yul\":18296:18322   */\n      swap1\n      pop\n        /* \"#utility.yul\":18368:18377   */\n      dup2\n        /* \"#utility.yul\":18362:18366   */\n      dup2\n        /* \"#utility.yul\":18358:18378   */\n      sub\n        /* \"#utility.yul\":18354:18355   */\n      0x00\n        /* \"#utility.yul\":18343:18352   */\n      dup4\n        /* \"#utility.yul\":18339:18356   */\n      add\n        /* \"#utility.yul\":18332:18379   */\n      mstore\n        /* \"#utility.yul\":18396:18527   */\n      tag_419\n        /* \"#utility.yul\":18522:18526   */\n      dup2\n        /* \"#utility.yul\":18396:18527   */\n      tag_234\n      jump\t// in\n    tag_419:\n        /* \"#utility.yul\":18388:18527   */\n      swap1\n      pop\n        /* \"#utility.yul\":18115:18534   */\n      swap2\n      swap1\n      pop\n      jump\t// out\n        /* \"#utility.yul\":18540:18717   */\n    tag_235:\n        /* \"#utility.yul\":18680:18709   */\n      0x596f752063616e6e6f7420726567697374657220766f746572732e0000000000\n        /* \"#utility.yul\":18676:18677   */\n      0x00\n        /* \"#utility.yul\":18668:18674   */\n      dup3\n        /* \"#utility.yul\":18664:18678   */\n      add\n        /* \"#utility.yul\":18657:18710   */\n      mstore\n        /* \"#utility.yul\":18540:18717   */\n      pop\n      jump\t// out\n        /* \"#utility.yul\":18723:19089   */\n    tag_236:\n        /* \"#utility.yul\":18865:18868   */\n      0x00\n        /* \"#utility.yul\":18886:18953   */\n      tag_422\n        /* \"#utility.yul\":18950:18952   */\n      0x1b\n        /* \"#utility.yul\":18945:18948   */\n      dup4\n        /* \"#utility.yul\":18886:18953   */\n      tag_205\n      jump\t// in\n    tag_422:\n        /* \"#utility.yul\":18879:18953   */\n      swap2\n      pop\n        /* \"#utility.yul\":18962:19055   */\n      tag_423\n        /* \"#utility.yul\":19051:19054   */\n      dup3\n        /* \"#utility.yul\":18962:19055   */\n      tag_235\n      jump\t// in\n    tag_423:\n        /* \"#utility.yul\":19080:19082   */\n      0x20\n        /* \"#utility.yul\":19075:19078   */\n      dup3\n        /* \"#utility.yul\":19071:19083   */\n      add\n        /* \"#utility.yul\":19064:19083   */\n      swap1\n      pop\n        /* \"#utility.yul\":18723:19089   */\n      swap2\n      swap1\n      pop\n      jump\t// out\n        /* \"#utility.yul\":19095:19514   */\n    tag_146:\n        /* \"#utility.yul\":19261:19265   */\n      0x00\n        /* \"#utility.yul\":19299:19301   */\n      0x20\n        /* \"#utility.yul\":19288:19297   */\n      dup3\n        /* \"#utility.yul\":19284:19302   */\n      add\n        /* \"#utility.yul\":19276:19302   */\n      swap1\n      pop\n        /* \"#utility.yul\":19348:19357   */\n      dup2\n        /* \"#utility.yul\":19342:19346   */\n      dup2\n        /* \"#utility.yul\":19338:19358   */\n      sub\n        /* \"#utility.yul\":19334:19335   */\n      0x00\n        /* \"#utility.yul\":19323:19332   */\n      dup4\n        /* \"#utility.yul\":19319:19336   */\n      add\n        /* \"#utility.yul\":19312:19359   */\n      mstore\n        /* \"#utility.yul\":19376:19507   */\n      tag_425\n        /* \"#utility.yul\":19502:19506   */\n      dup2\n        /* \"#utility.yul\":19376:19507   */\n      tag_236\n      jump\t// in\n    tag_425:\n        /* \"#utility.yul\":19368:19507   */\n      swap1\n      pop\n        /* \"#utility.yul\":19095:19514   */\n      swap2\n      swap1\n      pop\n      jump\t// out\n        /* \"#utility.yul\":19520:19766   */\n    tag_237:\n        /* \"#utility.yul\":19660:19694   */\n      0x566f7465732068617665206265656e2074616c6c6965642e204974206973206f\n        /* \"#utility.yul\":19656:19657   */\n      0x00\n        /* \"#utility.yul\":19648:19654   */\n      dup3\n        /* \"#utility.yul\":19644:19658   */\n      add\n        /* \"#utility.yul\":19637:19695   */\n      mstore\n        /* \"#utility.yul\":19729:19758   */\n      0x7665722e205468657265206973206e6f206e6578742073746570210000000000\n        /* \"#utility.yul\":19724:19726   */\n      0x20\n        /* \"#utility.yul\":19716:19722   */\n      dup3\n        /* \"#utility.yul\":19712:19727   */\n      add\n        /* \"#utility.yul\":19705:19759   */\n      mstore\n        /* \"#utility.yul\":19520:19766   */\n      pop\n      jump\t// out\n        /* \"#utility.yul\":19772:20138   */\n    tag_238:\n        /* \"#utility.yul\":19914:19917   */\n      0x00\n        /* \"#utility.yul\":19935:20002   */\n      tag_428\n        /* \"#utility.yul\":19999:20001   */\n      0x3b\n        /* \"#utility.yul\":19994:19997   */\n      dup4\n        /* \"#utility.yul\":19935:20002   */\n      tag_205\n      jump\t// in\n    tag_428:\n        /* \"#utility.yul\":19928:20002   */\n      swap2\n      pop\n        /* \"#utility.yul\":20011:20104   */\n      tag_429\n        /* \"#utility.yul\":20100:20103   */\n      dup3\n        /* \"#utility.yul\":20011:20104   */\n      tag_237\n      jump\t// in\n    tag_429:\n        /* \"#utility.yul\":20129:20131   */\n      0x40\n        /* \"#utility.yul\":20124:20127   */\n      dup3\n        /* \"#utility.yul\":20120:20132   */\n      add\n        /* \"#utility.yul\":20113:20132   */\n      swap1\n      pop\n        /* \"#utility.yul\":19772:20138   */\n      swap2\n      swap1\n      pop\n      jump\t// out\n        /* \"#utility.yul\":20144:20563   */\n    tag_158:\n        /* \"#utility.yul\":20310:20314   */\n      0x00\n        /* \"#utility.yul\":20348:20350   */\n      0x20\n        /* \"#utility.yul\":20337:20346   */\n      dup3\n        /* \"#utility.yul\":20333:20351   */\n      add\n        /* \"#utility.yul\":20325:20351   */\n      swap1\n      pop\n        /* \"#utility.yul\":20397:20406   */\n      dup2\n        /* \"#utility.yul\":20391:20395   */\n      dup2\n        /* \"#utility.yul\":20387:20407   */\n      sub\n        /* \"#utility.yul\":20383:20384   */\n      0x00\n        /* \"#utility.yul\":20372:20381   */\n      dup4\n        /* \"#utility.yul\":20368:20385   */\n      add\n        /* \"#utility.yul\":20361:20408   */\n      mstore\n        /* \"#utility.yul\":20425:20556   */\n      tag_431\n        /* \"#utility.yul\":20551:20555   */\n      dup2\n        /* \"#utility.yul\":20425:20556   */\n      tag_238\n      jump\t// in\n    tag_431:\n        /* \"#utility.yul\":20417:20556   */\n      swap1\n      pop\n        /* \"#utility.yul\":20144:20563   */\n      swap2\n      swap1\n      pop\n      jump\t// out\n        /* \"#utility.yul\":20569:20760   */\n    tag_163:\n        /* \"#utility.yul\":20609:20612   */\n      0x00\n        /* \"#utility.yul\":20628:20648   */\n      tag_433\n        /* \"#utility.yul\":20646:20647   */\n      dup3\n        /* \"#utility.yul\":20628:20648   */\n      tag_190\n      jump\t// in\n    tag_433:\n        /* \"#utility.yul\":20623:20648   */\n      swap2\n      pop\n        /* \"#utility.yul\":20662:20682   */\n      tag_434\n        /* \"#utility.yul\":20680:20681   */\n      dup4\n        /* \"#utility.yul\":20662:20682   */\n      tag_190\n      jump\t// in\n    tag_434:\n        /* \"#utility.yul\":20657:20682   */\n      swap3\n      pop\n        /* \"#utility.yul\":20705:20706   */\n      dup3\n        /* \"#utility.yul\":20702:20703   */\n      dup3\n        /* \"#utility.yul\":20698:20707   */\n      add\n        /* \"#utility.yul\":20691:20707   */\n      swap1\n      pop\n        /* \"#utility.yul\":20726:20729   */\n      dup1\n        /* \"#utility.yul\":20723:20724   */\n      dup3\n        /* \"#utility.yul\":20720:20730   */\n      gt\n        /* \"#utility.yul\":20717:20753   */\n      iszero\n      tag_435\n      jumpi\n        /* \"#utility.yul\":20733:20751   */\n      tag_436\n      tag_227\n      jump\t// in\n    tag_436:\n        /* \"#utility.yul\":20717:20753   */\n    tag_435:\n        /* \"#utility.yul\":20569:20760   */\n      swap3\n      swap2\n      pop\n      pop\n      jump\t// out\n        /* \"#utility.yul\":20766:21162   */\n    tag_169:\n        /* \"#utility.yul\":20919:20923   */\n      0x00\n        /* \"#utility.yul\":20957:20959   */\n      0x40\n        /* \"#utility.yul\":20946:20955   */\n      dup3\n        /* \"#utility.yul\":20942:20960   */\n      add\n        /* \"#utility.yul\":20934:20960   */\n      swap1\n      pop\n        /* \"#utility.yul\":20970:21057   */\n      tag_438\n        /* \"#utility.yul\":21054:21055   */\n      0x00\n        /* \"#utility.yul\":21043:21052   */\n      dup4\n        /* \"#utility.yul\":21039:21056   */\n      add\n        /* \"#utility.yul\":21030:21036   */\n      dup6\n        /* \"#utility.yul\":20970:21057   */\n      tag_182\n      jump\t// in\n    tag_438:\n        /* \"#utility.yul\":21067:21155   */\n      tag_439\n        /* \"#utility.yul\":21151:21153   */\n      0x20\n        /* \"#utility.yul\":21140:21149   */\n      dup4\n        /* \"#utility.yul\":21136:21154   */\n      add\n        /* \"#utility.yul\":21127:21133   */\n      dup5\n        /* \"#utility.yul\":21067:21155   */\n      tag_182\n      jump\t// in\n    tag_439:\n        /* \"#utility.yul\":20766:21162   */\n      swap4\n      swap3\n      pop\n      pop\n      pop\n      jump\t// out\n\n    auxdata: 0xa26469706673582212203a48be201668ac8a4f093563c81798249a1fb6a56e45799157b2878e376c77c164736f6c63430008170033\n}\n",
				"bytecode": {
					"linkReferences": {},
					"object": "60806040525f60045534801562000014575f80fd5b50335f73ffffffffffffffffffffffffffffffffffffffff168173ffffffffffffffffffffffffffffffffffffffff160362000089575f6040517f1e4fbdf7000000000000000000000000000000000000000000000000000000008152600401620000809190620001d1565b60405180910390fd5b6200009a81620000cd60201b60201c565b505f60055f6101000a81548160ff02191690836005811115620000c257620000c1620001ec565b5b021790555062000219565b5f805f9054906101000a900473ffffffffffffffffffffffffffffffffffffffff169050815f806101000a81548173ffffffffffffffffffffffffffffffffffffffff021916908373ffffffffffffffffffffffffffffffffffffffff1602179055508173ffffffffffffffffffffffffffffffffffffffff168173ffffffffffffffffffffffffffffffffffffffff167f8be0079c531659141344cd1fd0a4f28419497f9722a3daafe3b4186f6b6457e060405160405180910390a35050565b5f73ffffffffffffffffffffffffffffffffffffffff82169050919050565b5f620001b9826200018e565b9050919050565b620001cb81620001ad565b82525050565b5f602082019050620001e65f830184620001c0565b92915050565b7f4e487b71000000000000000000000000000000000000000000000000000000005f52602160045260245ffd5b61187080620002275f395ff3fe608060405234801561000f575f80fd5b5060043610610091575f3560e01c80638da5cb5b116100645780638da5cb5b146100f55780638e7ea5b214610113578063f2fde38b14610131578063f4ab9adf1461014d578063fd20255c1461016957610091565b80631e09506d146100955780632fdae3c5146100b3578063715018a6146100cf578063746536b5146100d9575b5f80fd5b61009d610173565b6040516100aa9190610de8565b60405180910390f35b6100cd60048036038101906100c89190610e6a565b610188565b005b6100d7610391565b005b6100f360048036038101906100ee9190610ee8565b6103a4565b005b6100fd6106b0565b60405161010a9190610f52565b60405180910390f35b61011b6106d7565b6040516101289190611051565b60405180910390f35b61014b6004803603810190610146919061109b565b610937565b005b6101676004803603810190610162919061109b565b6109bb565b005b610171610ac8565b005b5f60055f9054906101000a900460ff16905090565b6001151560025f3373ffffffffffffffffffffffffffffffffffffffff1673ffffffffffffffffffffffffffffffffffffffff1681526020019081526020015f205f015f9054906101000a900460ff1615151461021a576040517f08c379a000000000000000000000000000000000000000000000000000000000815260040161021190611120565b60405180910390fd5b6001600581111561022e5761022d610d75565b5b60055f9054906101000a900460ff16600581111561024f5761024e610d75565b5b1461028f576040517f08c379a000000000000000000000000000000000000000000000000000000000815260040161028690611188565b60405180910390fd5b60036040518060600160405280600454815260200184848080601f0160208091040260200160405190810160405280939291908181526020018383808284375f81840152601f19601f8201169050808301925050505050505081526020015f815250908060018154018082558091505060019003905f5260205f2090600302015f909190919091505f820151815f0155602082015181600101908161033491906113cd565b506040820151816002015550507f92e393e9b54e2f801d3ea4beb0c5e71a21cc34a5d34b77d0fb8a3aa1650dc18f60045f815480929190610374906114c9565b91905055604051610385919061151f565b60405180910390a15050565b610399610c07565b6103a25f610c8e565b565b6001151560025f3373ffffffffffffffffffffffffffffffffffffffff1673ffffffffffffffffffffffffffffffffffffffff1681526020019081526020015f205f015f9054906101000a900460ff16151514610436576040517f08c379a000000000000000000000000000000000000000000000000000000000815260040161042d90611120565b60405180910390fd5b6003600581111561044a57610449610d75565b5b60055f9054906101000a900460ff16600581111561046b5761046a610d75565b5b146104ab576040517f08c379a00000000000000000000000000000000000000000000000000000000081526004016104a290611582565b60405180910390fd5b5f151560025f3373ffffffffffffffffffffffffffffffffffffffff1673ffffffffffffffffffffffffffffffffffffffff1681526020019081526020015f205f0160019054906101000a900460ff1615151461053d576040517f08c379a0000000000000000000000000000000000000000000000000000000008152600401610534906115ea565b60405180910390fd5b6003818154811061055157610550611608565b5b905f5260205f2090600302016002015f815480929190610570906114c9565b9190505550600160025f3373ffffffffffffffffffffffffffffffffffffffff1673ffffffffffffffffffffffffffffffffffffffff1681526020019081526020015f205f0160016101000a81548160ff021916908315150217905550600381815481106105e1576105e0611608565b5b905f5260205f2090600302015f015460025f3373ffffffffffffffffffffffffffffffffffffffff1673ffffffffffffffffffffffffffffffffffffffff1681526020019081526020015f20600101819055507f4d99b957a2bc29a30ebd96a7be8e68fe50a3c701db28a91436490b7d53870ca43360025f3373ffffffffffffffffffffffffffffffffffffffff1673ffffffffffffffffffffffffffffffffffffffff1681526020019081526020015f20600101546040516106a5929190611635565b60405180910390a150565b5f805f9054906101000a900473ffffffffffffffffffffffffffffffffffffffff16905090565b6106df610d56565b6005808111156106f2576106f1610d75565b5b60055f9054906101000a900460ff16600581111561071357610712610d75565b5b14610753576040517f08c379a000000000000000000000000000000000000000000000000000000000815260040161074a906116cc565b60405180910390fd5b5f805b600380549050811015610860575f6003828154811061077857610777611608565b5b905f5260205f2090600302016040518060600160405290815f82015481526020016001820180546107a890611200565b80601f01602080910402602001604051908101604052809291908181526020018280546107d490611200565b801561081f5780601f106107f65761010080835404028352916020019161081f565b820191905f5260205f20905b81548152906001019060200180831161080257829003601f168201915b505050505081526020016002820154815250509050828160400151111561085257805f0151600181905550806040015192505b508080600101915050610756565b5060036001548154811061087757610876611608565b5b905f5260205f2090600302016040518060600160405290815f82015481526020016001820180546108a790611200565b80601f01602080910402602001604051908101604052809291908181526020018280546108d390611200565b801561091e5780601f106108f55761010080835404028352916020019161091e565b820191905f5260205f20905b81548152906001019060200180831161090157829003601f168201915b5050505050815260200160028201548152505091505090565b61093f610c07565b5f73ffffffffffffffffffffffffffffffffffffffff168173ffffffffffffffffffffffffffffffffffffffff16036109af575f6040517f1e4fbdf70000000000000000000000000000000000000000000000000000000081526004016109a69190610f52565b60405180910390fd5b6109b881610c8e565b50565b6109c3610c07565b5f60058111156109d6576109d5610d75565b5b60055f9054906101000a900460ff1660058111156109f7576109f6610d75565b5b14610a37576040517f08c379a0000000000000000000000000000000000000000000000000000000008152600401610a2e90611734565b60405180910390fd5b600160025f8373ffffffffffffffffffffffffffffffffffffffff1673ffffffffffffffffffffffffffffffffffffffff1681526020019081526020015f205f015f6101000a81548160ff0219169083151502179055507fb6be2187d059cc2a55fe29e0e503b566e1e0f8c8780096e185429350acffd3dd81604051610abd9190610f52565b60405180910390a150565b610ad0610c07565b600580811115610ae357610ae2610d75565b5b60055f9054906101000a900460ff166005811115610b0457610b03610d75565b5b03610b44576040517f08c379a0000000000000000000000000000000000000000000000000000000008152600401610b3b906117c2565b60405180910390fd5b5f60055f9054906101000a900460ff169050600160055f9054906101000a900460ff166005811115610b7957610b78610d75565b5b610b8391906117e0565b6005811115610b9557610b94610d75565b5b60055f6101000a81548160ff02191690836005811115610bb857610bb7610d75565b5b02179055507f0a97a4ee45751e2abf3e4fc8946939630b11b371ea8ae39ccdc3056e98f5cc3f8160055f9054906101000a900460ff16604051610bfc929190611813565b60405180910390a150565b610c0f610d4f565b73ffffffffffffffffffffffffffffffffffffffff16610c2d6106b0565b73ffffffffffffffffffffffffffffffffffffffff1614610c8c57610c50610d4f565b6040517f118cdaa7000000000000000000000000000000000000000000000000000000008152600401610c839190610f52565b60405180910390fd5b565b5f805f9054906101000a900473ffffffffffffffffffffffffffffffffffffffff169050815f806101000a81548173ffffffffffffffffffffffffffffffffffffffff021916908373ffffffffffffffffffffffffffffffffffffffff1602179055508173ffffffffffffffffffffffffffffffffffffffff168173ffffffffffffffffffffffffffffffffffffffff167f8be0079c531659141344cd1fd0a4f28419497f9722a3daafe3b4186f6b6457e060405160405180910390a35050565b5f33905090565b60405180606001604052805f8152602001606081526020015f81525090565b7f4e487b71000000000000000000000000000000000000000000000000000000005f52602160045260245ffd5b60068110610db357610db2610d75565b5b50565b5f819050610dc382610da2565b919050565b5f610dd282610db6565b9050919050565b610de281610dc8565b82525050565b5f602082019050610dfb5f830184610dd9565b92915050565b5f80fd5b5f80fd5b5f80fd5b5f80fd5b5f80fd5b5f8083601f840112610e2a57610e29610e09565b5b8235905067ffffffffffffffff811115610e4757610e46610e0d565b5b602083019150836001820283011115610e6357610e62610e11565b5b9250929050565b5f8060208385031215610e8057610e7f610e01565b5b5f83013567ffffffffffffffff811115610e9d57610e9c610e05565b5b610ea985828601610e15565b92509250509250929050565b5f819050919050565b610ec781610eb5565b8114610ed1575f80fd5b50565b5f81359050610ee281610ebe565b92915050565b5f60208284031215610efd57610efc610e01565b5b5f610f0a84828501610ed4565b91505092915050565b5f73ffffffffffffffffffffffffffffffffffffffff82169050919050565b5f610f3c82610f13565b9050919050565b610f4c81610f32565b82525050565b5f602082019050610f655f830184610f43565b92915050565b610f7481610eb5565b82525050565b5f81519050919050565b5f82825260208201905092915050565b5f5b83811015610fb1578082015181840152602081019050610f96565b5f8484015250505050565b5f601f19601f8301169050919050565b5f610fd682610f7a565b610fe08185610f84565b9350610ff0818560208601610f94565b610ff981610fbc565b840191505092915050565b5f606083015f8301516110195f860182610f6b565b50602083015184820360208601526110318282610fcc565b91505060408301516110466040860182610f6b565b508091505092915050565b5f6020820190508181035f8301526110698184611004565b905092915050565b61107a81610f32565b8114611084575f80fd5b50565b5f8135905061109581611071565b92915050565b5f602082840312156110b0576110af610e01565b5b5f6110bd84828501611087565b91505092915050565b5f82825260208201905092915050565b7f596f7520617265206e6f7420612076616c696420766f746572210000000000005f82015250565b5f61110a601a836110c6565b9150611115826110d6565b602082019050919050565b5f6020820190508181035f830152611137816110fe565b9050919050565b7f596f752063616e6e6f742072656769737465722070726f706f73616c732e00005f82015250565b5f611172601e836110c6565b915061117d8261113e565b602082019050919050565b5f6020820190508181035f83015261119f81611166565b9050919050565b7f4e487b71000000000000000000000000000000000000000000000000000000005f52604160045260245ffd5b7f4e487b71000000000000000000000000000000000000000000000000000000005f52602260045260245ffd5b5f600282049050600182168061121757607f821691505b60208210810361122a576112296111d3565b5b50919050565b5f819050815f5260205f209050919050565b5f6020601f8301049050919050565b5f82821b905092915050565b5f6008830261128c7fffffffffffffffffffffffffffffffffffffffffffffffffffffffffffffffff82611251565b6112968683611251565b95508019841693508086168417925050509392505050565b5f819050919050565b5f6112d16112cc6112c784610eb5565b6112ae565b610eb5565b9050919050565b5f819050919050565b6112ea836112b7565b6112fe6112f6826112d8565b84845461125d565b825550505050565b5f90565b611312611306565b61131d8184846112e1565b505050565b5b81811015611340576113355f8261130a565b600181019050611323565b5050565b601f8211156113855761135681611230565b61135f84611242565b8101602085101561136e578190505b61138261137a85611242565b830182611322565b50505b505050565b5f82821c905092915050565b5f6113a55f198460080261138a565b1980831691505092915050565b5f6113bd8383611396565b9150826002028217905092915050565b6113d682610f7a565b67ffffffffffffffff8111156113ef576113ee6111a6565b5b6113f98254611200565b611404828285611344565b5f60209050601f831160018114611435575f8415611423578287015190505b61142d85826113b2565b865550611494565b601f19841661144386611230565b5f5b8281101561146a57848901518255600182019150602085019450602081019050611445565b868310156114875784890151611483601f891682611396565b8355505b6001600288020188555050505b505050505050565b7f4e487b71000000000000000000000000000000000000000000000000000000005f52601160045260245ffd5b5f6114d382610eb5565b91507fffffffffffffffffffffffffffffffffffffffffffffffffffffffffffffffff82036115055761150461149c565b5b600182019050919050565b61151981610eb5565b82525050565b5f6020820190506115325f830184611510565b92915050565b7f596f752063616e6e6f7420766f74652070726f706f73616c732e0000000000005f82015250565b5f61156c601a836110c6565b915061157782611538565b602082019050919050565b5f6020820190508181035f83015261159981611560565b9050919050565b7f596f7520616c726561647920766f7465642100000000000000000000000000005f82015250565b5f6115d46012836110c6565b91506115df826115a0565b602082019050919050565b5f6020820190508181035f830152611601816115c8565b9050919050565b7f4e487b71000000000000000000000000000000000000000000000000000000005f52603260045260245ffd5b5f6040820190506116485f830185610f43565b6116556020830184611510565b9392505050565b7f566f746573206e65656420746f2062652074616c6c69656420696e206f7264655f8201527f7220746f20646f20746861742e00000000000000000000000000000000000000602082015250565b5f6116b6602d836110c6565b91506116c18261165c565b604082019050919050565b5f6020820190508181035f8301526116e3816116aa565b9050919050565b7f596f752063616e6e6f7420726567697374657220766f746572732e00000000005f82015250565b5f61171e601b836110c6565b9150611729826116ea565b602082019050919050565b5f6020820190508181035f83015261174b81611712565b9050919050565b7f566f7465732068617665206265656e2074616c6c6965642e204974206973206f5f8201527f7665722e205468657265206973206e6f206e6578742073746570210000000000602082015250565b5f6117ac603b836110c6565b91506117b782611752565b604082019050919050565b5f6020820190508181035f8301526117d9816117a0565b9050919050565b5f6117ea82610eb5565b91506117f583610eb5565b925082820190508082111561180d5761180c61149c565b5b92915050565b5f6040820190506118265f830185610dd9565b6118336020830184610dd9565b939250505056fea26469706673582212203a48be201668ac8a4f093563c81798249a1fb6a56e45799157b2878e376c77c164736f6c63430008170033",
					"opcodes": "PUSH1 0x80 PUSH1 0x40 MSTORE PUSH0 PUSH1 0x4 SSTORE CALLVALUE DUP1 ISZERO PUSH3 0x14 JUMPI PUSH0 DUP1 REVERT JUMPDEST POP CALLER PUSH0 PUSH20 0xFFFFFFFFFFFFFFFFFFFFFFFFFFFFFFFFFFFFFFFF AND DUP2 PUSH20 0xFFFFFFFFFFFFFFFFFFFFFFFFFFFFFFFFFFFFFFFF AND SUB PUSH3 0x89 JUMPI PUSH0 PUSH1 0x40 MLOAD PUSH32 0x1E4FBDF700000000000000000000000000000000000000000000000000000000 DUP2 MSTORE PUSH1 0x4 ADD PUSH3 0x80 SWAP2 SWAP1 PUSH3 0x1D1 JUMP JUMPDEST PUSH1 0x40 MLOAD DUP1 SWAP2 SUB SWAP1 REVERT JUMPDEST PUSH3 0x9A DUP2 PUSH3 0xCD PUSH1 0x20 SHL PUSH1 0x20 SHR JUMP JUMPDEST POP PUSH0 PUSH1 0x5 PUSH0 PUSH2 0x100 EXP DUP2 SLOAD DUP2 PUSH1 0xFF MUL NOT AND SWAP1 DUP4 PUSH1 0x5 DUP2 GT ISZERO PUSH3 0xC2 JUMPI PUSH3 0xC1 PUSH3 0x1EC JUMP JUMPDEST JUMPDEST MUL OR SWAP1 SSTORE POP PUSH3 0x219 JUMP JUMPDEST PUSH0 DUP1 PUSH0 SWAP1 SLOAD SWAP1 PUSH2 0x100 EXP SWAP1 DIV PUSH20 0xFFFFFFFFFFFFFFFFFFFFFFFFFFFFFFFFFFFFFFFF AND SWAP1 POP DUP2 PUSH0 DUP1 PUSH2 0x100 EXP DUP2 SLOAD DUP2 PUSH20 0xFFFFFFFFFFFFFFFFFFFFFFFFFFFFFFFFFFFFFFFF MUL NOT AND SWAP1 DUP4 PUSH20 0xFFFFFFFFFFFFFFFFFFFFFFFFFFFFFFFFFFFFFFFF AND MUL OR SWAP1 SSTORE POP DUP2 PUSH20 0xFFFFFFFFFFFFFFFFFFFFFFFFFFFFFFFFFFFFFFFF AND DUP2 PUSH20 0xFFFFFFFFFFFFFFFFFFFFFFFFFFFFFFFFFFFFFFFF AND PUSH32 0x8BE0079C531659141344CD1FD0A4F28419497F9722A3DAAFE3B4186F6B6457E0 PUSH1 0x40 MLOAD PUSH1 0x40 MLOAD DUP1 SWAP2 SUB SWAP1 LOG3 POP POP JUMP JUMPDEST PUSH0 PUSH20 0xFFFFFFFFFFFFFFFFFFFFFFFFFFFFFFFFFFFFFFFF DUP3 AND SWAP1 POP SWAP2 SWAP1 POP JUMP JUMPDEST PUSH0 PUSH3 0x1B9 DUP3 PUSH3 0x18E JUMP JUMPDEST SWAP1 POP SWAP2 SWAP1 POP JUMP JUMPDEST PUSH3 0x1CB DUP2 PUSH3 0x1AD JUMP JUMPDEST DUP3 MSTORE POP POP JUMP JUMPDEST PUSH0 PUSH1 0x20 DUP3 ADD SWAP1 POP PUSH3 0x1E6 PUSH0 DUP4 ADD DUP5 PUSH3 0x1C0 JUMP JUMPDEST SWAP3 SWAP2 POP POP JUMP JUMPDEST PUSH32 0x4E487B7100000000000000000000000000000000000000000000000000000000 PUSH0 MSTORE PUSH1 0x21 PUSH1 0x4 MSTORE PUSH1 0x24 PUSH0 REVERT JUMPDEST PUSH2 0x1870 DUP1 PUSH3 0x227 PUSH0 CODECOPY PUSH0 RETURN INVALID PUSH1 0x80 PUSH1 0x40 MSTORE CALLVALUE DUP1 ISZERO PUSH2 0xF JUMPI PUSH0 DUP1 REVERT JUMPDEST POP PUSH1 0x4 CALLDATASIZE LT PUSH2 0x91 JUMPI PUSH0 CALLDATALOAD PUSH1 0xE0 SHR DUP1 PUSH4 0x8DA5CB5B GT PUSH2 0x64 JUMPI DUP1 PUSH4 0x8DA5CB5B EQ PUSH2 0xF5 JUMPI DUP1 PUSH4 0x8E7EA5B2 EQ PUSH2 0x113 JUMPI DUP1 PUSH4 0xF2FDE38B EQ PUSH2 0x131 JUMPI DUP1 PUSH4 0xF4AB9ADF EQ PUSH2 0x14D JUMPI DUP1 PUSH4 0xFD20255C EQ PUSH2 0x169 JUMPI PUSH2 0x91 JUMP JUMPDEST DUP1 PUSH4 0x1E09506D EQ PUSH2 0x95 JUMPI DUP1 PUSH4 0x2FDAE3C5 EQ PUSH2 0xB3 JUMPI DUP1 PUSH4 0x715018A6 EQ PUSH2 0xCF JUMPI DUP1 PUSH4 0x746536B5 EQ PUSH2 0xD9 JUMPI JUMPDEST PUSH0 DUP1 REVERT JUMPDEST PUSH2 0x9D PUSH2 0x173 JUMP JUMPDEST PUSH1 0x40 MLOAD PUSH2 0xAA SWAP2 SWAP1 PUSH2 0xDE8 JUMP JUMPDEST PUSH1 0x40 MLOAD DUP1 SWAP2 SUB SWAP1 RETURN JUMPDEST PUSH2 0xCD PUSH1 0x4 DUP1 CALLDATASIZE SUB DUP2 ADD SWAP1 PUSH2 0xC8 SWAP2 SWAP1 PUSH2 0xE6A JUMP JUMPDEST PUSH2 0x188 JUMP JUMPDEST STOP JUMPDEST PUSH2 0xD7 PUSH2 0x391 JUMP JUMPDEST STOP JUMPDEST PUSH2 0xF3 PUSH1 0x4 DUP1 CALLDATASIZE SUB DUP2 ADD SWAP1 PUSH2 0xEE SWAP2 SWAP1 PUSH2 0xEE8 JUMP JUMPDEST PUSH2 0x3A4 JUMP JUMPDEST STOP JUMPDEST PUSH2 0xFD PUSH2 0x6B0 JUMP JUMPDEST PUSH1 0x40 MLOAD PUSH2 0x10A SWAP2 SWAP1 PUSH2 0xF52 JUMP JUMPDEST PUSH1 0x40 MLOAD DUP1 SWAP2 SUB SWAP1 RETURN JUMPDEST PUSH2 0x11B PUSH2 0x6D7 JUMP JUMPDEST PUSH1 0x40 MLOAD PUSH2 0x128 SWAP2 SWAP1 PUSH2 0x1051 JUMP JUMPDEST PUSH1 0x40 MLOAD DUP1 SWAP2 SUB SWAP1 RETURN JUMPDEST PUSH2 0x14B PUSH1 0x4 DUP1 CALLDATASIZE SUB DUP2 ADD SWAP1 PUSH2 0x146 SWAP2 SWAP1 PUSH2 0x109B JUMP JUMPDEST PUSH2 0x937 JUMP JUMPDEST STOP JUMPDEST PUSH2 0x167 PUSH1 0x4 DUP1 CALLDATASIZE SUB DUP2 ADD SWAP1 PUSH2 0x162 SWAP2 SWAP1 PUSH2 0x109B JUMP JUMPDEST PUSH2 0x9BB JUMP JUMPDEST STOP JUMPDEST PUSH2 0x171 PUSH2 0xAC8 JUMP JUMPDEST STOP JUMPDEST PUSH0 PUSH1 0x5 PUSH0 SWAP1 SLOAD SWAP1 PUSH2 0x100 EXP SWAP1 DIV PUSH1 0xFF AND SWAP1 POP SWAP1 JUMP JUMPDEST PUSH1 0x1 ISZERO ISZERO PUSH1 0x2 PUSH0 CALLER PUSH20 0xFFFFFFFFFFFFFFFFFFFFFFFFFFFFFFFFFFFFFFFF AND PUSH20 0xFFFFFFFFFFFFFFFFFFFFFFFFFFFFFFFFFFFFFFFF AND DUP2 MSTORE PUSH1 0x20 ADD SWAP1 DUP2 MSTORE PUSH1 0x20 ADD PUSH0 KECCAK256 PUSH0 ADD PUSH0 SWAP1 SLOAD SWAP1 PUSH2 0x100 EXP SWAP1 DIV PUSH1 0xFF AND ISZERO ISZERO EQ PUSH2 0x21A JUMPI PUSH1 0x40 MLOAD PUSH32 0x8C379A000000000000000000000000000000000000000000000000000000000 DUP2 MSTORE PUSH1 0x4 ADD PUSH2 0x211 SWAP1 PUSH2 0x1120 JUMP JUMPDEST PUSH1 0x40 MLOAD DUP1 SWAP2 SUB SWAP1 REVERT JUMPDEST PUSH1 0x1 PUSH1 0x5 DUP2 GT ISZERO PUSH2 0x22E JUMPI PUSH2 0x22D PUSH2 0xD75 JUMP JUMPDEST JUMPDEST PUSH1 0x5 PUSH0 SWAP1 SLOAD SWAP1 PUSH2 0x100 EXP SWAP1 DIV PUSH1 0xFF AND PUSH1 0x5 DUP2 GT ISZERO PUSH2 0x24F JUMPI PUSH2 0x24E PUSH2 0xD75 JUMP JUMPDEST JUMPDEST EQ PUSH2 0x28F JUMPI PUSH1 0x40 MLOAD PUSH32 0x8C379A000000000000000000000000000000000000000000000000000000000 DUP2 MSTORE PUSH1 0x4 ADD PUSH2 0x286 SWAP1 PUSH2 0x1188 JUMP JUMPDEST PUSH1 0x40 MLOAD DUP1 SWAP2 SUB SWAP1 REVERT JUMPDEST PUSH1 0x3 PUSH1 0x40 MLOAD DUP1 PUSH1 0x60 ADD PUSH1 0x40 MSTORE DUP1 PUSH1 0x4 SLOAD DUP2 MSTORE PUSH1 0x20 ADD DUP5 DUP5 DUP1 DUP1 PUSH1 0x1F ADD PUSH1 0x20 DUP1 SWAP2 DIV MUL PUSH1 0x20 ADD PUSH1 0x40 MLOAD SWAP1 DUP2 ADD PUSH1 0x40 MSTORE DUP1 SWAP4 SWAP3 SWAP2 SWAP1 DUP2 DUP2 MSTORE PUSH1 0x20 ADD DUP4 DUP4 DUP1 DUP3 DUP5 CALLDATACOPY PUSH0 DUP2 DUP5 ADD MSTORE PUSH1 0x1F NOT PUSH1 0x1F DUP3 ADD AND SWAP1 POP DUP1 DUP4 ADD SWAP3 POP POP POP POP POP POP POP DUP2 MSTORE PUSH1 0x20 ADD PUSH0 DUP2 MSTORE POP SWAP1 DUP1 PUSH1 0x1 DUP2 SLOAD ADD DUP1 DUP3 SSTORE DUP1 SWAP2 POP POP PUSH1 0x1 SWAP1 SUB SWAP1 PUSH0 MSTORE PUSH1 0x20 PUSH0 KECCAK256 SWAP1 PUSH1 0x3 MUL ADD PUSH0 SWAP1 SWAP2 SWAP1 SWAP2 SWAP1 SWAP2 POP PUSH0 DUP3 ADD MLOAD DUP2 PUSH0 ADD SSTORE PUSH1 0x20 DUP3 ADD MLOAD DUP2 PUSH1 0x1 ADD SWAP1 DUP2 PUSH2 0x334 SWAP2 SWAP1 PUSH2 0x13CD JUMP JUMPDEST POP PUSH1 0x40 DUP3 ADD MLOAD DUP2 PUSH1 0x2 ADD SSTORE POP POP PUSH32 0x92E393E9B54E2F801D3EA4BEB0C5E71A21CC34A5D34B77D0FB8A3AA1650DC18F PUSH1 0x4 PUSH0 DUP2 SLOAD DUP1 SWAP3 SWAP2 SWAP1 PUSH2 0x374 SWAP1 PUSH2 0x14C9 JUMP JUMPDEST SWAP2 SWAP1 POP SSTORE PUSH1 0x40 MLOAD PUSH2 0x385 SWAP2 SWAP1 PUSH2 0x151F JUMP JUMPDEST PUSH1 0x40 MLOAD DUP1 SWAP2 SUB SWAP1 LOG1 POP POP JUMP JUMPDEST PUSH2 0x399 PUSH2 0xC07 JUMP JUMPDEST PUSH2 0x3A2 PUSH0 PUSH2 0xC8E JUMP JUMPDEST JUMP JUMPDEST PUSH1 0x1 ISZERO ISZERO PUSH1 0x2 PUSH0 CALLER PUSH20 0xFFFFFFFFFFFFFFFFFFFFFFFFFFFFFFFFFFFFFFFF AND PUSH20 0xFFFFFFFFFFFFFFFFFFFFFFFFFFFFFFFFFFFFFFFF AND DUP2 MSTORE PUSH1 0x20 ADD SWAP1 DUP2 MSTORE PUSH1 0x20 ADD PUSH0 KECCAK256 PUSH0 ADD PUSH0 SWAP1 SLOAD SWAP1 PUSH2 0x100 EXP SWAP1 DIV PUSH1 0xFF AND ISZERO ISZERO EQ PUSH2 0x436 JUMPI PUSH1 0x40 MLOAD PUSH32 0x8C379A000000000000000000000000000000000000000000000000000000000 DUP2 MSTORE PUSH1 0x4 ADD PUSH2 0x42D SWAP1 PUSH2 0x1120 JUMP JUMPDEST PUSH1 0x40 MLOAD DUP1 SWAP2 SUB SWAP1 REVERT JUMPDEST PUSH1 0x3 PUSH1 0x5 DUP2 GT ISZERO PUSH2 0x44A JUMPI PUSH2 0x449 PUSH2 0xD75 JUMP JUMPDEST JUMPDEST PUSH1 0x5 PUSH0 SWAP1 SLOAD SWAP1 PUSH2 0x100 EXP SWAP1 DIV PUSH1 0xFF AND PUSH1 0x5 DUP2 GT ISZERO PUSH2 0x46B JUMPI PUSH2 0x46A PUSH2 0xD75 JUMP JUMPDEST JUMPDEST EQ PUSH2 0x4AB JUMPI PUSH1 0x40 MLOAD PUSH32 0x8C379A000000000000000000000000000000000000000000000000000000000 DUP2 MSTORE PUSH1 0x4 ADD PUSH2 0x4A2 SWAP1 PUSH2 0x1582 JUMP JUMPDEST PUSH1 0x40 MLOAD DUP1 SWAP2 SUB SWAP1 REVERT JUMPDEST PUSH0 ISZERO ISZERO PUSH1 0x2 PUSH0 CALLER PUSH20 0xFFFFFFFFFFFFFFFFFFFFFFFFFFFFFFFFFFFFFFFF AND PUSH20 0xFFFFFFFFFFFFFFFFFFFFFFFFFFFFFFFFFFFFFFFF AND DUP2 MSTORE PUSH1 0x20 ADD SWAP1 DUP2 MSTORE PUSH1 0x20 ADD PUSH0 KECCAK256 PUSH0 ADD PUSH1 0x1 SWAP1 SLOAD SWAP1 PUSH2 0x100 EXP SWAP1 DIV PUSH1 0xFF AND ISZERO ISZERO EQ PUSH2 0x53D JUMPI PUSH1 0x40 MLOAD PUSH32 0x8C379A000000000000000000000000000000000000000000000000000000000 DUP2 MSTORE PUSH1 0x4 ADD PUSH2 0x534 SWAP1 PUSH2 0x15EA JUMP JUMPDEST PUSH1 0x40 MLOAD DUP1 SWAP2 SUB SWAP1 REVERT JUMPDEST PUSH1 0x3 DUP2 DUP2 SLOAD DUP2 LT PUSH2 0x551 JUMPI PUSH2 0x550 PUSH2 0x1608 JUMP JUMPDEST JUMPDEST SWAP1 PUSH0 MSTORE PUSH1 0x20 PUSH0 KECCAK256 SWAP1 PUSH1 0x3 MUL ADD PUSH1 0x2 ADD PUSH0 DUP2 SLOAD DUP1 SWAP3 SWAP2 SWAP1 PUSH2 0x570 SWAP1 PUSH2 0x14C9 JUMP JUMPDEST SWAP2 SWAP1 POP SSTORE POP PUSH1 0x1 PUSH1 0x2 PUSH0 CALLER PUSH20 0xFFFFFFFFFFFFFFFFFFFFFFFFFFFFFFFFFFFFFFFF AND PUSH20 0xFFFFFFFFFFFFFFFFFFFFFFFFFFFFFFFFFFFFFFFF AND DUP2 MSTORE PUSH1 0x20 ADD SWAP1 DUP2 MSTORE PUSH1 0x20 ADD PUSH0 KECCAK256 PUSH0 ADD PUSH1 0x1 PUSH2 0x100 EXP DUP2 SLOAD DUP2 PUSH1 0xFF MUL NOT AND SWAP1 DUP4 ISZERO ISZERO MUL OR SWAP1 SSTORE POP PUSH1 0x3 DUP2 DUP2 SLOAD DUP2 LT PUSH2 0x5E1 JUMPI PUSH2 0x5E0 PUSH2 0x1608 JUMP JUMPDEST JUMPDEST SWAP1 PUSH0 MSTORE PUSH1 0x20 PUSH0 KECCAK256 SWAP1 PUSH1 0x3 MUL ADD PUSH0 ADD SLOAD PUSH1 0x2 PUSH0 CALLER PUSH20 0xFFFFFFFFFFFFFFFFFFFFFFFFFFFFFFFFFFFFFFFF AND PUSH20 0xFFFFFFFFFFFFFFFFFFFFFFFFFFFFFFFFFFFFFFFF AND DUP2 MSTORE PUSH1 0x20 ADD SWAP1 DUP2 MSTORE PUSH1 0x20 ADD PUSH0 KECCAK256 PUSH1 0x1 ADD DUP2 SWAP1 SSTORE POP PUSH32 0x4D99B957A2BC29A30EBD96A7BE8E68FE50A3C701DB28A91436490B7D53870CA4 CALLER PUSH1 0x2 PUSH0 CALLER PUSH20 0xFFFFFFFFFFFFFFFFFFFFFFFFFFFFFFFFFFFFFFFF AND PUSH20 0xFFFFFFFFFFFFFFFFFFFFFFFFFFFFFFFFFFFFFFFF AND DUP2 MSTORE PUSH1 0x20 ADD SWAP1 DUP2 MSTORE PUSH1 0x20 ADD PUSH0 KECCAK256 PUSH1 0x1 ADD SLOAD PUSH1 0x40 MLOAD PUSH2 0x6A5 SWAP3 SWAP2 SWAP1 PUSH2 0x1635 JUMP JUMPDEST PUSH1 0x40 MLOAD DUP1 SWAP2 SUB SWAP1 LOG1 POP JUMP JUMPDEST PUSH0 DUP1 PUSH0 SWAP1 SLOAD SWAP1 PUSH2 0x100 EXP SWAP1 DIV PUSH20 0xFFFFFFFFFFFFFFFFFFFFFFFFFFFFFFFFFFFFFFFF AND SWAP1 POP SWAP1 JUMP JUMPDEST PUSH2 0x6DF PUSH2 0xD56 JUMP JUMPDEST PUSH1 0x5 DUP1 DUP2 GT ISZERO PUSH2 0x6F2 JUMPI PUSH2 0x6F1 PUSH2 0xD75 JUMP JUMPDEST JUMPDEST PUSH1 0x5 PUSH0 SWAP1 SLOAD SWAP1 PUSH2 0x100 EXP SWAP1 DIV PUSH1 0xFF AND PUSH1 0x5 DUP2 GT ISZERO PUSH2 0x713 JUMPI PUSH2 0x712 PUSH2 0xD75 JUMP JUMPDEST JUMPDEST EQ PUSH2 0x753 JUMPI PUSH1 0x40 MLOAD PUSH32 0x8C379A000000000000000000000000000000000000000000000000000000000 DUP2 MSTORE PUSH1 0x4 ADD PUSH2 0x74A SWAP1 PUSH2 0x16CC JUMP JUMPDEST PUSH1 0x40 MLOAD DUP1 SWAP2 SUB SWAP1 REVERT JUMPDEST PUSH0 DUP1 JUMPDEST PUSH1 0x3 DUP1 SLOAD SWAP1 POP DUP2 LT ISZERO PUSH2 0x860 JUMPI PUSH0 PUSH1 0x3 DUP3 DUP2 SLOAD DUP2 LT PUSH2 0x778 JUMPI PUSH2 0x777 PUSH2 0x1608 JUMP JUMPDEST JUMPDEST SWAP1 PUSH0 MSTORE PUSH1 0x20 PUSH0 KECCAK256 SWAP1 PUSH1 0x3 MUL ADD PUSH1 0x40 MLOAD DUP1 PUSH1 0x60 ADD PUSH1 0x40 MSTORE SWAP1 DUP2 PUSH0 DUP3 ADD SLOAD DUP2 MSTORE PUSH1 0x20 ADD PUSH1 0x1 DUP3 ADD DUP1 SLOAD PUSH2 0x7A8 SWAP1 PUSH2 0x1200 JUMP JUMPDEST DUP1 PUSH1 0x1F ADD PUSH1 0x20 DUP1 SWAP2 DIV MUL PUSH1 0x20 ADD PUSH1 0x40 MLOAD SWAP1 DUP2 ADD PUSH1 0x40 MSTORE DUP1 SWAP3 SWAP2 SWAP1 DUP2 DUP2 MSTORE PUSH1 0x20 ADD DUP3 DUP1 SLOAD PUSH2 0x7D4 SWAP1 PUSH2 0x1200 JUMP JUMPDEST DUP1 ISZERO PUSH2 0x81F JUMPI DUP1 PUSH1 0x1F LT PUSH2 0x7F6 JUMPI PUSH2 0x100 DUP1 DUP4 SLOAD DIV MUL DUP4 MSTORE SWAP2 PUSH1 0x20 ADD SWAP2 PUSH2 0x81F JUMP JUMPDEST DUP3 ADD SWAP2 SWAP1 PUSH0 MSTORE PUSH1 0x20 PUSH0 KECCAK256 SWAP1 JUMPDEST DUP2 SLOAD DUP2 MSTORE SWAP1 PUSH1 0x1 ADD SWAP1 PUSH1 0x20 ADD DUP1 DUP4 GT PUSH2 0x802 JUMPI DUP3 SWAP1 SUB PUSH1 0x1F AND DUP3 ADD SWAP2 JUMPDEST POP POP POP POP POP DUP2 MSTORE PUSH1 0x20 ADD PUSH1 0x2 DUP3 ADD SLOAD DUP2 MSTORE POP POP SWAP1 POP DUP3 DUP2 PUSH1 0x40 ADD MLOAD GT ISZERO PUSH2 0x852 JUMPI DUP1 PUSH0 ADD MLOAD PUSH1 0x1 DUP2 SWAP1 SSTORE POP DUP1 PUSH1 0x40 ADD MLOAD SWAP3 POP JUMPDEST POP DUP1 DUP1 PUSH1 0x1 ADD SWAP2 POP POP PUSH2 0x756 JUMP JUMPDEST POP PUSH1 0x3 PUSH1 0x1 SLOAD DUP2 SLOAD DUP2 LT PUSH2 0x877 JUMPI PUSH2 0x876 PUSH2 0x1608 JUMP JUMPDEST JUMPDEST SWAP1 PUSH0 MSTORE PUSH1 0x20 PUSH0 KECCAK256 SWAP1 PUSH1 0x3 MUL ADD PUSH1 0x40 MLOAD DUP1 PUSH1 0x60 ADD PUSH1 0x40 MSTORE SWAP1 DUP2 PUSH0 DUP3 ADD SLOAD DUP2 MSTORE PUSH1 0x20 ADD PUSH1 0x1 DUP3 ADD DUP1 SLOAD PUSH2 0x8A7 SWAP1 PUSH2 0x1200 JUMP JUMPDEST DUP1 PUSH1 0x1F ADD PUSH1 0x20 DUP1 SWAP2 DIV MUL PUSH1 0x20 ADD PUSH1 0x40 MLOAD SWAP1 DUP2 ADD PUSH1 0x40 MSTORE DUP1 SWAP3 SWAP2 SWAP1 DUP2 DUP2 MSTORE PUSH1 0x20 ADD DUP3 DUP1 SLOAD PUSH2 0x8D3 SWAP1 PUSH2 0x1200 JUMP JUMPDEST DUP1 ISZERO PUSH2 0x91E JUMPI DUP1 PUSH1 0x1F LT PUSH2 0x8F5 JUMPI PUSH2 0x100 DUP1 DUP4 SLOAD DIV MUL DUP4 MSTORE SWAP2 PUSH1 0x20 ADD SWAP2 PUSH2 0x91E JUMP JUMPDEST DUP3 ADD SWAP2 SWAP1 PUSH0 MSTORE PUSH1 0x20 PUSH0 KECCAK256 SWAP1 JUMPDEST DUP2 SLOAD DUP2 MSTORE SWAP1 PUSH1 0x1 ADD SWAP1 PUSH1 0x20 ADD DUP1 DUP4 GT PUSH2 0x901 JUMPI DUP3 SWAP1 SUB PUSH1 0x1F AND DUP3 ADD SWAP2 JUMPDEST POP POP POP POP POP DUP2 MSTORE PUSH1 0x20 ADD PUSH1 0x2 DUP3 ADD SLOAD DUP2 MSTORE POP POP SWAP2 POP POP SWAP1 JUMP JUMPDEST PUSH2 0x93F PUSH2 0xC07 JUMP JUMPDEST PUSH0 PUSH20 0xFFFFFFFFFFFFFFFFFFFFFFFFFFFFFFFFFFFFFFFF AND DUP2 PUSH20 0xFFFFFFFFFFFFFFFFFFFFFFFFFFFFFFFFFFFFFFFF AND SUB PUSH2 0x9AF JUMPI PUSH0 PUSH1 0x40 MLOAD PUSH32 0x1E4FBDF700000000000000000000000000000000000000000000000000000000 DUP2 MSTORE PUSH1 0x4 ADD PUSH2 0x9A6 SWAP2 SWAP1 PUSH2 0xF52 JUMP JUMPDEST PUSH1 0x40 MLOAD DUP1 SWAP2 SUB SWAP1 REVERT JUMPDEST PUSH2 0x9B8 DUP2 PUSH2 0xC8E JUMP JUMPDEST POP JUMP JUMPDEST PUSH2 0x9C3 PUSH2 0xC07 JUMP JUMPDEST PUSH0 PUSH1 0x5 DUP2 GT ISZERO PUSH2 0x9D6 JUMPI PUSH2 0x9D5 PUSH2 0xD75 JUMP JUMPDEST JUMPDEST PUSH1 0x5 PUSH0 SWAP1 SLOAD SWAP1 PUSH2 0x100 EXP SWAP1 DIV PUSH1 0xFF AND PUSH1 0x5 DUP2 GT ISZERO PUSH2 0x9F7 JUMPI PUSH2 0x9F6 PUSH2 0xD75 JUMP JUMPDEST JUMPDEST EQ PUSH2 0xA37 JUMPI PUSH1 0x40 MLOAD PUSH32 0x8C379A000000000000000000000000000000000000000000000000000000000 DUP2 MSTORE PUSH1 0x4 ADD PUSH2 0xA2E SWAP1 PUSH2 0x1734 JUMP JUMPDEST PUSH1 0x40 MLOAD DUP1 SWAP2 SUB SWAP1 REVERT JUMPDEST PUSH1 0x1 PUSH1 0x2 PUSH0 DUP4 PUSH20 0xFFFFFFFFFFFFFFFFFFFFFFFFFFFFFFFFFFFFFFFF AND PUSH20 0xFFFFFFFFFFFFFFFFFFFFFFFFFFFFFFFFFFFFFFFF AND DUP2 MSTORE PUSH1 0x20 ADD SWAP1 DUP2 MSTORE PUSH1 0x20 ADD PUSH0 KECCAK256 PUSH0 ADD PUSH0 PUSH2 0x100 EXP DUP2 SLOAD DUP2 PUSH1 0xFF MUL NOT AND SWAP1 DUP4 ISZERO ISZERO MUL OR SWAP1 SSTORE POP PUSH32 0xB6BE2187D059CC2A55FE29E0E503B566E1E0F8C8780096E185429350ACFFD3DD DUP2 PUSH1 0x40 MLOAD PUSH2 0xABD SWAP2 SWAP1 PUSH2 0xF52 JUMP JUMPDEST PUSH1 0x40 MLOAD DUP1 SWAP2 SUB SWAP1 LOG1 POP JUMP JUMPDEST PUSH2 0xAD0 PUSH2 0xC07 JUMP JUMPDEST PUSH1 0x5 DUP1 DUP2 GT ISZERO PUSH2 0xAE3 JUMPI PUSH2 0xAE2 PUSH2 0xD75 JUMP JUMPDEST JUMPDEST PUSH1 0x5 PUSH0 SWAP1 SLOAD SWAP1 PUSH2 0x100 EXP SWAP1 DIV PUSH1 0xFF AND PUSH1 0x5 DUP2 GT ISZERO PUSH2 0xB04 JUMPI PUSH2 0xB03 PUSH2 0xD75 JUMP JUMPDEST JUMPDEST SUB PUSH2 0xB44 JUMPI PUSH1 0x40 MLOAD PUSH32 0x8C379A000000000000000000000000000000000000000000000000000000000 DUP2 MSTORE PUSH1 0x4 ADD PUSH2 0xB3B SWAP1 PUSH2 0x17C2 JUMP JUMPDEST PUSH1 0x40 MLOAD DUP1 SWAP2 SUB SWAP1 REVERT JUMPDEST PUSH0 PUSH1 0x5 PUSH0 SWAP1 SLOAD SWAP1 PUSH2 0x100 EXP SWAP1 DIV PUSH1 0xFF AND SWAP1 POP PUSH1 0x1 PUSH1 0x5 PUSH0 SWAP1 SLOAD SWAP1 PUSH2 0x100 EXP SWAP1 DIV PUSH1 0xFF AND PUSH1 0x5 DUP2 GT ISZERO PUSH2 0xB79 JUMPI PUSH2 0xB78 PUSH2 0xD75 JUMP JUMPDEST JUMPDEST PUSH2 0xB83 SWAP2 SWAP1 PUSH2 0x17E0 JUMP JUMPDEST PUSH1 0x5 DUP2 GT ISZERO PUSH2 0xB95 JUMPI PUSH2 0xB94 PUSH2 0xD75 JUMP JUMPDEST JUMPDEST PUSH1 0x5 PUSH0 PUSH2 0x100 EXP DUP2 SLOAD DUP2 PUSH1 0xFF MUL NOT AND SWAP1 DUP4 PUSH1 0x5 DUP2 GT ISZERO PUSH2 0xBB8 JUMPI PUSH2 0xBB7 PUSH2 0xD75 JUMP JUMPDEST JUMPDEST MUL OR SWAP1 SSTORE POP PUSH32 0xA97A4EE45751E2ABF3E4FC8946939630B11B371EA8AE39CCDC3056E98F5CC3F DUP2 PUSH1 0x5 PUSH0 SWAP1 SLOAD SWAP1 PUSH2 0x100 EXP SWAP1 DIV PUSH1 0xFF AND PUSH1 0x40 MLOAD PUSH2 0xBFC SWAP3 SWAP2 SWAP1 PUSH2 0x1813 JUMP JUMPDEST PUSH1 0x40 MLOAD DUP1 SWAP2 SUB SWAP1 LOG1 POP JUMP JUMPDEST PUSH2 0xC0F PUSH2 0xD4F JUMP JUMPDEST PUSH20 0xFFFFFFFFFFFFFFFFFFFFFFFFFFFFFFFFFFFFFFFF AND PUSH2 0xC2D PUSH2 0x6B0 JUMP JUMPDEST PUSH20 0xFFFFFFFFFFFFFFFFFFFFFFFFFFFFFFFFFFFFFFFF AND EQ PUSH2 0xC8C JUMPI PUSH2 0xC50 PUSH2 0xD4F JUMP JUMPDEST PUSH1 0x40 MLOAD PUSH32 0x118CDAA700000000000000000000000000000000000000000000000000000000 DUP2 MSTORE PUSH1 0x4 ADD PUSH2 0xC83 SWAP2 SWAP1 PUSH2 0xF52 JUMP JUMPDEST PUSH1 0x40 MLOAD DUP1 SWAP2 SUB SWAP1 REVERT JUMPDEST JUMP JUMPDEST PUSH0 DUP1 PUSH0 SWAP1 SLOAD SWAP1 PUSH2 0x100 EXP SWAP1 DIV PUSH20 0xFFFFFFFFFFFFFFFFFFFFFFFFFFFFFFFFFFFFFFFF AND SWAP1 POP DUP2 PUSH0 DUP1 PUSH2 0x100 EXP DUP2 SLOAD DUP2 PUSH20 0xFFFFFFFFFFFFFFFFFFFFFFFFFFFFFFFFFFFFFFFF MUL NOT AND SWAP1 DUP4 PUSH20 0xFFFFFFFFFFFFFFFFFFFFFFFFFFFFFFFFFFFFFFFF AND MUL OR SWAP1 SSTORE POP DUP2 PUSH20 0xFFFFFFFFFFFFFFFFFFFFFFFFFFFFFFFFFFFFFFFF AND DUP2 PUSH20 0xFFFFFFFFFFFFFFFFFFFFFFFFFFFFFFFFFFFFFFFF AND PUSH32 0x8BE0079C531659141344CD1FD0A4F28419497F9722A3DAAFE3B4186F6B6457E0 PUSH1 0x40 MLOAD PUSH1 0x40 MLOAD DUP1 SWAP2 SUB SWAP1 LOG3 POP POP JUMP JUMPDEST PUSH0 CALLER SWAP1 POP SWAP1 JUMP JUMPDEST PUSH1 0x40 MLOAD DUP1 PUSH1 0x60 ADD PUSH1 0x40 MSTORE DUP1 PUSH0 DUP2 MSTORE PUSH1 0x20 ADD PUSH1 0x60 DUP2 MSTORE PUSH1 0x20 ADD PUSH0 DUP2 MSTORE POP SWAP1 JUMP JUMPDEST PUSH32 0x4E487B7100000000000000000000000000000000000000000000000000000000 PUSH0 MSTORE PUSH1 0x21 PUSH1 0x4 MSTORE PUSH1 0x24 PUSH0 REVERT JUMPDEST PUSH1 0x6 DUP2 LT PUSH2 0xDB3 JUMPI PUSH2 0xDB2 PUSH2 0xD75 JUMP JUMPDEST JUMPDEST POP JUMP JUMPDEST PUSH0 DUP2 SWAP1 POP PUSH2 0xDC3 DUP3 PUSH2 0xDA2 JUMP JUMPDEST SWAP2 SWAP1 POP JUMP JUMPDEST PUSH0 PUSH2 0xDD2 DUP3 PUSH2 0xDB6 JUMP JUMPDEST SWAP1 POP SWAP2 SWAP1 POP JUMP JUMPDEST PUSH2 0xDE2 DUP2 PUSH2 0xDC8 JUMP JUMPDEST DUP3 MSTORE POP POP JUMP JUMPDEST PUSH0 PUSH1 0x20 DUP3 ADD SWAP1 POP PUSH2 0xDFB PUSH0 DUP4 ADD DUP5 PUSH2 0xDD9 JUMP JUMPDEST SWAP3 SWAP2 POP POP JUMP JUMPDEST PUSH0 DUP1 REVERT JUMPDEST PUSH0 DUP1 REVERT JUMPDEST PUSH0 DUP1 REVERT JUMPDEST PUSH0 DUP1 REVERT JUMPDEST PUSH0 DUP1 REVERT JUMPDEST PUSH0 DUP1 DUP4 PUSH1 0x1F DUP5 ADD SLT PUSH2 0xE2A JUMPI PUSH2 0xE29 PUSH2 0xE09 JUMP JUMPDEST JUMPDEST DUP3 CALLDATALOAD SWAP1 POP PUSH8 0xFFFFFFFFFFFFFFFF DUP2 GT ISZERO PUSH2 0xE47 JUMPI PUSH2 0xE46 PUSH2 0xE0D JUMP JUMPDEST JUMPDEST PUSH1 0x20 DUP4 ADD SWAP2 POP DUP4 PUSH1 0x1 DUP3 MUL DUP4 ADD GT ISZERO PUSH2 0xE63 JUMPI PUSH2 0xE62 PUSH2 0xE11 JUMP JUMPDEST JUMPDEST SWAP3 POP SWAP3 SWAP1 POP JUMP JUMPDEST PUSH0 DUP1 PUSH1 0x20 DUP4 DUP6 SUB SLT ISZERO PUSH2 0xE80 JUMPI PUSH2 0xE7F PUSH2 0xE01 JUMP JUMPDEST JUMPDEST PUSH0 DUP4 ADD CALLDATALOAD PUSH8 0xFFFFFFFFFFFFFFFF DUP2 GT ISZERO PUSH2 0xE9D JUMPI PUSH2 0xE9C PUSH2 0xE05 JUMP JUMPDEST JUMPDEST PUSH2 0xEA9 DUP6 DUP3 DUP7 ADD PUSH2 0xE15 JUMP JUMPDEST SWAP3 POP SWAP3 POP POP SWAP3 POP SWAP3 SWAP1 POP JUMP JUMPDEST PUSH0 DUP2 SWAP1 POP SWAP2 SWAP1 POP JUMP JUMPDEST PUSH2 0xEC7 DUP2 PUSH2 0xEB5 JUMP JUMPDEST DUP2 EQ PUSH2 0xED1 JUMPI PUSH0 DUP1 REVERT JUMPDEST POP JUMP JUMPDEST PUSH0 DUP2 CALLDATALOAD SWAP1 POP PUSH2 0xEE2 DUP2 PUSH2 0xEBE JUMP JUMPDEST SWAP3 SWAP2 POP POP JUMP JUMPDEST PUSH0 PUSH1 0x20 DUP3 DUP5 SUB SLT ISZERO PUSH2 0xEFD JUMPI PUSH2 0xEFC PUSH2 0xE01 JUMP JUMPDEST JUMPDEST PUSH0 PUSH2 0xF0A DUP5 DUP3 DUP6 ADD PUSH2 0xED4 JUMP JUMPDEST SWAP2 POP POP SWAP3 SWAP2 POP POP JUMP JUMPDEST PUSH0 PUSH20 0xFFFFFFFFFFFFFFFFFFFFFFFFFFFFFFFFFFFFFFFF DUP3 AND SWAP1 POP SWAP2 SWAP1 POP JUMP JUMPDEST PUSH0 PUSH2 0xF3C DUP3 PUSH2 0xF13 JUMP JUMPDEST SWAP1 POP SWAP2 SWAP1 POP JUMP JUMPDEST PUSH2 0xF4C DUP2 PUSH2 0xF32 JUMP JUMPDEST DUP3 MSTORE POP POP JUMP JUMPDEST PUSH0 PUSH1 0x20 DUP3 ADD SWAP1 POP PUSH2 0xF65 PUSH0 DUP4 ADD DUP5 PUSH2 0xF43 JUMP JUMPDEST SWAP3 SWAP2 POP POP JUMP JUMPDEST PUSH2 0xF74 DUP2 PUSH2 0xEB5 JUMP JUMPDEST DUP3 MSTORE POP POP JUMP JUMPDEST PUSH0 DUP2 MLOAD SWAP1 POP SWAP2 SWAP1 POP JUMP JUMPDEST PUSH0 DUP3 DUP3 MSTORE PUSH1 0x20 DUP3 ADD SWAP1 POP SWAP3 SWAP2 POP POP JUMP JUMPDEST PUSH0 JUMPDEST DUP4 DUP2 LT ISZERO PUSH2 0xFB1 JUMPI DUP1 DUP3 ADD MLOAD DUP2 DUP5 ADD MSTORE PUSH1 0x20 DUP2 ADD SWAP1 POP PUSH2 0xF96 JUMP JUMPDEST PUSH0 DUP5 DUP5 ADD MSTORE POP POP POP POP JUMP JUMPDEST PUSH0 PUSH1 0x1F NOT PUSH1 0x1F DUP4 ADD AND SWAP1 POP SWAP2 SWAP1 POP JUMP JUMPDEST PUSH0 PUSH2 0xFD6 DUP3 PUSH2 0xF7A JUMP JUMPDEST PUSH2 0xFE0 DUP2 DUP6 PUSH2 0xF84 JUMP JUMPDEST SWAP4 POP PUSH2 0xFF0 DUP2 DUP6 PUSH1 0x20 DUP7 ADD PUSH2 0xF94 JUMP JUMPDEST PUSH2 0xFF9 DUP2 PUSH2 0xFBC JUMP JUMPDEST DUP5 ADD SWAP2 POP POP SWAP3 SWAP2 POP POP JUMP JUMPDEST PUSH0 PUSH1 0x60 DUP4 ADD PUSH0 DUP4 ADD MLOAD PUSH2 0x1019 PUSH0 DUP7 ADD DUP3 PUSH2 0xF6B JUMP JUMPDEST POP PUSH1 0x20 DUP4 ADD MLOAD DUP5 DUP3 SUB PUSH1 0x20 DUP7 ADD MSTORE PUSH2 0x1031 DUP3 DUP3 PUSH2 0xFCC JUMP JUMPDEST SWAP2 POP POP PUSH1 0x40 DUP4 ADD MLOAD PUSH2 0x1046 PUSH1 0x40 DUP7 ADD DUP3 PUSH2 0xF6B JUMP JUMPDEST POP DUP1 SWAP2 POP POP SWAP3 SWAP2 POP POP JUMP JUMPDEST PUSH0 PUSH1 0x20 DUP3 ADD SWAP1 POP DUP2 DUP2 SUB PUSH0 DUP4 ADD MSTORE PUSH2 0x1069 DUP2 DUP5 PUSH2 0x1004 JUMP JUMPDEST SWAP1 POP SWAP3 SWAP2 POP POP JUMP JUMPDEST PUSH2 0x107A DUP2 PUSH2 0xF32 JUMP JUMPDEST DUP2 EQ PUSH2 0x1084 JUMPI PUSH0 DUP1 REVERT JUMPDEST POP JUMP JUMPDEST PUSH0 DUP2 CALLDATALOAD SWAP1 POP PUSH2 0x1095 DUP2 PUSH2 0x1071 JUMP JUMPDEST SWAP3 SWAP2 POP POP JUMP JUMPDEST PUSH0 PUSH1 0x20 DUP3 DUP5 SUB SLT ISZERO PUSH2 0x10B0 JUMPI PUSH2 0x10AF PUSH2 0xE01 JUMP JUMPDEST JUMPDEST PUSH0 PUSH2 0x10BD DUP5 DUP3 DUP6 ADD PUSH2 0x1087 JUMP JUMPDEST SWAP2 POP POP SWAP3 SWAP2 POP POP JUMP JUMPDEST PUSH0 DUP3 DUP3 MSTORE PUSH1 0x20 DUP3 ADD SWAP1 POP SWAP3 SWAP2 POP POP JUMP JUMPDEST PUSH32 0x596F7520617265206E6F7420612076616C696420766F74657221000000000000 PUSH0 DUP3 ADD MSTORE POP JUMP JUMPDEST PUSH0 PUSH2 0x110A PUSH1 0x1A DUP4 PUSH2 0x10C6 JUMP JUMPDEST SWAP2 POP PUSH2 0x1115 DUP3 PUSH2 0x10D6 JUMP JUMPDEST PUSH1 0x20 DUP3 ADD SWAP1 POP SWAP2 SWAP1 POP JUMP JUMPDEST PUSH0 PUSH1 0x20 DUP3 ADD SWAP1 POP DUP2 DUP2 SUB PUSH0 DUP4 ADD MSTORE PUSH2 0x1137 DUP2 PUSH2 0x10FE JUMP JUMPDEST SWAP1 POP SWAP2 SWAP1 POP JUMP JUMPDEST PUSH32 0x596F752063616E6E6F742072656769737465722070726F706F73616C732E0000 PUSH0 DUP3 ADD MSTORE POP JUMP JUMPDEST PUSH0 PUSH2 0x1172 PUSH1 0x1E DUP4 PUSH2 0x10C6 JUMP JUMPDEST SWAP2 POP PUSH2 0x117D DUP3 PUSH2 0x113E JUMP JUMPDEST PUSH1 0x20 DUP3 ADD SWAP1 POP SWAP2 SWAP1 POP JUMP JUMPDEST PUSH0 PUSH1 0x20 DUP3 ADD SWAP1 POP DUP2 DUP2 SUB PUSH0 DUP4 ADD MSTORE PUSH2 0x119F DUP2 PUSH2 0x1166 JUMP JUMPDEST SWAP1 POP SWAP2 SWAP1 POP JUMP JUMPDEST PUSH32 0x4E487B7100000000000000000000000000000000000000000000000000000000 PUSH0 MSTORE PUSH1 0x41 PUSH1 0x4 MSTORE PUSH1 0x24 PUSH0 REVERT JUMPDEST PUSH32 0x4E487B7100000000000000000000000000000000000000000000000000000000 PUSH0 MSTORE PUSH1 0x22 PUSH1 0x4 MSTORE PUSH1 0x24 PUSH0 REVERT JUMPDEST PUSH0 PUSH1 0x2 DUP3 DIV SWAP1 POP PUSH1 0x1 DUP3 AND DUP1 PUSH2 0x1217 JUMPI PUSH1 0x7F DUP3 AND SWAP2 POP JUMPDEST PUSH1 0x20 DUP3 LT DUP2 SUB PUSH2 0x122A JUMPI PUSH2 0x1229 PUSH2 0x11D3 JUMP JUMPDEST JUMPDEST POP SWAP2 SWAP1 POP JUMP JUMPDEST PUSH0 DUP2 SWAP1 POP DUP2 PUSH0 MSTORE PUSH1 0x20 PUSH0 KECCAK256 SWAP1 POP SWAP2 SWAP1 POP JUMP JUMPDEST PUSH0 PUSH1 0x20 PUSH1 0x1F DUP4 ADD DIV SWAP1 POP SWAP2 SWAP1 POP JUMP JUMPDEST PUSH0 DUP3 DUP3 SHL SWAP1 POP SWAP3 SWAP2 POP POP JUMP JUMPDEST PUSH0 PUSH1 0x8 DUP4 MUL PUSH2 0x128C PUSH32 0xFFFFFFFFFFFFFFFFFFFFFFFFFFFFFFFFFFFFFFFFFFFFFFFFFFFFFFFFFFFFFFFF DUP3 PUSH2 0x1251 JUMP JUMPDEST PUSH2 0x1296 DUP7 DUP4 PUSH2 0x1251 JUMP JUMPDEST SWAP6 POP DUP1 NOT DUP5 AND SWAP4 POP DUP1 DUP7 AND DUP5 OR SWAP3 POP POP POP SWAP4 SWAP3 POP POP POP JUMP JUMPDEST PUSH0 DUP2 SWAP1 POP SWAP2 SWAP1 POP JUMP JUMPDEST PUSH0 PUSH2 0x12D1 PUSH2 0x12CC PUSH2 0x12C7 DUP5 PUSH2 0xEB5 JUMP JUMPDEST PUSH2 0x12AE JUMP JUMPDEST PUSH2 0xEB5 JUMP JUMPDEST SWAP1 POP SWAP2 SWAP1 POP JUMP JUMPDEST PUSH0 DUP2 SWAP1 POP SWAP2 SWAP1 POP JUMP JUMPDEST PUSH2 0x12EA DUP4 PUSH2 0x12B7 JUMP JUMPDEST PUSH2 0x12FE PUSH2 0x12F6 DUP3 PUSH2 0x12D8 JUMP JUMPDEST DUP5 DUP5 SLOAD PUSH2 0x125D JUMP JUMPDEST DUP3 SSTORE POP POP POP POP JUMP JUMPDEST PUSH0 SWAP1 JUMP JUMPDEST PUSH2 0x1312 PUSH2 0x1306 JUMP JUMPDEST PUSH2 0x131D DUP2 DUP5 DUP5 PUSH2 0x12E1 JUMP JUMPDEST POP POP POP JUMP JUMPDEST JUMPDEST DUP2 DUP2 LT ISZERO PUSH2 0x1340 JUMPI PUSH2 0x1335 PUSH0 DUP3 PUSH2 0x130A JUMP JUMPDEST PUSH1 0x1 DUP2 ADD SWAP1 POP PUSH2 0x1323 JUMP JUMPDEST POP POP JUMP JUMPDEST PUSH1 0x1F DUP3 GT ISZERO PUSH2 0x1385 JUMPI PUSH2 0x1356 DUP2 PUSH2 0x1230 JUMP JUMPDEST PUSH2 0x135F DUP5 PUSH2 0x1242 JUMP JUMPDEST DUP2 ADD PUSH1 0x20 DUP6 LT ISZERO PUSH2 0x136E JUMPI DUP2 SWAP1 POP JUMPDEST PUSH2 0x1382 PUSH2 0x137A DUP6 PUSH2 0x1242 JUMP JUMPDEST DUP4 ADD DUP3 PUSH2 0x1322 JUMP JUMPDEST POP POP JUMPDEST POP POP POP JUMP JUMPDEST PUSH0 DUP3 DUP3 SHR SWAP1 POP SWAP3 SWAP2 POP POP JUMP JUMPDEST PUSH0 PUSH2 0x13A5 PUSH0 NOT DUP5 PUSH1 0x8 MUL PUSH2 0x138A JUMP JUMPDEST NOT DUP1 DUP4 AND SWAP2 POP POP SWAP3 SWAP2 POP POP JUMP JUMPDEST PUSH0 PUSH2 0x13BD DUP4 DUP4 PUSH2 0x1396 JUMP JUMPDEST SWAP2 POP DUP3 PUSH1 0x2 MUL DUP3 OR SWAP1 POP SWAP3 SWAP2 POP POP JUMP JUMPDEST PUSH2 0x13D6 DUP3 PUSH2 0xF7A JUMP JUMPDEST PUSH8 0xFFFFFFFFFFFFFFFF DUP2 GT ISZERO PUSH2 0x13EF JUMPI PUSH2 0x13EE PUSH2 0x11A6 JUMP JUMPDEST JUMPDEST PUSH2 0x13F9 DUP3 SLOAD PUSH2 0x1200 JUMP JUMPDEST PUSH2 0x1404 DUP3 DUP3 DUP6 PUSH2 0x1344 JUMP JUMPDEST PUSH0 PUSH1 0x20 SWAP1 POP PUSH1 0x1F DUP4 GT PUSH1 0x1 DUP2 EQ PUSH2 0x1435 JUMPI PUSH0 DUP5 ISZERO PUSH2 0x1423 JUMPI DUP3 DUP8 ADD MLOAD SWAP1 POP JUMPDEST PUSH2 0x142D DUP6 DUP3 PUSH2 0x13B2 JUMP JUMPDEST DUP7 SSTORE POP PUSH2 0x1494 JUMP JUMPDEST PUSH1 0x1F NOT DUP5 AND PUSH2 0x1443 DUP7 PUSH2 0x1230 JUMP JUMPDEST PUSH0 JUMPDEST DUP3 DUP2 LT ISZERO PUSH2 0x146A JUMPI DUP5 DUP10 ADD MLOAD DUP3 SSTORE PUSH1 0x1 DUP3 ADD SWAP2 POP PUSH1 0x20 DUP6 ADD SWAP5 POP PUSH1 0x20 DUP2 ADD SWAP1 POP PUSH2 0x1445 JUMP JUMPDEST DUP7 DUP4 LT ISZERO PUSH2 0x1487 JUMPI DUP5 DUP10 ADD MLOAD PUSH2 0x1483 PUSH1 0x1F DUP10 AND DUP3 PUSH2 0x1396 JUMP JUMPDEST DUP4 SSTORE POP JUMPDEST PUSH1 0x1 PUSH1 0x2 DUP9 MUL ADD DUP9 SSTORE POP POP POP JUMPDEST POP POP POP POP POP POP JUMP JUMPDEST PUSH32 0x4E487B7100000000000000000000000000000000000000000000000000000000 PUSH0 MSTORE PUSH1 0x11 PUSH1 0x4 MSTORE PUSH1 0x24 PUSH0 REVERT JUMPDEST PUSH0 PUSH2 0x14D3 DUP3 PUSH2 0xEB5 JUMP JUMPDEST SWAP2 POP PUSH32 0xFFFFFFFFFFFFFFFFFFFFFFFFFFFFFFFFFFFFFFFFFFFFFFFFFFFFFFFFFFFFFFFF DUP3 SUB PUSH2 0x1505 JUMPI PUSH2 0x1504 PUSH2 0x149C JUMP JUMPDEST JUMPDEST PUSH1 0x1 DUP3 ADD SWAP1 POP SWAP2 SWAP1 POP JUMP JUMPDEST PUSH2 0x1519 DUP2 PUSH2 0xEB5 JUMP JUMPDEST DUP3 MSTORE POP POP JUMP JUMPDEST PUSH0 PUSH1 0x20 DUP3 ADD SWAP1 POP PUSH2 0x1532 PUSH0 DUP4 ADD DUP5 PUSH2 0x1510 JUMP JUMPDEST SWAP3 SWAP2 POP POP JUMP JUMPDEST PUSH32 0x596F752063616E6E6F7420766F74652070726F706F73616C732E000000000000 PUSH0 DUP3 ADD MSTORE POP JUMP JUMPDEST PUSH0 PUSH2 0x156C PUSH1 0x1A DUP4 PUSH2 0x10C6 JUMP JUMPDEST SWAP2 POP PUSH2 0x1577 DUP3 PUSH2 0x1538 JUMP JUMPDEST PUSH1 0x20 DUP3 ADD SWAP1 POP SWAP2 SWAP1 POP JUMP JUMPDEST PUSH0 PUSH1 0x20 DUP3 ADD SWAP1 POP DUP2 DUP2 SUB PUSH0 DUP4 ADD MSTORE PUSH2 0x1599 DUP2 PUSH2 0x1560 JUMP JUMPDEST SWAP1 POP SWAP2 SWAP1 POP JUMP JUMPDEST PUSH32 0x596F7520616C726561647920766F746564210000000000000000000000000000 PUSH0 DUP3 ADD MSTORE POP JUMP JUMPDEST PUSH0 PUSH2 0x15D4 PUSH1 0x12 DUP4 PUSH2 0x10C6 JUMP JUMPDEST SWAP2 POP PUSH2 0x15DF DUP3 PUSH2 0x15A0 JUMP JUMPDEST PUSH1 0x20 DUP3 ADD SWAP1 POP SWAP2 SWAP1 POP JUMP JUMPDEST PUSH0 PUSH1 0x20 DUP3 ADD SWAP1 POP DUP2 DUP2 SUB PUSH0 DUP4 ADD MSTORE PUSH2 0x1601 DUP2 PUSH2 0x15C8 JUMP JUMPDEST SWAP1 POP SWAP2 SWAP1 POP JUMP JUMPDEST PUSH32 0x4E487B7100000000000000000000000000000000000000000000000000000000 PUSH0 MSTORE PUSH1 0x32 PUSH1 0x4 MSTORE PUSH1 0x24 PUSH0 REVERT JUMPDEST PUSH0 PUSH1 0x40 DUP3 ADD SWAP1 POP PUSH2 0x1648 PUSH0 DUP4 ADD DUP6 PUSH2 0xF43 JUMP JUMPDEST PUSH2 0x1655 PUSH1 0x20 DUP4 ADD DUP5 PUSH2 0x1510 JUMP JUMPDEST SWAP4 SWAP3 POP POP POP JUMP JUMPDEST PUSH32 0x566F746573206E65656420746F2062652074616C6C69656420696E206F726465 PUSH0 DUP3 ADD MSTORE PUSH32 0x7220746F20646F20746861742E00000000000000000000000000000000000000 PUSH1 0x20 DUP3 ADD MSTORE POP JUMP JUMPDEST PUSH0 PUSH2 0x16B6 PUSH1 0x2D DUP4 PUSH2 0x10C6 JUMP JUMPDEST SWAP2 POP PUSH2 0x16C1 DUP3 PUSH2 0x165C JUMP JUMPDEST PUSH1 0x40 DUP3 ADD SWAP1 POP SWAP2 SWAP1 POP JUMP JUMPDEST PUSH0 PUSH1 0x20 DUP3 ADD SWAP1 POP DUP2 DUP2 SUB PUSH0 DUP4 ADD MSTORE PUSH2 0x16E3 DUP2 PUSH2 0x16AA JUMP JUMPDEST SWAP1 POP SWAP2 SWAP1 POP JUMP JUMPDEST PUSH32 0x596F752063616E6E6F7420726567697374657220766F746572732E0000000000 PUSH0 DUP3 ADD MSTORE POP JUMP JUMPDEST PUSH0 PUSH2 0x171E PUSH1 0x1B DUP4 PUSH2 0x10C6 JUMP JUMPDEST SWAP2 POP PUSH2 0x1729 DUP3 PUSH2 0x16EA JUMP JUMPDEST PUSH1 0x20 DUP3 ADD SWAP1 POP SWAP2 SWAP1 POP JUMP JUMPDEST PUSH0 PUSH1 0x20 DUP3 ADD SWAP1 POP DUP2 DUP2 SUB PUSH0 DUP4 ADD MSTORE PUSH2 0x174B DUP2 PUSH2 0x1712 JUMP JUMPDEST SWAP1 POP SWAP2 SWAP1 POP JUMP JUMPDEST PUSH32 0x566F7465732068617665206265656E2074616C6C6965642E204974206973206F PUSH0 DUP3 ADD MSTORE PUSH32 0x7665722E205468657265206973206E6F206E6578742073746570210000000000 PUSH1 0x20 DUP3 ADD MSTORE POP JUMP JUMPDEST PUSH0 PUSH2 0x17AC PUSH1 0x3B DUP4 PUSH2 0x10C6 JUMP JUMPDEST SWAP2 POP PUSH2 0x17B7 DUP3 PUSH2 0x1752 JUMP JUMPDEST PUSH1 0x40 DUP3 ADD SWAP1 POP SWAP2 SWAP1 POP JUMP JUMPDEST PUSH0 PUSH1 0x20 DUP3 ADD SWAP1 POP DUP2 DUP2 SUB PUSH0 DUP4 ADD MSTORE PUSH2 0x17D9 DUP2 PUSH2 0x17A0 JUMP JUMPDEST SWAP1 POP SWAP2 SWAP1 POP JUMP JUMPDEST PUSH0 PUSH2 0x17EA DUP3 PUSH2 0xEB5 JUMP JUMPDEST SWAP2 POP PUSH2 0x17F5 DUP4 PUSH2 0xEB5 JUMP JUMPDEST SWAP3 POP DUP3 DUP3 ADD SWAP1 POP DUP1 DUP3 GT ISZERO PUSH2 0x180D JUMPI PUSH2 0x180C PUSH2 0x149C JUMP JUMPDEST JUMPDEST SWAP3 SWAP2 POP POP JUMP JUMPDEST PUSH0 PUSH1 0x40 DUP3 ADD SWAP1 POP PUSH2 0x1826 PUSH0 DUP4 ADD DUP6 PUSH2 0xDD9 JUMP JUMPDEST PUSH2 0x1833 PUSH1 0x20 DUP4 ADD DUP5 PUSH2 0xDD9 JUMP JUMPDEST SWAP4 SWAP3 POP POP POP JUMP INVALID LOG2 PUSH5 0x6970667358 0x22 SLT KECCAK256 GASPRICE BASEFEE 0xBE KECCAK256 AND PUSH9 0xAC8A4F093563C81798 0x24 SWAP11 0x1F 0xB6 0xA5 PUSH15 0x45799157B2878E376C77C164736F6C PUSH4 0x43000817 STOP CALLER "
				},
				"gasEstimates": {
					"creation": {
						"codeDepositCost": "1251200",
						"executionCost": "infinite",
						"totalCost": "infinite"
					},
					"external": {
						"addProposal(string)": "infinite",
						"addVoter(address)": "infinite",
						"getVoteStep()": "2562",
						"getWinner()": "infinite",
						"nextVoteStep()": "infinite",
						"owner()": "2515",
						"renounceOwnership()": "infinite",
						"transferOwnership(address)": "infinite",
						"voteForProposition(uint256)": "infinite"
					}
				},
				"methodIdentifiers": {
					"addProposal(string)": "2fdae3c5",
					"addVoter(address)": "f4ab9adf",
					"getVoteStep()": "1e09506d",
					"getWinner()": "8e7ea5b2",
					"nextVoteStep()": "fd20255c",
					"owner()": "8da5cb5b",
					"renounceOwnership()": "715018a6",
					"transferOwnership(address)": "f2fde38b",
					"voteForProposition(uint256)": "746536b5"
				}
			},
			"storageLayout": {
				"storage": [
					{
						"astId": 373,
						"contract": "Voting.sol:Voting",
						"label": "_owner",
						"offset": 0,
						"slot": "0",
						"type": "t_address"
					},
					{
						"astId": 31,
						"contract": "Voting.sol:Voting",
						"label": "winningProposalId",
						"offset": 0,
						"slot": "1",
						"type": "t_uint256"
					},
					{
						"astId": 45,
						"contract": "Voting.sol:Voting",
						"label": "voters",
						"offset": 0,
						"slot": "2",
						"type": "t_mapping(t_address,t_struct(Voter)39_storage)"
					},
					{
						"astId": 90,
						"contract": "Voting.sol:Voting",
						"label": "proposals",
						"offset": 0,
						"slot": "3",
						"type": "t_array(t_struct(Proposal)85_storage)dyn_storage"
					},
					{
						"astId": 93,
						"contract": "Voting.sol:Voting",
						"label": "proposalIdCounter",
						"offset": 0,
						"slot": "4",
						"type": "t_uint256"
					},
					{
						"astId": 105,
						"contract": "Voting.sol:Voting",
						"label": "currentVoteState",
						"offset": 0,
						"slot": "5",
						"type": "t_enum(WorkflowStatus)101"
					}
				],
				"types": {
					"t_address": {
						"encoding": "inplace",
						"label": "address",
						"numberOfBytes": "20"
					},
					"t_array(t_struct(Proposal)85_storage)dyn_storage": {
						"base": "t_struct(Proposal)85_storage",
						"encoding": "dynamic_array",
						"label": "struct Voting.Proposal[]",
						"numberOfBytes": "32"
					},
					"t_bool": {
						"encoding": "inplace",
						"label": "bool",
						"numberOfBytes": "1"
					},
					"t_enum(WorkflowStatus)101": {
						"encoding": "inplace",
						"label": "enum Voting.WorkflowStatus",
						"numberOfBytes": "1"
					},
					"t_mapping(t_address,t_struct(Voter)39_storage)": {
						"encoding": "mapping",
						"key": "t_address",
						"label": "mapping(address => struct Voting.Voter)",
						"numberOfBytes": "32",
						"value": "t_struct(Voter)39_storage"
					},
					"t_string_storage": {
						"encoding": "bytes",
						"label": "string",
						"numberOfBytes": "32"
					},
					"t_struct(Proposal)85_storage": {
						"encoding": "inplace",
						"label": "struct Voting.Proposal",
						"members": [
							{
								"astId": 80,
								"contract": "Voting.sol:Voting",
								"label": "id",
								"offset": 0,
								"slot": "0",
								"type": "t_uint256"
							},
							{
								"astId": 82,
								"contract": "Voting.sol:Voting",
								"label": "description",
								"offset": 0,
								"slot": "1",
								"type": "t_string_storage"
							},
							{
								"astId": 84,
								"contract": "Voting.sol:Voting",
								"label": "voteCount",
								"offset": 0,
								"slot": "2",
								"type": "t_uint256"
							}
						],
						"numberOfBytes": "96"
					},
					"t_struct(Voter)39_storage": {
						"encoding": "inplace",
						"label": "struct Voting.Voter",
						"members": [
							{
								"astId": 34,
								"contract": "Voting.sol:Voting",
								"label": "isRegistered",
								"offset": 0,
								"slot": "0",
								"type": "t_bool"
							},
							{
								"astId": 36,
								"contract": "Voting.sol:Voting",
								"label": "hasVoted",
								"offset": 1,
								"slot": "0",
								"type": "t_bool"
							},
							{
								"astId": 38,
								"contract": "Voting.sol:Voting",
								"label": "votedProposalId",
								"offset": 0,
								"slot": "1",
								"type": "t_uint256"
							}
						],
						"numberOfBytes": "64"
					},
					"t_uint256": {
						"encoding": "inplace",
						"label": "uint256",
						"numberOfBytes": "32"
					}
				}
			},
			"userdoc": {
				"events": {
					"VoterRegistered(address)": {
						"notice": "Events"
					}
				},
				"kind": "user",
				"methods": {
					"constructor": {
						"notice": "Contract code"
					}
				},
				"notice": "You can use this contract for only the most basic simulation",
				"version": 1
			}
		}
	}
}