{
	"VotingPlus.sol": {
		"Voting": {
			"abi": [
				{
					"inputs": [],
					"stateMutability": "nonpayable",
					"type": "constructor"
				},
				{
					"inputs": [
						{
							"internalType": "address",
							"name": "owner",
							"type": "address"
						}
					],
					"name": "OwnableInvalidOwner",
					"type": "error"
				},
				{
					"inputs": [
						{
							"internalType": "address",
							"name": "account",
							"type": "address"
						}
					],
					"name": "OwnableUnauthorizedAccount",
					"type": "error"
				},
				{
					"anonymous": false,
					"inputs": [
						{
							"indexed": true,
							"internalType": "address",
							"name": "previousOwner",
							"type": "address"
						},
						{
							"indexed": true,
							"internalType": "address",
							"name": "newOwner",
							"type": "address"
						}
					],
					"name": "OwnershipTransferred",
					"type": "event"
				},
				{
					"anonymous": false,
					"inputs": [
						{
							"indexed": false,
							"internalType": "uint256",
							"name": "proposalId",
							"type": "uint256"
						}
					],
					"name": "ProposalRegistered",
					"type": "event"
				},
				{
					"anonymous": false,
					"inputs": [
						{
							"indexed": false,
							"internalType": "address",
							"name": "voter",
							"type": "address"
						},
						{
							"indexed": false,
							"internalType": "uint256",
							"name": "proposalId",
							"type": "uint256"
						}
					],
					"name": "Voted",
					"type": "event"
				},
				{
					"anonymous": false,
					"inputs": [
						{
							"indexed": false,
							"internalType": "address",
							"name": "voterAddress",
							"type": "address"
						}
					],
					"name": "VoterRegistered",
					"type": "event"
				},
				{
					"anonymous": false,
					"inputs": [
						{
							"indexed": false,
							"internalType": "enum Voting.WorkflowStatus",
							"name": "previousStatus",
							"type": "uint8"
						},
						{
							"indexed": false,
							"internalType": "enum Voting.WorkflowStatus",
							"name": "newStatus",
							"type": "uint8"
						}
					],
					"name": "WorkflowStatusChange",
					"type": "event"
				},
				{
					"inputs": [
						{
							"internalType": "string",
							"name": "_description",
							"type": "string"
						}
					],
					"name": "addProposal",
					"outputs": [],
					"stateMutability": "nonpayable",
					"type": "function"
				},
				{
					"inputs": [
						{
							"internalType": "address",
							"name": "_address",
							"type": "address"
						}
					],
					"name": "addVoter",
					"outputs": [],
					"stateMutability": "nonpayable",
					"type": "function"
				},
				{
					"inputs": [],
					"name": "getProposals",
					"outputs": [
						{
							"components": [
								{
									"internalType": "uint256",
									"name": "id",
									"type": "uint256"
								},
								{
									"internalType": "string",
									"name": "description",
									"type": "string"
								},
								{
									"internalType": "uint256",
									"name": "voteCount",
									"type": "uint256"
								}
							],
							"internalType": "struct Voting.Proposal[]",
							"name": "",
							"type": "tuple[]"
						}
					],
					"stateMutability": "view",
					"type": "function"
				},
				{
					"inputs": [],
					"name": "getVoteStep",
					"outputs": [
						{
							"internalType": "enum Voting.WorkflowStatus",
							"name": "",
							"type": "uint8"
						}
					],
					"stateMutability": "view",
					"type": "function"
				},
				{
					"inputs": [],
					"name": "getWinner",
					"outputs": [
						{
							"components": [
								{
									"internalType": "uint256",
									"name": "id",
									"type": "uint256"
								},
								{
									"internalType": "string",
									"name": "description",
									"type": "string"
								},
								{
									"internalType": "uint256",
									"name": "voteCount",
									"type": "uint256"
								}
							],
							"internalType": "struct Voting.Proposal",
							"name": "",
							"type": "tuple"
						}
					],
					"stateMutability": "nonpayable",
					"type": "function"
				},
				{
					"inputs": [],
					"name": "nextVoteStep",
					"outputs": [],
					"stateMutability": "nonpayable",
					"type": "function"
				},
				{
					"inputs": [],
					"name": "owner",
					"outputs": [
						{
							"internalType": "address",
							"name": "",
							"type": "address"
						}
					],
					"stateMutability": "view",
					"type": "function"
				},
				{
					"inputs": [],
					"name": "renounceOwnership",
					"outputs": [],
					"stateMutability": "nonpayable",
					"type": "function"
				},
				{
					"inputs": [
						{
							"internalType": "address",
							"name": "newOwner",
							"type": "address"
						}
					],
					"name": "transferOwnership",
					"outputs": [],
					"stateMutability": "nonpayable",
					"type": "function"
				},
				{
					"inputs": [
						{
							"internalType": "uint256",
							"name": "_proposalId",
							"type": "uint256"
						}
					],
					"name": "voteForProposition",
					"outputs": [],
					"stateMutability": "nonpayable",
					"type": "function"
				}
			],
			"devdoc": {
				"author": "Maxime AUBURTIN",
				"details": "All corner cases of a vote are not handled in this version also there is no egality, the first vote which has           the maximum voices wins.",
				"errors": {
					"OwnableInvalidOwner(address)": [
						{
							"details": "The owner is not a valid owner account. (eg. `address(0)`)"
						}
					],
					"OwnableUnauthorizedAccount(address)": [
						{
							"details": "The caller account is not authorized to perform an operation."
						}
					]
				},
				"kind": "dev",
				"methods": {
					"owner()": {
						"details": "Returns the address of the current owner."
					},
					"renounceOwnership()": {
						"details": "Leaves the contract without owner. It will not be possible to call `onlyOwner` functions. Can only be called by the current owner. NOTE: Renouncing ownership will leave the contract without an owner, thereby disabling any functionality that is only available to the owner."
					},
					"transferOwnership(address)": {
						"details": "Transfers ownership of the contract to a new account (`newOwner`). Can only be called by the current owner."
					}
				},
				"title": "Voting contrat: this contract allow a whitelist of voters to vote for their favorite proposition.",
				"version": 1
			},
			"evm": {
				"assembly": "    /* \"VotingPlus.sol\":541:4709  contract Voting is Ownable {... */\n  mstore(0x40, 0x80)\n    /* \"VotingPlus.sol\":1780:1781  0 */\n  0x00\n    /* \"VotingPlus.sol\":1755:1781  uint proposalIdCounter = 0 */\n  0x04\n  sstore\n    /* \"VotingPlus.sol\":2946:3048  constructor() Ownable(msg.sender) {... */\n  callvalue\n  dup1\n  iszero\n  tag_1\n  jumpi\n  0x00\n  dup1\n  revert\ntag_1:\n  pop\n    /* \"VotingPlus.sol\":2968:2978  msg.sender */\n  caller\n    /* \"https://github.com/OpenZeppelin/openzeppelin-contracts/blob/master/contracts/access/Ownable.sol\":1297:1298  0 */\n  0x00\n    /* \"https://github.com/OpenZeppelin/openzeppelin-contracts/blob/master/contracts/access/Ownable.sol\":1273:1299  initialOwner == address(0) */\n  0xffffffffffffffffffffffffffffffffffffffff\n  and\n    /* \"https://github.com/OpenZeppelin/openzeppelin-contracts/blob/master/contracts/access/Ownable.sol\":1273:1285  initialOwner */\n  dup2\n    /* \"https://github.com/OpenZeppelin/openzeppelin-contracts/blob/master/contracts/access/Ownable.sol\":1273:1299  initialOwner == address(0) */\n  0xffffffffffffffffffffffffffffffffffffffff\n  and\n  sub\n    /* \"https://github.com/OpenZeppelin/openzeppelin-contracts/blob/master/contracts/access/Ownable.sol\":1269:1364  if (initialOwner == address(0)) {... */\n  tag_5\n  jumpi\n    /* \"https://github.com/OpenZeppelin/openzeppelin-contracts/blob/master/contracts/access/Ownable.sol\":1350:1351  0 */\n  0x00\n    /* \"https://github.com/OpenZeppelin/openzeppelin-contracts/blob/master/contracts/access/Ownable.sol\":1322:1353  OwnableInvalidOwner(address(0)) */\n  mload(0x40)\n  0x1e4fbdf700000000000000000000000000000000000000000000000000000000\n  dup2\n  mstore\n  0x04\n  add\n  tag_6\n  swap2\n  swap1\n  tag_7\n  jump\t// in\ntag_6:\n  mload(0x40)\n  dup1\n  swap2\n  sub\n  swap1\n  revert\n    /* \"https://github.com/OpenZeppelin/openzeppelin-contracts/blob/master/contracts/access/Ownable.sol\":1269:1364  if (initialOwner == address(0)) {... */\ntag_5:\n    /* \"https://github.com/OpenZeppelin/openzeppelin-contracts/blob/master/contracts/access/Ownable.sol\":1373:1405  _transferOwnership(initialOwner) */\n  tag_8\n    /* \"https://github.com/OpenZeppelin/openzeppelin-contracts/blob/master/contracts/access/Ownable.sol\":1392:1404  initialOwner */\n  dup2\n    /* \"https://github.com/OpenZeppelin/openzeppelin-contracts/blob/master/contracts/access/Ownable.sol\":1373:1391  _transferOwnership */\n  shl(0x20, tag_9)\n    /* \"https://github.com/OpenZeppelin/openzeppelin-contracts/blob/master/contracts/access/Ownable.sol\":1373:1405  _transferOwnership(initialOwner) */\n  0x20\n  shr\n  jump\t// in\ntag_8:\n    /* \"https://github.com/OpenZeppelin/openzeppelin-contracts/blob/master/contracts/access/Ownable.sol\":1225:1412  constructor(address initialOwner) {... */\n  pop\n    /* \"VotingPlus.sol\":3009:3041  WorkflowStatus.RegisteringVoters */\n  0x00\n    /* \"VotingPlus.sol\":2990:3006  currentVoteState */\n  0x05\n  0x00\n    /* \"VotingPlus.sol\":2990:3041  currentVoteState = WorkflowStatus.RegisteringVoters */\n  0x0100\n  exp\n  dup2\n  sload\n  dup2\n  0xff\n  mul\n  not\n  and\n  swap1\n  dup4\n  0x03\n  dup2\n  gt\n  iszero\n  tag_11\n  jumpi\n  tag_12\n  tag_13\n  jump\t// in\ntag_12:\ntag_11:\n  mul\n  or\n  swap1\n  sstore\n  pop\n    /* \"VotingPlus.sol\":541:4709  contract Voting is Ownable {... */\n  jump(tag_14)\n    /* \"https://github.com/OpenZeppelin/openzeppelin-contracts/blob/master/contracts/access/Ownable.sol\":2912:3099  function _transferOwnership(address newOwner) internal virtual {... */\ntag_9:\n    /* \"https://github.com/OpenZeppelin/openzeppelin-contracts/blob/master/contracts/access/Ownable.sol\":2985:3001  address oldOwner */\n  0x00\n    /* \"https://github.com/OpenZeppelin/openzeppelin-contracts/blob/master/contracts/access/Ownable.sol\":3004:3010  _owner */\n  dup1\n  0x00\n  swap1\n  sload\n  swap1\n  0x0100\n  exp\n  swap1\n  div\n  0xffffffffffffffffffffffffffffffffffffffff\n  and\n    /* \"https://github.com/OpenZeppelin/openzeppelin-contracts/blob/master/contracts/access/Ownable.sol\":2985:3010  address oldOwner = _owner */\n  swap1\n  pop\n    /* \"https://github.com/OpenZeppelin/openzeppelin-contracts/blob/master/contracts/access/Ownable.sol\":3029:3037  newOwner */\n  dup2\n    /* \"https://github.com/OpenZeppelin/openzeppelin-contracts/blob/master/contracts/access/Ownable.sol\":3020:3026  _owner */\n  0x00\n  dup1\n    /* \"https://github.com/OpenZeppelin/openzeppelin-contracts/blob/master/contracts/access/Ownable.sol\":3020:3037  _owner = newOwner */\n  0x0100\n  exp\n  dup2\n  sload\n  dup2\n  0xffffffffffffffffffffffffffffffffffffffff\n  mul\n  not\n  and\n  swap1\n  dup4\n  0xffffffffffffffffffffffffffffffffffffffff\n  and\n  mul\n  or\n  swap1\n  sstore\n  pop\n    /* \"https://github.com/OpenZeppelin/openzeppelin-contracts/blob/master/contracts/access/Ownable.sol\":3083:3091  newOwner */\n  dup2\n    /* \"https://github.com/OpenZeppelin/openzeppelin-contracts/blob/master/contracts/access/Ownable.sol\":3052:3092  OwnershipTransferred(oldOwner, newOwner) */\n  0xffffffffffffffffffffffffffffffffffffffff\n  and\n    /* \"https://github.com/OpenZeppelin/openzeppelin-contracts/blob/master/contracts/access/Ownable.sol\":3073:3081  oldOwner */\n  dup2\n    /* \"https://github.com/OpenZeppelin/openzeppelin-contracts/blob/master/contracts/access/Ownable.sol\":3052:3092  OwnershipTransferred(oldOwner, newOwner) */\n  0xffffffffffffffffffffffffffffffffffffffff\n  and\n  0x8be0079c531659141344cd1fd0a4f28419497f9722a3daafe3b4186f6b6457e0\n  mload(0x40)\n  mload(0x40)\n  dup1\n  swap2\n  sub\n  swap1\n  log3\n    /* \"https://github.com/OpenZeppelin/openzeppelin-contracts/blob/master/contracts/access/Ownable.sol\":2975:3099  {... */\n  pop\n    /* \"https://github.com/OpenZeppelin/openzeppelin-contracts/blob/master/contracts/access/Ownable.sol\":2912:3099  function _transferOwnership(address newOwner) internal virtual {... */\n  pop\n  jump\t// out\n    /* \"#utility.yul\":7:133   */\ntag_16:\n    /* \"#utility.yul\":44:51   */\n  0x00\n    /* \"#utility.yul\":84:126   */\n  0xffffffffffffffffffffffffffffffffffffffff\n    /* \"#utility.yul\":77:82   */\n  dup3\n    /* \"#utility.yul\":73:127   */\n  and\n    /* \"#utility.yul\":62:127   */\n  swap1\n  pop\n    /* \"#utility.yul\":7:133   */\n  swap2\n  swap1\n  pop\n  jump\t// out\n    /* \"#utility.yul\":139:235   */\ntag_17:\n    /* \"#utility.yul\":176:183   */\n  0x00\n    /* \"#utility.yul\":205:229   */\n  tag_22\n    /* \"#utility.yul\":223:228   */\n  dup3\n    /* \"#utility.yul\":205:229   */\n  tag_16\n  jump\t// in\ntag_22:\n    /* \"#utility.yul\":194:229   */\n  swap1\n  pop\n    /* \"#utility.yul\":139:235   */\n  swap2\n  swap1\n  pop\n  jump\t// out\n    /* \"#utility.yul\":241:359   */\ntag_18:\n    /* \"#utility.yul\":328:352   */\n  tag_24\n    /* \"#utility.yul\":346:351   */\n  dup2\n    /* \"#utility.yul\":328:352   */\n  tag_17\n  jump\t// in\ntag_24:\n    /* \"#utility.yul\":323:326   */\n  dup3\n    /* \"#utility.yul\":316:353   */\n  mstore\n    /* \"#utility.yul\":241:359   */\n  pop\n  pop\n  jump\t// out\n    /* \"#utility.yul\":365:587   */\ntag_7:\n    /* \"#utility.yul\":458:462   */\n  0x00\n    /* \"#utility.yul\":496:498   */\n  0x20\n    /* \"#utility.yul\":485:494   */\n  dup3\n    /* \"#utility.yul\":481:499   */\n  add\n    /* \"#utility.yul\":473:499   */\n  swap1\n  pop\n    /* \"#utility.yul\":509:580   */\n  tag_26\n    /* \"#utility.yul\":577:578   */\n  0x00\n    /* \"#utility.yul\":566:575   */\n  dup4\n    /* \"#utility.yul\":562:579   */\n  add\n    /* \"#utility.yul\":553:559   */\n  dup5\n    /* \"#utility.yul\":509:580   */\n  tag_18\n  jump\t// in\ntag_26:\n    /* \"#utility.yul\":365:587   */\n  swap3\n  swap2\n  pop\n  pop\n  jump\t// out\n    /* \"#utility.yul\":593:773   */\ntag_13:\n    /* \"#utility.yul\":641:718   */\n  0x4e487b7100000000000000000000000000000000000000000000000000000000\n    /* \"#utility.yul\":638:639   */\n  0x00\n    /* \"#utility.yul\":631:719   */\n  mstore\n    /* \"#utility.yul\":738:742   */\n  0x21\n    /* \"#utility.yul\":735:736   */\n  0x04\n    /* \"#utility.yul\":728:743   */\n  mstore\n    /* \"#utility.yul\":762:766   */\n  0x24\n    /* \"#utility.yul\":759:760   */\n  0x00\n    /* \"#utility.yul\":752:767   */\n  revert\n    /* \"VotingPlus.sol\":541:4709  contract Voting is Ownable {... */\ntag_14:\n  dataSize(sub_0)\n  dup1\n  dataOffset(sub_0)\n  0x00\n  codecopy\n  0x00\n  return\nstop\n\nsub_0: assembly {\n        /* \"VotingPlus.sol\":541:4709  contract Voting is Ownable {... */\n      mstore(0x40, 0x80)\n      callvalue\n      dup1\n      iszero\n      tag_1\n      jumpi\n      0x00\n      dup1\n      revert\n    tag_1:\n      pop\n      jumpi(tag_2, lt(calldatasize, 0x04))\n      shr(0xe0, calldataload(0x00))\n      dup1\n      0x8da5cb5b\n      gt\n      tag_13\n      jumpi\n      dup1\n      0x8da5cb5b\n      eq\n      tag_8\n      jumpi\n      dup1\n      0x8e7ea5b2\n      eq\n      tag_9\n      jumpi\n      dup1\n      0xf2fde38b\n      eq\n      tag_10\n      jumpi\n      dup1\n      0xf4ab9adf\n      eq\n      tag_11\n      jumpi\n      dup1\n      0xfd20255c\n      eq\n      tag_12\n      jumpi\n      jump(tag_2)\n    tag_13:\n      dup1\n      0x1e09506d\n      eq\n      tag_3\n      jumpi\n      dup1\n      0x2fdae3c5\n      eq\n      tag_4\n      jumpi\n      dup1\n      0x62564c48\n      eq\n      tag_5\n      jumpi\n      dup1\n      0x715018a6\n      eq\n      tag_6\n      jumpi\n      dup1\n      0x746536b5\n      eq\n      tag_7\n      jumpi\n    tag_2:\n      0x00\n      dup1\n      revert\n        /* \"VotingPlus.sol\":3055:3157  function getVoteStep() external view returns (WorkflowStatus) {... */\n    tag_3:\n      tag_14\n      tag_15\n      jump\t// in\n    tag_14:\n      mload(0x40)\n      tag_16\n      swap2\n      swap1\n      tag_17\n      jump\t// in\n    tag_16:\n      mload(0x40)\n      dup1\n      swap2\n      sub\n      swap1\n      return\n        /* \"VotingPlus.sol\":3607:3830  function addProposal(string calldata _description) external onlyVoters registeringProposals {... */\n    tag_4:\n      tag_18\n      0x04\n      dup1\n      calldatasize\n      sub\n      dup2\n      add\n      swap1\n      tag_19\n      swap2\n      swap1\n      tag_20\n      jump\t// in\n    tag_19:\n      tag_21\n      jump\t// in\n    tag_18:\n      stop\n        /* \"VotingPlus.sol\":3836:3935  function getProposals() external view returns (Proposal[] memory) {... */\n    tag_5:\n      tag_22\n      tag_23\n      jump\t// in\n    tag_22:\n      mload(0x40)\n      tag_24\n      swap2\n      swap1\n      tag_25\n      jump\t// in\n    tag_24:\n      mload(0x40)\n      dup1\n      swap2\n      sub\n      swap1\n      return\n        /* \"https://github.com/OpenZeppelin/openzeppelin-contracts/blob/master/contracts/access/Ownable.sol\":2293:2394  function renounceOwnership() public virtual onlyOwner {... */\n    tag_6:\n      tag_26\n      tag_27\n      jump\t// in\n    tag_26:\n      stop\n        /* \"VotingPlus.sol\":3941:4268  function voteForProposition(uint _proposalId) external onlyVoters votingProposals VoteOnce {... */\n    tag_7:\n      tag_28\n      0x04\n      dup1\n      calldatasize\n      sub\n      dup2\n      add\n      swap1\n      tag_29\n      swap2\n      swap1\n      tag_30\n      jump\t// in\n    tag_29:\n      tag_31\n      jump\t// in\n    tag_28:\n      stop\n        /* \"https://github.com/OpenZeppelin/openzeppelin-contracts/blob/master/contracts/access/Ownable.sol\":1638:1723  function owner() public view virtual returns (address) {... */\n    tag_8:\n      tag_32\n      tag_33\n      jump\t// in\n    tag_32:\n      mload(0x40)\n      tag_34\n      swap2\n      swap1\n      tag_35\n      jump\t// in\n    tag_34:\n      mload(0x40)\n      dup1\n      swap2\n      sub\n      swap1\n      return\n        /* \"VotingPlus.sol\":4274:4707  function getWinner() external votesTallied returns (Proposal memory) {... */\n    tag_9:\n      tag_36\n      tag_37\n      jump\t// in\n    tag_36:\n      mload(0x40)\n      tag_38\n      swap2\n      swap1\n      tag_39\n      jump\t// in\n    tag_38:\n      mload(0x40)\n      dup1\n      swap2\n      sub\n      swap1\n      return\n        /* \"https://github.com/OpenZeppelin/openzeppelin-contracts/blob/master/contracts/access/Ownable.sol\":2543:2758  function transferOwnership(address newOwner) public virtual onlyOwner {... */\n    tag_10:\n      tag_40\n      0x04\n      dup1\n      calldatasize\n      sub\n      dup2\n      add\n      swap1\n      tag_41\n      swap2\n      swap1\n      tag_42\n      jump\t// in\n    tag_41:\n      tag_43\n      jump\t// in\n    tag_40:\n      stop\n        /* \"VotingPlus.sol\":3435:3601  function addVoter(address _address) external onlyOwner registeringVoters {... */\n    tag_11:\n      tag_44\n      0x04\n      dup1\n      calldatasize\n      sub\n      dup2\n      add\n      swap1\n      tag_45\n      swap2\n      swap1\n      tag_42\n      jump\t// in\n    tag_45:\n      tag_46\n      jump\t// in\n    tag_44:\n      stop\n        /* \"VotingPlus.sol\":3163:3425  function nextVoteStep() external onlyOwner votesNotTallied {... */\n    tag_12:\n      tag_47\n      tag_48\n      jump\t// in\n    tag_47:\n      stop\n        /* \"VotingPlus.sol\":3055:3157  function getVoteStep() external view returns (WorkflowStatus) {... */\n    tag_15:\n        /* \"VotingPlus.sol\":3101:3115  WorkflowStatus */\n      0x00\n        /* \"VotingPlus.sol\":3134:3150  currentVoteState */\n      0x05\n      0x00\n      swap1\n      sload\n      swap1\n      0x0100\n      exp\n      swap1\n      div\n      0xff\n      and\n        /* \"VotingPlus.sol\":3127:3150  return currentVoteState */\n      swap1\n      pop\n        /* \"VotingPlus.sol\":3055:3157  function getVoteStep() external view returns (WorkflowStatus) {... */\n      swap1\n      jump\t// out\n        /* \"VotingPlus.sol\":3607:3830  function addProposal(string calldata _description) external onlyVoters registeringProposals {... */\n    tag_21:\n        /* \"VotingPlus.sol\":1271:1275  true */\n      0x01\n        /* \"VotingPlus.sol\":1236:1275  voters[msg.sender].isRegistered == true */\n      iszero\n      iszero\n        /* \"VotingPlus.sol\":1236:1242  voters */\n      0x02\n        /* \"VotingPlus.sol\":1236:1254  voters[msg.sender] */\n      0x00\n        /* \"VotingPlus.sol\":1243:1253  msg.sender */\n      caller\n        /* \"VotingPlus.sol\":1236:1254  voters[msg.sender] */\n      0xffffffffffffffffffffffffffffffffffffffff\n      and\n      0xffffffffffffffffffffffffffffffffffffffff\n      and\n      dup2\n      mstore\n      0x20\n      add\n      swap1\n      dup2\n      mstore\n      0x20\n      add\n      0x00\n      keccak256\n        /* \"VotingPlus.sol\":1236:1267  voters[msg.sender].isRegistered */\n      0x00\n      add\n      0x00\n      swap1\n      sload\n      swap1\n      0x0100\n      exp\n      swap1\n      div\n      0xff\n      and\n        /* \"VotingPlus.sol\":1236:1275  voters[msg.sender].isRegistered == true */\n      iszero\n      iszero\n      eq\n        /* \"VotingPlus.sol\":1228:1306  require(voters[msg.sender].isRegistered == true, \"You are not a valid voter!\") */\n      tag_51\n      jumpi\n      mload(0x40)\n      0x08c379a000000000000000000000000000000000000000000000000000000000\n      dup2\n      mstore\n      0x04\n      add\n      tag_52\n      swap1\n      tag_53\n      jump\t// in\n    tag_52:\n      mload(0x40)\n      dup1\n      swap2\n      sub\n      swap1\n      revert\n    tag_51:\n        /* \"VotingPlus.sol\":2667:2703  WorkflowStatus.ProposalsRegistration */\n      0x01\n        /* \"VotingPlus.sol\":2647:2703  currentVoteState == WorkflowStatus.ProposalsRegistration */\n      0x03\n      dup2\n      gt\n      iszero\n      tag_55\n      jumpi\n      tag_56\n      tag_57\n      jump\t// in\n    tag_56:\n    tag_55:\n        /* \"VotingPlus.sol\":2647:2663  currentVoteState */\n      0x05\n      0x00\n      swap1\n      sload\n      swap1\n      0x0100\n      exp\n      swap1\n      div\n      0xff\n      and\n        /* \"VotingPlus.sol\":2647:2703  currentVoteState == WorkflowStatus.ProposalsRegistration */\n      0x03\n      dup2\n      gt\n      iszero\n      tag_58\n      jumpi\n      tag_59\n      tag_57\n      jump\t// in\n    tag_59:\n    tag_58:\n      eq\n        /* \"VotingPlus.sol\":2639:2738  require(currentVoteState == WorkflowStatus.ProposalsRegistration, \"You cannot register proposals.\") */\n      tag_60\n      jumpi\n      mload(0x40)\n      0x08c379a000000000000000000000000000000000000000000000000000000000\n      dup2\n      mstore\n      0x04\n      add\n      tag_61\n      swap1\n      tag_62\n      jump\t// in\n    tag_61:\n      mload(0x40)\n      dup1\n      swap2\n      sub\n      swap1\n      revert\n    tag_60:\n        /* \"VotingPlus.sol\":3709:3718  proposals */\n      0x03\n        /* \"VotingPlus.sol\":3724:3768  Proposal(proposalIdCounter, _description, 0) */\n      mload(0x40)\n      dup1\n      0x60\n      add\n      0x40\n      mstore\n      dup1\n        /* \"VotingPlus.sol\":3733:3750  proposalIdCounter */\n      sload(0x04)\n        /* \"VotingPlus.sol\":3724:3768  Proposal(proposalIdCounter, _description, 0) */\n      dup2\n      mstore\n      0x20\n      add\n        /* \"VotingPlus.sol\":3752:3764  _description */\n      dup5\n      dup5\n        /* \"VotingPlus.sol\":3724:3768  Proposal(proposalIdCounter, _description, 0) */\n      dup1\n      dup1\n      0x1f\n      add\n      0x20\n      dup1\n      swap2\n      div\n      mul\n      0x20\n      add\n      mload(0x40)\n      swap1\n      dup2\n      add\n      0x40\n      mstore\n      dup1\n      swap4\n      swap3\n      swap2\n      swap1\n      dup2\n      dup2\n      mstore\n      0x20\n      add\n      dup4\n      dup4\n      dup1\n      dup3\n      dup5\n      calldatacopy\n      0x00\n      dup2\n      dup5\n      add\n      mstore\n      not(0x1f)\n      0x1f\n      dup3\n      add\n      and\n      swap1\n      pop\n      dup1\n      dup4\n      add\n      swap3\n      pop\n      pop\n      pop\n      pop\n      pop\n      pop\n      pop\n      dup2\n      mstore\n      0x20\n      add\n        /* \"VotingPlus.sol\":3766:3767  0 */\n      0x00\n        /* \"VotingPlus.sol\":3724:3768  Proposal(proposalIdCounter, _description, 0) */\n      dup2\n      mstore\n      pop\n        /* \"VotingPlus.sol\":3709:3769  proposals.push(Proposal(proposalIdCounter, _description, 0)) */\n      swap1\n      dup1\n      0x01\n      dup2\n      sload\n      add\n      dup1\n      dup3\n      sstore\n      dup1\n      swap2\n      pop\n      pop\n      0x01\n      swap1\n      sub\n      swap1\n      0x00\n      mstore\n      keccak256(0x00, 0x20)\n      swap1\n      0x03\n      mul\n      add\n      0x00\n      swap1\n      swap2\n      swap1\n      swap2\n      swap1\n      swap2\n      pop\n      0x00\n      dup3\n      add\n      mload\n      dup2\n      0x00\n      add\n      sstore\n      0x20\n      dup3\n      add\n      mload\n      dup2\n      0x01\n      add\n      swap1\n      dup2\n      tag_65\n      swap2\n      swap1\n      tag_66\n      jump\t// in\n    tag_65:\n      pop\n      0x40\n      dup3\n      add\n      mload\n      dup2\n      0x02\n      add\n      sstore\n      pop\n      pop\n        /* \"VotingPlus.sol\":3784:3823  ProposalRegistered(proposalIdCounter++) */\n      0x92e393e9b54e2f801d3ea4beb0c5e71a21cc34a5d34b77d0fb8a3aa1650dc18f\n        /* \"VotingPlus.sol\":3803:3820  proposalIdCounter */\n      0x04\n      0x00\n        /* \"VotingPlus.sol\":3803:3822  proposalIdCounter++ */\n      dup2\n      sload\n      dup1\n      swap3\n      swap2\n      swap1\n      tag_67\n      swap1\n      tag_68\n      jump\t// in\n    tag_67:\n      swap2\n      swap1\n      pop\n      sstore\n        /* \"VotingPlus.sol\":3784:3823  ProposalRegistered(proposalIdCounter++) */\n      mload(0x40)\n      tag_69\n      swap2\n      swap1\n      tag_70\n      jump\t// in\n    tag_69:\n      mload(0x40)\n      dup1\n      swap2\n      sub\n      swap1\n      log1\n        /* \"VotingPlus.sol\":3607:3830  function addProposal(string calldata _description) external onlyVoters registeringProposals {... */\n      pop\n      pop\n      jump\t// out\n        /* \"VotingPlus.sol\":3836:3935  function getProposals() external view returns (Proposal[] memory) {... */\n    tag_23:\n        /* \"VotingPlus.sol\":3883:3900  Proposal[] memory */\n      0x60\n        /* \"VotingPlus.sol\":3919:3928  proposals */\n      0x03\n        /* \"VotingPlus.sol\":3912:3928  return proposals */\n      dup1\n      sload\n      dup1\n      0x20\n      mul\n      0x20\n      add\n      mload(0x40)\n      swap1\n      dup2\n      add\n      0x40\n      mstore\n      dup1\n      swap3\n      swap2\n      swap1\n      dup2\n      dup2\n      mstore\n      0x20\n      add\n      0x00\n      swap1\n    tag_72:\n      dup3\n      dup3\n      lt\n      iszero\n      tag_73\n      jumpi\n      dup4\n      dup3\n      swap1\n      0x00\n      mstore\n      keccak256(0x00, 0x20)\n      swap1\n      0x03\n      mul\n      add\n      mload(0x40)\n      dup1\n      0x60\n      add\n      0x40\n      mstore\n      swap1\n      dup2\n      0x00\n      dup3\n      add\n      sload\n      dup2\n      mstore\n      0x20\n      add\n      0x01\n      dup3\n      add\n      dup1\n      sload\n      tag_75\n      swap1\n      tag_76\n      jump\t// in\n    tag_75:\n      dup1\n      0x1f\n      add\n      0x20\n      dup1\n      swap2\n      div\n      mul\n      0x20\n      add\n      mload(0x40)\n      swap1\n      dup2\n      add\n      0x40\n      mstore\n      dup1\n      swap3\n      swap2\n      swap1\n      dup2\n      dup2\n      mstore\n      0x20\n      add\n      dup3\n      dup1\n      sload\n      tag_77\n      swap1\n      tag_76\n      jump\t// in\n    tag_77:\n      dup1\n      iszero\n      tag_78\n      jumpi\n      dup1\n      0x1f\n      lt\n      tag_79\n      jumpi\n      0x0100\n      dup1\n      dup4\n      sload\n      div\n      mul\n      dup4\n      mstore\n      swap2\n      0x20\n      add\n      swap2\n      jump(tag_78)\n    tag_79:\n      dup3\n      add\n      swap2\n      swap1\n      0x00\n      mstore\n      keccak256(0x00, 0x20)\n      swap1\n    tag_80:\n      dup2\n      sload\n      dup2\n      mstore\n      swap1\n      0x01\n      add\n      swap1\n      0x20\n      add\n      dup1\n      dup4\n      gt\n      tag_80\n      jumpi\n      dup3\n      swap1\n      sub\n      0x1f\n      and\n      dup3\n      add\n      swap2\n    tag_78:\n      pop\n      pop\n      pop\n      pop\n      pop\n      dup2\n      mstore\n      0x20\n      add\n      0x02\n      dup3\n      add\n      sload\n      dup2\n      mstore\n      pop\n      pop\n      dup2\n      mstore\n      0x20\n      add\n      swap1\n      0x01\n      add\n      swap1\n      jump(tag_72)\n    tag_73:\n      pop\n      pop\n      pop\n      pop\n      swap1\n      pop\n        /* \"VotingPlus.sol\":3836:3935  function getProposals() external view returns (Proposal[] memory) {... */\n      swap1\n      jump\t// out\n        /* \"https://github.com/OpenZeppelin/openzeppelin-contracts/blob/master/contracts/access/Ownable.sol\":2293:2394  function renounceOwnership() public virtual onlyOwner {... */\n    tag_27:\n        /* \"https://github.com/OpenZeppelin/openzeppelin-contracts/blob/master/contracts/access/Ownable.sol\":1531:1544  _checkOwner() */\n      tag_82\n        /* \"https://github.com/OpenZeppelin/openzeppelin-contracts/blob/master/contracts/access/Ownable.sol\":1531:1542  _checkOwner */\n      tag_83\n        /* \"https://github.com/OpenZeppelin/openzeppelin-contracts/blob/master/contracts/access/Ownable.sol\":1531:1544  _checkOwner() */\n      jump\t// in\n    tag_82:\n        /* \"https://github.com/OpenZeppelin/openzeppelin-contracts/blob/master/contracts/access/Ownable.sol\":2357:2387  _transferOwnership(address(0)) */\n      tag_85\n        /* \"https://github.com/OpenZeppelin/openzeppelin-contracts/blob/master/contracts/access/Ownable.sol\":2384:2385  0 */\n      0x00\n        /* \"https://github.com/OpenZeppelin/openzeppelin-contracts/blob/master/contracts/access/Ownable.sol\":2357:2375  _transferOwnership */\n      tag_86\n        /* \"https://github.com/OpenZeppelin/openzeppelin-contracts/blob/master/contracts/access/Ownable.sol\":2357:2387  _transferOwnership(address(0)) */\n      jump\t// in\n    tag_85:\n        /* \"https://github.com/OpenZeppelin/openzeppelin-contracts/blob/master/contracts/access/Ownable.sol\":2293:2394  function renounceOwnership() public virtual onlyOwner {... */\n      jump\t// out\n        /* \"VotingPlus.sol\":3941:4268  function voteForProposition(uint _proposalId) external onlyVoters votingProposals VoteOnce {... */\n    tag_31:\n        /* \"VotingPlus.sol\":1271:1275  true */\n      0x01\n        /* \"VotingPlus.sol\":1236:1275  voters[msg.sender].isRegistered == true */\n      iszero\n      iszero\n        /* \"VotingPlus.sol\":1236:1242  voters */\n      0x02\n        /* \"VotingPlus.sol\":1236:1254  voters[msg.sender] */\n      0x00\n        /* \"VotingPlus.sol\":1243:1253  msg.sender */\n      caller\n        /* \"VotingPlus.sol\":1236:1254  voters[msg.sender] */\n      0xffffffffffffffffffffffffffffffffffffffff\n      and\n      0xffffffffffffffffffffffffffffffffffffffff\n      and\n      dup2\n      mstore\n      0x20\n      add\n      swap1\n      dup2\n      mstore\n      0x20\n      add\n      0x00\n      keccak256\n        /* \"VotingPlus.sol\":1236:1267  voters[msg.sender].isRegistered */\n      0x00\n      add\n      0x00\n      swap1\n      sload\n      swap1\n      0x0100\n      exp\n      swap1\n      div\n      0xff\n      and\n        /* \"VotingPlus.sol\":1236:1275  voters[msg.sender].isRegistered == true */\n      iszero\n      iszero\n      eq\n        /* \"VotingPlus.sol\":1228:1306  require(voters[msg.sender].isRegistered == true, \"You are not a valid voter!\") */\n      tag_88\n      jumpi\n      mload(0x40)\n      0x08c379a000000000000000000000000000000000000000000000000000000000\n      dup2\n      mstore\n      0x04\n      add\n      tag_89\n      swap1\n      tag_53\n      jump\t// in\n    tag_89:\n      mload(0x40)\n      dup1\n      swap2\n      sub\n      swap1\n      revert\n    tag_88:\n        /* \"VotingPlus.sol\":2827:2855  WorkflowStatus.VotingSession */\n      0x02\n        /* \"VotingPlus.sol\":2807:2855  currentVoteState == WorkflowStatus.VotingSession */\n      0x03\n      dup2\n      gt\n      iszero\n      tag_91\n      jumpi\n      tag_92\n      tag_57\n      jump\t// in\n    tag_92:\n    tag_91:\n        /* \"VotingPlus.sol\":2807:2823  currentVoteState */\n      0x05\n      0x00\n      swap1\n      sload\n      swap1\n      0x0100\n      exp\n      swap1\n      div\n      0xff\n      and\n        /* \"VotingPlus.sol\":2807:2855  currentVoteState == WorkflowStatus.VotingSession */\n      0x03\n      dup2\n      gt\n      iszero\n      tag_93\n      jumpi\n      tag_94\n      tag_57\n      jump\t// in\n    tag_94:\n    tag_93:\n      eq\n        /* \"VotingPlus.sol\":2799:2886  require(currentVoteState == WorkflowStatus.VotingSession, \"You cannot vote proposals.\") */\n      tag_95\n      jumpi\n      mload(0x40)\n      0x08c379a000000000000000000000000000000000000000000000000000000000\n      dup2\n      mstore\n      0x04\n      add\n      tag_96\n      swap1\n      tag_97\n      jump\t// in\n    tag_96:\n      mload(0x40)\n      dup1\n      swap2\n      sub\n      swap1\n      revert\n    tag_95:\n        /* \"VotingPlus.sol\":1457:1462  false */\n      0x00\n        /* \"VotingPlus.sol\":1426:1462  voters[msg.sender].hasVoted == false */\n      iszero\n      iszero\n        /* \"VotingPlus.sol\":1426:1432  voters */\n      0x02\n        /* \"VotingPlus.sol\":1426:1444  voters[msg.sender] */\n      0x00\n        /* \"VotingPlus.sol\":1433:1443  msg.sender */\n      caller\n        /* \"VotingPlus.sol\":1426:1444  voters[msg.sender] */\n      0xffffffffffffffffffffffffffffffffffffffff\n      and\n      0xffffffffffffffffffffffffffffffffffffffff\n      and\n      dup2\n      mstore\n      0x20\n      add\n      swap1\n      dup2\n      mstore\n      0x20\n      add\n      0x00\n      keccak256\n        /* \"VotingPlus.sol\":1426:1453  voters[msg.sender].hasVoted */\n      0x00\n      add\n      0x01\n      swap1\n      sload\n      swap1\n      0x0100\n      exp\n      swap1\n      div\n      0xff\n      and\n        /* \"VotingPlus.sol\":1426:1462  voters[msg.sender].hasVoted == false */\n      iszero\n      iszero\n      eq\n        /* \"VotingPlus.sol\":1418:1485  require(voters[msg.sender].hasVoted == false, \"You already voted!\") */\n      tag_99\n      jumpi\n      mload(0x40)\n      0x08c379a000000000000000000000000000000000000000000000000000000000\n      dup2\n      mstore\n      0x04\n      add\n      tag_100\n      swap1\n      tag_101\n      jump\t// in\n    tag_100:\n      mload(0x40)\n      dup1\n      swap2\n      sub\n      swap1\n      revert\n    tag_99:\n        /* \"VotingPlus.sol\":4042:4051  proposals */\n      0x03\n        /* \"VotingPlus.sol\":4052:4063  _proposalId */\n      dup2\n        /* \"VotingPlus.sol\":4042:4064  proposals[_proposalId] */\n      dup2\n      sload\n      dup2\n      lt\n      tag_103\n      jumpi\n      tag_104\n      tag_105\n      jump\t// in\n    tag_104:\n    tag_103:\n      swap1\n      0x00\n      mstore\n      keccak256(0x00, 0x20)\n      swap1\n      0x03\n      mul\n      add\n        /* \"VotingPlus.sol\":4042:4074  proposals[_proposalId].voteCount */\n      0x02\n      add\n      0x00\n        /* \"VotingPlus.sol\":4042:4076  proposals[_proposalId].voteCount++ */\n      dup2\n      sload\n      dup1\n      swap3\n      swap2\n      swap1\n      tag_107\n      swap1\n      tag_68\n      jump\t// in\n    tag_107:\n      swap2\n      swap1\n      pop\n      sstore\n      pop\n        /* \"VotingPlus.sol\":4116:4120  true */\n      0x01\n        /* \"VotingPlus.sol\":4086:4092  voters */\n      0x02\n        /* \"VotingPlus.sol\":4086:4104  voters[msg.sender] */\n      0x00\n        /* \"VotingPlus.sol\":4093:4103  msg.sender */\n      caller\n        /* \"VotingPlus.sol\":4086:4104  voters[msg.sender] */\n      0xffffffffffffffffffffffffffffffffffffffff\n      and\n      0xffffffffffffffffffffffffffffffffffffffff\n      and\n      dup2\n      mstore\n      0x20\n      add\n      swap1\n      dup2\n      mstore\n      0x20\n      add\n      0x00\n      keccak256\n        /* \"VotingPlus.sol\":4086:4113  voters[msg.sender].hasVoted */\n      0x00\n      add\n      0x01\n        /* \"VotingPlus.sol\":4086:4120  voters[msg.sender].hasVoted = true */\n      0x0100\n      exp\n      dup2\n      sload\n      dup2\n      0xff\n      mul\n      not\n      and\n      swap1\n      dup4\n      iszero\n      iszero\n      mul\n      or\n      swap1\n      sstore\n      pop\n        /* \"VotingPlus.sol\":4167:4176  proposals */\n      0x03\n        /* \"VotingPlus.sol\":4177:4188  _proposalId */\n      dup2\n        /* \"VotingPlus.sol\":4167:4189  proposals[_proposalId] */\n      dup2\n      sload\n      dup2\n      lt\n      tag_108\n      jumpi\n      tag_109\n      tag_105\n      jump\t// in\n    tag_109:\n    tag_108:\n      swap1\n      0x00\n      mstore\n      keccak256(0x00, 0x20)\n      swap1\n      0x03\n      mul\n      add\n        /* \"VotingPlus.sol\":4167:4192  proposals[_proposalId].id */\n      0x00\n      add\n      sload\n        /* \"VotingPlus.sol\":4130:4136  voters */\n      0x02\n        /* \"VotingPlus.sol\":4130:4148  voters[msg.sender] */\n      0x00\n        /* \"VotingPlus.sol\":4137:4147  msg.sender */\n      caller\n        /* \"VotingPlus.sol\":4130:4148  voters[msg.sender] */\n      0xffffffffffffffffffffffffffffffffffffffff\n      and\n      0xffffffffffffffffffffffffffffffffffffffff\n      and\n      dup2\n      mstore\n      0x20\n      add\n      swap1\n      dup2\n      mstore\n      0x20\n      add\n      0x00\n      keccak256\n        /* \"VotingPlus.sol\":4130:4164  voters[msg.sender].votedProposalId */\n      0x01\n      add\n        /* \"VotingPlus.sol\":4130:4192  voters[msg.sender].votedProposalId = proposals[_proposalId].id */\n      dup2\n      swap1\n      sstore\n      pop\n        /* \"VotingPlus.sol\":4208:4261  Voted(msg.sender, voters[msg.sender].votedProposalId) */\n      0x4d99b957a2bc29a30ebd96a7be8e68fe50a3c701db28a91436490b7d53870ca4\n        /* \"VotingPlus.sol\":4214:4224  msg.sender */\n      caller\n        /* \"VotingPlus.sol\":4226:4232  voters */\n      0x02\n        /* \"VotingPlus.sol\":4226:4244  voters[msg.sender] */\n      0x00\n        /* \"VotingPlus.sol\":4233:4243  msg.sender */\n      caller\n        /* \"VotingPlus.sol\":4226:4244  voters[msg.sender] */\n      0xffffffffffffffffffffffffffffffffffffffff\n      and\n      0xffffffffffffffffffffffffffffffffffffffff\n      and\n      dup2\n      mstore\n      0x20\n      add\n      swap1\n      dup2\n      mstore\n      0x20\n      add\n      0x00\n      keccak256\n        /* \"VotingPlus.sol\":4226:4260  voters[msg.sender].votedProposalId */\n      0x01\n      add\n      sload\n        /* \"VotingPlus.sol\":4208:4261  Voted(msg.sender, voters[msg.sender].votedProposalId) */\n      mload(0x40)\n      tag_111\n      swap3\n      swap2\n      swap1\n      tag_112\n      jump\t// in\n    tag_111:\n      mload(0x40)\n      dup1\n      swap2\n      sub\n      swap1\n      log1\n        /* \"VotingPlus.sol\":3941:4268  function voteForProposition(uint _proposalId) external onlyVoters votingProposals VoteOnce {... */\n      pop\n      jump\t// out\n        /* \"https://github.com/OpenZeppelin/openzeppelin-contracts/blob/master/contracts/access/Ownable.sol\":1638:1723  function owner() public view virtual returns (address) {... */\n    tag_33:\n        /* \"https://github.com/OpenZeppelin/openzeppelin-contracts/blob/master/contracts/access/Ownable.sol\":1684:1691  address */\n      0x00\n        /* \"https://github.com/OpenZeppelin/openzeppelin-contracts/blob/master/contracts/access/Ownable.sol\":1710:1716  _owner */\n      dup1\n      0x00\n      swap1\n      sload\n      swap1\n      0x0100\n      exp\n      swap1\n      div\n      0xffffffffffffffffffffffffffffffffffffffff\n      and\n        /* \"https://github.com/OpenZeppelin/openzeppelin-contracts/blob/master/contracts/access/Ownable.sol\":1703:1716  return _owner */\n      swap1\n      pop\n        /* \"https://github.com/OpenZeppelin/openzeppelin-contracts/blob/master/contracts/access/Ownable.sol\":1638:1723  function owner() public view virtual returns (address) {... */\n      swap1\n      jump\t// out\n        /* \"VotingPlus.sol\":4274:4707  function getWinner() external votesTallied returns (Proposal memory) {... */\n    tag_37:\n        /* \"VotingPlus.sol\":4326:4341  Proposal memory */\n      tag_114\n      tag_115\n      jump\t// in\n    tag_114:\n        /* \"VotingPlus.sol\":2172:2199  WorkflowStatus.VotesTallied */\n      0x03\n        /* \"VotingPlus.sol\":2152:2199  currentVoteState == WorkflowStatus.VotesTallied */\n      dup1\n      dup2\n      gt\n      iszero\n      tag_117\n      jumpi\n      tag_118\n      tag_57\n      jump\t// in\n    tag_118:\n    tag_117:\n        /* \"VotingPlus.sol\":2152:2168  currentVoteState */\n      0x05\n      0x00\n      swap1\n      sload\n      swap1\n      0x0100\n      exp\n      swap1\n      div\n      0xff\n      and\n        /* \"VotingPlus.sol\":2152:2199  currentVoteState == WorkflowStatus.VotesTallied */\n      0x03\n      dup2\n      gt\n      iszero\n      tag_119\n      jumpi\n      tag_120\n      tag_57\n      jump\t// in\n    tag_120:\n    tag_119:\n      eq\n        /* \"VotingPlus.sol\":2144:2249  require(currentVoteState == WorkflowStatus.VotesTallied, \"Votes need to be tallied in order to do that.\") */\n      tag_121\n      jumpi\n      mload(0x40)\n      0x08c379a000000000000000000000000000000000000000000000000000000000\n      dup2\n      mstore\n      0x04\n      add\n      tag_122\n      swap1\n      tag_123\n      jump\t// in\n    tag_122:\n      mload(0x40)\n      dup1\n      swap2\n      sub\n      swap1\n      revert\n    tag_121:\n        /* \"VotingPlus.sol\":4353:4370  uint maxVoteCount */\n      0x00\n        /* \"VotingPlus.sol\":4389:4395  uint i */\n      dup1\n        /* \"VotingPlus.sol\":4384:4655  for (uint i=0; i<proposals.length; i++) {... */\n    tag_125:\n        /* \"VotingPlus.sol\":4401:4410  proposals */\n      0x03\n        /* \"VotingPlus.sol\":4401:4417  proposals.length */\n      dup1\n      sload\n      swap1\n      pop\n        /* \"VotingPlus.sol\":4399:4400  i */\n      dup2\n        /* \"VotingPlus.sol\":4399:4417  i<proposals.length */\n      lt\n        /* \"VotingPlus.sol\":4384:4655  for (uint i=0; i<proposals.length; i++) {... */\n      iszero\n      tag_126\n      jumpi\n        /* \"VotingPlus.sol\":4438:4462  Proposal memory proposal */\n      0x00\n        /* \"VotingPlus.sol\":4465:4474  proposals */\n      0x03\n        /* \"VotingPlus.sol\":4475:4476  i */\n      dup3\n        /* \"VotingPlus.sol\":4465:4477  proposals[i] */\n      dup2\n      sload\n      dup2\n      lt\n      tag_128\n      jumpi\n      tag_129\n      tag_105\n      jump\t// in\n    tag_129:\n    tag_128:\n      swap1\n      0x00\n      mstore\n      keccak256(0x00, 0x20)\n      swap1\n      0x03\n      mul\n      add\n        /* \"VotingPlus.sol\":4438:4477  Proposal memory proposal = proposals[i] */\n      mload(0x40)\n      dup1\n      0x60\n      add\n      0x40\n      mstore\n      swap1\n      dup2\n      0x00\n      dup3\n      add\n      sload\n      dup2\n      mstore\n      0x20\n      add\n      0x01\n      dup3\n      add\n      dup1\n      sload\n      tag_131\n      swap1\n      tag_76\n      jump\t// in\n    tag_131:\n      dup1\n      0x1f\n      add\n      0x20\n      dup1\n      swap2\n      div\n      mul\n      0x20\n      add\n      mload(0x40)\n      swap1\n      dup2\n      add\n      0x40\n      mstore\n      dup1\n      swap3\n      swap2\n      swap1\n      dup2\n      dup2\n      mstore\n      0x20\n      add\n      dup3\n      dup1\n      sload\n      tag_132\n      swap1\n      tag_76\n      jump\t// in\n    tag_132:\n      dup1\n      iszero\n      tag_133\n      jumpi\n      dup1\n      0x1f\n      lt\n      tag_134\n      jumpi\n      0x0100\n      dup1\n      dup4\n      sload\n      div\n      mul\n      dup4\n      mstore\n      swap2\n      0x20\n      add\n      swap2\n      jump(tag_133)\n    tag_134:\n      dup3\n      add\n      swap2\n      swap1\n      0x00\n      mstore\n      keccak256(0x00, 0x20)\n      swap1\n    tag_135:\n      dup2\n      sload\n      dup2\n      mstore\n      swap1\n      0x01\n      add\n      swap1\n      0x20\n      add\n      dup1\n      dup4\n      gt\n      tag_135\n      jumpi\n      dup3\n      swap1\n      sub\n      0x1f\n      and\n      dup3\n      add\n      swap2\n    tag_133:\n      pop\n      pop\n      pop\n      pop\n      pop\n      dup2\n      mstore\n      0x20\n      add\n      0x02\n      dup3\n      add\n      sload\n      dup2\n      mstore\n      pop\n      pop\n      swap1\n      pop\n        /* \"VotingPlus.sol\":4516:4528  maxVoteCount */\n      dup3\n        /* \"VotingPlus.sol\":4495:4503  proposal */\n      dup2\n        /* \"VotingPlus.sol\":4495:4513  proposal.voteCount */\n      0x40\n      add\n      mload\n        /* \"VotingPlus.sol\":4495:4528  proposal.voteCount > maxVoteCount */\n      gt\n        /* \"VotingPlus.sol\":4491:4645  if (proposal.voteCount > maxVoteCount) {... */\n      iszero\n      tag_136\n      jumpi\n        /* \"VotingPlus.sol\":4568:4576  proposal */\n      dup1\n        /* \"VotingPlus.sol\":4568:4579  proposal.id */\n      0x00\n      add\n      mload\n        /* \"VotingPlus.sol\":4548:4565  winningProposalId */\n      0x01\n        /* \"VotingPlus.sol\":4548:4579  winningProposalId = proposal.id */\n      dup2\n      swap1\n      sstore\n      pop\n        /* \"VotingPlus.sol\":4612:4620  proposal */\n      dup1\n        /* \"VotingPlus.sol\":4612:4630  proposal.voteCount */\n      0x40\n      add\n      mload\n        /* \"VotingPlus.sol\":4597:4630  maxVoteCount = proposal.voteCount */\n      swap3\n      pop\n        /* \"VotingPlus.sol\":4491:4645  if (proposal.voteCount > maxVoteCount) {... */\n    tag_136:\n        /* \"VotingPlus.sol\":4424:4655  {... */\n      pop\n        /* \"VotingPlus.sol\":4419:4422  i++ */\n      dup1\n      dup1\n      0x01\n      add\n      swap2\n      pop\n      pop\n        /* \"VotingPlus.sol\":4384:4655  for (uint i=0; i<proposals.length; i++) {... */\n      jump(tag_125)\n    tag_126:\n      pop\n        /* \"VotingPlus.sol\":4672:4681  proposals */\n      0x03\n        /* \"VotingPlus.sol\":4682:4699  winningProposalId */\n      sload(0x01)\n        /* \"VotingPlus.sol\":4672:4700  proposals[winningProposalId] */\n      dup2\n      sload\n      dup2\n      lt\n      tag_137\n      jumpi\n      tag_138\n      tag_105\n      jump\t// in\n    tag_138:\n    tag_137:\n      swap1\n      0x00\n      mstore\n      keccak256(0x00, 0x20)\n      swap1\n      0x03\n      mul\n      add\n        /* \"VotingPlus.sol\":4665:4700  return proposals[winningProposalId] */\n      mload(0x40)\n      dup1\n      0x60\n      add\n      0x40\n      mstore\n      swap1\n      dup2\n      0x00\n      dup3\n      add\n      sload\n      dup2\n      mstore\n      0x20\n      add\n      0x01\n      dup3\n      add\n      dup1\n      sload\n      tag_140\n      swap1\n      tag_76\n      jump\t// in\n    tag_140:\n      dup1\n      0x1f\n      add\n      0x20\n      dup1\n      swap2\n      div\n      mul\n      0x20\n      add\n      mload(0x40)\n      swap1\n      dup2\n      add\n      0x40\n      mstore\n      dup1\n      swap3\n      swap2\n      swap1\n      dup2\n      dup2\n      mstore\n      0x20\n      add\n      dup3\n      dup1\n      sload\n      tag_141\n      swap1\n      tag_76\n      jump\t// in\n    tag_141:\n      dup1\n      iszero\n      tag_142\n      jumpi\n      dup1\n      0x1f\n      lt\n      tag_143\n      jumpi\n      0x0100\n      dup1\n      dup4\n      sload\n      div\n      mul\n      dup4\n      mstore\n      swap2\n      0x20\n      add\n      swap2\n      jump(tag_142)\n    tag_143:\n      dup3\n      add\n      swap2\n      swap1\n      0x00\n      mstore\n      keccak256(0x00, 0x20)\n      swap1\n    tag_144:\n      dup2\n      sload\n      dup2\n      mstore\n      swap1\n      0x01\n      add\n      swap1\n      0x20\n      add\n      dup1\n      dup4\n      gt\n      tag_144\n      jumpi\n      dup3\n      swap1\n      sub\n      0x1f\n      and\n      dup3\n      add\n      swap2\n    tag_142:\n      pop\n      pop\n      pop\n      pop\n      pop\n      dup2\n      mstore\n      0x20\n      add\n      0x02\n      dup3\n      add\n      sload\n      dup2\n      mstore\n      pop\n      pop\n      swap2\n      pop\n      pop\n        /* \"VotingPlus.sol\":4274:4707  function getWinner() external votesTallied returns (Proposal memory) {... */\n      swap1\n      jump\t// out\n        /* \"https://github.com/OpenZeppelin/openzeppelin-contracts/blob/master/contracts/access/Ownable.sol\":2543:2758  function transferOwnership(address newOwner) public virtual onlyOwner {... */\n    tag_43:\n        /* \"https://github.com/OpenZeppelin/openzeppelin-contracts/blob/master/contracts/access/Ownable.sol\":1531:1544  _checkOwner() */\n      tag_146\n        /* \"https://github.com/OpenZeppelin/openzeppelin-contracts/blob/master/contracts/access/Ownable.sol\":1531:1542  _checkOwner */\n      tag_83\n        /* \"https://github.com/OpenZeppelin/openzeppelin-contracts/blob/master/contracts/access/Ownable.sol\":1531:1544  _checkOwner() */\n      jump\t// in\n    tag_146:\n        /* \"https://github.com/OpenZeppelin/openzeppelin-contracts/blob/master/contracts/access/Ownable.sol\":2647:2648  0 */\n      0x00\n        /* \"https://github.com/OpenZeppelin/openzeppelin-contracts/blob/master/contracts/access/Ownable.sol\":2627:2649  newOwner == address(0) */\n      0xffffffffffffffffffffffffffffffffffffffff\n      and\n        /* \"https://github.com/OpenZeppelin/openzeppelin-contracts/blob/master/contracts/access/Ownable.sol\":2627:2635  newOwner */\n      dup2\n        /* \"https://github.com/OpenZeppelin/openzeppelin-contracts/blob/master/contracts/access/Ownable.sol\":2627:2649  newOwner == address(0) */\n      0xffffffffffffffffffffffffffffffffffffffff\n      and\n      sub\n        /* \"https://github.com/OpenZeppelin/openzeppelin-contracts/blob/master/contracts/access/Ownable.sol\":2623:2714  if (newOwner == address(0)) {... */\n      tag_148\n      jumpi\n        /* \"https://github.com/OpenZeppelin/openzeppelin-contracts/blob/master/contracts/access/Ownable.sol\":2700:2701  0 */\n      0x00\n        /* \"https://github.com/OpenZeppelin/openzeppelin-contracts/blob/master/contracts/access/Ownable.sol\":2672:2703  OwnableInvalidOwner(address(0)) */\n      mload(0x40)\n      0x1e4fbdf700000000000000000000000000000000000000000000000000000000\n      dup2\n      mstore\n      0x04\n      add\n      tag_149\n      swap2\n      swap1\n      tag_35\n      jump\t// in\n    tag_149:\n      mload(0x40)\n      dup1\n      swap2\n      sub\n      swap1\n      revert\n        /* \"https://github.com/OpenZeppelin/openzeppelin-contracts/blob/master/contracts/access/Ownable.sol\":2623:2714  if (newOwner == address(0)) {... */\n    tag_148:\n        /* \"https://github.com/OpenZeppelin/openzeppelin-contracts/blob/master/contracts/access/Ownable.sol\":2723:2751  _transferOwnership(newOwner) */\n      tag_150\n        /* \"https://github.com/OpenZeppelin/openzeppelin-contracts/blob/master/contracts/access/Ownable.sol\":2742:2750  newOwner */\n      dup2\n        /* \"https://github.com/OpenZeppelin/openzeppelin-contracts/blob/master/contracts/access/Ownable.sol\":2723:2741  _transferOwnership */\n      tag_86\n        /* \"https://github.com/OpenZeppelin/openzeppelin-contracts/blob/master/contracts/access/Ownable.sol\":2723:2751  _transferOwnership(newOwner) */\n      jump\t// in\n    tag_150:\n        /* \"https://github.com/OpenZeppelin/openzeppelin-contracts/blob/master/contracts/access/Ownable.sol\":2543:2758  function transferOwnership(address newOwner) public virtual onlyOwner {... */\n      pop\n      jump\t// out\n        /* \"VotingPlus.sol\":3435:3601  function addVoter(address _address) external onlyOwner registeringVoters {... */\n    tag_46:\n        /* \"https://github.com/OpenZeppelin/openzeppelin-contracts/blob/master/contracts/access/Ownable.sol\":1531:1544  _checkOwner() */\n      tag_152\n        /* \"https://github.com/OpenZeppelin/openzeppelin-contracts/blob/master/contracts/access/Ownable.sol\":1531:1542  _checkOwner */\n      tag_83\n        /* \"https://github.com/OpenZeppelin/openzeppelin-contracts/blob/master/contracts/access/Ownable.sol\":1531:1544  _checkOwner() */\n      jump\t// in\n    tag_152:\n        /* \"VotingPlus.sol\":2509:2541  WorkflowStatus.RegisteringVoters */\n      0x00\n        /* \"VotingPlus.sol\":2489:2541  currentVoteState == WorkflowStatus.RegisteringVoters */\n      0x03\n      dup2\n      gt\n      iszero\n      tag_154\n      jumpi\n      tag_155\n      tag_57\n      jump\t// in\n    tag_155:\n    tag_154:\n        /* \"VotingPlus.sol\":2489:2505  currentVoteState */\n      0x05\n      0x00\n      swap1\n      sload\n      swap1\n      0x0100\n      exp\n      swap1\n      div\n      0xff\n      and\n        /* \"VotingPlus.sol\":2489:2541  currentVoteState == WorkflowStatus.RegisteringVoters */\n      0x03\n      dup2\n      gt\n      iszero\n      tag_156\n      jumpi\n      tag_157\n      tag_57\n      jump\t// in\n    tag_157:\n    tag_156:\n      eq\n        /* \"VotingPlus.sol\":2481:2573  require(currentVoteState == WorkflowStatus.RegisteringVoters, \"You cannot register voters.\") */\n      tag_158\n      jumpi\n      mload(0x40)\n      0x08c379a000000000000000000000000000000000000000000000000000000000\n      dup2\n      mstore\n      0x04\n      add\n      tag_159\n      swap1\n      tag_160\n      jump\t// in\n    tag_159:\n      mload(0x40)\n      dup1\n      swap2\n      sub\n      swap1\n      revert\n    tag_158:\n        /* \"VotingPlus.sol\":3550:3554  true */\n      0x01\n        /* \"VotingPlus.sol\":3518:3524  voters */\n      0x02\n        /* \"VotingPlus.sol\":3518:3534  voters[_address] */\n      0x00\n        /* \"VotingPlus.sol\":3525:3533  _address */\n      dup4\n        /* \"VotingPlus.sol\":3518:3534  voters[_address] */\n      0xffffffffffffffffffffffffffffffffffffffff\n      and\n      0xffffffffffffffffffffffffffffffffffffffff\n      and\n      dup2\n      mstore\n      0x20\n      add\n      swap1\n      dup2\n      mstore\n      0x20\n      add\n      0x00\n      keccak256\n        /* \"VotingPlus.sol\":3518:3547  voters[_address].isRegistered */\n      0x00\n      add\n      0x00\n        /* \"VotingPlus.sol\":3518:3554  voters[_address].isRegistered = true */\n      0x0100\n      exp\n      dup2\n      sload\n      dup2\n      0xff\n      mul\n      not\n      and\n      swap1\n      dup4\n      iszero\n      iszero\n      mul\n      or\n      swap1\n      sstore\n      pop\n        /* \"VotingPlus.sol\":3569:3594  VoterRegistered(_address) */\n      0xb6be2187d059cc2a55fe29e0e503b566e1e0f8c8780096e185429350acffd3dd\n        /* \"VotingPlus.sol\":3585:3593  _address */\n      dup2\n        /* \"VotingPlus.sol\":3569:3594  VoterRegistered(_address) */\n      mload(0x40)\n      tag_162\n      swap2\n      swap1\n      tag_35\n      jump\t// in\n    tag_162:\n      mload(0x40)\n      dup1\n      swap2\n      sub\n      swap1\n      log1\n        /* \"VotingPlus.sol\":3435:3601  function addVoter(address _address) external onlyOwner registeringVoters {... */\n      pop\n      jump\t// out\n        /* \"VotingPlus.sol\":3163:3425  function nextVoteStep() external onlyOwner votesNotTallied {... */\n    tag_48:\n        /* \"https://github.com/OpenZeppelin/openzeppelin-contracts/blob/master/contracts/access/Ownable.sol\":1531:1544  _checkOwner() */\n      tag_164\n        /* \"https://github.com/OpenZeppelin/openzeppelin-contracts/blob/master/contracts/access/Ownable.sol\":1531:1542  _checkOwner */\n      tag_83\n        /* \"https://github.com/OpenZeppelin/openzeppelin-contracts/blob/master/contracts/access/Ownable.sol\":1531:1544  _checkOwner() */\n      jump\t// in\n    tag_164:\n        /* \"VotingPlus.sol\":2338:2365  WorkflowStatus.VotesTallied */\n      0x03\n        /* \"VotingPlus.sol\":2318:2365  currentVoteState != WorkflowStatus.VotesTallied */\n      dup1\n      dup2\n      gt\n      iszero\n      tag_166\n      jumpi\n      tag_167\n      tag_57\n      jump\t// in\n    tag_167:\n    tag_166:\n        /* \"VotingPlus.sol\":2318:2334  currentVoteState */\n      0x05\n      0x00\n      swap1\n      sload\n      swap1\n      0x0100\n      exp\n      swap1\n      div\n      0xff\n      and\n        /* \"VotingPlus.sol\":2318:2365  currentVoteState != WorkflowStatus.VotesTallied */\n      0x03\n      dup2\n      gt\n      iszero\n      tag_168\n      jumpi\n      tag_169\n      tag_57\n      jump\t// in\n    tag_169:\n    tag_168:\n      sub\n        /* \"VotingPlus.sol\":2310:2418  require(currentVoteState != WorkflowStatus.VotesTallied, \"Votes should not be tallied in order to do that.\") */\n      tag_170\n      jumpi\n      mload(0x40)\n      0x08c379a000000000000000000000000000000000000000000000000000000000\n      dup2\n      mstore\n      0x04\n      add\n      tag_171\n      swap1\n      tag_172\n      jump\t// in\n    tag_171:\n      mload(0x40)\n      dup1\n      swap2\n      sub\n      swap1\n      revert\n    tag_170:\n        /* \"VotingPlus.sol\":3232:3260  WorkflowStatus previousState */\n      0x00\n        /* \"VotingPlus.sol\":3263:3279  currentVoteState */\n      0x05\n      0x00\n      swap1\n      sload\n      swap1\n      0x0100\n      exp\n      swap1\n      div\n      0xff\n      and\n        /* \"VotingPlus.sol\":3232:3279  WorkflowStatus previousState = currentVoteState */\n      swap1\n      pop\n        /* \"VotingPlus.sol\":3348:3349  1 */\n      0x01\n        /* \"VotingPlus.sol\":3328:3344  currentVoteState */\n      0x05\n      0x00\n      swap1\n      sload\n      swap1\n      0x0100\n      exp\n      swap1\n      div\n      0xff\n      and\n        /* \"VotingPlus.sol\":3323:3345  uint(currentVoteState) */\n      0x03\n      dup2\n      gt\n      iszero\n      tag_174\n      jumpi\n      tag_175\n      tag_57\n      jump\t// in\n    tag_175:\n    tag_174:\n        /* \"VotingPlus.sol\":3323:3349  uint(currentVoteState) + 1 */\n      tag_176\n      swap2\n      swap1\n      tag_177\n      jump\t// in\n    tag_176:\n        /* \"VotingPlus.sol\":3308:3350  WorkflowStatus(uint(currentVoteState) + 1) */\n      0x03\n      dup2\n      gt\n      iszero\n      tag_178\n      jumpi\n      tag_179\n      tag_57\n      jump\t// in\n    tag_179:\n    tag_178:\n        /* \"VotingPlus.sol\":3289:3305  currentVoteState */\n      0x05\n      0x00\n        /* \"VotingPlus.sol\":3289:3350  currentVoteState = WorkflowStatus(uint(currentVoteState) + 1) */\n      0x0100\n      exp\n      dup2\n      sload\n      dup2\n      0xff\n      mul\n      not\n      and\n      swap1\n      dup4\n      0x03\n      dup2\n      gt\n      iszero\n      tag_180\n      jumpi\n      tag_181\n      tag_57\n      jump\t// in\n    tag_181:\n    tag_180:\n      mul\n      or\n      swap1\n      sstore\n      pop\n        /* \"VotingPlus.sol\":3365:3418  WorkflowStatusChange(previousState, currentVoteState) */\n      0x0a97a4ee45751e2abf3e4fc8946939630b11b371ea8ae39ccdc3056e98f5cc3f\n        /* \"VotingPlus.sol\":3386:3399  previousState */\n      dup2\n        /* \"VotingPlus.sol\":3401:3417  currentVoteState */\n      0x05\n      0x00\n      swap1\n      sload\n      swap1\n      0x0100\n      exp\n      swap1\n      div\n      0xff\n      and\n        /* \"VotingPlus.sol\":3365:3418  WorkflowStatusChange(previousState, currentVoteState) */\n      mload(0x40)\n      tag_182\n      swap3\n      swap2\n      swap1\n      tag_183\n      jump\t// in\n    tag_182:\n      mload(0x40)\n      dup1\n      swap2\n      sub\n      swap1\n      log1\n        /* \"VotingPlus.sol\":3222:3425  {... */\n      pop\n        /* \"VotingPlus.sol\":3163:3425  function nextVoteStep() external onlyOwner votesNotTallied {... */\n      jump\t// out\n        /* \"https://github.com/OpenZeppelin/openzeppelin-contracts/blob/master/contracts/access/Ownable.sol\":1796:1958  function _checkOwner() internal view virtual {... */\n    tag_83:\n        /* \"https://github.com/OpenZeppelin/openzeppelin-contracts/blob/master/contracts/access/Ownable.sol\":1866:1878  _msgSender() */\n      tag_185\n        /* \"https://github.com/OpenZeppelin/openzeppelin-contracts/blob/master/contracts/access/Ownable.sol\":1866:1876  _msgSender */\n      tag_186\n        /* \"https://github.com/OpenZeppelin/openzeppelin-contracts/blob/master/contracts/access/Ownable.sol\":1866:1878  _msgSender() */\n      jump\t// in\n    tag_185:\n        /* \"https://github.com/OpenZeppelin/openzeppelin-contracts/blob/master/contracts/access/Ownable.sol\":1855:1878  owner() != _msgSender() */\n      0xffffffffffffffffffffffffffffffffffffffff\n      and\n        /* \"https://github.com/OpenZeppelin/openzeppelin-contracts/blob/master/contracts/access/Ownable.sol\":1855:1862  owner() */\n      tag_187\n        /* \"https://github.com/OpenZeppelin/openzeppelin-contracts/blob/master/contracts/access/Ownable.sol\":1855:1860  owner */\n      tag_33\n        /* \"https://github.com/OpenZeppelin/openzeppelin-contracts/blob/master/contracts/access/Ownable.sol\":1855:1862  owner() */\n      jump\t// in\n    tag_187:\n        /* \"https://github.com/OpenZeppelin/openzeppelin-contracts/blob/master/contracts/access/Ownable.sol\":1855:1878  owner() != _msgSender() */\n      0xffffffffffffffffffffffffffffffffffffffff\n      and\n      eq\n        /* \"https://github.com/OpenZeppelin/openzeppelin-contracts/blob/master/contracts/access/Ownable.sol\":1851:1952  if (owner() != _msgSender()) {... */\n      tag_188\n      jumpi\n        /* \"https://github.com/OpenZeppelin/openzeppelin-contracts/blob/master/contracts/access/Ownable.sol\":1928:1940  _msgSender() */\n      tag_189\n        /* \"https://github.com/OpenZeppelin/openzeppelin-contracts/blob/master/contracts/access/Ownable.sol\":1928:1938  _msgSender */\n      tag_186\n        /* \"https://github.com/OpenZeppelin/openzeppelin-contracts/blob/master/contracts/access/Ownable.sol\":1928:1940  _msgSender() */\n      jump\t// in\n    tag_189:\n        /* \"https://github.com/OpenZeppelin/openzeppelin-contracts/blob/master/contracts/access/Ownable.sol\":1901:1941  OwnableUnauthorizedAccount(_msgSender()) */\n      mload(0x40)\n      0x118cdaa700000000000000000000000000000000000000000000000000000000\n      dup2\n      mstore\n      0x04\n      add\n      tag_190\n      swap2\n      swap1\n      tag_35\n      jump\t// in\n    tag_190:\n      mload(0x40)\n      dup1\n      swap2\n      sub\n      swap1\n      revert\n        /* \"https://github.com/OpenZeppelin/openzeppelin-contracts/blob/master/contracts/access/Ownable.sol\":1851:1952  if (owner() != _msgSender()) {... */\n    tag_188:\n        /* \"https://github.com/OpenZeppelin/openzeppelin-contracts/blob/master/contracts/access/Ownable.sol\":1796:1958  function _checkOwner() internal view virtual {... */\n      jump\t// out\n        /* \"https://github.com/OpenZeppelin/openzeppelin-contracts/blob/master/contracts/access/Ownable.sol\":2912:3099  function _transferOwnership(address newOwner) internal virtual {... */\n    tag_86:\n        /* \"https://github.com/OpenZeppelin/openzeppelin-contracts/blob/master/contracts/access/Ownable.sol\":2985:3001  address oldOwner */\n      0x00\n        /* \"https://github.com/OpenZeppelin/openzeppelin-contracts/blob/master/contracts/access/Ownable.sol\":3004:3010  _owner */\n      dup1\n      0x00\n      swap1\n      sload\n      swap1\n      0x0100\n      exp\n      swap1\n      div\n      0xffffffffffffffffffffffffffffffffffffffff\n      and\n        /* \"https://github.com/OpenZeppelin/openzeppelin-contracts/blob/master/contracts/access/Ownable.sol\":2985:3010  address oldOwner = _owner */\n      swap1\n      pop\n        /* \"https://github.com/OpenZeppelin/openzeppelin-contracts/blob/master/contracts/access/Ownable.sol\":3029:3037  newOwner */\n      dup2\n        /* \"https://github.com/OpenZeppelin/openzeppelin-contracts/blob/master/contracts/access/Ownable.sol\":3020:3026  _owner */\n      0x00\n      dup1\n        /* \"https://github.com/OpenZeppelin/openzeppelin-contracts/blob/master/contracts/access/Ownable.sol\":3020:3037  _owner = newOwner */\n      0x0100\n      exp\n      dup2\n      sload\n      dup2\n      0xffffffffffffffffffffffffffffffffffffffff\n      mul\n      not\n      and\n      swap1\n      dup4\n      0xffffffffffffffffffffffffffffffffffffffff\n      and\n      mul\n      or\n      swap1\n      sstore\n      pop\n        /* \"https://github.com/OpenZeppelin/openzeppelin-contracts/blob/master/contracts/access/Ownable.sol\":3083:3091  newOwner */\n      dup2\n        /* \"https://github.com/OpenZeppelin/openzeppelin-contracts/blob/master/contracts/access/Ownable.sol\":3052:3092  OwnershipTransferred(oldOwner, newOwner) */\n      0xffffffffffffffffffffffffffffffffffffffff\n      and\n        /* \"https://github.com/OpenZeppelin/openzeppelin-contracts/blob/master/contracts/access/Ownable.sol\":3073:3081  oldOwner */\n      dup2\n        /* \"https://github.com/OpenZeppelin/openzeppelin-contracts/blob/master/contracts/access/Ownable.sol\":3052:3092  OwnershipTransferred(oldOwner, newOwner) */\n      0xffffffffffffffffffffffffffffffffffffffff\n      and\n      0x8be0079c531659141344cd1fd0a4f28419497f9722a3daafe3b4186f6b6457e0\n      mload(0x40)\n      mload(0x40)\n      dup1\n      swap2\n      sub\n      swap1\n      log3\n        /* \"https://github.com/OpenZeppelin/openzeppelin-contracts/blob/master/contracts/access/Ownable.sol\":2975:3099  {... */\n      pop\n        /* \"https://github.com/OpenZeppelin/openzeppelin-contracts/blob/master/contracts/access/Ownable.sol\":2912:3099  function _transferOwnership(address newOwner) internal virtual {... */\n      pop\n      jump\t// out\n        /* \"https://github.com/OpenZeppelin/openzeppelin-contracts/blob/master/contracts/utils/Context.sol\":656:752  function _msgSender() internal view virtual returns (address) {... */\n    tag_186:\n        /* \"https://github.com/OpenZeppelin/openzeppelin-contracts/blob/master/contracts/utils/Context.sol\":709:716  address */\n      0x00\n        /* \"https://github.com/OpenZeppelin/openzeppelin-contracts/blob/master/contracts/utils/Context.sol\":735:745  msg.sender */\n      caller\n        /* \"https://github.com/OpenZeppelin/openzeppelin-contracts/blob/master/contracts/utils/Context.sol\":728:745  return msg.sender */\n      swap1\n      pop\n        /* \"https://github.com/OpenZeppelin/openzeppelin-contracts/blob/master/contracts/utils/Context.sol\":656:752  function _msgSender() internal view virtual returns (address) {... */\n      swap1\n      jump\t// out\n    tag_115:\n      mload(0x40)\n      dup1\n      0x60\n      add\n      0x40\n      mstore\n      dup1\n      0x00\n      dup2\n      mstore\n      0x20\n      add\n      0x60\n      dup2\n      mstore\n      0x20\n      add\n      0x00\n      dup2\n      mstore\n      pop\n      swap1\n      jump\t// out\n        /* \"#utility.yul\":7:187   */\n    tag_57:\n        /* \"#utility.yul\":55:132   */\n      0x4e487b7100000000000000000000000000000000000000000000000000000000\n        /* \"#utility.yul\":52:53   */\n      0x00\n        /* \"#utility.yul\":45:133   */\n      mstore\n        /* \"#utility.yul\":152:156   */\n      0x21\n        /* \"#utility.yul\":149:150   */\n      0x04\n        /* \"#utility.yul\":142:157   */\n      mstore\n        /* \"#utility.yul\":176:180   */\n      0x24\n        /* \"#utility.yul\":173:174   */\n      0x00\n        /* \"#utility.yul\":166:181   */\n      revert\n        /* \"#utility.yul\":193:315   */\n    tag_193:\n        /* \"#utility.yul\":283:284   */\n      0x04\n        /* \"#utility.yul\":276:281   */\n      dup2\n        /* \"#utility.yul\":273:285   */\n      lt\n        /* \"#utility.yul\":263:309   */\n      tag_263\n      jumpi\n        /* \"#utility.yul\":289:307   */\n      tag_264\n      tag_57\n      jump\t// in\n    tag_264:\n        /* \"#utility.yul\":263:309   */\n    tag_263:\n        /* \"#utility.yul\":193:315   */\n      pop\n      jump\t// out\n        /* \"#utility.yul\":321:466   */\n    tag_194:\n        /* \"#utility.yul\":375:382   */\n      0x00\n        /* \"#utility.yul\":404:409   */\n      dup2\n        /* \"#utility.yul\":393:409   */\n      swap1\n      pop\n        /* \"#utility.yul\":410:460   */\n      tag_266\n        /* \"#utility.yul\":454:459   */\n      dup3\n        /* \"#utility.yul\":410:460   */\n      tag_193\n      jump\t// in\n    tag_266:\n        /* \"#utility.yul\":321:466   */\n      swap2\n      swap1\n      pop\n      jump\t// out\n        /* \"#utility.yul\":472:617   */\n    tag_195:\n        /* \"#utility.yul\":537:546   */\n      0x00\n        /* \"#utility.yul\":570:611   */\n      tag_268\n        /* \"#utility.yul\":605:610   */\n      dup3\n        /* \"#utility.yul\":570:611   */\n      tag_194\n      jump\t// in\n    tag_268:\n        /* \"#utility.yul\":557:611   */\n      swap1\n      pop\n        /* \"#utility.yul\":472:617   */\n      swap2\n      swap1\n      pop\n      jump\t// out\n        /* \"#utility.yul\":623:784   */\n    tag_196:\n        /* \"#utility.yul\":725:777   */\n      tag_270\n        /* \"#utility.yul\":771:776   */\n      dup2\n        /* \"#utility.yul\":725:777   */\n      tag_195\n      jump\t// in\n    tag_270:\n        /* \"#utility.yul\":720:723   */\n      dup3\n        /* \"#utility.yul\":713:778   */\n      mstore\n        /* \"#utility.yul\":623:784   */\n      pop\n      pop\n      jump\t// out\n        /* \"#utility.yul\":790:1042   */\n    tag_17:\n        /* \"#utility.yul\":898:902   */\n      0x00\n        /* \"#utility.yul\":936:938   */\n      0x20\n        /* \"#utility.yul\":925:934   */\n      dup3\n        /* \"#utility.yul\":921:939   */\n      add\n        /* \"#utility.yul\":913:939   */\n      swap1\n      pop\n        /* \"#utility.yul\":949:1035   */\n      tag_272\n        /* \"#utility.yul\":1032:1033   */\n      0x00\n        /* \"#utility.yul\":1021:1030   */\n      dup4\n        /* \"#utility.yul\":1017:1034   */\n      add\n        /* \"#utility.yul\":1008:1014   */\n      dup5\n        /* \"#utility.yul\":949:1035   */\n      tag_196\n      jump\t// in\n    tag_272:\n        /* \"#utility.yul\":790:1042   */\n      swap3\n      swap2\n      pop\n      pop\n      jump\t// out\n        /* \"#utility.yul\":1129:1246   */\n    tag_198:\n        /* \"#utility.yul\":1238:1239   */\n      0x00\n        /* \"#utility.yul\":1235:1236   */\n      dup1\n        /* \"#utility.yul\":1228:1240   */\n      revert\n        /* \"#utility.yul\":1252:1369   */\n    tag_199:\n        /* \"#utility.yul\":1361:1362   */\n      0x00\n        /* \"#utility.yul\":1358:1359   */\n      dup1\n        /* \"#utility.yul\":1351:1363   */\n      revert\n        /* \"#utility.yul\":1375:1492   */\n    tag_200:\n        /* \"#utility.yul\":1484:1485   */\n      0x00\n        /* \"#utility.yul\":1481:1482   */\n      dup1\n        /* \"#utility.yul\":1474:1486   */\n      revert\n        /* \"#utility.yul\":1498:1615   */\n    tag_201:\n        /* \"#utility.yul\":1607:1608   */\n      0x00\n        /* \"#utility.yul\":1604:1605   */\n      dup1\n        /* \"#utility.yul\":1597:1609   */\n      revert\n        /* \"#utility.yul\":1621:1738   */\n    tag_202:\n        /* \"#utility.yul\":1730:1731   */\n      0x00\n        /* \"#utility.yul\":1727:1728   */\n      dup1\n        /* \"#utility.yul\":1720:1732   */\n      revert\n        /* \"#utility.yul\":1758:2311   */\n    tag_203:\n        /* \"#utility.yul\":1816:1824   */\n      0x00\n        /* \"#utility.yul\":1826:1832   */\n      dup1\n        /* \"#utility.yul\":1876:1879   */\n      dup4\n        /* \"#utility.yul\":1869:1873   */\n      0x1f\n        /* \"#utility.yul\":1861:1867   */\n      dup5\n        /* \"#utility.yul\":1857:1874   */\n      add\n        /* \"#utility.yul\":1853:1880   */\n      slt\n        /* \"#utility.yul\":1843:1965   */\n      tag_280\n      jumpi\n        /* \"#utility.yul\":1884:1963   */\n      tag_281\n      tag_200\n      jump\t// in\n    tag_281:\n        /* \"#utility.yul\":1843:1965   */\n    tag_280:\n        /* \"#utility.yul\":1997:2003   */\n      dup3\n        /* \"#utility.yul\":1984:2004   */\n      calldataload\n        /* \"#utility.yul\":1974:2004   */\n      swap1\n      pop\n        /* \"#utility.yul\":2027:2045   */\n      0xffffffffffffffff\n        /* \"#utility.yul\":2019:2025   */\n      dup2\n        /* \"#utility.yul\":2016:2046   */\n      gt\n        /* \"#utility.yul\":2013:2130   */\n      iszero\n      tag_282\n      jumpi\n        /* \"#utility.yul\":2049:2128   */\n      tag_283\n      tag_201\n      jump\t// in\n    tag_283:\n        /* \"#utility.yul\":2013:2130   */\n    tag_282:\n        /* \"#utility.yul\":2163:2167   */\n      0x20\n        /* \"#utility.yul\":2155:2161   */\n      dup4\n        /* \"#utility.yul\":2151:2168   */\n      add\n        /* \"#utility.yul\":2139:2168   */\n      swap2\n      pop\n        /* \"#utility.yul\":2217:2220   */\n      dup4\n        /* \"#utility.yul\":2209:2213   */\n      0x01\n        /* \"#utility.yul\":2201:2207   */\n      dup3\n        /* \"#utility.yul\":2197:2214   */\n      mul\n        /* \"#utility.yul\":2187:2195   */\n      dup4\n        /* \"#utility.yul\":2183:2215   */\n      add\n        /* \"#utility.yul\":2180:2221   */\n      gt\n        /* \"#utility.yul\":2177:2305   */\n      iszero\n      tag_284\n      jumpi\n        /* \"#utility.yul\":2224:2303   */\n      tag_285\n      tag_202\n      jump\t// in\n    tag_285:\n        /* \"#utility.yul\":2177:2305   */\n    tag_284:\n        /* \"#utility.yul\":1758:2311   */\n      swap3\n      pop\n      swap3\n      swap1\n      pop\n      jump\t// out\n        /* \"#utility.yul\":2317:2846   */\n    tag_20:\n        /* \"#utility.yul\":2388:2394   */\n      0x00\n        /* \"#utility.yul\":2396:2402   */\n      dup1\n        /* \"#utility.yul\":2445:2447   */\n      0x20\n        /* \"#utility.yul\":2433:2442   */\n      dup4\n        /* \"#utility.yul\":2424:2431   */\n      dup6\n        /* \"#utility.yul\":2420:2443   */\n      sub\n        /* \"#utility.yul\":2416:2448   */\n      slt\n        /* \"#utility.yul\":2413:2532   */\n      iszero\n      tag_287\n      jumpi\n        /* \"#utility.yul\":2451:2530   */\n      tag_288\n      tag_198\n      jump\t// in\n    tag_288:\n        /* \"#utility.yul\":2413:2532   */\n    tag_287:\n        /* \"#utility.yul\":2599:2600   */\n      0x00\n        /* \"#utility.yul\":2588:2597   */\n      dup4\n        /* \"#utility.yul\":2584:2601   */\n      add\n        /* \"#utility.yul\":2571:2602   */\n      calldataload\n        /* \"#utility.yul\":2629:2647   */\n      0xffffffffffffffff\n        /* \"#utility.yul\":2621:2627   */\n      dup2\n        /* \"#utility.yul\":2618:2648   */\n      gt\n        /* \"#utility.yul\":2615:2732   */\n      iszero\n      tag_289\n      jumpi\n        /* \"#utility.yul\":2651:2730   */\n      tag_290\n      tag_199\n      jump\t// in\n    tag_290:\n        /* \"#utility.yul\":2615:2732   */\n    tag_289:\n        /* \"#utility.yul\":2764:2829   */\n      tag_291\n        /* \"#utility.yul\":2821:2828   */\n      dup6\n        /* \"#utility.yul\":2812:2818   */\n      dup3\n        /* \"#utility.yul\":2801:2810   */\n      dup7\n        /* \"#utility.yul\":2797:2819   */\n      add\n        /* \"#utility.yul\":2764:2829   */\n      tag_203\n      jump\t// in\n    tag_291:\n        /* \"#utility.yul\":2746:2829   */\n      swap3\n      pop\n      swap3\n      pop\n        /* \"#utility.yul\":2542:2839   */\n      pop\n        /* \"#utility.yul\":2317:2846   */\n      swap3\n      pop\n      swap3\n      swap1\n      pop\n      jump\t// out\n        /* \"#utility.yul\":2852:2990   */\n    tag_204:\n        /* \"#utility.yul\":2943:2949   */\n      0x00\n        /* \"#utility.yul\":2977:2982   */\n      dup2\n        /* \"#utility.yul\":2971:2983   */\n      mload\n        /* \"#utility.yul\":2961:2983   */\n      swap1\n      pop\n        /* \"#utility.yul\":2852:2990   */\n      swap2\n      swap1\n      pop\n      jump\t// out\n        /* \"#utility.yul\":2996:3204   */\n    tag_205:\n        /* \"#utility.yul\":3119:3130   */\n      0x00\n        /* \"#utility.yul\":3153:3159   */\n      dup3\n        /* \"#utility.yul\":3148:3151   */\n      dup3\n        /* \"#utility.yul\":3141:3160   */\n      mstore\n        /* \"#utility.yul\":3193:3197   */\n      0x20\n        /* \"#utility.yul\":3188:3191   */\n      dup3\n        /* \"#utility.yul\":3184:3198   */\n      add\n        /* \"#utility.yul\":3169:3198   */\n      swap1\n      pop\n        /* \"#utility.yul\":2996:3204   */\n      swap3\n      swap2\n      pop\n      pop\n      jump\t// out\n        /* \"#utility.yul\":3210:3366   */\n    tag_206:\n        /* \"#utility.yul\":3301:3305   */\n      0x00\n        /* \"#utility.yul\":3324:3327   */\n      dup2\n        /* \"#utility.yul\":3316:3327   */\n      swap1\n      pop\n        /* \"#utility.yul\":3354:3358   */\n      0x20\n        /* \"#utility.yul\":3349:3352   */\n      dup3\n        /* \"#utility.yul\":3345:3359   */\n      add\n        /* \"#utility.yul\":3337:3359   */\n      swap1\n      pop\n        /* \"#utility.yul\":3210:3366   */\n      swap2\n      swap1\n      pop\n      jump\t// out\n        /* \"#utility.yul\":3372:3449   */\n    tag_207:\n        /* \"#utility.yul\":3409:3416   */\n      0x00\n        /* \"#utility.yul\":3438:3443   */\n      dup2\n        /* \"#utility.yul\":3427:3443   */\n      swap1\n      pop\n        /* \"#utility.yul\":3372:3449   */\n      swap2\n      swap1\n      pop\n      jump\t// out\n        /* \"#utility.yul\":3455:3563   */\n    tag_208:\n        /* \"#utility.yul\":3532:3556   */\n      tag_297\n        /* \"#utility.yul\":3550:3555   */\n      dup2\n        /* \"#utility.yul\":3532:3556   */\n      tag_207\n      jump\t// in\n    tag_297:\n        /* \"#utility.yul\":3527:3530   */\n      dup3\n        /* \"#utility.yul\":3520:3557   */\n      mstore\n        /* \"#utility.yul\":3455:3563   */\n      pop\n      pop\n      jump\t// out\n        /* \"#utility.yul\":3569:3668   */\n    tag_209:\n        /* \"#utility.yul\":3621:3627   */\n      0x00\n        /* \"#utility.yul\":3655:3660   */\n      dup2\n        /* \"#utility.yul\":3649:3661   */\n      mload\n        /* \"#utility.yul\":3639:3661   */\n      swap1\n      pop\n        /* \"#utility.yul\":3569:3668   */\n      swap2\n      swap1\n      pop\n      jump\t// out\n        /* \"#utility.yul\":3674:3833   */\n    tag_210:\n        /* \"#utility.yul\":3748:3759   */\n      0x00\n        /* \"#utility.yul\":3782:3788   */\n      dup3\n        /* \"#utility.yul\":3777:3780   */\n      dup3\n        /* \"#utility.yul\":3770:3789   */\n      mstore\n        /* \"#utility.yul\":3822:3826   */\n      0x20\n        /* \"#utility.yul\":3817:3820   */\n      dup3\n        /* \"#utility.yul\":3813:3827   */\n      add\n        /* \"#utility.yul\":3798:3827   */\n      swap1\n      pop\n        /* \"#utility.yul\":3674:3833   */\n      swap3\n      swap2\n      pop\n      pop\n      jump\t// out\n        /* \"#utility.yul\":3839:4085   */\n    tag_211:\n        /* \"#utility.yul\":3920:3921   */\n      0x00\n        /* \"#utility.yul\":3930:4043   */\n    tag_301:\n        /* \"#utility.yul\":3944:3950   */\n      dup4\n        /* \"#utility.yul\":3941:3942   */\n      dup2\n        /* \"#utility.yul\":3938:3951   */\n      lt\n        /* \"#utility.yul\":3930:4043   */\n      iszero\n      tag_303\n      jumpi\n        /* \"#utility.yul\":4029:4030   */\n      dup1\n        /* \"#utility.yul\":4024:4027   */\n      dup3\n        /* \"#utility.yul\":4020:4031   */\n      add\n        /* \"#utility.yul\":4014:4032   */\n      mload\n        /* \"#utility.yul\":4010:4011   */\n      dup2\n        /* \"#utility.yul\":4005:4008   */\n      dup5\n        /* \"#utility.yul\":4001:4012   */\n      add\n        /* \"#utility.yul\":3994:4033   */\n      mstore\n        /* \"#utility.yul\":3966:3968   */\n      0x20\n        /* \"#utility.yul\":3963:3964   */\n      dup2\n        /* \"#utility.yul\":3959:3969   */\n      add\n        /* \"#utility.yul\":3954:3969   */\n      swap1\n      pop\n        /* \"#utility.yul\":3930:4043   */\n      jump(tag_301)\n    tag_303:\n        /* \"#utility.yul\":4077:4078   */\n      0x00\n        /* \"#utility.yul\":4068:4074   */\n      dup5\n        /* \"#utility.yul\":4063:4066   */\n      dup5\n        /* \"#utility.yul\":4059:4075   */\n      add\n        /* \"#utility.yul\":4052:4079   */\n      mstore\n        /* \"#utility.yul\":3901:4085   */\n      pop\n        /* \"#utility.yul\":3839:4085   */\n      pop\n      pop\n      pop\n      jump\t// out\n        /* \"#utility.yul\":4091:4193   */\n    tag_212:\n        /* \"#utility.yul\":4132:4138   */\n      0x00\n        /* \"#utility.yul\":4183:4185   */\n      0x1f\n        /* \"#utility.yul\":4179:4186   */\n      not\n        /* \"#utility.yul\":4174:4176   */\n      0x1f\n        /* \"#utility.yul\":4167:4172   */\n      dup4\n        /* \"#utility.yul\":4163:4177   */\n      add\n        /* \"#utility.yul\":4159:4187   */\n      and\n        /* \"#utility.yul\":4149:4187   */\n      swap1\n      pop\n        /* \"#utility.yul\":4091:4193   */\n      swap2\n      swap1\n      pop\n      jump\t// out\n        /* \"#utility.yul\":4199:4556   */\n    tag_213:\n        /* \"#utility.yul\":4277:4280   */\n      0x00\n        /* \"#utility.yul\":4305:4344   */\n      tag_306\n        /* \"#utility.yul\":4338:4343   */\n      dup3\n        /* \"#utility.yul\":4305:4344   */\n      tag_209\n      jump\t// in\n    tag_306:\n        /* \"#utility.yul\":4360:4421   */\n      tag_307\n        /* \"#utility.yul\":4414:4420   */\n      dup2\n        /* \"#utility.yul\":4409:4412   */\n      dup6\n        /* \"#utility.yul\":4360:4421   */\n      tag_210\n      jump\t// in\n    tag_307:\n        /* \"#utility.yul\":4353:4421   */\n      swap4\n      pop\n        /* \"#utility.yul\":4430:4495   */\n      tag_308\n        /* \"#utility.yul\":4488:4494   */\n      dup2\n        /* \"#utility.yul\":4483:4486   */\n      dup6\n        /* \"#utility.yul\":4476:4480   */\n      0x20\n        /* \"#utility.yul\":4469:4474   */\n      dup7\n        /* \"#utility.yul\":4465:4481   */\n      add\n        /* \"#utility.yul\":4430:4495   */\n      tag_211\n      jump\t// in\n    tag_308:\n        /* \"#utility.yul\":4520:4549   */\n      tag_309\n        /* \"#utility.yul\":4542:4548   */\n      dup2\n        /* \"#utility.yul\":4520:4549   */\n      tag_212\n      jump\t// in\n    tag_309:\n        /* \"#utility.yul\":4515:4518   */\n      dup5\n        /* \"#utility.yul\":4511:4550   */\n      add\n        /* \"#utility.yul\":4504:4550   */\n      swap2\n      pop\n        /* \"#utility.yul\":4281:4556   */\n      pop\n        /* \"#utility.yul\":4199:4556   */\n      swap3\n      swap2\n      pop\n      pop\n      jump\t// out\n        /* \"#utility.yul\":4618:5396   */\n    tag_214:\n        /* \"#utility.yul\":4725:4728   */\n      0x00\n        /* \"#utility.yul\":4761:4765   */\n      0x60\n        /* \"#utility.yul\":4756:4759   */\n      dup4\n        /* \"#utility.yul\":4752:4766   */\n      add\n        /* \"#utility.yul\":4846:4850   */\n      0x00\n        /* \"#utility.yul\":4839:4844   */\n      dup4\n        /* \"#utility.yul\":4835:4851   */\n      add\n        /* \"#utility.yul\":4829:4852   */\n      mload\n        /* \"#utility.yul\":4865:4928   */\n      tag_311\n        /* \"#utility.yul\":4922:4926   */\n      0x00\n        /* \"#utility.yul\":4917:4920   */\n      dup7\n        /* \"#utility.yul\":4913:4927   */\n      add\n        /* \"#utility.yul\":4899:4911   */\n      dup3\n        /* \"#utility.yul\":4865:4928   */\n      tag_208\n      jump\t// in\n    tag_311:\n        /* \"#utility.yul\":4776:4938   */\n      pop\n        /* \"#utility.yul\":5027:5031   */\n      0x20\n        /* \"#utility.yul\":5020:5025   */\n      dup4\n        /* \"#utility.yul\":5016:5032   */\n      add\n        /* \"#utility.yul\":5010:5033   */\n      mload\n        /* \"#utility.yul\":5080:5083   */\n      dup5\n        /* \"#utility.yul\":5074:5078   */\n      dup3\n        /* \"#utility.yul\":5070:5084   */\n      sub\n        /* \"#utility.yul\":5063:5067   */\n      0x20\n        /* \"#utility.yul\":5058:5061   */\n      dup7\n        /* \"#utility.yul\":5054:5068   */\n      add\n        /* \"#utility.yul\":5047:5085   */\n      mstore\n        /* \"#utility.yul\":5106:5179   */\n      tag_312\n        /* \"#utility.yul\":5174:5178   */\n      dup3\n        /* \"#utility.yul\":5160:5172   */\n      dup3\n        /* \"#utility.yul\":5106:5179   */\n      tag_213\n      jump\t// in\n    tag_312:\n        /* \"#utility.yul\":5098:5179   */\n      swap2\n      pop\n        /* \"#utility.yul\":4948:5190   */\n      pop\n        /* \"#utility.yul\":5277:5281   */\n      0x40\n        /* \"#utility.yul\":5270:5275   */\n      dup4\n        /* \"#utility.yul\":5266:5282   */\n      add\n        /* \"#utility.yul\":5260:5283   */\n      mload\n        /* \"#utility.yul\":5296:5359   */\n      tag_313\n        /* \"#utility.yul\":5353:5357   */\n      0x40\n        /* \"#utility.yul\":5348:5351   */\n      dup7\n        /* \"#utility.yul\":5344:5358   */\n      add\n        /* \"#utility.yul\":5330:5342   */\n      dup3\n        /* \"#utility.yul\":5296:5359   */\n      tag_208\n      jump\t// in\n    tag_313:\n        /* \"#utility.yul\":5200:5369   */\n      pop\n        /* \"#utility.yul\":5386:5390   */\n      dup1\n        /* \"#utility.yul\":5379:5390   */\n      swap2\n      pop\n        /* \"#utility.yul\":4730:5396   */\n      pop\n        /* \"#utility.yul\":4618:5396   */\n      swap3\n      swap2\n      pop\n      pop\n      jump\t// out\n        /* \"#utility.yul\":5402:5654   */\n    tag_215:\n        /* \"#utility.yul\":5519:5529   */\n      0x00\n        /* \"#utility.yul\":5554:5648   */\n      tag_315\n        /* \"#utility.yul\":5644:5647   */\n      dup4\n        /* \"#utility.yul\":5636:5642   */\n      dup4\n        /* \"#utility.yul\":5554:5648   */\n      tag_214\n      jump\t// in\n    tag_315:\n        /* \"#utility.yul\":5540:5648   */\n      swap1\n      pop\n        /* \"#utility.yul\":5402:5654   */\n      swap3\n      swap2\n      pop\n      pop\n      jump\t// out\n        /* \"#utility.yul\":5660:5797   */\n    tag_216:\n        /* \"#utility.yul\":5754:5758   */\n      0x00\n        /* \"#utility.yul\":5786:5790   */\n      0x20\n        /* \"#utility.yul\":5781:5784   */\n      dup3\n        /* \"#utility.yul\":5777:5791   */\n      add\n        /* \"#utility.yul\":5769:5791   */\n      swap1\n      pop\n        /* \"#utility.yul\":5660:5797   */\n      swap2\n      swap1\n      pop\n      jump\t// out\n        /* \"#utility.yul\":5863:6966   */\n    tag_217:\n        /* \"#utility.yul\":6030:6033   */\n      0x00\n        /* \"#utility.yul\":6059:6137   */\n      tag_318\n        /* \"#utility.yul\":6131:6136   */\n      dup3\n        /* \"#utility.yul\":6059:6137   */\n      tag_204\n      jump\t// in\n    tag_318:\n        /* \"#utility.yul\":6153:6263   */\n      tag_319\n        /* \"#utility.yul\":6256:6262   */\n      dup2\n        /* \"#utility.yul\":6251:6254   */\n      dup6\n        /* \"#utility.yul\":6153:6263   */\n      tag_205\n      jump\t// in\n    tag_319:\n        /* \"#utility.yul\":6146:6263   */\n      swap4\n      pop\n        /* \"#utility.yul\":6289:6292   */\n      dup4\n        /* \"#utility.yul\":6334:6338   */\n      0x20\n        /* \"#utility.yul\":6326:6332   */\n      dup3\n        /* \"#utility.yul\":6322:6339   */\n      mul\n        /* \"#utility.yul\":6317:6320   */\n      dup6\n        /* \"#utility.yul\":6313:6340   */\n      add\n        /* \"#utility.yul\":6364:6444   */\n      tag_320\n        /* \"#utility.yul\":6438:6443   */\n      dup6\n        /* \"#utility.yul\":6364:6444   */\n      tag_206\n      jump\t// in\n    tag_320:\n        /* \"#utility.yul\":6467:6474   */\n      dup1\n        /* \"#utility.yul\":6498:6499   */\n      0x00\n        /* \"#utility.yul\":6483:6921   */\n    tag_321:\n        /* \"#utility.yul\":6508:6514   */\n      dup6\n        /* \"#utility.yul\":6505:6506   */\n      dup2\n        /* \"#utility.yul\":6502:6515   */\n      lt\n        /* \"#utility.yul\":6483:6921   */\n      iszero\n      tag_323\n      jumpi\n        /* \"#utility.yul\":6579:6588   */\n      dup5\n        /* \"#utility.yul\":6573:6577   */\n      dup5\n        /* \"#utility.yul\":6569:6589   */\n      sub\n        /* \"#utility.yul\":6564:6567   */\n      dup10\n        /* \"#utility.yul\":6557:6590   */\n      mstore\n        /* \"#utility.yul\":6630:6636   */\n      dup2\n        /* \"#utility.yul\":6624:6637   */\n      mload\n        /* \"#utility.yul\":6658:6770   */\n      tag_324\n        /* \"#utility.yul\":6765:6769   */\n      dup6\n        /* \"#utility.yul\":6750:6763   */\n      dup3\n        /* \"#utility.yul\":6658:6770   */\n      tag_215\n      jump\t// in\n    tag_324:\n        /* \"#utility.yul\":6650:6770   */\n      swap5\n      pop\n        /* \"#utility.yul\":6793:6877   */\n      tag_325\n        /* \"#utility.yul\":6870:6876   */\n      dup4\n        /* \"#utility.yul\":6793:6877   */\n      tag_216\n      jump\t// in\n    tag_325:\n        /* \"#utility.yul\":6783:6877   */\n      swap3\n      pop\n        /* \"#utility.yul\":6906:6910   */\n      0x20\n        /* \"#utility.yul\":6901:6904   */\n      dup11\n        /* \"#utility.yul\":6897:6911   */\n      add\n        /* \"#utility.yul\":6890:6911   */\n      swap10\n      pop\n        /* \"#utility.yul\":6543:6921   */\n      pop\n        /* \"#utility.yul\":6530:6531   */\n      0x01\n        /* \"#utility.yul\":6527:6528   */\n      dup2\n        /* \"#utility.yul\":6523:6532   */\n      add\n        /* \"#utility.yul\":6518:6532   */\n      swap1\n      pop\n        /* \"#utility.yul\":6483:6921   */\n      jump(tag_321)\n    tag_323:\n        /* \"#utility.yul\":6487:6501   */\n      pop\n        /* \"#utility.yul\":6937:6941   */\n      dup3\n        /* \"#utility.yul\":6930:6941   */\n      swap8\n      pop\n        /* \"#utility.yul\":6957:6960   */\n      dup8\n        /* \"#utility.yul\":6950:6960   */\n      swap6\n      pop\n        /* \"#utility.yul\":6035:6966   */\n      pop\n      pop\n      pop\n      pop\n      pop\n        /* \"#utility.yul\":5863:6966   */\n      swap3\n      swap2\n      pop\n      pop\n      jump\t// out\n        /* \"#utility.yul\":6972:7441   */\n    tag_25:\n        /* \"#utility.yul\":7163:7167   */\n      0x00\n        /* \"#utility.yul\":7201:7203   */\n      0x20\n        /* \"#utility.yul\":7190:7199   */\n      dup3\n        /* \"#utility.yul\":7186:7204   */\n      add\n        /* \"#utility.yul\":7178:7204   */\n      swap1\n      pop\n        /* \"#utility.yul\":7250:7259   */\n      dup2\n        /* \"#utility.yul\":7244:7248   */\n      dup2\n        /* \"#utility.yul\":7240:7260   */\n      sub\n        /* \"#utility.yul\":7236:7237   */\n      0x00\n        /* \"#utility.yul\":7225:7234   */\n      dup4\n        /* \"#utility.yul\":7221:7238   */\n      add\n        /* \"#utility.yul\":7214:7261   */\n      mstore\n        /* \"#utility.yul\":7278:7434   */\n      tag_327\n        /* \"#utility.yul\":7429:7433   */\n      dup2\n        /* \"#utility.yul\":7420:7426   */\n      dup5\n        /* \"#utility.yul\":7278:7434   */\n      tag_217\n      jump\t// in\n    tag_327:\n        /* \"#utility.yul\":7270:7434   */\n      swap1\n      pop\n        /* \"#utility.yul\":6972:7441   */\n      swap3\n      swap2\n      pop\n      pop\n      jump\t// out\n        /* \"#utility.yul\":7447:7569   */\n    tag_218:\n        /* \"#utility.yul\":7520:7544   */\n      tag_329\n        /* \"#utility.yul\":7538:7543   */\n      dup2\n        /* \"#utility.yul\":7520:7544   */\n      tag_207\n      jump\t// in\n    tag_329:\n        /* \"#utility.yul\":7513:7518   */\n      dup2\n        /* \"#utility.yul\":7510:7545   */\n      eq\n        /* \"#utility.yul\":7500:7563   */\n      tag_330\n      jumpi\n        /* \"#utility.yul\":7559:7560   */\n      0x00\n        /* \"#utility.yul\":7556:7557   */\n      dup1\n        /* \"#utility.yul\":7549:7561   */\n      revert\n        /* \"#utility.yul\":7500:7563   */\n    tag_330:\n        /* \"#utility.yul\":7447:7569   */\n      pop\n      jump\t// out\n        /* \"#utility.yul\":7575:7714   */\n    tag_219:\n        /* \"#utility.yul\":7621:7626   */\n      0x00\n        /* \"#utility.yul\":7659:7665   */\n      dup2\n        /* \"#utility.yul\":7646:7666   */\n      calldataload\n        /* \"#utility.yul\":7637:7666   */\n      swap1\n      pop\n        /* \"#utility.yul\":7675:7708   */\n      tag_332\n        /* \"#utility.yul\":7702:7707   */\n      dup2\n        /* \"#utility.yul\":7675:7708   */\n      tag_218\n      jump\t// in\n    tag_332:\n        /* \"#utility.yul\":7575:7714   */\n      swap3\n      swap2\n      pop\n      pop\n      jump\t// out\n        /* \"#utility.yul\":7720:8049   */\n    tag_30:\n        /* \"#utility.yul\":7779:7785   */\n      0x00\n        /* \"#utility.yul\":7828:7830   */\n      0x20\n        /* \"#utility.yul\":7816:7825   */\n      dup3\n        /* \"#utility.yul\":7807:7814   */\n      dup5\n        /* \"#utility.yul\":7803:7826   */\n      sub\n        /* \"#utility.yul\":7799:7831   */\n      slt\n        /* \"#utility.yul\":7796:7915   */\n      iszero\n      tag_334\n      jumpi\n        /* \"#utility.yul\":7834:7913   */\n      tag_335\n      tag_198\n      jump\t// in\n    tag_335:\n        /* \"#utility.yul\":7796:7915   */\n    tag_334:\n        /* \"#utility.yul\":7954:7955   */\n      0x00\n        /* \"#utility.yul\":7979:8032   */\n      tag_336\n        /* \"#utility.yul\":8024:8031   */\n      dup5\n        /* \"#utility.yul\":8015:8021   */\n      dup3\n        /* \"#utility.yul\":8004:8013   */\n      dup6\n        /* \"#utility.yul\":8000:8022   */\n      add\n        /* \"#utility.yul\":7979:8032   */\n      tag_219\n      jump\t// in\n    tag_336:\n        /* \"#utility.yul\":7969:8032   */\n      swap2\n      pop\n        /* \"#utility.yul\":7925:8042   */\n      pop\n        /* \"#utility.yul\":7720:8049   */\n      swap3\n      swap2\n      pop\n      pop\n      jump\t// out\n        /* \"#utility.yul\":8055:8181   */\n    tag_220:\n        /* \"#utility.yul\":8092:8099   */\n      0x00\n        /* \"#utility.yul\":8132:8174   */\n      0xffffffffffffffffffffffffffffffffffffffff\n        /* \"#utility.yul\":8125:8130   */\n      dup3\n        /* \"#utility.yul\":8121:8175   */\n      and\n        /* \"#utility.yul\":8110:8175   */\n      swap1\n      pop\n        /* \"#utility.yul\":8055:8181   */\n      swap2\n      swap1\n      pop\n      jump\t// out\n        /* \"#utility.yul\":8187:8283   */\n    tag_221:\n        /* \"#utility.yul\":8224:8231   */\n      0x00\n        /* \"#utility.yul\":8253:8277   */\n      tag_339\n        /* \"#utility.yul\":8271:8276   */\n      dup3\n        /* \"#utility.yul\":8253:8277   */\n      tag_220\n      jump\t// in\n    tag_339:\n        /* \"#utility.yul\":8242:8277   */\n      swap1\n      pop\n        /* \"#utility.yul\":8187:8283   */\n      swap2\n      swap1\n      pop\n      jump\t// out\n        /* \"#utility.yul\":8289:8407   */\n    tag_222:\n        /* \"#utility.yul\":8376:8400   */\n      tag_341\n        /* \"#utility.yul\":8394:8399   */\n      dup2\n        /* \"#utility.yul\":8376:8400   */\n      tag_221\n      jump\t// in\n    tag_341:\n        /* \"#utility.yul\":8371:8374   */\n      dup3\n        /* \"#utility.yul\":8364:8401   */\n      mstore\n        /* \"#utility.yul\":8289:8407   */\n      pop\n      pop\n      jump\t// out\n        /* \"#utility.yul\":8413:8635   */\n    tag_35:\n        /* \"#utility.yul\":8506:8510   */\n      0x00\n        /* \"#utility.yul\":8544:8546   */\n      0x20\n        /* \"#utility.yul\":8533:8542   */\n      dup3\n        /* \"#utility.yul\":8529:8547   */\n      add\n        /* \"#utility.yul\":8521:8547   */\n      swap1\n      pop\n        /* \"#utility.yul\":8557:8628   */\n      tag_343\n        /* \"#utility.yul\":8625:8626   */\n      0x00\n        /* \"#utility.yul\":8614:8623   */\n      dup4\n        /* \"#utility.yul\":8610:8627   */\n      add\n        /* \"#utility.yul\":8601:8607   */\n      dup5\n        /* \"#utility.yul\":8557:8628   */\n      tag_222\n      jump\t// in\n    tag_343:\n        /* \"#utility.yul\":8413:8635   */\n      swap3\n      swap2\n      pop\n      pop\n      jump\t// out\n        /* \"#utility.yul\":8697:9485   */\n    tag_223:\n        /* \"#utility.yul\":8814:8817   */\n      0x00\n        /* \"#utility.yul\":8850:8854   */\n      0x60\n        /* \"#utility.yul\":8845:8848   */\n      dup4\n        /* \"#utility.yul\":8841:8855   */\n      add\n        /* \"#utility.yul\":8935:8939   */\n      0x00\n        /* \"#utility.yul\":8928:8933   */\n      dup4\n        /* \"#utility.yul\":8924:8940   */\n      add\n        /* \"#utility.yul\":8918:8941   */\n      mload\n        /* \"#utility.yul\":8954:9017   */\n      tag_345\n        /* \"#utility.yul\":9011:9015   */\n      0x00\n        /* \"#utility.yul\":9006:9009   */\n      dup7\n        /* \"#utility.yul\":9002:9016   */\n      add\n        /* \"#utility.yul\":8988:9000   */\n      dup3\n        /* \"#utility.yul\":8954:9017   */\n      tag_208\n      jump\t// in\n    tag_345:\n        /* \"#utility.yul\":8865:9027   */\n      pop\n        /* \"#utility.yul\":9116:9120   */\n      0x20\n        /* \"#utility.yul\":9109:9114   */\n      dup4\n        /* \"#utility.yul\":9105:9121   */\n      add\n        /* \"#utility.yul\":9099:9122   */\n      mload\n        /* \"#utility.yul\":9169:9172   */\n      dup5\n        /* \"#utility.yul\":9163:9167   */\n      dup3\n        /* \"#utility.yul\":9159:9173   */\n      sub\n        /* \"#utility.yul\":9152:9156   */\n      0x20\n        /* \"#utility.yul\":9147:9150   */\n      dup7\n        /* \"#utility.yul\":9143:9157   */\n      add\n        /* \"#utility.yul\":9136:9174   */\n      mstore\n        /* \"#utility.yul\":9195:9268   */\n      tag_346\n        /* \"#utility.yul\":9263:9267   */\n      dup3\n        /* \"#utility.yul\":9249:9261   */\n      dup3\n        /* \"#utility.yul\":9195:9268   */\n      tag_213\n      jump\t// in\n    tag_346:\n        /* \"#utility.yul\":9187:9268   */\n      swap2\n      pop\n        /* \"#utility.yul\":9037:9279   */\n      pop\n        /* \"#utility.yul\":9366:9370   */\n      0x40\n        /* \"#utility.yul\":9359:9364   */\n      dup4\n        /* \"#utility.yul\":9355:9371   */\n      add\n        /* \"#utility.yul\":9349:9372   */\n      mload\n        /* \"#utility.yul\":9385:9448   */\n      tag_347\n        /* \"#utility.yul\":9442:9446   */\n      0x40\n        /* \"#utility.yul\":9437:9440   */\n      dup7\n        /* \"#utility.yul\":9433:9447   */\n      add\n        /* \"#utility.yul\":9419:9431   */\n      dup3\n        /* \"#utility.yul\":9385:9448   */\n      tag_208\n      jump\t// in\n    tag_347:\n        /* \"#utility.yul\":9289:9458   */\n      pop\n        /* \"#utility.yul\":9475:9479   */\n      dup1\n        /* \"#utility.yul\":9468:9479   */\n      swap2\n      pop\n        /* \"#utility.yul\":8819:9485   */\n      pop\n        /* \"#utility.yul\":8697:9485   */\n      swap3\n      swap2\n      pop\n      pop\n      jump\t// out\n        /* \"#utility.yul\":9491:9860   */\n    tag_39:\n        /* \"#utility.yul\":9632:9636   */\n      0x00\n        /* \"#utility.yul\":9670:9672   */\n      0x20\n        /* \"#utility.yul\":9659:9668   */\n      dup3\n        /* \"#utility.yul\":9655:9673   */\n      add\n        /* \"#utility.yul\":9647:9673   */\n      swap1\n      pop\n        /* \"#utility.yul\":9719:9728   */\n      dup2\n        /* \"#utility.yul\":9713:9717   */\n      dup2\n        /* \"#utility.yul\":9709:9729   */\n      sub\n        /* \"#utility.yul\":9705:9706   */\n      0x00\n        /* \"#utility.yul\":9694:9703   */\n      dup4\n        /* \"#utility.yul\":9690:9707   */\n      add\n        /* \"#utility.yul\":9683:9730   */\n      mstore\n        /* \"#utility.yul\":9747:9853   */\n      tag_349\n        /* \"#utility.yul\":9848:9852   */\n      dup2\n        /* \"#utility.yul\":9839:9845   */\n      dup5\n        /* \"#utility.yul\":9747:9853   */\n      tag_223\n      jump\t// in\n    tag_349:\n        /* \"#utility.yul\":9739:9853   */\n      swap1\n      pop\n        /* \"#utility.yul\":9491:9860   */\n      swap3\n      swap2\n      pop\n      pop\n      jump\t// out\n        /* \"#utility.yul\":9866:9988   */\n    tag_224:\n        /* \"#utility.yul\":9939:9963   */\n      tag_351\n        /* \"#utility.yul\":9957:9962   */\n      dup2\n        /* \"#utility.yul\":9939:9963   */\n      tag_221\n      jump\t// in\n    tag_351:\n        /* \"#utility.yul\":9932:9937   */\n      dup2\n        /* \"#utility.yul\":9929:9964   */\n      eq\n        /* \"#utility.yul\":9919:9982   */\n      tag_352\n      jumpi\n        /* \"#utility.yul\":9978:9979   */\n      0x00\n        /* \"#utility.yul\":9975:9976   */\n      dup1\n        /* \"#utility.yul\":9968:9980   */\n      revert\n        /* \"#utility.yul\":9919:9982   */\n    tag_352:\n        /* \"#utility.yul\":9866:9988   */\n      pop\n      jump\t// out\n        /* \"#utility.yul\":9994:10133   */\n    tag_225:\n        /* \"#utility.yul\":10040:10045   */\n      0x00\n        /* \"#utility.yul\":10078:10084   */\n      dup2\n        /* \"#utility.yul\":10065:10085   */\n      calldataload\n        /* \"#utility.yul\":10056:10085   */\n      swap1\n      pop\n        /* \"#utility.yul\":10094:10127   */\n      tag_354\n        /* \"#utility.yul\":10121:10126   */\n      dup2\n        /* \"#utility.yul\":10094:10127   */\n      tag_224\n      jump\t// in\n    tag_354:\n        /* \"#utility.yul\":9994:10133   */\n      swap3\n      swap2\n      pop\n      pop\n      jump\t// out\n        /* \"#utility.yul\":10139:10468   */\n    tag_42:\n        /* \"#utility.yul\":10198:10204   */\n      0x00\n        /* \"#utility.yul\":10247:10249   */\n      0x20\n        /* \"#utility.yul\":10235:10244   */\n      dup3\n        /* \"#utility.yul\":10226:10233   */\n      dup5\n        /* \"#utility.yul\":10222:10245   */\n      sub\n        /* \"#utility.yul\":10218:10250   */\n      slt\n        /* \"#utility.yul\":10215:10334   */\n      iszero\n      tag_356\n      jumpi\n        /* \"#utility.yul\":10253:10332   */\n      tag_357\n      tag_198\n      jump\t// in\n    tag_357:\n        /* \"#utility.yul\":10215:10334   */\n    tag_356:\n        /* \"#utility.yul\":10373:10374   */\n      0x00\n        /* \"#utility.yul\":10398:10451   */\n      tag_358\n        /* \"#utility.yul\":10443:10450   */\n      dup5\n        /* \"#utility.yul\":10434:10440   */\n      dup3\n        /* \"#utility.yul\":10423:10432   */\n      dup6\n        /* \"#utility.yul\":10419:10441   */\n      add\n        /* \"#utility.yul\":10398:10451   */\n      tag_225\n      jump\t// in\n    tag_358:\n        /* \"#utility.yul\":10388:10451   */\n      swap2\n      pop\n        /* \"#utility.yul\":10344:10461   */\n      pop\n        /* \"#utility.yul\":10139:10468   */\n      swap3\n      swap2\n      pop\n      pop\n      jump\t// out\n        /* \"#utility.yul\":10474:10643   */\n    tag_226:\n        /* \"#utility.yul\":10558:10569   */\n      0x00\n        /* \"#utility.yul\":10592:10598   */\n      dup3\n        /* \"#utility.yul\":10587:10590   */\n      dup3\n        /* \"#utility.yul\":10580:10599   */\n      mstore\n        /* \"#utility.yul\":10632:10636   */\n      0x20\n        /* \"#utility.yul\":10627:10630   */\n      dup3\n        /* \"#utility.yul\":10623:10637   */\n      add\n        /* \"#utility.yul\":10608:10637   */\n      swap1\n      pop\n        /* \"#utility.yul\":10474:10643   */\n      swap3\n      swap2\n      pop\n      pop\n      jump\t// out\n        /* \"#utility.yul\":10649:10825   */\n    tag_227:\n        /* \"#utility.yul\":10789:10817   */\n      0x596f7520617265206e6f7420612076616c696420766f74657221000000000000\n        /* \"#utility.yul\":10785:10786   */\n      0x00\n        /* \"#utility.yul\":10777:10783   */\n      dup3\n        /* \"#utility.yul\":10773:10787   */\n      add\n        /* \"#utility.yul\":10766:10818   */\n      mstore\n        /* \"#utility.yul\":10649:10825   */\n      pop\n      jump\t// out\n        /* \"#utility.yul\":10831:11197   */\n    tag_228:\n        /* \"#utility.yul\":10973:10976   */\n      0x00\n        /* \"#utility.yul\":10994:11061   */\n      tag_362\n        /* \"#utility.yul\":11058:11060   */\n      0x1a\n        /* \"#utility.yul\":11053:11056   */\n      dup4\n        /* \"#utility.yul\":10994:11061   */\n      tag_226\n      jump\t// in\n    tag_362:\n        /* \"#utility.yul\":10987:11061   */\n      swap2\n      pop\n        /* \"#utility.yul\":11070:11163   */\n      tag_363\n        /* \"#utility.yul\":11159:11162   */\n      dup3\n        /* \"#utility.yul\":11070:11163   */\n      tag_227\n      jump\t// in\n    tag_363:\n        /* \"#utility.yul\":11188:11190   */\n      0x20\n        /* \"#utility.yul\":11183:11186   */\n      dup3\n        /* \"#utility.yul\":11179:11191   */\n      add\n        /* \"#utility.yul\":11172:11191   */\n      swap1\n      pop\n        /* \"#utility.yul\":10831:11197   */\n      swap2\n      swap1\n      pop\n      jump\t// out\n        /* \"#utility.yul\":11203:11622   */\n    tag_53:\n        /* \"#utility.yul\":11369:11373   */\n      0x00\n        /* \"#utility.yul\":11407:11409   */\n      0x20\n        /* \"#utility.yul\":11396:11405   */\n      dup3\n        /* \"#utility.yul\":11392:11410   */\n      add\n        /* \"#utility.yul\":11384:11410   */\n      swap1\n      pop\n        /* \"#utility.yul\":11456:11465   */\n      dup2\n        /* \"#utility.yul\":11450:11454   */\n      dup2\n        /* \"#utility.yul\":11446:11466   */\n      sub\n        /* \"#utility.yul\":11442:11443   */\n      0x00\n        /* \"#utility.yul\":11431:11440   */\n      dup4\n        /* \"#utility.yul\":11427:11444   */\n      add\n        /* \"#utility.yul\":11420:11467   */\n      mstore\n        /* \"#utility.yul\":11484:11615   */\n      tag_365\n        /* \"#utility.yul\":11610:11614   */\n      dup2\n        /* \"#utility.yul\":11484:11615   */\n      tag_228\n      jump\t// in\n    tag_365:\n        /* \"#utility.yul\":11476:11615   */\n      swap1\n      pop\n        /* \"#utility.yul\":11203:11622   */\n      swap2\n      swap1\n      pop\n      jump\t// out\n        /* \"#utility.yul\":11628:11808   */\n    tag_229:\n        /* \"#utility.yul\":11768:11800   */\n      0x596f752063616e6e6f742072656769737465722070726f706f73616c732e0000\n        /* \"#utility.yul\":11764:11765   */\n      0x00\n        /* \"#utility.yul\":11756:11762   */\n      dup3\n        /* \"#utility.yul\":11752:11766   */\n      add\n        /* \"#utility.yul\":11745:11801   */\n      mstore\n        /* \"#utility.yul\":11628:11808   */\n      pop\n      jump\t// out\n        /* \"#utility.yul\":11814:12180   */\n    tag_230:\n        /* \"#utility.yul\":11956:11959   */\n      0x00\n        /* \"#utility.yul\":11977:12044   */\n      tag_368\n        /* \"#utility.yul\":12041:12043   */\n      0x1e\n        /* \"#utility.yul\":12036:12039   */\n      dup4\n        /* \"#utility.yul\":11977:12044   */\n      tag_226\n      jump\t// in\n    tag_368:\n        /* \"#utility.yul\":11970:12044   */\n      swap2\n      pop\n        /* \"#utility.yul\":12053:12146   */\n      tag_369\n        /* \"#utility.yul\":12142:12145   */\n      dup3\n        /* \"#utility.yul\":12053:12146   */\n      tag_229\n      jump\t// in\n    tag_369:\n        /* \"#utility.yul\":12171:12173   */\n      0x20\n        /* \"#utility.yul\":12166:12169   */\n      dup3\n        /* \"#utility.yul\":12162:12174   */\n      add\n        /* \"#utility.yul\":12155:12174   */\n      swap1\n      pop\n        /* \"#utility.yul\":11814:12180   */\n      swap2\n      swap1\n      pop\n      jump\t// out\n        /* \"#utility.yul\":12186:12605   */\n    tag_62:\n        /* \"#utility.yul\":12352:12356   */\n      0x00\n        /* \"#utility.yul\":12390:12392   */\n      0x20\n        /* \"#utility.yul\":12379:12388   */\n      dup3\n        /* \"#utility.yul\":12375:12393   */\n      add\n        /* \"#utility.yul\":12367:12393   */\n      swap1\n      pop\n        /* \"#utility.yul\":12439:12448   */\n      dup2\n        /* \"#utility.yul\":12433:12437   */\n      dup2\n        /* \"#utility.yul\":12429:12449   */\n      sub\n        /* \"#utility.yul\":12425:12426   */\n      0x00\n        /* \"#utility.yul\":12414:12423   */\n      dup4\n        /* \"#utility.yul\":12410:12427   */\n      add\n        /* \"#utility.yul\":12403:12450   */\n      mstore\n        /* \"#utility.yul\":12467:12598   */\n      tag_371\n        /* \"#utility.yul\":12593:12597   */\n      dup2\n        /* \"#utility.yul\":12467:12598   */\n      tag_230\n      jump\t// in\n    tag_371:\n        /* \"#utility.yul\":12459:12598   */\n      swap1\n      pop\n        /* \"#utility.yul\":12186:12605   */\n      swap2\n      swap1\n      pop\n      jump\t// out\n        /* \"#utility.yul\":12611:12791   */\n    tag_231:\n        /* \"#utility.yul\":12659:12736   */\n      0x4e487b7100000000000000000000000000000000000000000000000000000000\n        /* \"#utility.yul\":12656:12657   */\n      0x00\n        /* \"#utility.yul\":12649:12737   */\n      mstore\n        /* \"#utility.yul\":12756:12760   */\n      0x41\n        /* \"#utility.yul\":12753:12754   */\n      0x04\n        /* \"#utility.yul\":12746:12761   */\n      mstore\n        /* \"#utility.yul\":12780:12784   */\n      0x24\n        /* \"#utility.yul\":12777:12778   */\n      0x00\n        /* \"#utility.yul\":12770:12785   */\n      revert\n        /* \"#utility.yul\":12797:12977   */\n    tag_232:\n        /* \"#utility.yul\":12845:12922   */\n      0x4e487b7100000000000000000000000000000000000000000000000000000000\n        /* \"#utility.yul\":12842:12843   */\n      0x00\n        /* \"#utility.yul\":12835:12923   */\n      mstore\n        /* \"#utility.yul\":12942:12946   */\n      0x22\n        /* \"#utility.yul\":12939:12940   */\n      0x04\n        /* \"#utility.yul\":12932:12947   */\n      mstore\n        /* \"#utility.yul\":12966:12970   */\n      0x24\n        /* \"#utility.yul\":12963:12964   */\n      0x00\n        /* \"#utility.yul\":12956:12971   */\n      revert\n        /* \"#utility.yul\":12983:13303   */\n    tag_76:\n        /* \"#utility.yul\":13027:13033   */\n      0x00\n        /* \"#utility.yul\":13064:13065   */\n      0x02\n        /* \"#utility.yul\":13058:13062   */\n      dup3\n        /* \"#utility.yul\":13054:13066   */\n      div\n        /* \"#utility.yul\":13044:13066   */\n      swap1\n      pop\n        /* \"#utility.yul\":13111:13112   */\n      0x01\n        /* \"#utility.yul\":13105:13109   */\n      dup3\n        /* \"#utility.yul\":13101:13113   */\n      and\n        /* \"#utility.yul\":13132:13150   */\n      dup1\n        /* \"#utility.yul\":13122:13203   */\n      tag_375\n      jumpi\n        /* \"#utility.yul\":13188:13192   */\n      0x7f\n        /* \"#utility.yul\":13180:13186   */\n      dup3\n        /* \"#utility.yul\":13176:13193   */\n      and\n        /* \"#utility.yul\":13166:13193   */\n      swap2\n      pop\n        /* \"#utility.yul\":13122:13203   */\n    tag_375:\n        /* \"#utility.yul\":13250:13252   */\n      0x20\n        /* \"#utility.yul\":13242:13248   */\n      dup3\n        /* \"#utility.yul\":13239:13253   */\n      lt\n        /* \"#utility.yul\":13219:13237   */\n      dup2\n        /* \"#utility.yul\":13216:13254   */\n      sub\n        /* \"#utility.yul\":13213:13297   */\n      tag_376\n      jumpi\n        /* \"#utility.yul\":13269:13287   */\n      tag_377\n      tag_232\n      jump\t// in\n    tag_377:\n        /* \"#utility.yul\":13213:13297   */\n    tag_376:\n        /* \"#utility.yul\":13034:13303   */\n      pop\n        /* \"#utility.yul\":12983:13303   */\n      swap2\n      swap1\n      pop\n      jump\t// out\n        /* \"#utility.yul\":13309:13450   */\n    tag_233:\n        /* \"#utility.yul\":13358:13362   */\n      0x00\n        /* \"#utility.yul\":13381:13384   */\n      dup2\n        /* \"#utility.yul\":13373:13384   */\n      swap1\n      pop\n        /* \"#utility.yul\":13404:13407   */\n      dup2\n        /* \"#utility.yul\":13401:13402   */\n      0x00\n        /* \"#utility.yul\":13394:13408   */\n      mstore\n        /* \"#utility.yul\":13438:13442   */\n      0x20\n        /* \"#utility.yul\":13435:13436   */\n      0x00\n        /* \"#utility.yul\":13425:13443   */\n      keccak256\n        /* \"#utility.yul\":13417:13443   */\n      swap1\n      pop\n        /* \"#utility.yul\":13309:13450   */\n      swap2\n      swap1\n      pop\n      jump\t// out\n        /* \"#utility.yul\":13456:13549   */\n    tag_234:\n        /* \"#utility.yul\":13493:13499   */\n      0x00\n        /* \"#utility.yul\":13540:13542   */\n      0x20\n        /* \"#utility.yul\":13535:13537   */\n      0x1f\n        /* \"#utility.yul\":13528:13533   */\n      dup4\n        /* \"#utility.yul\":13524:13538   */\n      add\n        /* \"#utility.yul\":13520:13543   */\n      div\n        /* \"#utility.yul\":13510:13543   */\n      swap1\n      pop\n        /* \"#utility.yul\":13456:13549   */\n      swap2\n      swap1\n      pop\n      jump\t// out\n        /* \"#utility.yul\":13555:13662   */\n    tag_235:\n        /* \"#utility.yul\":13599:13607   */\n      0x00\n        /* \"#utility.yul\":13649:13654   */\n      dup3\n        /* \"#utility.yul\":13643:13647   */\n      dup3\n        /* \"#utility.yul\":13639:13655   */\n      shl\n        /* \"#utility.yul\":13618:13655   */\n      swap1\n      pop\n        /* \"#utility.yul\":13555:13662   */\n      swap3\n      swap2\n      pop\n      pop\n      jump\t// out\n        /* \"#utility.yul\":13668:14061   */\n    tag_236:\n        /* \"#utility.yul\":13737:13743   */\n      0x00\n        /* \"#utility.yul\":13787:13788   */\n      0x08\n        /* \"#utility.yul\":13775:13785   */\n      dup4\n        /* \"#utility.yul\":13771:13789   */\n      mul\n        /* \"#utility.yul\":13810:13907   */\n      tag_382\n        /* \"#utility.yul\":13840:13906   */\n      0xffffffffffffffffffffffffffffffffffffffffffffffffffffffffffffffff\n        /* \"#utility.yul\":13829:13838   */\n      dup3\n        /* \"#utility.yul\":13810:13907   */\n      tag_235\n      jump\t// in\n    tag_382:\n        /* \"#utility.yul\":13928:13967   */\n      tag_383\n        /* \"#utility.yul\":13958:13966   */\n      dup7\n        /* \"#utility.yul\":13947:13956   */\n      dup4\n        /* \"#utility.yul\":13928:13967   */\n      tag_235\n      jump\t// in\n    tag_383:\n        /* \"#utility.yul\":13916:13967   */\n      swap6\n      pop\n        /* \"#utility.yul\":14000:14004   */\n      dup1\n        /* \"#utility.yul\":13996:14005   */\n      not\n        /* \"#utility.yul\":13989:13994   */\n      dup5\n        /* \"#utility.yul\":13985:14006   */\n      and\n        /* \"#utility.yul\":13976:14006   */\n      swap4\n      pop\n        /* \"#utility.yul\":14049:14053   */\n      dup1\n        /* \"#utility.yul\":14039:14047   */\n      dup7\n        /* \"#utility.yul\":14035:14054   */\n      and\n        /* \"#utility.yul\":14028:14033   */\n      dup5\n        /* \"#utility.yul\":14025:14055   */\n      or\n        /* \"#utility.yul\":14015:14055   */\n      swap3\n      pop\n        /* \"#utility.yul\":13744:14061   */\n      pop\n      pop\n        /* \"#utility.yul\":13668:14061   */\n      swap4\n      swap3\n      pop\n      pop\n      pop\n      jump\t// out\n        /* \"#utility.yul\":14067:14127   */\n    tag_237:\n        /* \"#utility.yul\":14095:14098   */\n      0x00\n        /* \"#utility.yul\":14116:14121   */\n      dup2\n        /* \"#utility.yul\":14109:14121   */\n      swap1\n      pop\n        /* \"#utility.yul\":14067:14127   */\n      swap2\n      swap1\n      pop\n      jump\t// out\n        /* \"#utility.yul\":14133:14275   */\n    tag_238:\n        /* \"#utility.yul\":14183:14192   */\n      0x00\n        /* \"#utility.yul\":14216:14269   */\n      tag_386\n        /* \"#utility.yul\":14234:14268   */\n      tag_387\n        /* \"#utility.yul\":14243:14267   */\n      tag_388\n        /* \"#utility.yul\":14261:14266   */\n      dup5\n        /* \"#utility.yul\":14243:14267   */\n      tag_207\n      jump\t// in\n    tag_388:\n        /* \"#utility.yul\":14234:14268   */\n      tag_237\n      jump\t// in\n    tag_387:\n        /* \"#utility.yul\":14216:14269   */\n      tag_207\n      jump\t// in\n    tag_386:\n        /* \"#utility.yul\":14203:14269   */\n      swap1\n      pop\n        /* \"#utility.yul\":14133:14275   */\n      swap2\n      swap1\n      pop\n      jump\t// out\n        /* \"#utility.yul\":14281:14356   */\n    tag_239:\n        /* \"#utility.yul\":14324:14327   */\n      0x00\n        /* \"#utility.yul\":14345:14350   */\n      dup2\n        /* \"#utility.yul\":14338:14350   */\n      swap1\n      pop\n        /* \"#utility.yul\":14281:14356   */\n      swap2\n      swap1\n      pop\n      jump\t// out\n        /* \"#utility.yul\":14362:14631   */\n    tag_240:\n        /* \"#utility.yul\":14472:14511   */\n      tag_391\n        /* \"#utility.yul\":14503:14510   */\n      dup4\n        /* \"#utility.yul\":14472:14511   */\n      tag_238\n      jump\t// in\n    tag_391:\n        /* \"#utility.yul\":14533:14624   */\n      tag_392\n        /* \"#utility.yul\":14582:14623   */\n      tag_393\n        /* \"#utility.yul\":14606:14622   */\n      dup3\n        /* \"#utility.yul\":14582:14623   */\n      tag_239\n      jump\t// in\n    tag_393:\n        /* \"#utility.yul\":14574:14580   */\n      dup5\n        /* \"#utility.yul\":14567:14571   */\n      dup5\n        /* \"#utility.yul\":14561:14572   */\n      sload\n        /* \"#utility.yul\":14533:14624   */\n      tag_236\n      jump\t// in\n    tag_392:\n        /* \"#utility.yul\":14527:14531   */\n      dup3\n        /* \"#utility.yul\":14520:14625   */\n      sstore\n        /* \"#utility.yul\":14438:14631   */\n      pop\n        /* \"#utility.yul\":14362:14631   */\n      pop\n      pop\n      pop\n      jump\t// out\n        /* \"#utility.yul\":14637:14710   */\n    tag_241:\n        /* \"#utility.yul\":14682:14685   */\n      0x00\n        /* \"#utility.yul\":14637:14710   */\n      swap1\n      jump\t// out\n        /* \"#utility.yul\":14716:14905   */\n    tag_242:\n        /* \"#utility.yul\":14793:14825   */\n      tag_396\n      tag_241\n      jump\t// in\n    tag_396:\n        /* \"#utility.yul\":14834:14899   */\n      tag_397\n        /* \"#utility.yul\":14892:14898   */\n      dup2\n        /* \"#utility.yul\":14884:14890   */\n      dup5\n        /* \"#utility.yul\":14878:14882   */\n      dup5\n        /* \"#utility.yul\":14834:14899   */\n      tag_240\n      jump\t// in\n    tag_397:\n        /* \"#utility.yul\":14769:14905   */\n      pop\n        /* \"#utility.yul\":14716:14905   */\n      pop\n      pop\n      jump\t// out\n        /* \"#utility.yul\":14911:15097   */\n    tag_243:\n        /* \"#utility.yul\":14971:15091   */\n    tag_399:\n        /* \"#utility.yul\":14988:14991   */\n      dup2\n        /* \"#utility.yul\":14981:14986   */\n      dup2\n        /* \"#utility.yul\":14978:14992   */\n      lt\n        /* \"#utility.yul\":14971:15091   */\n      iszero\n      tag_401\n      jumpi\n        /* \"#utility.yul\":15042:15081   */\n      tag_402\n        /* \"#utility.yul\":15079:15080   */\n      0x00\n        /* \"#utility.yul\":15072:15077   */\n      dup3\n        /* \"#utility.yul\":15042:15081   */\n      tag_242\n      jump\t// in\n    tag_402:\n        /* \"#utility.yul\":15015:15016   */\n      0x01\n        /* \"#utility.yul\":15008:15013   */\n      dup2\n        /* \"#utility.yul\":15004:15017   */\n      add\n        /* \"#utility.yul\":14995:15017   */\n      swap1\n      pop\n        /* \"#utility.yul\":14971:15091   */\n      jump(tag_399)\n    tag_401:\n        /* \"#utility.yul\":14911:15097   */\n      pop\n      pop\n      jump\t// out\n        /* \"#utility.yul\":15103:15646   */\n    tag_244:\n        /* \"#utility.yul\":15204:15206   */\n      0x1f\n        /* \"#utility.yul\":15199:15202   */\n      dup3\n        /* \"#utility.yul\":15196:15207   */\n      gt\n        /* \"#utility.yul\":15193:15639   */\n      iszero\n      tag_404\n      jumpi\n        /* \"#utility.yul\":15238:15276   */\n      tag_405\n        /* \"#utility.yul\":15270:15275   */\n      dup2\n        /* \"#utility.yul\":15238:15276   */\n      tag_233\n      jump\t// in\n    tag_405:\n        /* \"#utility.yul\":15322:15351   */\n      tag_406\n        /* \"#utility.yul\":15340:15350   */\n      dup5\n        /* \"#utility.yul\":15322:15351   */\n      tag_234\n      jump\t// in\n    tag_406:\n        /* \"#utility.yul\":15312:15320   */\n      dup2\n        /* \"#utility.yul\":15308:15352   */\n      add\n        /* \"#utility.yul\":15505:15507   */\n      0x20\n        /* \"#utility.yul\":15493:15503   */\n      dup6\n        /* \"#utility.yul\":15490:15508   */\n      lt\n        /* \"#utility.yul\":15487:15536   */\n      iszero\n      tag_407\n      jumpi\n        /* \"#utility.yul\":15526:15534   */\n      dup2\n        /* \"#utility.yul\":15511:15534   */\n      swap1\n      pop\n        /* \"#utility.yul\":15487:15536   */\n    tag_407:\n        /* \"#utility.yul\":15549:15629   */\n      tag_408\n        /* \"#utility.yul\":15605:15627   */\n      tag_409\n        /* \"#utility.yul\":15623:15626   */\n      dup6\n        /* \"#utility.yul\":15605:15627   */\n      tag_234\n      jump\t// in\n    tag_409:\n        /* \"#utility.yul\":15595:15603   */\n      dup4\n        /* \"#utility.yul\":15591:15628   */\n      add\n        /* \"#utility.yul\":15578:15589   */\n      dup3\n        /* \"#utility.yul\":15549:15629   */\n      tag_243\n      jump\t// in\n    tag_408:\n        /* \"#utility.yul\":15208:15639   */\n      pop\n      pop\n        /* \"#utility.yul\":15193:15639   */\n    tag_404:\n        /* \"#utility.yul\":15103:15646   */\n      pop\n      pop\n      pop\n      jump\t// out\n        /* \"#utility.yul\":15652:15769   */\n    tag_245:\n        /* \"#utility.yul\":15706:15714   */\n      0x00\n        /* \"#utility.yul\":15756:15761   */\n      dup3\n        /* \"#utility.yul\":15750:15754   */\n      dup3\n        /* \"#utility.yul\":15746:15762   */\n      shr\n        /* \"#utility.yul\":15725:15762   */\n      swap1\n      pop\n        /* \"#utility.yul\":15652:15769   */\n      swap3\n      swap2\n      pop\n      pop\n      jump\t// out\n        /* \"#utility.yul\":15775:15944   */\n    tag_246:\n        /* \"#utility.yul\":15819:15825   */\n      0x00\n        /* \"#utility.yul\":15852:15903   */\n      tag_412\n        /* \"#utility.yul\":15900:15901   */\n      0x00\n        /* \"#utility.yul\":15896:15902   */\n      not\n        /* \"#utility.yul\":15888:15893   */\n      dup5\n        /* \"#utility.yul\":15885:15886   */\n      0x08\n        /* \"#utility.yul\":15881:15894   */\n      mul\n        /* \"#utility.yul\":15852:15903   */\n      tag_245\n      jump\t// in\n    tag_412:\n        /* \"#utility.yul\":15848:15904   */\n      not\n        /* \"#utility.yul\":15933:15937   */\n      dup1\n        /* \"#utility.yul\":15927:15931   */\n      dup4\n        /* \"#utility.yul\":15923:15938   */\n      and\n        /* \"#utility.yul\":15913:15938   */\n      swap2\n      pop\n        /* \"#utility.yul\":15826:15944   */\n      pop\n        /* \"#utility.yul\":15775:15944   */\n      swap3\n      swap2\n      pop\n      pop\n      jump\t// out\n        /* \"#utility.yul\":15949:16244   */\n    tag_247:\n        /* \"#utility.yul\":16025:16029   */\n      0x00\n        /* \"#utility.yul\":16171:16200   */\n      tag_414\n        /* \"#utility.yul\":16196:16199   */\n      dup4\n        /* \"#utility.yul\":16190:16194   */\n      dup4\n        /* \"#utility.yul\":16171:16200   */\n      tag_246\n      jump\t// in\n    tag_414:\n        /* \"#utility.yul\":16163:16200   */\n      swap2\n      pop\n        /* \"#utility.yul\":16233:16236   */\n      dup3\n        /* \"#utility.yul\":16230:16231   */\n      0x02\n        /* \"#utility.yul\":16226:16237   */\n      mul\n        /* \"#utility.yul\":16220:16224   */\n      dup3\n        /* \"#utility.yul\":16217:16238   */\n      or\n        /* \"#utility.yul\":16209:16238   */\n      swap1\n      pop\n        /* \"#utility.yul\":15949:16244   */\n      swap3\n      swap2\n      pop\n      pop\n      jump\t// out\n        /* \"#utility.yul\":16249:17644   */\n    tag_66:\n        /* \"#utility.yul\":16366:16403   */\n      tag_416\n        /* \"#utility.yul\":16399:16402   */\n      dup3\n        /* \"#utility.yul\":16366:16403   */\n      tag_209\n      jump\t// in\n    tag_416:\n        /* \"#utility.yul\":16468:16486   */\n      0xffffffffffffffff\n        /* \"#utility.yul\":16460:16466   */\n      dup2\n        /* \"#utility.yul\":16457:16487   */\n      gt\n        /* \"#utility.yul\":16454:16510   */\n      iszero\n      tag_417\n      jumpi\n        /* \"#utility.yul\":16490:16508   */\n      tag_418\n      tag_231\n      jump\t// in\n    tag_418:\n        /* \"#utility.yul\":16454:16510   */\n    tag_417:\n        /* \"#utility.yul\":16534:16572   */\n      tag_419\n        /* \"#utility.yul\":16566:16570   */\n      dup3\n        /* \"#utility.yul\":16560:16571   */\n      sload\n        /* \"#utility.yul\":16534:16572   */\n      tag_76\n      jump\t// in\n    tag_419:\n        /* \"#utility.yul\":16619:16686   */\n      tag_420\n        /* \"#utility.yul\":16679:16685   */\n      dup3\n        /* \"#utility.yul\":16671:16677   */\n      dup3\n        /* \"#utility.yul\":16665:16669   */\n      dup6\n        /* \"#utility.yul\":16619:16686   */\n      tag_244\n      jump\t// in\n    tag_420:\n        /* \"#utility.yul\":16713:16714   */\n      0x00\n        /* \"#utility.yul\":16737:16741   */\n      0x20\n        /* \"#utility.yul\":16724:16741   */\n      swap1\n      pop\n        /* \"#utility.yul\":16769:16771   */\n      0x1f\n        /* \"#utility.yul\":16761:16767   */\n      dup4\n        /* \"#utility.yul\":16758:16772   */\n      gt\n        /* \"#utility.yul\":16786:16787   */\n      0x01\n        /* \"#utility.yul\":16781:17399   */\n      dup2\n      eq\n      tag_422\n      jumpi\n        /* \"#utility.yul\":17443:17444   */\n      0x00\n        /* \"#utility.yul\":17460:17466   */\n      dup5\n        /* \"#utility.yul\":17457:17534   */\n      iszero\n      tag_423\n      jumpi\n        /* \"#utility.yul\":17509:17518   */\n      dup3\n        /* \"#utility.yul\":17504:17507   */\n      dup8\n        /* \"#utility.yul\":17500:17519   */\n      add\n        /* \"#utility.yul\":17494:17520   */\n      mload\n        /* \"#utility.yul\":17485:17520   */\n      swap1\n      pop\n        /* \"#utility.yul\":17457:17534   */\n    tag_423:\n        /* \"#utility.yul\":17560:17627   */\n      tag_424\n        /* \"#utility.yul\":17620:17626   */\n      dup6\n        /* \"#utility.yul\":17613:17618   */\n      dup3\n        /* \"#utility.yul\":17560:17627   */\n      tag_247\n      jump\t// in\n    tag_424:\n        /* \"#utility.yul\":17554:17558   */\n      dup7\n        /* \"#utility.yul\":17547:17628   */\n      sstore\n        /* \"#utility.yul\":17416:17638   */\n      pop\n        /* \"#utility.yul\":16751:17638   */\n      jump(tag_421)\n        /* \"#utility.yul\":16781:17399   */\n    tag_422:\n        /* \"#utility.yul\":16833:16837   */\n      0x1f\n        /* \"#utility.yul\":16829:16838   */\n      not\n        /* \"#utility.yul\":16821:16827   */\n      dup5\n        /* \"#utility.yul\":16817:16839   */\n      and\n        /* \"#utility.yul\":16867:16904   */\n      tag_425\n        /* \"#utility.yul\":16899:16903   */\n      dup7\n        /* \"#utility.yul\":16867:16904   */\n      tag_233\n      jump\t// in\n    tag_425:\n        /* \"#utility.yul\":16926:16927   */\n      0x00\n        /* \"#utility.yul\":16940:17148   */\n    tag_426:\n        /* \"#utility.yul\":16954:16961   */\n      dup3\n        /* \"#utility.yul\":16951:16952   */\n      dup2\n        /* \"#utility.yul\":16948:16962   */\n      lt\n        /* \"#utility.yul\":16940:17148   */\n      iszero\n      tag_428\n      jumpi\n        /* \"#utility.yul\":17033:17042   */\n      dup5\n        /* \"#utility.yul\":17028:17031   */\n      dup10\n        /* \"#utility.yul\":17024:17043   */\n      add\n        /* \"#utility.yul\":17018:17044   */\n      mload\n        /* \"#utility.yul\":17010:17016   */\n      dup3\n        /* \"#utility.yul\":17003:17045   */\n      sstore\n        /* \"#utility.yul\":17084:17085   */\n      0x01\n        /* \"#utility.yul\":17076:17082   */\n      dup3\n        /* \"#utility.yul\":17072:17086   */\n      add\n        /* \"#utility.yul\":17062:17086   */\n      swap2\n      pop\n        /* \"#utility.yul\":17131:17133   */\n      0x20\n        /* \"#utility.yul\":17120:17129   */\n      dup6\n        /* \"#utility.yul\":17116:17134   */\n      add\n        /* \"#utility.yul\":17103:17134   */\n      swap5\n      pop\n        /* \"#utility.yul\":16977:16981   */\n      0x20\n        /* \"#utility.yul\":16974:16975   */\n      dup2\n        /* \"#utility.yul\":16970:16982   */\n      add\n        /* \"#utility.yul\":16965:16982   */\n      swap1\n      pop\n        /* \"#utility.yul\":16940:17148   */\n      jump(tag_426)\n    tag_428:\n        /* \"#utility.yul\":17176:17182   */\n      dup7\n        /* \"#utility.yul\":17167:17174   */\n      dup4\n        /* \"#utility.yul\":17164:17183   */\n      lt\n        /* \"#utility.yul\":17161:17340   */\n      iszero\n      tag_429\n      jumpi\n        /* \"#utility.yul\":17234:17243   */\n      dup5\n        /* \"#utility.yul\":17229:17232   */\n      dup10\n        /* \"#utility.yul\":17225:17244   */\n      add\n        /* \"#utility.yul\":17219:17245   */\n      mload\n        /* \"#utility.yul\":17277:17325   */\n      tag_430\n        /* \"#utility.yul\":17319:17323   */\n      0x1f\n        /* \"#utility.yul\":17311:17317   */\n      dup10\n        /* \"#utility.yul\":17307:17324   */\n      and\n        /* \"#utility.yul\":17296:17305   */\n      dup3\n        /* \"#utility.yul\":17277:17325   */\n      tag_246\n      jump\t// in\n    tag_430:\n        /* \"#utility.yul\":17269:17275   */\n      dup4\n        /* \"#utility.yul\":17262:17326   */\n      sstore\n        /* \"#utility.yul\":17184:17340   */\n      pop\n        /* \"#utility.yul\":17161:17340   */\n    tag_429:\n        /* \"#utility.yul\":17386:17387   */\n      0x01\n        /* \"#utility.yul\":17382:17383   */\n      0x02\n        /* \"#utility.yul\":17374:17380   */\n      dup9\n        /* \"#utility.yul\":17370:17384   */\n      mul\n        /* \"#utility.yul\":17366:17388   */\n      add\n        /* \"#utility.yul\":17360:17364   */\n      dup9\n        /* \"#utility.yul\":17353:17389   */\n      sstore\n        /* \"#utility.yul\":16788:17399   */\n      pop\n      pop\n      pop\n        /* \"#utility.yul\":16751:17638   */\n    tag_421:\n      pop\n        /* \"#utility.yul\":16341:17644   */\n      pop\n      pop\n      pop\n        /* \"#utility.yul\":16249:17644   */\n      pop\n      pop\n      jump\t// out\n        /* \"#utility.yul\":17650:17830   */\n    tag_248:\n        /* \"#utility.yul\":17698:17775   */\n      0x4e487b7100000000000000000000000000000000000000000000000000000000\n        /* \"#utility.yul\":17695:17696   */\n      0x00\n        /* \"#utility.yul\":17688:17776   */\n      mstore\n        /* \"#utility.yul\":17795:17799   */\n      0x11\n        /* \"#utility.yul\":17792:17793   */\n      0x04\n        /* \"#utility.yul\":17785:17800   */\n      mstore\n        /* \"#utility.yul\":17819:17823   */\n      0x24\n        /* \"#utility.yul\":17816:17817   */\n      0x00\n        /* \"#utility.yul\":17809:17824   */\n      revert\n        /* \"#utility.yul\":17836:18069   */\n    tag_68:\n        /* \"#utility.yul\":17875:17878   */\n      0x00\n        /* \"#utility.yul\":17898:17922   */\n      tag_433\n        /* \"#utility.yul\":17916:17921   */\n      dup3\n        /* \"#utility.yul\":17898:17922   */\n      tag_207\n      jump\t// in\n    tag_433:\n        /* \"#utility.yul\":17889:17922   */\n      swap2\n      pop\n        /* \"#utility.yul\":17944:18010   */\n      0xffffffffffffffffffffffffffffffffffffffffffffffffffffffffffffffff\n        /* \"#utility.yul\":17937:17942   */\n      dup3\n        /* \"#utility.yul\":17934:18011   */\n      sub\n        /* \"#utility.yul\":17931:18034   */\n      tag_434\n      jumpi\n        /* \"#utility.yul\":18014:18032   */\n      tag_435\n      tag_248\n      jump\t// in\n    tag_435:\n        /* \"#utility.yul\":17931:18034   */\n    tag_434:\n        /* \"#utility.yul\":18061:18062   */\n      0x01\n        /* \"#utility.yul\":18054:18059   */\n      dup3\n        /* \"#utility.yul\":18050:18063   */\n      add\n        /* \"#utility.yul\":18043:18063   */\n      swap1\n      pop\n        /* \"#utility.yul\":17836:18069   */\n      swap2\n      swap1\n      pop\n      jump\t// out\n        /* \"#utility.yul\":18075:18193   */\n    tag_249:\n        /* \"#utility.yul\":18162:18186   */\n      tag_437\n        /* \"#utility.yul\":18180:18185   */\n      dup2\n        /* \"#utility.yul\":18162:18186   */\n      tag_207\n      jump\t// in\n    tag_437:\n        /* \"#utility.yul\":18157:18160   */\n      dup3\n        /* \"#utility.yul\":18150:18187   */\n      mstore\n        /* \"#utility.yul\":18075:18193   */\n      pop\n      pop\n      jump\t// out\n        /* \"#utility.yul\":18199:18421   */\n    tag_70:\n        /* \"#utility.yul\":18292:18296   */\n      0x00\n        /* \"#utility.yul\":18330:18332   */\n      0x20\n        /* \"#utility.yul\":18319:18328   */\n      dup3\n        /* \"#utility.yul\":18315:18333   */\n      add\n        /* \"#utility.yul\":18307:18333   */\n      swap1\n      pop\n        /* \"#utility.yul\":18343:18414   */\n      tag_439\n        /* \"#utility.yul\":18411:18412   */\n      0x00\n        /* \"#utility.yul\":18400:18409   */\n      dup4\n        /* \"#utility.yul\":18396:18413   */\n      add\n        /* \"#utility.yul\":18387:18393   */\n      dup5\n        /* \"#utility.yul\":18343:18414   */\n      tag_249\n      jump\t// in\n    tag_439:\n        /* \"#utility.yul\":18199:18421   */\n      swap3\n      swap2\n      pop\n      pop\n      jump\t// out\n        /* \"#utility.yul\":18427:18603   */\n    tag_250:\n        /* \"#utility.yul\":18567:18595   */\n      0x596f752063616e6e6f7420766f74652070726f706f73616c732e000000000000\n        /* \"#utility.yul\":18563:18564   */\n      0x00\n        /* \"#utility.yul\":18555:18561   */\n      dup3\n        /* \"#utility.yul\":18551:18565   */\n      add\n        /* \"#utility.yul\":18544:18596   */\n      mstore\n        /* \"#utility.yul\":18427:18603   */\n      pop\n      jump\t// out\n        /* \"#utility.yul\":18609:18975   */\n    tag_251:\n        /* \"#utility.yul\":18751:18754   */\n      0x00\n        /* \"#utility.yul\":18772:18839   */\n      tag_442\n        /* \"#utility.yul\":18836:18838   */\n      0x1a\n        /* \"#utility.yul\":18831:18834   */\n      dup4\n        /* \"#utility.yul\":18772:18839   */\n      tag_226\n      jump\t// in\n    tag_442:\n        /* \"#utility.yul\":18765:18839   */\n      swap2\n      pop\n        /* \"#utility.yul\":18848:18941   */\n      tag_443\n        /* \"#utility.yul\":18937:18940   */\n      dup3\n        /* \"#utility.yul\":18848:18941   */\n      tag_250\n      jump\t// in\n    tag_443:\n        /* \"#utility.yul\":18966:18968   */\n      0x20\n        /* \"#utility.yul\":18961:18964   */\n      dup3\n        /* \"#utility.yul\":18957:18969   */\n      add\n        /* \"#utility.yul\":18950:18969   */\n      swap1\n      pop\n        /* \"#utility.yul\":18609:18975   */\n      swap2\n      swap1\n      pop\n      jump\t// out\n        /* \"#utility.yul\":18981:19400   */\n    tag_97:\n        /* \"#utility.yul\":19147:19151   */\n      0x00\n        /* \"#utility.yul\":19185:19187   */\n      0x20\n        /* \"#utility.yul\":19174:19183   */\n      dup3\n        /* \"#utility.yul\":19170:19188   */\n      add\n        /* \"#utility.yul\":19162:19188   */\n      swap1\n      pop\n        /* \"#utility.yul\":19234:19243   */\n      dup2\n        /* \"#utility.yul\":19228:19232   */\n      dup2\n        /* \"#utility.yul\":19224:19244   */\n      sub\n        /* \"#utility.yul\":19220:19221   */\n      0x00\n        /* \"#utility.yul\":19209:19218   */\n      dup4\n        /* \"#utility.yul\":19205:19222   */\n      add\n        /* \"#utility.yul\":19198:19245   */\n      mstore\n        /* \"#utility.yul\":19262:19393   */\n      tag_445\n        /* \"#utility.yul\":19388:19392   */\n      dup2\n        /* \"#utility.yul\":19262:19393   */\n      tag_251\n      jump\t// in\n    tag_445:\n        /* \"#utility.yul\":19254:19393   */\n      swap1\n      pop\n        /* \"#utility.yul\":18981:19400   */\n      swap2\n      swap1\n      pop\n      jump\t// out\n        /* \"#utility.yul\":19406:19574   */\n    tag_252:\n        /* \"#utility.yul\":19546:19566   */\n      0x596f7520616c726561647920766f746564210000000000000000000000000000\n        /* \"#utility.yul\":19542:19543   */\n      0x00\n        /* \"#utility.yul\":19534:19540   */\n      dup3\n        /* \"#utility.yul\":19530:19544   */\n      add\n        /* \"#utility.yul\":19523:19567   */\n      mstore\n        /* \"#utility.yul\":19406:19574   */\n      pop\n      jump\t// out\n        /* \"#utility.yul\":19580:19946   */\n    tag_253:\n        /* \"#utility.yul\":19722:19725   */\n      0x00\n        /* \"#utility.yul\":19743:19810   */\n      tag_448\n        /* \"#utility.yul\":19807:19809   */\n      0x12\n        /* \"#utility.yul\":19802:19805   */\n      dup4\n        /* \"#utility.yul\":19743:19810   */\n      tag_226\n      jump\t// in\n    tag_448:\n        /* \"#utility.yul\":19736:19810   */\n      swap2\n      pop\n        /* \"#utility.yul\":19819:19912   */\n      tag_449\n        /* \"#utility.yul\":19908:19911   */\n      dup3\n        /* \"#utility.yul\":19819:19912   */\n      tag_252\n      jump\t// in\n    tag_449:\n        /* \"#utility.yul\":19937:19939   */\n      0x20\n        /* \"#utility.yul\":19932:19935   */\n      dup3\n        /* \"#utility.yul\":19928:19940   */\n      add\n        /* \"#utility.yul\":19921:19940   */\n      swap1\n      pop\n        /* \"#utility.yul\":19580:19946   */\n      swap2\n      swap1\n      pop\n      jump\t// out\n        /* \"#utility.yul\":19952:20371   */\n    tag_101:\n        /* \"#utility.yul\":20118:20122   */\n      0x00\n        /* \"#utility.yul\":20156:20158   */\n      0x20\n        /* \"#utility.yul\":20145:20154   */\n      dup3\n        /* \"#utility.yul\":20141:20159   */\n      add\n        /* \"#utility.yul\":20133:20159   */\n      swap1\n      pop\n        /* \"#utility.yul\":20205:20214   */\n      dup2\n        /* \"#utility.yul\":20199:20203   */\n      dup2\n        /* \"#utility.yul\":20195:20215   */\n      sub\n        /* \"#utility.yul\":20191:20192   */\n      0x00\n        /* \"#utility.yul\":20180:20189   */\n      dup4\n        /* \"#utility.yul\":20176:20193   */\n      add\n        /* \"#utility.yul\":20169:20216   */\n      mstore\n        /* \"#utility.yul\":20233:20364   */\n      tag_451\n        /* \"#utility.yul\":20359:20363   */\n      dup2\n        /* \"#utility.yul\":20233:20364   */\n      tag_253\n      jump\t// in\n    tag_451:\n        /* \"#utility.yul\":20225:20364   */\n      swap1\n      pop\n        /* \"#utility.yul\":19952:20371   */\n      swap2\n      swap1\n      pop\n      jump\t// out\n        /* \"#utility.yul\":20377:20557   */\n    tag_105:\n        /* \"#utility.yul\":20425:20502   */\n      0x4e487b7100000000000000000000000000000000000000000000000000000000\n        /* \"#utility.yul\":20422:20423   */\n      0x00\n        /* \"#utility.yul\":20415:20503   */\n      mstore\n        /* \"#utility.yul\":20522:20526   */\n      0x32\n        /* \"#utility.yul\":20519:20520   */\n      0x04\n        /* \"#utility.yul\":20512:20527   */\n      mstore\n        /* \"#utility.yul\":20546:20550   */\n      0x24\n        /* \"#utility.yul\":20543:20544   */\n      0x00\n        /* \"#utility.yul\":20536:20551   */\n      revert\n        /* \"#utility.yul\":20563:20895   */\n    tag_112:\n        /* \"#utility.yul\":20684:20688   */\n      0x00\n        /* \"#utility.yul\":20722:20724   */\n      0x40\n        /* \"#utility.yul\":20711:20720   */\n      dup3\n        /* \"#utility.yul\":20707:20725   */\n      add\n        /* \"#utility.yul\":20699:20725   */\n      swap1\n      pop\n        /* \"#utility.yul\":20735:20806   */\n      tag_454\n        /* \"#utility.yul\":20803:20804   */\n      0x00\n        /* \"#utility.yul\":20792:20801   */\n      dup4\n        /* \"#utility.yul\":20788:20805   */\n      add\n        /* \"#utility.yul\":20779:20785   */\n      dup6\n        /* \"#utility.yul\":20735:20806   */\n      tag_222\n      jump\t// in\n    tag_454:\n        /* \"#utility.yul\":20816:20888   */\n      tag_455\n        /* \"#utility.yul\":20884:20886   */\n      0x20\n        /* \"#utility.yul\":20873:20882   */\n      dup4\n        /* \"#utility.yul\":20869:20887   */\n      add\n        /* \"#utility.yul\":20860:20866   */\n      dup5\n        /* \"#utility.yul\":20816:20888   */\n      tag_249\n      jump\t// in\n    tag_455:\n        /* \"#utility.yul\":20563:20895   */\n      swap4\n      swap3\n      pop\n      pop\n      pop\n      jump\t// out\n        /* \"#utility.yul\":20901:21133   */\n    tag_254:\n        /* \"#utility.yul\":21041:21075   */\n      0x566f746573206e65656420746f2062652074616c6c69656420696e206f726465\n        /* \"#utility.yul\":21037:21038   */\n      0x00\n        /* \"#utility.yul\":21029:21035   */\n      dup3\n        /* \"#utility.yul\":21025:21039   */\n      add\n        /* \"#utility.yul\":21018:21076   */\n      mstore\n        /* \"#utility.yul\":21110:21125   */\n      0x7220746f20646f20746861742e00000000000000000000000000000000000000\n        /* \"#utility.yul\":21105:21107   */\n      0x20\n        /* \"#utility.yul\":21097:21103   */\n      dup3\n        /* \"#utility.yul\":21093:21108   */\n      add\n        /* \"#utility.yul\":21086:21126   */\n      mstore\n        /* \"#utility.yul\":20901:21133   */\n      pop\n      jump\t// out\n        /* \"#utility.yul\":21139:21505   */\n    tag_255:\n        /* \"#utility.yul\":21281:21284   */\n      0x00\n        /* \"#utility.yul\":21302:21369   */\n      tag_458\n        /* \"#utility.yul\":21366:21368   */\n      0x2d\n        /* \"#utility.yul\":21361:21364   */\n      dup4\n        /* \"#utility.yul\":21302:21369   */\n      tag_226\n      jump\t// in\n    tag_458:\n        /* \"#utility.yul\":21295:21369   */\n      swap2\n      pop\n        /* \"#utility.yul\":21378:21471   */\n      tag_459\n        /* \"#utility.yul\":21467:21470   */\n      dup3\n        /* \"#utility.yul\":21378:21471   */\n      tag_254\n      jump\t// in\n    tag_459:\n        /* \"#utility.yul\":21496:21498   */\n      0x40\n        /* \"#utility.yul\":21491:21494   */\n      dup3\n        /* \"#utility.yul\":21487:21499   */\n      add\n        /* \"#utility.yul\":21480:21499   */\n      swap1\n      pop\n        /* \"#utility.yul\":21139:21505   */\n      swap2\n      swap1\n      pop\n      jump\t// out\n        /* \"#utility.yul\":21511:21930   */\n    tag_123:\n        /* \"#utility.yul\":21677:21681   */\n      0x00\n        /* \"#utility.yul\":21715:21717   */\n      0x20\n        /* \"#utility.yul\":21704:21713   */\n      dup3\n        /* \"#utility.yul\":21700:21718   */\n      add\n        /* \"#utility.yul\":21692:21718   */\n      swap1\n      pop\n        /* \"#utility.yul\":21764:21773   */\n      dup2\n        /* \"#utility.yul\":21758:21762   */\n      dup2\n        /* \"#utility.yul\":21754:21774   */\n      sub\n        /* \"#utility.yul\":21750:21751   */\n      0x00\n        /* \"#utility.yul\":21739:21748   */\n      dup4\n        /* \"#utility.yul\":21735:21752   */\n      add\n        /* \"#utility.yul\":21728:21775   */\n      mstore\n        /* \"#utility.yul\":21792:21923   */\n      tag_461\n        /* \"#utility.yul\":21918:21922   */\n      dup2\n        /* \"#utility.yul\":21792:21923   */\n      tag_255\n      jump\t// in\n    tag_461:\n        /* \"#utility.yul\":21784:21923   */\n      swap1\n      pop\n        /* \"#utility.yul\":21511:21930   */\n      swap2\n      swap1\n      pop\n      jump\t// out\n        /* \"#utility.yul\":21936:22113   */\n    tag_256:\n        /* \"#utility.yul\":22076:22105   */\n      0x596f752063616e6e6f7420726567697374657220766f746572732e0000000000\n        /* \"#utility.yul\":22072:22073   */\n      0x00\n        /* \"#utility.yul\":22064:22070   */\n      dup3\n        /* \"#utility.yul\":22060:22074   */\n      add\n        /* \"#utility.yul\":22053:22106   */\n      mstore\n        /* \"#utility.yul\":21936:22113   */\n      pop\n      jump\t// out\n        /* \"#utility.yul\":22119:22485   */\n    tag_257:\n        /* \"#utility.yul\":22261:22264   */\n      0x00\n        /* \"#utility.yul\":22282:22349   */\n      tag_464\n        /* \"#utility.yul\":22346:22348   */\n      0x1b\n        /* \"#utility.yul\":22341:22344   */\n      dup4\n        /* \"#utility.yul\":22282:22349   */\n      tag_226\n      jump\t// in\n    tag_464:\n        /* \"#utility.yul\":22275:22349   */\n      swap2\n      pop\n        /* \"#utility.yul\":22358:22451   */\n      tag_465\n        /* \"#utility.yul\":22447:22450   */\n      dup3\n        /* \"#utility.yul\":22358:22451   */\n      tag_256\n      jump\t// in\n    tag_465:\n        /* \"#utility.yul\":22476:22478   */\n      0x20\n        /* \"#utility.yul\":22471:22474   */\n      dup3\n        /* \"#utility.yul\":22467:22479   */\n      add\n        /* \"#utility.yul\":22460:22479   */\n      swap1\n      pop\n        /* \"#utility.yul\":22119:22485   */\n      swap2\n      swap1\n      pop\n      jump\t// out\n        /* \"#utility.yul\":22491:22910   */\n    tag_160:\n        /* \"#utility.yul\":22657:22661   */\n      0x00\n        /* \"#utility.yul\":22695:22697   */\n      0x20\n        /* \"#utility.yul\":22684:22693   */\n      dup3\n        /* \"#utility.yul\":22680:22698   */\n      add\n        /* \"#utility.yul\":22672:22698   */\n      swap1\n      pop\n        /* \"#utility.yul\":22744:22753   */\n      dup2\n        /* \"#utility.yul\":22738:22742   */\n      dup2\n        /* \"#utility.yul\":22734:22754   */\n      sub\n        /* \"#utility.yul\":22730:22731   */\n      0x00\n        /* \"#utility.yul\":22719:22728   */\n      dup4\n        /* \"#utility.yul\":22715:22732   */\n      add\n        /* \"#utility.yul\":22708:22755   */\n      mstore\n        /* \"#utility.yul\":22772:22903   */\n      tag_467\n        /* \"#utility.yul\":22898:22902   */\n      dup2\n        /* \"#utility.yul\":22772:22903   */\n      tag_257\n      jump\t// in\n    tag_467:\n        /* \"#utility.yul\":22764:22903   */\n      swap1\n      pop\n        /* \"#utility.yul\":22491:22910   */\n      swap2\n      swap1\n      pop\n      jump\t// out\n        /* \"#utility.yul\":22916:23151   */\n    tag_258:\n        /* \"#utility.yul\":23056:23090   */\n      0x566f7465732073686f756c64206e6f742062652074616c6c69656420696e206f\n        /* \"#utility.yul\":23052:23053   */\n      0x00\n        /* \"#utility.yul\":23044:23050   */\n      dup3\n        /* \"#utility.yul\":23040:23054   */\n      add\n        /* \"#utility.yul\":23033:23091   */\n      mstore\n        /* \"#utility.yul\":23125:23143   */\n      0x7264657220746f20646f20746861742e00000000000000000000000000000000\n        /* \"#utility.yul\":23120:23122   */\n      0x20\n        /* \"#utility.yul\":23112:23118   */\n      dup3\n        /* \"#utility.yul\":23108:23123   */\n      add\n        /* \"#utility.yul\":23101:23144   */\n      mstore\n        /* \"#utility.yul\":22916:23151   */\n      pop\n      jump\t// out\n        /* \"#utility.yul\":23157:23523   */\n    tag_259:\n        /* \"#utility.yul\":23299:23302   */\n      0x00\n        /* \"#utility.yul\":23320:23387   */\n      tag_470\n        /* \"#utility.yul\":23384:23386   */\n      0x30\n        /* \"#utility.yul\":23379:23382   */\n      dup4\n        /* \"#utility.yul\":23320:23387   */\n      tag_226\n      jump\t// in\n    tag_470:\n        /* \"#utility.yul\":23313:23387   */\n      swap2\n      pop\n        /* \"#utility.yul\":23396:23489   */\n      tag_471\n        /* \"#utility.yul\":23485:23488   */\n      dup3\n        /* \"#utility.yul\":23396:23489   */\n      tag_258\n      jump\t// in\n    tag_471:\n        /* \"#utility.yul\":23514:23516   */\n      0x40\n        /* \"#utility.yul\":23509:23512   */\n      dup3\n        /* \"#utility.yul\":23505:23517   */\n      add\n        /* \"#utility.yul\":23498:23517   */\n      swap1\n      pop\n        /* \"#utility.yul\":23157:23523   */\n      swap2\n      swap1\n      pop\n      jump\t// out\n        /* \"#utility.yul\":23529:23948   */\n    tag_172:\n        /* \"#utility.yul\":23695:23699   */\n      0x00\n        /* \"#utility.yul\":23733:23735   */\n      0x20\n        /* \"#utility.yul\":23722:23731   */\n      dup3\n        /* \"#utility.yul\":23718:23736   */\n      add\n        /* \"#utility.yul\":23710:23736   */\n      swap1\n      pop\n        /* \"#utility.yul\":23782:23791   */\n      dup2\n        /* \"#utility.yul\":23776:23780   */\n      dup2\n        /* \"#utility.yul\":23772:23792   */\n      sub\n        /* \"#utility.yul\":23768:23769   */\n      0x00\n        /* \"#utility.yul\":23757:23766   */\n      dup4\n        /* \"#utility.yul\":23753:23770   */\n      add\n        /* \"#utility.yul\":23746:23793   */\n      mstore\n        /* \"#utility.yul\":23810:23941   */\n      tag_473\n        /* \"#utility.yul\":23936:23940   */\n      dup2\n        /* \"#utility.yul\":23810:23941   */\n      tag_259\n      jump\t// in\n    tag_473:\n        /* \"#utility.yul\":23802:23941   */\n      swap1\n      pop\n        /* \"#utility.yul\":23529:23948   */\n      swap2\n      swap1\n      pop\n      jump\t// out\n        /* \"#utility.yul\":23954:24145   */\n    tag_177:\n        /* \"#utility.yul\":23994:23997   */\n      0x00\n        /* \"#utility.yul\":24013:24033   */\n      tag_475\n        /* \"#utility.yul\":24031:24032   */\n      dup3\n        /* \"#utility.yul\":24013:24033   */\n      tag_207\n      jump\t// in\n    tag_475:\n        /* \"#utility.yul\":24008:24033   */\n      swap2\n      pop\n        /* \"#utility.yul\":24047:24067   */\n      tag_476\n        /* \"#utility.yul\":24065:24066   */\n      dup4\n        /* \"#utility.yul\":24047:24067   */\n      tag_207\n      jump\t// in\n    tag_476:\n        /* \"#utility.yul\":24042:24067   */\n      swap3\n      pop\n        /* \"#utility.yul\":24090:24091   */\n      dup3\n        /* \"#utility.yul\":24087:24088   */\n      dup3\n        /* \"#utility.yul\":24083:24092   */\n      add\n        /* \"#utility.yul\":24076:24092   */\n      swap1\n      pop\n        /* \"#utility.yul\":24111:24114   */\n      dup1\n        /* \"#utility.yul\":24108:24109   */\n      dup3\n        /* \"#utility.yul\":24105:24115   */\n      gt\n        /* \"#utility.yul\":24102:24138   */\n      iszero\n      tag_477\n      jumpi\n        /* \"#utility.yul\":24118:24136   */\n      tag_478\n      tag_248\n      jump\t// in\n    tag_478:\n        /* \"#utility.yul\":24102:24138   */\n    tag_477:\n        /* \"#utility.yul\":23954:24145   */\n      swap3\n      swap2\n      pop\n      pop\n      jump\t// out\n        /* \"#utility.yul\":24151:24543   */\n    tag_183:\n        /* \"#utility.yul\":24302:24306   */\n      0x00\n        /* \"#utility.yul\":24340:24342   */\n      0x40\n        /* \"#utility.yul\":24329:24338   */\n      dup3\n        /* \"#utility.yul\":24325:24343   */\n      add\n        /* \"#utility.yul\":24317:24343   */\n      swap1\n      pop\n        /* \"#utility.yul\":24353:24439   */\n      tag_480\n        /* \"#utility.yul\":24436:24437   */\n      0x00\n        /* \"#utility.yul\":24425:24434   */\n      dup4\n        /* \"#utility.yul\":24421:24438   */\n      add\n        /* \"#utility.yul\":24412:24418   */\n      dup6\n        /* \"#utility.yul\":24353:24439   */\n      tag_196\n      jump\t// in\n    tag_480:\n        /* \"#utility.yul\":24449:24536   */\n      tag_481\n        /* \"#utility.yul\":24532:24534   */\n      0x20\n        /* \"#utility.yul\":24521:24530   */\n      dup4\n        /* \"#utility.yul\":24517:24535   */\n      add\n        /* \"#utility.yul\":24508:24514   */\n      dup5\n        /* \"#utility.yul\":24449:24536   */\n      tag_196\n      jump\t// in\n    tag_481:\n        /* \"#utility.yul\":24151:24543   */\n      swap4\n      swap3\n      pop\n      pop\n      pop\n      jump\t// out\n\n    auxdata: 0xa26469706673582212201dbab231215b638ed7ccc89ccd97aaca1f70d7507db6b8aaa7c060df9c7cd58764736f6c63430008170033\n}\n",
				"bytecode": {
					"linkReferences": {},
					"object": "60806040525f60045534801562000014575f80fd5b50335f73ffffffffffffffffffffffffffffffffffffffff168173ffffffffffffffffffffffffffffffffffffffff160362000089575f6040517f1e4fbdf7000000000000000000000000000000000000000000000000000000008152600401620000809190620001d1565b60405180910390fd5b6200009a81620000cd60201b60201c565b505f60055f6101000a81548160ff02191690836003811115620000c257620000c1620001ec565b5b021790555062000219565b5f805f9054906101000a900473ffffffffffffffffffffffffffffffffffffffff169050815f806101000a81548173ffffffffffffffffffffffffffffffffffffffff021916908373ffffffffffffffffffffffffffffffffffffffff1602179055508173ffffffffffffffffffffffffffffffffffffffff168173ffffffffffffffffffffffffffffffffffffffff167f8be0079c531659141344cd1fd0a4f28419497f9722a3daafe3b4186f6b6457e060405160405180910390a35050565b5f73ffffffffffffffffffffffffffffffffffffffff82169050919050565b5f620001b9826200018e565b9050919050565b620001cb81620001ad565b82525050565b5f602082019050620001e65f830184620001c0565b92915050565b7f4e487b71000000000000000000000000000000000000000000000000000000005f52602160045260245ffd5b611ac080620002275f395ff3fe608060405234801561000f575f80fd5b506004361061009c575f3560e01c80638da5cb5b116100645780638da5cb5b1461011e5780638e7ea5b21461013c578063f2fde38b1461015a578063f4ab9adf14610176578063fd20255c146101925761009c565b80631e09506d146100a05780632fdae3c5146100be57806362564c48146100da578063715018a6146100f8578063746536b514610102575b5f80fd5b6100a861019c565b6040516100b59190610f10565b60405180910390f35b6100d860048036038101906100d39190610f92565b6101b1565b005b6100e26103ba565b6040516100ef9190611187565b60405180910390f35b6101006104b9565b005b61011c600480360381019061011791906111d1565b6104cc565b005b6101266107d8565b604051610133919061123b565b60405180910390f35b6101446107ff565b60405161015191906112a1565b60405180910390f35b610174600480360381019061016f91906112eb565b610a5f565b005b610190600480360381019061018b91906112eb565b610ae3565b005b61019a610bf0565b005b5f60055f9054906101000a900460ff16905090565b6001151560025f3373ffffffffffffffffffffffffffffffffffffffff1673ffffffffffffffffffffffffffffffffffffffff1681526020019081526020015f205f015f9054906101000a900460ff16151514610243576040517f08c379a000000000000000000000000000000000000000000000000000000000815260040161023a90611370565b60405180910390fd5b6001600381111561025757610256610e9d565b5b60055f9054906101000a900460ff16600381111561027857610277610e9d565b5b146102b8576040517f08c379a00000000000000000000000000000000000000000000000000000000081526004016102af906113d8565b60405180910390fd5b60036040518060600160405280600454815260200184848080601f0160208091040260200160405190810160405280939291908181526020018383808284375f81840152601f19601f8201169050808301925050505050505081526020015f815250908060018154018082558091505060019003905f5260205f2090600302015f909190919091505f820151815f0155602082015181600101908161035d919061161d565b506040820151816002015550507f92e393e9b54e2f801d3ea4beb0c5e71a21cc34a5d34b77d0fb8a3aa1650dc18f60045f81548092919061039d90611719565b919050556040516103ae919061176f565b60405180910390a15050565b60606003805480602002602001604051908101604052809291908181526020015f905b828210156104b0578382905f5260205f2090600302016040518060600160405290815f820154815260200160018201805461041790611450565b80601f016020809104026020016040519081016040528092919081815260200182805461044390611450565b801561048e5780601f106104655761010080835404028352916020019161048e565b820191905f5260205f20905b81548152906001019060200180831161047157829003601f168201915b50505050508152602001600282015481525050815260200190600101906103dd565b50505050905090565b6104c1610d2f565b6104ca5f610db6565b565b6001151560025f3373ffffffffffffffffffffffffffffffffffffffff1673ffffffffffffffffffffffffffffffffffffffff1681526020019081526020015f205f015f9054906101000a900460ff1615151461055e576040517f08c379a000000000000000000000000000000000000000000000000000000000815260040161055590611370565b60405180910390fd5b6002600381111561057257610571610e9d565b5b60055f9054906101000a900460ff16600381111561059357610592610e9d565b5b146105d3576040517f08c379a00000000000000000000000000000000000000000000000000000000081526004016105ca906117d2565b60405180910390fd5b5f151560025f3373ffffffffffffffffffffffffffffffffffffffff1673ffffffffffffffffffffffffffffffffffffffff1681526020019081526020015f205f0160019054906101000a900460ff16151514610665576040517f08c379a000000000000000000000000000000000000000000000000000000000815260040161065c9061183a565b60405180910390fd5b6003818154811061067957610678611858565b5b905f5260205f2090600302016002015f81548092919061069890611719565b9190505550600160025f3373ffffffffffffffffffffffffffffffffffffffff1673ffffffffffffffffffffffffffffffffffffffff1681526020019081526020015f205f0160016101000a81548160ff0219169083151502179055506003818154811061070957610708611858565b5b905f5260205f2090600302015f015460025f3373ffffffffffffffffffffffffffffffffffffffff1673ffffffffffffffffffffffffffffffffffffffff1681526020019081526020015f20600101819055507f4d99b957a2bc29a30ebd96a7be8e68fe50a3c701db28a91436490b7d53870ca43360025f3373ffffffffffffffffffffffffffffffffffffffff1673ffffffffffffffffffffffffffffffffffffffff1681526020019081526020015f20600101546040516107cd929190611885565b60405180910390a150565b5f805f9054906101000a900473ffffffffffffffffffffffffffffffffffffffff16905090565b610807610e7e565b60038081111561081a57610819610e9d565b5b60055f9054906101000a900460ff16600381111561083b5761083a610e9d565b5b1461087b576040517f08c379a00000000000000000000000000000000000000000000000000000000081526004016108729061191c565b60405180910390fd5b5f805b600380549050811015610988575f600382815481106108a05761089f611858565b5b905f5260205f2090600302016040518060600160405290815f82015481526020016001820180546108d090611450565b80601f01602080910402602001604051908101604052809291908181526020018280546108fc90611450565b80156109475780601f1061091e57610100808354040283529160200191610947565b820191905f5260205f20905b81548152906001019060200180831161092a57829003601f168201915b505050505081526020016002820154815250509050828160400151111561097a57805f0151600181905550806040015192505b50808060010191505061087e565b5060036001548154811061099f5761099e611858565b5b905f5260205f2090600302016040518060600160405290815f82015481526020016001820180546109cf90611450565b80601f01602080910402602001604051908101604052809291908181526020018280546109fb90611450565b8015610a465780601f10610a1d57610100808354040283529160200191610a46565b820191905f5260205f20905b815481529060010190602001808311610a2957829003601f168201915b5050505050815260200160028201548152505091505090565b610a67610d2f565b5f73ffffffffffffffffffffffffffffffffffffffff168173ffffffffffffffffffffffffffffffffffffffff1603610ad7575f6040517f1e4fbdf7000000000000000000000000000000000000000000000000000000008152600401610ace919061123b565b60405180910390fd5b610ae081610db6565b50565b610aeb610d2f565b5f6003811115610afe57610afd610e9d565b5b60055f9054906101000a900460ff166003811115610b1f57610b1e610e9d565b5b14610b5f576040517f08c379a0000000000000000000000000000000000000000000000000000000008152600401610b5690611984565b60405180910390fd5b600160025f8373ffffffffffffffffffffffffffffffffffffffff1673ffffffffffffffffffffffffffffffffffffffff1681526020019081526020015f205f015f6101000a81548160ff0219169083151502179055507fb6be2187d059cc2a55fe29e0e503b566e1e0f8c8780096e185429350acffd3dd81604051610be5919061123b565b60405180910390a150565b610bf8610d2f565b600380811115610c0b57610c0a610e9d565b5b60055f9054906101000a900460ff166003811115610c2c57610c2b610e9d565b5b03610c6c576040517f08c379a0000000000000000000000000000000000000000000000000000000008152600401610c6390611a12565b60405180910390fd5b5f60055f9054906101000a900460ff169050600160055f9054906101000a900460ff166003811115610ca157610ca0610e9d565b5b610cab9190611a30565b6003811115610cbd57610cbc610e9d565b5b60055f6101000a81548160ff02191690836003811115610ce057610cdf610e9d565b5b02179055507f0a97a4ee45751e2abf3e4fc8946939630b11b371ea8ae39ccdc3056e98f5cc3f8160055f9054906101000a900460ff16604051610d24929190611a63565b60405180910390a150565b610d37610e77565b73ffffffffffffffffffffffffffffffffffffffff16610d556107d8565b73ffffffffffffffffffffffffffffffffffffffff1614610db457610d78610e77565b6040517f118cdaa7000000000000000000000000000000000000000000000000000000008152600401610dab919061123b565b60405180910390fd5b565b5f805f9054906101000a900473ffffffffffffffffffffffffffffffffffffffff169050815f806101000a81548173ffffffffffffffffffffffffffffffffffffffff021916908373ffffffffffffffffffffffffffffffffffffffff1602179055508173ffffffffffffffffffffffffffffffffffffffff168173ffffffffffffffffffffffffffffffffffffffff167f8be0079c531659141344cd1fd0a4f28419497f9722a3daafe3b4186f6b6457e060405160405180910390a35050565b5f33905090565b60405180606001604052805f8152602001606081526020015f81525090565b7f4e487b71000000000000000000000000000000000000000000000000000000005f52602160045260245ffd5b60048110610edb57610eda610e9d565b5b50565b5f819050610eeb82610eca565b919050565b5f610efa82610ede565b9050919050565b610f0a81610ef0565b82525050565b5f602082019050610f235f830184610f01565b92915050565b5f80fd5b5f80fd5b5f80fd5b5f80fd5b5f80fd5b5f8083601f840112610f5257610f51610f31565b5b8235905067ffffffffffffffff811115610f6f57610f6e610f35565b5b602083019150836001820283011115610f8b57610f8a610f39565b5b9250929050565b5f8060208385031215610fa857610fa7610f29565b5b5f83013567ffffffffffffffff811115610fc557610fc4610f2d565b5b610fd185828601610f3d565b92509250509250929050565b5f81519050919050565b5f82825260208201905092915050565b5f819050602082019050919050565b5f819050919050565b61101881611006565b82525050565b5f81519050919050565b5f82825260208201905092915050565b5f5b8381101561105557808201518184015260208101905061103a565b5f8484015250505050565b5f601f19601f8301169050919050565b5f61107a8261101e565b6110848185611028565b9350611094818560208601611038565b61109d81611060565b840191505092915050565b5f606083015f8301516110bd5f86018261100f565b50602083015184820360208601526110d58282611070565b91505060408301516110ea604086018261100f565b508091505092915050565b5f61110083836110a8565b905092915050565b5f602082019050919050565b5f61111e82610fdd565b6111288185610fe7565b93508360208202850161113a85610ff7565b805f5b85811015611175578484038952815161115685826110f5565b945061116183611108565b925060208a0199505060018101905061113d565b50829750879550505050505092915050565b5f6020820190508181035f83015261119f8184611114565b905092915050565b6111b081611006565b81146111ba575f80fd5b50565b5f813590506111cb816111a7565b92915050565b5f602082840312156111e6576111e5610f29565b5b5f6111f3848285016111bd565b91505092915050565b5f73ffffffffffffffffffffffffffffffffffffffff82169050919050565b5f611225826111fc565b9050919050565b6112358161121b565b82525050565b5f60208201905061124e5f83018461122c565b92915050565b5f606083015f8301516112695f86018261100f565b50602083015184820360208601526112818282611070565b9150506040830151611296604086018261100f565b508091505092915050565b5f6020820190508181035f8301526112b98184611254565b905092915050565b6112ca8161121b565b81146112d4575f80fd5b50565b5f813590506112e5816112c1565b92915050565b5f60208284031215611300576112ff610f29565b5b5f61130d848285016112d7565b91505092915050565b5f82825260208201905092915050565b7f596f7520617265206e6f7420612076616c696420766f746572210000000000005f82015250565b5f61135a601a83611316565b915061136582611326565b602082019050919050565b5f6020820190508181035f8301526113878161134e565b9050919050565b7f596f752063616e6e6f742072656769737465722070726f706f73616c732e00005f82015250565b5f6113c2601e83611316565b91506113cd8261138e565b602082019050919050565b5f6020820190508181035f8301526113ef816113b6565b9050919050565b7f4e487b71000000000000000000000000000000000000000000000000000000005f52604160045260245ffd5b7f4e487b71000000000000000000000000000000000000000000000000000000005f52602260045260245ffd5b5f600282049050600182168061146757607f821691505b60208210810361147a57611479611423565b5b50919050565b5f819050815f5260205f209050919050565b5f6020601f8301049050919050565b5f82821b905092915050565b5f600883026114dc7fffffffffffffffffffffffffffffffffffffffffffffffffffffffffffffffff826114a1565b6114e686836114a1565b95508019841693508086168417925050509392505050565b5f819050919050565b5f61152161151c61151784611006565b6114fe565b611006565b9050919050565b5f819050919050565b61153a83611507565b61154e61154682611528565b8484546114ad565b825550505050565b5f90565b611562611556565b61156d818484611531565b505050565b5b81811015611590576115855f8261155a565b600181019050611573565b5050565b601f8211156115d5576115a681611480565b6115af84611492565b810160208510156115be578190505b6115d26115ca85611492565b830182611572565b50505b505050565b5f82821c905092915050565b5f6115f55f19846008026115da565b1980831691505092915050565b5f61160d83836115e6565b9150826002028217905092915050565b6116268261101e565b67ffffffffffffffff81111561163f5761163e6113f6565b5b6116498254611450565b611654828285611594565b5f60209050601f831160018114611685575f8415611673578287015190505b61167d8582611602565b8655506116e4565b601f19841661169386611480565b5f5b828110156116ba57848901518255600182019150602085019450602081019050611695565b868310156116d757848901516116d3601f8916826115e6565b8355505b6001600288020188555050505b505050505050565b7f4e487b71000000000000000000000000000000000000000000000000000000005f52601160045260245ffd5b5f61172382611006565b91507fffffffffffffffffffffffffffffffffffffffffffffffffffffffffffffffff8203611755576117546116ec565b5b600182019050919050565b61176981611006565b82525050565b5f6020820190506117825f830184611760565b92915050565b7f596f752063616e6e6f7420766f74652070726f706f73616c732e0000000000005f82015250565b5f6117bc601a83611316565b91506117c782611788565b602082019050919050565b5f6020820190508181035f8301526117e9816117b0565b9050919050565b7f596f7520616c726561647920766f7465642100000000000000000000000000005f82015250565b5f611824601283611316565b915061182f826117f0565b602082019050919050565b5f6020820190508181035f83015261185181611818565b9050919050565b7f4e487b71000000000000000000000000000000000000000000000000000000005f52603260045260245ffd5b5f6040820190506118985f83018561122c565b6118a56020830184611760565b9392505050565b7f566f746573206e65656420746f2062652074616c6c69656420696e206f7264655f8201527f7220746f20646f20746861742e00000000000000000000000000000000000000602082015250565b5f611906602d83611316565b9150611911826118ac565b604082019050919050565b5f6020820190508181035f830152611933816118fa565b9050919050565b7f596f752063616e6e6f7420726567697374657220766f746572732e00000000005f82015250565b5f61196e601b83611316565b91506119798261193a565b602082019050919050565b5f6020820190508181035f83015261199b81611962565b9050919050565b7f566f7465732073686f756c64206e6f742062652074616c6c69656420696e206f5f8201527f7264657220746f20646f20746861742e00000000000000000000000000000000602082015250565b5f6119fc603083611316565b9150611a07826119a2565b604082019050919050565b5f6020820190508181035f830152611a29816119f0565b9050919050565b5f611a3a82611006565b9150611a4583611006565b9250828201905080821115611a5d57611a5c6116ec565b5b92915050565b5f604082019050611a765f830185610f01565b611a836020830184610f01565b939250505056fea26469706673582212201dbab231215b638ed7ccc89ccd97aaca1f70d7507db6b8aaa7c060df9c7cd58764736f6c63430008170033",
					"opcodes": "PUSH1 0x80 PUSH1 0x40 MSTORE PUSH0 PUSH1 0x4 SSTORE CALLVALUE DUP1 ISZERO PUSH3 0x14 JUMPI PUSH0 DUP1 REVERT JUMPDEST POP CALLER PUSH0 PUSH20 0xFFFFFFFFFFFFFFFFFFFFFFFFFFFFFFFFFFFFFFFF AND DUP2 PUSH20 0xFFFFFFFFFFFFFFFFFFFFFFFFFFFFFFFFFFFFFFFF AND SUB PUSH3 0x89 JUMPI PUSH0 PUSH1 0x40 MLOAD PUSH32 0x1E4FBDF700000000000000000000000000000000000000000000000000000000 DUP2 MSTORE PUSH1 0x4 ADD PUSH3 0x80 SWAP2 SWAP1 PUSH3 0x1D1 JUMP JUMPDEST PUSH1 0x40 MLOAD DUP1 SWAP2 SUB SWAP1 REVERT JUMPDEST PUSH3 0x9A DUP2 PUSH3 0xCD PUSH1 0x20 SHL PUSH1 0x20 SHR JUMP JUMPDEST POP PUSH0 PUSH1 0x5 PUSH0 PUSH2 0x100 EXP DUP2 SLOAD DUP2 PUSH1 0xFF MUL NOT AND SWAP1 DUP4 PUSH1 0x3 DUP2 GT ISZERO PUSH3 0xC2 JUMPI PUSH3 0xC1 PUSH3 0x1EC JUMP JUMPDEST JUMPDEST MUL OR SWAP1 SSTORE POP PUSH3 0x219 JUMP JUMPDEST PUSH0 DUP1 PUSH0 SWAP1 SLOAD SWAP1 PUSH2 0x100 EXP SWAP1 DIV PUSH20 0xFFFFFFFFFFFFFFFFFFFFFFFFFFFFFFFFFFFFFFFF AND SWAP1 POP DUP2 PUSH0 DUP1 PUSH2 0x100 EXP DUP2 SLOAD DUP2 PUSH20 0xFFFFFFFFFFFFFFFFFFFFFFFFFFFFFFFFFFFFFFFF MUL NOT AND SWAP1 DUP4 PUSH20 0xFFFFFFFFFFFFFFFFFFFFFFFFFFFFFFFFFFFFFFFF AND MUL OR SWAP1 SSTORE POP DUP2 PUSH20 0xFFFFFFFFFFFFFFFFFFFFFFFFFFFFFFFFFFFFFFFF AND DUP2 PUSH20 0xFFFFFFFFFFFFFFFFFFFFFFFFFFFFFFFFFFFFFFFF AND PUSH32 0x8BE0079C531659141344CD1FD0A4F28419497F9722A3DAAFE3B4186F6B6457E0 PUSH1 0x40 MLOAD PUSH1 0x40 MLOAD DUP1 SWAP2 SUB SWAP1 LOG3 POP POP JUMP JUMPDEST PUSH0 PUSH20 0xFFFFFFFFFFFFFFFFFFFFFFFFFFFFFFFFFFFFFFFF DUP3 AND SWAP1 POP SWAP2 SWAP1 POP JUMP JUMPDEST PUSH0 PUSH3 0x1B9 DUP3 PUSH3 0x18E JUMP JUMPDEST SWAP1 POP SWAP2 SWAP1 POP JUMP JUMPDEST PUSH3 0x1CB DUP2 PUSH3 0x1AD JUMP JUMPDEST DUP3 MSTORE POP POP JUMP JUMPDEST PUSH0 PUSH1 0x20 DUP3 ADD SWAP1 POP PUSH3 0x1E6 PUSH0 DUP4 ADD DUP5 PUSH3 0x1C0 JUMP JUMPDEST SWAP3 SWAP2 POP POP JUMP JUMPDEST PUSH32 0x4E487B7100000000000000000000000000000000000000000000000000000000 PUSH0 MSTORE PUSH1 0x21 PUSH1 0x4 MSTORE PUSH1 0x24 PUSH0 REVERT JUMPDEST PUSH2 0x1AC0 DUP1 PUSH3 0x227 PUSH0 CODECOPY PUSH0 RETURN INVALID PUSH1 0x80 PUSH1 0x40 MSTORE CALLVALUE DUP1 ISZERO PUSH2 0xF JUMPI PUSH0 DUP1 REVERT JUMPDEST POP PUSH1 0x4 CALLDATASIZE LT PUSH2 0x9C JUMPI PUSH0 CALLDATALOAD PUSH1 0xE0 SHR DUP1 PUSH4 0x8DA5CB5B GT PUSH2 0x64 JUMPI DUP1 PUSH4 0x8DA5CB5B EQ PUSH2 0x11E JUMPI DUP1 PUSH4 0x8E7EA5B2 EQ PUSH2 0x13C JUMPI DUP1 PUSH4 0xF2FDE38B EQ PUSH2 0x15A JUMPI DUP1 PUSH4 0xF4AB9ADF EQ PUSH2 0x176 JUMPI DUP1 PUSH4 0xFD20255C EQ PUSH2 0x192 JUMPI PUSH2 0x9C JUMP JUMPDEST DUP1 PUSH4 0x1E09506D EQ PUSH2 0xA0 JUMPI DUP1 PUSH4 0x2FDAE3C5 EQ PUSH2 0xBE JUMPI DUP1 PUSH4 0x62564C48 EQ PUSH2 0xDA JUMPI DUP1 PUSH4 0x715018A6 EQ PUSH2 0xF8 JUMPI DUP1 PUSH4 0x746536B5 EQ PUSH2 0x102 JUMPI JUMPDEST PUSH0 DUP1 REVERT JUMPDEST PUSH2 0xA8 PUSH2 0x19C JUMP JUMPDEST PUSH1 0x40 MLOAD PUSH2 0xB5 SWAP2 SWAP1 PUSH2 0xF10 JUMP JUMPDEST PUSH1 0x40 MLOAD DUP1 SWAP2 SUB SWAP1 RETURN JUMPDEST PUSH2 0xD8 PUSH1 0x4 DUP1 CALLDATASIZE SUB DUP2 ADD SWAP1 PUSH2 0xD3 SWAP2 SWAP1 PUSH2 0xF92 JUMP JUMPDEST PUSH2 0x1B1 JUMP JUMPDEST STOP JUMPDEST PUSH2 0xE2 PUSH2 0x3BA JUMP JUMPDEST PUSH1 0x40 MLOAD PUSH2 0xEF SWAP2 SWAP1 PUSH2 0x1187 JUMP JUMPDEST PUSH1 0x40 MLOAD DUP1 SWAP2 SUB SWAP1 RETURN JUMPDEST PUSH2 0x100 PUSH2 0x4B9 JUMP JUMPDEST STOP JUMPDEST PUSH2 0x11C PUSH1 0x4 DUP1 CALLDATASIZE SUB DUP2 ADD SWAP1 PUSH2 0x117 SWAP2 SWAP1 PUSH2 0x11D1 JUMP JUMPDEST PUSH2 0x4CC JUMP JUMPDEST STOP JUMPDEST PUSH2 0x126 PUSH2 0x7D8 JUMP JUMPDEST PUSH1 0x40 MLOAD PUSH2 0x133 SWAP2 SWAP1 PUSH2 0x123B JUMP JUMPDEST PUSH1 0x40 MLOAD DUP1 SWAP2 SUB SWAP1 RETURN JUMPDEST PUSH2 0x144 PUSH2 0x7FF JUMP JUMPDEST PUSH1 0x40 MLOAD PUSH2 0x151 SWAP2 SWAP1 PUSH2 0x12A1 JUMP JUMPDEST PUSH1 0x40 MLOAD DUP1 SWAP2 SUB SWAP1 RETURN JUMPDEST PUSH2 0x174 PUSH1 0x4 DUP1 CALLDATASIZE SUB DUP2 ADD SWAP1 PUSH2 0x16F SWAP2 SWAP1 PUSH2 0x12EB JUMP JUMPDEST PUSH2 0xA5F JUMP JUMPDEST STOP JUMPDEST PUSH2 0x190 PUSH1 0x4 DUP1 CALLDATASIZE SUB DUP2 ADD SWAP1 PUSH2 0x18B SWAP2 SWAP1 PUSH2 0x12EB JUMP JUMPDEST PUSH2 0xAE3 JUMP JUMPDEST STOP JUMPDEST PUSH2 0x19A PUSH2 0xBF0 JUMP JUMPDEST STOP JUMPDEST PUSH0 PUSH1 0x5 PUSH0 SWAP1 SLOAD SWAP1 PUSH2 0x100 EXP SWAP1 DIV PUSH1 0xFF AND SWAP1 POP SWAP1 JUMP JUMPDEST PUSH1 0x1 ISZERO ISZERO PUSH1 0x2 PUSH0 CALLER PUSH20 0xFFFFFFFFFFFFFFFFFFFFFFFFFFFFFFFFFFFFFFFF AND PUSH20 0xFFFFFFFFFFFFFFFFFFFFFFFFFFFFFFFFFFFFFFFF AND DUP2 MSTORE PUSH1 0x20 ADD SWAP1 DUP2 MSTORE PUSH1 0x20 ADD PUSH0 KECCAK256 PUSH0 ADD PUSH0 SWAP1 SLOAD SWAP1 PUSH2 0x100 EXP SWAP1 DIV PUSH1 0xFF AND ISZERO ISZERO EQ PUSH2 0x243 JUMPI PUSH1 0x40 MLOAD PUSH32 0x8C379A000000000000000000000000000000000000000000000000000000000 DUP2 MSTORE PUSH1 0x4 ADD PUSH2 0x23A SWAP1 PUSH2 0x1370 JUMP JUMPDEST PUSH1 0x40 MLOAD DUP1 SWAP2 SUB SWAP1 REVERT JUMPDEST PUSH1 0x1 PUSH1 0x3 DUP2 GT ISZERO PUSH2 0x257 JUMPI PUSH2 0x256 PUSH2 0xE9D JUMP JUMPDEST JUMPDEST PUSH1 0x5 PUSH0 SWAP1 SLOAD SWAP1 PUSH2 0x100 EXP SWAP1 DIV PUSH1 0xFF AND PUSH1 0x3 DUP2 GT ISZERO PUSH2 0x278 JUMPI PUSH2 0x277 PUSH2 0xE9D JUMP JUMPDEST JUMPDEST EQ PUSH2 0x2B8 JUMPI PUSH1 0x40 MLOAD PUSH32 0x8C379A000000000000000000000000000000000000000000000000000000000 DUP2 MSTORE PUSH1 0x4 ADD PUSH2 0x2AF SWAP1 PUSH2 0x13D8 JUMP JUMPDEST PUSH1 0x40 MLOAD DUP1 SWAP2 SUB SWAP1 REVERT JUMPDEST PUSH1 0x3 PUSH1 0x40 MLOAD DUP1 PUSH1 0x60 ADD PUSH1 0x40 MSTORE DUP1 PUSH1 0x4 SLOAD DUP2 MSTORE PUSH1 0x20 ADD DUP5 DUP5 DUP1 DUP1 PUSH1 0x1F ADD PUSH1 0x20 DUP1 SWAP2 DIV MUL PUSH1 0x20 ADD PUSH1 0x40 MLOAD SWAP1 DUP2 ADD PUSH1 0x40 MSTORE DUP1 SWAP4 SWAP3 SWAP2 SWAP1 DUP2 DUP2 MSTORE PUSH1 0x20 ADD DUP4 DUP4 DUP1 DUP3 DUP5 CALLDATACOPY PUSH0 DUP2 DUP5 ADD MSTORE PUSH1 0x1F NOT PUSH1 0x1F DUP3 ADD AND SWAP1 POP DUP1 DUP4 ADD SWAP3 POP POP POP POP POP POP POP DUP2 MSTORE PUSH1 0x20 ADD PUSH0 DUP2 MSTORE POP SWAP1 DUP1 PUSH1 0x1 DUP2 SLOAD ADD DUP1 DUP3 SSTORE DUP1 SWAP2 POP POP PUSH1 0x1 SWAP1 SUB SWAP1 PUSH0 MSTORE PUSH1 0x20 PUSH0 KECCAK256 SWAP1 PUSH1 0x3 MUL ADD PUSH0 SWAP1 SWAP2 SWAP1 SWAP2 SWAP1 SWAP2 POP PUSH0 DUP3 ADD MLOAD DUP2 PUSH0 ADD SSTORE PUSH1 0x20 DUP3 ADD MLOAD DUP2 PUSH1 0x1 ADD SWAP1 DUP2 PUSH2 0x35D SWAP2 SWAP1 PUSH2 0x161D JUMP JUMPDEST POP PUSH1 0x40 DUP3 ADD MLOAD DUP2 PUSH1 0x2 ADD SSTORE POP POP PUSH32 0x92E393E9B54E2F801D3EA4BEB0C5E71A21CC34A5D34B77D0FB8A3AA1650DC18F PUSH1 0x4 PUSH0 DUP2 SLOAD DUP1 SWAP3 SWAP2 SWAP1 PUSH2 0x39D SWAP1 PUSH2 0x1719 JUMP JUMPDEST SWAP2 SWAP1 POP SSTORE PUSH1 0x40 MLOAD PUSH2 0x3AE SWAP2 SWAP1 PUSH2 0x176F JUMP JUMPDEST PUSH1 0x40 MLOAD DUP1 SWAP2 SUB SWAP1 LOG1 POP POP JUMP JUMPDEST PUSH1 0x60 PUSH1 0x3 DUP1 SLOAD DUP1 PUSH1 0x20 MUL PUSH1 0x20 ADD PUSH1 0x40 MLOAD SWAP1 DUP2 ADD PUSH1 0x40 MSTORE DUP1 SWAP3 SWAP2 SWAP1 DUP2 DUP2 MSTORE PUSH1 0x20 ADD PUSH0 SWAP1 JUMPDEST DUP3 DUP3 LT ISZERO PUSH2 0x4B0 JUMPI DUP4 DUP3 SWAP1 PUSH0 MSTORE PUSH1 0x20 PUSH0 KECCAK256 SWAP1 PUSH1 0x3 MUL ADD PUSH1 0x40 MLOAD DUP1 PUSH1 0x60 ADD PUSH1 0x40 MSTORE SWAP1 DUP2 PUSH0 DUP3 ADD SLOAD DUP2 MSTORE PUSH1 0x20 ADD PUSH1 0x1 DUP3 ADD DUP1 SLOAD PUSH2 0x417 SWAP1 PUSH2 0x1450 JUMP JUMPDEST DUP1 PUSH1 0x1F ADD PUSH1 0x20 DUP1 SWAP2 DIV MUL PUSH1 0x20 ADD PUSH1 0x40 MLOAD SWAP1 DUP2 ADD PUSH1 0x40 MSTORE DUP1 SWAP3 SWAP2 SWAP1 DUP2 DUP2 MSTORE PUSH1 0x20 ADD DUP3 DUP1 SLOAD PUSH2 0x443 SWAP1 PUSH2 0x1450 JUMP JUMPDEST DUP1 ISZERO PUSH2 0x48E JUMPI DUP1 PUSH1 0x1F LT PUSH2 0x465 JUMPI PUSH2 0x100 DUP1 DUP4 SLOAD DIV MUL DUP4 MSTORE SWAP2 PUSH1 0x20 ADD SWAP2 PUSH2 0x48E JUMP JUMPDEST DUP3 ADD SWAP2 SWAP1 PUSH0 MSTORE PUSH1 0x20 PUSH0 KECCAK256 SWAP1 JUMPDEST DUP2 SLOAD DUP2 MSTORE SWAP1 PUSH1 0x1 ADD SWAP1 PUSH1 0x20 ADD DUP1 DUP4 GT PUSH2 0x471 JUMPI DUP3 SWAP1 SUB PUSH1 0x1F AND DUP3 ADD SWAP2 JUMPDEST POP POP POP POP POP DUP2 MSTORE PUSH1 0x20 ADD PUSH1 0x2 DUP3 ADD SLOAD DUP2 MSTORE POP POP DUP2 MSTORE PUSH1 0x20 ADD SWAP1 PUSH1 0x1 ADD SWAP1 PUSH2 0x3DD JUMP JUMPDEST POP POP POP POP SWAP1 POP SWAP1 JUMP JUMPDEST PUSH2 0x4C1 PUSH2 0xD2F JUMP JUMPDEST PUSH2 0x4CA PUSH0 PUSH2 0xDB6 JUMP JUMPDEST JUMP JUMPDEST PUSH1 0x1 ISZERO ISZERO PUSH1 0x2 PUSH0 CALLER PUSH20 0xFFFFFFFFFFFFFFFFFFFFFFFFFFFFFFFFFFFFFFFF AND PUSH20 0xFFFFFFFFFFFFFFFFFFFFFFFFFFFFFFFFFFFFFFFF AND DUP2 MSTORE PUSH1 0x20 ADD SWAP1 DUP2 MSTORE PUSH1 0x20 ADD PUSH0 KECCAK256 PUSH0 ADD PUSH0 SWAP1 SLOAD SWAP1 PUSH2 0x100 EXP SWAP1 DIV PUSH1 0xFF AND ISZERO ISZERO EQ PUSH2 0x55E JUMPI PUSH1 0x40 MLOAD PUSH32 0x8C379A000000000000000000000000000000000000000000000000000000000 DUP2 MSTORE PUSH1 0x4 ADD PUSH2 0x555 SWAP1 PUSH2 0x1370 JUMP JUMPDEST PUSH1 0x40 MLOAD DUP1 SWAP2 SUB SWAP1 REVERT JUMPDEST PUSH1 0x2 PUSH1 0x3 DUP2 GT ISZERO PUSH2 0x572 JUMPI PUSH2 0x571 PUSH2 0xE9D JUMP JUMPDEST JUMPDEST PUSH1 0x5 PUSH0 SWAP1 SLOAD SWAP1 PUSH2 0x100 EXP SWAP1 DIV PUSH1 0xFF AND PUSH1 0x3 DUP2 GT ISZERO PUSH2 0x593 JUMPI PUSH2 0x592 PUSH2 0xE9D JUMP JUMPDEST JUMPDEST EQ PUSH2 0x5D3 JUMPI PUSH1 0x40 MLOAD PUSH32 0x8C379A000000000000000000000000000000000000000000000000000000000 DUP2 MSTORE PUSH1 0x4 ADD PUSH2 0x5CA SWAP1 PUSH2 0x17D2 JUMP JUMPDEST PUSH1 0x40 MLOAD DUP1 SWAP2 SUB SWAP1 REVERT JUMPDEST PUSH0 ISZERO ISZERO PUSH1 0x2 PUSH0 CALLER PUSH20 0xFFFFFFFFFFFFFFFFFFFFFFFFFFFFFFFFFFFFFFFF AND PUSH20 0xFFFFFFFFFFFFFFFFFFFFFFFFFFFFFFFFFFFFFFFF AND DUP2 MSTORE PUSH1 0x20 ADD SWAP1 DUP2 MSTORE PUSH1 0x20 ADD PUSH0 KECCAK256 PUSH0 ADD PUSH1 0x1 SWAP1 SLOAD SWAP1 PUSH2 0x100 EXP SWAP1 DIV PUSH1 0xFF AND ISZERO ISZERO EQ PUSH2 0x665 JUMPI PUSH1 0x40 MLOAD PUSH32 0x8C379A000000000000000000000000000000000000000000000000000000000 DUP2 MSTORE PUSH1 0x4 ADD PUSH2 0x65C SWAP1 PUSH2 0x183A JUMP JUMPDEST PUSH1 0x40 MLOAD DUP1 SWAP2 SUB SWAP1 REVERT JUMPDEST PUSH1 0x3 DUP2 DUP2 SLOAD DUP2 LT PUSH2 0x679 JUMPI PUSH2 0x678 PUSH2 0x1858 JUMP JUMPDEST JUMPDEST SWAP1 PUSH0 MSTORE PUSH1 0x20 PUSH0 KECCAK256 SWAP1 PUSH1 0x3 MUL ADD PUSH1 0x2 ADD PUSH0 DUP2 SLOAD DUP1 SWAP3 SWAP2 SWAP1 PUSH2 0x698 SWAP1 PUSH2 0x1719 JUMP JUMPDEST SWAP2 SWAP1 POP SSTORE POP PUSH1 0x1 PUSH1 0x2 PUSH0 CALLER PUSH20 0xFFFFFFFFFFFFFFFFFFFFFFFFFFFFFFFFFFFFFFFF AND PUSH20 0xFFFFFFFFFFFFFFFFFFFFFFFFFFFFFFFFFFFFFFFF AND DUP2 MSTORE PUSH1 0x20 ADD SWAP1 DUP2 MSTORE PUSH1 0x20 ADD PUSH0 KECCAK256 PUSH0 ADD PUSH1 0x1 PUSH2 0x100 EXP DUP2 SLOAD DUP2 PUSH1 0xFF MUL NOT AND SWAP1 DUP4 ISZERO ISZERO MUL OR SWAP1 SSTORE POP PUSH1 0x3 DUP2 DUP2 SLOAD DUP2 LT PUSH2 0x709 JUMPI PUSH2 0x708 PUSH2 0x1858 JUMP JUMPDEST JUMPDEST SWAP1 PUSH0 MSTORE PUSH1 0x20 PUSH0 KECCAK256 SWAP1 PUSH1 0x3 MUL ADD PUSH0 ADD SLOAD PUSH1 0x2 PUSH0 CALLER PUSH20 0xFFFFFFFFFFFFFFFFFFFFFFFFFFFFFFFFFFFFFFFF AND PUSH20 0xFFFFFFFFFFFFFFFFFFFFFFFFFFFFFFFFFFFFFFFF AND DUP2 MSTORE PUSH1 0x20 ADD SWAP1 DUP2 MSTORE PUSH1 0x20 ADD PUSH0 KECCAK256 PUSH1 0x1 ADD DUP2 SWAP1 SSTORE POP PUSH32 0x4D99B957A2BC29A30EBD96A7BE8E68FE50A3C701DB28A91436490B7D53870CA4 CALLER PUSH1 0x2 PUSH0 CALLER PUSH20 0xFFFFFFFFFFFFFFFFFFFFFFFFFFFFFFFFFFFFFFFF AND PUSH20 0xFFFFFFFFFFFFFFFFFFFFFFFFFFFFFFFFFFFFFFFF AND DUP2 MSTORE PUSH1 0x20 ADD SWAP1 DUP2 MSTORE PUSH1 0x20 ADD PUSH0 KECCAK256 PUSH1 0x1 ADD SLOAD PUSH1 0x40 MLOAD PUSH2 0x7CD SWAP3 SWAP2 SWAP1 PUSH2 0x1885 JUMP JUMPDEST PUSH1 0x40 MLOAD DUP1 SWAP2 SUB SWAP1 LOG1 POP JUMP JUMPDEST PUSH0 DUP1 PUSH0 SWAP1 SLOAD SWAP1 PUSH2 0x100 EXP SWAP1 DIV PUSH20 0xFFFFFFFFFFFFFFFFFFFFFFFFFFFFFFFFFFFFFFFF AND SWAP1 POP SWAP1 JUMP JUMPDEST PUSH2 0x807 PUSH2 0xE7E JUMP JUMPDEST PUSH1 0x3 DUP1 DUP2 GT ISZERO PUSH2 0x81A JUMPI PUSH2 0x819 PUSH2 0xE9D JUMP JUMPDEST JUMPDEST PUSH1 0x5 PUSH0 SWAP1 SLOAD SWAP1 PUSH2 0x100 EXP SWAP1 DIV PUSH1 0xFF AND PUSH1 0x3 DUP2 GT ISZERO PUSH2 0x83B JUMPI PUSH2 0x83A PUSH2 0xE9D JUMP JUMPDEST JUMPDEST EQ PUSH2 0x87B JUMPI PUSH1 0x40 MLOAD PUSH32 0x8C379A000000000000000000000000000000000000000000000000000000000 DUP2 MSTORE PUSH1 0x4 ADD PUSH2 0x872 SWAP1 PUSH2 0x191C JUMP JUMPDEST PUSH1 0x40 MLOAD DUP1 SWAP2 SUB SWAP1 REVERT JUMPDEST PUSH0 DUP1 JUMPDEST PUSH1 0x3 DUP1 SLOAD SWAP1 POP DUP2 LT ISZERO PUSH2 0x988 JUMPI PUSH0 PUSH1 0x3 DUP3 DUP2 SLOAD DUP2 LT PUSH2 0x8A0 JUMPI PUSH2 0x89F PUSH2 0x1858 JUMP JUMPDEST JUMPDEST SWAP1 PUSH0 MSTORE PUSH1 0x20 PUSH0 KECCAK256 SWAP1 PUSH1 0x3 MUL ADD PUSH1 0x40 MLOAD DUP1 PUSH1 0x60 ADD PUSH1 0x40 MSTORE SWAP1 DUP2 PUSH0 DUP3 ADD SLOAD DUP2 MSTORE PUSH1 0x20 ADD PUSH1 0x1 DUP3 ADD DUP1 SLOAD PUSH2 0x8D0 SWAP1 PUSH2 0x1450 JUMP JUMPDEST DUP1 PUSH1 0x1F ADD PUSH1 0x20 DUP1 SWAP2 DIV MUL PUSH1 0x20 ADD PUSH1 0x40 MLOAD SWAP1 DUP2 ADD PUSH1 0x40 MSTORE DUP1 SWAP3 SWAP2 SWAP1 DUP2 DUP2 MSTORE PUSH1 0x20 ADD DUP3 DUP1 SLOAD PUSH2 0x8FC SWAP1 PUSH2 0x1450 JUMP JUMPDEST DUP1 ISZERO PUSH2 0x947 JUMPI DUP1 PUSH1 0x1F LT PUSH2 0x91E JUMPI PUSH2 0x100 DUP1 DUP4 SLOAD DIV MUL DUP4 MSTORE SWAP2 PUSH1 0x20 ADD SWAP2 PUSH2 0x947 JUMP JUMPDEST DUP3 ADD SWAP2 SWAP1 PUSH0 MSTORE PUSH1 0x20 PUSH0 KECCAK256 SWAP1 JUMPDEST DUP2 SLOAD DUP2 MSTORE SWAP1 PUSH1 0x1 ADD SWAP1 PUSH1 0x20 ADD DUP1 DUP4 GT PUSH2 0x92A JUMPI DUP3 SWAP1 SUB PUSH1 0x1F AND DUP3 ADD SWAP2 JUMPDEST POP POP POP POP POP DUP2 MSTORE PUSH1 0x20 ADD PUSH1 0x2 DUP3 ADD SLOAD DUP2 MSTORE POP POP SWAP1 POP DUP3 DUP2 PUSH1 0x40 ADD MLOAD GT ISZERO PUSH2 0x97A JUMPI DUP1 PUSH0 ADD MLOAD PUSH1 0x1 DUP2 SWAP1 SSTORE POP DUP1 PUSH1 0x40 ADD MLOAD SWAP3 POP JUMPDEST POP DUP1 DUP1 PUSH1 0x1 ADD SWAP2 POP POP PUSH2 0x87E JUMP JUMPDEST POP PUSH1 0x3 PUSH1 0x1 SLOAD DUP2 SLOAD DUP2 LT PUSH2 0x99F JUMPI PUSH2 0x99E PUSH2 0x1858 JUMP JUMPDEST JUMPDEST SWAP1 PUSH0 MSTORE PUSH1 0x20 PUSH0 KECCAK256 SWAP1 PUSH1 0x3 MUL ADD PUSH1 0x40 MLOAD DUP1 PUSH1 0x60 ADD PUSH1 0x40 MSTORE SWAP1 DUP2 PUSH0 DUP3 ADD SLOAD DUP2 MSTORE PUSH1 0x20 ADD PUSH1 0x1 DUP3 ADD DUP1 SLOAD PUSH2 0x9CF SWAP1 PUSH2 0x1450 JUMP JUMPDEST DUP1 PUSH1 0x1F ADD PUSH1 0x20 DUP1 SWAP2 DIV MUL PUSH1 0x20 ADD PUSH1 0x40 MLOAD SWAP1 DUP2 ADD PUSH1 0x40 MSTORE DUP1 SWAP3 SWAP2 SWAP1 DUP2 DUP2 MSTORE PUSH1 0x20 ADD DUP3 DUP1 SLOAD PUSH2 0x9FB SWAP1 PUSH2 0x1450 JUMP JUMPDEST DUP1 ISZERO PUSH2 0xA46 JUMPI DUP1 PUSH1 0x1F LT PUSH2 0xA1D JUMPI PUSH2 0x100 DUP1 DUP4 SLOAD DIV MUL DUP4 MSTORE SWAP2 PUSH1 0x20 ADD SWAP2 PUSH2 0xA46 JUMP JUMPDEST DUP3 ADD SWAP2 SWAP1 PUSH0 MSTORE PUSH1 0x20 PUSH0 KECCAK256 SWAP1 JUMPDEST DUP2 SLOAD DUP2 MSTORE SWAP1 PUSH1 0x1 ADD SWAP1 PUSH1 0x20 ADD DUP1 DUP4 GT PUSH2 0xA29 JUMPI DUP3 SWAP1 SUB PUSH1 0x1F AND DUP3 ADD SWAP2 JUMPDEST POP POP POP POP POP DUP2 MSTORE PUSH1 0x20 ADD PUSH1 0x2 DUP3 ADD SLOAD DUP2 MSTORE POP POP SWAP2 POP POP SWAP1 JUMP JUMPDEST PUSH2 0xA67 PUSH2 0xD2F JUMP JUMPDEST PUSH0 PUSH20 0xFFFFFFFFFFFFFFFFFFFFFFFFFFFFFFFFFFFFFFFF AND DUP2 PUSH20 0xFFFFFFFFFFFFFFFFFFFFFFFFFFFFFFFFFFFFFFFF AND SUB PUSH2 0xAD7 JUMPI PUSH0 PUSH1 0x40 MLOAD PUSH32 0x1E4FBDF700000000000000000000000000000000000000000000000000000000 DUP2 MSTORE PUSH1 0x4 ADD PUSH2 0xACE SWAP2 SWAP1 PUSH2 0x123B JUMP JUMPDEST PUSH1 0x40 MLOAD DUP1 SWAP2 SUB SWAP1 REVERT JUMPDEST PUSH2 0xAE0 DUP2 PUSH2 0xDB6 JUMP JUMPDEST POP JUMP JUMPDEST PUSH2 0xAEB PUSH2 0xD2F JUMP JUMPDEST PUSH0 PUSH1 0x3 DUP2 GT ISZERO PUSH2 0xAFE JUMPI PUSH2 0xAFD PUSH2 0xE9D JUMP JUMPDEST JUMPDEST PUSH1 0x5 PUSH0 SWAP1 SLOAD SWAP1 PUSH2 0x100 EXP SWAP1 DIV PUSH1 0xFF AND PUSH1 0x3 DUP2 GT ISZERO PUSH2 0xB1F JUMPI PUSH2 0xB1E PUSH2 0xE9D JUMP JUMPDEST JUMPDEST EQ PUSH2 0xB5F JUMPI PUSH1 0x40 MLOAD PUSH32 0x8C379A000000000000000000000000000000000000000000000000000000000 DUP2 MSTORE PUSH1 0x4 ADD PUSH2 0xB56 SWAP1 PUSH2 0x1984 JUMP JUMPDEST PUSH1 0x40 MLOAD DUP1 SWAP2 SUB SWAP1 REVERT JUMPDEST PUSH1 0x1 PUSH1 0x2 PUSH0 DUP4 PUSH20 0xFFFFFFFFFFFFFFFFFFFFFFFFFFFFFFFFFFFFFFFF AND PUSH20 0xFFFFFFFFFFFFFFFFFFFFFFFFFFFFFFFFFFFFFFFF AND DUP2 MSTORE PUSH1 0x20 ADD SWAP1 DUP2 MSTORE PUSH1 0x20 ADD PUSH0 KECCAK256 PUSH0 ADD PUSH0 PUSH2 0x100 EXP DUP2 SLOAD DUP2 PUSH1 0xFF MUL NOT AND SWAP1 DUP4 ISZERO ISZERO MUL OR SWAP1 SSTORE POP PUSH32 0xB6BE2187D059CC2A55FE29E0E503B566E1E0F8C8780096E185429350ACFFD3DD DUP2 PUSH1 0x40 MLOAD PUSH2 0xBE5 SWAP2 SWAP1 PUSH2 0x123B JUMP JUMPDEST PUSH1 0x40 MLOAD DUP1 SWAP2 SUB SWAP1 LOG1 POP JUMP JUMPDEST PUSH2 0xBF8 PUSH2 0xD2F JUMP JUMPDEST PUSH1 0x3 DUP1 DUP2 GT ISZERO PUSH2 0xC0B JUMPI PUSH2 0xC0A PUSH2 0xE9D JUMP JUMPDEST JUMPDEST PUSH1 0x5 PUSH0 SWAP1 SLOAD SWAP1 PUSH2 0x100 EXP SWAP1 DIV PUSH1 0xFF AND PUSH1 0x3 DUP2 GT ISZERO PUSH2 0xC2C JUMPI PUSH2 0xC2B PUSH2 0xE9D JUMP JUMPDEST JUMPDEST SUB PUSH2 0xC6C JUMPI PUSH1 0x40 MLOAD PUSH32 0x8C379A000000000000000000000000000000000000000000000000000000000 DUP2 MSTORE PUSH1 0x4 ADD PUSH2 0xC63 SWAP1 PUSH2 0x1A12 JUMP JUMPDEST PUSH1 0x40 MLOAD DUP1 SWAP2 SUB SWAP1 REVERT JUMPDEST PUSH0 PUSH1 0x5 PUSH0 SWAP1 SLOAD SWAP1 PUSH2 0x100 EXP SWAP1 DIV PUSH1 0xFF AND SWAP1 POP PUSH1 0x1 PUSH1 0x5 PUSH0 SWAP1 SLOAD SWAP1 PUSH2 0x100 EXP SWAP1 DIV PUSH1 0xFF AND PUSH1 0x3 DUP2 GT ISZERO PUSH2 0xCA1 JUMPI PUSH2 0xCA0 PUSH2 0xE9D JUMP JUMPDEST JUMPDEST PUSH2 0xCAB SWAP2 SWAP1 PUSH2 0x1A30 JUMP JUMPDEST PUSH1 0x3 DUP2 GT ISZERO PUSH2 0xCBD JUMPI PUSH2 0xCBC PUSH2 0xE9D JUMP JUMPDEST JUMPDEST PUSH1 0x5 PUSH0 PUSH2 0x100 EXP DUP2 SLOAD DUP2 PUSH1 0xFF MUL NOT AND SWAP1 DUP4 PUSH1 0x3 DUP2 GT ISZERO PUSH2 0xCE0 JUMPI PUSH2 0xCDF PUSH2 0xE9D JUMP JUMPDEST JUMPDEST MUL OR SWAP1 SSTORE POP PUSH32 0xA97A4EE45751E2ABF3E4FC8946939630B11B371EA8AE39CCDC3056E98F5CC3F DUP2 PUSH1 0x5 PUSH0 SWAP1 SLOAD SWAP1 PUSH2 0x100 EXP SWAP1 DIV PUSH1 0xFF AND PUSH1 0x40 MLOAD PUSH2 0xD24 SWAP3 SWAP2 SWAP1 PUSH2 0x1A63 JUMP JUMPDEST PUSH1 0x40 MLOAD DUP1 SWAP2 SUB SWAP1 LOG1 POP JUMP JUMPDEST PUSH2 0xD37 PUSH2 0xE77 JUMP JUMPDEST PUSH20 0xFFFFFFFFFFFFFFFFFFFFFFFFFFFFFFFFFFFFFFFF AND PUSH2 0xD55 PUSH2 0x7D8 JUMP JUMPDEST PUSH20 0xFFFFFFFFFFFFFFFFFFFFFFFFFFFFFFFFFFFFFFFF AND EQ PUSH2 0xDB4 JUMPI PUSH2 0xD78 PUSH2 0xE77 JUMP JUMPDEST PUSH1 0x40 MLOAD PUSH32 0x118CDAA700000000000000000000000000000000000000000000000000000000 DUP2 MSTORE PUSH1 0x4 ADD PUSH2 0xDAB SWAP2 SWAP1 PUSH2 0x123B JUMP JUMPDEST PUSH1 0x40 MLOAD DUP1 SWAP2 SUB SWAP1 REVERT JUMPDEST JUMP JUMPDEST PUSH0 DUP1 PUSH0 SWAP1 SLOAD SWAP1 PUSH2 0x100 EXP SWAP1 DIV PUSH20 0xFFFFFFFFFFFFFFFFFFFFFFFFFFFFFFFFFFFFFFFF AND SWAP1 POP DUP2 PUSH0 DUP1 PUSH2 0x100 EXP DUP2 SLOAD DUP2 PUSH20 0xFFFFFFFFFFFFFFFFFFFFFFFFFFFFFFFFFFFFFFFF MUL NOT AND SWAP1 DUP4 PUSH20 0xFFFFFFFFFFFFFFFFFFFFFFFFFFFFFFFFFFFFFFFF AND MUL OR SWAP1 SSTORE POP DUP2 PUSH20 0xFFFFFFFFFFFFFFFFFFFFFFFFFFFFFFFFFFFFFFFF AND DUP2 PUSH20 0xFFFFFFFFFFFFFFFFFFFFFFFFFFFFFFFFFFFFFFFF AND PUSH32 0x8BE0079C531659141344CD1FD0A4F28419497F9722A3DAAFE3B4186F6B6457E0 PUSH1 0x40 MLOAD PUSH1 0x40 MLOAD DUP1 SWAP2 SUB SWAP1 LOG3 POP POP JUMP JUMPDEST PUSH0 CALLER SWAP1 POP SWAP1 JUMP JUMPDEST PUSH1 0x40 MLOAD DUP1 PUSH1 0x60 ADD PUSH1 0x40 MSTORE DUP1 PUSH0 DUP2 MSTORE PUSH1 0x20 ADD PUSH1 0x60 DUP2 MSTORE PUSH1 0x20 ADD PUSH0 DUP2 MSTORE POP SWAP1 JUMP JUMPDEST PUSH32 0x4E487B7100000000000000000000000000000000000000000000000000000000 PUSH0 MSTORE PUSH1 0x21 PUSH1 0x4 MSTORE PUSH1 0x24 PUSH0 REVERT JUMPDEST PUSH1 0x4 DUP2 LT PUSH2 0xEDB JUMPI PUSH2 0xEDA PUSH2 0xE9D JUMP JUMPDEST JUMPDEST POP JUMP JUMPDEST PUSH0 DUP2 SWAP1 POP PUSH2 0xEEB DUP3 PUSH2 0xECA JUMP JUMPDEST SWAP2 SWAP1 POP JUMP JUMPDEST PUSH0 PUSH2 0xEFA DUP3 PUSH2 0xEDE JUMP JUMPDEST SWAP1 POP SWAP2 SWAP1 POP JUMP JUMPDEST PUSH2 0xF0A DUP2 PUSH2 0xEF0 JUMP JUMPDEST DUP3 MSTORE POP POP JUMP JUMPDEST PUSH0 PUSH1 0x20 DUP3 ADD SWAP1 POP PUSH2 0xF23 PUSH0 DUP4 ADD DUP5 PUSH2 0xF01 JUMP JUMPDEST SWAP3 SWAP2 POP POP JUMP JUMPDEST PUSH0 DUP1 REVERT JUMPDEST PUSH0 DUP1 REVERT JUMPDEST PUSH0 DUP1 REVERT JUMPDEST PUSH0 DUP1 REVERT JUMPDEST PUSH0 DUP1 REVERT JUMPDEST PUSH0 DUP1 DUP4 PUSH1 0x1F DUP5 ADD SLT PUSH2 0xF52 JUMPI PUSH2 0xF51 PUSH2 0xF31 JUMP JUMPDEST JUMPDEST DUP3 CALLDATALOAD SWAP1 POP PUSH8 0xFFFFFFFFFFFFFFFF DUP2 GT ISZERO PUSH2 0xF6F JUMPI PUSH2 0xF6E PUSH2 0xF35 JUMP JUMPDEST JUMPDEST PUSH1 0x20 DUP4 ADD SWAP2 POP DUP4 PUSH1 0x1 DUP3 MUL DUP4 ADD GT ISZERO PUSH2 0xF8B JUMPI PUSH2 0xF8A PUSH2 0xF39 JUMP JUMPDEST JUMPDEST SWAP3 POP SWAP3 SWAP1 POP JUMP JUMPDEST PUSH0 DUP1 PUSH1 0x20 DUP4 DUP6 SUB SLT ISZERO PUSH2 0xFA8 JUMPI PUSH2 0xFA7 PUSH2 0xF29 JUMP JUMPDEST JUMPDEST PUSH0 DUP4 ADD CALLDATALOAD PUSH8 0xFFFFFFFFFFFFFFFF DUP2 GT ISZERO PUSH2 0xFC5 JUMPI PUSH2 0xFC4 PUSH2 0xF2D JUMP JUMPDEST JUMPDEST PUSH2 0xFD1 DUP6 DUP3 DUP7 ADD PUSH2 0xF3D JUMP JUMPDEST SWAP3 POP SWAP3 POP POP SWAP3 POP SWAP3 SWAP1 POP JUMP JUMPDEST PUSH0 DUP2 MLOAD SWAP1 POP SWAP2 SWAP1 POP JUMP JUMPDEST PUSH0 DUP3 DUP3 MSTORE PUSH1 0x20 DUP3 ADD SWAP1 POP SWAP3 SWAP2 POP POP JUMP JUMPDEST PUSH0 DUP2 SWAP1 POP PUSH1 0x20 DUP3 ADD SWAP1 POP SWAP2 SWAP1 POP JUMP JUMPDEST PUSH0 DUP2 SWAP1 POP SWAP2 SWAP1 POP JUMP JUMPDEST PUSH2 0x1018 DUP2 PUSH2 0x1006 JUMP JUMPDEST DUP3 MSTORE POP POP JUMP JUMPDEST PUSH0 DUP2 MLOAD SWAP1 POP SWAP2 SWAP1 POP JUMP JUMPDEST PUSH0 DUP3 DUP3 MSTORE PUSH1 0x20 DUP3 ADD SWAP1 POP SWAP3 SWAP2 POP POP JUMP JUMPDEST PUSH0 JUMPDEST DUP4 DUP2 LT ISZERO PUSH2 0x1055 JUMPI DUP1 DUP3 ADD MLOAD DUP2 DUP5 ADD MSTORE PUSH1 0x20 DUP2 ADD SWAP1 POP PUSH2 0x103A JUMP JUMPDEST PUSH0 DUP5 DUP5 ADD MSTORE POP POP POP POP JUMP JUMPDEST PUSH0 PUSH1 0x1F NOT PUSH1 0x1F DUP4 ADD AND SWAP1 POP SWAP2 SWAP1 POP JUMP JUMPDEST PUSH0 PUSH2 0x107A DUP3 PUSH2 0x101E JUMP JUMPDEST PUSH2 0x1084 DUP2 DUP6 PUSH2 0x1028 JUMP JUMPDEST SWAP4 POP PUSH2 0x1094 DUP2 DUP6 PUSH1 0x20 DUP7 ADD PUSH2 0x1038 JUMP JUMPDEST PUSH2 0x109D DUP2 PUSH2 0x1060 JUMP JUMPDEST DUP5 ADD SWAP2 POP POP SWAP3 SWAP2 POP POP JUMP JUMPDEST PUSH0 PUSH1 0x60 DUP4 ADD PUSH0 DUP4 ADD MLOAD PUSH2 0x10BD PUSH0 DUP7 ADD DUP3 PUSH2 0x100F JUMP JUMPDEST POP PUSH1 0x20 DUP4 ADD MLOAD DUP5 DUP3 SUB PUSH1 0x20 DUP7 ADD MSTORE PUSH2 0x10D5 DUP3 DUP3 PUSH2 0x1070 JUMP JUMPDEST SWAP2 POP POP PUSH1 0x40 DUP4 ADD MLOAD PUSH2 0x10EA PUSH1 0x40 DUP7 ADD DUP3 PUSH2 0x100F JUMP JUMPDEST POP DUP1 SWAP2 POP POP SWAP3 SWAP2 POP POP JUMP JUMPDEST PUSH0 PUSH2 0x1100 DUP4 DUP4 PUSH2 0x10A8 JUMP JUMPDEST SWAP1 POP SWAP3 SWAP2 POP POP JUMP JUMPDEST PUSH0 PUSH1 0x20 DUP3 ADD SWAP1 POP SWAP2 SWAP1 POP JUMP JUMPDEST PUSH0 PUSH2 0x111E DUP3 PUSH2 0xFDD JUMP JUMPDEST PUSH2 0x1128 DUP2 DUP6 PUSH2 0xFE7 JUMP JUMPDEST SWAP4 POP DUP4 PUSH1 0x20 DUP3 MUL DUP6 ADD PUSH2 0x113A DUP6 PUSH2 0xFF7 JUMP JUMPDEST DUP1 PUSH0 JUMPDEST DUP6 DUP2 LT ISZERO PUSH2 0x1175 JUMPI DUP5 DUP5 SUB DUP10 MSTORE DUP2 MLOAD PUSH2 0x1156 DUP6 DUP3 PUSH2 0x10F5 JUMP JUMPDEST SWAP5 POP PUSH2 0x1161 DUP4 PUSH2 0x1108 JUMP JUMPDEST SWAP3 POP PUSH1 0x20 DUP11 ADD SWAP10 POP POP PUSH1 0x1 DUP2 ADD SWAP1 POP PUSH2 0x113D JUMP JUMPDEST POP DUP3 SWAP8 POP DUP8 SWAP6 POP POP POP POP POP POP SWAP3 SWAP2 POP POP JUMP JUMPDEST PUSH0 PUSH1 0x20 DUP3 ADD SWAP1 POP DUP2 DUP2 SUB PUSH0 DUP4 ADD MSTORE PUSH2 0x119F DUP2 DUP5 PUSH2 0x1114 JUMP JUMPDEST SWAP1 POP SWAP3 SWAP2 POP POP JUMP JUMPDEST PUSH2 0x11B0 DUP2 PUSH2 0x1006 JUMP JUMPDEST DUP2 EQ PUSH2 0x11BA JUMPI PUSH0 DUP1 REVERT JUMPDEST POP JUMP JUMPDEST PUSH0 DUP2 CALLDATALOAD SWAP1 POP PUSH2 0x11CB DUP2 PUSH2 0x11A7 JUMP JUMPDEST SWAP3 SWAP2 POP POP JUMP JUMPDEST PUSH0 PUSH1 0x20 DUP3 DUP5 SUB SLT ISZERO PUSH2 0x11E6 JUMPI PUSH2 0x11E5 PUSH2 0xF29 JUMP JUMPDEST JUMPDEST PUSH0 PUSH2 0x11F3 DUP5 DUP3 DUP6 ADD PUSH2 0x11BD JUMP JUMPDEST SWAP2 POP POP SWAP3 SWAP2 POP POP JUMP JUMPDEST PUSH0 PUSH20 0xFFFFFFFFFFFFFFFFFFFFFFFFFFFFFFFFFFFFFFFF DUP3 AND SWAP1 POP SWAP2 SWAP1 POP JUMP JUMPDEST PUSH0 PUSH2 0x1225 DUP3 PUSH2 0x11FC JUMP JUMPDEST SWAP1 POP SWAP2 SWAP1 POP JUMP JUMPDEST PUSH2 0x1235 DUP2 PUSH2 0x121B JUMP JUMPDEST DUP3 MSTORE POP POP JUMP JUMPDEST PUSH0 PUSH1 0x20 DUP3 ADD SWAP1 POP PUSH2 0x124E PUSH0 DUP4 ADD DUP5 PUSH2 0x122C JUMP JUMPDEST SWAP3 SWAP2 POP POP JUMP JUMPDEST PUSH0 PUSH1 0x60 DUP4 ADD PUSH0 DUP4 ADD MLOAD PUSH2 0x1269 PUSH0 DUP7 ADD DUP3 PUSH2 0x100F JUMP JUMPDEST POP PUSH1 0x20 DUP4 ADD MLOAD DUP5 DUP3 SUB PUSH1 0x20 DUP7 ADD MSTORE PUSH2 0x1281 DUP3 DUP3 PUSH2 0x1070 JUMP JUMPDEST SWAP2 POP POP PUSH1 0x40 DUP4 ADD MLOAD PUSH2 0x1296 PUSH1 0x40 DUP7 ADD DUP3 PUSH2 0x100F JUMP JUMPDEST POP DUP1 SWAP2 POP POP SWAP3 SWAP2 POP POP JUMP JUMPDEST PUSH0 PUSH1 0x20 DUP3 ADD SWAP1 POP DUP2 DUP2 SUB PUSH0 DUP4 ADD MSTORE PUSH2 0x12B9 DUP2 DUP5 PUSH2 0x1254 JUMP JUMPDEST SWAP1 POP SWAP3 SWAP2 POP POP JUMP JUMPDEST PUSH2 0x12CA DUP2 PUSH2 0x121B JUMP JUMPDEST DUP2 EQ PUSH2 0x12D4 JUMPI PUSH0 DUP1 REVERT JUMPDEST POP JUMP JUMPDEST PUSH0 DUP2 CALLDATALOAD SWAP1 POP PUSH2 0x12E5 DUP2 PUSH2 0x12C1 JUMP JUMPDEST SWAP3 SWAP2 POP POP JUMP JUMPDEST PUSH0 PUSH1 0x20 DUP3 DUP5 SUB SLT ISZERO PUSH2 0x1300 JUMPI PUSH2 0x12FF PUSH2 0xF29 JUMP JUMPDEST JUMPDEST PUSH0 PUSH2 0x130D DUP5 DUP3 DUP6 ADD PUSH2 0x12D7 JUMP JUMPDEST SWAP2 POP POP SWAP3 SWAP2 POP POP JUMP JUMPDEST PUSH0 DUP3 DUP3 MSTORE PUSH1 0x20 DUP3 ADD SWAP1 POP SWAP3 SWAP2 POP POP JUMP JUMPDEST PUSH32 0x596F7520617265206E6F7420612076616C696420766F74657221000000000000 PUSH0 DUP3 ADD MSTORE POP JUMP JUMPDEST PUSH0 PUSH2 0x135A PUSH1 0x1A DUP4 PUSH2 0x1316 JUMP JUMPDEST SWAP2 POP PUSH2 0x1365 DUP3 PUSH2 0x1326 JUMP JUMPDEST PUSH1 0x20 DUP3 ADD SWAP1 POP SWAP2 SWAP1 POP JUMP JUMPDEST PUSH0 PUSH1 0x20 DUP3 ADD SWAP1 POP DUP2 DUP2 SUB PUSH0 DUP4 ADD MSTORE PUSH2 0x1387 DUP2 PUSH2 0x134E JUMP JUMPDEST SWAP1 POP SWAP2 SWAP1 POP JUMP JUMPDEST PUSH32 0x596F752063616E6E6F742072656769737465722070726F706F73616C732E0000 PUSH0 DUP3 ADD MSTORE POP JUMP JUMPDEST PUSH0 PUSH2 0x13C2 PUSH1 0x1E DUP4 PUSH2 0x1316 JUMP JUMPDEST SWAP2 POP PUSH2 0x13CD DUP3 PUSH2 0x138E JUMP JUMPDEST PUSH1 0x20 DUP3 ADD SWAP1 POP SWAP2 SWAP1 POP JUMP JUMPDEST PUSH0 PUSH1 0x20 DUP3 ADD SWAP1 POP DUP2 DUP2 SUB PUSH0 DUP4 ADD MSTORE PUSH2 0x13EF DUP2 PUSH2 0x13B6 JUMP JUMPDEST SWAP1 POP SWAP2 SWAP1 POP JUMP JUMPDEST PUSH32 0x4E487B7100000000000000000000000000000000000000000000000000000000 PUSH0 MSTORE PUSH1 0x41 PUSH1 0x4 MSTORE PUSH1 0x24 PUSH0 REVERT JUMPDEST PUSH32 0x4E487B7100000000000000000000000000000000000000000000000000000000 PUSH0 MSTORE PUSH1 0x22 PUSH1 0x4 MSTORE PUSH1 0x24 PUSH0 REVERT JUMPDEST PUSH0 PUSH1 0x2 DUP3 DIV SWAP1 POP PUSH1 0x1 DUP3 AND DUP1 PUSH2 0x1467 JUMPI PUSH1 0x7F DUP3 AND SWAP2 POP JUMPDEST PUSH1 0x20 DUP3 LT DUP2 SUB PUSH2 0x147A JUMPI PUSH2 0x1479 PUSH2 0x1423 JUMP JUMPDEST JUMPDEST POP SWAP2 SWAP1 POP JUMP JUMPDEST PUSH0 DUP2 SWAP1 POP DUP2 PUSH0 MSTORE PUSH1 0x20 PUSH0 KECCAK256 SWAP1 POP SWAP2 SWAP1 POP JUMP JUMPDEST PUSH0 PUSH1 0x20 PUSH1 0x1F DUP4 ADD DIV SWAP1 POP SWAP2 SWAP1 POP JUMP JUMPDEST PUSH0 DUP3 DUP3 SHL SWAP1 POP SWAP3 SWAP2 POP POP JUMP JUMPDEST PUSH0 PUSH1 0x8 DUP4 MUL PUSH2 0x14DC PUSH32 0xFFFFFFFFFFFFFFFFFFFFFFFFFFFFFFFFFFFFFFFFFFFFFFFFFFFFFFFFFFFFFFFF DUP3 PUSH2 0x14A1 JUMP JUMPDEST PUSH2 0x14E6 DUP7 DUP4 PUSH2 0x14A1 JUMP JUMPDEST SWAP6 POP DUP1 NOT DUP5 AND SWAP4 POP DUP1 DUP7 AND DUP5 OR SWAP3 POP POP POP SWAP4 SWAP3 POP POP POP JUMP JUMPDEST PUSH0 DUP2 SWAP1 POP SWAP2 SWAP1 POP JUMP JUMPDEST PUSH0 PUSH2 0x1521 PUSH2 0x151C PUSH2 0x1517 DUP5 PUSH2 0x1006 JUMP JUMPDEST PUSH2 0x14FE JUMP JUMPDEST PUSH2 0x1006 JUMP JUMPDEST SWAP1 POP SWAP2 SWAP1 POP JUMP JUMPDEST PUSH0 DUP2 SWAP1 POP SWAP2 SWAP1 POP JUMP JUMPDEST PUSH2 0x153A DUP4 PUSH2 0x1507 JUMP JUMPDEST PUSH2 0x154E PUSH2 0x1546 DUP3 PUSH2 0x1528 JUMP JUMPDEST DUP5 DUP5 SLOAD PUSH2 0x14AD JUMP JUMPDEST DUP3 SSTORE POP POP POP POP JUMP JUMPDEST PUSH0 SWAP1 JUMP JUMPDEST PUSH2 0x1562 PUSH2 0x1556 JUMP JUMPDEST PUSH2 0x156D DUP2 DUP5 DUP5 PUSH2 0x1531 JUMP JUMPDEST POP POP POP JUMP JUMPDEST JUMPDEST DUP2 DUP2 LT ISZERO PUSH2 0x1590 JUMPI PUSH2 0x1585 PUSH0 DUP3 PUSH2 0x155A JUMP JUMPDEST PUSH1 0x1 DUP2 ADD SWAP1 POP PUSH2 0x1573 JUMP JUMPDEST POP POP JUMP JUMPDEST PUSH1 0x1F DUP3 GT ISZERO PUSH2 0x15D5 JUMPI PUSH2 0x15A6 DUP2 PUSH2 0x1480 JUMP JUMPDEST PUSH2 0x15AF DUP5 PUSH2 0x1492 JUMP JUMPDEST DUP2 ADD PUSH1 0x20 DUP6 LT ISZERO PUSH2 0x15BE JUMPI DUP2 SWAP1 POP JUMPDEST PUSH2 0x15D2 PUSH2 0x15CA DUP6 PUSH2 0x1492 JUMP JUMPDEST DUP4 ADD DUP3 PUSH2 0x1572 JUMP JUMPDEST POP POP JUMPDEST POP POP POP JUMP JUMPDEST PUSH0 DUP3 DUP3 SHR SWAP1 POP SWAP3 SWAP2 POP POP JUMP JUMPDEST PUSH0 PUSH2 0x15F5 PUSH0 NOT DUP5 PUSH1 0x8 MUL PUSH2 0x15DA JUMP JUMPDEST NOT DUP1 DUP4 AND SWAP2 POP POP SWAP3 SWAP2 POP POP JUMP JUMPDEST PUSH0 PUSH2 0x160D DUP4 DUP4 PUSH2 0x15E6 JUMP JUMPDEST SWAP2 POP DUP3 PUSH1 0x2 MUL DUP3 OR SWAP1 POP SWAP3 SWAP2 POP POP JUMP JUMPDEST PUSH2 0x1626 DUP3 PUSH2 0x101E JUMP JUMPDEST PUSH8 0xFFFFFFFFFFFFFFFF DUP2 GT ISZERO PUSH2 0x163F JUMPI PUSH2 0x163E PUSH2 0x13F6 JUMP JUMPDEST JUMPDEST PUSH2 0x1649 DUP3 SLOAD PUSH2 0x1450 JUMP JUMPDEST PUSH2 0x1654 DUP3 DUP3 DUP6 PUSH2 0x1594 JUMP JUMPDEST PUSH0 PUSH1 0x20 SWAP1 POP PUSH1 0x1F DUP4 GT PUSH1 0x1 DUP2 EQ PUSH2 0x1685 JUMPI PUSH0 DUP5 ISZERO PUSH2 0x1673 JUMPI DUP3 DUP8 ADD MLOAD SWAP1 POP JUMPDEST PUSH2 0x167D DUP6 DUP3 PUSH2 0x1602 JUMP JUMPDEST DUP7 SSTORE POP PUSH2 0x16E4 JUMP JUMPDEST PUSH1 0x1F NOT DUP5 AND PUSH2 0x1693 DUP7 PUSH2 0x1480 JUMP JUMPDEST PUSH0 JUMPDEST DUP3 DUP2 LT ISZERO PUSH2 0x16BA JUMPI DUP5 DUP10 ADD MLOAD DUP3 SSTORE PUSH1 0x1 DUP3 ADD SWAP2 POP PUSH1 0x20 DUP6 ADD SWAP5 POP PUSH1 0x20 DUP2 ADD SWAP1 POP PUSH2 0x1695 JUMP JUMPDEST DUP7 DUP4 LT ISZERO PUSH2 0x16D7 JUMPI DUP5 DUP10 ADD MLOAD PUSH2 0x16D3 PUSH1 0x1F DUP10 AND DUP3 PUSH2 0x15E6 JUMP JUMPDEST DUP4 SSTORE POP JUMPDEST PUSH1 0x1 PUSH1 0x2 DUP9 MUL ADD DUP9 SSTORE POP POP POP JUMPDEST POP POP POP POP POP POP JUMP JUMPDEST PUSH32 0x4E487B7100000000000000000000000000000000000000000000000000000000 PUSH0 MSTORE PUSH1 0x11 PUSH1 0x4 MSTORE PUSH1 0x24 PUSH0 REVERT JUMPDEST PUSH0 PUSH2 0x1723 DUP3 PUSH2 0x1006 JUMP JUMPDEST SWAP2 POP PUSH32 0xFFFFFFFFFFFFFFFFFFFFFFFFFFFFFFFFFFFFFFFFFFFFFFFFFFFFFFFFFFFFFFFF DUP3 SUB PUSH2 0x1755 JUMPI PUSH2 0x1754 PUSH2 0x16EC JUMP JUMPDEST JUMPDEST PUSH1 0x1 DUP3 ADD SWAP1 POP SWAP2 SWAP1 POP JUMP JUMPDEST PUSH2 0x1769 DUP2 PUSH2 0x1006 JUMP JUMPDEST DUP3 MSTORE POP POP JUMP JUMPDEST PUSH0 PUSH1 0x20 DUP3 ADD SWAP1 POP PUSH2 0x1782 PUSH0 DUP4 ADD DUP5 PUSH2 0x1760 JUMP JUMPDEST SWAP3 SWAP2 POP POP JUMP JUMPDEST PUSH32 0x596F752063616E6E6F7420766F74652070726F706F73616C732E000000000000 PUSH0 DUP3 ADD MSTORE POP JUMP JUMPDEST PUSH0 PUSH2 0x17BC PUSH1 0x1A DUP4 PUSH2 0x1316 JUMP JUMPDEST SWAP2 POP PUSH2 0x17C7 DUP3 PUSH2 0x1788 JUMP JUMPDEST PUSH1 0x20 DUP3 ADD SWAP1 POP SWAP2 SWAP1 POP JUMP JUMPDEST PUSH0 PUSH1 0x20 DUP3 ADD SWAP1 POP DUP2 DUP2 SUB PUSH0 DUP4 ADD MSTORE PUSH2 0x17E9 DUP2 PUSH2 0x17B0 JUMP JUMPDEST SWAP1 POP SWAP2 SWAP1 POP JUMP JUMPDEST PUSH32 0x596F7520616C726561647920766F746564210000000000000000000000000000 PUSH0 DUP3 ADD MSTORE POP JUMP JUMPDEST PUSH0 PUSH2 0x1824 PUSH1 0x12 DUP4 PUSH2 0x1316 JUMP JUMPDEST SWAP2 POP PUSH2 0x182F DUP3 PUSH2 0x17F0 JUMP JUMPDEST PUSH1 0x20 DUP3 ADD SWAP1 POP SWAP2 SWAP1 POP JUMP JUMPDEST PUSH0 PUSH1 0x20 DUP3 ADD SWAP1 POP DUP2 DUP2 SUB PUSH0 DUP4 ADD MSTORE PUSH2 0x1851 DUP2 PUSH2 0x1818 JUMP JUMPDEST SWAP1 POP SWAP2 SWAP1 POP JUMP JUMPDEST PUSH32 0x4E487B7100000000000000000000000000000000000000000000000000000000 PUSH0 MSTORE PUSH1 0x32 PUSH1 0x4 MSTORE PUSH1 0x24 PUSH0 REVERT JUMPDEST PUSH0 PUSH1 0x40 DUP3 ADD SWAP1 POP PUSH2 0x1898 PUSH0 DUP4 ADD DUP6 PUSH2 0x122C JUMP JUMPDEST PUSH2 0x18A5 PUSH1 0x20 DUP4 ADD DUP5 PUSH2 0x1760 JUMP JUMPDEST SWAP4 SWAP3 POP POP POP JUMP JUMPDEST PUSH32 0x566F746573206E65656420746F2062652074616C6C69656420696E206F726465 PUSH0 DUP3 ADD MSTORE PUSH32 0x7220746F20646F20746861742E00000000000000000000000000000000000000 PUSH1 0x20 DUP3 ADD MSTORE POP JUMP JUMPDEST PUSH0 PUSH2 0x1906 PUSH1 0x2D DUP4 PUSH2 0x1316 JUMP JUMPDEST SWAP2 POP PUSH2 0x1911 DUP3 PUSH2 0x18AC JUMP JUMPDEST PUSH1 0x40 DUP3 ADD SWAP1 POP SWAP2 SWAP1 POP JUMP JUMPDEST PUSH0 PUSH1 0x20 DUP3 ADD SWAP1 POP DUP2 DUP2 SUB PUSH0 DUP4 ADD MSTORE PUSH2 0x1933 DUP2 PUSH2 0x18FA JUMP JUMPDEST SWAP1 POP SWAP2 SWAP1 POP JUMP JUMPDEST PUSH32 0x596F752063616E6E6F7420726567697374657220766F746572732E0000000000 PUSH0 DUP3 ADD MSTORE POP JUMP JUMPDEST PUSH0 PUSH2 0x196E PUSH1 0x1B DUP4 PUSH2 0x1316 JUMP JUMPDEST SWAP2 POP PUSH2 0x1979 DUP3 PUSH2 0x193A JUMP JUMPDEST PUSH1 0x20 DUP3 ADD SWAP1 POP SWAP2 SWAP1 POP JUMP JUMPDEST PUSH0 PUSH1 0x20 DUP3 ADD SWAP1 POP DUP2 DUP2 SUB PUSH0 DUP4 ADD MSTORE PUSH2 0x199B DUP2 PUSH2 0x1962 JUMP JUMPDEST SWAP1 POP SWAP2 SWAP1 POP JUMP JUMPDEST PUSH32 0x566F7465732073686F756C64206E6F742062652074616C6C69656420696E206F PUSH0 DUP3 ADD MSTORE PUSH32 0x7264657220746F20646F20746861742E00000000000000000000000000000000 PUSH1 0x20 DUP3 ADD MSTORE POP JUMP JUMPDEST PUSH0 PUSH2 0x19FC PUSH1 0x30 DUP4 PUSH2 0x1316 JUMP JUMPDEST SWAP2 POP PUSH2 0x1A07 DUP3 PUSH2 0x19A2 JUMP JUMPDEST PUSH1 0x40 DUP3 ADD SWAP1 POP SWAP2 SWAP1 POP JUMP JUMPDEST PUSH0 PUSH1 0x20 DUP3 ADD SWAP1 POP DUP2 DUP2 SUB PUSH0 DUP4 ADD MSTORE PUSH2 0x1A29 DUP2 PUSH2 0x19F0 JUMP JUMPDEST SWAP1 POP SWAP2 SWAP1 POP JUMP JUMPDEST PUSH0 PUSH2 0x1A3A DUP3 PUSH2 0x1006 JUMP JUMPDEST SWAP2 POP PUSH2 0x1A45 DUP4 PUSH2 0x1006 JUMP JUMPDEST SWAP3 POP DUP3 DUP3 ADD SWAP1 POP DUP1 DUP3 GT ISZERO PUSH2 0x1A5D JUMPI PUSH2 0x1A5C PUSH2 0x16EC JUMP JUMPDEST JUMPDEST SWAP3 SWAP2 POP POP JUMP JUMPDEST PUSH0 PUSH1 0x40 DUP3 ADD SWAP1 POP PUSH2 0x1A76 PUSH0 DUP4 ADD DUP6 PUSH2 0xF01 JUMP JUMPDEST PUSH2 0x1A83 PUSH1 0x20 DUP4 ADD DUP5 PUSH2 0xF01 JUMP JUMPDEST SWAP4 SWAP3 POP POP POP JUMP INVALID LOG2 PUSH5 0x6970667358 0x22 SLT KECCAK256 SAR 0xBA 0xB2 BALANCE 0x21 JUMPDEST PUSH4 0x8ED7CCC8 SWAP13 0xCD SWAP8 0xAA 0xCA 0x1F PUSH17 0xD7507DB6B8AAA7C060DF9C7CD58764736F PUSH13 0x63430008170033000000000000 "
				},
				"gasEstimates": {
					"creation": {
						"codeDepositCost": "1369600",
						"executionCost": "infinite",
						"totalCost": "infinite"
					},
					"external": {
						"addProposal(string)": "infinite",
						"addVoter(address)": "infinite",
						"getProposals()": "infinite",
						"getVoteStep()": "2562",
						"getWinner()": "infinite",
						"nextVoteStep()": "infinite",
						"owner()": "2515",
						"renounceOwnership()": "infinite",
						"transferOwnership(address)": "infinite",
						"voteForProposition(uint256)": "infinite"
					}
				},
				"methodIdentifiers": {
					"addProposal(string)": "2fdae3c5",
					"addVoter(address)": "f4ab9adf",
					"getProposals()": "62564c48",
					"getVoteStep()": "1e09506d",
					"getWinner()": "8e7ea5b2",
					"nextVoteStep()": "fd20255c",
					"owner()": "8da5cb5b",
					"renounceOwnership()": "715018a6",
					"transferOwnership(address)": "f2fde38b",
					"voteForProposition(uint256)": "746536b5"
				}
			},
			"storageLayout": {
				"storage": [
					{
						"astId": 381,
						"contract": "VotingPlus.sol:Voting",
						"label": "_owner",
						"offset": 0,
						"slot": "0",
						"type": "t_address"
					},
					{
						"astId": 31,
						"contract": "VotingPlus.sol:Voting",
						"label": "winningProposalId",
						"offset": 0,
						"slot": "1",
						"type": "t_uint256"
					},
					{
						"astId": 45,
						"contract": "VotingPlus.sol:Voting",
						"label": "voters",
						"offset": 0,
						"slot": "2",
						"type": "t_mapping(t_address,t_struct(Voter)39_storage)"
					},
					{
						"astId": 90,
						"contract": "VotingPlus.sol:Voting",
						"label": "proposals",
						"offset": 0,
						"slot": "3",
						"type": "t_array(t_struct(Proposal)85_storage)dyn_storage"
					},
					{
						"astId": 93,
						"contract": "VotingPlus.sol:Voting",
						"label": "proposalIdCounter",
						"offset": 0,
						"slot": "4",
						"type": "t_uint256"
					},
					{
						"astId": 103,
						"contract": "VotingPlus.sol:Voting",
						"label": "currentVoteState",
						"offset": 0,
						"slot": "5",
						"type": "t_enum(WorkflowStatus)99"
					}
				],
				"types": {
					"t_address": {
						"encoding": "inplace",
						"label": "address",
						"numberOfBytes": "20"
					},
					"t_array(t_struct(Proposal)85_storage)dyn_storage": {
						"base": "t_struct(Proposal)85_storage",
						"encoding": "dynamic_array",
						"label": "struct Voting.Proposal[]",
						"numberOfBytes": "32"
					},
					"t_bool": {
						"encoding": "inplace",
						"label": "bool",
						"numberOfBytes": "1"
					},
					"t_enum(WorkflowStatus)99": {
						"encoding": "inplace",
						"label": "enum Voting.WorkflowStatus",
						"numberOfBytes": "1"
					},
					"t_mapping(t_address,t_struct(Voter)39_storage)": {
						"encoding": "mapping",
						"key": "t_address",
						"label": "mapping(address => struct Voting.Voter)",
						"numberOfBytes": "32",
						"value": "t_struct(Voter)39_storage"
					},
					"t_string_storage": {
						"encoding": "bytes",
						"label": "string",
						"numberOfBytes": "32"
					},
					"t_struct(Proposal)85_storage": {
						"encoding": "inplace",
						"label": "struct Voting.Proposal",
						"members": [
							{
								"astId": 80,
								"contract": "VotingPlus.sol:Voting",
								"label": "id",
								"offset": 0,
								"slot": "0",
								"type": "t_uint256"
							},
							{
								"astId": 82,
								"contract": "VotingPlus.sol:Voting",
								"label": "description",
								"offset": 0,
								"slot": "1",
								"type": "t_string_storage"
							},
							{
								"astId": 84,
								"contract": "VotingPlus.sol:Voting",
								"label": "voteCount",
								"offset": 0,
								"slot": "2",
								"type": "t_uint256"
							}
						],
						"numberOfBytes": "96"
					},
					"t_struct(Voter)39_storage": {
						"encoding": "inplace",
						"label": "struct Voting.Voter",
						"members": [
							{
								"astId": 34,
								"contract": "VotingPlus.sol:Voting",
								"label": "isRegistered",
								"offset": 0,
								"slot": "0",
								"type": "t_bool"
							},
							{
								"astId": 36,
								"contract": "VotingPlus.sol:Voting",
								"label": "hasVoted",
								"offset": 1,
								"slot": "0",
								"type": "t_bool"
							},
							{
								"astId": 38,
								"contract": "VotingPlus.sol:Voting",
								"label": "votedProposalId",
								"offset": 0,
								"slot": "1",
								"type": "t_uint256"
							}
						],
						"numberOfBytes": "64"
					},
					"t_uint256": {
						"encoding": "inplace",
						"label": "uint256",
						"numberOfBytes": "32"
					}
				}
			},
			"userdoc": {
				"events": {
					"VoterRegistered(address)": {
						"notice": "Events"
					}
				},
				"kind": "user",
				"methods": {
					"constructor": {
						"notice": "Contract code"
					}
				},
				"notice": "You can use this contract for only the most basic simulation",
				"version": 1
			}
		}
	}
}