{
	"Voting.sol": {
		"Voting": {
			"abi": [
				{
					"inputs": [],
					"stateMutability": "nonpayable",
					"type": "constructor"
				},
				{
					"inputs": [
						{
							"internalType": "address",
							"name": "owner",
							"type": "address"
						}
					],
					"name": "OwnableInvalidOwner",
					"type": "error"
				},
				{
					"inputs": [
						{
							"internalType": "address",
							"name": "account",
							"type": "address"
						}
					],
					"name": "OwnableUnauthorizedAccount",
					"type": "error"
				},
				{
					"anonymous": false,
					"inputs": [
						{
							"indexed": true,
							"internalType": "address",
							"name": "previousOwner",
							"type": "address"
						},
						{
							"indexed": true,
							"internalType": "address",
							"name": "newOwner",
							"type": "address"
						}
					],
					"name": "OwnershipTransferred",
					"type": "event"
				},
				{
					"anonymous": false,
					"inputs": [
						{
							"indexed": false,
							"internalType": "uint256",
							"name": "proposalId",
							"type": "uint256"
						}
					],
					"name": "ProposalRegistered",
					"type": "event"
				},
				{
					"anonymous": false,
					"inputs": [],
					"name": "VoteIsOver",
					"type": "event"
				},
				{
					"anonymous": false,
					"inputs": [
						{
							"indexed": false,
							"internalType": "address",
							"name": "voter",
							"type": "address"
						},
						{
							"indexed": false,
							"internalType": "uint256",
							"name": "proposalId",
							"type": "uint256"
						}
					],
					"name": "Voted",
					"type": "event"
				},
				{
					"anonymous": false,
					"inputs": [
						{
							"indexed": false,
							"internalType": "address",
							"name": "voterAddress",
							"type": "address"
						}
					],
					"name": "VoterRegistered",
					"type": "event"
				},
				{
					"anonymous": false,
					"inputs": [
						{
							"indexed": false,
							"internalType": "enum Voting.WorkflowStatus",
							"name": "previousStatus",
							"type": "uint8"
						},
						{
							"indexed": false,
							"internalType": "enum Voting.WorkflowStatus",
							"name": "newStatus",
							"type": "uint8"
						}
					],
					"name": "WorkflowStatusChange",
					"type": "event"
				},
				{
					"inputs": [
						{
							"internalType": "address",
							"name": "_address",
							"type": "address"
						}
					],
					"name": "addVoter",
					"outputs": [],
					"stateMutability": "nonpayable",
					"type": "function"
				},
				{
					"inputs": [],
					"name": "getVoteStep",
					"outputs": [
						{
							"internalType": "enum Voting.WorkflowStatus",
							"name": "",
							"type": "uint8"
						}
					],
					"stateMutability": "view",
					"type": "function"
				},
				{
					"inputs": [],
					"name": "getWinner",
					"outputs": [
						{
							"internalType": "address",
							"name": "",
							"type": "address"
						}
					],
					"stateMutability": "nonpayable",
					"type": "function"
				},
				{
					"inputs": [],
					"name": "nextVoteStep",
					"outputs": [],
					"stateMutability": "nonpayable",
					"type": "function"
				},
				{
					"inputs": [],
					"name": "owner",
					"outputs": [
						{
							"internalType": "address",
							"name": "",
							"type": "address"
						}
					],
					"stateMutability": "view",
					"type": "function"
				},
				{
					"inputs": [],
					"name": "renounceOwnership",
					"outputs": [],
					"stateMutability": "nonpayable",
					"type": "function"
				},
				{
					"inputs": [],
					"name": "restartVote",
					"outputs": [],
					"stateMutability": "nonpayable",
					"type": "function"
				},
				{
					"inputs": [
						{
							"internalType": "address",
							"name": "newOwner",
							"type": "address"
						}
					],
					"name": "transferOwnership",
					"outputs": [],
					"stateMutability": "nonpayable",
					"type": "function"
				}
			],
			"devdoc": {
				"errors": {
					"OwnableInvalidOwner(address)": [
						{
							"details": "The owner is not a valid owner account. (eg. `address(0)`)"
						}
					],
					"OwnableUnauthorizedAccount(address)": [
						{
							"details": "The caller account is not authorized to perform an operation."
						}
					]
				},
				"kind": "dev",
				"methods": {
					"owner()": {
						"details": "Returns the address of the current owner."
					},
					"renounceOwnership()": {
						"details": "Leaves the contract without owner. It will not be possible to call `onlyOwner` functions. Can only be called by the current owner. NOTE: Renouncing ownership will leave the contract without an owner, thereby disabling any functionality that is only available to the owner."
					},
					"transferOwnership(address)": {
						"details": "Transfers ownership of the contract to a new account (`newOwner`). Can only be called by the current owner."
					}
				},
				"version": 1
			},
			"evm": {
				"assembly": "    /* \"Voting.sol\":164:2801  contract Voting is Ownable {... */\n  mstore(0x40, 0x80)\n    /* \"Voting.sol\":1939:2041  constructor() Ownable(msg.sender) {... */\n  callvalue\n  dup1\n  iszero\n  tag_1\n  jumpi\n  0x00\n  dup1\n  revert\ntag_1:\n  pop\n    /* \"Voting.sol\":1961:1971  msg.sender */\n  caller\n    /* \"https://github.com/OpenZeppelin/openzeppelin-contracts/blob/master/contracts/access/Ownable.sol\":1297:1298  0 */\n  0x00\n    /* \"https://github.com/OpenZeppelin/openzeppelin-contracts/blob/master/contracts/access/Ownable.sol\":1273:1299  initialOwner == address(0) */\n  0xffffffffffffffffffffffffffffffffffffffff\n  and\n    /* \"https://github.com/OpenZeppelin/openzeppelin-contracts/blob/master/contracts/access/Ownable.sol\":1273:1285  initialOwner */\n  dup2\n    /* \"https://github.com/OpenZeppelin/openzeppelin-contracts/blob/master/contracts/access/Ownable.sol\":1273:1299  initialOwner == address(0) */\n  0xffffffffffffffffffffffffffffffffffffffff\n  and\n  sub\n    /* \"https://github.com/OpenZeppelin/openzeppelin-contracts/blob/master/contracts/access/Ownable.sol\":1269:1364  if (initialOwner == address(0)) {... */\n  tag_5\n  jumpi\n    /* \"https://github.com/OpenZeppelin/openzeppelin-contracts/blob/master/contracts/access/Ownable.sol\":1350:1351  0 */\n  0x00\n    /* \"https://github.com/OpenZeppelin/openzeppelin-contracts/blob/master/contracts/access/Ownable.sol\":1322:1353  OwnableInvalidOwner(address(0)) */\n  mload(0x40)\n  0x1e4fbdf700000000000000000000000000000000000000000000000000000000\n  dup2\n  mstore\n  0x04\n  add\n  tag_6\n  swap2\n  swap1\n  tag_7\n  jump\t// in\ntag_6:\n  mload(0x40)\n  dup1\n  swap2\n  sub\n  swap1\n  revert\n    /* \"https://github.com/OpenZeppelin/openzeppelin-contracts/blob/master/contracts/access/Ownable.sol\":1269:1364  if (initialOwner == address(0)) {... */\ntag_5:\n    /* \"https://github.com/OpenZeppelin/openzeppelin-contracts/blob/master/contracts/access/Ownable.sol\":1373:1405  _transferOwnership(initialOwner) */\n  tag_8\n    /* \"https://github.com/OpenZeppelin/openzeppelin-contracts/blob/master/contracts/access/Ownable.sol\":1392:1404  initialOwner */\n  dup2\n    /* \"https://github.com/OpenZeppelin/openzeppelin-contracts/blob/master/contracts/access/Ownable.sol\":1373:1391  _transferOwnership */\n  shl(0x20, tag_9)\n    /* \"https://github.com/OpenZeppelin/openzeppelin-contracts/blob/master/contracts/access/Ownable.sol\":1373:1405  _transferOwnership(initialOwner) */\n  0x20\n  shr\n  jump\t// in\ntag_8:\n    /* \"https://github.com/OpenZeppelin/openzeppelin-contracts/blob/master/contracts/access/Ownable.sol\":1225:1412  constructor(address initialOwner) {... */\n  pop\n    /* \"Voting.sol\":2002:2034  WorkflowStatus.RegisteringVoters */\n  0x00\n    /* \"Voting.sol\":1983:1999  currentVoteState */\n  0x03\n  0x00\n    /* \"Voting.sol\":1983:2034  currentVoteState = WorkflowStatus.RegisteringVoters */\n  0x0100\n  exp\n  dup2\n  sload\n  dup2\n  0xff\n  mul\n  not\n  and\n  swap1\n  dup4\n  0x05\n  dup2\n  gt\n  iszero\n  tag_11\n  jumpi\n  tag_12\n  tag_13\n  jump\t// in\ntag_12:\ntag_11:\n  mul\n  or\n  swap1\n  sstore\n  pop\n    /* \"Voting.sol\":164:2801  contract Voting is Ownable {... */\n  jump(tag_14)\n    /* \"https://github.com/OpenZeppelin/openzeppelin-contracts/blob/master/contracts/access/Ownable.sol\":2912:3099  function _transferOwnership(address newOwner) internal virtual {... */\ntag_9:\n    /* \"https://github.com/OpenZeppelin/openzeppelin-contracts/blob/master/contracts/access/Ownable.sol\":2985:3001  address oldOwner */\n  0x00\n    /* \"https://github.com/OpenZeppelin/openzeppelin-contracts/blob/master/contracts/access/Ownable.sol\":3004:3010  _owner */\n  dup1\n  0x00\n  swap1\n  sload\n  swap1\n  0x0100\n  exp\n  swap1\n  div\n  0xffffffffffffffffffffffffffffffffffffffff\n  and\n    /* \"https://github.com/OpenZeppelin/openzeppelin-contracts/blob/master/contracts/access/Ownable.sol\":2985:3010  address oldOwner = _owner */\n  swap1\n  pop\n    /* \"https://github.com/OpenZeppelin/openzeppelin-contracts/blob/master/contracts/access/Ownable.sol\":3029:3037  newOwner */\n  dup2\n    /* \"https://github.com/OpenZeppelin/openzeppelin-contracts/blob/master/contracts/access/Ownable.sol\":3020:3026  _owner */\n  0x00\n  dup1\n    /* \"https://github.com/OpenZeppelin/openzeppelin-contracts/blob/master/contracts/access/Ownable.sol\":3020:3037  _owner = newOwner */\n  0x0100\n  exp\n  dup2\n  sload\n  dup2\n  0xffffffffffffffffffffffffffffffffffffffff\n  mul\n  not\n  and\n  swap1\n  dup4\n  0xffffffffffffffffffffffffffffffffffffffff\n  and\n  mul\n  or\n  swap1\n  sstore\n  pop\n    /* \"https://github.com/OpenZeppelin/openzeppelin-contracts/blob/master/contracts/access/Ownable.sol\":3083:3091  newOwner */\n  dup2\n    /* \"https://github.com/OpenZeppelin/openzeppelin-contracts/blob/master/contracts/access/Ownable.sol\":3052:3092  OwnershipTransferred(oldOwner, newOwner) */\n  0xffffffffffffffffffffffffffffffffffffffff\n  and\n    /* \"https://github.com/OpenZeppelin/openzeppelin-contracts/blob/master/contracts/access/Ownable.sol\":3073:3081  oldOwner */\n  dup2\n    /* \"https://github.com/OpenZeppelin/openzeppelin-contracts/blob/master/contracts/access/Ownable.sol\":3052:3092  OwnershipTransferred(oldOwner, newOwner) */\n  0xffffffffffffffffffffffffffffffffffffffff\n  and\n  0x8be0079c531659141344cd1fd0a4f28419497f9722a3daafe3b4186f6b6457e0\n  mload(0x40)\n  mload(0x40)\n  dup1\n  swap2\n  sub\n  swap1\n  log3\n    /* \"https://github.com/OpenZeppelin/openzeppelin-contracts/blob/master/contracts/access/Ownable.sol\":2975:3099  {... */\n  pop\n    /* \"https://github.com/OpenZeppelin/openzeppelin-contracts/blob/master/contracts/access/Ownable.sol\":2912:3099  function _transferOwnership(address newOwner) internal virtual {... */\n  pop\n  jump\t// out\n    /* \"#utility.yul\":7:133   */\ntag_16:\n    /* \"#utility.yul\":44:51   */\n  0x00\n    /* \"#utility.yul\":84:126   */\n  0xffffffffffffffffffffffffffffffffffffffff\n    /* \"#utility.yul\":77:82   */\n  dup3\n    /* \"#utility.yul\":73:127   */\n  and\n    /* \"#utility.yul\":62:127   */\n  swap1\n  pop\n    /* \"#utility.yul\":7:133   */\n  swap2\n  swap1\n  pop\n  jump\t// out\n    /* \"#utility.yul\":139:235   */\ntag_17:\n    /* \"#utility.yul\":176:183   */\n  0x00\n    /* \"#utility.yul\":205:229   */\n  tag_22\n    /* \"#utility.yul\":223:228   */\n  dup3\n    /* \"#utility.yul\":205:229   */\n  tag_16\n  jump\t// in\ntag_22:\n    /* \"#utility.yul\":194:229   */\n  swap1\n  pop\n    /* \"#utility.yul\":139:235   */\n  swap2\n  swap1\n  pop\n  jump\t// out\n    /* \"#utility.yul\":241:359   */\ntag_18:\n    /* \"#utility.yul\":328:352   */\n  tag_24\n    /* \"#utility.yul\":346:351   */\n  dup2\n    /* \"#utility.yul\":328:352   */\n  tag_17\n  jump\t// in\ntag_24:\n    /* \"#utility.yul\":323:326   */\n  dup3\n    /* \"#utility.yul\":316:353   */\n  mstore\n    /* \"#utility.yul\":241:359   */\n  pop\n  pop\n  jump\t// out\n    /* \"#utility.yul\":365:587   */\ntag_7:\n    /* \"#utility.yul\":458:462   */\n  0x00\n    /* \"#utility.yul\":496:498   */\n  0x20\n    /* \"#utility.yul\":485:494   */\n  dup3\n    /* \"#utility.yul\":481:499   */\n  add\n    /* \"#utility.yul\":473:499   */\n  swap1\n  pop\n    /* \"#utility.yul\":509:580   */\n  tag_26\n    /* \"#utility.yul\":577:578   */\n  0x00\n    /* \"#utility.yul\":566:575   */\n  dup4\n    /* \"#utility.yul\":562:579   */\n  add\n    /* \"#utility.yul\":553:559   */\n  dup5\n    /* \"#utility.yul\":509:580   */\n  tag_18\n  jump\t// in\ntag_26:\n    /* \"#utility.yul\":365:587   */\n  swap3\n  swap2\n  pop\n  pop\n  jump\t// out\n    /* \"#utility.yul\":593:773   */\ntag_13:\n    /* \"#utility.yul\":641:718   */\n  0x4e487b7100000000000000000000000000000000000000000000000000000000\n    /* \"#utility.yul\":638:639   */\n  0x00\n    /* \"#utility.yul\":631:719   */\n  mstore\n    /* \"#utility.yul\":738:742   */\n  0x21\n    /* \"#utility.yul\":735:736   */\n  0x04\n    /* \"#utility.yul\":728:743   */\n  mstore\n    /* \"#utility.yul\":762:766   */\n  0x24\n    /* \"#utility.yul\":759:760   */\n  0x00\n    /* \"#utility.yul\":752:767   */\n  revert\n    /* \"Voting.sol\":164:2801  contract Voting is Ownable {... */\ntag_14:\n  dataSize(sub_0)\n  dup1\n  dataOffset(sub_0)\n  0x00\n  codecopy\n  0x00\n  return\nstop\n\nsub_0: assembly {\n        /* \"Voting.sol\":164:2801  contract Voting is Ownable {... */\n      mstore(0x40, 0x80)\n      callvalue\n      dup1\n      iszero\n      tag_1\n      jumpi\n      0x00\n      dup1\n      revert\n    tag_1:\n      pop\n      jumpi(tag_2, lt(calldatasize, 0x04))\n      shr(0xe0, calldataload(0x00))\n      dup1\n      0xb126f771\n      gt\n      tag_11\n      jumpi\n      dup1\n      0xb126f771\n      eq\n      tag_7\n      jumpi\n      dup1\n      0xf2fde38b\n      eq\n      tag_8\n      jumpi\n      dup1\n      0xf4ab9adf\n      eq\n      tag_9\n      jumpi\n      dup1\n      0xfd20255c\n      eq\n      tag_10\n      jumpi\n      jump(tag_2)\n    tag_11:\n      dup1\n      0x1e09506d\n      eq\n      tag_3\n      jumpi\n      dup1\n      0x715018a6\n      eq\n      tag_4\n      jumpi\n      dup1\n      0x8da5cb5b\n      eq\n      tag_5\n      jumpi\n      dup1\n      0x8e7ea5b2\n      eq\n      tag_6\n      jumpi\n    tag_2:\n      0x00\n      dup1\n      revert\n        /* \"Voting.sol\":2048:2150  function getVoteStep() external view returns (WorkflowStatus) {... */\n    tag_3:\n      tag_12\n      tag_13\n      jump\t// in\n    tag_12:\n      mload(0x40)\n      tag_14\n      swap2\n      swap1\n      tag_15\n      jump\t// in\n    tag_14:\n      mload(0x40)\n      dup1\n      swap2\n      sub\n      swap1\n      return\n        /* \"https://github.com/OpenZeppelin/openzeppelin-contracts/blob/master/contracts/access/Ownable.sol\":2293:2394  function renounceOwnership() public virtual onlyOwner {... */\n    tag_4:\n      tag_16\n      tag_17\n      jump\t// in\n    tag_16:\n      stop\n        /* \"https://github.com/OpenZeppelin/openzeppelin-contracts/blob/master/contracts/access/Ownable.sol\":1638:1723  function owner() public view virtual returns (address) {... */\n    tag_5:\n      tag_18\n      tag_19\n      jump\t// in\n    tag_18:\n      mload(0x40)\n      tag_20\n      swap2\n      swap1\n      tag_21\n      jump\t// in\n    tag_20:\n      mload(0x40)\n      dup1\n      swap2\n      sub\n      swap1\n      return\n        /* \"Voting.sol\":2730:2799  function getWinner() external votesTallied returns (address) {... */\n    tag_6:\n      tag_22\n      tag_23\n      jump\t// in\n    tag_22:\n      mload(0x40)\n      tag_24\n      swap2\n      swap1\n      tag_21\n      jump\t// in\n    tag_24:\n      mload(0x40)\n      dup1\n      swap2\n      sub\n      swap1\n      return\n        /* \"Voting.sol\":2428:2551  function restartVote() external onlyOwner votesTallied {... */\n    tag_7:\n      tag_25\n      tag_26\n      jump\t// in\n    tag_25:\n      stop\n        /* \"https://github.com/OpenZeppelin/openzeppelin-contracts/blob/master/contracts/access/Ownable.sol\":2543:2758  function transferOwnership(address newOwner) public virtual onlyOwner {... */\n    tag_8:\n      tag_27\n      0x04\n      dup1\n      calldatasize\n      sub\n      dup2\n      add\n      swap1\n      tag_28\n      swap2\n      swap1\n      tag_29\n      jump\t// in\n    tag_28:\n      tag_30\n      jump\t// in\n    tag_27:\n      stop\n        /* \"Voting.sol\":2557:2723  function addVoter(address _address) external onlyOwner registeringVoters {... */\n    tag_9:\n      tag_31\n      0x04\n      dup1\n      calldatasize\n      sub\n      dup2\n      add\n      swap1\n      tag_32\n      swap2\n      swap1\n      tag_29\n      jump\t// in\n    tag_32:\n      tag_33\n      jump\t// in\n    tag_31:\n      stop\n        /* \"Voting.sol\":2156:2418  function nextVoteStep() external onlyOwner votesNotTallied {... */\n    tag_10:\n      tag_34\n      tag_35\n      jump\t// in\n    tag_34:\n      stop\n        /* \"Voting.sol\":2048:2150  function getVoteStep() external view returns (WorkflowStatus) {... */\n    tag_13:\n        /* \"Voting.sol\":2094:2108  WorkflowStatus */\n      0x00\n        /* \"Voting.sol\":2127:2143  currentVoteState */\n      0x03\n      0x00\n      swap1\n      sload\n      swap1\n      0x0100\n      exp\n      swap1\n      div\n      0xff\n      and\n        /* \"Voting.sol\":2120:2143  return currentVoteState */\n      swap1\n      pop\n        /* \"Voting.sol\":2048:2150  function getVoteStep() external view returns (WorkflowStatus) {... */\n      swap1\n      jump\t// out\n        /* \"https://github.com/OpenZeppelin/openzeppelin-contracts/blob/master/contracts/access/Ownable.sol\":2293:2394  function renounceOwnership() public virtual onlyOwner {... */\n    tag_17:\n        /* \"https://github.com/OpenZeppelin/openzeppelin-contracts/blob/master/contracts/access/Ownable.sol\":1531:1544  _checkOwner() */\n      tag_38\n        /* \"https://github.com/OpenZeppelin/openzeppelin-contracts/blob/master/contracts/access/Ownable.sol\":1531:1542  _checkOwner */\n      tag_39\n        /* \"https://github.com/OpenZeppelin/openzeppelin-contracts/blob/master/contracts/access/Ownable.sol\":1531:1544  _checkOwner() */\n      jump\t// in\n    tag_38:\n        /* \"https://github.com/OpenZeppelin/openzeppelin-contracts/blob/master/contracts/access/Ownable.sol\":2357:2387  _transferOwnership(address(0)) */\n      tag_41\n        /* \"https://github.com/OpenZeppelin/openzeppelin-contracts/blob/master/contracts/access/Ownable.sol\":2384:2385  0 */\n      0x00\n        /* \"https://github.com/OpenZeppelin/openzeppelin-contracts/blob/master/contracts/access/Ownable.sol\":2357:2375  _transferOwnership */\n      tag_42\n        /* \"https://github.com/OpenZeppelin/openzeppelin-contracts/blob/master/contracts/access/Ownable.sol\":2357:2387  _transferOwnership(address(0)) */\n      jump\t// in\n    tag_41:\n        /* \"https://github.com/OpenZeppelin/openzeppelin-contracts/blob/master/contracts/access/Ownable.sol\":2293:2394  function renounceOwnership() public virtual onlyOwner {... */\n      jump\t// out\n        /* \"https://github.com/OpenZeppelin/openzeppelin-contracts/blob/master/contracts/access/Ownable.sol\":1638:1723  function owner() public view virtual returns (address) {... */\n    tag_19:\n        /* \"https://github.com/OpenZeppelin/openzeppelin-contracts/blob/master/contracts/access/Ownable.sol\":1684:1691  address */\n      0x00\n        /* \"https://github.com/OpenZeppelin/openzeppelin-contracts/blob/master/contracts/access/Ownable.sol\":1710:1716  _owner */\n      dup1\n      0x00\n      swap1\n      sload\n      swap1\n      0x0100\n      exp\n      swap1\n      div\n      0xffffffffffffffffffffffffffffffffffffffff\n      and\n        /* \"https://github.com/OpenZeppelin/openzeppelin-contracts/blob/master/contracts/access/Ownable.sol\":1703:1716  return _owner */\n      swap1\n      pop\n        /* \"https://github.com/OpenZeppelin/openzeppelin-contracts/blob/master/contracts/access/Ownable.sol\":1638:1723  function owner() public view virtual returns (address) {... */\n      swap1\n      jump\t// out\n        /* \"Voting.sol\":2730:2799  function getWinner() external votesTallied returns (address) {... */\n    tag_23:\n        /* \"Voting.sol\":2782:2789  address */\n      0x00\n        /* \"Voting.sol\":1185:1212  WorkflowStatus.VotesTallied */\n      0x05\n        /* \"Voting.sol\":1165:1212  currentVoteState == WorkflowStatus.VotesTallied */\n      dup1\n      dup2\n      gt\n      iszero\n      tag_45\n      jumpi\n      tag_46\n      tag_47\n      jump\t// in\n    tag_46:\n    tag_45:\n        /* \"Voting.sol\":1165:1181  currentVoteState */\n      0x03\n      0x00\n      swap1\n      sload\n      swap1\n      0x0100\n      exp\n      swap1\n      div\n      0xff\n      and\n        /* \"Voting.sol\":1165:1212  currentVoteState == WorkflowStatus.VotesTallied */\n      0x05\n      dup2\n      gt\n      iszero\n      tag_48\n      jumpi\n      tag_49\n      tag_47\n      jump\t// in\n    tag_49:\n    tag_48:\n      eq\n        /* \"Voting.sol\":1157:1262  require(currentVoteState == WorkflowStatus.VotesTallied, \"Votes need to be tallied in order to do that.\") */\n      tag_50\n      jumpi\n      mload(0x40)\n      0x08c379a000000000000000000000000000000000000000000000000000000000\n      dup2\n      mstore\n      0x04\n      add\n      tag_51\n      swap1\n      tag_52\n      jump\t// in\n    tag_51:\n      mload(0x40)\n      dup1\n      swap2\n      sub\n      swap1\n      revert\n    tag_50:\n        /* \"Voting.sol\":2730:2799  function getWinner() external votesTallied returns (address) {... */\n      swap1\n      jump\t// out\n        /* \"Voting.sol\":2428:2551  function restartVote() external onlyOwner votesTallied {... */\n    tag_26:\n        /* \"https://github.com/OpenZeppelin/openzeppelin-contracts/blob/master/contracts/access/Ownable.sol\":1531:1544  _checkOwner() */\n      tag_55\n        /* \"https://github.com/OpenZeppelin/openzeppelin-contracts/blob/master/contracts/access/Ownable.sol\":1531:1542  _checkOwner */\n      tag_39\n        /* \"https://github.com/OpenZeppelin/openzeppelin-contracts/blob/master/contracts/access/Ownable.sol\":1531:1544  _checkOwner() */\n      jump\t// in\n    tag_55:\n        /* \"Voting.sol\":1185:1212  WorkflowStatus.VotesTallied */\n      0x05\n        /* \"Voting.sol\":1165:1212  currentVoteState == WorkflowStatus.VotesTallied */\n      dup1\n      dup2\n      gt\n      iszero\n      tag_57\n      jumpi\n      tag_58\n      tag_47\n      jump\t// in\n    tag_58:\n    tag_57:\n        /* \"Voting.sol\":1165:1181  currentVoteState */\n      0x03\n      0x00\n      swap1\n      sload\n      swap1\n      0x0100\n      exp\n      swap1\n      div\n      0xff\n      and\n        /* \"Voting.sol\":1165:1212  currentVoteState == WorkflowStatus.VotesTallied */\n      0x05\n      dup2\n      gt\n      iszero\n      tag_59\n      jumpi\n      tag_60\n      tag_47\n      jump\t// in\n    tag_60:\n    tag_59:\n      eq\n        /* \"Voting.sol\":1157:1262  require(currentVoteState == WorkflowStatus.VotesTallied, \"Votes need to be tallied in order to do that.\") */\n      tag_61\n      jumpi\n      mload(0x40)\n      0x08c379a000000000000000000000000000000000000000000000000000000000\n      dup2\n      mstore\n      0x04\n      add\n      tag_62\n      swap1\n      tag_52\n      jump\t// in\n    tag_62:\n      mload(0x40)\n      dup1\n      swap2\n      sub\n      swap1\n      revert\n    tag_61:\n        /* \"Voting.sol\":2512:2544  WorkflowStatus.RegisteringVoters */\n      0x00\n        /* \"Voting.sol\":2493:2509  currentVoteState */\n      0x03\n      0x00\n        /* \"Voting.sol\":2493:2544  currentVoteState = WorkflowStatus.RegisteringVoters */\n      0x0100\n      exp\n      dup2\n      sload\n      dup2\n      0xff\n      mul\n      not\n      and\n      swap1\n      dup4\n      0x05\n      dup2\n      gt\n      iszero\n      tag_64\n      jumpi\n      tag_65\n      tag_47\n      jump\t// in\n    tag_65:\n    tag_64:\n      mul\n      or\n      swap1\n      sstore\n      pop\n        /* \"Voting.sol\":2428:2551  function restartVote() external onlyOwner votesTallied {... */\n      jump\t// out\n        /* \"https://github.com/OpenZeppelin/openzeppelin-contracts/blob/master/contracts/access/Ownable.sol\":2543:2758  function transferOwnership(address newOwner) public virtual onlyOwner {... */\n    tag_30:\n        /* \"https://github.com/OpenZeppelin/openzeppelin-contracts/blob/master/contracts/access/Ownable.sol\":1531:1544  _checkOwner() */\n      tag_67\n        /* \"https://github.com/OpenZeppelin/openzeppelin-contracts/blob/master/contracts/access/Ownable.sol\":1531:1542  _checkOwner */\n      tag_39\n        /* \"https://github.com/OpenZeppelin/openzeppelin-contracts/blob/master/contracts/access/Ownable.sol\":1531:1544  _checkOwner() */\n      jump\t// in\n    tag_67:\n        /* \"https://github.com/OpenZeppelin/openzeppelin-contracts/blob/master/contracts/access/Ownable.sol\":2647:2648  0 */\n      0x00\n        /* \"https://github.com/OpenZeppelin/openzeppelin-contracts/blob/master/contracts/access/Ownable.sol\":2627:2649  newOwner == address(0) */\n      0xffffffffffffffffffffffffffffffffffffffff\n      and\n        /* \"https://github.com/OpenZeppelin/openzeppelin-contracts/blob/master/contracts/access/Ownable.sol\":2627:2635  newOwner */\n      dup2\n        /* \"https://github.com/OpenZeppelin/openzeppelin-contracts/blob/master/contracts/access/Ownable.sol\":2627:2649  newOwner == address(0) */\n      0xffffffffffffffffffffffffffffffffffffffff\n      and\n      sub\n        /* \"https://github.com/OpenZeppelin/openzeppelin-contracts/blob/master/contracts/access/Ownable.sol\":2623:2714  if (newOwner == address(0)) {... */\n      tag_69\n      jumpi\n        /* \"https://github.com/OpenZeppelin/openzeppelin-contracts/blob/master/contracts/access/Ownable.sol\":2700:2701  0 */\n      0x00\n        /* \"https://github.com/OpenZeppelin/openzeppelin-contracts/blob/master/contracts/access/Ownable.sol\":2672:2703  OwnableInvalidOwner(address(0)) */\n      mload(0x40)\n      0x1e4fbdf700000000000000000000000000000000000000000000000000000000\n      dup2\n      mstore\n      0x04\n      add\n      tag_70\n      swap2\n      swap1\n      tag_21\n      jump\t// in\n    tag_70:\n      mload(0x40)\n      dup1\n      swap2\n      sub\n      swap1\n      revert\n        /* \"https://github.com/OpenZeppelin/openzeppelin-contracts/blob/master/contracts/access/Ownable.sol\":2623:2714  if (newOwner == address(0)) {... */\n    tag_69:\n        /* \"https://github.com/OpenZeppelin/openzeppelin-contracts/blob/master/contracts/access/Ownable.sol\":2723:2751  _transferOwnership(newOwner) */\n      tag_71\n        /* \"https://github.com/OpenZeppelin/openzeppelin-contracts/blob/master/contracts/access/Ownable.sol\":2742:2750  newOwner */\n      dup2\n        /* \"https://github.com/OpenZeppelin/openzeppelin-contracts/blob/master/contracts/access/Ownable.sol\":2723:2741  _transferOwnership */\n      tag_42\n        /* \"https://github.com/OpenZeppelin/openzeppelin-contracts/blob/master/contracts/access/Ownable.sol\":2723:2751  _transferOwnership(newOwner) */\n      jump\t// in\n    tag_71:\n        /* \"https://github.com/OpenZeppelin/openzeppelin-contracts/blob/master/contracts/access/Ownable.sol\":2543:2758  function transferOwnership(address newOwner) public virtual onlyOwner {... */\n      pop\n      jump\t// out\n        /* \"Voting.sol\":2557:2723  function addVoter(address _address) external onlyOwner registeringVoters {... */\n    tag_33:\n        /* \"https://github.com/OpenZeppelin/openzeppelin-contracts/blob/master/contracts/access/Ownable.sol\":1531:1544  _checkOwner() */\n      tag_73\n        /* \"https://github.com/OpenZeppelin/openzeppelin-contracts/blob/master/contracts/access/Ownable.sol\":1531:1542  _checkOwner */\n      tag_39\n        /* \"https://github.com/OpenZeppelin/openzeppelin-contracts/blob/master/contracts/access/Ownable.sol\":1531:1544  _checkOwner() */\n      jump\t// in\n    tag_73:\n        /* \"Voting.sol\":1522:1554  WorkflowStatus.RegisteringVoters */\n      0x00\n        /* \"Voting.sol\":1502:1554  currentVoteState == WorkflowStatus.RegisteringVoters */\n      0x05\n      dup2\n      gt\n      iszero\n      tag_75\n      jumpi\n      tag_76\n      tag_47\n      jump\t// in\n    tag_76:\n    tag_75:\n        /* \"Voting.sol\":1502:1518  currentVoteState */\n      0x03\n      0x00\n      swap1\n      sload\n      swap1\n      0x0100\n      exp\n      swap1\n      div\n      0xff\n      and\n        /* \"Voting.sol\":1502:1554  currentVoteState == WorkflowStatus.RegisteringVoters */\n      0x05\n      dup2\n      gt\n      iszero\n      tag_77\n      jumpi\n      tag_78\n      tag_47\n      jump\t// in\n    tag_78:\n    tag_77:\n      eq\n        /* \"Voting.sol\":1494:1586  require(currentVoteState == WorkflowStatus.RegisteringVoters, \"You cannot register voters.\") */\n      tag_79\n      jumpi\n      mload(0x40)\n      0x08c379a000000000000000000000000000000000000000000000000000000000\n      dup2\n      mstore\n      0x04\n      add\n      tag_80\n      swap1\n      tag_81\n      jump\t// in\n    tag_80:\n      mload(0x40)\n      dup1\n      swap2\n      sub\n      swap1\n      revert\n    tag_79:\n        /* \"Voting.sol\":2672:2676  true */\n      0x01\n        /* \"Voting.sol\":2640:2646  voters */\n      0x02\n        /* \"Voting.sol\":2640:2656  voters[_address] */\n      0x00\n        /* \"Voting.sol\":2647:2655  _address */\n      dup4\n        /* \"Voting.sol\":2640:2656  voters[_address] */\n      0xffffffffffffffffffffffffffffffffffffffff\n      and\n      0xffffffffffffffffffffffffffffffffffffffff\n      and\n      dup2\n      mstore\n      0x20\n      add\n      swap1\n      dup2\n      mstore\n      0x20\n      add\n      0x00\n      keccak256\n        /* \"Voting.sol\":2640:2669  voters[_address].isRegistered */\n      0x00\n      add\n      0x00\n        /* \"Voting.sol\":2640:2676  voters[_address].isRegistered = true */\n      0x0100\n      exp\n      dup2\n      sload\n      dup2\n      0xff\n      mul\n      not\n      and\n      swap1\n      dup4\n      iszero\n      iszero\n      mul\n      or\n      swap1\n      sstore\n      pop\n        /* \"Voting.sol\":2691:2716  VoterRegistered(_address) */\n      0xb6be2187d059cc2a55fe29e0e503b566e1e0f8c8780096e185429350acffd3dd\n        /* \"Voting.sol\":2707:2715  _address */\n      dup2\n        /* \"Voting.sol\":2691:2716  VoterRegistered(_address) */\n      mload(0x40)\n      tag_83\n      swap2\n      swap1\n      tag_21\n      jump\t// in\n    tag_83:\n      mload(0x40)\n      dup1\n      swap2\n      sub\n      swap1\n      log1\n        /* \"Voting.sol\":2557:2723  function addVoter(address _address) external onlyOwner registeringVoters {... */\n      pop\n      jump\t// out\n        /* \"Voting.sol\":2156:2418  function nextVoteStep() external onlyOwner votesNotTallied {... */\n    tag_35:\n        /* \"https://github.com/OpenZeppelin/openzeppelin-contracts/blob/master/contracts/access/Ownable.sol\":1531:1544  _checkOwner() */\n      tag_85\n        /* \"https://github.com/OpenZeppelin/openzeppelin-contracts/blob/master/contracts/access/Ownable.sol\":1531:1542  _checkOwner */\n      tag_39\n        /* \"https://github.com/OpenZeppelin/openzeppelin-contracts/blob/master/contracts/access/Ownable.sol\":1531:1544  _checkOwner() */\n      jump\t// in\n    tag_85:\n        /* \"Voting.sol\":1351:1378  WorkflowStatus.VotesTallied */\n      0x05\n        /* \"Voting.sol\":1331:1378  currentVoteState != WorkflowStatus.VotesTallied */\n      dup1\n      dup2\n      gt\n      iszero\n      tag_87\n      jumpi\n      tag_88\n      tag_47\n      jump\t// in\n    tag_88:\n    tag_87:\n        /* \"Voting.sol\":1331:1347  currentVoteState */\n      0x03\n      0x00\n      swap1\n      sload\n      swap1\n      0x0100\n      exp\n      swap1\n      div\n      0xff\n      and\n        /* \"Voting.sol\":1331:1378  currentVoteState != WorkflowStatus.VotesTallied */\n      0x05\n      dup2\n      gt\n      iszero\n      tag_89\n      jumpi\n      tag_90\n      tag_47\n      jump\t// in\n    tag_90:\n    tag_89:\n      sub\n        /* \"Voting.sol\":1323:1431  require(currentVoteState != WorkflowStatus.VotesTallied, \"Votes should not be tallied in order to do that.\") */\n      tag_91\n      jumpi\n      mload(0x40)\n      0x08c379a000000000000000000000000000000000000000000000000000000000\n      dup2\n      mstore\n      0x04\n      add\n      tag_92\n      swap1\n      tag_93\n      jump\t// in\n    tag_92:\n      mload(0x40)\n      dup1\n      swap2\n      sub\n      swap1\n      revert\n    tag_91:\n        /* \"Voting.sol\":2225:2253  WorkflowStatus previousState */\n      0x00\n        /* \"Voting.sol\":2256:2272  currentVoteState */\n      0x03\n      0x00\n      swap1\n      sload\n      swap1\n      0x0100\n      exp\n      swap1\n      div\n      0xff\n      and\n        /* \"Voting.sol\":2225:2272  WorkflowStatus previousState = currentVoteState */\n      swap1\n      pop\n        /* \"Voting.sol\":2341:2342  1 */\n      0x01\n        /* \"Voting.sol\":2321:2337  currentVoteState */\n      0x03\n      0x00\n      swap1\n      sload\n      swap1\n      0x0100\n      exp\n      swap1\n      div\n      0xff\n      and\n        /* \"Voting.sol\":2316:2338  uint(currentVoteState) */\n      0x05\n      dup2\n      gt\n      iszero\n      tag_95\n      jumpi\n      tag_96\n      tag_47\n      jump\t// in\n    tag_96:\n    tag_95:\n        /* \"Voting.sol\":2316:2342  uint(currentVoteState) + 1 */\n      tag_97\n      swap2\n      swap1\n      tag_98\n      jump\t// in\n    tag_97:\n        /* \"Voting.sol\":2301:2343  WorkflowStatus(uint(currentVoteState) + 1) */\n      0x05\n      dup2\n      gt\n      iszero\n      tag_99\n      jumpi\n      tag_100\n      tag_47\n      jump\t// in\n    tag_100:\n    tag_99:\n        /* \"Voting.sol\":2282:2298  currentVoteState */\n      0x03\n      0x00\n        /* \"Voting.sol\":2282:2343  currentVoteState = WorkflowStatus(uint(currentVoteState) + 1) */\n      0x0100\n      exp\n      dup2\n      sload\n      dup2\n      0xff\n      mul\n      not\n      and\n      swap1\n      dup4\n      0x05\n      dup2\n      gt\n      iszero\n      tag_101\n      jumpi\n      tag_102\n      tag_47\n      jump\t// in\n    tag_102:\n    tag_101:\n      mul\n      or\n      swap1\n      sstore\n      pop\n        /* \"Voting.sol\":2358:2411  WorkflowStatusChange(previousState, currentVoteState) */\n      0x0a97a4ee45751e2abf3e4fc8946939630b11b371ea8ae39ccdc3056e98f5cc3f\n        /* \"Voting.sol\":2379:2392  previousState */\n      dup2\n        /* \"Voting.sol\":2394:2410  currentVoteState */\n      0x03\n      0x00\n      swap1\n      sload\n      swap1\n      0x0100\n      exp\n      swap1\n      div\n      0xff\n      and\n        /* \"Voting.sol\":2358:2411  WorkflowStatusChange(previousState, currentVoteState) */\n      mload(0x40)\n      tag_103\n      swap3\n      swap2\n      swap1\n      tag_104\n      jump\t// in\n    tag_103:\n      mload(0x40)\n      dup1\n      swap2\n      sub\n      swap1\n      log1\n        /* \"Voting.sol\":2215:2418  {... */\n      pop\n        /* \"Voting.sol\":2156:2418  function nextVoteStep() external onlyOwner votesNotTallied {... */\n      jump\t// out\n        /* \"https://github.com/OpenZeppelin/openzeppelin-contracts/blob/master/contracts/access/Ownable.sol\":1796:1958  function _checkOwner() internal view virtual {... */\n    tag_39:\n        /* \"https://github.com/OpenZeppelin/openzeppelin-contracts/blob/master/contracts/access/Ownable.sol\":1866:1878  _msgSender() */\n      tag_106\n        /* \"https://github.com/OpenZeppelin/openzeppelin-contracts/blob/master/contracts/access/Ownable.sol\":1866:1876  _msgSender */\n      tag_107\n        /* \"https://github.com/OpenZeppelin/openzeppelin-contracts/blob/master/contracts/access/Ownable.sol\":1866:1878  _msgSender() */\n      jump\t// in\n    tag_106:\n        /* \"https://github.com/OpenZeppelin/openzeppelin-contracts/blob/master/contracts/access/Ownable.sol\":1855:1878  owner() != _msgSender() */\n      0xffffffffffffffffffffffffffffffffffffffff\n      and\n        /* \"https://github.com/OpenZeppelin/openzeppelin-contracts/blob/master/contracts/access/Ownable.sol\":1855:1862  owner() */\n      tag_108\n        /* \"https://github.com/OpenZeppelin/openzeppelin-contracts/blob/master/contracts/access/Ownable.sol\":1855:1860  owner */\n      tag_19\n        /* \"https://github.com/OpenZeppelin/openzeppelin-contracts/blob/master/contracts/access/Ownable.sol\":1855:1862  owner() */\n      jump\t// in\n    tag_108:\n        /* \"https://github.com/OpenZeppelin/openzeppelin-contracts/blob/master/contracts/access/Ownable.sol\":1855:1878  owner() != _msgSender() */\n      0xffffffffffffffffffffffffffffffffffffffff\n      and\n      eq\n        /* \"https://github.com/OpenZeppelin/openzeppelin-contracts/blob/master/contracts/access/Ownable.sol\":1851:1952  if (owner() != _msgSender()) {... */\n      tag_109\n      jumpi\n        /* \"https://github.com/OpenZeppelin/openzeppelin-contracts/blob/master/contracts/access/Ownable.sol\":1928:1940  _msgSender() */\n      tag_110\n        /* \"https://github.com/OpenZeppelin/openzeppelin-contracts/blob/master/contracts/access/Ownable.sol\":1928:1938  _msgSender */\n      tag_107\n        /* \"https://github.com/OpenZeppelin/openzeppelin-contracts/blob/master/contracts/access/Ownable.sol\":1928:1940  _msgSender() */\n      jump\t// in\n    tag_110:\n        /* \"https://github.com/OpenZeppelin/openzeppelin-contracts/blob/master/contracts/access/Ownable.sol\":1901:1941  OwnableUnauthorizedAccount(_msgSender()) */\n      mload(0x40)\n      0x118cdaa700000000000000000000000000000000000000000000000000000000\n      dup2\n      mstore\n      0x04\n      add\n      tag_111\n      swap2\n      swap1\n      tag_21\n      jump\t// in\n    tag_111:\n      mload(0x40)\n      dup1\n      swap2\n      sub\n      swap1\n      revert\n        /* \"https://github.com/OpenZeppelin/openzeppelin-contracts/blob/master/contracts/access/Ownable.sol\":1851:1952  if (owner() != _msgSender()) {... */\n    tag_109:\n        /* \"https://github.com/OpenZeppelin/openzeppelin-contracts/blob/master/contracts/access/Ownable.sol\":1796:1958  function _checkOwner() internal view virtual {... */\n      jump\t// out\n        /* \"https://github.com/OpenZeppelin/openzeppelin-contracts/blob/master/contracts/access/Ownable.sol\":2912:3099  function _transferOwnership(address newOwner) internal virtual {... */\n    tag_42:\n        /* \"https://github.com/OpenZeppelin/openzeppelin-contracts/blob/master/contracts/access/Ownable.sol\":2985:3001  address oldOwner */\n      0x00\n        /* \"https://github.com/OpenZeppelin/openzeppelin-contracts/blob/master/contracts/access/Ownable.sol\":3004:3010  _owner */\n      dup1\n      0x00\n      swap1\n      sload\n      swap1\n      0x0100\n      exp\n      swap1\n      div\n      0xffffffffffffffffffffffffffffffffffffffff\n      and\n        /* \"https://github.com/OpenZeppelin/openzeppelin-contracts/blob/master/contracts/access/Ownable.sol\":2985:3010  address oldOwner = _owner */\n      swap1\n      pop\n        /* \"https://github.com/OpenZeppelin/openzeppelin-contracts/blob/master/contracts/access/Ownable.sol\":3029:3037  newOwner */\n      dup2\n        /* \"https://github.com/OpenZeppelin/openzeppelin-contracts/blob/master/contracts/access/Ownable.sol\":3020:3026  _owner */\n      0x00\n      dup1\n        /* \"https://github.com/OpenZeppelin/openzeppelin-contracts/blob/master/contracts/access/Ownable.sol\":3020:3037  _owner = newOwner */\n      0x0100\n      exp\n      dup2\n      sload\n      dup2\n      0xffffffffffffffffffffffffffffffffffffffff\n      mul\n      not\n      and\n      swap1\n      dup4\n      0xffffffffffffffffffffffffffffffffffffffff\n      and\n      mul\n      or\n      swap1\n      sstore\n      pop\n        /* \"https://github.com/OpenZeppelin/openzeppelin-contracts/blob/master/contracts/access/Ownable.sol\":3083:3091  newOwner */\n      dup2\n        /* \"https://github.com/OpenZeppelin/openzeppelin-contracts/blob/master/contracts/access/Ownable.sol\":3052:3092  OwnershipTransferred(oldOwner, newOwner) */\n      0xffffffffffffffffffffffffffffffffffffffff\n      and\n        /* \"https://github.com/OpenZeppelin/openzeppelin-contracts/blob/master/contracts/access/Ownable.sol\":3073:3081  oldOwner */\n      dup2\n        /* \"https://github.com/OpenZeppelin/openzeppelin-contracts/blob/master/contracts/access/Ownable.sol\":3052:3092  OwnershipTransferred(oldOwner, newOwner) */\n      0xffffffffffffffffffffffffffffffffffffffff\n      and\n      0x8be0079c531659141344cd1fd0a4f28419497f9722a3daafe3b4186f6b6457e0\n      mload(0x40)\n      mload(0x40)\n      dup1\n      swap2\n      sub\n      swap1\n      log3\n        /* \"https://github.com/OpenZeppelin/openzeppelin-contracts/blob/master/contracts/access/Ownable.sol\":2975:3099  {... */\n      pop\n        /* \"https://github.com/OpenZeppelin/openzeppelin-contracts/blob/master/contracts/access/Ownable.sol\":2912:3099  function _transferOwnership(address newOwner) internal virtual {... */\n      pop\n      jump\t// out\n        /* \"https://github.com/OpenZeppelin/openzeppelin-contracts/blob/master/contracts/utils/Context.sol\":656:752  function _msgSender() internal view virtual returns (address) {... */\n    tag_107:\n        /* \"https://github.com/OpenZeppelin/openzeppelin-contracts/blob/master/contracts/utils/Context.sol\":709:716  address */\n      0x00\n        /* \"https://github.com/OpenZeppelin/openzeppelin-contracts/blob/master/contracts/utils/Context.sol\":735:745  msg.sender */\n      caller\n        /* \"https://github.com/OpenZeppelin/openzeppelin-contracts/blob/master/contracts/utils/Context.sol\":728:745  return msg.sender */\n      swap1\n      pop\n        /* \"https://github.com/OpenZeppelin/openzeppelin-contracts/blob/master/contracts/utils/Context.sol\":656:752  function _msgSender() internal view virtual returns (address) {... */\n      swap1\n      jump\t// out\n        /* \"#utility.yul\":7:187   */\n    tag_47:\n        /* \"#utility.yul\":55:132   */\n      0x4e487b7100000000000000000000000000000000000000000000000000000000\n        /* \"#utility.yul\":52:53   */\n      0x00\n        /* \"#utility.yul\":45:133   */\n      mstore\n        /* \"#utility.yul\":152:156   */\n      0x21\n        /* \"#utility.yul\":149:150   */\n      0x04\n        /* \"#utility.yul\":142:157   */\n      mstore\n        /* \"#utility.yul\":176:180   */\n      0x24\n        /* \"#utility.yul\":173:174   */\n      0x00\n        /* \"#utility.yul\":166:181   */\n      revert\n        /* \"#utility.yul\":193:315   */\n    tag_114:\n        /* \"#utility.yul\":283:284   */\n      0x06\n        /* \"#utility.yul\":276:281   */\n      dup2\n        /* \"#utility.yul\":273:285   */\n      lt\n        /* \"#utility.yul\":263:309   */\n      tag_138\n      jumpi\n        /* \"#utility.yul\":289:307   */\n      tag_139\n      tag_47\n      jump\t// in\n    tag_139:\n        /* \"#utility.yul\":263:309   */\n    tag_138:\n        /* \"#utility.yul\":193:315   */\n      pop\n      jump\t// out\n        /* \"#utility.yul\":321:466   */\n    tag_115:\n        /* \"#utility.yul\":375:382   */\n      0x00\n        /* \"#utility.yul\":404:409   */\n      dup2\n        /* \"#utility.yul\":393:409   */\n      swap1\n      pop\n        /* \"#utility.yul\":410:460   */\n      tag_141\n        /* \"#utility.yul\":454:459   */\n      dup3\n        /* \"#utility.yul\":410:460   */\n      tag_114\n      jump\t// in\n    tag_141:\n        /* \"#utility.yul\":321:466   */\n      swap2\n      swap1\n      pop\n      jump\t// out\n        /* \"#utility.yul\":472:617   */\n    tag_116:\n        /* \"#utility.yul\":537:546   */\n      0x00\n        /* \"#utility.yul\":570:611   */\n      tag_143\n        /* \"#utility.yul\":605:610   */\n      dup3\n        /* \"#utility.yul\":570:611   */\n      tag_115\n      jump\t// in\n    tag_143:\n        /* \"#utility.yul\":557:611   */\n      swap1\n      pop\n        /* \"#utility.yul\":472:617   */\n      swap2\n      swap1\n      pop\n      jump\t// out\n        /* \"#utility.yul\":623:784   */\n    tag_117:\n        /* \"#utility.yul\":725:777   */\n      tag_145\n        /* \"#utility.yul\":771:776   */\n      dup2\n        /* \"#utility.yul\":725:777   */\n      tag_116\n      jump\t// in\n    tag_145:\n        /* \"#utility.yul\":720:723   */\n      dup3\n        /* \"#utility.yul\":713:778   */\n      mstore\n        /* \"#utility.yul\":623:784   */\n      pop\n      pop\n      jump\t// out\n        /* \"#utility.yul\":790:1042   */\n    tag_15:\n        /* \"#utility.yul\":898:902   */\n      0x00\n        /* \"#utility.yul\":936:938   */\n      0x20\n        /* \"#utility.yul\":925:934   */\n      dup3\n        /* \"#utility.yul\":921:939   */\n      add\n        /* \"#utility.yul\":913:939   */\n      swap1\n      pop\n        /* \"#utility.yul\":949:1035   */\n      tag_147\n        /* \"#utility.yul\":1032:1033   */\n      0x00\n        /* \"#utility.yul\":1021:1030   */\n      dup4\n        /* \"#utility.yul\":1017:1034   */\n      add\n        /* \"#utility.yul\":1008:1014   */\n      dup5\n        /* \"#utility.yul\":949:1035   */\n      tag_117\n      jump\t// in\n    tag_147:\n        /* \"#utility.yul\":790:1042   */\n      swap3\n      swap2\n      pop\n      pop\n      jump\t// out\n        /* \"#utility.yul\":1048:1174   */\n    tag_118:\n        /* \"#utility.yul\":1085:1092   */\n      0x00\n        /* \"#utility.yul\":1125:1167   */\n      0xffffffffffffffffffffffffffffffffffffffff\n        /* \"#utility.yul\":1118:1123   */\n      dup3\n        /* \"#utility.yul\":1114:1168   */\n      and\n        /* \"#utility.yul\":1103:1168   */\n      swap1\n      pop\n        /* \"#utility.yul\":1048:1174   */\n      swap2\n      swap1\n      pop\n      jump\t// out\n        /* \"#utility.yul\":1180:1276   */\n    tag_119:\n        /* \"#utility.yul\":1217:1224   */\n      0x00\n        /* \"#utility.yul\":1246:1270   */\n      tag_150\n        /* \"#utility.yul\":1264:1269   */\n      dup3\n        /* \"#utility.yul\":1246:1270   */\n      tag_118\n      jump\t// in\n    tag_150:\n        /* \"#utility.yul\":1235:1270   */\n      swap1\n      pop\n        /* \"#utility.yul\":1180:1276   */\n      swap2\n      swap1\n      pop\n      jump\t// out\n        /* \"#utility.yul\":1282:1400   */\n    tag_120:\n        /* \"#utility.yul\":1369:1393   */\n      tag_152\n        /* \"#utility.yul\":1387:1392   */\n      dup2\n        /* \"#utility.yul\":1369:1393   */\n      tag_119\n      jump\t// in\n    tag_152:\n        /* \"#utility.yul\":1364:1367   */\n      dup3\n        /* \"#utility.yul\":1357:1394   */\n      mstore\n        /* \"#utility.yul\":1282:1400   */\n      pop\n      pop\n      jump\t// out\n        /* \"#utility.yul\":1406:1628   */\n    tag_21:\n        /* \"#utility.yul\":1499:1503   */\n      0x00\n        /* \"#utility.yul\":1537:1539   */\n      0x20\n        /* \"#utility.yul\":1526:1535   */\n      dup3\n        /* \"#utility.yul\":1522:1540   */\n      add\n        /* \"#utility.yul\":1514:1540   */\n      swap1\n      pop\n        /* \"#utility.yul\":1550:1621   */\n      tag_154\n        /* \"#utility.yul\":1618:1619   */\n      0x00\n        /* \"#utility.yul\":1607:1616   */\n      dup4\n        /* \"#utility.yul\":1603:1620   */\n      add\n        /* \"#utility.yul\":1594:1600   */\n      dup5\n        /* \"#utility.yul\":1550:1621   */\n      tag_120\n      jump\t// in\n    tag_154:\n        /* \"#utility.yul\":1406:1628   */\n      swap3\n      swap2\n      pop\n      pop\n      jump\t// out\n        /* \"#utility.yul\":1715:1832   */\n    tag_122:\n        /* \"#utility.yul\":1824:1825   */\n      0x00\n        /* \"#utility.yul\":1821:1822   */\n      dup1\n        /* \"#utility.yul\":1814:1826   */\n      revert\n        /* \"#utility.yul\":1961:2083   */\n    tag_124:\n        /* \"#utility.yul\":2034:2058   */\n      tag_159\n        /* \"#utility.yul\":2052:2057   */\n      dup2\n        /* \"#utility.yul\":2034:2058   */\n      tag_119\n      jump\t// in\n    tag_159:\n        /* \"#utility.yul\":2027:2032   */\n      dup2\n        /* \"#utility.yul\":2024:2059   */\n      eq\n        /* \"#utility.yul\":2014:2077   */\n      tag_160\n      jumpi\n        /* \"#utility.yul\":2073:2074   */\n      0x00\n        /* \"#utility.yul\":2070:2071   */\n      dup1\n        /* \"#utility.yul\":2063:2075   */\n      revert\n        /* \"#utility.yul\":2014:2077   */\n    tag_160:\n        /* \"#utility.yul\":1961:2083   */\n      pop\n      jump\t// out\n        /* \"#utility.yul\":2089:2228   */\n    tag_125:\n        /* \"#utility.yul\":2135:2140   */\n      0x00\n        /* \"#utility.yul\":2173:2179   */\n      dup2\n        /* \"#utility.yul\":2160:2180   */\n      calldataload\n        /* \"#utility.yul\":2151:2180   */\n      swap1\n      pop\n        /* \"#utility.yul\":2189:2222   */\n      tag_162\n        /* \"#utility.yul\":2216:2221   */\n      dup2\n        /* \"#utility.yul\":2189:2222   */\n      tag_124\n      jump\t// in\n    tag_162:\n        /* \"#utility.yul\":2089:2228   */\n      swap3\n      swap2\n      pop\n      pop\n      jump\t// out\n        /* \"#utility.yul\":2234:2563   */\n    tag_29:\n        /* \"#utility.yul\":2293:2299   */\n      0x00\n        /* \"#utility.yul\":2342:2344   */\n      0x20\n        /* \"#utility.yul\":2330:2339   */\n      dup3\n        /* \"#utility.yul\":2321:2328   */\n      dup5\n        /* \"#utility.yul\":2317:2340   */\n      sub\n        /* \"#utility.yul\":2313:2345   */\n      slt\n        /* \"#utility.yul\":2310:2429   */\n      iszero\n      tag_164\n      jumpi\n        /* \"#utility.yul\":2348:2427   */\n      tag_165\n      tag_122\n      jump\t// in\n    tag_165:\n        /* \"#utility.yul\":2310:2429   */\n    tag_164:\n        /* \"#utility.yul\":2468:2469   */\n      0x00\n        /* \"#utility.yul\":2493:2546   */\n      tag_166\n        /* \"#utility.yul\":2538:2545   */\n      dup5\n        /* \"#utility.yul\":2529:2535   */\n      dup3\n        /* \"#utility.yul\":2518:2527   */\n      dup6\n        /* \"#utility.yul\":2514:2536   */\n      add\n        /* \"#utility.yul\":2493:2546   */\n      tag_125\n      jump\t// in\n    tag_166:\n        /* \"#utility.yul\":2483:2546   */\n      swap2\n      pop\n        /* \"#utility.yul\":2439:2556   */\n      pop\n        /* \"#utility.yul\":2234:2563   */\n      swap3\n      swap2\n      pop\n      pop\n      jump\t// out\n        /* \"#utility.yul\":2569:2738   */\n    tag_126:\n        /* \"#utility.yul\":2653:2664   */\n      0x00\n        /* \"#utility.yul\":2687:2693   */\n      dup3\n        /* \"#utility.yul\":2682:2685   */\n      dup3\n        /* \"#utility.yul\":2675:2694   */\n      mstore\n        /* \"#utility.yul\":2727:2731   */\n      0x20\n        /* \"#utility.yul\":2722:2725   */\n      dup3\n        /* \"#utility.yul\":2718:2732   */\n      add\n        /* \"#utility.yul\":2703:2732   */\n      swap1\n      pop\n        /* \"#utility.yul\":2569:2738   */\n      swap3\n      swap2\n      pop\n      pop\n      jump\t// out\n        /* \"#utility.yul\":2744:2976   */\n    tag_127:\n        /* \"#utility.yul\":2884:2918   */\n      0x566f746573206e65656420746f2062652074616c6c69656420696e206f726465\n        /* \"#utility.yul\":2880:2881   */\n      0x00\n        /* \"#utility.yul\":2872:2878   */\n      dup3\n        /* \"#utility.yul\":2868:2882   */\n      add\n        /* \"#utility.yul\":2861:2919   */\n      mstore\n        /* \"#utility.yul\":2953:2968   */\n      0x7220746f20646f20746861742e00000000000000000000000000000000000000\n        /* \"#utility.yul\":2948:2950   */\n      0x20\n        /* \"#utility.yul\":2940:2946   */\n      dup3\n        /* \"#utility.yul\":2936:2951   */\n      add\n        /* \"#utility.yul\":2929:2969   */\n      mstore\n        /* \"#utility.yul\":2744:2976   */\n      pop\n      jump\t// out\n        /* \"#utility.yul\":2982:3348   */\n    tag_128:\n        /* \"#utility.yul\":3124:3127   */\n      0x00\n        /* \"#utility.yul\":3145:3212   */\n      tag_170\n        /* \"#utility.yul\":3209:3211   */\n      0x2d\n        /* \"#utility.yul\":3204:3207   */\n      dup4\n        /* \"#utility.yul\":3145:3212   */\n      tag_126\n      jump\t// in\n    tag_170:\n        /* \"#utility.yul\":3138:3212   */\n      swap2\n      pop\n        /* \"#utility.yul\":3221:3314   */\n      tag_171\n        /* \"#utility.yul\":3310:3313   */\n      dup3\n        /* \"#utility.yul\":3221:3314   */\n      tag_127\n      jump\t// in\n    tag_171:\n        /* \"#utility.yul\":3339:3341   */\n      0x40\n        /* \"#utility.yul\":3334:3337   */\n      dup3\n        /* \"#utility.yul\":3330:3342   */\n      add\n        /* \"#utility.yul\":3323:3342   */\n      swap1\n      pop\n        /* \"#utility.yul\":2982:3348   */\n      swap2\n      swap1\n      pop\n      jump\t// out\n        /* \"#utility.yul\":3354:3773   */\n    tag_52:\n        /* \"#utility.yul\":3520:3524   */\n      0x00\n        /* \"#utility.yul\":3558:3560   */\n      0x20\n        /* \"#utility.yul\":3547:3556   */\n      dup3\n        /* \"#utility.yul\":3543:3561   */\n      add\n        /* \"#utility.yul\":3535:3561   */\n      swap1\n      pop\n        /* \"#utility.yul\":3607:3616   */\n      dup2\n        /* \"#utility.yul\":3601:3605   */\n      dup2\n        /* \"#utility.yul\":3597:3617   */\n      sub\n        /* \"#utility.yul\":3593:3594   */\n      0x00\n        /* \"#utility.yul\":3582:3591   */\n      dup4\n        /* \"#utility.yul\":3578:3595   */\n      add\n        /* \"#utility.yul\":3571:3618   */\n      mstore\n        /* \"#utility.yul\":3635:3766   */\n      tag_173\n        /* \"#utility.yul\":3761:3765   */\n      dup2\n        /* \"#utility.yul\":3635:3766   */\n      tag_128\n      jump\t// in\n    tag_173:\n        /* \"#utility.yul\":3627:3766   */\n      swap1\n      pop\n        /* \"#utility.yul\":3354:3773   */\n      swap2\n      swap1\n      pop\n      jump\t// out\n        /* \"#utility.yul\":3779:3956   */\n    tag_129:\n        /* \"#utility.yul\":3919:3948   */\n      0x596f752063616e6e6f7420726567697374657220766f746572732e0000000000\n        /* \"#utility.yul\":3915:3916   */\n      0x00\n        /* \"#utility.yul\":3907:3913   */\n      dup3\n        /* \"#utility.yul\":3903:3917   */\n      add\n        /* \"#utility.yul\":3896:3949   */\n      mstore\n        /* \"#utility.yul\":3779:3956   */\n      pop\n      jump\t// out\n        /* \"#utility.yul\":3962:4328   */\n    tag_130:\n        /* \"#utility.yul\":4104:4107   */\n      0x00\n        /* \"#utility.yul\":4125:4192   */\n      tag_176\n        /* \"#utility.yul\":4189:4191   */\n      0x1b\n        /* \"#utility.yul\":4184:4187   */\n      dup4\n        /* \"#utility.yul\":4125:4192   */\n      tag_126\n      jump\t// in\n    tag_176:\n        /* \"#utility.yul\":4118:4192   */\n      swap2\n      pop\n        /* \"#utility.yul\":4201:4294   */\n      tag_177\n        /* \"#utility.yul\":4290:4293   */\n      dup3\n        /* \"#utility.yul\":4201:4294   */\n      tag_129\n      jump\t// in\n    tag_177:\n        /* \"#utility.yul\":4319:4321   */\n      0x20\n        /* \"#utility.yul\":4314:4317   */\n      dup3\n        /* \"#utility.yul\":4310:4322   */\n      add\n        /* \"#utility.yul\":4303:4322   */\n      swap1\n      pop\n        /* \"#utility.yul\":3962:4328   */\n      swap2\n      swap1\n      pop\n      jump\t// out\n        /* \"#utility.yul\":4334:4753   */\n    tag_81:\n        /* \"#utility.yul\":4500:4504   */\n      0x00\n        /* \"#utility.yul\":4538:4540   */\n      0x20\n        /* \"#utility.yul\":4527:4536   */\n      dup3\n        /* \"#utility.yul\":4523:4541   */\n      add\n        /* \"#utility.yul\":4515:4541   */\n      swap1\n      pop\n        /* \"#utility.yul\":4587:4596   */\n      dup2\n        /* \"#utility.yul\":4581:4585   */\n      dup2\n        /* \"#utility.yul\":4577:4597   */\n      sub\n        /* \"#utility.yul\":4573:4574   */\n      0x00\n        /* \"#utility.yul\":4562:4571   */\n      dup4\n        /* \"#utility.yul\":4558:4575   */\n      add\n        /* \"#utility.yul\":4551:4598   */\n      mstore\n        /* \"#utility.yul\":4615:4746   */\n      tag_179\n        /* \"#utility.yul\":4741:4745   */\n      dup2\n        /* \"#utility.yul\":4615:4746   */\n      tag_130\n      jump\t// in\n    tag_179:\n        /* \"#utility.yul\":4607:4746   */\n      swap1\n      pop\n        /* \"#utility.yul\":4334:4753   */\n      swap2\n      swap1\n      pop\n      jump\t// out\n        /* \"#utility.yul\":4759:4994   */\n    tag_131:\n        /* \"#utility.yul\":4899:4933   */\n      0x566f7465732073686f756c64206e6f742062652074616c6c69656420696e206f\n        /* \"#utility.yul\":4895:4896   */\n      0x00\n        /* \"#utility.yul\":4887:4893   */\n      dup3\n        /* \"#utility.yul\":4883:4897   */\n      add\n        /* \"#utility.yul\":4876:4934   */\n      mstore\n        /* \"#utility.yul\":4968:4986   */\n      0x7264657220746f20646f20746861742e00000000000000000000000000000000\n        /* \"#utility.yul\":4963:4965   */\n      0x20\n        /* \"#utility.yul\":4955:4961   */\n      dup3\n        /* \"#utility.yul\":4951:4966   */\n      add\n        /* \"#utility.yul\":4944:4987   */\n      mstore\n        /* \"#utility.yul\":4759:4994   */\n      pop\n      jump\t// out\n        /* \"#utility.yul\":5000:5366   */\n    tag_132:\n        /* \"#utility.yul\":5142:5145   */\n      0x00\n        /* \"#utility.yul\":5163:5230   */\n      tag_182\n        /* \"#utility.yul\":5227:5229   */\n      0x30\n        /* \"#utility.yul\":5222:5225   */\n      dup4\n        /* \"#utility.yul\":5163:5230   */\n      tag_126\n      jump\t// in\n    tag_182:\n        /* \"#utility.yul\":5156:5230   */\n      swap2\n      pop\n        /* \"#utility.yul\":5239:5332   */\n      tag_183\n        /* \"#utility.yul\":5328:5331   */\n      dup3\n        /* \"#utility.yul\":5239:5332   */\n      tag_131\n      jump\t// in\n    tag_183:\n        /* \"#utility.yul\":5357:5359   */\n      0x40\n        /* \"#utility.yul\":5352:5355   */\n      dup3\n        /* \"#utility.yul\":5348:5360   */\n      add\n        /* \"#utility.yul\":5341:5360   */\n      swap1\n      pop\n        /* \"#utility.yul\":5000:5366   */\n      swap2\n      swap1\n      pop\n      jump\t// out\n        /* \"#utility.yul\":5372:5791   */\n    tag_93:\n        /* \"#utility.yul\":5538:5542   */\n      0x00\n        /* \"#utility.yul\":5576:5578   */\n      0x20\n        /* \"#utility.yul\":5565:5574   */\n      dup3\n        /* \"#utility.yul\":5561:5579   */\n      add\n        /* \"#utility.yul\":5553:5579   */\n      swap1\n      pop\n        /* \"#utility.yul\":5625:5634   */\n      dup2\n        /* \"#utility.yul\":5619:5623   */\n      dup2\n        /* \"#utility.yul\":5615:5635   */\n      sub\n        /* \"#utility.yul\":5611:5612   */\n      0x00\n        /* \"#utility.yul\":5600:5609   */\n      dup4\n        /* \"#utility.yul\":5596:5613   */\n      add\n        /* \"#utility.yul\":5589:5636   */\n      mstore\n        /* \"#utility.yul\":5653:5784   */\n      tag_185\n        /* \"#utility.yul\":5779:5783   */\n      dup2\n        /* \"#utility.yul\":5653:5784   */\n      tag_132\n      jump\t// in\n    tag_185:\n        /* \"#utility.yul\":5645:5784   */\n      swap1\n      pop\n        /* \"#utility.yul\":5372:5791   */\n      swap2\n      swap1\n      pop\n      jump\t// out\n        /* \"#utility.yul\":5797:5874   */\n    tag_133:\n        /* \"#utility.yul\":5834:5841   */\n      0x00\n        /* \"#utility.yul\":5863:5868   */\n      dup2\n        /* \"#utility.yul\":5852:5868   */\n      swap1\n      pop\n        /* \"#utility.yul\":5797:5874   */\n      swap2\n      swap1\n      pop\n      jump\t// out\n        /* \"#utility.yul\":5880:6060   */\n    tag_134:\n        /* \"#utility.yul\":5928:6005   */\n      0x4e487b7100000000000000000000000000000000000000000000000000000000\n        /* \"#utility.yul\":5925:5926   */\n      0x00\n        /* \"#utility.yul\":5918:6006   */\n      mstore\n        /* \"#utility.yul\":6025:6029   */\n      0x11\n        /* \"#utility.yul\":6022:6023   */\n      0x04\n        /* \"#utility.yul\":6015:6030   */\n      mstore\n        /* \"#utility.yul\":6049:6053   */\n      0x24\n        /* \"#utility.yul\":6046:6047   */\n      0x00\n        /* \"#utility.yul\":6039:6054   */\n      revert\n        /* \"#utility.yul\":6066:6257   */\n    tag_98:\n        /* \"#utility.yul\":6106:6109   */\n      0x00\n        /* \"#utility.yul\":6125:6145   */\n      tag_189\n        /* \"#utility.yul\":6143:6144   */\n      dup3\n        /* \"#utility.yul\":6125:6145   */\n      tag_133\n      jump\t// in\n    tag_189:\n        /* \"#utility.yul\":6120:6145   */\n      swap2\n      pop\n        /* \"#utility.yul\":6159:6179   */\n      tag_190\n        /* \"#utility.yul\":6177:6178   */\n      dup4\n        /* \"#utility.yul\":6159:6179   */\n      tag_133\n      jump\t// in\n    tag_190:\n        /* \"#utility.yul\":6154:6179   */\n      swap3\n      pop\n        /* \"#utility.yul\":6202:6203   */\n      dup3\n        /* \"#utility.yul\":6199:6200   */\n      dup3\n        /* \"#utility.yul\":6195:6204   */\n      add\n        /* \"#utility.yul\":6188:6204   */\n      swap1\n      pop\n        /* \"#utility.yul\":6223:6226   */\n      dup1\n        /* \"#utility.yul\":6220:6221   */\n      dup3\n        /* \"#utility.yul\":6217:6227   */\n      gt\n        /* \"#utility.yul\":6214:6250   */\n      iszero\n      tag_191\n      jumpi\n        /* \"#utility.yul\":6230:6248   */\n      tag_192\n      tag_134\n      jump\t// in\n    tag_192:\n        /* \"#utility.yul\":6214:6250   */\n    tag_191:\n        /* \"#utility.yul\":6066:6257   */\n      swap3\n      swap2\n      pop\n      pop\n      jump\t// out\n        /* \"#utility.yul\":6263:6655   */\n    tag_104:\n        /* \"#utility.yul\":6414:6418   */\n      0x00\n        /* \"#utility.yul\":6452:6454   */\n      0x40\n        /* \"#utility.yul\":6441:6450   */\n      dup3\n        /* \"#utility.yul\":6437:6455   */\n      add\n        /* \"#utility.yul\":6429:6455   */\n      swap1\n      pop\n        /* \"#utility.yul\":6465:6551   */\n      tag_194\n        /* \"#utility.yul\":6548:6549   */\n      0x00\n        /* \"#utility.yul\":6537:6546   */\n      dup4\n        /* \"#utility.yul\":6533:6550   */\n      add\n        /* \"#utility.yul\":6524:6530   */\n      dup6\n        /* \"#utility.yul\":6465:6551   */\n      tag_117\n      jump\t// in\n    tag_194:\n        /* \"#utility.yul\":6561:6648   */\n      tag_195\n        /* \"#utility.yul\":6644:6646   */\n      0x20\n        /* \"#utility.yul\":6633:6642   */\n      dup4\n        /* \"#utility.yul\":6629:6647   */\n      add\n        /* \"#utility.yul\":6620:6626   */\n      dup5\n        /* \"#utility.yul\":6561:6648   */\n      tag_117\n      jump\t// in\n    tag_195:\n        /* \"#utility.yul\":6263:6655   */\n      swap4\n      swap3\n      pop\n      pop\n      pop\n      jump\t// out\n\n    auxdata: 0xa264697066735822122050e97da31cee8e72e5b531892e358bdb3bfc8398370ec963b2191dd23b53aa4f64736f6c63430008170033\n}\n",
				"bytecode": {
					"linkReferences": {},
					"object": "608060405234801561000f575f80fd5b50335f73ffffffffffffffffffffffffffffffffffffffff168173ffffffffffffffffffffffffffffffffffffffff1603610081575f6040517f1e4fbdf700000000000000000000000000000000000000000000000000000000815260040161007891906101bf565b60405180910390fd5b610090816100bf60201b60201c565b505f60035f6101000a81548160ff021916908360058111156100b5576100b46101d8565b5b0217905550610205565b5f805f9054906101000a900473ffffffffffffffffffffffffffffffffffffffff169050815f806101000a81548173ffffffffffffffffffffffffffffffffffffffff021916908373ffffffffffffffffffffffffffffffffffffffff1602179055508173ffffffffffffffffffffffffffffffffffffffff168173ffffffffffffffffffffffffffffffffffffffff167f8be0079c531659141344cd1fd0a4f28419497f9722a3daafe3b4186f6b6457e060405160405180910390a35050565b5f73ffffffffffffffffffffffffffffffffffffffff82169050919050565b5f6101a982610180565b9050919050565b6101b98161019f565b82525050565b5f6020820190506101d25f8301846101b0565b92915050565b7f4e487b71000000000000000000000000000000000000000000000000000000005f52602160045260245ffd5b610a5e806102125f395ff3fe608060405234801561000f575f80fd5b5060043610610086575f3560e01c8063b126f77111610059578063b126f771146100ee578063f2fde38b146100f8578063f4ab9adf14610114578063fd20255c1461013057610086565b80631e09506d1461008a578063715018a6146100a85780638da5cb5b146100b25780638e7ea5b2146100d0575b5f80fd5b61009261013a565b60405161009f919061073a565b60405180910390f35b6100b061014f565b005b6100ba610162565b6040516100c79190610792565b60405180910390f35b6100d8610189565b6040516100e59190610792565b60405180910390f35b6100f6610201565b005b610112600480360381019061010d91906107d9565b6102a8565b005b61012e600480360381019061012991906107d9565b61032c565b005b610138610439565b005b5f60035f9054906101000a900460ff16905090565b610157610578565b6101605f6105ff565b565b5f805f9054906101000a900473ffffffffffffffffffffffffffffffffffffffff16905090565b5f60058081111561019d5761019c6106c7565b5b60035f9054906101000a900460ff1660058111156101be576101bd6106c7565b5b146101fe576040517f08c379a00000000000000000000000000000000000000000000000000000000081526004016101f590610884565b60405180910390fd5b90565b610209610578565b60058081111561021c5761021b6106c7565b5b60035f9054906101000a900460ff16600581111561023d5761023c6106c7565b5b1461027d576040517f08c379a000000000000000000000000000000000000000000000000000000000815260040161027490610884565b60405180910390fd5b5f60035f6101000a81548160ff021916908360058111156102a1576102a06106c7565b5b0217905550565b6102b0610578565b5f73ffffffffffffffffffffffffffffffffffffffff168173ffffffffffffffffffffffffffffffffffffffff1603610320575f6040517f1e4fbdf70000000000000000000000000000000000000000000000000000000081526004016103179190610792565b60405180910390fd5b610329816105ff565b50565b610334610578565b5f6005811115610347576103466106c7565b5b60035f9054906101000a900460ff166005811115610368576103676106c7565b5b146103a8576040517f08c379a000000000000000000000000000000000000000000000000000000000815260040161039f906108ec565b60405180910390fd5b600160025f8373ffffffffffffffffffffffffffffffffffffffff1673ffffffffffffffffffffffffffffffffffffffff1681526020019081526020015f205f015f6101000a81548160ff0219169083151502179055507fb6be2187d059cc2a55fe29e0e503b566e1e0f8c8780096e185429350acffd3dd8160405161042e9190610792565b60405180910390a150565b610441610578565b600580811115610454576104536106c7565b5b60035f9054906101000a900460ff166005811115610475576104746106c7565b5b036104b5576040517f08c379a00000000000000000000000000000000000000000000000000000000081526004016104ac9061097a565b60405180910390fd5b5f60035f9054906101000a900460ff169050600160035f9054906101000a900460ff1660058111156104ea576104e96106c7565b5b6104f491906109ce565b6005811115610506576105056106c7565b5b60035f6101000a81548160ff02191690836005811115610529576105286106c7565b5b02179055507f0a97a4ee45751e2abf3e4fc8946939630b11b371ea8ae39ccdc3056e98f5cc3f8160035f9054906101000a900460ff1660405161056d929190610a01565b60405180910390a150565b6105806106c0565b73ffffffffffffffffffffffffffffffffffffffff1661059e610162565b73ffffffffffffffffffffffffffffffffffffffff16146105fd576105c16106c0565b6040517f118cdaa70000000000000000000000000000000000000000000000000000000081526004016105f49190610792565b60405180910390fd5b565b5f805f9054906101000a900473ffffffffffffffffffffffffffffffffffffffff169050815f806101000a81548173ffffffffffffffffffffffffffffffffffffffff021916908373ffffffffffffffffffffffffffffffffffffffff1602179055508173ffffffffffffffffffffffffffffffffffffffff168173ffffffffffffffffffffffffffffffffffffffff167f8be0079c531659141344cd1fd0a4f28419497f9722a3daafe3b4186f6b6457e060405160405180910390a35050565b5f33905090565b7f4e487b71000000000000000000000000000000000000000000000000000000005f52602160045260245ffd5b60068110610705576107046106c7565b5b50565b5f819050610715826106f4565b919050565b5f61072482610708565b9050919050565b6107348161071a565b82525050565b5f60208201905061074d5f83018461072b565b92915050565b5f73ffffffffffffffffffffffffffffffffffffffff82169050919050565b5f61077c82610753565b9050919050565b61078c81610772565b82525050565b5f6020820190506107a55f830184610783565b92915050565b5f80fd5b6107b881610772565b81146107c2575f80fd5b50565b5f813590506107d3816107af565b92915050565b5f602082840312156107ee576107ed6107ab565b5b5f6107fb848285016107c5565b91505092915050565b5f82825260208201905092915050565b7f566f746573206e65656420746f2062652074616c6c69656420696e206f7264655f8201527f7220746f20646f20746861742e00000000000000000000000000000000000000602082015250565b5f61086e602d83610804565b915061087982610814565b604082019050919050565b5f6020820190508181035f83015261089b81610862565b9050919050565b7f596f752063616e6e6f7420726567697374657220766f746572732e00000000005f82015250565b5f6108d6601b83610804565b91506108e1826108a2565b602082019050919050565b5f6020820190508181035f830152610903816108ca565b9050919050565b7f566f7465732073686f756c64206e6f742062652074616c6c69656420696e206f5f8201527f7264657220746f20646f20746861742e00000000000000000000000000000000602082015250565b5f610964603083610804565b915061096f8261090a565b604082019050919050565b5f6020820190508181035f83015261099181610958565b9050919050565b5f819050919050565b7f4e487b71000000000000000000000000000000000000000000000000000000005f52601160045260245ffd5b5f6109d882610998565b91506109e383610998565b92508282019050808211156109fb576109fa6109a1565b5b92915050565b5f604082019050610a145f83018561072b565b610a21602083018461072b565b939250505056fea264697066735822122050e97da31cee8e72e5b531892e358bdb3bfc8398370ec963b2191dd23b53aa4f64736f6c63430008170033",
					"opcodes": "PUSH1 0x80 PUSH1 0x40 MSTORE CALLVALUE DUP1 ISZERO PUSH2 0xF JUMPI PUSH0 DUP1 REVERT JUMPDEST POP CALLER PUSH0 PUSH20 0xFFFFFFFFFFFFFFFFFFFFFFFFFFFFFFFFFFFFFFFF AND DUP2 PUSH20 0xFFFFFFFFFFFFFFFFFFFFFFFFFFFFFFFFFFFFFFFF AND SUB PUSH2 0x81 JUMPI PUSH0 PUSH1 0x40 MLOAD PUSH32 0x1E4FBDF700000000000000000000000000000000000000000000000000000000 DUP2 MSTORE PUSH1 0x4 ADD PUSH2 0x78 SWAP2 SWAP1 PUSH2 0x1BF JUMP JUMPDEST PUSH1 0x40 MLOAD DUP1 SWAP2 SUB SWAP1 REVERT JUMPDEST PUSH2 0x90 DUP2 PUSH2 0xBF PUSH1 0x20 SHL PUSH1 0x20 SHR JUMP JUMPDEST POP PUSH0 PUSH1 0x3 PUSH0 PUSH2 0x100 EXP DUP2 SLOAD DUP2 PUSH1 0xFF MUL NOT AND SWAP1 DUP4 PUSH1 0x5 DUP2 GT ISZERO PUSH2 0xB5 JUMPI PUSH2 0xB4 PUSH2 0x1D8 JUMP JUMPDEST JUMPDEST MUL OR SWAP1 SSTORE POP PUSH2 0x205 JUMP JUMPDEST PUSH0 DUP1 PUSH0 SWAP1 SLOAD SWAP1 PUSH2 0x100 EXP SWAP1 DIV PUSH20 0xFFFFFFFFFFFFFFFFFFFFFFFFFFFFFFFFFFFFFFFF AND SWAP1 POP DUP2 PUSH0 DUP1 PUSH2 0x100 EXP DUP2 SLOAD DUP2 PUSH20 0xFFFFFFFFFFFFFFFFFFFFFFFFFFFFFFFFFFFFFFFF MUL NOT AND SWAP1 DUP4 PUSH20 0xFFFFFFFFFFFFFFFFFFFFFFFFFFFFFFFFFFFFFFFF AND MUL OR SWAP1 SSTORE POP DUP2 PUSH20 0xFFFFFFFFFFFFFFFFFFFFFFFFFFFFFFFFFFFFFFFF AND DUP2 PUSH20 0xFFFFFFFFFFFFFFFFFFFFFFFFFFFFFFFFFFFFFFFF AND PUSH32 0x8BE0079C531659141344CD1FD0A4F28419497F9722A3DAAFE3B4186F6B6457E0 PUSH1 0x40 MLOAD PUSH1 0x40 MLOAD DUP1 SWAP2 SUB SWAP1 LOG3 POP POP JUMP JUMPDEST PUSH0 PUSH20 0xFFFFFFFFFFFFFFFFFFFFFFFFFFFFFFFFFFFFFFFF DUP3 AND SWAP1 POP SWAP2 SWAP1 POP JUMP JUMPDEST PUSH0 PUSH2 0x1A9 DUP3 PUSH2 0x180 JUMP JUMPDEST SWAP1 POP SWAP2 SWAP1 POP JUMP JUMPDEST PUSH2 0x1B9 DUP2 PUSH2 0x19F JUMP JUMPDEST DUP3 MSTORE POP POP JUMP JUMPDEST PUSH0 PUSH1 0x20 DUP3 ADD SWAP1 POP PUSH2 0x1D2 PUSH0 DUP4 ADD DUP5 PUSH2 0x1B0 JUMP JUMPDEST SWAP3 SWAP2 POP POP JUMP JUMPDEST PUSH32 0x4E487B7100000000000000000000000000000000000000000000000000000000 PUSH0 MSTORE PUSH1 0x21 PUSH1 0x4 MSTORE PUSH1 0x24 PUSH0 REVERT JUMPDEST PUSH2 0xA5E DUP1 PUSH2 0x212 PUSH0 CODECOPY PUSH0 RETURN INVALID PUSH1 0x80 PUSH1 0x40 MSTORE CALLVALUE DUP1 ISZERO PUSH2 0xF JUMPI PUSH0 DUP1 REVERT JUMPDEST POP PUSH1 0x4 CALLDATASIZE LT PUSH2 0x86 JUMPI PUSH0 CALLDATALOAD PUSH1 0xE0 SHR DUP1 PUSH4 0xB126F771 GT PUSH2 0x59 JUMPI DUP1 PUSH4 0xB126F771 EQ PUSH2 0xEE JUMPI DUP1 PUSH4 0xF2FDE38B EQ PUSH2 0xF8 JUMPI DUP1 PUSH4 0xF4AB9ADF EQ PUSH2 0x114 JUMPI DUP1 PUSH4 0xFD20255C EQ PUSH2 0x130 JUMPI PUSH2 0x86 JUMP JUMPDEST DUP1 PUSH4 0x1E09506D EQ PUSH2 0x8A JUMPI DUP1 PUSH4 0x715018A6 EQ PUSH2 0xA8 JUMPI DUP1 PUSH4 0x8DA5CB5B EQ PUSH2 0xB2 JUMPI DUP1 PUSH4 0x8E7EA5B2 EQ PUSH2 0xD0 JUMPI JUMPDEST PUSH0 DUP1 REVERT JUMPDEST PUSH2 0x92 PUSH2 0x13A JUMP JUMPDEST PUSH1 0x40 MLOAD PUSH2 0x9F SWAP2 SWAP1 PUSH2 0x73A JUMP JUMPDEST PUSH1 0x40 MLOAD DUP1 SWAP2 SUB SWAP1 RETURN JUMPDEST PUSH2 0xB0 PUSH2 0x14F JUMP JUMPDEST STOP JUMPDEST PUSH2 0xBA PUSH2 0x162 JUMP JUMPDEST PUSH1 0x40 MLOAD PUSH2 0xC7 SWAP2 SWAP1 PUSH2 0x792 JUMP JUMPDEST PUSH1 0x40 MLOAD DUP1 SWAP2 SUB SWAP1 RETURN JUMPDEST PUSH2 0xD8 PUSH2 0x189 JUMP JUMPDEST PUSH1 0x40 MLOAD PUSH2 0xE5 SWAP2 SWAP1 PUSH2 0x792 JUMP JUMPDEST PUSH1 0x40 MLOAD DUP1 SWAP2 SUB SWAP1 RETURN JUMPDEST PUSH2 0xF6 PUSH2 0x201 JUMP JUMPDEST STOP JUMPDEST PUSH2 0x112 PUSH1 0x4 DUP1 CALLDATASIZE SUB DUP2 ADD SWAP1 PUSH2 0x10D SWAP2 SWAP1 PUSH2 0x7D9 JUMP JUMPDEST PUSH2 0x2A8 JUMP JUMPDEST STOP JUMPDEST PUSH2 0x12E PUSH1 0x4 DUP1 CALLDATASIZE SUB DUP2 ADD SWAP1 PUSH2 0x129 SWAP2 SWAP1 PUSH2 0x7D9 JUMP JUMPDEST PUSH2 0x32C JUMP JUMPDEST STOP JUMPDEST PUSH2 0x138 PUSH2 0x439 JUMP JUMPDEST STOP JUMPDEST PUSH0 PUSH1 0x3 PUSH0 SWAP1 SLOAD SWAP1 PUSH2 0x100 EXP SWAP1 DIV PUSH1 0xFF AND SWAP1 POP SWAP1 JUMP JUMPDEST PUSH2 0x157 PUSH2 0x578 JUMP JUMPDEST PUSH2 0x160 PUSH0 PUSH2 0x5FF JUMP JUMPDEST JUMP JUMPDEST PUSH0 DUP1 PUSH0 SWAP1 SLOAD SWAP1 PUSH2 0x100 EXP SWAP1 DIV PUSH20 0xFFFFFFFFFFFFFFFFFFFFFFFFFFFFFFFFFFFFFFFF AND SWAP1 POP SWAP1 JUMP JUMPDEST PUSH0 PUSH1 0x5 DUP1 DUP2 GT ISZERO PUSH2 0x19D JUMPI PUSH2 0x19C PUSH2 0x6C7 JUMP JUMPDEST JUMPDEST PUSH1 0x3 PUSH0 SWAP1 SLOAD SWAP1 PUSH2 0x100 EXP SWAP1 DIV PUSH1 0xFF AND PUSH1 0x5 DUP2 GT ISZERO PUSH2 0x1BE JUMPI PUSH2 0x1BD PUSH2 0x6C7 JUMP JUMPDEST JUMPDEST EQ PUSH2 0x1FE JUMPI PUSH1 0x40 MLOAD PUSH32 0x8C379A000000000000000000000000000000000000000000000000000000000 DUP2 MSTORE PUSH1 0x4 ADD PUSH2 0x1F5 SWAP1 PUSH2 0x884 JUMP JUMPDEST PUSH1 0x40 MLOAD DUP1 SWAP2 SUB SWAP1 REVERT JUMPDEST SWAP1 JUMP JUMPDEST PUSH2 0x209 PUSH2 0x578 JUMP JUMPDEST PUSH1 0x5 DUP1 DUP2 GT ISZERO PUSH2 0x21C JUMPI PUSH2 0x21B PUSH2 0x6C7 JUMP JUMPDEST JUMPDEST PUSH1 0x3 PUSH0 SWAP1 SLOAD SWAP1 PUSH2 0x100 EXP SWAP1 DIV PUSH1 0xFF AND PUSH1 0x5 DUP2 GT ISZERO PUSH2 0x23D JUMPI PUSH2 0x23C PUSH2 0x6C7 JUMP JUMPDEST JUMPDEST EQ PUSH2 0x27D JUMPI PUSH1 0x40 MLOAD PUSH32 0x8C379A000000000000000000000000000000000000000000000000000000000 DUP2 MSTORE PUSH1 0x4 ADD PUSH2 0x274 SWAP1 PUSH2 0x884 JUMP JUMPDEST PUSH1 0x40 MLOAD DUP1 SWAP2 SUB SWAP1 REVERT JUMPDEST PUSH0 PUSH1 0x3 PUSH0 PUSH2 0x100 EXP DUP2 SLOAD DUP2 PUSH1 0xFF MUL NOT AND SWAP1 DUP4 PUSH1 0x5 DUP2 GT ISZERO PUSH2 0x2A1 JUMPI PUSH2 0x2A0 PUSH2 0x6C7 JUMP JUMPDEST JUMPDEST MUL OR SWAP1 SSTORE POP JUMP JUMPDEST PUSH2 0x2B0 PUSH2 0x578 JUMP JUMPDEST PUSH0 PUSH20 0xFFFFFFFFFFFFFFFFFFFFFFFFFFFFFFFFFFFFFFFF AND DUP2 PUSH20 0xFFFFFFFFFFFFFFFFFFFFFFFFFFFFFFFFFFFFFFFF AND SUB PUSH2 0x320 JUMPI PUSH0 PUSH1 0x40 MLOAD PUSH32 0x1E4FBDF700000000000000000000000000000000000000000000000000000000 DUP2 MSTORE PUSH1 0x4 ADD PUSH2 0x317 SWAP2 SWAP1 PUSH2 0x792 JUMP JUMPDEST PUSH1 0x40 MLOAD DUP1 SWAP2 SUB SWAP1 REVERT JUMPDEST PUSH2 0x329 DUP2 PUSH2 0x5FF JUMP JUMPDEST POP JUMP JUMPDEST PUSH2 0x334 PUSH2 0x578 JUMP JUMPDEST PUSH0 PUSH1 0x5 DUP2 GT ISZERO PUSH2 0x347 JUMPI PUSH2 0x346 PUSH2 0x6C7 JUMP JUMPDEST JUMPDEST PUSH1 0x3 PUSH0 SWAP1 SLOAD SWAP1 PUSH2 0x100 EXP SWAP1 DIV PUSH1 0xFF AND PUSH1 0x5 DUP2 GT ISZERO PUSH2 0x368 JUMPI PUSH2 0x367 PUSH2 0x6C7 JUMP JUMPDEST JUMPDEST EQ PUSH2 0x3A8 JUMPI PUSH1 0x40 MLOAD PUSH32 0x8C379A000000000000000000000000000000000000000000000000000000000 DUP2 MSTORE PUSH1 0x4 ADD PUSH2 0x39F SWAP1 PUSH2 0x8EC JUMP JUMPDEST PUSH1 0x40 MLOAD DUP1 SWAP2 SUB SWAP1 REVERT JUMPDEST PUSH1 0x1 PUSH1 0x2 PUSH0 DUP4 PUSH20 0xFFFFFFFFFFFFFFFFFFFFFFFFFFFFFFFFFFFFFFFF AND PUSH20 0xFFFFFFFFFFFFFFFFFFFFFFFFFFFFFFFFFFFFFFFF AND DUP2 MSTORE PUSH1 0x20 ADD SWAP1 DUP2 MSTORE PUSH1 0x20 ADD PUSH0 KECCAK256 PUSH0 ADD PUSH0 PUSH2 0x100 EXP DUP2 SLOAD DUP2 PUSH1 0xFF MUL NOT AND SWAP1 DUP4 ISZERO ISZERO MUL OR SWAP1 SSTORE POP PUSH32 0xB6BE2187D059CC2A55FE29E0E503B566E1E0F8C8780096E185429350ACFFD3DD DUP2 PUSH1 0x40 MLOAD PUSH2 0x42E SWAP2 SWAP1 PUSH2 0x792 JUMP JUMPDEST PUSH1 0x40 MLOAD DUP1 SWAP2 SUB SWAP1 LOG1 POP JUMP JUMPDEST PUSH2 0x441 PUSH2 0x578 JUMP JUMPDEST PUSH1 0x5 DUP1 DUP2 GT ISZERO PUSH2 0x454 JUMPI PUSH2 0x453 PUSH2 0x6C7 JUMP JUMPDEST JUMPDEST PUSH1 0x3 PUSH0 SWAP1 SLOAD SWAP1 PUSH2 0x100 EXP SWAP1 DIV PUSH1 0xFF AND PUSH1 0x5 DUP2 GT ISZERO PUSH2 0x475 JUMPI PUSH2 0x474 PUSH2 0x6C7 JUMP JUMPDEST JUMPDEST SUB PUSH2 0x4B5 JUMPI PUSH1 0x40 MLOAD PUSH32 0x8C379A000000000000000000000000000000000000000000000000000000000 DUP2 MSTORE PUSH1 0x4 ADD PUSH2 0x4AC SWAP1 PUSH2 0x97A JUMP JUMPDEST PUSH1 0x40 MLOAD DUP1 SWAP2 SUB SWAP1 REVERT JUMPDEST PUSH0 PUSH1 0x3 PUSH0 SWAP1 SLOAD SWAP1 PUSH2 0x100 EXP SWAP1 DIV PUSH1 0xFF AND SWAP1 POP PUSH1 0x1 PUSH1 0x3 PUSH0 SWAP1 SLOAD SWAP1 PUSH2 0x100 EXP SWAP1 DIV PUSH1 0xFF AND PUSH1 0x5 DUP2 GT ISZERO PUSH2 0x4EA JUMPI PUSH2 0x4E9 PUSH2 0x6C7 JUMP JUMPDEST JUMPDEST PUSH2 0x4F4 SWAP2 SWAP1 PUSH2 0x9CE JUMP JUMPDEST PUSH1 0x5 DUP2 GT ISZERO PUSH2 0x506 JUMPI PUSH2 0x505 PUSH2 0x6C7 JUMP JUMPDEST JUMPDEST PUSH1 0x3 PUSH0 PUSH2 0x100 EXP DUP2 SLOAD DUP2 PUSH1 0xFF MUL NOT AND SWAP1 DUP4 PUSH1 0x5 DUP2 GT ISZERO PUSH2 0x529 JUMPI PUSH2 0x528 PUSH2 0x6C7 JUMP JUMPDEST JUMPDEST MUL OR SWAP1 SSTORE POP PUSH32 0xA97A4EE45751E2ABF3E4FC8946939630B11B371EA8AE39CCDC3056E98F5CC3F DUP2 PUSH1 0x3 PUSH0 SWAP1 SLOAD SWAP1 PUSH2 0x100 EXP SWAP1 DIV PUSH1 0xFF AND PUSH1 0x40 MLOAD PUSH2 0x56D SWAP3 SWAP2 SWAP1 PUSH2 0xA01 JUMP JUMPDEST PUSH1 0x40 MLOAD DUP1 SWAP2 SUB SWAP1 LOG1 POP JUMP JUMPDEST PUSH2 0x580 PUSH2 0x6C0 JUMP JUMPDEST PUSH20 0xFFFFFFFFFFFFFFFFFFFFFFFFFFFFFFFFFFFFFFFF AND PUSH2 0x59E PUSH2 0x162 JUMP JUMPDEST PUSH20 0xFFFFFFFFFFFFFFFFFFFFFFFFFFFFFFFFFFFFFFFF AND EQ PUSH2 0x5FD JUMPI PUSH2 0x5C1 PUSH2 0x6C0 JUMP JUMPDEST PUSH1 0x40 MLOAD PUSH32 0x118CDAA700000000000000000000000000000000000000000000000000000000 DUP2 MSTORE PUSH1 0x4 ADD PUSH2 0x5F4 SWAP2 SWAP1 PUSH2 0x792 JUMP JUMPDEST PUSH1 0x40 MLOAD DUP1 SWAP2 SUB SWAP1 REVERT JUMPDEST JUMP JUMPDEST PUSH0 DUP1 PUSH0 SWAP1 SLOAD SWAP1 PUSH2 0x100 EXP SWAP1 DIV PUSH20 0xFFFFFFFFFFFFFFFFFFFFFFFFFFFFFFFFFFFFFFFF AND SWAP1 POP DUP2 PUSH0 DUP1 PUSH2 0x100 EXP DUP2 SLOAD DUP2 PUSH20 0xFFFFFFFFFFFFFFFFFFFFFFFFFFFFFFFFFFFFFFFF MUL NOT AND SWAP1 DUP4 PUSH20 0xFFFFFFFFFFFFFFFFFFFFFFFFFFFFFFFFFFFFFFFF AND MUL OR SWAP1 SSTORE POP DUP2 PUSH20 0xFFFFFFFFFFFFFFFFFFFFFFFFFFFFFFFFFFFFFFFF AND DUP2 PUSH20 0xFFFFFFFFFFFFFFFFFFFFFFFFFFFFFFFFFFFFFFFF AND PUSH32 0x8BE0079C531659141344CD1FD0A4F28419497F9722A3DAAFE3B4186F6B6457E0 PUSH1 0x40 MLOAD PUSH1 0x40 MLOAD DUP1 SWAP2 SUB SWAP1 LOG3 POP POP JUMP JUMPDEST PUSH0 CALLER SWAP1 POP SWAP1 JUMP JUMPDEST PUSH32 0x4E487B7100000000000000000000000000000000000000000000000000000000 PUSH0 MSTORE PUSH1 0x21 PUSH1 0x4 MSTORE PUSH1 0x24 PUSH0 REVERT JUMPDEST PUSH1 0x6 DUP2 LT PUSH2 0x705 JUMPI PUSH2 0x704 PUSH2 0x6C7 JUMP JUMPDEST JUMPDEST POP JUMP JUMPDEST PUSH0 DUP2 SWAP1 POP PUSH2 0x715 DUP3 PUSH2 0x6F4 JUMP JUMPDEST SWAP2 SWAP1 POP JUMP JUMPDEST PUSH0 PUSH2 0x724 DUP3 PUSH2 0x708 JUMP JUMPDEST SWAP1 POP SWAP2 SWAP1 POP JUMP JUMPDEST PUSH2 0x734 DUP2 PUSH2 0x71A JUMP JUMPDEST DUP3 MSTORE POP POP JUMP JUMPDEST PUSH0 PUSH1 0x20 DUP3 ADD SWAP1 POP PUSH2 0x74D PUSH0 DUP4 ADD DUP5 PUSH2 0x72B JUMP JUMPDEST SWAP3 SWAP2 POP POP JUMP JUMPDEST PUSH0 PUSH20 0xFFFFFFFFFFFFFFFFFFFFFFFFFFFFFFFFFFFFFFFF DUP3 AND SWAP1 POP SWAP2 SWAP1 POP JUMP JUMPDEST PUSH0 PUSH2 0x77C DUP3 PUSH2 0x753 JUMP JUMPDEST SWAP1 POP SWAP2 SWAP1 POP JUMP JUMPDEST PUSH2 0x78C DUP2 PUSH2 0x772 JUMP JUMPDEST DUP3 MSTORE POP POP JUMP JUMPDEST PUSH0 PUSH1 0x20 DUP3 ADD SWAP1 POP PUSH2 0x7A5 PUSH0 DUP4 ADD DUP5 PUSH2 0x783 JUMP JUMPDEST SWAP3 SWAP2 POP POP JUMP JUMPDEST PUSH0 DUP1 REVERT JUMPDEST PUSH2 0x7B8 DUP2 PUSH2 0x772 JUMP JUMPDEST DUP2 EQ PUSH2 0x7C2 JUMPI PUSH0 DUP1 REVERT JUMPDEST POP JUMP JUMPDEST PUSH0 DUP2 CALLDATALOAD SWAP1 POP PUSH2 0x7D3 DUP2 PUSH2 0x7AF JUMP JUMPDEST SWAP3 SWAP2 POP POP JUMP JUMPDEST PUSH0 PUSH1 0x20 DUP3 DUP5 SUB SLT ISZERO PUSH2 0x7EE JUMPI PUSH2 0x7ED PUSH2 0x7AB JUMP JUMPDEST JUMPDEST PUSH0 PUSH2 0x7FB DUP5 DUP3 DUP6 ADD PUSH2 0x7C5 JUMP JUMPDEST SWAP2 POP POP SWAP3 SWAP2 POP POP JUMP JUMPDEST PUSH0 DUP3 DUP3 MSTORE PUSH1 0x20 DUP3 ADD SWAP1 POP SWAP3 SWAP2 POP POP JUMP JUMPDEST PUSH32 0x566F746573206E65656420746F2062652074616C6C69656420696E206F726465 PUSH0 DUP3 ADD MSTORE PUSH32 0x7220746F20646F20746861742E00000000000000000000000000000000000000 PUSH1 0x20 DUP3 ADD MSTORE POP JUMP JUMPDEST PUSH0 PUSH2 0x86E PUSH1 0x2D DUP4 PUSH2 0x804 JUMP JUMPDEST SWAP2 POP PUSH2 0x879 DUP3 PUSH2 0x814 JUMP JUMPDEST PUSH1 0x40 DUP3 ADD SWAP1 POP SWAP2 SWAP1 POP JUMP JUMPDEST PUSH0 PUSH1 0x20 DUP3 ADD SWAP1 POP DUP2 DUP2 SUB PUSH0 DUP4 ADD MSTORE PUSH2 0x89B DUP2 PUSH2 0x862 JUMP JUMPDEST SWAP1 POP SWAP2 SWAP1 POP JUMP JUMPDEST PUSH32 0x596F752063616E6E6F7420726567697374657220766F746572732E0000000000 PUSH0 DUP3 ADD MSTORE POP JUMP JUMPDEST PUSH0 PUSH2 0x8D6 PUSH1 0x1B DUP4 PUSH2 0x804 JUMP JUMPDEST SWAP2 POP PUSH2 0x8E1 DUP3 PUSH2 0x8A2 JUMP JUMPDEST PUSH1 0x20 DUP3 ADD SWAP1 POP SWAP2 SWAP1 POP JUMP JUMPDEST PUSH0 PUSH1 0x20 DUP3 ADD SWAP1 POP DUP2 DUP2 SUB PUSH0 DUP4 ADD MSTORE PUSH2 0x903 DUP2 PUSH2 0x8CA JUMP JUMPDEST SWAP1 POP SWAP2 SWAP1 POP JUMP JUMPDEST PUSH32 0x566F7465732073686F756C64206E6F742062652074616C6C69656420696E206F PUSH0 DUP3 ADD MSTORE PUSH32 0x7264657220746F20646F20746861742E00000000000000000000000000000000 PUSH1 0x20 DUP3 ADD MSTORE POP JUMP JUMPDEST PUSH0 PUSH2 0x964 PUSH1 0x30 DUP4 PUSH2 0x804 JUMP JUMPDEST SWAP2 POP PUSH2 0x96F DUP3 PUSH2 0x90A JUMP JUMPDEST PUSH1 0x40 DUP3 ADD SWAP1 POP SWAP2 SWAP1 POP JUMP JUMPDEST PUSH0 PUSH1 0x20 DUP3 ADD SWAP1 POP DUP2 DUP2 SUB PUSH0 DUP4 ADD MSTORE PUSH2 0x991 DUP2 PUSH2 0x958 JUMP JUMPDEST SWAP1 POP SWAP2 SWAP1 POP JUMP JUMPDEST PUSH0 DUP2 SWAP1 POP SWAP2 SWAP1 POP JUMP JUMPDEST PUSH32 0x4E487B7100000000000000000000000000000000000000000000000000000000 PUSH0 MSTORE PUSH1 0x11 PUSH1 0x4 MSTORE PUSH1 0x24 PUSH0 REVERT JUMPDEST PUSH0 PUSH2 0x9D8 DUP3 PUSH2 0x998 JUMP JUMPDEST SWAP2 POP PUSH2 0x9E3 DUP4 PUSH2 0x998 JUMP JUMPDEST SWAP3 POP DUP3 DUP3 ADD SWAP1 POP DUP1 DUP3 GT ISZERO PUSH2 0x9FB JUMPI PUSH2 0x9FA PUSH2 0x9A1 JUMP JUMPDEST JUMPDEST SWAP3 SWAP2 POP POP JUMP JUMPDEST PUSH0 PUSH1 0x40 DUP3 ADD SWAP1 POP PUSH2 0xA14 PUSH0 DUP4 ADD DUP6 PUSH2 0x72B JUMP JUMPDEST PUSH2 0xA21 PUSH1 0x20 DUP4 ADD DUP5 PUSH2 0x72B JUMP JUMPDEST SWAP4 SWAP3 POP POP POP JUMP INVALID LOG2 PUSH5 0x6970667358 0x22 SLT KECCAK256 POP 0xE9 PUSH30 0xA31CEE8E72E5B531892E358BDB3BFC8398370EC963B2191DD23B53AA4F64 PUSH20 0x6F6C634300081700330000000000000000000000 "
				},
				"gasEstimates": {
					"creation": {
						"codeDepositCost": "530800",
						"executionCost": "infinite",
						"totalCost": "infinite"
					},
					"external": {
						"addVoter(address)": "infinite",
						"getVoteStep()": "2562",
						"getWinner()": "2724",
						"nextVoteStep()": "infinite",
						"owner()": "2560",
						"renounceOwnership()": "infinite",
						"restartVote()": "infinite",
						"transferOwnership(address)": "infinite"
					}
				},
				"methodIdentifiers": {
					"addVoter(address)": "f4ab9adf",
					"getVoteStep()": "1e09506d",
					"getWinner()": "8e7ea5b2",
					"nextVoteStep()": "fd20255c",
					"owner()": "8da5cb5b",
					"renounceOwnership()": "715018a6",
					"restartVote()": "b126f771",
					"transferOwnership(address)": "f2fde38b"
				}
			},
			"storageLayout": {
				"storage": [
					{
						"astId": 235,
						"contract": "Voting.sol:Voting",
						"label": "_owner",
						"offset": 0,
						"slot": "0",
						"type": "t_address"
					},
					{
						"astId": 30,
						"contract": "Voting.sol:Voting",
						"label": "winningProposalId",
						"offset": 0,
						"slot": "1",
						"type": "t_uint256"
					},
					{
						"astId": 42,
						"contract": "Voting.sol:Voting",
						"label": "voters",
						"offset": 0,
						"slot": "2",
						"type": "t_mapping(t_address,t_struct(Voter)37_storage)"
					},
					{
						"astId": 72,
						"contract": "Voting.sol:Voting",
						"label": "currentVoteState",
						"offset": 0,
						"slot": "3",
						"type": "t_enum(WorkflowStatus)69"
					}
				],
				"types": {
					"t_address": {
						"encoding": "inplace",
						"label": "address",
						"numberOfBytes": "20"
					},
					"t_bool": {
						"encoding": "inplace",
						"label": "bool",
						"numberOfBytes": "1"
					},
					"t_enum(WorkflowStatus)69": {
						"encoding": "inplace",
						"label": "enum Voting.WorkflowStatus",
						"numberOfBytes": "1"
					},
					"t_mapping(t_address,t_struct(Voter)37_storage)": {
						"encoding": "mapping",
						"key": "t_address",
						"label": "mapping(address => struct Voting.Voter)",
						"numberOfBytes": "32",
						"value": "t_struct(Voter)37_storage"
					},
					"t_struct(Voter)37_storage": {
						"encoding": "inplace",
						"label": "struct Voting.Voter",
						"members": [
							{
								"astId": 32,
								"contract": "Voting.sol:Voting",
								"label": "isRegistered",
								"offset": 0,
								"slot": "0",
								"type": "t_bool"
							},
							{
								"astId": 34,
								"contract": "Voting.sol:Voting",
								"label": "hasVoted",
								"offset": 1,
								"slot": "0",
								"type": "t_bool"
							},
							{
								"astId": 36,
								"contract": "Voting.sol:Voting",
								"label": "votedProposalId",
								"offset": 0,
								"slot": "1",
								"type": "t_uint256"
							}
						],
						"numberOfBytes": "64"
					},
					"t_uint256": {
						"encoding": "inplace",
						"label": "uint256",
						"numberOfBytes": "32"
					}
				}
			},
			"userdoc": {
				"kind": "user",
				"methods": {},
				"version": 1
			}
		}
	}
}