{
	"VotingPlus.sol": {
		"VotingPlus": {
			"abi": [
				{
					"inputs": [],
					"stateMutability": "nonpayable",
					"type": "constructor"
				},
				{
					"inputs": [
						{
							"internalType": "address",
							"name": "owner",
							"type": "address"
						}
					],
					"name": "OwnableInvalidOwner",
					"type": "error"
				},
				{
					"inputs": [
						{
							"internalType": "address",
							"name": "account",
							"type": "address"
						}
					],
					"name": "OwnableUnauthorizedAccount",
					"type": "error"
				},
				{
					"anonymous": false,
					"inputs": [
						{
							"indexed": true,
							"internalType": "address",
							"name": "previousOwner",
							"type": "address"
						},
						{
							"indexed": true,
							"internalType": "address",
							"name": "newOwner",
							"type": "address"
						}
					],
					"name": "OwnershipTransferred",
					"type": "event"
				},
				{
					"anonymous": false,
					"inputs": [
						{
							"indexed": false,
							"internalType": "uint256",
							"name": "proposalId",
							"type": "uint256"
						}
					],
					"name": "ProposalRegistered",
					"type": "event"
				},
				{
					"anonymous": false,
					"inputs": [
						{
							"indexed": false,
							"internalType": "string",
							"name": "message",
							"type": "string"
						}
					],
					"name": "VoteEquality",
					"type": "event"
				},
				{
					"anonymous": false,
					"inputs": [
						{
							"indexed": false,
							"internalType": "address",
							"name": "voter",
							"type": "address"
						},
						{
							"indexed": false,
							"internalType": "uint256",
							"name": "proposalId",
							"type": "uint256"
						}
					],
					"name": "Voted",
					"type": "event"
				},
				{
					"anonymous": false,
					"inputs": [
						{
							"indexed": false,
							"internalType": "address",
							"name": "voterAddress",
							"type": "address"
						}
					],
					"name": "VoterRegistered",
					"type": "event"
				},
				{
					"anonymous": false,
					"inputs": [
						{
							"indexed": false,
							"internalType": "enum VotingPlus.WorkflowStatus",
							"name": "previousStatus",
							"type": "uint8"
						},
						{
							"indexed": false,
							"internalType": "enum VotingPlus.WorkflowStatus",
							"name": "newStatus",
							"type": "uint8"
						}
					],
					"name": "WorkflowStatusChange",
					"type": "event"
				},
				{
					"inputs": [
						{
							"internalType": "string",
							"name": "_description",
							"type": "string"
						}
					],
					"name": "addProposal",
					"outputs": [],
					"stateMutability": "nonpayable",
					"type": "function"
				},
				{
					"inputs": [
						{
							"internalType": "address",
							"name": "_address",
							"type": "address"
						}
					],
					"name": "addVoter",
					"outputs": [],
					"stateMutability": "nonpayable",
					"type": "function"
				},
				{
					"inputs": [
						{
							"internalType": "address",
							"name": "_delegate",
							"type": "address"
						}
					],
					"name": "delegateVote",
					"outputs": [],
					"stateMutability": "nonpayable",
					"type": "function"
				},
				{
					"inputs": [],
					"name": "getCurrentVoteStep",
					"outputs": [
						{
							"internalType": "enum VotingPlus.WorkflowStatus",
							"name": "",
							"type": "uint8"
						}
					],
					"stateMutability": "view",
					"type": "function"
				},
				{
					"inputs": [],
					"name": "getWinner",
					"outputs": [
						{
							"internalType": "int256",
							"name": "",
							"type": "int256"
						}
					],
					"stateMutability": "view",
					"type": "function"
				},
				{
					"inputs": [],
					"name": "listProposals",
					"outputs": [
						{
							"components": [
								{
									"internalType": "uint256",
									"name": "id",
									"type": "uint256"
								},
								{
									"internalType": "string",
									"name": "description",
									"type": "string"
								},
								{
									"internalType": "uint256",
									"name": "voteCount",
									"type": "uint256"
								},
								{
									"internalType": "uint256",
									"name": "lastVoteTimestamp",
									"type": "uint256"
								}
							],
							"internalType": "struct VotingPlus.Proposal[]",
							"name": "",
							"type": "tuple[]"
						}
					],
					"stateMutability": "view",
					"type": "function"
				},
				{
					"inputs": [],
					"name": "nextVoteStep",
					"outputs": [],
					"stateMutability": "nonpayable",
					"type": "function"
				},
				{
					"inputs": [],
					"name": "owner",
					"outputs": [
						{
							"internalType": "address",
							"name": "",
							"type": "address"
						}
					],
					"stateMutability": "view",
					"type": "function"
				},
				{
					"inputs": [],
					"name": "renounceOwnership",
					"outputs": [],
					"stateMutability": "nonpayable",
					"type": "function"
				},
				{
					"inputs": [],
					"name": "restartVoteFromScratch",
					"outputs": [],
					"stateMutability": "nonpayable",
					"type": "function"
				},
				{
					"inputs": [],
					"name": "solveEqualityWithTimestamp",
					"outputs": [],
					"stateMutability": "nonpayable",
					"type": "function"
				},
				{
					"inputs": [],
					"name": "solveEqualityWithVote",
					"outputs": [],
					"stateMutability": "nonpayable",
					"type": "function"
				},
				{
					"inputs": [],
					"name": "tailVotes",
					"outputs": [
						{
							"components": [
								{
									"internalType": "uint256",
									"name": "id",
									"type": "uint256"
								},
								{
									"internalType": "string",
									"name": "description",
									"type": "string"
								},
								{
									"internalType": "uint256",
									"name": "voteCount",
									"type": "uint256"
								},
								{
									"internalType": "uint256",
									"name": "lastVoteTimestamp",
									"type": "uint256"
								}
							],
							"internalType": "struct VotingPlus.Proposal[]",
							"name": "",
							"type": "tuple[]"
						}
					],
					"stateMutability": "nonpayable",
					"type": "function"
				},
				{
					"inputs": [
						{
							"internalType": "address",
							"name": "newOwner",
							"type": "address"
						}
					],
					"name": "transferOwnership",
					"outputs": [],
					"stateMutability": "nonpayable",
					"type": "function"
				},
				{
					"inputs": [
						{
							"internalType": "uint256",
							"name": "_proposalId",
							"type": "uint256"
						}
					],
					"name": "voteForProposition",
					"outputs": [],
					"stateMutability": "nonpayable",
					"type": "function"
				}
			],
			"devdoc": {
				"author": "Maxime AUBURTIN",
				"errors": {
					"OwnableInvalidOwner(address)": [
						{
							"details": "The owner is not a valid owner account. (eg. `address(0)`)"
						}
					],
					"OwnableUnauthorizedAccount(address)": [
						{
							"details": "The caller account is not authorized to perform an operation."
						}
					]
				},
				"kind": "dev",
				"methods": {
					"addProposal(string)": {
						"params": {
							"_description": "The content of the proposition to be voted"
						}
					},
					"delegateVote(address)": {
						"params": {
							"_delegate": "The adresse to delegate the vote to"
						}
					},
					"listProposals()": {
						"returns": {
							"_0": "An array of proposals"
						}
					},
					"owner()": {
						"details": "Returns the address of the current owner."
					},
					"renounceOwnership()": {
						"details": "Leaves the contract without owner. It will not be possible to call `onlyOwner` functions. Can only be called by the current owner. NOTE: Renouncing ownership will leave the contract without an owner, thereby disabling any functionality that is only available to the owner."
					},
					"transferOwnership(address)": {
						"details": "Transfers ownership of the contract to a new account (`newOwner`). Can only be called by the current owner."
					},
					"voteForProposition(uint256)": {
						"params": {
							"_proposalId": "The if of the proposition to vote for"
						}
					}
				},
				"title": "Voting contrat: this contract allow a whitelist of voters to vote for their favorite proposition.",
				"version": 1
			},
			"evm": {
				"assembly": "    /* \"VotingPlus.sol\":309:14008  contract VotingPlus is Ownable {... */\n  mstore(0x40, 0x80)\n    /* \"VotingPlus.sol\":738:740  -1 */\n  0xffffffffffffffffffffffffffffffffffffffffffffffffffffffffffffffff\n    /* \"VotingPlus.sol\":706:740  int private winningProposalId = -1 */\n  0x01\n  sstore\n    /* \"VotingPlus.sol\":1205:1206  0 */\n  0x00\n    /* \"VotingPlus.sol\":1185:1206  uint votersNumber = 0 */\n  0x05\n  sstore\n    /* \"VotingPlus.sol\":1234:1235  0 */\n  0x00\n    /* \"VotingPlus.sol\":1212:1235  uint atLeastOneVote = 0 */\n  0x06\n  sstore\n    /* \"VotingPlus.sol\":1966:1967  0 */\n  0x00\n    /* \"VotingPlus.sol\":1941:1967  uint proposalIdCounter = 0 */\n  0x08\n  sstore\n    /* \"VotingPlus.sol\":4932:5034  constructor() Ownable(msg.sender) {... */\n  callvalue\n  dup1\n  iszero\n  tag_1\n  jumpi\n  0x00\n  dup1\n  revert\ntag_1:\n  pop\n    /* \"VotingPlus.sol\":4954:4964  msg.sender */\n  caller\n    /* \"https://github.com/OpenZeppelin/openzeppelin-contracts/blob/master/contracts/access/Ownable.sol\":1297:1298  0 */\n  0x00\n    /* \"https://github.com/OpenZeppelin/openzeppelin-contracts/blob/master/contracts/access/Ownable.sol\":1273:1299  initialOwner == address(0) */\n  0xffffffffffffffffffffffffffffffffffffffff\n  and\n    /* \"https://github.com/OpenZeppelin/openzeppelin-contracts/blob/master/contracts/access/Ownable.sol\":1273:1285  initialOwner */\n  dup2\n    /* \"https://github.com/OpenZeppelin/openzeppelin-contracts/blob/master/contracts/access/Ownable.sol\":1273:1299  initialOwner == address(0) */\n  0xffffffffffffffffffffffffffffffffffffffff\n  and\n  sub\n    /* \"https://github.com/OpenZeppelin/openzeppelin-contracts/blob/master/contracts/access/Ownable.sol\":1269:1364  if (initialOwner == address(0)) {... */\n  tag_5\n  jumpi\n    /* \"https://github.com/OpenZeppelin/openzeppelin-contracts/blob/master/contracts/access/Ownable.sol\":1350:1351  0 */\n  0x00\n    /* \"https://github.com/OpenZeppelin/openzeppelin-contracts/blob/master/contracts/access/Ownable.sol\":1322:1353  OwnableInvalidOwner(address(0)) */\n  mload(0x40)\n  0x1e4fbdf700000000000000000000000000000000000000000000000000000000\n  dup2\n  mstore\n  0x04\n  add\n  tag_6\n  swap2\n  swap1\n  tag_7\n  jump\t// in\ntag_6:\n  mload(0x40)\n  dup1\n  swap2\n  sub\n  swap1\n  revert\n    /* \"https://github.com/OpenZeppelin/openzeppelin-contracts/blob/master/contracts/access/Ownable.sol\":1269:1364  if (initialOwner == address(0)) {... */\ntag_5:\n    /* \"https://github.com/OpenZeppelin/openzeppelin-contracts/blob/master/contracts/access/Ownable.sol\":1373:1405  _transferOwnership(initialOwner) */\n  tag_8\n    /* \"https://github.com/OpenZeppelin/openzeppelin-contracts/blob/master/contracts/access/Ownable.sol\":1392:1404  initialOwner */\n  dup2\n    /* \"https://github.com/OpenZeppelin/openzeppelin-contracts/blob/master/contracts/access/Ownable.sol\":1373:1391  _transferOwnership */\n  shl(0x20, tag_9)\n    /* \"https://github.com/OpenZeppelin/openzeppelin-contracts/blob/master/contracts/access/Ownable.sol\":1373:1405  _transferOwnership(initialOwner) */\n  0x20\n  shr\n  jump\t// in\ntag_8:\n    /* \"https://github.com/OpenZeppelin/openzeppelin-contracts/blob/master/contracts/access/Ownable.sol\":1225:1412  constructor(address initialOwner) {... */\n  pop\n    /* \"VotingPlus.sol\":4995:5027  WorkflowStatus.RegisteringVoters */\n  0x00\n    /* \"VotingPlus.sol\":4976:4992  currentVoteState */\n  0x09\n  0x00\n    /* \"VotingPlus.sol\":4976:5027  currentVoteState = WorkflowStatus.RegisteringVoters */\n  0x0100\n  exp\n  dup2\n  sload\n  dup2\n  0xff\n  mul\n  not\n  and\n  swap1\n  dup4\n  0x03\n  dup2\n  gt\n  iszero\n  tag_11\n  jumpi\n  tag_12\n  tag_13\n  jump\t// in\ntag_12:\ntag_11:\n  mul\n  or\n  swap1\n  sstore\n  pop\n    /* \"VotingPlus.sol\":309:14008  contract VotingPlus is Ownable {... */\n  jump(tag_14)\n    /* \"https://github.com/OpenZeppelin/openzeppelin-contracts/blob/master/contracts/access/Ownable.sol\":2912:3099  function _transferOwnership(address newOwner) internal virtual {... */\ntag_9:\n    /* \"https://github.com/OpenZeppelin/openzeppelin-contracts/blob/master/contracts/access/Ownable.sol\":2985:3001  address oldOwner */\n  0x00\n    /* \"https://github.com/OpenZeppelin/openzeppelin-contracts/blob/master/contracts/access/Ownable.sol\":3004:3010  _owner */\n  dup1\n  0x00\n  swap1\n  sload\n  swap1\n  0x0100\n  exp\n  swap1\n  div\n  0xffffffffffffffffffffffffffffffffffffffff\n  and\n    /* \"https://github.com/OpenZeppelin/openzeppelin-contracts/blob/master/contracts/access/Ownable.sol\":2985:3010  address oldOwner = _owner */\n  swap1\n  pop\n    /* \"https://github.com/OpenZeppelin/openzeppelin-contracts/blob/master/contracts/access/Ownable.sol\":3029:3037  newOwner */\n  dup2\n    /* \"https://github.com/OpenZeppelin/openzeppelin-contracts/blob/master/contracts/access/Ownable.sol\":3020:3026  _owner */\n  0x00\n  dup1\n    /* \"https://github.com/OpenZeppelin/openzeppelin-contracts/blob/master/contracts/access/Ownable.sol\":3020:3037  _owner = newOwner */\n  0x0100\n  exp\n  dup2\n  sload\n  dup2\n  0xffffffffffffffffffffffffffffffffffffffff\n  mul\n  not\n  and\n  swap1\n  dup4\n  0xffffffffffffffffffffffffffffffffffffffff\n  and\n  mul\n  or\n  swap1\n  sstore\n  pop\n    /* \"https://github.com/OpenZeppelin/openzeppelin-contracts/blob/master/contracts/access/Ownable.sol\":3083:3091  newOwner */\n  dup2\n    /* \"https://github.com/OpenZeppelin/openzeppelin-contracts/blob/master/contracts/access/Ownable.sol\":3052:3092  OwnershipTransferred(oldOwner, newOwner) */\n  0xffffffffffffffffffffffffffffffffffffffff\n  and\n    /* \"https://github.com/OpenZeppelin/openzeppelin-contracts/blob/master/contracts/access/Ownable.sol\":3073:3081  oldOwner */\n  dup2\n    /* \"https://github.com/OpenZeppelin/openzeppelin-contracts/blob/master/contracts/access/Ownable.sol\":3052:3092  OwnershipTransferred(oldOwner, newOwner) */\n  0xffffffffffffffffffffffffffffffffffffffff\n  and\n  0x8be0079c531659141344cd1fd0a4f28419497f9722a3daafe3b4186f6b6457e0\n  mload(0x40)\n  mload(0x40)\n  dup1\n  swap2\n  sub\n  swap1\n  log3\n    /* \"https://github.com/OpenZeppelin/openzeppelin-contracts/blob/master/contracts/access/Ownable.sol\":2975:3099  {... */\n  pop\n    /* \"https://github.com/OpenZeppelin/openzeppelin-contracts/blob/master/contracts/access/Ownable.sol\":2912:3099  function _transferOwnership(address newOwner) internal virtual {... */\n  pop\n  jump\t// out\n    /* \"#utility.yul\":7:133   */\ntag_16:\n    /* \"#utility.yul\":44:51   */\n  0x00\n    /* \"#utility.yul\":84:126   */\n  0xffffffffffffffffffffffffffffffffffffffff\n    /* \"#utility.yul\":77:82   */\n  dup3\n    /* \"#utility.yul\":73:127   */\n  and\n    /* \"#utility.yul\":62:127   */\n  swap1\n  pop\n    /* \"#utility.yul\":7:133   */\n  swap2\n  swap1\n  pop\n  jump\t// out\n    /* \"#utility.yul\":139:235   */\ntag_17:\n    /* \"#utility.yul\":176:183   */\n  0x00\n    /* \"#utility.yul\":205:229   */\n  tag_22\n    /* \"#utility.yul\":223:228   */\n  dup3\n    /* \"#utility.yul\":205:229   */\n  tag_16\n  jump\t// in\ntag_22:\n    /* \"#utility.yul\":194:229   */\n  swap1\n  pop\n    /* \"#utility.yul\":139:235   */\n  swap2\n  swap1\n  pop\n  jump\t// out\n    /* \"#utility.yul\":241:359   */\ntag_18:\n    /* \"#utility.yul\":328:352   */\n  tag_24\n    /* \"#utility.yul\":346:351   */\n  dup2\n    /* \"#utility.yul\":328:352   */\n  tag_17\n  jump\t// in\ntag_24:\n    /* \"#utility.yul\":323:326   */\n  dup3\n    /* \"#utility.yul\":316:353   */\n  mstore\n    /* \"#utility.yul\":241:359   */\n  pop\n  pop\n  jump\t// out\n    /* \"#utility.yul\":365:587   */\ntag_7:\n    /* \"#utility.yul\":458:462   */\n  0x00\n    /* \"#utility.yul\":496:498   */\n  0x20\n    /* \"#utility.yul\":485:494   */\n  dup3\n    /* \"#utility.yul\":481:499   */\n  add\n    /* \"#utility.yul\":473:499   */\n  swap1\n  pop\n    /* \"#utility.yul\":509:580   */\n  tag_26\n    /* \"#utility.yul\":577:578   */\n  0x00\n    /* \"#utility.yul\":566:575   */\n  dup4\n    /* \"#utility.yul\":562:579   */\n  add\n    /* \"#utility.yul\":553:559   */\n  dup5\n    /* \"#utility.yul\":509:580   */\n  tag_18\n  jump\t// in\ntag_26:\n    /* \"#utility.yul\":365:587   */\n  swap3\n  swap2\n  pop\n  pop\n  jump\t// out\n    /* \"#utility.yul\":593:773   */\ntag_13:\n    /* \"#utility.yul\":641:718   */\n  0x4e487b7100000000000000000000000000000000000000000000000000000000\n    /* \"#utility.yul\":638:639   */\n  0x00\n    /* \"#utility.yul\":631:719   */\n  mstore\n    /* \"#utility.yul\":738:742   */\n  0x21\n    /* \"#utility.yul\":735:736   */\n  0x04\n    /* \"#utility.yul\":728:743   */\n  mstore\n    /* \"#utility.yul\":762:766   */\n  0x24\n    /* \"#utility.yul\":759:760   */\n  0x00\n    /* \"#utility.yul\":752:767   */\n  revert\n    /* \"VotingPlus.sol\":309:14008  contract VotingPlus is Ownable {... */\ntag_14:\n  dataSize(sub_0)\n  dup1\n  dataOffset(sub_0)\n  0x00\n  codecopy\n  0x00\n  return\nstop\n\nsub_0: assembly {\n        /* \"VotingPlus.sol\":309:14008  contract VotingPlus is Ownable {... */\n      mstore(0x40, 0x80)\n      callvalue\n      dup1\n      iszero\n      tag_1\n      jumpi\n      0x00\n      dup1\n      revert\n    tag_1:\n      pop\n      jumpi(tag_2, lt(calldatasize, 0x04))\n      shr(0xe0, calldataload(0x00))\n      dup1\n      0x8da5cb5b\n      gt\n      tag_18\n      jumpi\n      dup1\n      0xe77aa682\n      gt\n      tag_19\n      jumpi\n      dup1\n      0xe77aa682\n      eq\n      tag_14\n      jumpi\n      dup1\n      0xf2fde38b\n      eq\n      tag_15\n      jumpi\n      dup1\n      0xf4ab9adf\n      eq\n      tag_16\n      jumpi\n      dup1\n      0xfd20255c\n      eq\n      tag_17\n      jumpi\n      jump(tag_2)\n    tag_19:\n      dup1\n      0x8da5cb5b\n      eq\n      tag_10\n      jumpi\n      dup1\n      0x8e7ea5b2\n      eq\n      tag_11\n      jumpi\n      dup1\n      0xa1b1f89a\n      eq\n      tag_12\n      jumpi\n      dup1\n      0xb31e1d4d\n      eq\n      tag_13\n      jumpi\n      jump(tag_2)\n    tag_18:\n      dup1\n      0x6334ef66\n      gt\n      tag_20\n      jumpi\n      dup1\n      0x6334ef66\n      eq\n      tag_6\n      jumpi\n      dup1\n      0x715018a6\n      eq\n      tag_7\n      jumpi\n      dup1\n      0x746536b5\n      eq\n      tag_8\n      jumpi\n      dup1\n      0x898f0087\n      eq\n      tag_9\n      jumpi\n      jump(tag_2)\n    tag_20:\n      dup1\n      0x26c7eb1c\n      eq\n      tag_3\n      jumpi\n      dup1\n      0x2fdae3c5\n      eq\n      tag_4\n      jumpi\n      dup1\n      0x45ddbf75\n      eq\n      tag_5\n      jumpi\n    tag_2:\n      0x00\n      dup1\n      revert\n        /* \"VotingPlus.sol\":8563:8747  function listProposals() external view returns (Proposal[] memory) {... */\n    tag_3:\n      tag_21\n      tag_22\n      jump\t// in\n    tag_21:\n      mload(0x40)\n      tag_23\n      swap2\n      swap1\n      tag_24\n      jump\t// in\n    tag_23:\n      mload(0x40)\n      dup1\n      swap2\n      sub\n      swap1\n      return\n        /* \"VotingPlus.sol\":8207:8433  function addProposal(string calldata _description) external onlyVoters registeringProposals {... */\n    tag_4:\n      tag_25\n      0x04\n      dup1\n      calldatasize\n      sub\n      dup2\n      add\n      swap1\n      tag_26\n      swap2\n      swap1\n      tag_27\n      jump\t// in\n    tag_26:\n      tag_28\n      jump\t// in\n    tag_25:\n      stop\n        /* \"VotingPlus.sol\":11114:11971  function solveEqualityWithVote() external onlyOwner votesTallied {... */\n    tag_5:\n      tag_29\n      tag_30\n      jump\t// in\n    tag_29:\n      stop\n        /* \"VotingPlus.sol\":12994:13698  function restartVoteFromScratch() external votesTallied onlyOwner {... */\n    tag_6:\n      tag_31\n      tag_32\n      jump\t// in\n    tag_31:\n      stop\n        /* \"https://github.com/OpenZeppelin/openzeppelin-contracts/blob/master/contracts/access/Ownable.sol\":2293:2394  function renounceOwnership() public virtual onlyOwner {... */\n    tag_7:\n      tag_33\n      tag_34\n      jump\t// in\n    tag_33:\n      stop\n        /* \"VotingPlus.sol\":8904:9647  function voteForProposition(uint _proposalId) external onlyVoters votingProposals voteAsManyTimesAsYoureAllowedTo {... */\n    tag_8:\n      tag_35\n      0x04\n      dup1\n      calldatasize\n      sub\n      dup2\n      add\n      swap1\n      tag_36\n      swap2\n      swap1\n      tag_37\n      jump\t// in\n    tag_36:\n      tag_38\n      jump\t// in\n    tag_35:\n      stop\n        /* \"VotingPlus.sol\":9960:10838  function tailVotes() external votesTallied returns (Proposal[] memory) {... */\n    tag_9:\n      tag_39\n      tag_40\n      jump\t// in\n    tag_39:\n      mload(0x40)\n      tag_41\n      swap2\n      swap1\n      tag_24\n      jump\t// in\n    tag_41:\n      mload(0x40)\n      dup1\n      swap2\n      sub\n      swap1\n      return\n        /* \"https://github.com/OpenZeppelin/openzeppelin-contracts/blob/master/contracts/access/Ownable.sol\":1638:1723  function owner() public view virtual returns (address) {... */\n    tag_10:\n      tag_42\n      tag_43\n      jump\t// in\n    tag_42:\n      mload(0x40)\n      tag_44\n      swap2\n      swap1\n      tag_45\n      jump\t// in\n    tag_44:\n      mload(0x40)\n      dup1\n      swap2\n      sub\n      swap1\n      return\n        /* \"VotingPlus.sol\":13835:14005  function getWinner() external view returns (int) {... */\n    tag_11:\n      tag_46\n      tag_47\n      jump\t// in\n    tag_46:\n      mload(0x40)\n      tag_48\n      swap2\n      swap1\n      tag_49\n      jump\t// in\n    tag_48:\n      mload(0x40)\n      dup1\n      swap2\n      sub\n      swap1\n      return\n        /* \"VotingPlus.sol\":12228:12879  function solveEqualityWithTimestamp() external onlyOwner votesTallied {... */\n    tag_12:\n      tag_50\n      tag_51\n      jump\t// in\n    tag_50:\n      stop\n        /* \"VotingPlus.sol\":7090:7585  function delegateVote(address _delegate) onlyVoters registeringVoters external {... */\n    tag_13:\n      tag_52\n      0x04\n      dup1\n      calldatasize\n      sub\n      dup2\n      add\n      swap1\n      tag_53\n      swap2\n      swap1\n      tag_54\n      jump\t// in\n    tag_53:\n      tag_55\n      jump\t// in\n    tag_52:\n      stop\n        /* \"VotingPlus.sol\":5117:5226  function getCurrentVoteStep() external view returns (WorkflowStatus) {... */\n    tag_14:\n      tag_56\n      tag_57\n      jump\t// in\n    tag_56:\n      mload(0x40)\n      tag_58\n      swap2\n      swap1\n      tag_59\n      jump\t// in\n    tag_58:\n      mload(0x40)\n      dup1\n      swap2\n      sub\n      swap1\n      return\n        /* \"https://github.com/OpenZeppelin/openzeppelin-contracts/blob/master/contracts/access/Ownable.sol\":2543:2758  function transferOwnership(address newOwner) public virtual onlyOwner {... */\n    tag_15:\n      tag_60\n      0x04\n      dup1\n      calldatasize\n      sub\n      dup2\n      add\n      swap1\n      tag_61\n      swap2\n      swap1\n      tag_54\n      jump\t// in\n    tag_61:\n      tag_62\n      jump\t// in\n    tag_60:\n      stop\n        /* \"VotingPlus.sol\":5789:6092  function addVoter(address _address) external onlyOwner registeringVoters {... */\n    tag_16:\n      tag_63\n      0x04\n      dup1\n      calldatasize\n      sub\n      dup2\n      add\n      swap1\n      tag_64\n      swap2\n      swap1\n      tag_54\n      jump\t// in\n    tag_64:\n      tag_65\n      jump\t// in\n    tag_63:\n      stop\n        /* \"VotingPlus.sol\":5355:5677  function nextVoteStep() external onlyOwner votersRegistered(3) proposalRegistered(2) voteRegistered(1) votesNotTallied {... */\n    tag_17:\n      tag_66\n      tag_67\n      jump\t// in\n    tag_66:\n      stop\n        /* \"VotingPlus.sol\":8563:8747  function listProposals() external view returns (Proposal[] memory) {... */\n    tag_22:\n        /* \"VotingPlus.sol\":8611:8628  Proposal[] memory */\n      0x60\n        /* \"VotingPlus.sol\":8667:8668  0 */\n      0x00\n        /* \"VotingPlus.sol\":8648:8657  proposals */\n      0x07\n        /* \"VotingPlus.sol\":8648:8664  proposals.length */\n      dup1\n      sload\n      swap1\n      pop\n        /* \"VotingPlus.sol\":8648:8668  proposals.length > 0 */\n      gt\n        /* \"VotingPlus.sol\":8640:8714  require(proposals.length > 0, \"There are no propositions registered yet!\") */\n      tag_69\n      jumpi\n      mload(0x40)\n      0x08c379a000000000000000000000000000000000000000000000000000000000\n      dup2\n      mstore\n      0x04\n      add\n      tag_70\n      swap1\n      tag_71\n      jump\t// in\n    tag_70:\n      mload(0x40)\n      dup1\n      swap2\n      sub\n      swap1\n      revert\n    tag_69:\n        /* \"VotingPlus.sol\":8731:8740  proposals */\n      0x07\n        /* \"VotingPlus.sol\":8724:8740  return proposals */\n      dup1\n      sload\n      dup1\n      0x20\n      mul\n      0x20\n      add\n      mload(0x40)\n      swap1\n      dup2\n      add\n      0x40\n      mstore\n      dup1\n      swap3\n      swap2\n      swap1\n      dup2\n      dup2\n      mstore\n      0x20\n      add\n      0x00\n      swap1\n    tag_72:\n      dup3\n      dup3\n      lt\n      iszero\n      tag_73\n      jumpi\n      dup4\n      dup3\n      swap1\n      0x00\n      mstore\n      keccak256(0x00, 0x20)\n      swap1\n      0x04\n      mul\n      add\n      mload(0x40)\n      dup1\n      0x80\n      add\n      0x40\n      mstore\n      swap1\n      dup2\n      0x00\n      dup3\n      add\n      sload\n      dup2\n      mstore\n      0x20\n      add\n      0x01\n      dup3\n      add\n      dup1\n      sload\n      tag_75\n      swap1\n      tag_76\n      jump\t// in\n    tag_75:\n      dup1\n      0x1f\n      add\n      0x20\n      dup1\n      swap2\n      div\n      mul\n      0x20\n      add\n      mload(0x40)\n      swap1\n      dup2\n      add\n      0x40\n      mstore\n      dup1\n      swap3\n      swap2\n      swap1\n      dup2\n      dup2\n      mstore\n      0x20\n      add\n      dup3\n      dup1\n      sload\n      tag_77\n      swap1\n      tag_76\n      jump\t// in\n    tag_77:\n      dup1\n      iszero\n      tag_78\n      jumpi\n      dup1\n      0x1f\n      lt\n      tag_79\n      jumpi\n      0x0100\n      dup1\n      dup4\n      sload\n      div\n      mul\n      dup4\n      mstore\n      swap2\n      0x20\n      add\n      swap2\n      jump(tag_78)\n    tag_79:\n      dup3\n      add\n      swap2\n      swap1\n      0x00\n      mstore\n      keccak256(0x00, 0x20)\n      swap1\n    tag_80:\n      dup2\n      sload\n      dup2\n      mstore\n      swap1\n      0x01\n      add\n      swap1\n      0x20\n      add\n      dup1\n      dup4\n      gt\n      tag_80\n      jumpi\n      dup3\n      swap1\n      sub\n      0x1f\n      and\n      dup3\n      add\n      swap2\n    tag_78:\n      pop\n      pop\n      pop\n      pop\n      pop\n      dup2\n      mstore\n      0x20\n      add\n      0x02\n      dup3\n      add\n      sload\n      dup2\n      mstore\n      0x20\n      add\n      0x03\n      dup3\n      add\n      sload\n      dup2\n      mstore\n      pop\n      pop\n      dup2\n      mstore\n      0x20\n      add\n      swap1\n      0x01\n      add\n      swap1\n      jump(tag_72)\n    tag_73:\n      pop\n      pop\n      pop\n      pop\n      swap1\n      pop\n        /* \"VotingPlus.sol\":8563:8747  function listProposals() external view returns (Proposal[] memory) {... */\n      swap1\n      jump\t// out\n        /* \"VotingPlus.sol\":8207:8433  function addProposal(string calldata _description) external onlyVoters registeringProposals {... */\n    tag_28:\n        /* \"VotingPlus.sol\":1368:1372  true */\n      0x01\n        /* \"VotingPlus.sol\":1333:1372  voters[msg.sender].isRegistered == true */\n      iszero\n      iszero\n        /* \"VotingPlus.sol\":1333:1339  voters */\n      0x03\n        /* \"VotingPlus.sol\":1333:1351  voters[msg.sender] */\n      0x00\n        /* \"VotingPlus.sol\":1340:1350  msg.sender */\n      caller\n        /* \"VotingPlus.sol\":1333:1351  voters[msg.sender] */\n      0xffffffffffffffffffffffffffffffffffffffff\n      and\n      0xffffffffffffffffffffffffffffffffffffffff\n      and\n      dup2\n      mstore\n      0x20\n      add\n      swap1\n      dup2\n      mstore\n      0x20\n      add\n      0x00\n      keccak256\n        /* \"VotingPlus.sol\":1333:1364  voters[msg.sender].isRegistered */\n      0x00\n      add\n      0x00\n      swap1\n      sload\n      swap1\n      0x0100\n      exp\n      swap1\n      div\n      0xff\n      and\n        /* \"VotingPlus.sol\":1333:1372  voters[msg.sender].isRegistered == true */\n      iszero\n      iszero\n      eq\n        /* \"VotingPlus.sol\":1325:1403  require(voters[msg.sender].isRegistered == true, \"You are not a valid voter!\") */\n      tag_82\n      jumpi\n      mload(0x40)\n      0x08c379a000000000000000000000000000000000000000000000000000000000\n      dup2\n      mstore\n      0x04\n      add\n      tag_83\n      swap1\n      tag_84\n      jump\t// in\n    tag_83:\n      mload(0x40)\n      dup1\n      swap2\n      sub\n      swap1\n      revert\n    tag_82:\n        /* \"VotingPlus.sol\":3172:3208  WorkflowStatus.ProposalsRegistration */\n      0x01\n        /* \"VotingPlus.sol\":3152:3208  currentVoteState == WorkflowStatus.ProposalsRegistration */\n      0x03\n      dup2\n      gt\n      iszero\n      tag_86\n      jumpi\n      tag_87\n      tag_88\n      jump\t// in\n    tag_87:\n    tag_86:\n        /* \"VotingPlus.sol\":3152:3168  currentVoteState */\n      0x09\n      0x00\n      swap1\n      sload\n      swap1\n      0x0100\n      exp\n      swap1\n      div\n      0xff\n      and\n        /* \"VotingPlus.sol\":3152:3208  currentVoteState == WorkflowStatus.ProposalsRegistration */\n      0x03\n      dup2\n      gt\n      iszero\n      tag_89\n      jumpi\n      tag_90\n      tag_88\n      jump\t// in\n    tag_90:\n    tag_89:\n      eq\n        /* \"VotingPlus.sol\":3144:3242  require(currentVoteState == WorkflowStatus.ProposalsRegistration, \"You cannot register proposals\") */\n      tag_91\n      jumpi\n      mload(0x40)\n      0x08c379a000000000000000000000000000000000000000000000000000000000\n      dup2\n      mstore\n      0x04\n      add\n      tag_92\n      swap1\n      tag_93\n      jump\t// in\n    tag_92:\n      mload(0x40)\n      dup1\n      swap2\n      sub\n      swap1\n      revert\n    tag_91:\n        /* \"VotingPlus.sol\":8309:8318  proposals */\n      0x07\n        /* \"VotingPlus.sol\":8324:8371  Proposal(proposalIdCounter, _description, 0, 0) */\n      mload(0x40)\n      dup1\n      0x80\n      add\n      0x40\n      mstore\n      dup1\n        /* \"VotingPlus.sol\":8333:8350  proposalIdCounter */\n      sload(0x08)\n        /* \"VotingPlus.sol\":8324:8371  Proposal(proposalIdCounter, _description, 0, 0) */\n      dup2\n      mstore\n      0x20\n      add\n        /* \"VotingPlus.sol\":8352:8364  _description */\n      dup5\n      dup5\n        /* \"VotingPlus.sol\":8324:8371  Proposal(proposalIdCounter, _description, 0, 0) */\n      dup1\n      dup1\n      0x1f\n      add\n      0x20\n      dup1\n      swap2\n      div\n      mul\n      0x20\n      add\n      mload(0x40)\n      swap1\n      dup2\n      add\n      0x40\n      mstore\n      dup1\n      swap4\n      swap3\n      swap2\n      swap1\n      dup2\n      dup2\n      mstore\n      0x20\n      add\n      dup4\n      dup4\n      dup1\n      dup3\n      dup5\n      calldatacopy\n      0x00\n      dup2\n      dup5\n      add\n      mstore\n      not(0x1f)\n      0x1f\n      dup3\n      add\n      and\n      swap1\n      pop\n      dup1\n      dup4\n      add\n      swap3\n      pop\n      pop\n      pop\n      pop\n      pop\n      pop\n      pop\n      dup2\n      mstore\n      0x20\n      add\n        /* \"VotingPlus.sol\":8366:8367  0 */\n      0x00\n        /* \"VotingPlus.sol\":8324:8371  Proposal(proposalIdCounter, _description, 0, 0) */\n      dup2\n      mstore\n      0x20\n      add\n        /* \"VotingPlus.sol\":8369:8370  0 */\n      0x00\n        /* \"VotingPlus.sol\":8324:8371  Proposal(proposalIdCounter, _description, 0, 0) */\n      dup2\n      mstore\n      pop\n        /* \"VotingPlus.sol\":8309:8372  proposals.push(Proposal(proposalIdCounter, _description, 0, 0)) */\n      swap1\n      dup1\n      0x01\n      dup2\n      sload\n      add\n      dup1\n      dup3\n      sstore\n      dup1\n      swap2\n      pop\n      pop\n      0x01\n      swap1\n      sub\n      swap1\n      0x00\n      mstore\n      keccak256(0x00, 0x20)\n      swap1\n      0x04\n      mul\n      add\n      0x00\n      swap1\n      swap2\n      swap1\n      swap2\n      swap1\n      swap2\n      pop\n      0x00\n      dup3\n      add\n      mload\n      dup2\n      0x00\n      add\n      sstore\n      0x20\n      dup3\n      add\n      mload\n      dup2\n      0x01\n      add\n      swap1\n      dup2\n      tag_96\n      swap2\n      swap1\n      tag_97\n      jump\t// in\n    tag_96:\n      pop\n      0x40\n      dup3\n      add\n      mload\n      dup2\n      0x02\n      add\n      sstore\n      0x60\n      dup3\n      add\n      mload\n      dup2\n      0x03\n      add\n      sstore\n      pop\n      pop\n        /* \"VotingPlus.sol\":8387:8426  ProposalRegistered(proposalIdCounter++) */\n      0x92e393e9b54e2f801d3ea4beb0c5e71a21cc34a5d34b77d0fb8a3aa1650dc18f\n        /* \"VotingPlus.sol\":8406:8423  proposalIdCounter */\n      0x08\n      0x00\n        /* \"VotingPlus.sol\":8406:8425  proposalIdCounter++ */\n      dup2\n      sload\n      dup1\n      swap3\n      swap2\n      swap1\n      tag_98\n      swap1\n      tag_99\n      jump\t// in\n    tag_98:\n      swap2\n      swap1\n      pop\n      sstore\n        /* \"VotingPlus.sol\":8387:8426  ProposalRegistered(proposalIdCounter++) */\n      mload(0x40)\n      tag_100\n      swap2\n      swap1\n      tag_101\n      jump\t// in\n    tag_100:\n      mload(0x40)\n      dup1\n      swap2\n      sub\n      swap1\n      log1\n        /* \"VotingPlus.sol\":8207:8433  function addProposal(string calldata _description) external onlyVoters registeringProposals {... */\n      pop\n      pop\n      jump\t// out\n        /* \"VotingPlus.sol\":11114:11971  function solveEqualityWithVote() external onlyOwner votesTallied {... */\n    tag_30:\n        /* \"https://github.com/OpenZeppelin/openzeppelin-contracts/blob/master/contracts/access/Ownable.sol\":1531:1544  _checkOwner() */\n      tag_103\n        /* \"https://github.com/OpenZeppelin/openzeppelin-contracts/blob/master/contracts/access/Ownable.sol\":1531:1542  _checkOwner */\n      tag_104\n        /* \"https://github.com/OpenZeppelin/openzeppelin-contracts/blob/master/contracts/access/Ownable.sol\":1531:1544  _checkOwner() */\n      jump\t// in\n    tag_103:\n        /* \"VotingPlus.sol\":2458:2485  WorkflowStatus.VotesTallied */\n      0x03\n        /* \"VotingPlus.sol\":2438:2485  currentVoteState == WorkflowStatus.VotesTallied */\n      dup1\n      dup2\n      gt\n      iszero\n      tag_106\n      jumpi\n      tag_107\n      tag_88\n      jump\t// in\n    tag_107:\n    tag_106:\n        /* \"VotingPlus.sol\":2438:2454  currentVoteState */\n      0x09\n      0x00\n      swap1\n      sload\n      swap1\n      0x0100\n      exp\n      swap1\n      div\n      0xff\n      and\n        /* \"VotingPlus.sol\":2438:2485  currentVoteState == WorkflowStatus.VotesTallied */\n      0x03\n      dup2\n      gt\n      iszero\n      tag_108\n      jumpi\n      tag_109\n      tag_88\n      jump\t// in\n    tag_109:\n    tag_108:\n      eq\n        /* \"VotingPlus.sol\":2430:2549  require(currentVoteState == WorkflowStatus.VotesTallied, \"Votes need to be tallied in order to perform this operation\") */\n      tag_110\n      jumpi\n      mload(0x40)\n      0x08c379a000000000000000000000000000000000000000000000000000000000\n      dup2\n      mstore\n      0x04\n      add\n      tag_111\n      swap1\n      tag_112\n      jump\t// in\n    tag_111:\n      mload(0x40)\n      dup1\n      swap2\n      sub\n      swap1\n      revert\n    tag_110:\n        /* \"VotingPlus.sol\":11214:11215  1 */\n      0x01\n        /* \"VotingPlus.sol\":11197:11204  winners */\n      0x02\n        /* \"VotingPlus.sol\":11197:11211  winners.length */\n      dup1\n      sload\n      swap1\n      pop\n        /* \"VotingPlus.sol\":11197:11215  winners.length > 1 */\n      gt\n        /* \"VotingPlus.sol\":11189:11287  require(winners.length > 1, \"There are no equality in results so we don't need to break the tie!\") */\n      tag_114\n      jumpi\n      mload(0x40)\n      0x08c379a000000000000000000000000000000000000000000000000000000000\n      dup2\n      mstore\n      0x04\n      add\n      tag_115\n      swap1\n      tag_116\n      jump\t// in\n    tag_115:\n      mload(0x40)\n      dup1\n      swap2\n      sub\n      swap1\n      revert\n    tag_114:\n        /* \"VotingPlus.sol\":11318:11325  winners */\n      0x02\n        /* \"VotingPlus.sol\":11318:11332  winners.length */\n      dup1\n      sload\n      swap1\n      pop\n        /* \"VotingPlus.sol\":11298:11315  proposalIdCounter */\n      0x08\n        /* \"VotingPlus.sol\":11298:11332  proposalIdCounter = winners.length */\n      dup2\n      swap1\n      sstore\n      pop\n        /* \"VotingPlus.sol\":11426:11435  proposals */\n      0x07\n      0x00\n        /* \"VotingPlus.sol\":11419:11435  delete proposals */\n      tag_117\n      swap2\n      swap1\n      tag_118\n      jump\t// in\n    tag_117:\n        /* \"VotingPlus.sol\":11457:11464  winners */\n      0x02\n        /* \"VotingPlus.sol\":11445:11454  proposals */\n      0x07\n        /* \"VotingPlus.sol\":11445:11464  proposals = winners */\n      swap1\n      dup1\n      sload\n      tag_119\n      swap3\n      swap2\n      swap1\n      tag_120\n      jump\t// in\n    tag_119:\n      pop\n        /* \"VotingPlus.sol\":11535:11541  uint i */\n      0x00\n        /* \"VotingPlus.sol\":11530:11621  for (uint i=0; i<proposals.length; i++) {... */\n    tag_121:\n        /* \"VotingPlus.sol\":11547:11556  proposals */\n      0x07\n        /* \"VotingPlus.sol\":11547:11563  proposals.length */\n      dup1\n      sload\n      swap1\n      pop\n        /* \"VotingPlus.sol\":11545:11546  i */\n      dup2\n        /* \"VotingPlus.sol\":11545:11563  i<proposals.length */\n      lt\n        /* \"VotingPlus.sol\":11530:11621  for (uint i=0; i<proposals.length; i++) {... */\n      iszero\n      tag_122\n      jumpi\n        /* \"VotingPlus.sol\":11609:11610  0 */\n      0x00\n        /* \"VotingPlus.sol\":11584:11593  proposals */\n      0x07\n        /* \"VotingPlus.sol\":11594:11595  i */\n      dup3\n        /* \"VotingPlus.sol\":11584:11596  proposals[i] */\n      dup2\n      sload\n      dup2\n      lt\n      tag_124\n      jumpi\n      tag_125\n      tag_126\n      jump\t// in\n    tag_125:\n    tag_124:\n      swap1\n      0x00\n      mstore\n      keccak256(0x00, 0x20)\n      swap1\n      0x04\n      mul\n      add\n        /* \"VotingPlus.sol\":11584:11606  proposals[i].voteCount */\n      0x02\n      add\n        /* \"VotingPlus.sol\":11584:11610  proposals[i].voteCount = 0 */\n      dup2\n      swap1\n      sstore\n      pop\n        /* \"VotingPlus.sol\":11565:11568  i++ */\n      dup1\n      dup1\n      0x01\n      add\n      swap2\n      pop\n      pop\n        /* \"VotingPlus.sol\":11530:11621  for (uint i=0; i<proposals.length; i++) {... */\n      jump(tag_121)\n    tag_122:\n      pop\n        /* \"VotingPlus.sol\":11681:11687  uint i */\n      0x00\n        /* \"VotingPlus.sol\":11676:11835  for (uint i=0; i<votersKeys.length; i++) {... */\n    tag_128:\n        /* \"VotingPlus.sol\":11693:11703  votersKeys */\n      0x04\n        /* \"VotingPlus.sol\":11693:11710  votersKeys.length */\n      dup1\n      sload\n      swap1\n      pop\n        /* \"VotingPlus.sol\":11691:11692  i */\n      dup2\n        /* \"VotingPlus.sol\":11691:11710  i<votersKeys.length */\n      lt\n        /* \"VotingPlus.sol\":11676:11835  for (uint i=0; i<votersKeys.length; i++) {... */\n      iszero\n      tag_129\n      jumpi\n        /* \"VotingPlus.sol\":11764:11765  0 */\n      0x00\n        /* \"VotingPlus.sol\":11731:11737  voters */\n      0x03\n        /* \"VotingPlus.sol\":11731:11752  voters[votersKeys[i]] */\n      0x00\n        /* \"VotingPlus.sol\":11738:11748  votersKeys */\n      0x04\n        /* \"VotingPlus.sol\":11749:11750  i */\n      dup5\n        /* \"VotingPlus.sol\":11738:11751  votersKeys[i] */\n      dup2\n      sload\n      dup2\n      lt\n      tag_131\n      jumpi\n      tag_132\n      tag_126\n      jump\t// in\n    tag_132:\n    tag_131:\n      swap1\n      0x00\n      mstore\n      keccak256(0x00, 0x20)\n      add\n      0x00\n      swap1\n      sload\n      swap1\n      0x0100\n      exp\n      swap1\n      div\n      0xffffffffffffffffffffffffffffffffffffffff\n      and\n        /* \"VotingPlus.sol\":11731:11752  voters[votersKeys[i]] */\n      0xffffffffffffffffffffffffffffffffffffffff\n      and\n      0xffffffffffffffffffffffffffffffffffffffff\n      and\n      dup2\n      mstore\n      0x20\n      add\n      swap1\n      dup2\n      mstore\n      0x20\n      add\n      0x00\n      keccak256\n        /* \"VotingPlus.sol\":11731:11761  voters[votersKeys[i]].hasVoted */\n      0x01\n      add\n        /* \"VotingPlus.sol\":11731:11765  voters[votersKeys[i]].hasVoted = 0 */\n      dup2\n      swap1\n      sstore\n      pop\n        /* \"VotingPlus.sol\":11786:11792  voters */\n      0x03\n        /* \"VotingPlus.sol\":11786:11807  voters[votersKeys[i]] */\n      0x00\n        /* \"VotingPlus.sol\":11793:11803  votersKeys */\n      0x04\n        /* \"VotingPlus.sol\":11804:11805  i */\n      dup4\n        /* \"VotingPlus.sol\":11793:11806  votersKeys[i] */\n      dup2\n      sload\n      dup2\n      lt\n      tag_134\n      jumpi\n      tag_135\n      tag_126\n      jump\t// in\n    tag_135:\n    tag_134:\n      swap1\n      0x00\n      mstore\n      keccak256(0x00, 0x20)\n      add\n      0x00\n      swap1\n      sload\n      swap1\n      0x0100\n      exp\n      swap1\n      div\n      0xffffffffffffffffffffffffffffffffffffffff\n      and\n        /* \"VotingPlus.sol\":11786:11807  voters[votersKeys[i]] */\n      0xffffffffffffffffffffffffffffffffffffffff\n      and\n      0xffffffffffffffffffffffffffffffffffffffff\n      and\n      dup2\n      mstore\n      0x20\n      add\n      swap1\n      dup2\n      mstore\n      0x20\n      add\n      0x00\n      keccak256\n        /* \"VotingPlus.sol\":11786:11824  voters[votersKeys[i]].votedProposalIds */\n      0x03\n      add\n      0x00\n        /* \"VotingPlus.sol\":11779:11824  delete voters[votersKeys[i]].votedProposalIds */\n      tag_137\n      swap2\n      swap1\n      tag_138\n      jump\t// in\n    tag_137:\n        /* \"VotingPlus.sol\":11712:11715  i++ */\n      dup1\n      dup1\n      0x01\n      add\n      swap2\n      pop\n      pop\n        /* \"VotingPlus.sol\":11676:11835  for (uint i=0; i<votersKeys.length; i++) {... */\n      jump(tag_128)\n    tag_129:\n      pop\n        /* \"VotingPlus.sol\":11936:11964  WorkflowStatus.VotingSession */\n      0x02\n        /* \"VotingPlus.sol\":11917:11933  currentVoteState */\n      0x09\n      0x00\n        /* \"VotingPlus.sol\":11917:11964  currentVoteState = WorkflowStatus.VotingSession */\n      0x0100\n      exp\n      dup2\n      sload\n      dup2\n      0xff\n      mul\n      not\n      and\n      swap1\n      dup4\n      0x03\n      dup2\n      gt\n      iszero\n      tag_139\n      jumpi\n      tag_140\n      tag_88\n      jump\t// in\n    tag_140:\n    tag_139:\n      mul\n      or\n      swap1\n      sstore\n      pop\n        /* \"VotingPlus.sol\":11114:11971  function solveEqualityWithVote() external onlyOwner votesTallied {... */\n      jump\t// out\n        /* \"VotingPlus.sol\":12994:13698  function restartVoteFromScratch() external votesTallied onlyOwner {... */\n    tag_32:\n        /* \"VotingPlus.sol\":2458:2485  WorkflowStatus.VotesTallied */\n      0x03\n        /* \"VotingPlus.sol\":2438:2485  currentVoteState == WorkflowStatus.VotesTallied */\n      dup1\n      dup2\n      gt\n      iszero\n      tag_142\n      jumpi\n      tag_143\n      tag_88\n      jump\t// in\n    tag_143:\n    tag_142:\n        /* \"VotingPlus.sol\":2438:2454  currentVoteState */\n      0x09\n      0x00\n      swap1\n      sload\n      swap1\n      0x0100\n      exp\n      swap1\n      div\n      0xff\n      and\n        /* \"VotingPlus.sol\":2438:2485  currentVoteState == WorkflowStatus.VotesTallied */\n      0x03\n      dup2\n      gt\n      iszero\n      tag_144\n      jumpi\n      tag_145\n      tag_88\n      jump\t// in\n    tag_145:\n    tag_144:\n      eq\n        /* \"VotingPlus.sol\":2430:2549  require(currentVoteState == WorkflowStatus.VotesTallied, \"Votes need to be tallied in order to perform this operation\") */\n      tag_146\n      jumpi\n      mload(0x40)\n      0x08c379a000000000000000000000000000000000000000000000000000000000\n      dup2\n      mstore\n      0x04\n      add\n      tag_147\n      swap1\n      tag_112\n      jump\t// in\n    tag_147:\n      mload(0x40)\n      dup1\n      swap2\n      sub\n      swap1\n      revert\n    tag_146:\n        /* \"https://github.com/OpenZeppelin/openzeppelin-contracts/blob/master/contracts/access/Ownable.sol\":1531:1544  _checkOwner() */\n      tag_149\n        /* \"https://github.com/OpenZeppelin/openzeppelin-contracts/blob/master/contracts/access/Ownable.sol\":1531:1542  _checkOwner */\n      tag_104\n        /* \"https://github.com/OpenZeppelin/openzeppelin-contracts/blob/master/contracts/access/Ownable.sol\":1531:1544  _checkOwner() */\n      jump\t// in\n    tag_149:\n        /* \"VotingPlus.sol\":13165:13197  WorkflowStatus.RegisteringVoters */\n      0x00\n        /* \"VotingPlus.sol\":13146:13162  currentVoteState */\n      0x09\n      0x00\n        /* \"VotingPlus.sol\":13146:13197  currentVoteState = WorkflowStatus.RegisteringVoters */\n      0x0100\n      exp\n      dup2\n      sload\n      dup2\n      0xff\n      mul\n      not\n      and\n      swap1\n      dup4\n      0x03\n      dup2\n      gt\n      iszero\n      tag_151\n      jumpi\n      tag_152\n      tag_88\n      jump\t// in\n    tag_152:\n    tag_151:\n      mul\n      or\n      swap1\n      sstore\n      pop\n        /* \"VotingPlus.sol\":13269:13270  0 */\n      0x00\n        /* \"VotingPlus.sol\":13249:13266  proposalIdCounter */\n      0x08\n        /* \"VotingPlus.sol\":13249:13270  proposalIdCounter = 0 */\n      dup2\n      swap1\n      sstore\n      pop\n        /* \"VotingPlus.sol\":13287:13296  proposals */\n      0x07\n      0x00\n        /* \"VotingPlus.sol\":13280:13296  delete proposals */\n      tag_153\n      swap2\n      swap1\n      tag_118\n      jump\t// in\n    tag_153:\n        /* \"VotingPlus.sol\":13364:13365  0 */\n      0x00\n        /* \"VotingPlus.sol\":13349:13361  votersNumber */\n      0x05\n        /* \"VotingPlus.sol\":13349:13365  votersNumber = 0 */\n      dup2\n      swap1\n      sstore\n      pop\n        /* \"VotingPlus.sol\":13392:13393  0 */\n      0x00\n        /* \"VotingPlus.sol\":13375:13389  atLeastOneVote */\n      0x06\n        /* \"VotingPlus.sol\":13375:13393  atLeastOneVote = 0 */\n      dup2\n      swap1\n      sstore\n      pop\n        /* \"VotingPlus.sol\":13464:13470  uint i */\n      0x00\n        /* \"VotingPlus.sol\":13459:13553  for (uint i=0; i<votersKeys.length; i++) {... */\n    tag_154:\n        /* \"VotingPlus.sol\":13476:13486  votersKeys */\n      0x04\n        /* \"VotingPlus.sol\":13476:13493  votersKeys.length */\n      dup1\n      sload\n      swap1\n      pop\n        /* \"VotingPlus.sol\":13474:13475  i */\n      dup2\n        /* \"VotingPlus.sol\":13474:13493  i<votersKeys.length */\n      lt\n        /* \"VotingPlus.sol\":13459:13553  for (uint i=0; i<votersKeys.length; i++) {... */\n      iszero\n      tag_155\n      jumpi\n        /* \"VotingPlus.sol\":13521:13527  voters */\n      0x03\n        /* \"VotingPlus.sol\":13521:13542  voters[votersKeys[i]] */\n      0x00\n        /* \"VotingPlus.sol\":13528:13538  votersKeys */\n      0x04\n        /* \"VotingPlus.sol\":13539:13540  i */\n      dup4\n        /* \"VotingPlus.sol\":13528:13541  votersKeys[i] */\n      dup2\n      sload\n      dup2\n      lt\n      tag_157\n      jumpi\n      tag_158\n      tag_126\n      jump\t// in\n    tag_158:\n    tag_157:\n      swap1\n      0x00\n      mstore\n      keccak256(0x00, 0x20)\n      add\n      0x00\n      swap1\n      sload\n      swap1\n      0x0100\n      exp\n      swap1\n      div\n      0xffffffffffffffffffffffffffffffffffffffff\n      and\n        /* \"VotingPlus.sol\":13521:13542  voters[votersKeys[i]] */\n      0xffffffffffffffffffffffffffffffffffffffff\n      and\n      0xffffffffffffffffffffffffffffffffffffffff\n      and\n      dup2\n      mstore\n      0x20\n      add\n      swap1\n      dup2\n      mstore\n      0x20\n      add\n      0x00\n      keccak256\n      0x00\n        /* \"VotingPlus.sol\":13514:13542  delete voters[votersKeys[i]] */\n      dup1\n      dup3\n      add\n      exp(0x0100, 0x00)\n      dup2\n      sload\n      swap1\n      0xff\n      mul\n      not\n      and\n      swap1\n      sstore\n      0x01\n      dup3\n      add\n      0x00\n      swap1\n      sstore\n      0x02\n      dup3\n      add\n      0x00\n      swap1\n      sstore\n      0x03\n      dup3\n      add\n      0x00\n      tag_160\n      swap2\n      swap1\n      tag_138\n      jump\t// in\n    tag_160:\n      pop\n      pop\n        /* \"VotingPlus.sol\":13495:13498  i++ */\n      dup1\n      dup1\n      0x01\n      add\n      swap2\n      pop\n      pop\n        /* \"VotingPlus.sol\":13459:13553  for (uint i=0; i<votersKeys.length; i++) {... */\n      jump(tag_154)\n    tag_155:\n      pop\n        /* \"VotingPlus.sol\":13613:13623  votersKeys */\n      0x04\n      0x00\n        /* \"VotingPlus.sol\":13606:13623  delete votersKeys */\n      tag_161\n      swap2\n      swap1\n      tag_162\n      jump\t// in\n    tag_161:\n        /* \"VotingPlus.sol\":13689:13691  -1 */\n      0xffffffffffffffffffffffffffffffffffffffffffffffffffffffffffffffff\n        /* \"VotingPlus.sol\":13669:13686  winningProposalId */\n      0x01\n        /* \"VotingPlus.sol\":13669:13691  winningProposalId = -1 */\n      dup2\n      swap1\n      sstore\n      pop\n        /* \"VotingPlus.sol\":12994:13698  function restartVoteFromScratch() external votesTallied onlyOwner {... */\n      jump\t// out\n        /* \"https://github.com/OpenZeppelin/openzeppelin-contracts/blob/master/contracts/access/Ownable.sol\":2293:2394  function renounceOwnership() public virtual onlyOwner {... */\n    tag_34:\n        /* \"https://github.com/OpenZeppelin/openzeppelin-contracts/blob/master/contracts/access/Ownable.sol\":1531:1544  _checkOwner() */\n      tag_164\n        /* \"https://github.com/OpenZeppelin/openzeppelin-contracts/blob/master/contracts/access/Ownable.sol\":1531:1542  _checkOwner */\n      tag_104\n        /* \"https://github.com/OpenZeppelin/openzeppelin-contracts/blob/master/contracts/access/Ownable.sol\":1531:1544  _checkOwner() */\n      jump\t// in\n    tag_164:\n        /* \"https://github.com/OpenZeppelin/openzeppelin-contracts/blob/master/contracts/access/Ownable.sol\":2357:2387  _transferOwnership(address(0)) */\n      tag_166\n        /* \"https://github.com/OpenZeppelin/openzeppelin-contracts/blob/master/contracts/access/Ownable.sol\":2384:2385  0 */\n      0x00\n        /* \"https://github.com/OpenZeppelin/openzeppelin-contracts/blob/master/contracts/access/Ownable.sol\":2357:2375  _transferOwnership */\n      tag_167\n        /* \"https://github.com/OpenZeppelin/openzeppelin-contracts/blob/master/contracts/access/Ownable.sol\":2357:2387  _transferOwnership(address(0)) */\n      jump\t// in\n    tag_166:\n        /* \"https://github.com/OpenZeppelin/openzeppelin-contracts/blob/master/contracts/access/Ownable.sol\":2293:2394  function renounceOwnership() public virtual onlyOwner {... */\n      jump\t// out\n        /* \"VotingPlus.sol\":8904:9647  function voteForProposition(uint _proposalId) external onlyVoters votingProposals voteAsManyTimesAsYoureAllowedTo {... */\n    tag_38:\n        /* \"VotingPlus.sol\":1368:1372  true */\n      0x01\n        /* \"VotingPlus.sol\":1333:1372  voters[msg.sender].isRegistered == true */\n      iszero\n      iszero\n        /* \"VotingPlus.sol\":1333:1339  voters */\n      0x03\n        /* \"VotingPlus.sol\":1333:1351  voters[msg.sender] */\n      0x00\n        /* \"VotingPlus.sol\":1340:1350  msg.sender */\n      caller\n        /* \"VotingPlus.sol\":1333:1351  voters[msg.sender] */\n      0xffffffffffffffffffffffffffffffffffffffff\n      and\n      0xffffffffffffffffffffffffffffffffffffffff\n      and\n      dup2\n      mstore\n      0x20\n      add\n      swap1\n      dup2\n      mstore\n      0x20\n      add\n      0x00\n      keccak256\n        /* \"VotingPlus.sol\":1333:1364  voters[msg.sender].isRegistered */\n      0x00\n      add\n      0x00\n      swap1\n      sload\n      swap1\n      0x0100\n      exp\n      swap1\n      div\n      0xff\n      and\n        /* \"VotingPlus.sol\":1333:1372  voters[msg.sender].isRegistered == true */\n      iszero\n      iszero\n      eq\n        /* \"VotingPlus.sol\":1325:1403  require(voters[msg.sender].isRegistered == true, \"You are not a valid voter!\") */\n      tag_169\n      jumpi\n      mload(0x40)\n      0x08c379a000000000000000000000000000000000000000000000000000000000\n      dup2\n      mstore\n      0x04\n      add\n      tag_170\n      swap1\n      tag_84\n      jump\t// in\n    tag_170:\n      mload(0x40)\n      dup1\n      swap2\n      sub\n      swap1\n      revert\n    tag_169:\n        /* \"VotingPlus.sol\":3392:3420  WorkflowStatus.VotingSession */\n      0x02\n        /* \"VotingPlus.sol\":3372:3420  currentVoteState == WorkflowStatus.VotingSession */\n      0x03\n      dup2\n      gt\n      iszero\n      tag_172\n      jumpi\n      tag_173\n      tag_88\n      jump\t// in\n    tag_173:\n    tag_172:\n        /* \"VotingPlus.sol\":3372:3388  currentVoteState */\n      0x09\n      0x00\n      swap1\n      sload\n      swap1\n      0x0100\n      exp\n      swap1\n      div\n      0xff\n      and\n        /* \"VotingPlus.sol\":3372:3420  currentVoteState == WorkflowStatus.VotingSession */\n      0x03\n      dup2\n      gt\n      iszero\n      tag_174\n      jumpi\n      tag_175\n      tag_88\n      jump\t// in\n    tag_175:\n    tag_174:\n      eq\n        /* \"VotingPlus.sol\":3364:3450  require(currentVoteState == WorkflowStatus.VotingSession, \"You cannot vote proposals\") */\n      tag_176\n      jumpi\n      mload(0x40)\n      0x08c379a000000000000000000000000000000000000000000000000000000000\n      dup2\n      mstore\n      0x04\n      add\n      tag_177\n      swap1\n      tag_178\n      jump\t// in\n    tag_177:\n      mload(0x40)\n      dup1\n      swap2\n      sub\n      swap1\n      revert\n    tag_176:\n        /* \"VotingPlus.sol\":1576:1582  voters */\n      0x03\n        /* \"VotingPlus.sol\":1576:1594  voters[msg.sender] */\n      0x00\n        /* \"VotingPlus.sol\":1583:1593  msg.sender */\n      caller\n        /* \"VotingPlus.sol\":1576:1594  voters[msg.sender] */\n      0xffffffffffffffffffffffffffffffffffffffff\n      and\n      0xffffffffffffffffffffffffffffffffffffffff\n      and\n      dup2\n      mstore\n      0x20\n      add\n      swap1\n      dup2\n      mstore\n      0x20\n      add\n      0x00\n      keccak256\n        /* \"VotingPlus.sol\":1576:1602  voters[msg.sender].nbVotes */\n      0x02\n      add\n      sload\n        /* \"VotingPlus.sol\":1546:1552  voters */\n      0x03\n        /* \"VotingPlus.sol\":1546:1564  voters[msg.sender] */\n      0x00\n        /* \"VotingPlus.sol\":1553:1563  msg.sender */\n      caller\n        /* \"VotingPlus.sol\":1546:1564  voters[msg.sender] */\n      0xffffffffffffffffffffffffffffffffffffffff\n      and\n      0xffffffffffffffffffffffffffffffffffffffff\n      and\n      dup2\n      mstore\n      0x20\n      add\n      swap1\n      dup2\n      mstore\n      0x20\n      add\n      0x00\n      keccak256\n        /* \"VotingPlus.sol\":1546:1573  voters[msg.sender].hasVoted */\n      0x01\n      add\n      sload\n        /* \"VotingPlus.sol\":1546:1602  voters[msg.sender].hasVoted < voters[msg.sender].nbVotes */\n      lt\n        /* \"VotingPlus.sol\":1538:1639  require(voters[msg.sender].hasVoted < voters[msg.sender].nbVotes, \"You already used all your votes!\") */\n      tag_180\n      jumpi\n      mload(0x40)\n      0x08c379a000000000000000000000000000000000000000000000000000000000\n      dup2\n      mstore\n      0x04\n      add\n      tag_181\n      swap1\n      tag_182\n      jump\t// in\n    tag_181:\n      mload(0x40)\n      dup1\n      swap2\n      sub\n      swap1\n      revert\n    tag_180:\n        /* \"VotingPlus.sol\":9051:9052  0 */\n      0x00\n        /* \"VotingPlus.sol\":9036:9047  _proposalId */\n      dup2\n        /* \"VotingPlus.sol\":9036:9052  _proposalId >= 0 */\n      lt\n      iszero\n        /* \"VotingPlus.sol\":9036:9086  _proposalId >= 0 && _proposalId < proposals.length */\n      dup1\n      iszero\n      tag_184\n      jumpi\n      pop\n        /* \"VotingPlus.sol\":9070:9079  proposals */\n      0x07\n        /* \"VotingPlus.sol\":9070:9086  proposals.length */\n      dup1\n      sload\n      swap1\n      pop\n        /* \"VotingPlus.sol\":9056:9067  _proposalId */\n      dup2\n        /* \"VotingPlus.sol\":9056:9086  _proposalId < proposals.length */\n      lt\n        /* \"VotingPlus.sol\":9036:9086  _proposalId >= 0 && _proposalId < proposals.length */\n    tag_184:\n        /* \"VotingPlus.sol\":9028:9140  require(_proposalId >= 0 && _proposalId < proposals.length, \"The proposition you're voting for does not exist!\") */\n      tag_185\n      jumpi\n      mload(0x40)\n      0x08c379a000000000000000000000000000000000000000000000000000000000\n      dup2\n      mstore\n      0x04\n      add\n      tag_186\n      swap1\n      tag_187\n      jump\t// in\n    tag_186:\n      mload(0x40)\n      dup1\n      swap2\n      sub\n      swap1\n      revert\n    tag_185:\n        /* \"VotingPlus.sol\":9151:9160  proposals */\n      0x07\n        /* \"VotingPlus.sol\":9161:9172  _proposalId */\n      dup2\n        /* \"VotingPlus.sol\":9151:9173  proposals[_proposalId] */\n      dup2\n      sload\n      dup2\n      lt\n      tag_188\n      jumpi\n      tag_189\n      tag_126\n      jump\t// in\n    tag_189:\n    tag_188:\n      swap1\n      0x00\n      mstore\n      keccak256(0x00, 0x20)\n      swap1\n      0x04\n      mul\n      add\n        /* \"VotingPlus.sol\":9151:9183  proposals[_proposalId].voteCount */\n      0x02\n      add\n      0x00\n        /* \"VotingPlus.sol\":9151:9185  proposals[_proposalId].voteCount++ */\n      dup2\n      sload\n      dup1\n      swap3\n      swap2\n      swap1\n      tag_191\n      swap1\n      tag_99\n      jump\t// in\n    tag_191:\n      swap2\n      swap1\n      pop\n      sstore\n      pop\n        /* \"VotingPlus.sol\":9282:9297  block.timestamp */\n      timestamp\n        /* \"VotingPlus.sol\":9239:9248  proposals */\n      0x07\n        /* \"VotingPlus.sol\":9249:9260  _proposalId */\n      dup3\n        /* \"VotingPlus.sol\":9239:9261  proposals[_proposalId] */\n      dup2\n      sload\n      dup2\n      lt\n      tag_192\n      jumpi\n      tag_193\n      tag_126\n      jump\t// in\n    tag_193:\n    tag_192:\n      swap1\n      0x00\n      mstore\n      keccak256(0x00, 0x20)\n      swap1\n      0x04\n      mul\n      add\n        /* \"VotingPlus.sol\":9239:9279  proposals[_proposalId].lastVoteTimestamp */\n      0x03\n      add\n        /* \"VotingPlus.sol\":9239:9297  proposals[_proposalId].lastVoteTimestamp = block.timestamp */\n      dup2\n      swap1\n      sstore\n      pop\n        /* \"VotingPlus.sol\":9447:9453  voters */\n      0x03\n        /* \"VotingPlus.sol\":9447:9465  voters[msg.sender] */\n      0x00\n        /* \"VotingPlus.sol\":9454:9464  msg.sender */\n      caller\n        /* \"VotingPlus.sol\":9447:9465  voters[msg.sender] */\n      0xffffffffffffffffffffffffffffffffffffffff\n      and\n      0xffffffffffffffffffffffffffffffffffffffff\n      and\n      dup2\n      mstore\n      0x20\n      add\n      swap1\n      dup2\n      mstore\n      0x20\n      add\n      0x00\n      keccak256\n        /* \"VotingPlus.sol\":9447:9474  voters[msg.sender].hasVoted */\n      0x01\n      add\n      0x00\n        /* \"VotingPlus.sol\":9447:9476  voters[msg.sender].hasVoted++ */\n      dup2\n      sload\n      dup1\n      swap3\n      swap2\n      swap1\n      tag_195\n      swap1\n      tag_99\n      jump\t// in\n    tag_195:\n      swap2\n      swap1\n      pop\n      sstore\n      pop\n        /* \"VotingPlus.sol\":9486:9492  voters */\n      0x03\n        /* \"VotingPlus.sol\":9486:9504  voters[msg.sender] */\n      0x00\n        /* \"VotingPlus.sol\":9493:9503  msg.sender */\n      caller\n        /* \"VotingPlus.sol\":9486:9504  voters[msg.sender] */\n      0xffffffffffffffffffffffffffffffffffffffff\n      and\n      0xffffffffffffffffffffffffffffffffffffffff\n      and\n      dup2\n      mstore\n      0x20\n      add\n      swap1\n      dup2\n      mstore\n      0x20\n      add\n      0x00\n      keccak256\n        /* \"VotingPlus.sol\":9486:9521  voters[msg.sender].votedProposalIds */\n      0x03\n      add\n        /* \"VotingPlus.sol\":9527:9536  proposals */\n      0x07\n        /* \"VotingPlus.sol\":9537:9548  _proposalId */\n      dup3\n        /* \"VotingPlus.sol\":9527:9549  proposals[_proposalId] */\n      dup2\n      sload\n      dup2\n      lt\n      tag_196\n      jumpi\n      tag_197\n      tag_126\n      jump\t// in\n    tag_197:\n    tag_196:\n      swap1\n      0x00\n      mstore\n      keccak256(0x00, 0x20)\n      swap1\n      0x04\n      mul\n      add\n        /* \"VotingPlus.sol\":9527:9552  proposals[_proposalId].id */\n      0x00\n      add\n      sload\n        /* \"VotingPlus.sol\":9486:9553  voters[msg.sender].votedProposalIds.push(proposals[_proposalId].id) */\n      swap1\n      dup1\n      0x01\n      dup2\n      sload\n      add\n      dup1\n      dup3\n      sstore\n      dup1\n      swap2\n      pop\n      pop\n      0x01\n      swap1\n      sub\n      swap1\n      0x00\n      mstore\n      keccak256(0x00, 0x20)\n      add\n      0x00\n      swap1\n      swap2\n      swap1\n      swap2\n      swap1\n      swap2\n      pop\n      sstore\n        /* \"VotingPlus.sol\":9564:9578  atLeastOneVote */\n      0x06\n      0x00\n        /* \"VotingPlus.sol\":9564:9580  atLeastOneVote++ */\n      dup2\n      sload\n      dup1\n      swap3\n      swap2\n      swap1\n      tag_200\n      swap1\n      tag_99\n      jump\t// in\n    tag_200:\n      swap2\n      swap1\n      pop\n      sstore\n      pop\n        /* \"VotingPlus.sol\":9595:9639  Voted(msg.sender, proposals[_proposalId].id) */\n      0x4d99b957a2bc29a30ebd96a7be8e68fe50a3c701db28a91436490b7d53870ca4\n        /* \"VotingPlus.sol\":9601:9611  msg.sender */\n      caller\n        /* \"VotingPlus.sol\":9613:9622  proposals */\n      0x07\n        /* \"VotingPlus.sol\":9623:9634  _proposalId */\n      dup4\n        /* \"VotingPlus.sol\":9613:9635  proposals[_proposalId] */\n      dup2\n      sload\n      dup2\n      lt\n      tag_201\n      jumpi\n      tag_202\n      tag_126\n      jump\t// in\n    tag_202:\n    tag_201:\n      swap1\n      0x00\n      mstore\n      keccak256(0x00, 0x20)\n      swap1\n      0x04\n      mul\n      add\n        /* \"VotingPlus.sol\":9613:9638  proposals[_proposalId].id */\n      0x00\n      add\n      sload\n        /* \"VotingPlus.sol\":9595:9639  Voted(msg.sender, proposals[_proposalId].id) */\n      mload(0x40)\n      tag_204\n      swap3\n      swap2\n      swap1\n      tag_205\n      jump\t// in\n    tag_204:\n      mload(0x40)\n      dup1\n      swap2\n      sub\n      swap1\n      log1\n        /* \"VotingPlus.sol\":8904:9647  function voteForProposition(uint _proposalId) external onlyVoters votingProposals voteAsManyTimesAsYoureAllowedTo {... */\n      pop\n      jump\t// out\n        /* \"VotingPlus.sol\":9960:10838  function tailVotes() external votesTallied returns (Proposal[] memory) {... */\n    tag_40:\n        /* \"VotingPlus.sol\":10012:10029  Proposal[] memory */\n      0x60\n        /* \"VotingPlus.sol\":2458:2485  WorkflowStatus.VotesTallied */\n      0x03\n        /* \"VotingPlus.sol\":2438:2485  currentVoteState == WorkflowStatus.VotesTallied */\n      dup1\n      dup2\n      gt\n      iszero\n      tag_207\n      jumpi\n      tag_208\n      tag_88\n      jump\t// in\n    tag_208:\n    tag_207:\n        /* \"VotingPlus.sol\":2438:2454  currentVoteState */\n      0x09\n      0x00\n      swap1\n      sload\n      swap1\n      0x0100\n      exp\n      swap1\n      div\n      0xff\n      and\n        /* \"VotingPlus.sol\":2438:2485  currentVoteState == WorkflowStatus.VotesTallied */\n      0x03\n      dup2\n      gt\n      iszero\n      tag_209\n      jumpi\n      tag_210\n      tag_88\n      jump\t// in\n    tag_210:\n    tag_209:\n      eq\n        /* \"VotingPlus.sol\":2430:2549  require(currentVoteState == WorkflowStatus.VotesTallied, \"Votes need to be tallied in order to perform this operation\") */\n      tag_211\n      jumpi\n      mload(0x40)\n      0x08c379a000000000000000000000000000000000000000000000000000000000\n      dup2\n      mstore\n      0x04\n      add\n      tag_212\n      swap1\n      tag_112\n      jump\t// in\n    tag_212:\n      mload(0x40)\n      dup1\n      swap2\n      sub\n      swap1\n      revert\n    tag_211:\n        /* \"VotingPlus.sol\":10042:10059  uint maxVoteCount */\n      0x00\n        /* \"VotingPlus.sol\":10145:10151  uint i */\n      dup1\n        /* \"VotingPlus.sol\":10140:10535  for (uint i=0; i<proposals.length; i++) {... */\n    tag_214:\n        /* \"VotingPlus.sol\":10157:10166  proposals */\n      0x07\n        /* \"VotingPlus.sol\":10157:10173  proposals.length */\n      dup1\n      sload\n      swap1\n      pop\n        /* \"VotingPlus.sol\":10155:10156  i */\n      dup2\n        /* \"VotingPlus.sol\":10155:10173  i<proposals.length */\n      lt\n        /* \"VotingPlus.sol\":10140:10535  for (uint i=0; i<proposals.length; i++) {... */\n      iszero\n      tag_215\n      jumpi\n        /* \"VotingPlus.sol\":10194:10218  Proposal memory proposal */\n      0x00\n        /* \"VotingPlus.sol\":10221:10230  proposals */\n      0x07\n        /* \"VotingPlus.sol\":10231:10232  i */\n      dup3\n        /* \"VotingPlus.sol\":10221:10233  proposals[i] */\n      dup2\n      sload\n      dup2\n      lt\n      tag_217\n      jumpi\n      tag_218\n      tag_126\n      jump\t// in\n    tag_218:\n    tag_217:\n      swap1\n      0x00\n      mstore\n      keccak256(0x00, 0x20)\n      swap1\n      0x04\n      mul\n      add\n        /* \"VotingPlus.sol\":10194:10233  Proposal memory proposal = proposals[i] */\n      mload(0x40)\n      dup1\n      0x80\n      add\n      0x40\n      mstore\n      swap1\n      dup2\n      0x00\n      dup3\n      add\n      sload\n      dup2\n      mstore\n      0x20\n      add\n      0x01\n      dup3\n      add\n      dup1\n      sload\n      tag_220\n      swap1\n      tag_76\n      jump\t// in\n    tag_220:\n      dup1\n      0x1f\n      add\n      0x20\n      dup1\n      swap2\n      div\n      mul\n      0x20\n      add\n      mload(0x40)\n      swap1\n      dup2\n      add\n      0x40\n      mstore\n      dup1\n      swap3\n      swap2\n      swap1\n      dup2\n      dup2\n      mstore\n      0x20\n      add\n      dup3\n      dup1\n      sload\n      tag_221\n      swap1\n      tag_76\n      jump\t// in\n    tag_221:\n      dup1\n      iszero\n      tag_222\n      jumpi\n      dup1\n      0x1f\n      lt\n      tag_223\n      jumpi\n      0x0100\n      dup1\n      dup4\n      sload\n      div\n      mul\n      dup4\n      mstore\n      swap2\n      0x20\n      add\n      swap2\n      jump(tag_222)\n    tag_223:\n      dup3\n      add\n      swap2\n      swap1\n      0x00\n      mstore\n      keccak256(0x00, 0x20)\n      swap1\n    tag_224:\n      dup2\n      sload\n      dup2\n      mstore\n      swap1\n      0x01\n      add\n      swap1\n      0x20\n      add\n      dup1\n      dup4\n      gt\n      tag_224\n      jumpi\n      dup3\n      swap1\n      sub\n      0x1f\n      and\n      dup3\n      add\n      swap2\n    tag_222:\n      pop\n      pop\n      pop\n      pop\n      pop\n      dup2\n      mstore\n      0x20\n      add\n      0x02\n      dup3\n      add\n      sload\n      dup2\n      mstore\n      0x20\n      add\n      0x03\n      dup3\n      add\n      sload\n      dup2\n      mstore\n      pop\n      pop\n      swap1\n      pop\n        /* \"VotingPlus.sol\":10272:10284  maxVoteCount */\n      dup3\n        /* \"VotingPlus.sol\":10251:10259  proposal */\n      dup2\n        /* \"VotingPlus.sol\":10251:10269  proposal.voteCount */\n      0x40\n      add\n      mload\n        /* \"VotingPlus.sol\":10251:10284  proposal.voteCount > maxVoteCount */\n      gt\n        /* \"VotingPlus.sol\":10247:10525  if (proposal.voteCount > maxVoteCount) {... */\n      iszero\n      tag_225\n      jumpi\n        /* \"VotingPlus.sol\":10311:10318  winners */\n      0x02\n      0x00\n        /* \"VotingPlus.sol\":10304:10318  delete winners */\n      tag_226\n      swap2\n      swap1\n      tag_118\n      jump\t// in\n    tag_226:\n        /* \"VotingPlus.sol\":10336:10343  winners */\n      0x02\n        /* \"VotingPlus.sol\":10349:10357  proposal */\n      dup2\n        /* \"VotingPlus.sol\":10336:10358  winners.push(proposal) */\n      swap1\n      dup1\n      0x01\n      dup2\n      sload\n      add\n      dup1\n      dup3\n      sstore\n      dup1\n      swap2\n      pop\n      pop\n      0x01\n      swap1\n      sub\n      swap1\n      0x00\n      mstore\n      keccak256(0x00, 0x20)\n      swap1\n      0x04\n      mul\n      add\n      0x00\n      swap1\n      swap2\n      swap1\n      swap2\n      swap1\n      swap2\n      pop\n      0x00\n      dup3\n      add\n      mload\n      dup2\n      0x00\n      add\n      sstore\n      0x20\n      dup3\n      add\n      mload\n      dup2\n      0x01\n      add\n      swap1\n      dup2\n      tag_228\n      swap2\n      swap1\n      tag_97\n      jump\t// in\n    tag_228:\n      pop\n      0x40\n      dup3\n      add\n      mload\n      dup2\n      0x02\n      add\n      sstore\n      0x60\n      dup3\n      add\n      mload\n      dup2\n      0x03\n      add\n      sstore\n      pop\n      pop\n        /* \"VotingPlus.sol\":10391:10399  proposal */\n      dup1\n        /* \"VotingPlus.sol\":10391:10409  proposal.voteCount */\n      0x40\n      add\n      mload\n        /* \"VotingPlus.sol\":10376:10409  maxVoteCount = proposal.voteCount */\n      swap3\n      pop\n        /* \"VotingPlus.sol\":10247:10525  if (proposal.voteCount > maxVoteCount) {... */\n      jump(tag_229)\n    tag_225:\n        /* \"VotingPlus.sol\":10456:10468  maxVoteCount */\n      dup3\n        /* \"VotingPlus.sol\":10434:10442  proposal */\n      dup2\n        /* \"VotingPlus.sol\":10434:10452  proposal.voteCount */\n      0x40\n      add\n      mload\n        /* \"VotingPlus.sol\":10434:10468  proposal.voteCount == maxVoteCount */\n      sub\n        /* \"VotingPlus.sol\":10430:10525  if (proposal.voteCount == maxVoteCount) {... */\n      tag_230\n      jumpi\n        /* \"VotingPlus.sol\":10488:10495  winners */\n      0x02\n        /* \"VotingPlus.sol\":10501:10509  proposal */\n      dup2\n        /* \"VotingPlus.sol\":10488:10510  winners.push(proposal) */\n      swap1\n      dup1\n      0x01\n      dup2\n      sload\n      add\n      dup1\n      dup3\n      sstore\n      dup1\n      swap2\n      pop\n      pop\n      0x01\n      swap1\n      sub\n      swap1\n      0x00\n      mstore\n      keccak256(0x00, 0x20)\n      swap1\n      0x04\n      mul\n      add\n      0x00\n      swap1\n      swap2\n      swap1\n      swap2\n      swap1\n      swap2\n      pop\n      0x00\n      dup3\n      add\n      mload\n      dup2\n      0x00\n      add\n      sstore\n      0x20\n      dup3\n      add\n      mload\n      dup2\n      0x01\n      add\n      swap1\n      dup2\n      tag_232\n      swap2\n      swap1\n      tag_97\n      jump\t// in\n    tag_232:\n      pop\n      0x40\n      dup3\n      add\n      mload\n      dup2\n      0x02\n      add\n      sstore\n      0x60\n      dup3\n      add\n      mload\n      dup2\n      0x03\n      add\n      sstore\n      pop\n      pop\n        /* \"VotingPlus.sol\":10430:10525  if (proposal.voteCount == maxVoteCount) {... */\n    tag_230:\n        /* \"VotingPlus.sol\":10247:10525  if (proposal.voteCount > maxVoteCount) {... */\n    tag_229:\n        /* \"VotingPlus.sol\":10180:10535  {... */\n      pop\n        /* \"VotingPlus.sol\":10175:10178  i++ */\n      dup1\n      dup1\n      0x01\n      add\n      swap2\n      pop\n      pop\n        /* \"VotingPlus.sol\":10140:10535  for (uint i=0; i<proposals.length; i++) {... */\n      jump(tag_214)\n    tag_215:\n      pop\n        /* \"VotingPlus.sol\":10566:10567  1 */\n      0x01\n        /* \"VotingPlus.sol\":10549:10556  winners */\n      0x02\n        /* \"VotingPlus.sol\":10549:10563  winners.length */\n      dup1\n      sload\n      swap1\n      pop\n        /* \"VotingPlus.sol\":10549:10567  winners.length > 1 */\n      gt\n        /* \"VotingPlus.sol\":10545:10807  if (winners.length > 1 ) {... */\n      iszero\n      tag_233\n      jumpi\n        /* \"VotingPlus.sol\":10589:10680  VoteEquality(\"You must vote again for one of the propositions which qualified previously!\") */\n      0x9152e2dccfc44aa8ab1fb145f54b5e72ae0202e28c3ce79d77c70e502c31eae2\n      mload(0x40)\n      tag_234\n      swap1\n      tag_235\n      jump\t// in\n    tag_234:\n      mload(0x40)\n      dup1\n      swap2\n      sub\n      swap1\n      log1\n        /* \"VotingPlus.sol\":10545:10807  if (winners.length > 1 ) {... */\n      jump(tag_236)\n    tag_233:\n        /* \"VotingPlus.sol\":10735:10742  winners */\n      0x02\n        /* \"VotingPlus.sol\":10743:10744  0 */\n      0x00\n        /* \"VotingPlus.sol\":10735:10745  winners[0] */\n      dup2\n      sload\n      dup2\n      lt\n      tag_237\n      jumpi\n      tag_238\n      tag_126\n      jump\t// in\n    tag_238:\n    tag_237:\n      swap1\n      0x00\n      mstore\n      keccak256(0x00, 0x20)\n      swap1\n      0x04\n      mul\n      add\n        /* \"VotingPlus.sol\":10735:10748  winners[0].id */\n      0x00\n      add\n      sload\n        /* \"VotingPlus.sol\":10711:10728  winningProposalId */\n      0x01\n        /* \"VotingPlus.sol\":10711:10749  winningProposalId = int(winners[0].id) */\n      dup2\n      swap1\n      sstore\n      pop\n        /* \"VotingPlus.sol\":10545:10807  if (winners.length > 1 ) {... */\n    tag_236:\n        /* \"VotingPlus.sol\":10824:10831  winners */\n      0x02\n        /* \"VotingPlus.sol\":10817:10831  return winners */\n      dup1\n      sload\n      dup1\n      0x20\n      mul\n      0x20\n      add\n      mload(0x40)\n      swap1\n      dup2\n      add\n      0x40\n      mstore\n      dup1\n      swap3\n      swap2\n      swap1\n      dup2\n      dup2\n      mstore\n      0x20\n      add\n      0x00\n      swap1\n    tag_240:\n      dup3\n      dup3\n      lt\n      iszero\n      tag_241\n      jumpi\n      dup4\n      dup3\n      swap1\n      0x00\n      mstore\n      keccak256(0x00, 0x20)\n      swap1\n      0x04\n      mul\n      add\n      mload(0x40)\n      dup1\n      0x80\n      add\n      0x40\n      mstore\n      swap1\n      dup2\n      0x00\n      dup3\n      add\n      sload\n      dup2\n      mstore\n      0x20\n      add\n      0x01\n      dup3\n      add\n      dup1\n      sload\n      tag_243\n      swap1\n      tag_76\n      jump\t// in\n    tag_243:\n      dup1\n      0x1f\n      add\n      0x20\n      dup1\n      swap2\n      div\n      mul\n      0x20\n      add\n      mload(0x40)\n      swap1\n      dup2\n      add\n      0x40\n      mstore\n      dup1\n      swap3\n      swap2\n      swap1\n      dup2\n      dup2\n      mstore\n      0x20\n      add\n      dup3\n      dup1\n      sload\n      tag_244\n      swap1\n      tag_76\n      jump\t// in\n    tag_244:\n      dup1\n      iszero\n      tag_245\n      jumpi\n      dup1\n      0x1f\n      lt\n      tag_246\n      jumpi\n      0x0100\n      dup1\n      dup4\n      sload\n      div\n      mul\n      dup4\n      mstore\n      swap2\n      0x20\n      add\n      swap2\n      jump(tag_245)\n    tag_246:\n      dup3\n      add\n      swap2\n      swap1\n      0x00\n      mstore\n      keccak256(0x00, 0x20)\n      swap1\n    tag_247:\n      dup2\n      sload\n      dup2\n      mstore\n      swap1\n      0x01\n      add\n      swap1\n      0x20\n      add\n      dup1\n      dup4\n      gt\n      tag_247\n      jumpi\n      dup3\n      swap1\n      sub\n      0x1f\n      and\n      dup3\n      add\n      swap2\n    tag_245:\n      pop\n      pop\n      pop\n      pop\n      pop\n      dup2\n      mstore\n      0x20\n      add\n      0x02\n      dup3\n      add\n      sload\n      dup2\n      mstore\n      0x20\n      add\n      0x03\n      dup3\n      add\n      sload\n      dup2\n      mstore\n      pop\n      pop\n      dup2\n      mstore\n      0x20\n      add\n      swap1\n      0x01\n      add\n      swap1\n      jump(tag_240)\n    tag_241:\n      pop\n      pop\n      pop\n      pop\n      swap2\n      pop\n      pop\n        /* \"VotingPlus.sol\":9960:10838  function tailVotes() external votesTallied returns (Proposal[] memory) {... */\n      swap1\n      jump\t// out\n        /* \"https://github.com/OpenZeppelin/openzeppelin-contracts/blob/master/contracts/access/Ownable.sol\":1638:1723  function owner() public view virtual returns (address) {... */\n    tag_43:\n        /* \"https://github.com/OpenZeppelin/openzeppelin-contracts/blob/master/contracts/access/Ownable.sol\":1684:1691  address */\n      0x00\n        /* \"https://github.com/OpenZeppelin/openzeppelin-contracts/blob/master/contracts/access/Ownable.sol\":1710:1716  _owner */\n      dup1\n      0x00\n      swap1\n      sload\n      swap1\n      0x0100\n      exp\n      swap1\n      div\n      0xffffffffffffffffffffffffffffffffffffffff\n      and\n        /* \"https://github.com/OpenZeppelin/openzeppelin-contracts/blob/master/contracts/access/Ownable.sol\":1703:1716  return _owner */\n      swap1\n      pop\n        /* \"https://github.com/OpenZeppelin/openzeppelin-contracts/blob/master/contracts/access/Ownable.sol\":1638:1723  function owner() public view virtual returns (address) {... */\n      swap1\n      jump\t// out\n        /* \"VotingPlus.sol\":13835:14005  function getWinner() external view returns (int) {... */\n    tag_47:\n        /* \"VotingPlus.sol\":13879:13882  int */\n      0x00\n        /* \"VotingPlus.sol\":13922:13923  0 */\n      dup1\n        /* \"VotingPlus.sol\":13902:13919  winningProposalId */\n      sload(0x01)\n        /* \"VotingPlus.sol\":13902:13923  winningProposalId >=0 */\n      slt\n      iszero\n        /* \"VotingPlus.sol\":13894:13964  require(winningProposalId >=0, \"There is no winning proposition yet!\") */\n      tag_250\n      jumpi\n      mload(0x40)\n      0x08c379a000000000000000000000000000000000000000000000000000000000\n      dup2\n      mstore\n      0x04\n      add\n      tag_251\n      swap1\n      tag_252\n      jump\t// in\n    tag_251:\n      mload(0x40)\n      dup1\n      swap2\n      sub\n      swap1\n      revert\n    tag_250:\n        /* \"VotingPlus.sol\":13981:13998  winningProposalId */\n      sload(0x01)\n        /* \"VotingPlus.sol\":13974:13998  return winningProposalId */\n      swap1\n      pop\n        /* \"VotingPlus.sol\":13835:14005  function getWinner() external view returns (int) {... */\n      swap1\n      jump\t// out\n        /* \"VotingPlus.sol\":12228:12879  function solveEqualityWithTimestamp() external onlyOwner votesTallied {... */\n    tag_51:\n        /* \"https://github.com/OpenZeppelin/openzeppelin-contracts/blob/master/contracts/access/Ownable.sol\":1531:1544  _checkOwner() */\n      tag_254\n        /* \"https://github.com/OpenZeppelin/openzeppelin-contracts/blob/master/contracts/access/Ownable.sol\":1531:1542  _checkOwner */\n      tag_104\n        /* \"https://github.com/OpenZeppelin/openzeppelin-contracts/blob/master/contracts/access/Ownable.sol\":1531:1544  _checkOwner() */\n      jump\t// in\n    tag_254:\n        /* \"VotingPlus.sol\":2458:2485  WorkflowStatus.VotesTallied */\n      0x03\n        /* \"VotingPlus.sol\":2438:2485  currentVoteState == WorkflowStatus.VotesTallied */\n      dup1\n      dup2\n      gt\n      iszero\n      tag_256\n      jumpi\n      tag_257\n      tag_88\n      jump\t// in\n    tag_257:\n    tag_256:\n        /* \"VotingPlus.sol\":2438:2454  currentVoteState */\n      0x09\n      0x00\n      swap1\n      sload\n      swap1\n      0x0100\n      exp\n      swap1\n      div\n      0xff\n      and\n        /* \"VotingPlus.sol\":2438:2485  currentVoteState == WorkflowStatus.VotesTallied */\n      0x03\n      dup2\n      gt\n      iszero\n      tag_258\n      jumpi\n      tag_259\n      tag_88\n      jump\t// in\n    tag_259:\n    tag_258:\n      eq\n        /* \"VotingPlus.sol\":2430:2549  require(currentVoteState == WorkflowStatus.VotesTallied, \"Votes need to be tallied in order to perform this operation\") */\n      tag_260\n      jumpi\n      mload(0x40)\n      0x08c379a000000000000000000000000000000000000000000000000000000000\n      dup2\n      mstore\n      0x04\n      add\n      tag_261\n      swap1\n      tag_112\n      jump\t// in\n    tag_261:\n      mload(0x40)\n      dup1\n      swap2\n      sub\n      swap1\n      revert\n    tag_260:\n        /* \"VotingPlus.sol\":12333:12334  1 */\n      0x01\n        /* \"VotingPlus.sol\":12316:12323  winners */\n      0x02\n        /* \"VotingPlus.sol\":12316:12330  winners.length */\n      dup1\n      sload\n      swap1\n      pop\n        /* \"VotingPlus.sol\":12316:12334  winners.length > 1 */\n      gt\n        /* \"VotingPlus.sol\":12308:12406  require(winners.length > 1, \"There are no equality in results so we don't need to break the tie!\") */\n      tag_263\n      jumpi\n      mload(0x40)\n      0x08c379a000000000000000000000000000000000000000000000000000000000\n      dup2\n      mstore\n      0x04\n      add\n      tag_264\n      swap1\n      tag_116\n      jump\t// in\n    tag_264:\n      mload(0x40)\n      dup1\n      swap2\n      sub\n      swap1\n      revert\n    tag_263:\n        /* \"VotingPlus.sol\":12417:12439  uint smallestTimestamp */\n      0x00\n        /* \"VotingPlus.sol\":12442:12457  block.timestamp */\n      timestamp\n        /* \"VotingPlus.sol\":12417:12457  uint smallestTimestamp = block.timestamp */\n      swap1\n      pop\n        /* \"VotingPlus.sol\":12467:12489  Proposal memory winner */\n      tag_265\n      tag_266\n      jump\t// in\n    tag_265:\n        /* \"VotingPlus.sol\":12503:12509  uint i */\n      0x00\n        /* \"VotingPlus.sol\":12499:12765  for(uint i=0; i<winners.length; i++) {... */\n    tag_267:\n        /* \"VotingPlus.sol\":12515:12522  winners */\n      0x02\n        /* \"VotingPlus.sol\":12515:12529  winners.length */\n      dup1\n      sload\n      swap1\n      pop\n        /* \"VotingPlus.sol\":12513:12514  i */\n      dup2\n        /* \"VotingPlus.sol\":12513:12529  i<winners.length */\n      lt\n        /* \"VotingPlus.sol\":12499:12765  for(uint i=0; i<winners.length; i++) {... */\n      iszero\n      tag_268\n      jumpi\n        /* \"VotingPlus.sol\":12586:12587  0 */\n      0x00\n        /* \"VotingPlus.sol\":12554:12561  winners */\n      0x02\n        /* \"VotingPlus.sol\":12562:12563  i */\n      dup3\n        /* \"VotingPlus.sol\":12554:12564  winners[i] */\n      dup2\n      sload\n      dup2\n      lt\n      tag_270\n      jumpi\n      tag_271\n      tag_126\n      jump\t// in\n    tag_271:\n    tag_270:\n      swap1\n      0x00\n      mstore\n      keccak256(0x00, 0x20)\n      swap1\n      0x04\n      mul\n      add\n        /* \"VotingPlus.sol\":12554:12582  winners[i].lastVoteTimestamp */\n      0x03\n      add\n      sload\n        /* \"VotingPlus.sol\":12554:12587  winners[i].lastVoteTimestamp != 0 */\n      eq\n      iszero\n        /* \"VotingPlus.sol\":12554:12639  winners[i].lastVoteTimestamp != 0 && winners[i].lastVoteTimestamp < smallestTimestamp */\n      dup1\n      iszero\n      tag_273\n      jumpi\n      pop\n        /* \"VotingPlus.sol\":12622:12639  smallestTimestamp */\n      dup3\n        /* \"VotingPlus.sol\":12591:12598  winners */\n      0x02\n        /* \"VotingPlus.sol\":12599:12600  i */\n      dup3\n        /* \"VotingPlus.sol\":12591:12601  winners[i] */\n      dup2\n      sload\n      dup2\n      lt\n      tag_274\n      jumpi\n      tag_275\n      tag_126\n      jump\t// in\n    tag_275:\n    tag_274:\n      swap1\n      0x00\n      mstore\n      keccak256(0x00, 0x20)\n      swap1\n      0x04\n      mul\n      add\n        /* \"VotingPlus.sol\":12591:12619  winners[i].lastVoteTimestamp */\n      0x03\n      add\n      sload\n        /* \"VotingPlus.sol\":12591:12639  winners[i].lastVoteTimestamp < smallestTimestamp */\n      lt\n        /* \"VotingPlus.sol\":12554:12639  winners[i].lastVoteTimestamp != 0 && winners[i].lastVoteTimestamp < smallestTimestamp */\n    tag_273:\n        /* \"VotingPlus.sol\":12550:12755  if (winners[i].lastVoteTimestamp != 0 && winners[i].lastVoteTimestamp < smallestTimestamp) {... */\n      iszero\n      tag_277\n      jumpi\n        /* \"VotingPlus.sol\":12668:12675  winners */\n      0x02\n        /* \"VotingPlus.sol\":12676:12677  i */\n      dup2\n        /* \"VotingPlus.sol\":12668:12678  winners[i] */\n      dup2\n      sload\n      dup2\n      lt\n      tag_278\n      jumpi\n      tag_279\n      tag_126\n      jump\t// in\n    tag_279:\n    tag_278:\n      swap1\n      0x00\n      mstore\n      keccak256(0x00, 0x20)\n      swap1\n      0x04\n      mul\n      add\n        /* \"VotingPlus.sol\":12659:12678  winner = winners[i] */\n      mload(0x40)\n      dup1\n      0x80\n      add\n      0x40\n      mstore\n      swap1\n      dup2\n      0x00\n      dup3\n      add\n      sload\n      dup2\n      mstore\n      0x20\n      add\n      0x01\n      dup3\n      add\n      dup1\n      sload\n      tag_281\n      swap1\n      tag_76\n      jump\t// in\n    tag_281:\n      dup1\n      0x1f\n      add\n      0x20\n      dup1\n      swap2\n      div\n      mul\n      0x20\n      add\n      mload(0x40)\n      swap1\n      dup2\n      add\n      0x40\n      mstore\n      dup1\n      swap3\n      swap2\n      swap1\n      dup2\n      dup2\n      mstore\n      0x20\n      add\n      dup3\n      dup1\n      sload\n      tag_282\n      swap1\n      tag_76\n      jump\t// in\n    tag_282:\n      dup1\n      iszero\n      tag_283\n      jumpi\n      dup1\n      0x1f\n      lt\n      tag_284\n      jumpi\n      0x0100\n      dup1\n      dup4\n      sload\n      div\n      mul\n      dup4\n      mstore\n      swap2\n      0x20\n      add\n      swap2\n      jump(tag_283)\n    tag_284:\n      dup3\n      add\n      swap2\n      swap1\n      0x00\n      mstore\n      keccak256(0x00, 0x20)\n      swap1\n    tag_285:\n      dup2\n      sload\n      dup2\n      mstore\n      swap1\n      0x01\n      add\n      swap1\n      0x20\n      add\n      dup1\n      dup4\n      gt\n      tag_285\n      jumpi\n      dup3\n      swap1\n      sub\n      0x1f\n      and\n      dup3\n      add\n      swap2\n    tag_283:\n      pop\n      pop\n      pop\n      pop\n      pop\n      dup2\n      mstore\n      0x20\n      add\n      0x02\n      dup3\n      add\n      sload\n      dup2\n      mstore\n      0x20\n      add\n      0x03\n      dup3\n      add\n      sload\n      dup2\n      mstore\n      pop\n      pop\n      swap2\n      pop\n        /* \"VotingPlus.sol\":12716:12722  winner */\n      dup2\n        /* \"VotingPlus.sol\":12716:12740  winner.lastVoteTimestamp */\n      0x60\n      add\n      mload\n        /* \"VotingPlus.sol\":12696:12740  smallestTimestamp = winner.lastVoteTimestamp */\n      swap3\n      pop\n        /* \"VotingPlus.sol\":12550:12755  if (winners[i].lastVoteTimestamp != 0 && winners[i].lastVoteTimestamp < smallestTimestamp) {... */\n    tag_277:\n        /* \"VotingPlus.sol\":12531:12534  i++ */\n      dup1\n      dup1\n      0x01\n      add\n      swap2\n      pop\n      pop\n        /* \"VotingPlus.sol\":12499:12765  for(uint i=0; i<winners.length; i++) {... */\n      jump(tag_267)\n    tag_268:\n      pop\n        /* \"VotingPlus.sol\":12854:12860  winner */\n      dup1\n        /* \"VotingPlus.sol\":12854:12863  winner.id */\n      0x00\n      add\n      mload\n        /* \"VotingPlus.sol\":12830:12847  winningProposalId */\n      0x01\n        /* \"VotingPlus.sol\":12830:12864  winningProposalId = int(winner.id) */\n      dup2\n      swap1\n      sstore\n      pop\n        /* \"VotingPlus.sol\":12298:12879  {... */\n      pop\n      pop\n        /* \"VotingPlus.sol\":12228:12879  function solveEqualityWithTimestamp() external onlyOwner votesTallied {... */\n      jump\t// out\n        /* \"VotingPlus.sol\":7090:7585  function delegateVote(address _delegate) onlyVoters registeringVoters external {... */\n    tag_55:\n        /* \"VotingPlus.sol\":1368:1372  true */\n      0x01\n        /* \"VotingPlus.sol\":1333:1372  voters[msg.sender].isRegistered == true */\n      iszero\n      iszero\n        /* \"VotingPlus.sol\":1333:1339  voters */\n      0x03\n        /* \"VotingPlus.sol\":1333:1351  voters[msg.sender] */\n      0x00\n        /* \"VotingPlus.sol\":1340:1350  msg.sender */\n      caller\n        /* \"VotingPlus.sol\":1333:1351  voters[msg.sender] */\n      0xffffffffffffffffffffffffffffffffffffffff\n      and\n      0xffffffffffffffffffffffffffffffffffffffff\n      and\n      dup2\n      mstore\n      0x20\n      add\n      swap1\n      dup2\n      mstore\n      0x20\n      add\n      0x00\n      keccak256\n        /* \"VotingPlus.sol\":1333:1364  voters[msg.sender].isRegistered */\n      0x00\n      add\n      0x00\n      swap1\n      sload\n      swap1\n      0x0100\n      exp\n      swap1\n      div\n      0xff\n      and\n        /* \"VotingPlus.sol\":1333:1372  voters[msg.sender].isRegistered == true */\n      iszero\n      iszero\n      eq\n        /* \"VotingPlus.sol\":1325:1403  require(voters[msg.sender].isRegistered == true, \"You are not a valid voter!\") */\n      tag_287\n      jumpi\n      mload(0x40)\n      0x08c379a000000000000000000000000000000000000000000000000000000000\n      dup2\n      mstore\n      0x04\n      add\n      tag_288\n      swap1\n      tag_84\n      jump\t// in\n    tag_288:\n      mload(0x40)\n      dup1\n      swap2\n      sub\n      swap1\n      revert\n    tag_287:\n        /* \"VotingPlus.sol\":2949:2981  WorkflowStatus.RegisteringVoters */\n      0x00\n        /* \"VotingPlus.sol\":2929:2981  currentVoteState == WorkflowStatus.RegisteringVoters */\n      0x03\n      dup2\n      gt\n      iszero\n      tag_290\n      jumpi\n      tag_291\n      tag_88\n      jump\t// in\n    tag_291:\n    tag_290:\n        /* \"VotingPlus.sol\":2929:2945  currentVoteState */\n      0x09\n      0x00\n      swap1\n      sload\n      swap1\n      0x0100\n      exp\n      swap1\n      div\n      0xff\n      and\n        /* \"VotingPlus.sol\":2929:2981  currentVoteState == WorkflowStatus.RegisteringVoters */\n      0x03\n      dup2\n      gt\n      iszero\n      tag_292\n      jumpi\n      tag_293\n      tag_88\n      jump\t// in\n    tag_293:\n    tag_292:\n      eq\n        /* \"VotingPlus.sol\":2921:3012  require(currentVoteState == WorkflowStatus.RegisteringVoters, \"You cannot register voters\") */\n      tag_294\n      jumpi\n      mload(0x40)\n      0x08c379a000000000000000000000000000000000000000000000000000000000\n      dup2\n      mstore\n      0x04\n      add\n      tag_295\n      swap1\n      tag_296\n      jump\t// in\n    tag_295:\n      mload(0x40)\n      dup1\n      swap2\n      sub\n      swap1\n      revert\n    tag_294:\n        /* \"VotingPlus.sol\":7259:7265  voters */\n      0x03\n        /* \"VotingPlus.sol\":7259:7276  voters[_delegate] */\n      0x00\n        /* \"VotingPlus.sol\":7266:7275  _delegate */\n      dup3\n        /* \"VotingPlus.sol\":7259:7276  voters[_delegate] */\n      0xffffffffffffffffffffffffffffffffffffffff\n      and\n      0xffffffffffffffffffffffffffffffffffffffff\n      and\n      dup2\n      mstore\n      0x20\n      add\n      swap1\n      dup2\n      mstore\n      0x20\n      add\n      0x00\n      keccak256\n        /* \"VotingPlus.sol\":7259:7289  voters[_delegate].isRegistered */\n      0x00\n      add\n      0x00\n      swap1\n      sload\n      swap1\n      0x0100\n      exp\n      swap1\n      div\n      0xff\n      and\n        /* \"VotingPlus.sol\":7255:7505  if (voters[_delegate].isRegistered) {... */\n      iszero\n      tag_298\n      jumpi\n        /* \"VotingPlus.sol\":7361:7367  voters */\n      0x03\n        /* \"VotingPlus.sol\":7361:7378  voters[_delegate] */\n      0x00\n        /* \"VotingPlus.sol\":7368:7377  _delegate */\n      dup3\n        /* \"VotingPlus.sol\":7361:7378  voters[_delegate] */\n      0xffffffffffffffffffffffffffffffffffffffff\n      and\n      0xffffffffffffffffffffffffffffffffffffffff\n      and\n      dup2\n      mstore\n      0x20\n      add\n      swap1\n      dup2\n      mstore\n      0x20\n      add\n      0x00\n      keccak256\n        /* \"VotingPlus.sol\":7361:7386  voters[_delegate].nbVotes */\n      0x02\n      add\n      0x00\n        /* \"VotingPlus.sol\":7361:7388  voters[_delegate].nbVotes++ */\n      dup2\n      sload\n      dup1\n      swap3\n      swap2\n      swap1\n      tag_299\n      swap1\n      tag_99\n      jump\t// in\n    tag_299:\n      swap2\n      swap1\n      pop\n      sstore\n      pop\n        /* \"VotingPlus.sol\":7255:7505  if (voters[_delegate].isRegistered) {... */\n      jump(tag_300)\n    tag_298:\n        /* \"VotingPlus.sol\":7467:7494  addVoterInternal(_delegate) */\n      tag_301\n        /* \"VotingPlus.sol\":7484:7493  _delegate */\n      dup2\n        /* \"VotingPlus.sol\":7467:7483  addVoterInternal */\n      tag_302\n        /* \"VotingPlus.sol\":7467:7494  addVoterInternal(_delegate) */\n      jump\t// in\n    tag_301:\n        /* \"VotingPlus.sol\":7255:7505  if (voters[_delegate].isRegistered) {... */\n    tag_300:\n        /* \"VotingPlus.sol\":7554:7577  deleteVoter(msg.sender) */\n      tag_303\n        /* \"VotingPlus.sol\":7566:7576  msg.sender */\n      caller\n        /* \"VotingPlus.sol\":7554:7565  deleteVoter */\n      tag_304\n        /* \"VotingPlus.sol\":7554:7577  deleteVoter(msg.sender) */\n      jump\t// in\n    tag_303:\n        /* \"VotingPlus.sol\":7090:7585  function delegateVote(address _delegate) onlyVoters registeringVoters external {... */\n      pop\n      jump\t// out\n        /* \"VotingPlus.sol\":5117:5226  function getCurrentVoteStep() external view returns (WorkflowStatus) {... */\n    tag_57:\n        /* \"VotingPlus.sol\":5170:5184  WorkflowStatus */\n      0x00\n        /* \"VotingPlus.sol\":5203:5219  currentVoteState */\n      0x09\n      0x00\n      swap1\n      sload\n      swap1\n      0x0100\n      exp\n      swap1\n      div\n      0xff\n      and\n        /* \"VotingPlus.sol\":5196:5219  return currentVoteState */\n      swap1\n      pop\n        /* \"VotingPlus.sol\":5117:5226  function getCurrentVoteStep() external view returns (WorkflowStatus) {... */\n      swap1\n      jump\t// out\n        /* \"https://github.com/OpenZeppelin/openzeppelin-contracts/blob/master/contracts/access/Ownable.sol\":2543:2758  function transferOwnership(address newOwner) public virtual onlyOwner {... */\n    tag_62:\n        /* \"https://github.com/OpenZeppelin/openzeppelin-contracts/blob/master/contracts/access/Ownable.sol\":1531:1544  _checkOwner() */\n      tag_307\n        /* \"https://github.com/OpenZeppelin/openzeppelin-contracts/blob/master/contracts/access/Ownable.sol\":1531:1542  _checkOwner */\n      tag_104\n        /* \"https://github.com/OpenZeppelin/openzeppelin-contracts/blob/master/contracts/access/Ownable.sol\":1531:1544  _checkOwner() */\n      jump\t// in\n    tag_307:\n        /* \"https://github.com/OpenZeppelin/openzeppelin-contracts/blob/master/contracts/access/Ownable.sol\":2647:2648  0 */\n      0x00\n        /* \"https://github.com/OpenZeppelin/openzeppelin-contracts/blob/master/contracts/access/Ownable.sol\":2627:2649  newOwner == address(0) */\n      0xffffffffffffffffffffffffffffffffffffffff\n      and\n        /* \"https://github.com/OpenZeppelin/openzeppelin-contracts/blob/master/contracts/access/Ownable.sol\":2627:2635  newOwner */\n      dup2\n        /* \"https://github.com/OpenZeppelin/openzeppelin-contracts/blob/master/contracts/access/Ownable.sol\":2627:2649  newOwner == address(0) */\n      0xffffffffffffffffffffffffffffffffffffffff\n      and\n      sub\n        /* \"https://github.com/OpenZeppelin/openzeppelin-contracts/blob/master/contracts/access/Ownable.sol\":2623:2714  if (newOwner == address(0)) {... */\n      tag_309\n      jumpi\n        /* \"https://github.com/OpenZeppelin/openzeppelin-contracts/blob/master/contracts/access/Ownable.sol\":2700:2701  0 */\n      0x00\n        /* \"https://github.com/OpenZeppelin/openzeppelin-contracts/blob/master/contracts/access/Ownable.sol\":2672:2703  OwnableInvalidOwner(address(0)) */\n      mload(0x40)\n      0x1e4fbdf700000000000000000000000000000000000000000000000000000000\n      dup2\n      mstore\n      0x04\n      add\n      tag_310\n      swap2\n      swap1\n      tag_45\n      jump\t// in\n    tag_310:\n      mload(0x40)\n      dup1\n      swap2\n      sub\n      swap1\n      revert\n        /* \"https://github.com/OpenZeppelin/openzeppelin-contracts/blob/master/contracts/access/Ownable.sol\":2623:2714  if (newOwner == address(0)) {... */\n    tag_309:\n        /* \"https://github.com/OpenZeppelin/openzeppelin-contracts/blob/master/contracts/access/Ownable.sol\":2723:2751  _transferOwnership(newOwner) */\n      tag_311\n        /* \"https://github.com/OpenZeppelin/openzeppelin-contracts/blob/master/contracts/access/Ownable.sol\":2742:2750  newOwner */\n      dup2\n        /* \"https://github.com/OpenZeppelin/openzeppelin-contracts/blob/master/contracts/access/Ownable.sol\":2723:2741  _transferOwnership */\n      tag_167\n        /* \"https://github.com/OpenZeppelin/openzeppelin-contracts/blob/master/contracts/access/Ownable.sol\":2723:2751  _transferOwnership(newOwner) */\n      jump\t// in\n    tag_311:\n        /* \"https://github.com/OpenZeppelin/openzeppelin-contracts/blob/master/contracts/access/Ownable.sol\":2543:2758  function transferOwnership(address newOwner) public virtual onlyOwner {... */\n      pop\n      jump\t// out\n        /* \"VotingPlus.sol\":5789:6092  function addVoter(address _address) external onlyOwner registeringVoters {... */\n    tag_65:\n        /* \"https://github.com/OpenZeppelin/openzeppelin-contracts/blob/master/contracts/access/Ownable.sol\":1531:1544  _checkOwner() */\n      tag_313\n        /* \"https://github.com/OpenZeppelin/openzeppelin-contracts/blob/master/contracts/access/Ownable.sol\":1531:1542  _checkOwner */\n      tag_104\n        /* \"https://github.com/OpenZeppelin/openzeppelin-contracts/blob/master/contracts/access/Ownable.sol\":1531:1544  _checkOwner() */\n      jump\t// in\n    tag_313:\n        /* \"VotingPlus.sol\":2949:2981  WorkflowStatus.RegisteringVoters */\n      0x00\n        /* \"VotingPlus.sol\":2929:2981  currentVoteState == WorkflowStatus.RegisteringVoters */\n      0x03\n      dup2\n      gt\n      iszero\n      tag_315\n      jumpi\n      tag_316\n      tag_88\n      jump\t// in\n    tag_316:\n    tag_315:\n        /* \"VotingPlus.sol\":2929:2945  currentVoteState */\n      0x09\n      0x00\n      swap1\n      sload\n      swap1\n      0x0100\n      exp\n      swap1\n      div\n      0xff\n      and\n        /* \"VotingPlus.sol\":2929:2981  currentVoteState == WorkflowStatus.RegisteringVoters */\n      0x03\n      dup2\n      gt\n      iszero\n      tag_317\n      jumpi\n      tag_318\n      tag_88\n      jump\t// in\n    tag_318:\n    tag_317:\n      eq\n        /* \"VotingPlus.sol\":2921:3012  require(currentVoteState == WorkflowStatus.RegisteringVoters, \"You cannot register voters\") */\n      tag_319\n      jumpi\n      mload(0x40)\n      0x08c379a000000000000000000000000000000000000000000000000000000000\n      dup2\n      mstore\n      0x04\n      add\n      tag_320\n      swap1\n      tag_296\n      jump\t// in\n    tag_320:\n      mload(0x40)\n      dup1\n      swap2\n      sub\n      swap1\n      revert\n    tag_319:\n        /* \"VotingPlus.sol\":5892:5899  owner() */\n      tag_322\n        /* \"VotingPlus.sol\":5892:5897  owner */\n      tag_43\n        /* \"VotingPlus.sol\":5892:5899  owner() */\n      jump\t// in\n    tag_322:\n        /* \"VotingPlus.sol\":5880:5899  _address != owner() */\n      0xffffffffffffffffffffffffffffffffffffffff\n      and\n        /* \"VotingPlus.sol\":5880:5888  _address */\n      dup2\n        /* \"VotingPlus.sol\":5880:5899  _address != owner() */\n      0xffffffffffffffffffffffffffffffffffffffff\n      and\n      sub\n        /* \"VotingPlus.sol\":5872:5922  require(_address != owner(), \"Owner cannot vote!\") */\n      tag_323\n      jumpi\n      mload(0x40)\n      0x08c379a000000000000000000000000000000000000000000000000000000000\n      dup2\n      mstore\n      0x04\n      add\n      tag_324\n      swap1\n      tag_325\n      jump\t// in\n    tag_324:\n      mload(0x40)\n      dup1\n      swap2\n      sub\n      swap1\n      revert\n    tag_323:\n        /* \"VotingPlus.sol\":5973:5978  false */\n      0x00\n        /* \"VotingPlus.sol\":5940:5978  voters[_address].isRegistered == false */\n      iszero\n      iszero\n        /* \"VotingPlus.sol\":5940:5946  voters */\n      0x03\n        /* \"VotingPlus.sol\":5940:5956  voters[_address] */\n      0x00\n        /* \"VotingPlus.sol\":5947:5955  _address */\n      dup4\n        /* \"VotingPlus.sol\":5940:5956  voters[_address] */\n      0xffffffffffffffffffffffffffffffffffffffff\n      and\n      0xffffffffffffffffffffffffffffffffffffffff\n      and\n      dup2\n      mstore\n      0x20\n      add\n      swap1\n      dup2\n      mstore\n      0x20\n      add\n      0x00\n      keccak256\n        /* \"VotingPlus.sol\":5940:5969  voters[_address].isRegistered */\n      0x00\n      add\n      0x00\n      swap1\n      sload\n      swap1\n      0x0100\n      exp\n      swap1\n      div\n      0xff\n      and\n        /* \"VotingPlus.sol\":5940:5978  voters[_address].isRegistered == false */\n      iszero\n      iszero\n      eq\n        /* \"VotingPlus.sol\":5932:6008  require(voters[_address].isRegistered == false, \"Voter already registered!\") */\n      tag_326\n      jumpi\n      mload(0x40)\n      0x08c379a000000000000000000000000000000000000000000000000000000000\n      dup2\n      mstore\n      0x04\n      add\n      tag_327\n      swap1\n      tag_328\n      jump\t// in\n    tag_327:\n      mload(0x40)\n      dup1\n      swap2\n      sub\n      swap1\n      revert\n    tag_326:\n        /* \"VotingPlus.sol\":6019:6045  addVoterInternal(_address) */\n      tag_329\n        /* \"VotingPlus.sol\":6036:6044  _address */\n      dup2\n        /* \"VotingPlus.sol\":6019:6035  addVoterInternal */\n      tag_302\n        /* \"VotingPlus.sol\":6019:6045  addVoterInternal(_address) */\n      jump\t// in\n    tag_329:\n        /* \"VotingPlus.sol\":6060:6085  VoterRegistered(_address) */\n      0xb6be2187d059cc2a55fe29e0e503b566e1e0f8c8780096e185429350acffd3dd\n        /* \"VotingPlus.sol\":6076:6084  _address */\n      dup2\n        /* \"VotingPlus.sol\":6060:6085  VoterRegistered(_address) */\n      mload(0x40)\n      tag_330\n      swap2\n      swap1\n      tag_45\n      jump\t// in\n    tag_330:\n      mload(0x40)\n      dup1\n      swap2\n      sub\n      swap1\n      log1\n        /* \"VotingPlus.sol\":5789:6092  function addVoter(address _address) external onlyOwner registeringVoters {... */\n      pop\n      jump\t// out\n        /* \"VotingPlus.sol\":5355:5677  function nextVoteStep() external onlyOwner votersRegistered(3) proposalRegistered(2) voteRegistered(1) votesNotTallied {... */\n    tag_67:\n        /* \"https://github.com/OpenZeppelin/openzeppelin-contracts/blob/master/contracts/access/Ownable.sol\":1531:1544  _checkOwner() */\n      tag_332\n        /* \"https://github.com/OpenZeppelin/openzeppelin-contracts/blob/master/contracts/access/Ownable.sol\":1531:1542  _checkOwner */\n      tag_104\n        /* \"https://github.com/OpenZeppelin/openzeppelin-contracts/blob/master/contracts/access/Ownable.sol\":1531:1544  _checkOwner() */\n      jump\t// in\n    tag_332:\n        /* \"VotingPlus.sol\":5415:5416  3 */\n      0x03\n        /* \"VotingPlus.sol\":3659:3691  WorkflowStatus.RegisteringVoters */\n      0x00\n        /* \"VotingPlus.sol\":3639:3691  currentVoteState == WorkflowStatus.RegisteringVoters */\n      0x03\n      dup2\n      gt\n      iszero\n      tag_334\n      jumpi\n      tag_335\n      tag_88\n      jump\t// in\n    tag_335:\n    tag_334:\n        /* \"VotingPlus.sol\":3639:3655  currentVoteState */\n      0x09\n      0x00\n      swap1\n      sload\n      swap1\n      0x0100\n      exp\n      swap1\n      div\n      0xff\n      and\n        /* \"VotingPlus.sol\":3639:3691  currentVoteState == WorkflowStatus.RegisteringVoters */\n      0x03\n      dup2\n      gt\n      iszero\n      tag_336\n      jumpi\n      tag_337\n      tag_88\n      jump\t// in\n    tag_337:\n    tag_336:\n      sub\n        /* \"VotingPlus.sol\":3635:3806  if (currentVoteState == WorkflowStatus.RegisteringVoters) {... */\n      tag_338\n      jumpi\n        /* \"VotingPlus.sol\":3731:3739  nbVoters */\n      dup1\n        /* \"VotingPlus.sol\":3715:3727  votersNumber */\n      sload(0x05)\n        /* \"VotingPlus.sol\":3715:3739  votersNumber >= nbVoters */\n      lt\n      iszero\n        /* \"VotingPlus.sol\":3707:3795  require(votersNumber >= nbVoters, \"A minimum number of voters are required to continue\") */\n      tag_339\n      jumpi\n      mload(0x40)\n      0x08c379a000000000000000000000000000000000000000000000000000000000\n      dup2\n      mstore\n      0x04\n      add\n      tag_340\n      swap1\n      tag_341\n      jump\t// in\n    tag_340:\n      mload(0x40)\n      dup1\n      swap2\n      sub\n      swap1\n      revert\n    tag_339:\n        /* \"VotingPlus.sol\":3635:3806  if (currentVoteState == WorkflowStatus.RegisteringVoters) {... */\n    tag_338:\n        /* \"VotingPlus.sol\":5437:5438  2 */\n      0x02\n        /* \"VotingPlus.sol\":4028:4064  WorkflowStatus.ProposalsRegistration */\n      0x01\n        /* \"VotingPlus.sol\":4008:4064  currentVoteState == WorkflowStatus.ProposalsRegistration */\n      0x03\n      dup2\n      gt\n      iszero\n      tag_343\n      jumpi\n      tag_344\n      tag_88\n      jump\t// in\n    tag_344:\n    tag_343:\n        /* \"VotingPlus.sol\":4008:4024  currentVoteState */\n      0x09\n      0x00\n      swap1\n      sload\n      swap1\n      0x0100\n      exp\n      swap1\n      div\n      0xff\n      and\n        /* \"VotingPlus.sol\":4008:4064  currentVoteState == WorkflowStatus.ProposalsRegistration */\n      0x03\n      dup2\n      gt\n      iszero\n      tag_345\n      jumpi\n      tag_346\n      tag_88\n      jump\t// in\n    tag_346:\n    tag_345:\n      sub\n        /* \"VotingPlus.sol\":4004:4193  if (currentVoteState == WorkflowStatus.ProposalsRegistration) {... */\n      tag_347\n      jumpi\n        /* \"VotingPlus.sol\":4109:4120  nbProposals */\n      dup1\n        /* \"VotingPlus.sol\":4088:4105  proposalIdCounter */\n      sload(0x08)\n        /* \"VotingPlus.sol\":4088:4120  proposalIdCounter >= nbProposals */\n      lt\n      iszero\n        /* \"VotingPlus.sol\":4080:4182  require(proposalIdCounter >= nbProposals, \"A minimum number of propositions are required to continue\") */\n      tag_348\n      jumpi\n      mload(0x40)\n      0x08c379a000000000000000000000000000000000000000000000000000000000\n      dup2\n      mstore\n      0x04\n      add\n      tag_349\n      swap1\n      tag_350\n      jump\t// in\n    tag_349:\n      mload(0x40)\n      dup1\n      swap2\n      sub\n      swap1\n      revert\n    tag_348:\n        /* \"VotingPlus.sol\":4004:4193  if (currentVoteState == WorkflowStatus.ProposalsRegistration) {... */\n    tag_347:\n        /* \"VotingPlus.sol\":5455:5456  1 */\n      0x01\n        /* \"VotingPlus.sol\":4394:4422  WorkflowStatus.VotingSession */\n      0x02\n        /* \"VotingPlus.sol\":4374:4422  currentVoteState == WorkflowStatus.VotingSession */\n      0x03\n      dup2\n      gt\n      iszero\n      tag_352\n      jumpi\n      tag_353\n      tag_88\n      jump\t// in\n    tag_353:\n    tag_352:\n        /* \"VotingPlus.sol\":4374:4390  currentVoteState */\n      0x09\n      0x00\n      swap1\n      sload\n      swap1\n      0x0100\n      exp\n      swap1\n      div\n      0xff\n      and\n        /* \"VotingPlus.sol\":4374:4422  currentVoteState == WorkflowStatus.VotingSession */\n      0x03\n      dup2\n      gt\n      iszero\n      tag_354\n      jumpi\n      tag_355\n      tag_88\n      jump\t// in\n    tag_355:\n    tag_354:\n      sub\n        /* \"VotingPlus.sol\":4370:4536  if (currentVoteState == WorkflowStatus.VotingSession) {... */\n      tag_356\n      jumpi\n        /* \"VotingPlus.sol\":4464:4470  nbVote */\n      dup1\n        /* \"VotingPlus.sol\":4446:4460  atLeastOneVote */\n      sload(0x06)\n        /* \"VotingPlus.sol\":4446:4470  atLeastOneVote >= nbVote */\n      lt\n      iszero\n        /* \"VotingPlus.sol\":4438:4525  require(atLeastOneVote >= nbVote, \"A minimum number of votes are required to continue\") */\n      tag_357\n      jumpi\n      mload(0x40)\n      0x08c379a000000000000000000000000000000000000000000000000000000000\n      dup2\n      mstore\n      0x04\n      add\n      tag_358\n      swap1\n      tag_359\n      jump\t// in\n    tag_358:\n      mload(0x40)\n      dup1\n      swap2\n      sub\n      swap1\n      revert\n    tag_357:\n        /* \"VotingPlus.sol\":4370:4536  if (currentVoteState == WorkflowStatus.VotingSession) {... */\n    tag_356:\n        /* \"VotingPlus.sol\":2706:2733  WorkflowStatus.VotesTallied */\n      0x03\n        /* \"VotingPlus.sol\":2686:2733  currentVoteState != WorkflowStatus.VotesTallied */\n      dup1\n      dup2\n      gt\n      iszero\n      tag_361\n      jumpi\n      tag_362\n      tag_88\n      jump\t// in\n    tag_362:\n    tag_361:\n        /* \"VotingPlus.sol\":2686:2702  currentVoteState */\n      0x09\n      0x00\n      swap1\n      sload\n      swap1\n      0x0100\n      exp\n      swap1\n      div\n      0xff\n      and\n        /* \"VotingPlus.sol\":2686:2733  currentVoteState != WorkflowStatus.VotesTallied */\n      0x03\n      dup2\n      gt\n      iszero\n      tag_363\n      jumpi\n      tag_364\n      tag_88\n      jump\t// in\n    tag_364:\n    tag_363:\n      sub\n        /* \"VotingPlus.sol\":2678:2798  require(currentVoteState != WorkflowStatus.VotesTallied, \"Votes have to be tallied. It is over. There is no next step!\") */\n      tag_365\n      jumpi\n      mload(0x40)\n      0x08c379a000000000000000000000000000000000000000000000000000000000\n      dup2\n      mstore\n      0x04\n      add\n      tag_366\n      swap1\n      tag_367\n      jump\t// in\n    tag_366:\n      mload(0x40)\n      dup1\n      swap2\n      sub\n      swap1\n      revert\n    tag_365:\n        /* \"VotingPlus.sol\":5484:5512  WorkflowStatus previousState */\n      0x00\n        /* \"VotingPlus.sol\":5515:5531  currentVoteState */\n      0x09\n      0x00\n      swap1\n      sload\n      swap1\n      0x0100\n      exp\n      swap1\n      div\n      0xff\n      and\n        /* \"VotingPlus.sol\":5484:5531  WorkflowStatus previousState = currentVoteState */\n      swap1\n      pop\n        /* \"VotingPlus.sol\":5600:5601  1 */\n      0x01\n        /* \"VotingPlus.sol\":5580:5596  currentVoteState */\n      0x09\n      0x00\n      swap1\n      sload\n      swap1\n      0x0100\n      exp\n      swap1\n      div\n      0xff\n      and\n        /* \"VotingPlus.sol\":5575:5597  uint(currentVoteState) */\n      0x03\n      dup2\n      gt\n      iszero\n      tag_369\n      jumpi\n      tag_370\n      tag_88\n      jump\t// in\n    tag_370:\n    tag_369:\n        /* \"VotingPlus.sol\":5575:5601  uint(currentVoteState) + 1 */\n      tag_371\n      swap2\n      swap1\n      tag_372\n      jump\t// in\n    tag_371:\n        /* \"VotingPlus.sol\":5560:5602  WorkflowStatus(uint(currentVoteState) + 1) */\n      0x03\n      dup2\n      gt\n      iszero\n      tag_373\n      jumpi\n      tag_374\n      tag_88\n      jump\t// in\n    tag_374:\n    tag_373:\n        /* \"VotingPlus.sol\":5541:5557  currentVoteState */\n      0x09\n      0x00\n        /* \"VotingPlus.sol\":5541:5602  currentVoteState = WorkflowStatus(uint(currentVoteState) + 1) */\n      0x0100\n      exp\n      dup2\n      sload\n      dup2\n      0xff\n      mul\n      not\n      and\n      swap1\n      dup4\n      0x03\n      dup2\n      gt\n      iszero\n      tag_375\n      jumpi\n      tag_376\n      tag_88\n      jump\t// in\n    tag_376:\n    tag_375:\n      mul\n      or\n      swap1\n      sstore\n      pop\n        /* \"VotingPlus.sol\":5617:5670  WorkflowStatusChange(previousState, currentVoteState) */\n      0x0a97a4ee45751e2abf3e4fc8946939630b11b371ea8ae39ccdc3056e98f5cc3f\n        /* \"VotingPlus.sol\":5638:5651  previousState */\n      dup2\n        /* \"VotingPlus.sol\":5653:5669  currentVoteState */\n      0x09\n      0x00\n      swap1\n      sload\n      swap1\n      0x0100\n      exp\n      swap1\n      div\n      0xff\n      and\n        /* \"VotingPlus.sol\":5617:5670  WorkflowStatusChange(previousState, currentVoteState) */\n      mload(0x40)\n      tag_377\n      swap3\n      swap2\n      swap1\n      tag_378\n      jump\t// in\n    tag_377:\n      mload(0x40)\n      dup1\n      swap2\n      sub\n      swap1\n      log1\n        /* \"VotingPlus.sol\":5474:5677  {... */\n      pop\n        /* \"VotingPlus.sol\":4202:4203  _ */\n      pop\n        /* \"VotingPlus.sol\":3815:3816  _ */\n      pop\n        /* \"https://github.com/OpenZeppelin/openzeppelin-contracts/blob/master/contracts/access/Ownable.sol\":1554:1555  _ */\n      pop\n        /* \"VotingPlus.sol\":5355:5677  function nextVoteStep() external onlyOwner votersRegistered(3) proposalRegistered(2) voteRegistered(1) votesNotTallied {... */\n      jump\t// out\n        /* \"https://github.com/OpenZeppelin/openzeppelin-contracts/blob/master/contracts/access/Ownable.sol\":1796:1958  function _checkOwner() internal view virtual {... */\n    tag_104:\n        /* \"https://github.com/OpenZeppelin/openzeppelin-contracts/blob/master/contracts/access/Ownable.sol\":1866:1878  _msgSender() */\n      tag_380\n        /* \"https://github.com/OpenZeppelin/openzeppelin-contracts/blob/master/contracts/access/Ownable.sol\":1866:1876  _msgSender */\n      tag_381\n        /* \"https://github.com/OpenZeppelin/openzeppelin-contracts/blob/master/contracts/access/Ownable.sol\":1866:1878  _msgSender() */\n      jump\t// in\n    tag_380:\n        /* \"https://github.com/OpenZeppelin/openzeppelin-contracts/blob/master/contracts/access/Ownable.sol\":1855:1878  owner() != _msgSender() */\n      0xffffffffffffffffffffffffffffffffffffffff\n      and\n        /* \"https://github.com/OpenZeppelin/openzeppelin-contracts/blob/master/contracts/access/Ownable.sol\":1855:1862  owner() */\n      tag_382\n        /* \"https://github.com/OpenZeppelin/openzeppelin-contracts/blob/master/contracts/access/Ownable.sol\":1855:1860  owner */\n      tag_43\n        /* \"https://github.com/OpenZeppelin/openzeppelin-contracts/blob/master/contracts/access/Ownable.sol\":1855:1862  owner() */\n      jump\t// in\n    tag_382:\n        /* \"https://github.com/OpenZeppelin/openzeppelin-contracts/blob/master/contracts/access/Ownable.sol\":1855:1878  owner() != _msgSender() */\n      0xffffffffffffffffffffffffffffffffffffffff\n      and\n      eq\n        /* \"https://github.com/OpenZeppelin/openzeppelin-contracts/blob/master/contracts/access/Ownable.sol\":1851:1952  if (owner() != _msgSender()) {... */\n      tag_383\n      jumpi\n        /* \"https://github.com/OpenZeppelin/openzeppelin-contracts/blob/master/contracts/access/Ownable.sol\":1928:1940  _msgSender() */\n      tag_384\n        /* \"https://github.com/OpenZeppelin/openzeppelin-contracts/blob/master/contracts/access/Ownable.sol\":1928:1938  _msgSender */\n      tag_381\n        /* \"https://github.com/OpenZeppelin/openzeppelin-contracts/blob/master/contracts/access/Ownable.sol\":1928:1940  _msgSender() */\n      jump\t// in\n    tag_384:\n        /* \"https://github.com/OpenZeppelin/openzeppelin-contracts/blob/master/contracts/access/Ownable.sol\":1901:1941  OwnableUnauthorizedAccount(_msgSender()) */\n      mload(0x40)\n      0x118cdaa700000000000000000000000000000000000000000000000000000000\n      dup2\n      mstore\n      0x04\n      add\n      tag_385\n      swap2\n      swap1\n      tag_45\n      jump\t// in\n    tag_385:\n      mload(0x40)\n      dup1\n      swap2\n      sub\n      swap1\n      revert\n        /* \"https://github.com/OpenZeppelin/openzeppelin-contracts/blob/master/contracts/access/Ownable.sol\":1851:1952  if (owner() != _msgSender()) {... */\n    tag_383:\n        /* \"https://github.com/OpenZeppelin/openzeppelin-contracts/blob/master/contracts/access/Ownable.sol\":1796:1958  function _checkOwner() internal view virtual {... */\n      jump\t// out\n        /* \"https://github.com/OpenZeppelin/openzeppelin-contracts/blob/master/contracts/access/Ownable.sol\":2912:3099  function _transferOwnership(address newOwner) internal virtual {... */\n    tag_167:\n        /* \"https://github.com/OpenZeppelin/openzeppelin-contracts/blob/master/contracts/access/Ownable.sol\":2985:3001  address oldOwner */\n      0x00\n        /* \"https://github.com/OpenZeppelin/openzeppelin-contracts/blob/master/contracts/access/Ownable.sol\":3004:3010  _owner */\n      dup1\n      0x00\n      swap1\n      sload\n      swap1\n      0x0100\n      exp\n      swap1\n      div\n      0xffffffffffffffffffffffffffffffffffffffff\n      and\n        /* \"https://github.com/OpenZeppelin/openzeppelin-contracts/blob/master/contracts/access/Ownable.sol\":2985:3010  address oldOwner = _owner */\n      swap1\n      pop\n        /* \"https://github.com/OpenZeppelin/openzeppelin-contracts/blob/master/contracts/access/Ownable.sol\":3029:3037  newOwner */\n      dup2\n        /* \"https://github.com/OpenZeppelin/openzeppelin-contracts/blob/master/contracts/access/Ownable.sol\":3020:3026  _owner */\n      0x00\n      dup1\n        /* \"https://github.com/OpenZeppelin/openzeppelin-contracts/blob/master/contracts/access/Ownable.sol\":3020:3037  _owner = newOwner */\n      0x0100\n      exp\n      dup2\n      sload\n      dup2\n      0xffffffffffffffffffffffffffffffffffffffff\n      mul\n      not\n      and\n      swap1\n      dup4\n      0xffffffffffffffffffffffffffffffffffffffff\n      and\n      mul\n      or\n      swap1\n      sstore\n      pop\n        /* \"https://github.com/OpenZeppelin/openzeppelin-contracts/blob/master/contracts/access/Ownable.sol\":3083:3091  newOwner */\n      dup2\n        /* \"https://github.com/OpenZeppelin/openzeppelin-contracts/blob/master/contracts/access/Ownable.sol\":3052:3092  OwnershipTransferred(oldOwner, newOwner) */\n      0xffffffffffffffffffffffffffffffffffffffff\n      and\n        /* \"https://github.com/OpenZeppelin/openzeppelin-contracts/blob/master/contracts/access/Ownable.sol\":3073:3081  oldOwner */\n      dup2\n        /* \"https://github.com/OpenZeppelin/openzeppelin-contracts/blob/master/contracts/access/Ownable.sol\":3052:3092  OwnershipTransferred(oldOwner, newOwner) */\n      0xffffffffffffffffffffffffffffffffffffffff\n      and\n      0x8be0079c531659141344cd1fd0a4f28419497f9722a3daafe3b4186f6b6457e0\n      mload(0x40)\n      mload(0x40)\n      dup1\n      swap2\n      sub\n      swap1\n      log3\n        /* \"https://github.com/OpenZeppelin/openzeppelin-contracts/blob/master/contracts/access/Ownable.sol\":2975:3099  {... */\n      pop\n        /* \"https://github.com/OpenZeppelin/openzeppelin-contracts/blob/master/contracts/access/Ownable.sol\":2912:3099  function _transferOwnership(address newOwner) internal virtual {... */\n      pop\n      jump\t// out\n        /* \"VotingPlus.sol\":6205:6457  function addVoterInternal(address _address) internal {... */\n    tag_302:\n        /* \"VotingPlus.sol\":6296:6297  0 */\n      0x00\n        /* \"VotingPlus.sol\":6268:6274  voters */\n      0x03\n        /* \"VotingPlus.sol\":6268:6284  voters[_address] */\n      0x00\n        /* \"VotingPlus.sol\":6275:6283  _address */\n      dup4\n        /* \"VotingPlus.sol\":6268:6284  voters[_address] */\n      0xffffffffffffffffffffffffffffffffffffffff\n      and\n      0xffffffffffffffffffffffffffffffffffffffff\n      and\n      dup2\n      mstore\n      0x20\n      add\n      swap1\n      dup2\n      mstore\n      0x20\n      add\n      0x00\n      keccak256\n        /* \"VotingPlus.sol\":6268:6293  voters[_address].hasVoted */\n      0x01\n      add\n        /* \"VotingPlus.sol\":6268:6297  voters[_address].hasVoted = 0 */\n      dup2\n      swap1\n      sstore\n      pop\n        /* \"VotingPlus.sol\":6334:6335  1 */\n      0x01\n        /* \"VotingPlus.sol\":6307:6313  voters */\n      0x03\n        /* \"VotingPlus.sol\":6307:6323  voters[_address] */\n      0x00\n        /* \"VotingPlus.sol\":6314:6322  _address */\n      dup4\n        /* \"VotingPlus.sol\":6307:6323  voters[_address] */\n      0xffffffffffffffffffffffffffffffffffffffff\n      and\n      0xffffffffffffffffffffffffffffffffffffffff\n      and\n      dup2\n      mstore\n      0x20\n      add\n      swap1\n      dup2\n      mstore\n      0x20\n      add\n      0x00\n      keccak256\n        /* \"VotingPlus.sol\":6307:6331  voters[_address].nbVotes */\n      0x02\n      add\n        /* \"VotingPlus.sol\":6307:6335  voters[_address].nbVotes = 1 */\n      dup2\n      swap1\n      sstore\n      pop\n        /* \"VotingPlus.sol\":6377:6381  true */\n      0x01\n        /* \"VotingPlus.sol\":6345:6351  voters */\n      0x03\n        /* \"VotingPlus.sol\":6345:6361  voters[_address] */\n      0x00\n        /* \"VotingPlus.sol\":6352:6360  _address */\n      dup4\n        /* \"VotingPlus.sol\":6345:6361  voters[_address] */\n      0xffffffffffffffffffffffffffffffffffffffff\n      and\n      0xffffffffffffffffffffffffffffffffffffffff\n      and\n      dup2\n      mstore\n      0x20\n      add\n      swap1\n      dup2\n      mstore\n      0x20\n      add\n      0x00\n      keccak256\n        /* \"VotingPlus.sol\":6345:6374  voters[_address].isRegistered */\n      0x00\n      add\n      0x00\n        /* \"VotingPlus.sol\":6345:6381  voters[_address].isRegistered = true */\n      0x0100\n      exp\n      dup2\n      sload\n      dup2\n      0xff\n      mul\n      not\n      and\n      swap1\n      dup4\n      iszero\n      iszero\n      mul\n      or\n      swap1\n      sstore\n      pop\n        /* \"VotingPlus.sol\":6391:6417  registerVoterKey(_address) */\n      tag_388\n        /* \"VotingPlus.sol\":6408:6416  _address */\n      dup2\n        /* \"VotingPlus.sol\":6391:6407  registerVoterKey */\n      tag_389\n        /* \"VotingPlus.sol\":6391:6417  registerVoterKey(_address) */\n      jump\t// in\n    tag_388:\n        /* \"VotingPlus.sol\":6436:6448  votersNumber */\n      0x05\n      0x00\n        /* \"VotingPlus.sol\":6436:6450  votersNumber++ */\n      dup2\n      sload\n      dup1\n      swap3\n      swap2\n      swap1\n      tag_390\n      swap1\n      tag_99\n      jump\t// in\n    tag_390:\n      swap2\n      swap1\n      pop\n      sstore\n      pop\n        /* \"VotingPlus.sol\":6205:6457  function addVoterInternal(address _address) internal {... */\n      pop\n      jump\t// out\n        /* \"VotingPlus.sol\":7668:8052  function deleteVoter(address _address) internal {... */\n    tag_304:\n        /* \"VotingPlus.sol\":7758:7763  false */\n      0x00\n        /* \"VotingPlus.sol\":7726:7732  voters */\n      0x03\n        /* \"VotingPlus.sol\":7726:7742  voters[_address] */\n      0x00\n        /* \"VotingPlus.sol\":7733:7741  _address */\n      dup4\n        /* \"VotingPlus.sol\":7726:7742  voters[_address] */\n      0xffffffffffffffffffffffffffffffffffffffff\n      and\n      0xffffffffffffffffffffffffffffffffffffffff\n      and\n      dup2\n      mstore\n      0x20\n      add\n      swap1\n      dup2\n      mstore\n      0x20\n      add\n      0x00\n      keccak256\n        /* \"VotingPlus.sol\":7726:7755  voters[_address].isRegistered */\n      0x00\n      add\n      0x00\n        /* \"VotingPlus.sol\":7726:7763  voters[_address].isRegistered = false */\n      0x0100\n      exp\n      dup2\n      sload\n      dup2\n      0xff\n      mul\n      not\n      and\n      swap1\n      dup4\n      iszero\n      iszero\n      mul\n      or\n      swap1\n      sstore\n      pop\n        /* \"VotingPlus.sol\":7801:7802  0 */\n      0x00\n        /* \"VotingPlus.sol\":7773:7779  voters */\n      0x03\n        /* \"VotingPlus.sol\":7773:7789  voters[_address] */\n      0x00\n        /* \"VotingPlus.sol\":7780:7788  _address */\n      dup4\n        /* \"VotingPlus.sol\":7773:7789  voters[_address] */\n      0xffffffffffffffffffffffffffffffffffffffff\n      and\n      0xffffffffffffffffffffffffffffffffffffffff\n      and\n      dup2\n      mstore\n      0x20\n      add\n      swap1\n      dup2\n      mstore\n      0x20\n      add\n      0x00\n      keccak256\n        /* \"VotingPlus.sol\":7773:7798  voters[_address].hasVoted */\n      0x01\n      add\n        /* \"VotingPlus.sol\":7773:7802  voters[_address].hasVoted = 0 */\n      dup2\n      swap1\n      sstore\n      pop\n        /* \"VotingPlus.sol\":7839:7840  1 */\n      0x01\n        /* \"VotingPlus.sol\":7812:7818  voters */\n      0x03\n        /* \"VotingPlus.sol\":7812:7828  voters[_address] */\n      0x00\n        /* \"VotingPlus.sol\":7819:7827  _address */\n      dup4\n        /* \"VotingPlus.sol\":7812:7828  voters[_address] */\n      0xffffffffffffffffffffffffffffffffffffffff\n      and\n      0xffffffffffffffffffffffffffffffffffffffff\n      and\n      dup2\n      mstore\n      0x20\n      add\n      swap1\n      dup2\n      mstore\n      0x20\n      add\n      0x00\n      keccak256\n        /* \"VotingPlus.sol\":7812:7836  voters[_address].nbVotes */\n      0x02\n      add\n        /* \"VotingPlus.sol\":7812:7840  voters[_address].nbVotes = 1 */\n      dup2\n      swap1\n      sstore\n      pop\n        /* \"VotingPlus.sol\":7857:7863  voters */\n      0x03\n        /* \"VotingPlus.sol\":7857:7873  voters[_address] */\n      0x00\n        /* \"VotingPlus.sol\":7864:7872  _address */\n      dup3\n        /* \"VotingPlus.sol\":7857:7873  voters[_address] */\n      0xffffffffffffffffffffffffffffffffffffffff\n      and\n      0xffffffffffffffffffffffffffffffffffffffff\n      and\n      dup2\n      mstore\n      0x20\n      add\n      swap1\n      dup2\n      mstore\n      0x20\n      add\n      0x00\n      keccak256\n        /* \"VotingPlus.sol\":7857:7890  voters[_address].votedProposalIds */\n      0x03\n      add\n      0x00\n        /* \"VotingPlus.sol\":7850:7890  delete voters[_address].votedProposalIds */\n      tag_392\n      swap2\n      swap1\n      tag_138\n      jump\t// in\n    tag_392:\n        /* \"VotingPlus.sol\":7906:7912  uint i */\n      0x00\n        /* \"VotingPlus.sol\":7901:8046  for (uint i=0; i<votersKeys.length; i++) {... */\n    tag_393:\n        /* \"VotingPlus.sol\":7918:7928  votersKeys */\n      0x04\n        /* \"VotingPlus.sol\":7918:7935  votersKeys.length */\n      dup1\n      sload\n      swap1\n      pop\n        /* \"VotingPlus.sol\":7916:7917  i */\n      dup2\n        /* \"VotingPlus.sol\":7916:7935  i<votersKeys.length */\n      lt\n        /* \"VotingPlus.sol\":7901:8046  for (uint i=0; i<votersKeys.length; i++) {... */\n      iszero\n      tag_394\n      jumpi\n        /* \"VotingPlus.sol\":7977:7985  _address */\n      dup2\n        /* \"VotingPlus.sol\":7960:7985  votersKeys[i] == _address */\n      0xffffffffffffffffffffffffffffffffffffffff\n      and\n        /* \"VotingPlus.sol\":7960:7970  votersKeys */\n      0x04\n        /* \"VotingPlus.sol\":7971:7972  i */\n      dup3\n        /* \"VotingPlus.sol\":7960:7973  votersKeys[i] */\n      dup2\n      sload\n      dup2\n      lt\n      tag_396\n      jumpi\n      tag_397\n      tag_126\n      jump\t// in\n    tag_397:\n    tag_396:\n      swap1\n      0x00\n      mstore\n      keccak256(0x00, 0x20)\n      add\n      0x00\n      swap1\n      sload\n      swap1\n      0x0100\n      exp\n      swap1\n      div\n      0xffffffffffffffffffffffffffffffffffffffff\n      and\n        /* \"VotingPlus.sol\":7960:7985  votersKeys[i] == _address */\n      0xffffffffffffffffffffffffffffffffffffffff\n      and\n      sub\n        /* \"VotingPlus.sol\":7956:8036  if (votersKeys[i] == _address) {... */\n      tag_399\n      jumpi\n        /* \"VotingPlus.sol\":8005:8015  votersKeys */\n      0x04\n        /* \"VotingPlus.sol\":8005:8021  votersKeys.pop() */\n      dup1\n      sload\n      dup1\n      tag_400\n      jumpi\n      tag_401\n      tag_402\n      jump\t// in\n    tag_401:\n    tag_400:\n      0x01\n      swap1\n      sub\n      dup2\n      dup2\n      swap1\n      0x00\n      mstore\n      keccak256(0x00, 0x20)\n      add\n      exp(0x0100, 0x00)\n      dup2\n      sload\n      swap1\n      0xffffffffffffffffffffffffffffffffffffffff\n      mul\n      not\n      and\n      swap1\n      sstore\n      swap1\n      sstore\n        /* \"VotingPlus.sol\":7956:8036  if (votersKeys[i] == _address) {... */\n    tag_399:\n        /* \"VotingPlus.sol\":7937:7940  i++ */\n      dup1\n      dup1\n      0x01\n      add\n      swap2\n      pop\n      pop\n        /* \"VotingPlus.sol\":7901:8046  for (uint i=0; i<votersKeys.length; i++) {... */\n      jump(tag_393)\n    tag_394:\n      pop\n        /* \"VotingPlus.sol\":7668:8052  function deleteVoter(address _address) internal {... */\n      pop\n      jump\t// out\n        /* \"https://github.com/OpenZeppelin/openzeppelin-contracts/blob/master/contracts/utils/Context.sol\":656:752  function _msgSender() internal view virtual returns (address) {... */\n    tag_381:\n        /* \"https://github.com/OpenZeppelin/openzeppelin-contracts/blob/master/contracts/utils/Context.sol\":709:716  address */\n      0x00\n        /* \"https://github.com/OpenZeppelin/openzeppelin-contracts/blob/master/contracts/utils/Context.sol\":735:745  msg.sender */\n      caller\n        /* \"https://github.com/OpenZeppelin/openzeppelin-contracts/blob/master/contracts/utils/Context.sol\":728:745  return msg.sender */\n      swap1\n      pop\n        /* \"https://github.com/OpenZeppelin/openzeppelin-contracts/blob/master/contracts/utils/Context.sol\":656:752  function _msgSender() internal view virtual returns (address) {... */\n      swap1\n      jump\t// out\n        /* \"VotingPlus.sol\":6561:6911  function registerVoterKey(address _voterKey) internal {... */\n    tag_389:\n        /* \"VotingPlus.sol\":6625:6645  bool hasKeyBeenFound */\n      0x00\n        /* \"VotingPlus.sol\":6668:6674  uint i */\n      dup1\n        /* \"VotingPlus.sol\":6663:6815  for (uint i=0; i<votersKeys.length; i++) {... */\n    tag_406:\n        /* \"VotingPlus.sol\":6680:6690  votersKeys */\n      0x04\n        /* \"VotingPlus.sol\":6680:6697  votersKeys.length */\n      dup1\n      sload\n      swap1\n      pop\n        /* \"VotingPlus.sol\":6678:6679  i */\n      dup2\n        /* \"VotingPlus.sol\":6678:6697  i<votersKeys.length */\n      lt\n        /* \"VotingPlus.sol\":6663:6815  for (uint i=0; i<votersKeys.length; i++) {... */\n      iszero\n      tag_407\n      jumpi\n        /* \"VotingPlus.sol\":6739:6748  _voterKey */\n      dup3\n        /* \"VotingPlus.sol\":6722:6748  votersKeys[i] == _voterKey */\n      0xffffffffffffffffffffffffffffffffffffffff\n      and\n        /* \"VotingPlus.sol\":6722:6732  votersKeys */\n      0x04\n        /* \"VotingPlus.sol\":6733:6734  i */\n      dup3\n        /* \"VotingPlus.sol\":6722:6735  votersKeys[i] */\n      dup2\n      sload\n      dup2\n      lt\n      tag_409\n      jumpi\n      tag_410\n      tag_126\n      jump\t// in\n    tag_410:\n    tag_409:\n      swap1\n      0x00\n      mstore\n      keccak256(0x00, 0x20)\n      add\n      0x00\n      swap1\n      sload\n      swap1\n      0x0100\n      exp\n      swap1\n      div\n      0xffffffffffffffffffffffffffffffffffffffff\n      and\n        /* \"VotingPlus.sol\":6722:6748  votersKeys[i] == _voterKey */\n      0xffffffffffffffffffffffffffffffffffffffff\n      and\n      sub\n        /* \"VotingPlus.sol\":6718:6805  if (votersKeys[i] == _voterKey) {... */\n      tag_412\n      jumpi\n        /* \"VotingPlus.sol\":6786:6790  true */\n      0x01\n        /* \"VotingPlus.sol\":6768:6790  hasKeyBeenFound = true */\n      swap2\n      pop\n        /* \"VotingPlus.sol\":6718:6805  if (votersKeys[i] == _voterKey) {... */\n    tag_412:\n        /* \"VotingPlus.sol\":6699:6702  i++ */\n      dup1\n      dup1\n      0x01\n      add\n      swap2\n      pop\n      pop\n        /* \"VotingPlus.sol\":6663:6815  for (uint i=0; i<votersKeys.length; i++) {... */\n      jump(tag_406)\n    tag_407:\n      pop\n        /* \"VotingPlus.sol\":6847:6852  false */\n      0x00\n        /* \"VotingPlus.sol\":6828:6852  hasKeyBeenFound == false */\n      iszero\n      iszero\n        /* \"VotingPlus.sol\":6828:6843  hasKeyBeenFound */\n      dup2\n        /* \"VotingPlus.sol\":6828:6852  hasKeyBeenFound == false */\n      iszero\n      iszero\n      sub\n        /* \"VotingPlus.sol\":6824:6905  if (hasKeyBeenFound == false) {... */\n      tag_413\n      jumpi\n        /* \"VotingPlus.sol\":6868:6878  votersKeys */\n      0x04\n        /* \"VotingPlus.sol\":6884:6893  _voterKey */\n      dup3\n        /* \"VotingPlus.sol\":6868:6894  votersKeys.push(_voterKey) */\n      swap1\n      dup1\n      0x01\n      dup2\n      sload\n      add\n      dup1\n      dup3\n      sstore\n      dup1\n      swap2\n      pop\n      pop\n      0x01\n      swap1\n      sub\n      swap1\n      0x00\n      mstore\n      keccak256(0x00, 0x20)\n      add\n      0x00\n      swap1\n      swap2\n      swap1\n      swap2\n      swap1\n      swap2\n      0x0100\n      exp\n      dup2\n      sload\n      dup2\n      0xffffffffffffffffffffffffffffffffffffffff\n      mul\n      not\n      and\n      swap1\n      dup4\n      0xffffffffffffffffffffffffffffffffffffffff\n      and\n      mul\n      or\n      swap1\n      sstore\n      pop\n        /* \"VotingPlus.sol\":6824:6905  if (hasKeyBeenFound == false) {... */\n    tag_413:\n        /* \"VotingPlus.sol\":6615:6911  {... */\n      pop\n        /* \"VotingPlus.sol\":6561:6911  function registerVoterKey(address _voterKey) internal {... */\n      pop\n      jump\t// out\n    tag_118:\n      pop\n      dup1\n      sload\n      0x00\n      dup3\n      sstore\n      0x04\n      mul\n      swap1\n      0x00\n      mstore\n      keccak256(0x00, 0x20)\n      swap1\n      dup2\n      add\n      swap1\n      tag_416\n      swap2\n      swap1\n      tag_417\n      jump\t// in\n    tag_416:\n      pop\n      jump\t// out\n    tag_120:\n      dup3\n      dup1\n      sload\n      dup3\n      dup3\n      sstore\n      swap1\n      0x00\n      mstore\n      keccak256(0x00, 0x20)\n      swap1\n      0x04\n      mul\n      dup2\n      add\n      swap3\n      dup3\n      iszero\n      tag_418\n      jumpi\n      0x00\n      mstore\n      keccak256(0x00, 0x20)\n      swap2\n      0x04\n      mul\n      dup3\n      add\n    tag_419:\n      dup3\n      dup2\n      gt\n      iszero\n      tag_420\n      jumpi\n      dup3\n      dup3\n      0x00\n      dup3\n      add\n      sload\n      dup2\n      0x00\n      add\n      sstore\n      0x01\n      dup3\n      add\n      dup2\n      0x01\n      add\n      swap1\n      dup2\n      tag_421\n      swap2\n      swap1\n      tag_422\n      jump\t// in\n    tag_421:\n      pop\n      0x02\n      dup3\n      add\n      sload\n      dup2\n      0x02\n      add\n      sstore\n      0x03\n      dup3\n      add\n      sload\n      dup2\n      0x03\n      add\n      sstore\n      pop\n      pop\n      swap2\n      0x04\n      add\n      swap2\n      swap1\n      0x04\n      add\n      swap1\n      jump(tag_419)\n    tag_420:\n    tag_418:\n      pop\n      swap1\n      pop\n      tag_423\n      swap2\n      swap1\n      tag_417\n      jump\t// in\n    tag_423:\n      pop\n      swap1\n      jump\t// out\n    tag_138:\n      pop\n      dup1\n      sload\n      0x00\n      dup3\n      sstore\n      swap1\n      0x00\n      mstore\n      keccak256(0x00, 0x20)\n      swap1\n      dup2\n      add\n      swap1\n      tag_425\n      swap2\n      swap1\n      tag_426\n      jump\t// in\n    tag_425:\n      pop\n      jump\t// out\n    tag_162:\n      pop\n      dup1\n      sload\n      0x00\n      dup3\n      sstore\n      swap1\n      0x00\n      mstore\n      keccak256(0x00, 0x20)\n      swap1\n      dup2\n      add\n      swap1\n      tag_428\n      swap2\n      swap1\n      tag_426\n      jump\t// in\n    tag_428:\n      pop\n      jump\t// out\n    tag_266:\n      mload(0x40)\n      dup1\n      0x80\n      add\n      0x40\n      mstore\n      dup1\n      0x00\n      dup2\n      mstore\n      0x20\n      add\n      0x60\n      dup2\n      mstore\n      0x20\n      add\n      0x00\n      dup2\n      mstore\n      0x20\n      add\n      0x00\n      dup2\n      mstore\n      pop\n      swap1\n      jump\t// out\n    tag_417:\n    tag_429:\n      dup1\n      dup3\n      gt\n      iszero\n      tag_430\n      jumpi\n      0x00\n      dup1\n      dup3\n      add\n      0x00\n      swap1\n      sstore\n      0x01\n      dup3\n      add\n      0x00\n      tag_431\n      swap2\n      swap1\n      tag_432\n      jump\t// in\n    tag_431:\n      0x02\n      dup3\n      add\n      0x00\n      swap1\n      sstore\n      0x03\n      dup3\n      add\n      0x00\n      swap1\n      sstore\n      pop\n      0x04\n      add\n      jump(tag_429)\n    tag_430:\n      pop\n      swap1\n      jump\t// out\n    tag_426:\n    tag_433:\n      dup1\n      dup3\n      gt\n      iszero\n      tag_434\n      jumpi\n      0x00\n      dup2\n      0x00\n      swap1\n      sstore\n      pop\n      0x01\n      add\n      jump(tag_433)\n    tag_434:\n      pop\n      swap1\n      jump\t// out\n    tag_432:\n      pop\n      dup1\n      sload\n      tag_435\n      swap1\n      tag_76\n      jump\t// in\n    tag_435:\n      0x00\n      dup3\n      sstore\n      dup1\n      0x1f\n      lt\n      tag_437\n      jumpi\n      pop\n      jump(tag_436)\n    tag_437:\n      0x1f\n      add\n      0x20\n      swap1\n      div\n      swap1\n      0x00\n      mstore\n      keccak256(0x00, 0x20)\n      swap1\n      dup2\n      add\n      swap1\n      tag_438\n      swap2\n      swap1\n      tag_426\n      jump\t// in\n    tag_438:\n    tag_436:\n      pop\n      jump\t// out\n        /* \"#utility.yul\":7:146   */\n    tag_439:\n        /* \"#utility.yul\":99:105   */\n      0x00\n        /* \"#utility.yul\":133:138   */\n      dup2\n        /* \"#utility.yul\":127:139   */\n      mload\n        /* \"#utility.yul\":117:139   */\n      swap1\n      pop\n        /* \"#utility.yul\":7:146   */\n      swap2\n      swap1\n      pop\n      jump\t// out\n        /* \"#utility.yul\":152:361   */\n    tag_440:\n        /* \"#utility.yul\":276:287   */\n      0x00\n        /* \"#utility.yul\":310:316   */\n      dup3\n        /* \"#utility.yul\":305:308   */\n      dup3\n        /* \"#utility.yul\":298:317   */\n      mstore\n        /* \"#utility.yul\":350:354   */\n      0x20\n        /* \"#utility.yul\":345:348   */\n      dup3\n        /* \"#utility.yul\":341:355   */\n      add\n        /* \"#utility.yul\":326:355   */\n      swap1\n      pop\n        /* \"#utility.yul\":152:361   */\n      swap3\n      swap2\n      pop\n      pop\n      jump\t// out\n        /* \"#utility.yul\":367:524   */\n    tag_441:\n        /* \"#utility.yul\":459:463   */\n      0x00\n        /* \"#utility.yul\":482:485   */\n      dup2\n        /* \"#utility.yul\":474:485   */\n      swap1\n      pop\n        /* \"#utility.yul\":512:516   */\n      0x20\n        /* \"#utility.yul\":507:510   */\n      dup3\n        /* \"#utility.yul\":503:517   */\n      add\n        /* \"#utility.yul\":495:517   */\n      swap1\n      pop\n        /* \"#utility.yul\":367:524   */\n      swap2\n      swap1\n      pop\n      jump\t// out\n        /* \"#utility.yul\":530:607   */\n    tag_442:\n        /* \"#utility.yul\":567:574   */\n      0x00\n        /* \"#utility.yul\":596:601   */\n      dup2\n        /* \"#utility.yul\":585:601   */\n      swap1\n      pop\n        /* \"#utility.yul\":530:607   */\n      swap2\n      swap1\n      pop\n      jump\t// out\n        /* \"#utility.yul\":613:721   */\n    tag_443:\n        /* \"#utility.yul\":690:714   */\n      tag_534\n        /* \"#utility.yul\":708:713   */\n      dup2\n        /* \"#utility.yul\":690:714   */\n      tag_442\n      jump\t// in\n    tag_534:\n        /* \"#utility.yul\":685:688   */\n      dup3\n        /* \"#utility.yul\":678:715   */\n      mstore\n        /* \"#utility.yul\":613:721   */\n      pop\n      pop\n      jump\t// out\n        /* \"#utility.yul\":727:826   */\n    tag_444:\n        /* \"#utility.yul\":779:785   */\n      0x00\n        /* \"#utility.yul\":813:818   */\n      dup2\n        /* \"#utility.yul\":807:819   */\n      mload\n        /* \"#utility.yul\":797:819   */\n      swap1\n      pop\n        /* \"#utility.yul\":727:826   */\n      swap2\n      swap1\n      pop\n      jump\t// out\n        /* \"#utility.yul\":832:991   */\n    tag_445:\n        /* \"#utility.yul\":906:917   */\n      0x00\n        /* \"#utility.yul\":940:946   */\n      dup3\n        /* \"#utility.yul\":935:938   */\n      dup3\n        /* \"#utility.yul\":928:947   */\n      mstore\n        /* \"#utility.yul\":980:984   */\n      0x20\n        /* \"#utility.yul\":975:978   */\n      dup3\n        /* \"#utility.yul\":971:985   */\n      add\n        /* \"#utility.yul\":956:985   */\n      swap1\n      pop\n        /* \"#utility.yul\":832:991   */\n      swap3\n      swap2\n      pop\n      pop\n      jump\t// out\n        /* \"#utility.yul\":997:1243   */\n    tag_446:\n        /* \"#utility.yul\":1078:1079   */\n      0x00\n        /* \"#utility.yul\":1088:1201   */\n    tag_538:\n        /* \"#utility.yul\":1102:1108   */\n      dup4\n        /* \"#utility.yul\":1099:1100   */\n      dup2\n        /* \"#utility.yul\":1096:1109   */\n      lt\n        /* \"#utility.yul\":1088:1201   */\n      iszero\n      tag_540\n      jumpi\n        /* \"#utility.yul\":1187:1188   */\n      dup1\n        /* \"#utility.yul\":1182:1185   */\n      dup3\n        /* \"#utility.yul\":1178:1189   */\n      add\n        /* \"#utility.yul\":1172:1190   */\n      mload\n        /* \"#utility.yul\":1168:1169   */\n      dup2\n        /* \"#utility.yul\":1163:1166   */\n      dup5\n        /* \"#utility.yul\":1159:1170   */\n      add\n        /* \"#utility.yul\":1152:1191   */\n      mstore\n        /* \"#utility.yul\":1124:1126   */\n      0x20\n        /* \"#utility.yul\":1121:1122   */\n      dup2\n        /* \"#utility.yul\":1117:1127   */\n      add\n        /* \"#utility.yul\":1112:1127   */\n      swap1\n      pop\n        /* \"#utility.yul\":1088:1201   */\n      jump(tag_538)\n    tag_540:\n        /* \"#utility.yul\":1235:1236   */\n      0x00\n        /* \"#utility.yul\":1226:1232   */\n      dup5\n        /* \"#utility.yul\":1221:1224   */\n      dup5\n        /* \"#utility.yul\":1217:1233   */\n      add\n        /* \"#utility.yul\":1210:1237   */\n      mstore\n        /* \"#utility.yul\":1059:1243   */\n      pop\n        /* \"#utility.yul\":997:1243   */\n      pop\n      pop\n      pop\n      jump\t// out\n        /* \"#utility.yul\":1249:1351   */\n    tag_447:\n        /* \"#utility.yul\":1290:1296   */\n      0x00\n        /* \"#utility.yul\":1341:1343   */\n      0x1f\n        /* \"#utility.yul\":1337:1344   */\n      not\n        /* \"#utility.yul\":1332:1334   */\n      0x1f\n        /* \"#utility.yul\":1325:1330   */\n      dup4\n        /* \"#utility.yul\":1321:1335   */\n      add\n        /* \"#utility.yul\":1317:1345   */\n      and\n        /* \"#utility.yul\":1307:1345   */\n      swap1\n      pop\n        /* \"#utility.yul\":1249:1351   */\n      swap2\n      swap1\n      pop\n      jump\t// out\n        /* \"#utility.yul\":1357:1714   */\n    tag_448:\n        /* \"#utility.yul\":1435:1438   */\n      0x00\n        /* \"#utility.yul\":1463:1502   */\n      tag_543\n        /* \"#utility.yul\":1496:1501   */\n      dup3\n        /* \"#utility.yul\":1463:1502   */\n      tag_444\n      jump\t// in\n    tag_543:\n        /* \"#utility.yul\":1518:1579   */\n      tag_544\n        /* \"#utility.yul\":1572:1578   */\n      dup2\n        /* \"#utility.yul\":1567:1570   */\n      dup6\n        /* \"#utility.yul\":1518:1579   */\n      tag_445\n      jump\t// in\n    tag_544:\n        /* \"#utility.yul\":1511:1579   */\n      swap4\n      pop\n        /* \"#utility.yul\":1588:1653   */\n      tag_545\n        /* \"#utility.yul\":1646:1652   */\n      dup2\n        /* \"#utility.yul\":1641:1644   */\n      dup6\n        /* \"#utility.yul\":1634:1638   */\n      0x20\n        /* \"#utility.yul\":1627:1632   */\n      dup7\n        /* \"#utility.yul\":1623:1639   */\n      add\n        /* \"#utility.yul\":1588:1653   */\n      tag_446\n      jump\t// in\n    tag_545:\n        /* \"#utility.yul\":1678:1707   */\n      tag_546\n        /* \"#utility.yul\":1700:1706   */\n      dup2\n        /* \"#utility.yul\":1678:1707   */\n      tag_447\n      jump\t// in\n    tag_546:\n        /* \"#utility.yul\":1673:1676   */\n      dup5\n        /* \"#utility.yul\":1669:1708   */\n      add\n        /* \"#utility.yul\":1662:1708   */\n      swap2\n      pop\n        /* \"#utility.yul\":1439:1714   */\n      pop\n        /* \"#utility.yul\":1357:1714   */\n      swap3\n      swap2\n      pop\n      pop\n      jump\t// out\n        /* \"#utility.yul\":1784:2751   */\n    tag_449:\n        /* \"#utility.yul\":1893:1896   */\n      0x00\n        /* \"#utility.yul\":1929:1933   */\n      0x80\n        /* \"#utility.yul\":1924:1927   */\n      dup4\n        /* \"#utility.yul\":1920:1934   */\n      add\n        /* \"#utility.yul\":2014:2018   */\n      0x00\n        /* \"#utility.yul\":2007:2012   */\n      dup4\n        /* \"#utility.yul\":2003:2019   */\n      add\n        /* \"#utility.yul\":1997:2020   */\n      mload\n        /* \"#utility.yul\":2033:2096   */\n      tag_548\n        /* \"#utility.yul\":2090:2094   */\n      0x00\n        /* \"#utility.yul\":2085:2088   */\n      dup7\n        /* \"#utility.yul\":2081:2095   */\n      add\n        /* \"#utility.yul\":2067:2079   */\n      dup3\n        /* \"#utility.yul\":2033:2096   */\n      tag_443\n      jump\t// in\n    tag_548:\n        /* \"#utility.yul\":1944:2106   */\n      pop\n        /* \"#utility.yul\":2195:2199   */\n      0x20\n        /* \"#utility.yul\":2188:2193   */\n      dup4\n        /* \"#utility.yul\":2184:2200   */\n      add\n        /* \"#utility.yul\":2178:2201   */\n      mload\n        /* \"#utility.yul\":2248:2251   */\n      dup5\n        /* \"#utility.yul\":2242:2246   */\n      dup3\n        /* \"#utility.yul\":2238:2252   */\n      sub\n        /* \"#utility.yul\":2231:2235   */\n      0x20\n        /* \"#utility.yul\":2226:2229   */\n      dup7\n        /* \"#utility.yul\":2222:2236   */\n      add\n        /* \"#utility.yul\":2215:2253   */\n      mstore\n        /* \"#utility.yul\":2274:2347   */\n      tag_549\n        /* \"#utility.yul\":2342:2346   */\n      dup3\n        /* \"#utility.yul\":2328:2340   */\n      dup3\n        /* \"#utility.yul\":2274:2347   */\n      tag_448\n      jump\t// in\n    tag_549:\n        /* \"#utility.yul\":2266:2347   */\n      swap2\n      pop\n        /* \"#utility.yul\":2116:2358   */\n      pop\n        /* \"#utility.yul\":2445:2449   */\n      0x40\n        /* \"#utility.yul\":2438:2443   */\n      dup4\n        /* \"#utility.yul\":2434:2450   */\n      add\n        /* \"#utility.yul\":2428:2451   */\n      mload\n        /* \"#utility.yul\":2464:2527   */\n      tag_550\n        /* \"#utility.yul\":2521:2525   */\n      0x40\n        /* \"#utility.yul\":2516:2519   */\n      dup7\n        /* \"#utility.yul\":2512:2526   */\n      add\n        /* \"#utility.yul\":2498:2510   */\n      dup3\n        /* \"#utility.yul\":2464:2527   */\n      tag_443\n      jump\t// in\n    tag_550:\n        /* \"#utility.yul\":2368:2537   */\n      pop\n        /* \"#utility.yul\":2632:2636   */\n      0x60\n        /* \"#utility.yul\":2625:2630   */\n      dup4\n        /* \"#utility.yul\":2621:2637   */\n      add\n        /* \"#utility.yul\":2615:2638   */\n      mload\n        /* \"#utility.yul\":2651:2714   */\n      tag_551\n        /* \"#utility.yul\":2708:2712   */\n      0x60\n        /* \"#utility.yul\":2703:2706   */\n      dup7\n        /* \"#utility.yul\":2699:2713   */\n      add\n        /* \"#utility.yul\":2685:2697   */\n      dup3\n        /* \"#utility.yul\":2651:2714   */\n      tag_443\n      jump\t// in\n    tag_551:\n        /* \"#utility.yul\":2547:2724   */\n      pop\n        /* \"#utility.yul\":2741:2745   */\n      dup1\n        /* \"#utility.yul\":2734:2745   */\n      swap2\n      pop\n        /* \"#utility.yul\":1898:2751   */\n      pop\n        /* \"#utility.yul\":1784:2751   */\n      swap3\n      swap2\n      pop\n      pop\n      jump\t// out\n        /* \"#utility.yul\":2757:3013   */\n    tag_450:\n        /* \"#utility.yul\":2876:2886   */\n      0x00\n        /* \"#utility.yul\":2911:3007   */\n      tag_553\n        /* \"#utility.yul\":3003:3006   */\n      dup4\n        /* \"#utility.yul\":2995:3001   */\n      dup4\n        /* \"#utility.yul\":2911:3007   */\n      tag_449\n      jump\t// in\n    tag_553:\n        /* \"#utility.yul\":2897:3007   */\n      swap1\n      pop\n        /* \"#utility.yul\":2757:3013   */\n      swap3\n      swap2\n      pop\n      pop\n      jump\t// out\n        /* \"#utility.yul\":3019:3157   */\n    tag_451:\n        /* \"#utility.yul\":3114:3118   */\n      0x00\n        /* \"#utility.yul\":3146:3150   */\n      0x20\n        /* \"#utility.yul\":3141:3144   */\n      dup3\n        /* \"#utility.yul\":3137:3151   */\n      add\n        /* \"#utility.yul\":3129:3151   */\n      swap1\n      pop\n        /* \"#utility.yul\":3019:3157   */\n      swap2\n      swap1\n      pop\n      jump\t// out\n        /* \"#utility.yul\":3231:4342   */\n    tag_452:\n        /* \"#utility.yul\":3400:3403   */\n      0x00\n        /* \"#utility.yul\":3429:3508   */\n      tag_556\n        /* \"#utility.yul\":3502:3507   */\n      dup3\n        /* \"#utility.yul\":3429:3508   */\n      tag_439\n      jump\t// in\n    tag_556:\n        /* \"#utility.yul\":3524:3635   */\n      tag_557\n        /* \"#utility.yul\":3628:3634   */\n      dup2\n        /* \"#utility.yul\":3623:3626   */\n      dup6\n        /* \"#utility.yul\":3524:3635   */\n      tag_440\n      jump\t// in\n    tag_557:\n        /* \"#utility.yul\":3517:3635   */\n      swap4\n      pop\n        /* \"#utility.yul\":3661:3664   */\n      dup4\n        /* \"#utility.yul\":3706:3710   */\n      0x20\n        /* \"#utility.yul\":3698:3704   */\n      dup3\n        /* \"#utility.yul\":3694:3711   */\n      mul\n        /* \"#utility.yul\":3689:3692   */\n      dup6\n        /* \"#utility.yul\":3685:3712   */\n      add\n        /* \"#utility.yul\":3736:3817   */\n      tag_558\n        /* \"#utility.yul\":3811:3816   */\n      dup6\n        /* \"#utility.yul\":3736:3817   */\n      tag_441\n      jump\t// in\n    tag_558:\n        /* \"#utility.yul\":3840:3847   */\n      dup1\n        /* \"#utility.yul\":3871:3872   */\n      0x00\n        /* \"#utility.yul\":3856:4297   */\n    tag_559:\n        /* \"#utility.yul\":3881:3887   */\n      dup6\n        /* \"#utility.yul\":3878:3879   */\n      dup2\n        /* \"#utility.yul\":3875:3888   */\n      lt\n        /* \"#utility.yul\":3856:4297   */\n      iszero\n      tag_561\n      jumpi\n        /* \"#utility.yul\":3952:3961   */\n      dup5\n        /* \"#utility.yul\":3946:3950   */\n      dup5\n        /* \"#utility.yul\":3942:3962   */\n      sub\n        /* \"#utility.yul\":3937:3940   */\n      dup10\n        /* \"#utility.yul\":3930:3963   */\n      mstore\n        /* \"#utility.yul\":4003:4009   */\n      dup2\n        /* \"#utility.yul\":3997:4010   */\n      mload\n        /* \"#utility.yul\":4031:4145   */\n      tag_562\n        /* \"#utility.yul\":4140:4144   */\n      dup6\n        /* \"#utility.yul\":4125:4138   */\n      dup3\n        /* \"#utility.yul\":4031:4145   */\n      tag_450\n      jump\t// in\n    tag_562:\n        /* \"#utility.yul\":4023:4145   */\n      swap5\n      pop\n        /* \"#utility.yul\":4168:4253   */\n      tag_563\n        /* \"#utility.yul\":4246:4252   */\n      dup4\n        /* \"#utility.yul\":4168:4253   */\n      tag_451\n      jump\t// in\n    tag_563:\n        /* \"#utility.yul\":4158:4253   */\n      swap3\n      pop\n        /* \"#utility.yul\":4282:4286   */\n      0x20\n        /* \"#utility.yul\":4277:4280   */\n      dup11\n        /* \"#utility.yul\":4273:4287   */\n      add\n        /* \"#utility.yul\":4266:4287   */\n      swap10\n      pop\n        /* \"#utility.yul\":3916:4297   */\n      pop\n        /* \"#utility.yul\":3903:3904   */\n      0x01\n        /* \"#utility.yul\":3900:3901   */\n      dup2\n        /* \"#utility.yul\":3896:3905   */\n      add\n        /* \"#utility.yul\":3891:3905   */\n      swap1\n      pop\n        /* \"#utility.yul\":3856:4297   */\n      jump(tag_559)\n    tag_561:\n        /* \"#utility.yul\":3860:3874   */\n      pop\n        /* \"#utility.yul\":4313:4317   */\n      dup3\n        /* \"#utility.yul\":4306:4317   */\n      swap8\n      pop\n        /* \"#utility.yul\":4333:4336   */\n      dup8\n        /* \"#utility.yul\":4326:4336   */\n      swap6\n      pop\n        /* \"#utility.yul\":3405:4342   */\n      pop\n      pop\n      pop\n      pop\n      pop\n        /* \"#utility.yul\":3231:4342   */\n      swap3\n      swap2\n      pop\n      pop\n      jump\t// out\n        /* \"#utility.yul\":4348:4821   */\n    tag_24:\n        /* \"#utility.yul\":4541:4545   */\n      0x00\n        /* \"#utility.yul\":4579:4581   */\n      0x20\n        /* \"#utility.yul\":4568:4577   */\n      dup3\n        /* \"#utility.yul\":4564:4582   */\n      add\n        /* \"#utility.yul\":4556:4582   */\n      swap1\n      pop\n        /* \"#utility.yul\":4628:4637   */\n      dup2\n        /* \"#utility.yul\":4622:4626   */\n      dup2\n        /* \"#utility.yul\":4618:4638   */\n      sub\n        /* \"#utility.yul\":4614:4615   */\n      0x00\n        /* \"#utility.yul\":4603:4612   */\n      dup4\n        /* \"#utility.yul\":4599:4616   */\n      add\n        /* \"#utility.yul\":4592:4639   */\n      mstore\n        /* \"#utility.yul\":4656:4814   */\n      tag_565\n        /* \"#utility.yul\":4809:4813   */\n      dup2\n        /* \"#utility.yul\":4800:4806   */\n      dup5\n        /* \"#utility.yul\":4656:4814   */\n      tag_452\n      jump\t// in\n    tag_565:\n        /* \"#utility.yul\":4648:4814   */\n      swap1\n      pop\n        /* \"#utility.yul\":4348:4821   */\n      swap3\n      swap2\n      pop\n      pop\n      jump\t// out\n        /* \"#utility.yul\":4908:5025   */\n    tag_454:\n        /* \"#utility.yul\":5017:5018   */\n      0x00\n        /* \"#utility.yul\":5014:5015   */\n      dup1\n        /* \"#utility.yul\":5007:5019   */\n      revert\n        /* \"#utility.yul\":5031:5148   */\n    tag_455:\n        /* \"#utility.yul\":5140:5141   */\n      0x00\n        /* \"#utility.yul\":5137:5138   */\n      dup1\n        /* \"#utility.yul\":5130:5142   */\n      revert\n        /* \"#utility.yul\":5154:5271   */\n    tag_456:\n        /* \"#utility.yul\":5263:5264   */\n      0x00\n        /* \"#utility.yul\":5260:5261   */\n      dup1\n        /* \"#utility.yul\":5253:5265   */\n      revert\n        /* \"#utility.yul\":5277:5394   */\n    tag_457:\n        /* \"#utility.yul\":5386:5387   */\n      0x00\n        /* \"#utility.yul\":5383:5384   */\n      dup1\n        /* \"#utility.yul\":5376:5388   */\n      revert\n        /* \"#utility.yul\":5400:5517   */\n    tag_458:\n        /* \"#utility.yul\":5509:5510   */\n      0x00\n        /* \"#utility.yul\":5506:5507   */\n      dup1\n        /* \"#utility.yul\":5499:5511   */\n      revert\n        /* \"#utility.yul\":5537:6090   */\n    tag_459:\n        /* \"#utility.yul\":5595:5603   */\n      0x00\n        /* \"#utility.yul\":5605:5611   */\n      dup1\n        /* \"#utility.yul\":5655:5658   */\n      dup4\n        /* \"#utility.yul\":5648:5652   */\n      0x1f\n        /* \"#utility.yul\":5640:5646   */\n      dup5\n        /* \"#utility.yul\":5636:5653   */\n      add\n        /* \"#utility.yul\":5632:5659   */\n      slt\n        /* \"#utility.yul\":5622:5744   */\n      tag_573\n      jumpi\n        /* \"#utility.yul\":5663:5742   */\n      tag_574\n      tag_456\n      jump\t// in\n    tag_574:\n        /* \"#utility.yul\":5622:5744   */\n    tag_573:\n        /* \"#utility.yul\":5776:5782   */\n      dup3\n        /* \"#utility.yul\":5763:5783   */\n      calldataload\n        /* \"#utility.yul\":5753:5783   */\n      swap1\n      pop\n        /* \"#utility.yul\":5806:5824   */\n      0xffffffffffffffff\n        /* \"#utility.yul\":5798:5804   */\n      dup2\n        /* \"#utility.yul\":5795:5825   */\n      gt\n        /* \"#utility.yul\":5792:5909   */\n      iszero\n      tag_575\n      jumpi\n        /* \"#utility.yul\":5828:5907   */\n      tag_576\n      tag_457\n      jump\t// in\n    tag_576:\n        /* \"#utility.yul\":5792:5909   */\n    tag_575:\n        /* \"#utility.yul\":5942:5946   */\n      0x20\n        /* \"#utility.yul\":5934:5940   */\n      dup4\n        /* \"#utility.yul\":5930:5947   */\n      add\n        /* \"#utility.yul\":5918:5947   */\n      swap2\n      pop\n        /* \"#utility.yul\":5996:5999   */\n      dup4\n        /* \"#utility.yul\":5988:5992   */\n      0x01\n        /* \"#utility.yul\":5980:5986   */\n      dup3\n        /* \"#utility.yul\":5976:5993   */\n      mul\n        /* \"#utility.yul\":5966:5974   */\n      dup4\n        /* \"#utility.yul\":5962:5994   */\n      add\n        /* \"#utility.yul\":5959:6000   */\n      gt\n        /* \"#utility.yul\":5956:6084   */\n      iszero\n      tag_577\n      jumpi\n        /* \"#utility.yul\":6003:6082   */\n      tag_578\n      tag_458\n      jump\t// in\n    tag_578:\n        /* \"#utility.yul\":5956:6084   */\n    tag_577:\n        /* \"#utility.yul\":5537:6090   */\n      swap3\n      pop\n      swap3\n      swap1\n      pop\n      jump\t// out\n        /* \"#utility.yul\":6096:6625   */\n    tag_27:\n        /* \"#utility.yul\":6167:6173   */\n      0x00\n        /* \"#utility.yul\":6175:6181   */\n      dup1\n        /* \"#utility.yul\":6224:6226   */\n      0x20\n        /* \"#utility.yul\":6212:6221   */\n      dup4\n        /* \"#utility.yul\":6203:6210   */\n      dup6\n        /* \"#utility.yul\":6199:6222   */\n      sub\n        /* \"#utility.yul\":6195:6227   */\n      slt\n        /* \"#utility.yul\":6192:6311   */\n      iszero\n      tag_580\n      jumpi\n        /* \"#utility.yul\":6230:6309   */\n      tag_581\n      tag_454\n      jump\t// in\n    tag_581:\n        /* \"#utility.yul\":6192:6311   */\n    tag_580:\n        /* \"#utility.yul\":6378:6379   */\n      0x00\n        /* \"#utility.yul\":6367:6376   */\n      dup4\n        /* \"#utility.yul\":6363:6380   */\n      add\n        /* \"#utility.yul\":6350:6381   */\n      calldataload\n        /* \"#utility.yul\":6408:6426   */\n      0xffffffffffffffff\n        /* \"#utility.yul\":6400:6406   */\n      dup2\n        /* \"#utility.yul\":6397:6427   */\n      gt\n        /* \"#utility.yul\":6394:6511   */\n      iszero\n      tag_582\n      jumpi\n        /* \"#utility.yul\":6430:6509   */\n      tag_583\n      tag_455\n      jump\t// in\n    tag_583:\n        /* \"#utility.yul\":6394:6511   */\n    tag_582:\n        /* \"#utility.yul\":6543:6608   */\n      tag_584\n        /* \"#utility.yul\":6600:6607   */\n      dup6\n        /* \"#utility.yul\":6591:6597   */\n      dup3\n        /* \"#utility.yul\":6580:6589   */\n      dup7\n        /* \"#utility.yul\":6576:6598   */\n      add\n        /* \"#utility.yul\":6543:6608   */\n      tag_459\n      jump\t// in\n    tag_584:\n        /* \"#utility.yul\":6525:6608   */\n      swap3\n      pop\n      swap3\n      pop\n        /* \"#utility.yul\":6321:6618   */\n      pop\n        /* \"#utility.yul\":6096:6625   */\n      swap3\n      pop\n      swap3\n      swap1\n      pop\n      jump\t// out\n        /* \"#utility.yul\":6631:6753   */\n    tag_460:\n        /* \"#utility.yul\":6704:6728   */\n      tag_586\n        /* \"#utility.yul\":6722:6727   */\n      dup2\n        /* \"#utility.yul\":6704:6728   */\n      tag_442\n      jump\t// in\n    tag_586:\n        /* \"#utility.yul\":6697:6702   */\n      dup2\n        /* \"#utility.yul\":6694:6729   */\n      eq\n        /* \"#utility.yul\":6684:6747   */\n      tag_587\n      jumpi\n        /* \"#utility.yul\":6743:6744   */\n      0x00\n        /* \"#utility.yul\":6740:6741   */\n      dup1\n        /* \"#utility.yul\":6733:6745   */\n      revert\n        /* \"#utility.yul\":6684:6747   */\n    tag_587:\n        /* \"#utility.yul\":6631:6753   */\n      pop\n      jump\t// out\n        /* \"#utility.yul\":6759:6898   */\n    tag_461:\n        /* \"#utility.yul\":6805:6810   */\n      0x00\n        /* \"#utility.yul\":6843:6849   */\n      dup2\n        /* \"#utility.yul\":6830:6850   */\n      calldataload\n        /* \"#utility.yul\":6821:6850   */\n      swap1\n      pop\n        /* \"#utility.yul\":6859:6892   */\n      tag_589\n        /* \"#utility.yul\":6886:6891   */\n      dup2\n        /* \"#utility.yul\":6859:6892   */\n      tag_460\n      jump\t// in\n    tag_589:\n        /* \"#utility.yul\":6759:6898   */\n      swap3\n      swap2\n      pop\n      pop\n      jump\t// out\n        /* \"#utility.yul\":6904:7233   */\n    tag_37:\n        /* \"#utility.yul\":6963:6969   */\n      0x00\n        /* \"#utility.yul\":7012:7014   */\n      0x20\n        /* \"#utility.yul\":7000:7009   */\n      dup3\n        /* \"#utility.yul\":6991:6998   */\n      dup5\n        /* \"#utility.yul\":6987:7010   */\n      sub\n        /* \"#utility.yul\":6983:7015   */\n      slt\n        /* \"#utility.yul\":6980:7099   */\n      iszero\n      tag_591\n      jumpi\n        /* \"#utility.yul\":7018:7097   */\n      tag_592\n      tag_454\n      jump\t// in\n    tag_592:\n        /* \"#utility.yul\":6980:7099   */\n    tag_591:\n        /* \"#utility.yul\":7138:7139   */\n      0x00\n        /* \"#utility.yul\":7163:7216   */\n      tag_593\n        /* \"#utility.yul\":7208:7215   */\n      dup5\n        /* \"#utility.yul\":7199:7205   */\n      dup3\n        /* \"#utility.yul\":7188:7197   */\n      dup6\n        /* \"#utility.yul\":7184:7206   */\n      add\n        /* \"#utility.yul\":7163:7216   */\n      tag_461\n      jump\t// in\n    tag_593:\n        /* \"#utility.yul\":7153:7216   */\n      swap2\n      pop\n        /* \"#utility.yul\":7109:7226   */\n      pop\n        /* \"#utility.yul\":6904:7233   */\n      swap3\n      swap2\n      pop\n      pop\n      jump\t// out\n        /* \"#utility.yul\":7239:7365   */\n    tag_462:\n        /* \"#utility.yul\":7276:7283   */\n      0x00\n        /* \"#utility.yul\":7316:7358   */\n      0xffffffffffffffffffffffffffffffffffffffff\n        /* \"#utility.yul\":7309:7314   */\n      dup3\n        /* \"#utility.yul\":7305:7359   */\n      and\n        /* \"#utility.yul\":7294:7359   */\n      swap1\n      pop\n        /* \"#utility.yul\":7239:7365   */\n      swap2\n      swap1\n      pop\n      jump\t// out\n        /* \"#utility.yul\":7371:7467   */\n    tag_463:\n        /* \"#utility.yul\":7408:7415   */\n      0x00\n        /* \"#utility.yul\":7437:7461   */\n      tag_596\n        /* \"#utility.yul\":7455:7460   */\n      dup3\n        /* \"#utility.yul\":7437:7461   */\n      tag_462\n      jump\t// in\n    tag_596:\n        /* \"#utility.yul\":7426:7461   */\n      swap1\n      pop\n        /* \"#utility.yul\":7371:7467   */\n      swap2\n      swap1\n      pop\n      jump\t// out\n        /* \"#utility.yul\":7473:7591   */\n    tag_464:\n        /* \"#utility.yul\":7560:7584   */\n      tag_598\n        /* \"#utility.yul\":7578:7583   */\n      dup2\n        /* \"#utility.yul\":7560:7584   */\n      tag_463\n      jump\t// in\n    tag_598:\n        /* \"#utility.yul\":7555:7558   */\n      dup3\n        /* \"#utility.yul\":7548:7585   */\n      mstore\n        /* \"#utility.yul\":7473:7591   */\n      pop\n      pop\n      jump\t// out\n        /* \"#utility.yul\":7597:7819   */\n    tag_45:\n        /* \"#utility.yul\":7690:7694   */\n      0x00\n        /* \"#utility.yul\":7728:7730   */\n      0x20\n        /* \"#utility.yul\":7717:7726   */\n      dup3\n        /* \"#utility.yul\":7713:7731   */\n      add\n        /* \"#utility.yul\":7705:7731   */\n      swap1\n      pop\n        /* \"#utility.yul\":7741:7812   */\n      tag_600\n        /* \"#utility.yul\":7809:7810   */\n      0x00\n        /* \"#utility.yul\":7798:7807   */\n      dup4\n        /* \"#utility.yul\":7794:7811   */\n      add\n        /* \"#utility.yul\":7785:7791   */\n      dup5\n        /* \"#utility.yul\":7741:7812   */\n      tag_464\n      jump\t// in\n    tag_600:\n        /* \"#utility.yul\":7597:7819   */\n      swap3\n      swap2\n      pop\n      pop\n      jump\t// out\n        /* \"#utility.yul\":7825:7901   */\n    tag_465:\n        /* \"#utility.yul\":7861:7868   */\n      0x00\n        /* \"#utility.yul\":7890:7895   */\n      dup2\n        /* \"#utility.yul\":7879:7895   */\n      swap1\n      pop\n        /* \"#utility.yul\":7825:7901   */\n      swap2\n      swap1\n      pop\n      jump\t// out\n        /* \"#utility.yul\":7907:8022   */\n    tag_466:\n        /* \"#utility.yul\":7992:8015   */\n      tag_603\n        /* \"#utility.yul\":8009:8014   */\n      dup2\n        /* \"#utility.yul\":7992:8015   */\n      tag_465\n      jump\t// in\n    tag_603:\n        /* \"#utility.yul\":7987:7990   */\n      dup3\n        /* \"#utility.yul\":7980:8016   */\n      mstore\n        /* \"#utility.yul\":7907:8022   */\n      pop\n      pop\n      jump\t// out\n        /* \"#utility.yul\":8028:8246   */\n    tag_49:\n        /* \"#utility.yul\":8119:8123   */\n      0x00\n        /* \"#utility.yul\":8157:8159   */\n      0x20\n        /* \"#utility.yul\":8146:8155   */\n      dup3\n        /* \"#utility.yul\":8142:8160   */\n      add\n        /* \"#utility.yul\":8134:8160   */\n      swap1\n      pop\n        /* \"#utility.yul\":8170:8239   */\n      tag_605\n        /* \"#utility.yul\":8236:8237   */\n      0x00\n        /* \"#utility.yul\":8225:8234   */\n      dup4\n        /* \"#utility.yul\":8221:8238   */\n      add\n        /* \"#utility.yul\":8212:8218   */\n      dup5\n        /* \"#utility.yul\":8170:8239   */\n      tag_466\n      jump\t// in\n    tag_605:\n        /* \"#utility.yul\":8028:8246   */\n      swap3\n      swap2\n      pop\n      pop\n      jump\t// out\n        /* \"#utility.yul\":8252:8374   */\n    tag_467:\n        /* \"#utility.yul\":8325:8349   */\n      tag_607\n        /* \"#utility.yul\":8343:8348   */\n      dup2\n        /* \"#utility.yul\":8325:8349   */\n      tag_463\n      jump\t// in\n    tag_607:\n        /* \"#utility.yul\":8318:8323   */\n      dup2\n        /* \"#utility.yul\":8315:8350   */\n      eq\n        /* \"#utility.yul\":8305:8368   */\n      tag_608\n      jumpi\n        /* \"#utility.yul\":8364:8365   */\n      0x00\n        /* \"#utility.yul\":8361:8362   */\n      dup1\n        /* \"#utility.yul\":8354:8366   */\n      revert\n        /* \"#utility.yul\":8305:8368   */\n    tag_608:\n        /* \"#utility.yul\":8252:8374   */\n      pop\n      jump\t// out\n        /* \"#utility.yul\":8380:8519   */\n    tag_468:\n        /* \"#utility.yul\":8426:8431   */\n      0x00\n        /* \"#utility.yul\":8464:8470   */\n      dup2\n        /* \"#utility.yul\":8451:8471   */\n      calldataload\n        /* \"#utility.yul\":8442:8471   */\n      swap1\n      pop\n        /* \"#utility.yul\":8480:8513   */\n      tag_610\n        /* \"#utility.yul\":8507:8512   */\n      dup2\n        /* \"#utility.yul\":8480:8513   */\n      tag_467\n      jump\t// in\n    tag_610:\n        /* \"#utility.yul\":8380:8519   */\n      swap3\n      swap2\n      pop\n      pop\n      jump\t// out\n        /* \"#utility.yul\":8525:8854   */\n    tag_54:\n        /* \"#utility.yul\":8584:8590   */\n      0x00\n        /* \"#utility.yul\":8633:8635   */\n      0x20\n        /* \"#utility.yul\":8621:8630   */\n      dup3\n        /* \"#utility.yul\":8612:8619   */\n      dup5\n        /* \"#utility.yul\":8608:8631   */\n      sub\n        /* \"#utility.yul\":8604:8636   */\n      slt\n        /* \"#utility.yul\":8601:8720   */\n      iszero\n      tag_612\n      jumpi\n        /* \"#utility.yul\":8639:8718   */\n      tag_613\n      tag_454\n      jump\t// in\n    tag_613:\n        /* \"#utility.yul\":8601:8720   */\n    tag_612:\n        /* \"#utility.yul\":8759:8760   */\n      0x00\n        /* \"#utility.yul\":8784:8837   */\n      tag_614\n        /* \"#utility.yul\":8829:8836   */\n      dup5\n        /* \"#utility.yul\":8820:8826   */\n      dup3\n        /* \"#utility.yul\":8809:8818   */\n      dup6\n        /* \"#utility.yul\":8805:8827   */\n      add\n        /* \"#utility.yul\":8784:8837   */\n      tag_468\n      jump\t// in\n    tag_614:\n        /* \"#utility.yul\":8774:8837   */\n      swap2\n      pop\n        /* \"#utility.yul\":8730:8847   */\n      pop\n        /* \"#utility.yul\":8525:8854   */\n      swap3\n      swap2\n      pop\n      pop\n      jump\t// out\n        /* \"#utility.yul\":8860:9040   */\n    tag_88:\n        /* \"#utility.yul\":8908:8985   */\n      0x4e487b7100000000000000000000000000000000000000000000000000000000\n        /* \"#utility.yul\":8905:8906   */\n      0x00\n        /* \"#utility.yul\":8898:8986   */\n      mstore\n        /* \"#utility.yul\":9005:9009   */\n      0x21\n        /* \"#utility.yul\":9002:9003   */\n      0x04\n        /* \"#utility.yul\":8995:9010   */\n      mstore\n        /* \"#utility.yul\":9029:9033   */\n      0x24\n        /* \"#utility.yul\":9026:9027   */\n      0x00\n        /* \"#utility.yul\":9019:9034   */\n      revert\n        /* \"#utility.yul\":9046:9169   */\n    tag_469:\n        /* \"#utility.yul\":9137:9138   */\n      0x04\n        /* \"#utility.yul\":9130:9135   */\n      dup2\n        /* \"#utility.yul\":9127:9139   */\n      lt\n        /* \"#utility.yul\":9117:9163   */\n      tag_617\n      jumpi\n        /* \"#utility.yul\":9143:9161   */\n      tag_618\n      tag_88\n      jump\t// in\n    tag_618:\n        /* \"#utility.yul\":9117:9163   */\n    tag_617:\n        /* \"#utility.yul\":9046:9169   */\n      pop\n      jump\t// out\n        /* \"#utility.yul\":9175:9322   */\n    tag_470:\n        /* \"#utility.yul\":9230:9237   */\n      0x00\n        /* \"#utility.yul\":9259:9264   */\n      dup2\n        /* \"#utility.yul\":9248:9264   */\n      swap1\n      pop\n        /* \"#utility.yul\":9265:9316   */\n      tag_620\n        /* \"#utility.yul\":9310:9315   */\n      dup3\n        /* \"#utility.yul\":9265:9316   */\n      tag_469\n      jump\t// in\n    tag_620:\n        /* \"#utility.yul\":9175:9322   */\n      swap2\n      swap1\n      pop\n      jump\t// out\n        /* \"#utility.yul\":9328:9475   */\n    tag_471:\n        /* \"#utility.yul\":9394:9403   */\n      0x00\n        /* \"#utility.yul\":9427:9469   */\n      tag_622\n        /* \"#utility.yul\":9463:9468   */\n      dup3\n        /* \"#utility.yul\":9427:9469   */\n      tag_470\n      jump\t// in\n    tag_622:\n        /* \"#utility.yul\":9414:9469   */\n      swap1\n      pop\n        /* \"#utility.yul\":9328:9475   */\n      swap2\n      swap1\n      pop\n      jump\t// out\n        /* \"#utility.yul\":9481:9644   */\n    tag_472:\n        /* \"#utility.yul\":9584:9637   */\n      tag_624\n        /* \"#utility.yul\":9631:9636   */\n      dup2\n        /* \"#utility.yul\":9584:9637   */\n      tag_471\n      jump\t// in\n    tag_624:\n        /* \"#utility.yul\":9579:9582   */\n      dup3\n        /* \"#utility.yul\":9572:9638   */\n      mstore\n        /* \"#utility.yul\":9481:9644   */\n      pop\n      pop\n      jump\t// out\n        /* \"#utility.yul\":9650:9904   */\n    tag_59:\n        /* \"#utility.yul\":9759:9763   */\n      0x00\n        /* \"#utility.yul\":9797:9799   */\n      0x20\n        /* \"#utility.yul\":9786:9795   */\n      dup3\n        /* \"#utility.yul\":9782:9800   */\n      add\n        /* \"#utility.yul\":9774:9800   */\n      swap1\n      pop\n        /* \"#utility.yul\":9810:9897   */\n      tag_626\n        /* \"#utility.yul\":9894:9895   */\n      0x00\n        /* \"#utility.yul\":9883:9892   */\n      dup4\n        /* \"#utility.yul\":9879:9896   */\n      add\n        /* \"#utility.yul\":9870:9876   */\n      dup5\n        /* \"#utility.yul\":9810:9897   */\n      tag_472\n      jump\t// in\n    tag_626:\n        /* \"#utility.yul\":9650:9904   */\n      swap3\n      swap2\n      pop\n      pop\n      jump\t// out\n        /* \"#utility.yul\":9910:10079   */\n    tag_473:\n        /* \"#utility.yul\":9994:10005   */\n      0x00\n        /* \"#utility.yul\":10028:10034   */\n      dup3\n        /* \"#utility.yul\":10023:10026   */\n      dup3\n        /* \"#utility.yul\":10016:10035   */\n      mstore\n        /* \"#utility.yul\":10068:10072   */\n      0x20\n        /* \"#utility.yul\":10063:10066   */\n      dup3\n        /* \"#utility.yul\":10059:10073   */\n      add\n        /* \"#utility.yul\":10044:10073   */\n      swap1\n      pop\n        /* \"#utility.yul\":9910:10079   */\n      swap3\n      swap2\n      pop\n      pop\n      jump\t// out\n        /* \"#utility.yul\":10085:10313   */\n    tag_474:\n        /* \"#utility.yul\":10225:10259   */\n      0x546865726520617265206e6f2070726f706f736974696f6e7320726567697374\n        /* \"#utility.yul\":10221:10222   */\n      0x00\n        /* \"#utility.yul\":10213:10219   */\n      dup3\n        /* \"#utility.yul\":10209:10223   */\n      add\n        /* \"#utility.yul\":10202:10260   */\n      mstore\n        /* \"#utility.yul\":10294:10305   */\n      0x6572656420796574210000000000000000000000000000000000000000000000\n        /* \"#utility.yul\":10289:10291   */\n      0x20\n        /* \"#utility.yul\":10281:10287   */\n      dup3\n        /* \"#utility.yul\":10277:10292   */\n      add\n        /* \"#utility.yul\":10270:10306   */\n      mstore\n        /* \"#utility.yul\":10085:10313   */\n      pop\n      jump\t// out\n        /* \"#utility.yul\":10319:10685   */\n    tag_475:\n        /* \"#utility.yul\":10461:10464   */\n      0x00\n        /* \"#utility.yul\":10482:10549   */\n      tag_630\n        /* \"#utility.yul\":10546:10548   */\n      0x29\n        /* \"#utility.yul\":10541:10544   */\n      dup4\n        /* \"#utility.yul\":10482:10549   */\n      tag_473\n      jump\t// in\n    tag_630:\n        /* \"#utility.yul\":10475:10549   */\n      swap2\n      pop\n        /* \"#utility.yul\":10558:10651   */\n      tag_631\n        /* \"#utility.yul\":10647:10650   */\n      dup3\n        /* \"#utility.yul\":10558:10651   */\n      tag_474\n      jump\t// in\n    tag_631:\n        /* \"#utility.yul\":10676:10678   */\n      0x40\n        /* \"#utility.yul\":10671:10674   */\n      dup3\n        /* \"#utility.yul\":10667:10679   */\n      add\n        /* \"#utility.yul\":10660:10679   */\n      swap1\n      pop\n        /* \"#utility.yul\":10319:10685   */\n      swap2\n      swap1\n      pop\n      jump\t// out\n        /* \"#utility.yul\":10691:11110   */\n    tag_71:\n        /* \"#utility.yul\":10857:10861   */\n      0x00\n        /* \"#utility.yul\":10895:10897   */\n      0x20\n        /* \"#utility.yul\":10884:10893   */\n      dup3\n        /* \"#utility.yul\":10880:10898   */\n      add\n        /* \"#utility.yul\":10872:10898   */\n      swap1\n      pop\n        /* \"#utility.yul\":10944:10953   */\n      dup2\n        /* \"#utility.yul\":10938:10942   */\n      dup2\n        /* \"#utility.yul\":10934:10954   */\n      sub\n        /* \"#utility.yul\":10930:10931   */\n      0x00\n        /* \"#utility.yul\":10919:10928   */\n      dup4\n        /* \"#utility.yul\":10915:10932   */\n      add\n        /* \"#utility.yul\":10908:10955   */\n      mstore\n        /* \"#utility.yul\":10972:11103   */\n      tag_633\n        /* \"#utility.yul\":11098:11102   */\n      dup2\n        /* \"#utility.yul\":10972:11103   */\n      tag_475\n      jump\t// in\n    tag_633:\n        /* \"#utility.yul\":10964:11103   */\n      swap1\n      pop\n        /* \"#utility.yul\":10691:11110   */\n      swap2\n      swap1\n      pop\n      jump\t// out\n        /* \"#utility.yul\":11116:11296   */\n    tag_476:\n        /* \"#utility.yul\":11164:11241   */\n      0x4e487b7100000000000000000000000000000000000000000000000000000000\n        /* \"#utility.yul\":11161:11162   */\n      0x00\n        /* \"#utility.yul\":11154:11242   */\n      mstore\n        /* \"#utility.yul\":11261:11265   */\n      0x22\n        /* \"#utility.yul\":11258:11259   */\n      0x04\n        /* \"#utility.yul\":11251:11266   */\n      mstore\n        /* \"#utility.yul\":11285:11289   */\n      0x24\n        /* \"#utility.yul\":11282:11283   */\n      0x00\n        /* \"#utility.yul\":11275:11290   */\n      revert\n        /* \"#utility.yul\":11302:11622   */\n    tag_76:\n        /* \"#utility.yul\":11346:11352   */\n      0x00\n        /* \"#utility.yul\":11383:11384   */\n      0x02\n        /* \"#utility.yul\":11377:11381   */\n      dup3\n        /* \"#utility.yul\":11373:11385   */\n      div\n        /* \"#utility.yul\":11363:11385   */\n      swap1\n      pop\n        /* \"#utility.yul\":11430:11431   */\n      0x01\n        /* \"#utility.yul\":11424:11428   */\n      dup3\n        /* \"#utility.yul\":11420:11432   */\n      and\n        /* \"#utility.yul\":11451:11469   */\n      dup1\n        /* \"#utility.yul\":11441:11522   */\n      tag_636\n      jumpi\n        /* \"#utility.yul\":11507:11511   */\n      0x7f\n        /* \"#utility.yul\":11499:11505   */\n      dup3\n        /* \"#utility.yul\":11495:11512   */\n      and\n        /* \"#utility.yul\":11485:11512   */\n      swap2\n      pop\n        /* \"#utility.yul\":11441:11522   */\n    tag_636:\n        /* \"#utility.yul\":11569:11571   */\n      0x20\n        /* \"#utility.yul\":11561:11567   */\n      dup3\n        /* \"#utility.yul\":11558:11572   */\n      lt\n        /* \"#utility.yul\":11538:11556   */\n      dup2\n        /* \"#utility.yul\":11535:11573   */\n      sub\n        /* \"#utility.yul\":11532:11616   */\n      tag_637\n      jumpi\n        /* \"#utility.yul\":11588:11606   */\n      tag_638\n      tag_476\n      jump\t// in\n    tag_638:\n        /* \"#utility.yul\":11532:11616   */\n    tag_637:\n        /* \"#utility.yul\":11353:11622   */\n      pop\n        /* \"#utility.yul\":11302:11622   */\n      swap2\n      swap1\n      pop\n      jump\t// out\n        /* \"#utility.yul\":11628:11804   */\n    tag_477:\n        /* \"#utility.yul\":11768:11796   */\n      0x596f7520617265206e6f7420612076616c696420766f74657221000000000000\n        /* \"#utility.yul\":11764:11765   */\n      0x00\n        /* \"#utility.yul\":11756:11762   */\n      dup3\n        /* \"#utility.yul\":11752:11766   */\n      add\n        /* \"#utility.yul\":11745:11797   */\n      mstore\n        /* \"#utility.yul\":11628:11804   */\n      pop\n      jump\t// out\n        /* \"#utility.yul\":11810:12176   */\n    tag_478:\n        /* \"#utility.yul\":11952:11955   */\n      0x00\n        /* \"#utility.yul\":11973:12040   */\n      tag_641\n        /* \"#utility.yul\":12037:12039   */\n      0x1a\n        /* \"#utility.yul\":12032:12035   */\n      dup4\n        /* \"#utility.yul\":11973:12040   */\n      tag_473\n      jump\t// in\n    tag_641:\n        /* \"#utility.yul\":11966:12040   */\n      swap2\n      pop\n        /* \"#utility.yul\":12049:12142   */\n      tag_642\n        /* \"#utility.yul\":12138:12141   */\n      dup3\n        /* \"#utility.yul\":12049:12142   */\n      tag_477\n      jump\t// in\n    tag_642:\n        /* \"#utility.yul\":12167:12169   */\n      0x20\n        /* \"#utility.yul\":12162:12165   */\n      dup3\n        /* \"#utility.yul\":12158:12170   */\n      add\n        /* \"#utility.yul\":12151:12170   */\n      swap1\n      pop\n        /* \"#utility.yul\":11810:12176   */\n      swap2\n      swap1\n      pop\n      jump\t// out\n        /* \"#utility.yul\":12182:12601   */\n    tag_84:\n        /* \"#utility.yul\":12348:12352   */\n      0x00\n        /* \"#utility.yul\":12386:12388   */\n      0x20\n        /* \"#utility.yul\":12375:12384   */\n      dup3\n        /* \"#utility.yul\":12371:12389   */\n      add\n        /* \"#utility.yul\":12363:12389   */\n      swap1\n      pop\n        /* \"#utility.yul\":12435:12444   */\n      dup2\n        /* \"#utility.yul\":12429:12433   */\n      dup2\n        /* \"#utility.yul\":12425:12445   */\n      sub\n        /* \"#utility.yul\":12421:12422   */\n      0x00\n        /* \"#utility.yul\":12410:12419   */\n      dup4\n        /* \"#utility.yul\":12406:12423   */\n      add\n        /* \"#utility.yul\":12399:12446   */\n      mstore\n        /* \"#utility.yul\":12463:12594   */\n      tag_644\n        /* \"#utility.yul\":12589:12593   */\n      dup2\n        /* \"#utility.yul\":12463:12594   */\n      tag_478\n      jump\t// in\n    tag_644:\n        /* \"#utility.yul\":12455:12594   */\n      swap1\n      pop\n        /* \"#utility.yul\":12182:12601   */\n      swap2\n      swap1\n      pop\n      jump\t// out\n        /* \"#utility.yul\":12607:12786   */\n    tag_479:\n        /* \"#utility.yul\":12747:12778   */\n      0x596f752063616e6e6f742072656769737465722070726f706f73616c73000000\n        /* \"#utility.yul\":12743:12744   */\n      0x00\n        /* \"#utility.yul\":12735:12741   */\n      dup3\n        /* \"#utility.yul\":12731:12745   */\n      add\n        /* \"#utility.yul\":12724:12779   */\n      mstore\n        /* \"#utility.yul\":12607:12786   */\n      pop\n      jump\t// out\n        /* \"#utility.yul\":12792:13158   */\n    tag_480:\n        /* \"#utility.yul\":12934:12937   */\n      0x00\n        /* \"#utility.yul\":12955:13022   */\n      tag_647\n        /* \"#utility.yul\":13019:13021   */\n      0x1d\n        /* \"#utility.yul\":13014:13017   */\n      dup4\n        /* \"#utility.yul\":12955:13022   */\n      tag_473\n      jump\t// in\n    tag_647:\n        /* \"#utility.yul\":12948:13022   */\n      swap2\n      pop\n        /* \"#utility.yul\":13031:13124   */\n      tag_648\n        /* \"#utility.yul\":13120:13123   */\n      dup3\n        /* \"#utility.yul\":13031:13124   */\n      tag_479\n      jump\t// in\n    tag_648:\n        /* \"#utility.yul\":13149:13151   */\n      0x20\n        /* \"#utility.yul\":13144:13147   */\n      dup3\n        /* \"#utility.yul\":13140:13152   */\n      add\n        /* \"#utility.yul\":13133:13152   */\n      swap1\n      pop\n        /* \"#utility.yul\":12792:13158   */\n      swap2\n      swap1\n      pop\n      jump\t// out\n        /* \"#utility.yul\":13164:13583   */\n    tag_93:\n        /* \"#utility.yul\":13330:13334   */\n      0x00\n        /* \"#utility.yul\":13368:13370   */\n      0x20\n        /* \"#utility.yul\":13357:13366   */\n      dup3\n        /* \"#utility.yul\":13353:13371   */\n      add\n        /* \"#utility.yul\":13345:13371   */\n      swap1\n      pop\n        /* \"#utility.yul\":13417:13426   */\n      dup2\n        /* \"#utility.yul\":13411:13415   */\n      dup2\n        /* \"#utility.yul\":13407:13427   */\n      sub\n        /* \"#utility.yul\":13403:13404   */\n      0x00\n        /* \"#utility.yul\":13392:13401   */\n      dup4\n        /* \"#utility.yul\":13388:13405   */\n      add\n        /* \"#utility.yul\":13381:13428   */\n      mstore\n        /* \"#utility.yul\":13445:13576   */\n      tag_650\n        /* \"#utility.yul\":13571:13575   */\n      dup2\n        /* \"#utility.yul\":13445:13576   */\n      tag_480\n      jump\t// in\n    tag_650:\n        /* \"#utility.yul\":13437:13576   */\n      swap1\n      pop\n        /* \"#utility.yul\":13164:13583   */\n      swap2\n      swap1\n      pop\n      jump\t// out\n        /* \"#utility.yul\":13589:13769   */\n    tag_481:\n        /* \"#utility.yul\":13637:13714   */\n      0x4e487b7100000000000000000000000000000000000000000000000000000000\n        /* \"#utility.yul\":13634:13635   */\n      0x00\n        /* \"#utility.yul\":13627:13715   */\n      mstore\n        /* \"#utility.yul\":13734:13738   */\n      0x41\n        /* \"#utility.yul\":13731:13732   */\n      0x04\n        /* \"#utility.yul\":13724:13739   */\n      mstore\n        /* \"#utility.yul\":13758:13762   */\n      0x24\n        /* \"#utility.yul\":13755:13756   */\n      0x00\n        /* \"#utility.yul\":13748:13763   */\n      revert\n        /* \"#utility.yul\":13775:13916   */\n    tag_482:\n        /* \"#utility.yul\":13824:13828   */\n      0x00\n        /* \"#utility.yul\":13847:13850   */\n      dup2\n        /* \"#utility.yul\":13839:13850   */\n      swap1\n      pop\n        /* \"#utility.yul\":13870:13873   */\n      dup2\n        /* \"#utility.yul\":13867:13868   */\n      0x00\n        /* \"#utility.yul\":13860:13874   */\n      mstore\n        /* \"#utility.yul\":13904:13908   */\n      0x20\n        /* \"#utility.yul\":13901:13902   */\n      0x00\n        /* \"#utility.yul\":13891:13909   */\n      keccak256\n        /* \"#utility.yul\":13883:13909   */\n      swap1\n      pop\n        /* \"#utility.yul\":13775:13916   */\n      swap2\n      swap1\n      pop\n      jump\t// out\n        /* \"#utility.yul\":13922:14015   */\n    tag_483:\n        /* \"#utility.yul\":13959:13965   */\n      0x00\n        /* \"#utility.yul\":14006:14008   */\n      0x20\n        /* \"#utility.yul\":14001:14003   */\n      0x1f\n        /* \"#utility.yul\":13994:13999   */\n      dup4\n        /* \"#utility.yul\":13990:14004   */\n      add\n        /* \"#utility.yul\":13986:14009   */\n      div\n        /* \"#utility.yul\":13976:14009   */\n      swap1\n      pop\n        /* \"#utility.yul\":13922:14015   */\n      swap2\n      swap1\n      pop\n      jump\t// out\n        /* \"#utility.yul\":14021:14128   */\n    tag_484:\n        /* \"#utility.yul\":14065:14073   */\n      0x00\n        /* \"#utility.yul\":14115:14120   */\n      dup3\n        /* \"#utility.yul\":14109:14113   */\n      dup3\n        /* \"#utility.yul\":14105:14121   */\n      shl\n        /* \"#utility.yul\":14084:14121   */\n      swap1\n      pop\n        /* \"#utility.yul\":14021:14128   */\n      swap3\n      swap2\n      pop\n      pop\n      jump\t// out\n        /* \"#utility.yul\":14134:14527   */\n    tag_485:\n        /* \"#utility.yul\":14203:14209   */\n      0x00\n        /* \"#utility.yul\":14253:14254   */\n      0x08\n        /* \"#utility.yul\":14241:14251   */\n      dup4\n        /* \"#utility.yul\":14237:14255   */\n      mul\n        /* \"#utility.yul\":14276:14373   */\n      tag_656\n        /* \"#utility.yul\":14306:14372   */\n      0xffffffffffffffffffffffffffffffffffffffffffffffffffffffffffffffff\n        /* \"#utility.yul\":14295:14304   */\n      dup3\n        /* \"#utility.yul\":14276:14373   */\n      tag_484\n      jump\t// in\n    tag_656:\n        /* \"#utility.yul\":14394:14433   */\n      tag_657\n        /* \"#utility.yul\":14424:14432   */\n      dup7\n        /* \"#utility.yul\":14413:14422   */\n      dup4\n        /* \"#utility.yul\":14394:14433   */\n      tag_484\n      jump\t// in\n    tag_657:\n        /* \"#utility.yul\":14382:14433   */\n      swap6\n      pop\n        /* \"#utility.yul\":14466:14470   */\n      dup1\n        /* \"#utility.yul\":14462:14471   */\n      not\n        /* \"#utility.yul\":14455:14460   */\n      dup5\n        /* \"#utility.yul\":14451:14472   */\n      and\n        /* \"#utility.yul\":14442:14472   */\n      swap4\n      pop\n        /* \"#utility.yul\":14515:14519   */\n      dup1\n        /* \"#utility.yul\":14505:14513   */\n      dup7\n        /* \"#utility.yul\":14501:14520   */\n      and\n        /* \"#utility.yul\":14494:14499   */\n      dup5\n        /* \"#utility.yul\":14491:14521   */\n      or\n        /* \"#utility.yul\":14481:14521   */\n      swap3\n      pop\n        /* \"#utility.yul\":14210:14527   */\n      pop\n      pop\n        /* \"#utility.yul\":14134:14527   */\n      swap4\n      swap3\n      pop\n      pop\n      pop\n      jump\t// out\n        /* \"#utility.yul\":14533:14593   */\n    tag_486:\n        /* \"#utility.yul\":14561:14564   */\n      0x00\n        /* \"#utility.yul\":14582:14587   */\n      dup2\n        /* \"#utility.yul\":14575:14587   */\n      swap1\n      pop\n        /* \"#utility.yul\":14533:14593   */\n      swap2\n      swap1\n      pop\n      jump\t// out\n        /* \"#utility.yul\":14599:14741   */\n    tag_487:\n        /* \"#utility.yul\":14649:14658   */\n      0x00\n        /* \"#utility.yul\":14682:14735   */\n      tag_660\n        /* \"#utility.yul\":14700:14734   */\n      tag_661\n        /* \"#utility.yul\":14709:14733   */\n      tag_662\n        /* \"#utility.yul\":14727:14732   */\n      dup5\n        /* \"#utility.yul\":14709:14733   */\n      tag_442\n      jump\t// in\n    tag_662:\n        /* \"#utility.yul\":14700:14734   */\n      tag_486\n      jump\t// in\n    tag_661:\n        /* \"#utility.yul\":14682:14735   */\n      tag_442\n      jump\t// in\n    tag_660:\n        /* \"#utility.yul\":14669:14735   */\n      swap1\n      pop\n        /* \"#utility.yul\":14599:14741   */\n      swap2\n      swap1\n      pop\n      jump\t// out\n        /* \"#utility.yul\":14747:14822   */\n    tag_488:\n        /* \"#utility.yul\":14790:14793   */\n      0x00\n        /* \"#utility.yul\":14811:14816   */\n      dup2\n        /* \"#utility.yul\":14804:14816   */\n      swap1\n      pop\n        /* \"#utility.yul\":14747:14822   */\n      swap2\n      swap1\n      pop\n      jump\t// out\n        /* \"#utility.yul\":14828:15097   */\n    tag_489:\n        /* \"#utility.yul\":14938:14977   */\n      tag_665\n        /* \"#utility.yul\":14969:14976   */\n      dup4\n        /* \"#utility.yul\":14938:14977   */\n      tag_487\n      jump\t// in\n    tag_665:\n        /* \"#utility.yul\":14999:15090   */\n      tag_666\n        /* \"#utility.yul\":15048:15089   */\n      tag_667\n        /* \"#utility.yul\":15072:15088   */\n      dup3\n        /* \"#utility.yul\":15048:15089   */\n      tag_488\n      jump\t// in\n    tag_667:\n        /* \"#utility.yul\":15040:15046   */\n      dup5\n        /* \"#utility.yul\":15033:15037   */\n      dup5\n        /* \"#utility.yul\":15027:15038   */\n      sload\n        /* \"#utility.yul\":14999:15090   */\n      tag_485\n      jump\t// in\n    tag_666:\n        /* \"#utility.yul\":14993:14997   */\n      dup3\n        /* \"#utility.yul\":14986:15091   */\n      sstore\n        /* \"#utility.yul\":14904:15097   */\n      pop\n        /* \"#utility.yul\":14828:15097   */\n      pop\n      pop\n      pop\n      jump\t// out\n        /* \"#utility.yul\":15103:15176   */\n    tag_490:\n        /* \"#utility.yul\":15148:15151   */\n      0x00\n        /* \"#utility.yul\":15103:15176   */\n      swap1\n      jump\t// out\n        /* \"#utility.yul\":15182:15371   */\n    tag_491:\n        /* \"#utility.yul\":15259:15291   */\n      tag_670\n      tag_490\n      jump\t// in\n    tag_670:\n        /* \"#utility.yul\":15300:15365   */\n      tag_671\n        /* \"#utility.yul\":15358:15364   */\n      dup2\n        /* \"#utility.yul\":15350:15356   */\n      dup5\n        /* \"#utility.yul\":15344:15348   */\n      dup5\n        /* \"#utility.yul\":15300:15365   */\n      tag_489\n      jump\t// in\n    tag_671:\n        /* \"#utility.yul\":15235:15371   */\n      pop\n        /* \"#utility.yul\":15182:15371   */\n      pop\n      pop\n      jump\t// out\n        /* \"#utility.yul\":15377:15563   */\n    tag_492:\n        /* \"#utility.yul\":15437:15557   */\n    tag_673:\n        /* \"#utility.yul\":15454:15457   */\n      dup2\n        /* \"#utility.yul\":15447:15452   */\n      dup2\n        /* \"#utility.yul\":15444:15458   */\n      lt\n        /* \"#utility.yul\":15437:15557   */\n      iszero\n      tag_675\n      jumpi\n        /* \"#utility.yul\":15508:15547   */\n      tag_676\n        /* \"#utility.yul\":15545:15546   */\n      0x00\n        /* \"#utility.yul\":15538:15543   */\n      dup3\n        /* \"#utility.yul\":15508:15547   */\n      tag_491\n      jump\t// in\n    tag_676:\n        /* \"#utility.yul\":15481:15482   */\n      0x01\n        /* \"#utility.yul\":15474:15479   */\n      dup2\n        /* \"#utility.yul\":15470:15483   */\n      add\n        /* \"#utility.yul\":15461:15483   */\n      swap1\n      pop\n        /* \"#utility.yul\":15437:15557   */\n      jump(tag_673)\n    tag_675:\n        /* \"#utility.yul\":15377:15563   */\n      pop\n      pop\n      jump\t// out\n        /* \"#utility.yul\":15569:16112   */\n    tag_493:\n        /* \"#utility.yul\":15670:15672   */\n      0x1f\n        /* \"#utility.yul\":15665:15668   */\n      dup3\n        /* \"#utility.yul\":15662:15673   */\n      gt\n        /* \"#utility.yul\":15659:16105   */\n      iszero\n      tag_678\n      jumpi\n        /* \"#utility.yul\":15704:15742   */\n      tag_679\n        /* \"#utility.yul\":15736:15741   */\n      dup2\n        /* \"#utility.yul\":15704:15742   */\n      tag_482\n      jump\t// in\n    tag_679:\n        /* \"#utility.yul\":15788:15817   */\n      tag_680\n        /* \"#utility.yul\":15806:15816   */\n      dup5\n        /* \"#utility.yul\":15788:15817   */\n      tag_483\n      jump\t// in\n    tag_680:\n        /* \"#utility.yul\":15778:15786   */\n      dup2\n        /* \"#utility.yul\":15774:15818   */\n      add\n        /* \"#utility.yul\":15971:15973   */\n      0x20\n        /* \"#utility.yul\":15959:15969   */\n      dup6\n        /* \"#utility.yul\":15956:15974   */\n      lt\n        /* \"#utility.yul\":15953:16002   */\n      iszero\n      tag_681\n      jumpi\n        /* \"#utility.yul\":15992:16000   */\n      dup2\n        /* \"#utility.yul\":15977:16000   */\n      swap1\n      pop\n        /* \"#utility.yul\":15953:16002   */\n    tag_681:\n        /* \"#utility.yul\":16015:16095   */\n      tag_682\n        /* \"#utility.yul\":16071:16093   */\n      tag_683\n        /* \"#utility.yul\":16089:16092   */\n      dup6\n        /* \"#utility.yul\":16071:16093   */\n      tag_483\n      jump\t// in\n    tag_683:\n        /* \"#utility.yul\":16061:16069   */\n      dup4\n        /* \"#utility.yul\":16057:16094   */\n      add\n        /* \"#utility.yul\":16044:16055   */\n      dup3\n        /* \"#utility.yul\":16015:16095   */\n      tag_492\n      jump\t// in\n    tag_682:\n        /* \"#utility.yul\":15674:16105   */\n      pop\n      pop\n        /* \"#utility.yul\":15659:16105   */\n    tag_678:\n        /* \"#utility.yul\":15569:16112   */\n      pop\n      pop\n      pop\n      jump\t// out\n        /* \"#utility.yul\":16118:16235   */\n    tag_494:\n        /* \"#utility.yul\":16172:16180   */\n      0x00\n        /* \"#utility.yul\":16222:16227   */\n      dup3\n        /* \"#utility.yul\":16216:16220   */\n      dup3\n        /* \"#utility.yul\":16212:16228   */\n      shr\n        /* \"#utility.yul\":16191:16228   */\n      swap1\n      pop\n        /* \"#utility.yul\":16118:16235   */\n      swap3\n      swap2\n      pop\n      pop\n      jump\t// out\n        /* \"#utility.yul\":16241:16410   */\n    tag_495:\n        /* \"#utility.yul\":16285:16291   */\n      0x00\n        /* \"#utility.yul\":16318:16369   */\n      tag_686\n        /* \"#utility.yul\":16366:16367   */\n      0x00\n        /* \"#utility.yul\":16362:16368   */\n      not\n        /* \"#utility.yul\":16354:16359   */\n      dup5\n        /* \"#utility.yul\":16351:16352   */\n      0x08\n        /* \"#utility.yul\":16347:16360   */\n      mul\n        /* \"#utility.yul\":16318:16369   */\n      tag_494\n      jump\t// in\n    tag_686:\n        /* \"#utility.yul\":16314:16370   */\n      not\n        /* \"#utility.yul\":16399:16403   */\n      dup1\n        /* \"#utility.yul\":16393:16397   */\n      dup4\n        /* \"#utility.yul\":16389:16404   */\n      and\n        /* \"#utility.yul\":16379:16404   */\n      swap2\n      pop\n        /* \"#utility.yul\":16292:16410   */\n      pop\n        /* \"#utility.yul\":16241:16410   */\n      swap3\n      swap2\n      pop\n      pop\n      jump\t// out\n        /* \"#utility.yul\":16415:16710   */\n    tag_496:\n        /* \"#utility.yul\":16491:16495   */\n      0x00\n        /* \"#utility.yul\":16637:16666   */\n      tag_688\n        /* \"#utility.yul\":16662:16665   */\n      dup4\n        /* \"#utility.yul\":16656:16660   */\n      dup4\n        /* \"#utility.yul\":16637:16666   */\n      tag_495\n      jump\t// in\n    tag_688:\n        /* \"#utility.yul\":16629:16666   */\n      swap2\n      pop\n        /* \"#utility.yul\":16699:16702   */\n      dup3\n        /* \"#utility.yul\":16696:16697   */\n      0x02\n        /* \"#utility.yul\":16692:16703   */\n      mul\n        /* \"#utility.yul\":16686:16690   */\n      dup3\n        /* \"#utility.yul\":16683:16704   */\n      or\n        /* \"#utility.yul\":16675:16704   */\n      swap1\n      pop\n        /* \"#utility.yul\":16415:16710   */\n      swap3\n      swap2\n      pop\n      pop\n      jump\t// out\n        /* \"#utility.yul\":16715:18110   */\n    tag_97:\n        /* \"#utility.yul\":16832:16869   */\n      tag_690\n        /* \"#utility.yul\":16865:16868   */\n      dup3\n        /* \"#utility.yul\":16832:16869   */\n      tag_444\n      jump\t// in\n    tag_690:\n        /* \"#utility.yul\":16934:16952   */\n      0xffffffffffffffff\n        /* \"#utility.yul\":16926:16932   */\n      dup2\n        /* \"#utility.yul\":16923:16953   */\n      gt\n        /* \"#utility.yul\":16920:16976   */\n      iszero\n      tag_691\n      jumpi\n        /* \"#utility.yul\":16956:16974   */\n      tag_692\n      tag_481\n      jump\t// in\n    tag_692:\n        /* \"#utility.yul\":16920:16976   */\n    tag_691:\n        /* \"#utility.yul\":17000:17038   */\n      tag_693\n        /* \"#utility.yul\":17032:17036   */\n      dup3\n        /* \"#utility.yul\":17026:17037   */\n      sload\n        /* \"#utility.yul\":17000:17038   */\n      tag_76\n      jump\t// in\n    tag_693:\n        /* \"#utility.yul\":17085:17152   */\n      tag_694\n        /* \"#utility.yul\":17145:17151   */\n      dup3\n        /* \"#utility.yul\":17137:17143   */\n      dup3\n        /* \"#utility.yul\":17131:17135   */\n      dup6\n        /* \"#utility.yul\":17085:17152   */\n      tag_493\n      jump\t// in\n    tag_694:\n        /* \"#utility.yul\":17179:17180   */\n      0x00\n        /* \"#utility.yul\":17203:17207   */\n      0x20\n        /* \"#utility.yul\":17190:17207   */\n      swap1\n      pop\n        /* \"#utility.yul\":17235:17237   */\n      0x1f\n        /* \"#utility.yul\":17227:17233   */\n      dup4\n        /* \"#utility.yul\":17224:17238   */\n      gt\n        /* \"#utility.yul\":17252:17253   */\n      0x01\n        /* \"#utility.yul\":17247:17865   */\n      dup2\n      eq\n      tag_696\n      jumpi\n        /* \"#utility.yul\":17909:17910   */\n      0x00\n        /* \"#utility.yul\":17926:17932   */\n      dup5\n        /* \"#utility.yul\":17923:18000   */\n      iszero\n      tag_697\n      jumpi\n        /* \"#utility.yul\":17975:17984   */\n      dup3\n        /* \"#utility.yul\":17970:17973   */\n      dup8\n        /* \"#utility.yul\":17966:17985   */\n      add\n        /* \"#utility.yul\":17960:17986   */\n      mload\n        /* \"#utility.yul\":17951:17986   */\n      swap1\n      pop\n        /* \"#utility.yul\":17923:18000   */\n    tag_697:\n        /* \"#utility.yul\":18026:18093   */\n      tag_698\n        /* \"#utility.yul\":18086:18092   */\n      dup6\n        /* \"#utility.yul\":18079:18084   */\n      dup3\n        /* \"#utility.yul\":18026:18093   */\n      tag_496\n      jump\t// in\n    tag_698:\n        /* \"#utility.yul\":18020:18024   */\n      dup7\n        /* \"#utility.yul\":18013:18094   */\n      sstore\n        /* \"#utility.yul\":17882:18104   */\n      pop\n        /* \"#utility.yul\":17217:18104   */\n      jump(tag_695)\n        /* \"#utility.yul\":17247:17865   */\n    tag_696:\n        /* \"#utility.yul\":17299:17303   */\n      0x1f\n        /* \"#utility.yul\":17295:17304   */\n      not\n        /* \"#utility.yul\":17287:17293   */\n      dup5\n        /* \"#utility.yul\":17283:17305   */\n      and\n        /* \"#utility.yul\":17333:17370   */\n      tag_699\n        /* \"#utility.yul\":17365:17369   */\n      dup7\n        /* \"#utility.yul\":17333:17370   */\n      tag_482\n      jump\t// in\n    tag_699:\n        /* \"#utility.yul\":17392:17393   */\n      0x00\n        /* \"#utility.yul\":17406:17614   */\n    tag_700:\n        /* \"#utility.yul\":17420:17427   */\n      dup3\n        /* \"#utility.yul\":17417:17418   */\n      dup2\n        /* \"#utility.yul\":17414:17428   */\n      lt\n        /* \"#utility.yul\":17406:17614   */\n      iszero\n      tag_702\n      jumpi\n        /* \"#utility.yul\":17499:17508   */\n      dup5\n        /* \"#utility.yul\":17494:17497   */\n      dup10\n        /* \"#utility.yul\":17490:17509   */\n      add\n        /* \"#utility.yul\":17484:17510   */\n      mload\n        /* \"#utility.yul\":17476:17482   */\n      dup3\n        /* \"#utility.yul\":17469:17511   */\n      sstore\n        /* \"#utility.yul\":17550:17551   */\n      0x01\n        /* \"#utility.yul\":17542:17548   */\n      dup3\n        /* \"#utility.yul\":17538:17552   */\n      add\n        /* \"#utility.yul\":17528:17552   */\n      swap2\n      pop\n        /* \"#utility.yul\":17597:17599   */\n      0x20\n        /* \"#utility.yul\":17586:17595   */\n      dup6\n        /* \"#utility.yul\":17582:17600   */\n      add\n        /* \"#utility.yul\":17569:17600   */\n      swap5\n      pop\n        /* \"#utility.yul\":17443:17447   */\n      0x20\n        /* \"#utility.yul\":17440:17441   */\n      dup2\n        /* \"#utility.yul\":17436:17448   */\n      add\n        /* \"#utility.yul\":17431:17448   */\n      swap1\n      pop\n        /* \"#utility.yul\":17406:17614   */\n      jump(tag_700)\n    tag_702:\n        /* \"#utility.yul\":17642:17648   */\n      dup7\n        /* \"#utility.yul\":17633:17640   */\n      dup4\n        /* \"#utility.yul\":17630:17649   */\n      lt\n        /* \"#utility.yul\":17627:17806   */\n      iszero\n      tag_703\n      jumpi\n        /* \"#utility.yul\":17700:17709   */\n      dup5\n        /* \"#utility.yul\":17695:17698   */\n      dup10\n        /* \"#utility.yul\":17691:17710   */\n      add\n        /* \"#utility.yul\":17685:17711   */\n      mload\n        /* \"#utility.yul\":17743:17791   */\n      tag_704\n        /* \"#utility.yul\":17785:17789   */\n      0x1f\n        /* \"#utility.yul\":17777:17783   */\n      dup10\n        /* \"#utility.yul\":17773:17790   */\n      and\n        /* \"#utility.yul\":17762:17771   */\n      dup3\n        /* \"#utility.yul\":17743:17791   */\n      tag_495\n      jump\t// in\n    tag_704:\n        /* \"#utility.yul\":17735:17741   */\n      dup4\n        /* \"#utility.yul\":17728:17792   */\n      sstore\n        /* \"#utility.yul\":17650:17806   */\n      pop\n        /* \"#utility.yul\":17627:17806   */\n    tag_703:\n        /* \"#utility.yul\":17852:17853   */\n      0x01\n        /* \"#utility.yul\":17848:17849   */\n      0x02\n        /* \"#utility.yul\":17840:17846   */\n      dup9\n        /* \"#utility.yul\":17836:17850   */\n      mul\n        /* \"#utility.yul\":17832:17854   */\n      add\n        /* \"#utility.yul\":17826:17830   */\n      dup9\n        /* \"#utility.yul\":17819:17855   */\n      sstore\n        /* \"#utility.yul\":17254:17865   */\n      pop\n      pop\n      pop\n        /* \"#utility.yul\":17217:18104   */\n    tag_695:\n      pop\n        /* \"#utility.yul\":16807:18110   */\n      pop\n      pop\n      pop\n        /* \"#utility.yul\":16715:18110   */\n      pop\n      pop\n      jump\t// out\n        /* \"#utility.yul\":18116:18296   */\n    tag_497:\n        /* \"#utility.yul\":18164:18241   */\n      0x4e487b7100000000000000000000000000000000000000000000000000000000\n        /* \"#utility.yul\":18161:18162   */\n      0x00\n        /* \"#utility.yul\":18154:18242   */\n      mstore\n        /* \"#utility.yul\":18261:18265   */\n      0x11\n        /* \"#utility.yul\":18258:18259   */\n      0x04\n        /* \"#utility.yul\":18251:18266   */\n      mstore\n        /* \"#utility.yul\":18285:18289   */\n      0x24\n        /* \"#utility.yul\":18282:18283   */\n      0x00\n        /* \"#utility.yul\":18275:18290   */\n      revert\n        /* \"#utility.yul\":18302:18535   */\n    tag_99:\n        /* \"#utility.yul\":18341:18344   */\n      0x00\n        /* \"#utility.yul\":18364:18388   */\n      tag_707\n        /* \"#utility.yul\":18382:18387   */\n      dup3\n        /* \"#utility.yul\":18364:18388   */\n      tag_442\n      jump\t// in\n    tag_707:\n        /* \"#utility.yul\":18355:18388   */\n      swap2\n      pop\n        /* \"#utility.yul\":18410:18476   */\n      0xffffffffffffffffffffffffffffffffffffffffffffffffffffffffffffffff\n        /* \"#utility.yul\":18403:18408   */\n      dup3\n        /* \"#utility.yul\":18400:18477   */\n      sub\n        /* \"#utility.yul\":18397:18500   */\n      tag_708\n      jumpi\n        /* \"#utility.yul\":18480:18498   */\n      tag_709\n      tag_497\n      jump\t// in\n    tag_709:\n        /* \"#utility.yul\":18397:18500   */\n    tag_708:\n        /* \"#utility.yul\":18527:18528   */\n      0x01\n        /* \"#utility.yul\":18520:18525   */\n      dup3\n        /* \"#utility.yul\":18516:18529   */\n      add\n        /* \"#utility.yul\":18509:18529   */\n      swap1\n      pop\n        /* \"#utility.yul\":18302:18535   */\n      swap2\n      swap1\n      pop\n      jump\t// out\n        /* \"#utility.yul\":18541:18659   */\n    tag_498:\n        /* \"#utility.yul\":18628:18652   */\n      tag_711\n        /* \"#utility.yul\":18646:18651   */\n      dup2\n        /* \"#utility.yul\":18628:18652   */\n      tag_442\n      jump\t// in\n    tag_711:\n        /* \"#utility.yul\":18623:18626   */\n      dup3\n        /* \"#utility.yul\":18616:18653   */\n      mstore\n        /* \"#utility.yul\":18541:18659   */\n      pop\n      pop\n      jump\t// out\n        /* \"#utility.yul\":18665:18887   */\n    tag_101:\n        /* \"#utility.yul\":18758:18762   */\n      0x00\n        /* \"#utility.yul\":18796:18798   */\n      0x20\n        /* \"#utility.yul\":18785:18794   */\n      dup3\n        /* \"#utility.yul\":18781:18799   */\n      add\n        /* \"#utility.yul\":18773:18799   */\n      swap1\n      pop\n        /* \"#utility.yul\":18809:18880   */\n      tag_713\n        /* \"#utility.yul\":18877:18878   */\n      0x00\n        /* \"#utility.yul\":18866:18875   */\n      dup4\n        /* \"#utility.yul\":18862:18879   */\n      add\n        /* \"#utility.yul\":18853:18859   */\n      dup5\n        /* \"#utility.yul\":18809:18880   */\n      tag_498\n      jump\t// in\n    tag_713:\n        /* \"#utility.yul\":18665:18887   */\n      swap3\n      swap2\n      pop\n      pop\n      jump\t// out\n        /* \"#utility.yul\":18893:19139   */\n    tag_499:\n        /* \"#utility.yul\":19033:19067   */\n      0x566f746573206e65656420746f2062652074616c6c69656420696e206f726465\n        /* \"#utility.yul\":19029:19030   */\n      0x00\n        /* \"#utility.yul\":19021:19027   */\n      dup3\n        /* \"#utility.yul\":19017:19031   */\n      add\n        /* \"#utility.yul\":19010:19068   */\n      mstore\n        /* \"#utility.yul\":19102:19131   */\n      0x7220746f20706572666f726d2074686973206f7065726174696f6e0000000000\n        /* \"#utility.yul\":19097:19099   */\n      0x20\n        /* \"#utility.yul\":19089:19095   */\n      dup3\n        /* \"#utility.yul\":19085:19100   */\n      add\n        /* \"#utility.yul\":19078:19132   */\n      mstore\n        /* \"#utility.yul\":18893:19139   */\n      pop\n      jump\t// out\n        /* \"#utility.yul\":19145:19511   */\n    tag_500:\n        /* \"#utility.yul\":19287:19290   */\n      0x00\n        /* \"#utility.yul\":19308:19375   */\n      tag_716\n        /* \"#utility.yul\":19372:19374   */\n      0x3b\n        /* \"#utility.yul\":19367:19370   */\n      dup4\n        /* \"#utility.yul\":19308:19375   */\n      tag_473\n      jump\t// in\n    tag_716:\n        /* \"#utility.yul\":19301:19375   */\n      swap2\n      pop\n        /* \"#utility.yul\":19384:19477   */\n      tag_717\n        /* \"#utility.yul\":19473:19476   */\n      dup3\n        /* \"#utility.yul\":19384:19477   */\n      tag_499\n      jump\t// in\n    tag_717:\n        /* \"#utility.yul\":19502:19504   */\n      0x40\n        /* \"#utility.yul\":19497:19500   */\n      dup3\n        /* \"#utility.yul\":19493:19505   */\n      add\n        /* \"#utility.yul\":19486:19505   */\n      swap1\n      pop\n        /* \"#utility.yul\":19145:19511   */\n      swap2\n      swap1\n      pop\n      jump\t// out\n        /* \"#utility.yul\":19517:19936   */\n    tag_112:\n        /* \"#utility.yul\":19683:19687   */\n      0x00\n        /* \"#utility.yul\":19721:19723   */\n      0x20\n        /* \"#utility.yul\":19710:19719   */\n      dup3\n        /* \"#utility.yul\":19706:19724   */\n      add\n        /* \"#utility.yul\":19698:19724   */\n      swap1\n      pop\n        /* \"#utility.yul\":19770:19779   */\n      dup2\n        /* \"#utility.yul\":19764:19768   */\n      dup2\n        /* \"#utility.yul\":19760:19780   */\n      sub\n        /* \"#utility.yul\":19756:19757   */\n      0x00\n        /* \"#utility.yul\":19745:19754   */\n      dup4\n        /* \"#utility.yul\":19741:19758   */\n      add\n        /* \"#utility.yul\":19734:19781   */\n      mstore\n        /* \"#utility.yul\":19798:19929   */\n      tag_719\n        /* \"#utility.yul\":19924:19928   */\n      dup2\n        /* \"#utility.yul\":19798:19929   */\n      tag_500\n      jump\t// in\n    tag_719:\n        /* \"#utility.yul\":19790:19929   */\n      swap1\n      pop\n        /* \"#utility.yul\":19517:19936   */\n      swap2\n      swap1\n      pop\n      jump\t// out\n        /* \"#utility.yul\":19942:20233   */\n    tag_501:\n        /* \"#utility.yul\":20082:20116   */\n      0x546865726520617265206e6f20657175616c69747920696e20726573756c7473\n        /* \"#utility.yul\":20078:20079   */\n      0x00\n        /* \"#utility.yul\":20070:20076   */\n      dup3\n        /* \"#utility.yul\":20066:20080   */\n      add\n        /* \"#utility.yul\":20059:20117   */\n      mstore\n        /* \"#utility.yul\":20151:20185   */\n      0x20736f20776520646f6e2774206e65656420746f20627265616b207468652074\n        /* \"#utility.yul\":20146:20148   */\n      0x20\n        /* \"#utility.yul\":20138:20144   */\n      dup3\n        /* \"#utility.yul\":20134:20149   */\n      add\n        /* \"#utility.yul\":20127:20186   */\n      mstore\n        /* \"#utility.yul\":20220:20225   */\n      0x6965210000000000000000000000000000000000000000000000000000000000\n        /* \"#utility.yul\":20215:20217   */\n      0x40\n        /* \"#utility.yul\":20207:20213   */\n      dup3\n        /* \"#utility.yul\":20203:20218   */\n      add\n        /* \"#utility.yul\":20196:20226   */\n      mstore\n        /* \"#utility.yul\":19942:20233   */\n      pop\n      jump\t// out\n        /* \"#utility.yul\":20239:20605   */\n    tag_502:\n        /* \"#utility.yul\":20381:20384   */\n      0x00\n        /* \"#utility.yul\":20402:20469   */\n      tag_722\n        /* \"#utility.yul\":20466:20468   */\n      0x43\n        /* \"#utility.yul\":20461:20464   */\n      dup4\n        /* \"#utility.yul\":20402:20469   */\n      tag_473\n      jump\t// in\n    tag_722:\n        /* \"#utility.yul\":20395:20469   */\n      swap2\n      pop\n        /* \"#utility.yul\":20478:20571   */\n      tag_723\n        /* \"#utility.yul\":20567:20570   */\n      dup3\n        /* \"#utility.yul\":20478:20571   */\n      tag_501\n      jump\t// in\n    tag_723:\n        /* \"#utility.yul\":20596:20598   */\n      0x60\n        /* \"#utility.yul\":20591:20594   */\n      dup3\n        /* \"#utility.yul\":20587:20599   */\n      add\n        /* \"#utility.yul\":20580:20599   */\n      swap1\n      pop\n        /* \"#utility.yul\":20239:20605   */\n      swap2\n      swap1\n      pop\n      jump\t// out\n        /* \"#utility.yul\":20611:21030   */\n    tag_116:\n        /* \"#utility.yul\":20777:20781   */\n      0x00\n        /* \"#utility.yul\":20815:20817   */\n      0x20\n        /* \"#utility.yul\":20804:20813   */\n      dup3\n        /* \"#utility.yul\":20800:20818   */\n      add\n        /* \"#utility.yul\":20792:20818   */\n      swap1\n      pop\n        /* \"#utility.yul\":20864:20873   */\n      dup2\n        /* \"#utility.yul\":20858:20862   */\n      dup2\n        /* \"#utility.yul\":20854:20874   */\n      sub\n        /* \"#utility.yul\":20850:20851   */\n      0x00\n        /* \"#utility.yul\":20839:20848   */\n      dup4\n        /* \"#utility.yul\":20835:20852   */\n      add\n        /* \"#utility.yul\":20828:20875   */\n      mstore\n        /* \"#utility.yul\":20892:21023   */\n      tag_725\n        /* \"#utility.yul\":21018:21022   */\n      dup2\n        /* \"#utility.yul\":20892:21023   */\n      tag_502\n      jump\t// in\n    tag_725:\n        /* \"#utility.yul\":20884:21023   */\n      swap1\n      pop\n        /* \"#utility.yul\":20611:21030   */\n      swap2\n      swap1\n      pop\n      jump\t// out\n        /* \"#utility.yul\":21036:21216   */\n    tag_126:\n        /* \"#utility.yul\":21084:21161   */\n      0x4e487b7100000000000000000000000000000000000000000000000000000000\n        /* \"#utility.yul\":21081:21082   */\n      0x00\n        /* \"#utility.yul\":21074:21162   */\n      mstore\n        /* \"#utility.yul\":21181:21185   */\n      0x32\n        /* \"#utility.yul\":21178:21179   */\n      0x04\n        /* \"#utility.yul\":21171:21186   */\n      mstore\n        /* \"#utility.yul\":21205:21209   */\n      0x24\n        /* \"#utility.yul\":21202:21203   */\n      0x00\n        /* \"#utility.yul\":21195:21210   */\n      revert\n        /* \"#utility.yul\":21222:21397   */\n    tag_503:\n        /* \"#utility.yul\":21362:21389   */\n      0x596f752063616e6e6f7420766f74652070726f706f73616c7300000000000000\n        /* \"#utility.yul\":21358:21359   */\n      0x00\n        /* \"#utility.yul\":21350:21356   */\n      dup3\n        /* \"#utility.yul\":21346:21360   */\n      add\n        /* \"#utility.yul\":21339:21390   */\n      mstore\n        /* \"#utility.yul\":21222:21397   */\n      pop\n      jump\t// out\n        /* \"#utility.yul\":21403:21769   */\n    tag_504:\n        /* \"#utility.yul\":21545:21548   */\n      0x00\n        /* \"#utility.yul\":21566:21633   */\n      tag_729\n        /* \"#utility.yul\":21630:21632   */\n      0x19\n        /* \"#utility.yul\":21625:21628   */\n      dup4\n        /* \"#utility.yul\":21566:21633   */\n      tag_473\n      jump\t// in\n    tag_729:\n        /* \"#utility.yul\":21559:21633   */\n      swap2\n      pop\n        /* \"#utility.yul\":21642:21735   */\n      tag_730\n        /* \"#utility.yul\":21731:21734   */\n      dup3\n        /* \"#utility.yul\":21642:21735   */\n      tag_503\n      jump\t// in\n    tag_730:\n        /* \"#utility.yul\":21760:21762   */\n      0x20\n        /* \"#utility.yul\":21755:21758   */\n      dup3\n        /* \"#utility.yul\":21751:21763   */\n      add\n        /* \"#utility.yul\":21744:21763   */\n      swap1\n      pop\n        /* \"#utility.yul\":21403:21769   */\n      swap2\n      swap1\n      pop\n      jump\t// out\n        /* \"#utility.yul\":21775:22194   */\n    tag_178:\n        /* \"#utility.yul\":21941:21945   */\n      0x00\n        /* \"#utility.yul\":21979:21981   */\n      0x20\n        /* \"#utility.yul\":21968:21977   */\n      dup3\n        /* \"#utility.yul\":21964:21982   */\n      add\n        /* \"#utility.yul\":21956:21982   */\n      swap1\n      pop\n        /* \"#utility.yul\":22028:22037   */\n      dup2\n        /* \"#utility.yul\":22022:22026   */\n      dup2\n        /* \"#utility.yul\":22018:22038   */\n      sub\n        /* \"#utility.yul\":22014:22015   */\n      0x00\n        /* \"#utility.yul\":22003:22012   */\n      dup4\n        /* \"#utility.yul\":21999:22016   */\n      add\n        /* \"#utility.yul\":21992:22039   */\n      mstore\n        /* \"#utility.yul\":22056:22187   */\n      tag_732\n        /* \"#utility.yul\":22182:22186   */\n      dup2\n        /* \"#utility.yul\":22056:22187   */\n      tag_504\n      jump\t// in\n    tag_732:\n        /* \"#utility.yul\":22048:22187   */\n      swap1\n      pop\n        /* \"#utility.yul\":21775:22194   */\n      swap2\n      swap1\n      pop\n      jump\t// out\n        /* \"#utility.yul\":22200:22382   */\n    tag_505:\n        /* \"#utility.yul\":22340:22374   */\n      0x596f7520616c7265616479207573656420616c6c20796f757220766f74657321\n        /* \"#utility.yul\":22336:22337   */\n      0x00\n        /* \"#utility.yul\":22328:22334   */\n      dup3\n        /* \"#utility.yul\":22324:22338   */\n      add\n        /* \"#utility.yul\":22317:22375   */\n      mstore\n        /* \"#utility.yul\":22200:22382   */\n      pop\n      jump\t// out\n        /* \"#utility.yul\":22388:22754   */\n    tag_506:\n        /* \"#utility.yul\":22530:22533   */\n      0x00\n        /* \"#utility.yul\":22551:22618   */\n      tag_735\n        /* \"#utility.yul\":22615:22617   */\n      0x20\n        /* \"#utility.yul\":22610:22613   */\n      dup4\n        /* \"#utility.yul\":22551:22618   */\n      tag_473\n      jump\t// in\n    tag_735:\n        /* \"#utility.yul\":22544:22618   */\n      swap2\n      pop\n        /* \"#utility.yul\":22627:22720   */\n      tag_736\n        /* \"#utility.yul\":22716:22719   */\n      dup3\n        /* \"#utility.yul\":22627:22720   */\n      tag_505\n      jump\t// in\n    tag_736:\n        /* \"#utility.yul\":22745:22747   */\n      0x20\n        /* \"#utility.yul\":22740:22743   */\n      dup3\n        /* \"#utility.yul\":22736:22748   */\n      add\n        /* \"#utility.yul\":22729:22748   */\n      swap1\n      pop\n        /* \"#utility.yul\":22388:22754   */\n      swap2\n      swap1\n      pop\n      jump\t// out\n        /* \"#utility.yul\":22760:23179   */\n    tag_182:\n        /* \"#utility.yul\":22926:22930   */\n      0x00\n        /* \"#utility.yul\":22964:22966   */\n      0x20\n        /* \"#utility.yul\":22953:22962   */\n      dup3\n        /* \"#utility.yul\":22949:22967   */\n      add\n        /* \"#utility.yul\":22941:22967   */\n      swap1\n      pop\n        /* \"#utility.yul\":23013:23022   */\n      dup2\n        /* \"#utility.yul\":23007:23011   */\n      dup2\n        /* \"#utility.yul\":23003:23023   */\n      sub\n        /* \"#utility.yul\":22999:23000   */\n      0x00\n        /* \"#utility.yul\":22988:22997   */\n      dup4\n        /* \"#utility.yul\":22984:23001   */\n      add\n        /* \"#utility.yul\":22977:23024   */\n      mstore\n        /* \"#utility.yul\":23041:23172   */\n      tag_738\n        /* \"#utility.yul\":23167:23171   */\n      dup2\n        /* \"#utility.yul\":23041:23172   */\n      tag_506\n      jump\t// in\n    tag_738:\n        /* \"#utility.yul\":23033:23172   */\n      swap1\n      pop\n        /* \"#utility.yul\":22760:23179   */\n      swap2\n      swap1\n      pop\n      jump\t// out\n        /* \"#utility.yul\":23185:23421   */\n    tag_507:\n        /* \"#utility.yul\":23325:23359   */\n      0x5468652070726f706f736974696f6e20796f7527726520766f74696e6720666f\n        /* \"#utility.yul\":23321:23322   */\n      0x00\n        /* \"#utility.yul\":23313:23319   */\n      dup3\n        /* \"#utility.yul\":23309:23323   */\n      add\n        /* \"#utility.yul\":23302:23360   */\n      mstore\n        /* \"#utility.yul\":23394:23413   */\n      0x7220646f6573206e6f7420657869737421000000000000000000000000000000\n        /* \"#utility.yul\":23389:23391   */\n      0x20\n        /* \"#utility.yul\":23381:23387   */\n      dup3\n        /* \"#utility.yul\":23377:23392   */\n      add\n        /* \"#utility.yul\":23370:23414   */\n      mstore\n        /* \"#utility.yul\":23185:23421   */\n      pop\n      jump\t// out\n        /* \"#utility.yul\":23427:23793   */\n    tag_508:\n        /* \"#utility.yul\":23569:23572   */\n      0x00\n        /* \"#utility.yul\":23590:23657   */\n      tag_741\n        /* \"#utility.yul\":23654:23656   */\n      0x31\n        /* \"#utility.yul\":23649:23652   */\n      dup4\n        /* \"#utility.yul\":23590:23657   */\n      tag_473\n      jump\t// in\n    tag_741:\n        /* \"#utility.yul\":23583:23657   */\n      swap2\n      pop\n        /* \"#utility.yul\":23666:23759   */\n      tag_742\n        /* \"#utility.yul\":23755:23758   */\n      dup3\n        /* \"#utility.yul\":23666:23759   */\n      tag_507\n      jump\t// in\n    tag_742:\n        /* \"#utility.yul\":23784:23786   */\n      0x40\n        /* \"#utility.yul\":23779:23782   */\n      dup3\n        /* \"#utility.yul\":23775:23787   */\n      add\n        /* \"#utility.yul\":23768:23787   */\n      swap1\n      pop\n        /* \"#utility.yul\":23427:23793   */\n      swap2\n      swap1\n      pop\n      jump\t// out\n        /* \"#utility.yul\":23799:24218   */\n    tag_187:\n        /* \"#utility.yul\":23965:23969   */\n      0x00\n        /* \"#utility.yul\":24003:24005   */\n      0x20\n        /* \"#utility.yul\":23992:24001   */\n      dup3\n        /* \"#utility.yul\":23988:24006   */\n      add\n        /* \"#utility.yul\":23980:24006   */\n      swap1\n      pop\n        /* \"#utility.yul\":24052:24061   */\n      dup2\n        /* \"#utility.yul\":24046:24050   */\n      dup2\n        /* \"#utility.yul\":24042:24062   */\n      sub\n        /* \"#utility.yul\":24038:24039   */\n      0x00\n        /* \"#utility.yul\":24027:24036   */\n      dup4\n        /* \"#utility.yul\":24023:24040   */\n      add\n        /* \"#utility.yul\":24016:24063   */\n      mstore\n        /* \"#utility.yul\":24080:24211   */\n      tag_744\n        /* \"#utility.yul\":24206:24210   */\n      dup2\n        /* \"#utility.yul\":24080:24211   */\n      tag_508\n      jump\t// in\n    tag_744:\n        /* \"#utility.yul\":24072:24211   */\n      swap1\n      pop\n        /* \"#utility.yul\":23799:24218   */\n      swap2\n      swap1\n      pop\n      jump\t// out\n        /* \"#utility.yul\":24224:24556   */\n    tag_205:\n        /* \"#utility.yul\":24345:24349   */\n      0x00\n        /* \"#utility.yul\":24383:24385   */\n      0x40\n        /* \"#utility.yul\":24372:24381   */\n      dup3\n        /* \"#utility.yul\":24368:24386   */\n      add\n        /* \"#utility.yul\":24360:24386   */\n      swap1\n      pop\n        /* \"#utility.yul\":24396:24467   */\n      tag_746\n        /* \"#utility.yul\":24464:24465   */\n      0x00\n        /* \"#utility.yul\":24453:24462   */\n      dup4\n        /* \"#utility.yul\":24449:24466   */\n      add\n        /* \"#utility.yul\":24440:24446   */\n      dup6\n        /* \"#utility.yul\":24396:24467   */\n      tag_464\n      jump\t// in\n    tag_746:\n        /* \"#utility.yul\":24477:24549   */\n      tag_747\n        /* \"#utility.yul\":24545:24547   */\n      0x20\n        /* \"#utility.yul\":24534:24543   */\n      dup4\n        /* \"#utility.yul\":24530:24548   */\n      add\n        /* \"#utility.yul\":24521:24527   */\n      dup5\n        /* \"#utility.yul\":24477:24549   */\n      tag_498\n      jump\t// in\n    tag_747:\n        /* \"#utility.yul\":24224:24556   */\n      swap4\n      swap3\n      pop\n      pop\n      pop\n      jump\t// out\n        /* \"#utility.yul\":24562:24861   */\n    tag_509:\n        /* \"#utility.yul\":24702:24736   */\n      0x596f75206d75737420766f746520616761696e20666f72206f6e65206f662074\n        /* \"#utility.yul\":24698:24699   */\n      0x00\n        /* \"#utility.yul\":24690:24696   */\n      dup3\n        /* \"#utility.yul\":24686:24700   */\n      add\n        /* \"#utility.yul\":24679:24737   */\n      mstore\n        /* \"#utility.yul\":24771:24805   */\n      0x68652070726f706f736974696f6e73207768696368207175616c696669656420\n        /* \"#utility.yul\":24766:24768   */\n      0x20\n        /* \"#utility.yul\":24758:24764   */\n      dup3\n        /* \"#utility.yul\":24754:24769   */\n      add\n        /* \"#utility.yul\":24747:24806   */\n      mstore\n        /* \"#utility.yul\":24840:24853   */\n      0x70726576696f75736c7921000000000000000000000000000000000000000000\n        /* \"#utility.yul\":24835:24837   */\n      0x40\n        /* \"#utility.yul\":24827:24833   */\n      dup3\n        /* \"#utility.yul\":24823:24838   */\n      add\n        /* \"#utility.yul\":24816:24854   */\n      mstore\n        /* \"#utility.yul\":24562:24861   */\n      pop\n      jump\t// out\n        /* \"#utility.yul\":24867:25233   */\n    tag_510:\n        /* \"#utility.yul\":25009:25012   */\n      0x00\n        /* \"#utility.yul\":25030:25097   */\n      tag_750\n        /* \"#utility.yul\":25094:25096   */\n      0x4b\n        /* \"#utility.yul\":25089:25092   */\n      dup4\n        /* \"#utility.yul\":25030:25097   */\n      tag_473\n      jump\t// in\n    tag_750:\n        /* \"#utility.yul\":25023:25097   */\n      swap2\n      pop\n        /* \"#utility.yul\":25106:25199   */\n      tag_751\n        /* \"#utility.yul\":25195:25198   */\n      dup3\n        /* \"#utility.yul\":25106:25199   */\n      tag_509\n      jump\t// in\n    tag_751:\n        /* \"#utility.yul\":25224:25226   */\n      0x60\n        /* \"#utility.yul\":25219:25222   */\n      dup3\n        /* \"#utility.yul\":25215:25227   */\n      add\n        /* \"#utility.yul\":25208:25227   */\n      swap1\n      pop\n        /* \"#utility.yul\":24867:25233   */\n      swap2\n      swap1\n      pop\n      jump\t// out\n        /* \"#utility.yul\":25239:25658   */\n    tag_235:\n        /* \"#utility.yul\":25405:25409   */\n      0x00\n        /* \"#utility.yul\":25443:25445   */\n      0x20\n        /* \"#utility.yul\":25432:25441   */\n      dup3\n        /* \"#utility.yul\":25428:25446   */\n      add\n        /* \"#utility.yul\":25420:25446   */\n      swap1\n      pop\n        /* \"#utility.yul\":25492:25501   */\n      dup2\n        /* \"#utility.yul\":25486:25490   */\n      dup2\n        /* \"#utility.yul\":25482:25502   */\n      sub\n        /* \"#utility.yul\":25478:25479   */\n      0x00\n        /* \"#utility.yul\":25467:25476   */\n      dup4\n        /* \"#utility.yul\":25463:25480   */\n      add\n        /* \"#utility.yul\":25456:25503   */\n      mstore\n        /* \"#utility.yul\":25520:25651   */\n      tag_753\n        /* \"#utility.yul\":25646:25650   */\n      dup2\n        /* \"#utility.yul\":25520:25651   */\n      tag_510\n      jump\t// in\n    tag_753:\n        /* \"#utility.yul\":25512:25651   */\n      swap1\n      pop\n        /* \"#utility.yul\":25239:25658   */\n      swap2\n      swap1\n      pop\n      jump\t// out\n        /* \"#utility.yul\":25664:25887   */\n    tag_511:\n        /* \"#utility.yul\":25804:25838   */\n      0x5468657265206973206e6f2077696e6e696e672070726f706f736974696f6e20\n        /* \"#utility.yul\":25800:25801   */\n      0x00\n        /* \"#utility.yul\":25792:25798   */\n      dup3\n        /* \"#utility.yul\":25788:25802   */\n      add\n        /* \"#utility.yul\":25781:25839   */\n      mstore\n        /* \"#utility.yul\":25873:25879   */\n      0x7965742100000000000000000000000000000000000000000000000000000000\n        /* \"#utility.yul\":25868:25870   */\n      0x20\n        /* \"#utility.yul\":25860:25866   */\n      dup3\n        /* \"#utility.yul\":25856:25871   */\n      add\n        /* \"#utility.yul\":25849:25880   */\n      mstore\n        /* \"#utility.yul\":25664:25887   */\n      pop\n      jump\t// out\n        /* \"#utility.yul\":25893:26259   */\n    tag_512:\n        /* \"#utility.yul\":26035:26038   */\n      0x00\n        /* \"#utility.yul\":26056:26123   */\n      tag_756\n        /* \"#utility.yul\":26120:26122   */\n      0x24\n        /* \"#utility.yul\":26115:26118   */\n      dup4\n        /* \"#utility.yul\":26056:26123   */\n      tag_473\n      jump\t// in\n    tag_756:\n        /* \"#utility.yul\":26049:26123   */\n      swap2\n      pop\n        /* \"#utility.yul\":26132:26225   */\n      tag_757\n        /* \"#utility.yul\":26221:26224   */\n      dup3\n        /* \"#utility.yul\":26132:26225   */\n      tag_511\n      jump\t// in\n    tag_757:\n        /* \"#utility.yul\":26250:26252   */\n      0x40\n        /* \"#utility.yul\":26245:26248   */\n      dup3\n        /* \"#utility.yul\":26241:26253   */\n      add\n        /* \"#utility.yul\":26234:26253   */\n      swap1\n      pop\n        /* \"#utility.yul\":25893:26259   */\n      swap2\n      swap1\n      pop\n      jump\t// out\n        /* \"#utility.yul\":26265:26684   */\n    tag_252:\n        /* \"#utility.yul\":26431:26435   */\n      0x00\n        /* \"#utility.yul\":26469:26471   */\n      0x20\n        /* \"#utility.yul\":26458:26467   */\n      dup3\n        /* \"#utility.yul\":26454:26472   */\n      add\n        /* \"#utility.yul\":26446:26472   */\n      swap1\n      pop\n        /* \"#utility.yul\":26518:26527   */\n      dup2\n        /* \"#utility.yul\":26512:26516   */\n      dup2\n        /* \"#utility.yul\":26508:26528   */\n      sub\n        /* \"#utility.yul\":26504:26505   */\n      0x00\n        /* \"#utility.yul\":26493:26502   */\n      dup4\n        /* \"#utility.yul\":26489:26506   */\n      add\n        /* \"#utility.yul\":26482:26529   */\n      mstore\n        /* \"#utility.yul\":26546:26677   */\n      tag_759\n        /* \"#utility.yul\":26672:26676   */\n      dup2\n        /* \"#utility.yul\":26546:26677   */\n      tag_512\n      jump\t// in\n    tag_759:\n        /* \"#utility.yul\":26538:26677   */\n      swap1\n      pop\n        /* \"#utility.yul\":26265:26684   */\n      swap2\n      swap1\n      pop\n      jump\t// out\n        /* \"#utility.yul\":26690:26866   */\n    tag_513:\n        /* \"#utility.yul\":26830:26858   */\n      0x596f752063616e6e6f7420726567697374657220766f74657273000000000000\n        /* \"#utility.yul\":26826:26827   */\n      0x00\n        /* \"#utility.yul\":26818:26824   */\n      dup3\n        /* \"#utility.yul\":26814:26828   */\n      add\n        /* \"#utility.yul\":26807:26859   */\n      mstore\n        /* \"#utility.yul\":26690:26866   */\n      pop\n      jump\t// out\n        /* \"#utility.yul\":26872:27238   */\n    tag_514:\n        /* \"#utility.yul\":27014:27017   */\n      0x00\n        /* \"#utility.yul\":27035:27102   */\n      tag_762\n        /* \"#utility.yul\":27099:27101   */\n      0x1a\n        /* \"#utility.yul\":27094:27097   */\n      dup4\n        /* \"#utility.yul\":27035:27102   */\n      tag_473\n      jump\t// in\n    tag_762:\n        /* \"#utility.yul\":27028:27102   */\n      swap2\n      pop\n        /* \"#utility.yul\":27111:27204   */\n      tag_763\n        /* \"#utility.yul\":27200:27203   */\n      dup3\n        /* \"#utility.yul\":27111:27204   */\n      tag_513\n      jump\t// in\n    tag_763:\n        /* \"#utility.yul\":27229:27231   */\n      0x20\n        /* \"#utility.yul\":27224:27227   */\n      dup3\n        /* \"#utility.yul\":27220:27232   */\n      add\n        /* \"#utility.yul\":27213:27232   */\n      swap1\n      pop\n        /* \"#utility.yul\":26872:27238   */\n      swap2\n      swap1\n      pop\n      jump\t// out\n        /* \"#utility.yul\":27244:27663   */\n    tag_296:\n        /* \"#utility.yul\":27410:27414   */\n      0x00\n        /* \"#utility.yul\":27448:27450   */\n      0x20\n        /* \"#utility.yul\":27437:27446   */\n      dup3\n        /* \"#utility.yul\":27433:27451   */\n      add\n        /* \"#utility.yul\":27425:27451   */\n      swap1\n      pop\n        /* \"#utility.yul\":27497:27506   */\n      dup2\n        /* \"#utility.yul\":27491:27495   */\n      dup2\n        /* \"#utility.yul\":27487:27507   */\n      sub\n        /* \"#utility.yul\":27483:27484   */\n      0x00\n        /* \"#utility.yul\":27472:27481   */\n      dup4\n        /* \"#utility.yul\":27468:27485   */\n      add\n        /* \"#utility.yul\":27461:27508   */\n      mstore\n        /* \"#utility.yul\":27525:27656   */\n      tag_765\n        /* \"#utility.yul\":27651:27655   */\n      dup2\n        /* \"#utility.yul\":27525:27656   */\n      tag_514\n      jump\t// in\n    tag_765:\n        /* \"#utility.yul\":27517:27656   */\n      swap1\n      pop\n        /* \"#utility.yul\":27244:27663   */\n      swap2\n      swap1\n      pop\n      jump\t// out\n        /* \"#utility.yul\":27669:27837   */\n    tag_515:\n        /* \"#utility.yul\":27809:27829   */\n      0x4f776e65722063616e6e6f7420766f7465210000000000000000000000000000\n        /* \"#utility.yul\":27805:27806   */\n      0x00\n        /* \"#utility.yul\":27797:27803   */\n      dup3\n        /* \"#utility.yul\":27793:27807   */\n      add\n        /* \"#utility.yul\":27786:27830   */\n      mstore\n        /* \"#utility.yul\":27669:27837   */\n      pop\n      jump\t// out\n        /* \"#utility.yul\":27843:28209   */\n    tag_516:\n        /* \"#utility.yul\":27985:27988   */\n      0x00\n        /* \"#utility.yul\":28006:28073   */\n      tag_768\n        /* \"#utility.yul\":28070:28072   */\n      0x12\n        /* \"#utility.yul\":28065:28068   */\n      dup4\n        /* \"#utility.yul\":28006:28073   */\n      tag_473\n      jump\t// in\n    tag_768:\n        /* \"#utility.yul\":27999:28073   */\n      swap2\n      pop\n        /* \"#utility.yul\":28082:28175   */\n      tag_769\n        /* \"#utility.yul\":28171:28174   */\n      dup3\n        /* \"#utility.yul\":28082:28175   */\n      tag_515\n      jump\t// in\n    tag_769:\n        /* \"#utility.yul\":28200:28202   */\n      0x20\n        /* \"#utility.yul\":28195:28198   */\n      dup3\n        /* \"#utility.yul\":28191:28203   */\n      add\n        /* \"#utility.yul\":28184:28203   */\n      swap1\n      pop\n        /* \"#utility.yul\":27843:28209   */\n      swap2\n      swap1\n      pop\n      jump\t// out\n        /* \"#utility.yul\":28215:28634   */\n    tag_325:\n        /* \"#utility.yul\":28381:28385   */\n      0x00\n        /* \"#utility.yul\":28419:28421   */\n      0x20\n        /* \"#utility.yul\":28408:28417   */\n      dup3\n        /* \"#utility.yul\":28404:28422   */\n      add\n        /* \"#utility.yul\":28396:28422   */\n      swap1\n      pop\n        /* \"#utility.yul\":28468:28477   */\n      dup2\n        /* \"#utility.yul\":28462:28466   */\n      dup2\n        /* \"#utility.yul\":28458:28478   */\n      sub\n        /* \"#utility.yul\":28454:28455   */\n      0x00\n        /* \"#utility.yul\":28443:28452   */\n      dup4\n        /* \"#utility.yul\":28439:28456   */\n      add\n        /* \"#utility.yul\":28432:28479   */\n      mstore\n        /* \"#utility.yul\":28496:28627   */\n      tag_771\n        /* \"#utility.yul\":28622:28626   */\n      dup2\n        /* \"#utility.yul\":28496:28627   */\n      tag_516\n      jump\t// in\n    tag_771:\n        /* \"#utility.yul\":28488:28627   */\n      swap1\n      pop\n        /* \"#utility.yul\":28215:28634   */\n      swap2\n      swap1\n      pop\n      jump\t// out\n        /* \"#utility.yul\":28640:28815   */\n    tag_517:\n        /* \"#utility.yul\":28780:28807   */\n      0x566f74657220616c726561647920726567697374657265642100000000000000\n        /* \"#utility.yul\":28776:28777   */\n      0x00\n        /* \"#utility.yul\":28768:28774   */\n      dup3\n        /* \"#utility.yul\":28764:28778   */\n      add\n        /* \"#utility.yul\":28757:28808   */\n      mstore\n        /* \"#utility.yul\":28640:28815   */\n      pop\n      jump\t// out\n        /* \"#utility.yul\":28821:29187   */\n    tag_518:\n        /* \"#utility.yul\":28963:28966   */\n      0x00\n        /* \"#utility.yul\":28984:29051   */\n      tag_774\n        /* \"#utility.yul\":29048:29050   */\n      0x19\n        /* \"#utility.yul\":29043:29046   */\n      dup4\n        /* \"#utility.yul\":28984:29051   */\n      tag_473\n      jump\t// in\n    tag_774:\n        /* \"#utility.yul\":28977:29051   */\n      swap2\n      pop\n        /* \"#utility.yul\":29060:29153   */\n      tag_775\n        /* \"#utility.yul\":29149:29152   */\n      dup3\n        /* \"#utility.yul\":29060:29153   */\n      tag_517\n      jump\t// in\n    tag_775:\n        /* \"#utility.yul\":29178:29180   */\n      0x20\n        /* \"#utility.yul\":29173:29176   */\n      dup3\n        /* \"#utility.yul\":29169:29181   */\n      add\n        /* \"#utility.yul\":29162:29181   */\n      swap1\n      pop\n        /* \"#utility.yul\":28821:29187   */\n      swap2\n      swap1\n      pop\n      jump\t// out\n        /* \"#utility.yul\":29193:29612   */\n    tag_328:\n        /* \"#utility.yul\":29359:29363   */\n      0x00\n        /* \"#utility.yul\":29397:29399   */\n      0x20\n        /* \"#utility.yul\":29386:29395   */\n      dup3\n        /* \"#utility.yul\":29382:29400   */\n      add\n        /* \"#utility.yul\":29374:29400   */\n      swap1\n      pop\n        /* \"#utility.yul\":29446:29455   */\n      dup2\n        /* \"#utility.yul\":29440:29444   */\n      dup2\n        /* \"#utility.yul\":29436:29456   */\n      sub\n        /* \"#utility.yul\":29432:29433   */\n      0x00\n        /* \"#utility.yul\":29421:29430   */\n      dup4\n        /* \"#utility.yul\":29417:29434   */\n      add\n        /* \"#utility.yul\":29410:29457   */\n      mstore\n        /* \"#utility.yul\":29474:29605   */\n      tag_777\n        /* \"#utility.yul\":29600:29604   */\n      dup2\n        /* \"#utility.yul\":29474:29605   */\n      tag_518\n      jump\t// in\n    tag_777:\n        /* \"#utility.yul\":29466:29605   */\n      swap1\n      pop\n        /* \"#utility.yul\":29193:29612   */\n      swap2\n      swap1\n      pop\n      jump\t// out\n        /* \"#utility.yul\":29618:29856   */\n    tag_519:\n        /* \"#utility.yul\":29758:29792   */\n      0x41206d696e696d756d206e756d626572206f6620766f74657273206172652072\n        /* \"#utility.yul\":29754:29755   */\n      0x00\n        /* \"#utility.yul\":29746:29752   */\n      dup3\n        /* \"#utility.yul\":29742:29756   */\n      add\n        /* \"#utility.yul\":29735:29793   */\n      mstore\n        /* \"#utility.yul\":29827:29848   */\n      0x6571756972656420746f20636f6e74696e756500000000000000000000000000\n        /* \"#utility.yul\":29822:29824   */\n      0x20\n        /* \"#utility.yul\":29814:29820   */\n      dup3\n        /* \"#utility.yul\":29810:29825   */\n      add\n        /* \"#utility.yul\":29803:29849   */\n      mstore\n        /* \"#utility.yul\":29618:29856   */\n      pop\n      jump\t// out\n        /* \"#utility.yul\":29862:30228   */\n    tag_520:\n        /* \"#utility.yul\":30004:30007   */\n      0x00\n        /* \"#utility.yul\":30025:30092   */\n      tag_780\n        /* \"#utility.yul\":30089:30091   */\n      0x33\n        /* \"#utility.yul\":30084:30087   */\n      dup4\n        /* \"#utility.yul\":30025:30092   */\n      tag_473\n      jump\t// in\n    tag_780:\n        /* \"#utility.yul\":30018:30092   */\n      swap2\n      pop\n        /* \"#utility.yul\":30101:30194   */\n      tag_781\n        /* \"#utility.yul\":30190:30193   */\n      dup3\n        /* \"#utility.yul\":30101:30194   */\n      tag_519\n      jump\t// in\n    tag_781:\n        /* \"#utility.yul\":30219:30221   */\n      0x40\n        /* \"#utility.yul\":30214:30217   */\n      dup3\n        /* \"#utility.yul\":30210:30222   */\n      add\n        /* \"#utility.yul\":30203:30222   */\n      swap1\n      pop\n        /* \"#utility.yul\":29862:30228   */\n      swap2\n      swap1\n      pop\n      jump\t// out\n        /* \"#utility.yul\":30234:30653   */\n    tag_341:\n        /* \"#utility.yul\":30400:30404   */\n      0x00\n        /* \"#utility.yul\":30438:30440   */\n      0x20\n        /* \"#utility.yul\":30427:30436   */\n      dup3\n        /* \"#utility.yul\":30423:30441   */\n      add\n        /* \"#utility.yul\":30415:30441   */\n      swap1\n      pop\n        /* \"#utility.yul\":30487:30496   */\n      dup2\n        /* \"#utility.yul\":30481:30485   */\n      dup2\n        /* \"#utility.yul\":30477:30497   */\n      sub\n        /* \"#utility.yul\":30473:30474   */\n      0x00\n        /* \"#utility.yul\":30462:30471   */\n      dup4\n        /* \"#utility.yul\":30458:30475   */\n      add\n        /* \"#utility.yul\":30451:30498   */\n      mstore\n        /* \"#utility.yul\":30515:30646   */\n      tag_783\n        /* \"#utility.yul\":30641:30645   */\n      dup2\n        /* \"#utility.yul\":30515:30646   */\n      tag_520\n      jump\t// in\n    tag_783:\n        /* \"#utility.yul\":30507:30646   */\n      swap1\n      pop\n        /* \"#utility.yul\":30234:30653   */\n      swap2\n      swap1\n      pop\n      jump\t// out\n        /* \"#utility.yul\":30659:30903   */\n    tag_521:\n        /* \"#utility.yul\":30799:30833   */\n      0x41206d696e696d756d206e756d626572206f662070726f706f736974696f6e73\n        /* \"#utility.yul\":30795:30796   */\n      0x00\n        /* \"#utility.yul\":30787:30793   */\n      dup3\n        /* \"#utility.yul\":30783:30797   */\n      add\n        /* \"#utility.yul\":30776:30834   */\n      mstore\n        /* \"#utility.yul\":30868:30895   */\n      0x2061726520726571756972656420746f20636f6e74696e756500000000000000\n        /* \"#utility.yul\":30863:30865   */\n      0x20\n        /* \"#utility.yul\":30855:30861   */\n      dup3\n        /* \"#utility.yul\":30851:30866   */\n      add\n        /* \"#utility.yul\":30844:30896   */\n      mstore\n        /* \"#utility.yul\":30659:30903   */\n      pop\n      jump\t// out\n        /* \"#utility.yul\":30909:31275   */\n    tag_522:\n        /* \"#utility.yul\":31051:31054   */\n      0x00\n        /* \"#utility.yul\":31072:31139   */\n      tag_786\n        /* \"#utility.yul\":31136:31138   */\n      0x39\n        /* \"#utility.yul\":31131:31134   */\n      dup4\n        /* \"#utility.yul\":31072:31139   */\n      tag_473\n      jump\t// in\n    tag_786:\n        /* \"#utility.yul\":31065:31139   */\n      swap2\n      pop\n        /* \"#utility.yul\":31148:31241   */\n      tag_787\n        /* \"#utility.yul\":31237:31240   */\n      dup3\n        /* \"#utility.yul\":31148:31241   */\n      tag_521\n      jump\t// in\n    tag_787:\n        /* \"#utility.yul\":31266:31268   */\n      0x40\n        /* \"#utility.yul\":31261:31264   */\n      dup3\n        /* \"#utility.yul\":31257:31269   */\n      add\n        /* \"#utility.yul\":31250:31269   */\n      swap1\n      pop\n        /* \"#utility.yul\":30909:31275   */\n      swap2\n      swap1\n      pop\n      jump\t// out\n        /* \"#utility.yul\":31281:31700   */\n    tag_350:\n        /* \"#utility.yul\":31447:31451   */\n      0x00\n        /* \"#utility.yul\":31485:31487   */\n      0x20\n        /* \"#utility.yul\":31474:31483   */\n      dup3\n        /* \"#utility.yul\":31470:31488   */\n      add\n        /* \"#utility.yul\":31462:31488   */\n      swap1\n      pop\n        /* \"#utility.yul\":31534:31543   */\n      dup2\n        /* \"#utility.yul\":31528:31532   */\n      dup2\n        /* \"#utility.yul\":31524:31544   */\n      sub\n        /* \"#utility.yul\":31520:31521   */\n      0x00\n        /* \"#utility.yul\":31509:31518   */\n      dup4\n        /* \"#utility.yul\":31505:31522   */\n      add\n        /* \"#utility.yul\":31498:31545   */\n      mstore\n        /* \"#utility.yul\":31562:31693   */\n      tag_789\n        /* \"#utility.yul\":31688:31692   */\n      dup2\n        /* \"#utility.yul\":31562:31693   */\n      tag_522\n      jump\t// in\n    tag_789:\n        /* \"#utility.yul\":31554:31693   */\n      swap1\n      pop\n        /* \"#utility.yul\":31281:31700   */\n      swap2\n      swap1\n      pop\n      jump\t// out\n        /* \"#utility.yul\":31706:31943   */\n    tag_523:\n        /* \"#utility.yul\":31846:31880   */\n      0x41206d696e696d756d206e756d626572206f6620766f74657320617265207265\n        /* \"#utility.yul\":31842:31843   */\n      0x00\n        /* \"#utility.yul\":31834:31840   */\n      dup3\n        /* \"#utility.yul\":31830:31844   */\n      add\n        /* \"#utility.yul\":31823:31881   */\n      mstore\n        /* \"#utility.yul\":31915:31935   */\n      0x71756972656420746f20636f6e74696e75650000000000000000000000000000\n        /* \"#utility.yul\":31910:31912   */\n      0x20\n        /* \"#utility.yul\":31902:31908   */\n      dup3\n        /* \"#utility.yul\":31898:31913   */\n      add\n        /* \"#utility.yul\":31891:31936   */\n      mstore\n        /* \"#utility.yul\":31706:31943   */\n      pop\n      jump\t// out\n        /* \"#utility.yul\":31949:32315   */\n    tag_524:\n        /* \"#utility.yul\":32091:32094   */\n      0x00\n        /* \"#utility.yul\":32112:32179   */\n      tag_792\n        /* \"#utility.yul\":32176:32178   */\n      0x32\n        /* \"#utility.yul\":32171:32174   */\n      dup4\n        /* \"#utility.yul\":32112:32179   */\n      tag_473\n      jump\t// in\n    tag_792:\n        /* \"#utility.yul\":32105:32179   */\n      swap2\n      pop\n        /* \"#utility.yul\":32188:32281   */\n      tag_793\n        /* \"#utility.yul\":32277:32280   */\n      dup3\n        /* \"#utility.yul\":32188:32281   */\n      tag_523\n      jump\t// in\n    tag_793:\n        /* \"#utility.yul\":32306:32308   */\n      0x40\n        /* \"#utility.yul\":32301:32304   */\n      dup3\n        /* \"#utility.yul\":32297:32309   */\n      add\n        /* \"#utility.yul\":32290:32309   */\n      swap1\n      pop\n        /* \"#utility.yul\":31949:32315   */\n      swap2\n      swap1\n      pop\n      jump\t// out\n        /* \"#utility.yul\":32321:32740   */\n    tag_359:\n        /* \"#utility.yul\":32487:32491   */\n      0x00\n        /* \"#utility.yul\":32525:32527   */\n      0x20\n        /* \"#utility.yul\":32514:32523   */\n      dup3\n        /* \"#utility.yul\":32510:32528   */\n      add\n        /* \"#utility.yul\":32502:32528   */\n      swap1\n      pop\n        /* \"#utility.yul\":32574:32583   */\n      dup2\n        /* \"#utility.yul\":32568:32572   */\n      dup2\n        /* \"#utility.yul\":32564:32584   */\n      sub\n        /* \"#utility.yul\":32560:32561   */\n      0x00\n        /* \"#utility.yul\":32549:32558   */\n      dup4\n        /* \"#utility.yul\":32545:32562   */\n      add\n        /* \"#utility.yul\":32538:32585   */\n      mstore\n        /* \"#utility.yul\":32602:32733   */\n      tag_795\n        /* \"#utility.yul\":32728:32732   */\n      dup2\n        /* \"#utility.yul\":32602:32733   */\n      tag_524\n      jump\t// in\n    tag_795:\n        /* \"#utility.yul\":32594:32733   */\n      swap1\n      pop\n        /* \"#utility.yul\":32321:32740   */\n      swap2\n      swap1\n      pop\n      jump\t// out\n        /* \"#utility.yul\":32746:32993   */\n    tag_525:\n        /* \"#utility.yul\":32886:32920   */\n      0x566f746573206861766520746f2062652074616c6c6965642e20497420697320\n        /* \"#utility.yul\":32882:32883   */\n      0x00\n        /* \"#utility.yul\":32874:32880   */\n      dup3\n        /* \"#utility.yul\":32870:32884   */\n      add\n        /* \"#utility.yul\":32863:32921   */\n      mstore\n        /* \"#utility.yul\":32955:32985   */\n      0x6f7665722e205468657265206973206e6f206e65787420737465702100000000\n        /* \"#utility.yul\":32950:32952   */\n      0x20\n        /* \"#utility.yul\":32942:32948   */\n      dup3\n        /* \"#utility.yul\":32938:32953   */\n      add\n        /* \"#utility.yul\":32931:32986   */\n      mstore\n        /* \"#utility.yul\":32746:32993   */\n      pop\n      jump\t// out\n        /* \"#utility.yul\":32999:33365   */\n    tag_526:\n        /* \"#utility.yul\":33141:33144   */\n      0x00\n        /* \"#utility.yul\":33162:33229   */\n      tag_798\n        /* \"#utility.yul\":33226:33228   */\n      0x3c\n        /* \"#utility.yul\":33221:33224   */\n      dup4\n        /* \"#utility.yul\":33162:33229   */\n      tag_473\n      jump\t// in\n    tag_798:\n        /* \"#utility.yul\":33155:33229   */\n      swap2\n      pop\n        /* \"#utility.yul\":33238:33331   */\n      tag_799\n        /* \"#utility.yul\":33327:33330   */\n      dup3\n        /* \"#utility.yul\":33238:33331   */\n      tag_525\n      jump\t// in\n    tag_799:\n        /* \"#utility.yul\":33356:33358   */\n      0x40\n        /* \"#utility.yul\":33351:33354   */\n      dup3\n        /* \"#utility.yul\":33347:33359   */\n      add\n        /* \"#utility.yul\":33340:33359   */\n      swap1\n      pop\n        /* \"#utility.yul\":32999:33365   */\n      swap2\n      swap1\n      pop\n      jump\t// out\n        /* \"#utility.yul\":33371:33790   */\n    tag_367:\n        /* \"#utility.yul\":33537:33541   */\n      0x00\n        /* \"#utility.yul\":33575:33577   */\n      0x20\n        /* \"#utility.yul\":33564:33573   */\n      dup3\n        /* \"#utility.yul\":33560:33578   */\n      add\n        /* \"#utility.yul\":33552:33578   */\n      swap1\n      pop\n        /* \"#utility.yul\":33624:33633   */\n      dup2\n        /* \"#utility.yul\":33618:33622   */\n      dup2\n        /* \"#utility.yul\":33614:33634   */\n      sub\n        /* \"#utility.yul\":33610:33611   */\n      0x00\n        /* \"#utility.yul\":33599:33608   */\n      dup4\n        /* \"#utility.yul\":33595:33612   */\n      add\n        /* \"#utility.yul\":33588:33635   */\n      mstore\n        /* \"#utility.yul\":33652:33783   */\n      tag_801\n        /* \"#utility.yul\":33778:33782   */\n      dup2\n        /* \"#utility.yul\":33652:33783   */\n      tag_526\n      jump\t// in\n    tag_801:\n        /* \"#utility.yul\":33644:33783   */\n      swap1\n      pop\n        /* \"#utility.yul\":33371:33790   */\n      swap2\n      swap1\n      pop\n      jump\t// out\n        /* \"#utility.yul\":33796:33987   */\n    tag_372:\n        /* \"#utility.yul\":33836:33839   */\n      0x00\n        /* \"#utility.yul\":33855:33875   */\n      tag_803\n        /* \"#utility.yul\":33873:33874   */\n      dup3\n        /* \"#utility.yul\":33855:33875   */\n      tag_442\n      jump\t// in\n    tag_803:\n        /* \"#utility.yul\":33850:33875   */\n      swap2\n      pop\n        /* \"#utility.yul\":33889:33909   */\n      tag_804\n        /* \"#utility.yul\":33907:33908   */\n      dup4\n        /* \"#utility.yul\":33889:33909   */\n      tag_442\n      jump\t// in\n    tag_804:\n        /* \"#utility.yul\":33884:33909   */\n      swap3\n      pop\n        /* \"#utility.yul\":33932:33933   */\n      dup3\n        /* \"#utility.yul\":33929:33930   */\n      dup3\n        /* \"#utility.yul\":33925:33934   */\n      add\n        /* \"#utility.yul\":33918:33934   */\n      swap1\n      pop\n        /* \"#utility.yul\":33953:33956   */\n      dup1\n        /* \"#utility.yul\":33950:33951   */\n      dup3\n        /* \"#utility.yul\":33947:33957   */\n      gt\n        /* \"#utility.yul\":33944:33980   */\n      iszero\n      tag_805\n      jumpi\n        /* \"#utility.yul\":33960:33978   */\n      tag_806\n      tag_497\n      jump\t// in\n    tag_806:\n        /* \"#utility.yul\":33944:33980   */\n    tag_805:\n        /* \"#utility.yul\":33796:33987   */\n      swap3\n      swap2\n      pop\n      pop\n      jump\t// out\n        /* \"#utility.yul\":33993:34389   */\n    tag_378:\n        /* \"#utility.yul\":34146:34150   */\n      0x00\n        /* \"#utility.yul\":34184:34186   */\n      0x40\n        /* \"#utility.yul\":34173:34182   */\n      dup3\n        /* \"#utility.yul\":34169:34187   */\n      add\n        /* \"#utility.yul\":34161:34187   */\n      swap1\n      pop\n        /* \"#utility.yul\":34197:34284   */\n      tag_808\n        /* \"#utility.yul\":34281:34282   */\n      0x00\n        /* \"#utility.yul\":34270:34279   */\n      dup4\n        /* \"#utility.yul\":34266:34283   */\n      add\n        /* \"#utility.yul\":34257:34263   */\n      dup6\n        /* \"#utility.yul\":34197:34284   */\n      tag_472\n      jump\t// in\n    tag_808:\n        /* \"#utility.yul\":34294:34382   */\n      tag_809\n        /* \"#utility.yul\":34378:34380   */\n      0x20\n        /* \"#utility.yul\":34367:34376   */\n      dup4\n        /* \"#utility.yul\":34363:34381   */\n      add\n        /* \"#utility.yul\":34354:34360   */\n      dup5\n        /* \"#utility.yul\":34294:34382   */\n      tag_472\n      jump\t// in\n    tag_809:\n        /* \"#utility.yul\":33993:34389   */\n      swap4\n      swap3\n      pop\n      pop\n      pop\n      jump\t// out\n        /* \"#utility.yul\":34395:34575   */\n    tag_402:\n        /* \"#utility.yul\":34443:34520   */\n      0x4e487b7100000000000000000000000000000000000000000000000000000000\n        /* \"#utility.yul\":34440:34441   */\n      0x00\n        /* \"#utility.yul\":34433:34521   */\n      mstore\n        /* \"#utility.yul\":34540:34544   */\n      0x31\n        /* \"#utility.yul\":34537:34538   */\n      0x04\n        /* \"#utility.yul\":34530:34545   */\n      mstore\n        /* \"#utility.yul\":34564:34568   */\n      0x24\n        /* \"#utility.yul\":34561:34562   */\n      0x00\n        /* \"#utility.yul\":34554:34569   */\n      revert\n        /* \"#utility.yul\":34581:34730   */\n    tag_527:\n        /* \"#utility.yul\":34630:34636   */\n      0x00\n        /* \"#utility.yul\":34664:34669   */\n      dup2\n        /* \"#utility.yul\":34658:34670   */\n      sload\n        /* \"#utility.yul\":34648:34670   */\n      swap1\n      pop\n        /* \"#utility.yul\":34690:34723   */\n      tag_812\n        /* \"#utility.yul\":34716:34722   */\n      dup2\n        /* \"#utility.yul\":34690:34723   */\n      tag_76\n      jump\t// in\n    tag_812:\n        /* \"#utility.yul\":34680:34723   */\n      swap1\n      pop\n        /* \"#utility.yul\":34581:34730   */\n      swap2\n      swap1\n      pop\n      jump\t// out\n        /* \"#utility.yul\":34736:36187   */\n    tag_422:\n        /* \"#utility.yul\":34847:34850   */\n      dup2\n        /* \"#utility.yul\":34841:34845   */\n      dup2\n        /* \"#utility.yul\":34838:34851   */\n      sub\n        /* \"#utility.yul\":34835:34861   */\n      tag_814\n      jumpi\n        /* \"#utility.yul\":34854:34859   */\n      pop\n      pop\n      jump(tag_813)\n        /* \"#utility.yul\":34835:34861   */\n    tag_814:\n        /* \"#utility.yul\":34885:34919   */\n      tag_815\n        /* \"#utility.yul\":34915:34918   */\n      dup3\n        /* \"#utility.yul\":34885:34919   */\n      tag_527\n      jump\t// in\n    tag_815:\n        /* \"#utility.yul\":34984:35002   */\n      0xffffffffffffffff\n        /* \"#utility.yul\":34976:34982   */\n      dup2\n        /* \"#utility.yul\":34973:35003   */\n      gt\n        /* \"#utility.yul\":34970:35026   */\n      iszero\n      tag_816\n      jumpi\n        /* \"#utility.yul\":35006:35024   */\n      tag_817\n      tag_481\n      jump\t// in\n    tag_817:\n        /* \"#utility.yul\":34970:35026   */\n    tag_816:\n        /* \"#utility.yul\":35050:35088   */\n      tag_818\n        /* \"#utility.yul\":35082:35086   */\n      dup3\n        /* \"#utility.yul\":35076:35087   */\n      sload\n        /* \"#utility.yul\":35050:35088   */\n      tag_76\n      jump\t// in\n    tag_818:\n        /* \"#utility.yul\":35135:35202   */\n      tag_819\n        /* \"#utility.yul\":35195:35201   */\n      dup3\n        /* \"#utility.yul\":35187:35193   */\n      dup3\n        /* \"#utility.yul\":35181:35185   */\n      dup6\n        /* \"#utility.yul\":35135:35202   */\n      tag_493\n      jump\t// in\n    tag_819:\n        /* \"#utility.yul\":35229:35230   */\n      0x00\n        /* \"#utility.yul\":35258:35260   */\n      0x1f\n        /* \"#utility.yul\":35250:35256   */\n      dup4\n        /* \"#utility.yul\":35247:35261   */\n      gt\n        /* \"#utility.yul\":35275:35276   */\n      0x01\n        /* \"#utility.yul\":35270:35942   */\n      dup2\n      eq\n      tag_821\n      jumpi\n        /* \"#utility.yul\":35986:35987   */\n      0x00\n        /* \"#utility.yul\":36003:36009   */\n      dup5\n        /* \"#utility.yul\":36000:36077   */\n      iszero\n      tag_822\n      jumpi\n        /* \"#utility.yul\":36052:36061   */\n      dup3\n        /* \"#utility.yul\":36047:36050   */\n      dup8\n        /* \"#utility.yul\":36043:36062   */\n      add\n        /* \"#utility.yul\":36037:36063   */\n      sload\n        /* \"#utility.yul\":36028:36063   */\n      swap1\n      pop\n        /* \"#utility.yul\":36000:36077   */\n    tag_822:\n        /* \"#utility.yul\":36103:36170   */\n      tag_823\n        /* \"#utility.yul\":36163:36169   */\n      dup6\n        /* \"#utility.yul\":36156:36161   */\n      dup3\n        /* \"#utility.yul\":36103:36170   */\n      tag_496\n      jump\t// in\n    tag_823:\n        /* \"#utility.yul\":36097:36101   */\n      dup7\n        /* \"#utility.yul\":36090:36171   */\n      sstore\n        /* \"#utility.yul\":35959:36181   */\n      pop\n        /* \"#utility.yul\":35240:36181   */\n      jump(tag_820)\n        /* \"#utility.yul\":35270:35942   */\n    tag_821:\n        /* \"#utility.yul\":35322:35326   */\n      0x1f\n        /* \"#utility.yul\":35318:35327   */\n      not\n        /* \"#utility.yul\":35310:35316   */\n      dup5\n        /* \"#utility.yul\":35306:35328   */\n      and\n        /* \"#utility.yul\":35348:35384   */\n      tag_824\n        /* \"#utility.yul\":35380:35383   */\n      dup8\n        /* \"#utility.yul\":35348:35384   */\n      tag_482\n      jump\t// in\n    tag_824:\n        /* \"#utility.yul\":35341:35384   */\n      swap7\n      pop\n        /* \"#utility.yul\":35411:35448   */\n      tag_825\n        /* \"#utility.yul\":35443:35447   */\n      dup7\n        /* \"#utility.yul\":35411:35448   */\n      tag_482\n      jump\t// in\n    tag_825:\n        /* \"#utility.yul\":35470:35471   */\n      0x00\n        /* \"#utility.yul\":35484:35691   */\n    tag_826:\n        /* \"#utility.yul\":35498:35505   */\n      dup3\n        /* \"#utility.yul\":35495:35496   */\n      dup2\n        /* \"#utility.yul\":35492:35506   */\n      lt\n        /* \"#utility.yul\":35484:35691   */\n      iszero\n      tag_828\n      jumpi\n        /* \"#utility.yul\":35577:35586   */\n      dup5\n        /* \"#utility.yul\":35572:35575   */\n      dup10\n        /* \"#utility.yul\":35568:35587   */\n      add\n        /* \"#utility.yul\":35562:35588   */\n      sload\n        /* \"#utility.yul\":35554:35560   */\n      dup3\n        /* \"#utility.yul\":35547:35589   */\n      sstore\n        /* \"#utility.yul\":35628:35629   */\n      0x01\n        /* \"#utility.yul\":35620:35626   */\n      dup3\n        /* \"#utility.yul\":35616:35630   */\n      add\n        /* \"#utility.yul\":35606:35630   */\n      swap2\n      pop\n        /* \"#utility.yul\":35675:35676   */\n      0x01\n        /* \"#utility.yul\":35664:35673   */\n      dup6\n        /* \"#utility.yul\":35660:35677   */\n      add\n        /* \"#utility.yul\":35647:35677   */\n      swap5\n      pop\n        /* \"#utility.yul\":35521:35525   */\n      0x20\n        /* \"#utility.yul\":35518:35519   */\n      dup2\n        /* \"#utility.yul\":35514:35526   */\n      add\n        /* \"#utility.yul\":35509:35526   */\n      swap1\n      pop\n        /* \"#utility.yul\":35484:35691   */\n      jump(tag_826)\n    tag_828:\n        /* \"#utility.yul\":35719:35725   */\n      dup7\n        /* \"#utility.yul\":35710:35717   */\n      dup4\n        /* \"#utility.yul\":35707:35726   */\n      lt\n        /* \"#utility.yul\":35704:35883   */\n      iszero\n      tag_829\n      jumpi\n        /* \"#utility.yul\":35777:35786   */\n      dup5\n        /* \"#utility.yul\":35772:35775   */\n      dup10\n        /* \"#utility.yul\":35768:35787   */\n      add\n        /* \"#utility.yul\":35762:35788   */\n      sload\n        /* \"#utility.yul\":35820:35868   */\n      tag_830\n        /* \"#utility.yul\":35862:35866   */\n      0x1f\n        /* \"#utility.yul\":35854:35860   */\n      dup10\n        /* \"#utility.yul\":35850:35867   */\n      and\n        /* \"#utility.yul\":35839:35848   */\n      dup3\n        /* \"#utility.yul\":35820:35868   */\n      tag_495\n      jump\t// in\n    tag_830:\n        /* \"#utility.yul\":35812:35818   */\n      dup4\n        /* \"#utility.yul\":35805:35869   */\n      sstore\n        /* \"#utility.yul\":35727:35883   */\n      pop\n        /* \"#utility.yul\":35704:35883   */\n    tag_829:\n        /* \"#utility.yul\":35929:35930   */\n      0x01\n        /* \"#utility.yul\":35925:35926   */\n      0x02\n        /* \"#utility.yul\":35917:35923   */\n      dup9\n        /* \"#utility.yul\":35913:35927   */\n      mul\n        /* \"#utility.yul\":35909:35931   */\n      add\n        /* \"#utility.yul\":35903:35907   */\n      dup9\n        /* \"#utility.yul\":35896:35932   */\n      sstore\n        /* \"#utility.yul\":35277:35942   */\n      pop\n      pop\n      pop\n        /* \"#utility.yul\":35240:36181   */\n    tag_820:\n      pop\n        /* \"#utility.yul\":34825:36187   */\n      pop\n      pop\n      pop\n        /* \"#utility.yul\":34736:36187   */\n      pop\n      pop\n    tag_813:\n      jump\t// out\n\n    auxdata: 0xa264697066735822122055515c43253db05e23c1e1c72fb06d2f4de94da44a526164ed915d34d3fd20a064736f6c63430008170033\n}\n",
				"bytecode": {
					"linkReferences": {},
					"object": "60806040527fffffffffffffffffffffffffffffffffffffffffffffffffffffffffffffffff6001555f6005555f6006555f60085534801562000040575f80fd5b50335f73ffffffffffffffffffffffffffffffffffffffff168173ffffffffffffffffffffffffffffffffffffffff1603620000b5575f6040517f1e4fbdf7000000000000000000000000000000000000000000000000000000008152600401620000ac9190620001fd565b60405180910390fd5b620000c681620000f960201b60201c565b505f60095f6101000a81548160ff02191690836003811115620000ee57620000ed62000218565b5b021790555062000245565b5f805f9054906101000a900473ffffffffffffffffffffffffffffffffffffffff169050815f806101000a81548173ffffffffffffffffffffffffffffffffffffffff021916908373ffffffffffffffffffffffffffffffffffffffff1602179055508173ffffffffffffffffffffffffffffffffffffffff168173ffffffffffffffffffffffffffffffffffffffff167f8be0079c531659141344cd1fd0a4f28419497f9722a3daafe3b4186f6b6457e060405160405180910390a35050565b5f73ffffffffffffffffffffffffffffffffffffffff82169050919050565b5f620001e582620001ba565b9050919050565b620001f781620001d9565b82525050565b5f602082019050620002125f830184620001ec565b92915050565b7f4e487b71000000000000000000000000000000000000000000000000000000005f52602160045260245ffd5b6134e380620002535f395ff3fe608060405234801561000f575f80fd5b50600436106100f3575f3560e01c80638da5cb5b11610095578063e77aa68211610064578063e77aa682146101eb578063f2fde38b14610209578063f4ab9adf14610225578063fd20255c14610241576100f3565b80638da5cb5b146101895780638e7ea5b2146101a7578063a1b1f89a146101c5578063b31e1d4d146101cf576100f3565b80636334ef66116100d15780636334ef661461013b578063715018a614610145578063746536b51461014f578063898f00871461016b576100f3565b806326c7eb1c146100f75780632fdae3c51461011557806345ddbf7514610131575b5f80fd5b6100ff61024b565b60405161010c91906123f3565b60405180910390f35b61012f600480360381019061012a919061247c565b61039b565b005b6101396105b4565b005b610143610838565b005b61014d6109fc565b005b610169600480360381019061016491906124f1565b610a0f565b005b610173610ddb565b60405161018091906123f3565b60405180910390f35b6101916111b1565b60405161019e919061255b565b60405180910390f35b6101af6111d8565b6040516101bc919061258c565b60405180910390f35b6101cd611226565b005b6101e960048036038101906101e491906125cf565b61145d565b005b6101f3611624565b604051610200919061266d565b60405180910390f35b610223600480360381019061021e91906125cf565b611639565b005b61023f600480360381019061023a91906125cf565b6116bd565b005b610249611882565b005b60605f60078054905011610294576040517f08c379a000000000000000000000000000000000000000000000000000000000815260040161028b90612706565b60405180910390fd5b6007805480602002602001604051908101604052809291908181526020015f905b82821015610392578382905f5260205f2090600402016040518060800160405290815f82015481526020016001820180546102ef90612751565b80601f016020809104026020016040519081016040528092919081815260200182805461031b90612751565b80156103665780601f1061033d57610100808354040283529160200191610366565b820191905f5260205f20905b81548152906001019060200180831161034957829003601f168201915b5050505050815260200160028201548152602001600382015481525050815260200190600101906102b5565b50505050905090565b6001151560035f3373ffffffffffffffffffffffffffffffffffffffff1673ffffffffffffffffffffffffffffffffffffffff1681526020019081526020015f205f015f9054906101000a900460ff1615151461042d576040517f08c379a0000000000000000000000000000000000000000000000000000000008152600401610424906127cb565b60405180910390fd5b60016003811115610441576104406125fa565b5b60095f9054906101000a900460ff166003811115610462576104616125fa565b5b146104a2576040517f08c379a000000000000000000000000000000000000000000000000000000000815260040161049990612833565b60405180910390fd5b60076040518060800160405280600854815260200184848080601f0160208091040260200160405190810160405280939291908181526020018383808284375f81840152601f19601f8201169050808301925050505050505081526020015f81526020015f815250908060018154018082558091505060019003905f5260205f2090600402015f909190919091505f820151815f0155602082015181600101908161054d9190612a1b565b50604082015181600201556060820151816003015550507f92e393e9b54e2f801d3ea4beb0c5e71a21cc34a5d34b77d0fb8a3aa1650dc18f60085f81548092919061059790612b17565b919050556040516105a89190612b6d565b60405180910390a15050565b6105bc611b49565b6003808111156105cf576105ce6125fa565b5b60095f9054906101000a900460ff1660038111156105f0576105ef6125fa565b5b14610630576040517f08c379a000000000000000000000000000000000000000000000000000000000815260040161062790612bf6565b60405180910390fd5b600160028054905011610678576040517f08c379a000000000000000000000000000000000000000000000000000000000815260040161066f90612caa565b60405180910390fd5b60028054905060088190555060075f610691919061209d565b600260079080546106a39291906120be565b505f5b6007805490508110156106e8575f600782815481106106c8576106c7612cc8565b5b905f5260205f2090600402016002018190555080806001019150506106a6565b505f5b60048054905081101561080b575f60035f600484815481106107105761070f612cc8565b5b905f5260205f20015f9054906101000a900473ffffffffffffffffffffffffffffffffffffffff1673ffffffffffffffffffffffffffffffffffffffff1673ffffffffffffffffffffffffffffffffffffffff1681526020019081526020015f206001018190555060035f6004838154811061078f5761078e612cc8565b5b905f5260205f20015f9054906101000a900473ffffffffffffffffffffffffffffffffffffffff1673ffffffffffffffffffffffffffffffffffffffff1673ffffffffffffffffffffffffffffffffffffffff1681526020019081526020015f206003015f6107fe9190612143565b80806001019150506106eb565b50600260095f6101000a81548160ff02191690836003811115610831576108306125fa565b5b0217905550565b60038081111561084b5761084a6125fa565b5b60095f9054906101000a900460ff16600381111561086c5761086b6125fa565b5b146108ac576040517f08c379a00000000000000000000000000000000000000000000000000000000081526004016108a390612bf6565b60405180910390fd5b6108b4611b49565b5f60095f6101000a81548160ff021916908360038111156108d8576108d76125fa565b5b02179055505f60088190555060075f6108f1919061209d565b5f6005819055505f6006819055505f5b6004805490508110156109c55760035f6004838154811061092557610924612cc8565b5b905f5260205f20015f9054906101000a900473ffffffffffffffffffffffffffffffffffffffff1673ffffffffffffffffffffffffffffffffffffffff1673ffffffffffffffffffffffffffffffffffffffff1681526020019081526020015f205f8082015f6101000a81549060ff0219169055600182015f9055600282015f9055600382015f6109b69190612143565b50508080600101915050610901565b5060045f6109d39190612161565b7fffffffffffffffffffffffffffffffffffffffffffffffffffffffffffffffff600181905550565b610a04611b49565b610a0d5f611bd0565b565b6001151560035f3373ffffffffffffffffffffffffffffffffffffffff1673ffffffffffffffffffffffffffffffffffffffff1681526020019081526020015f205f015f9054906101000a900460ff16151514610aa1576040517f08c379a0000000000000000000000000000000000000000000000000000000008152600401610a98906127cb565b60405180910390fd5b60026003811115610ab557610ab46125fa565b5b60095f9054906101000a900460ff166003811115610ad657610ad56125fa565b5b14610b16576040517f08c379a0000000000000000000000000000000000000000000000000000000008152600401610b0d90612d3f565b60405180910390fd5b60035f3373ffffffffffffffffffffffffffffffffffffffff1673ffffffffffffffffffffffffffffffffffffffff1681526020019081526020015f206002015460035f3373ffffffffffffffffffffffffffffffffffffffff1673ffffffffffffffffffffffffffffffffffffffff1681526020019081526020015f206001015410610bd8576040517f08c379a0000000000000000000000000000000000000000000000000000000008152600401610bcf90612da7565b60405180910390fd5b5f8110158015610bec575060078054905081105b610c2b576040517f08c379a0000000000000000000000000000000000000000000000000000000008152600401610c2290612e35565b60405180910390fd5b60078181548110610c3f57610c3e612cc8565b5b905f5260205f2090600402016002015f815480929190610c5e90612b17565b91905055504260078281548110610c7857610c77612cc8565b5b905f5260205f2090600402016003018190555060035f3373ffffffffffffffffffffffffffffffffffffffff1673ffffffffffffffffffffffffffffffffffffffff1681526020019081526020015f206001015f815480929190610cdb90612b17565b919050555060035f3373ffffffffffffffffffffffffffffffffffffffff1673ffffffffffffffffffffffffffffffffffffffff1681526020019081526020015f2060030160078281548110610d3457610d33612cc8565b5b905f5260205f2090600402015f0154908060018154018082558091505060019003905f5260205f20015f909190919091505560065f815480929190610d7890612b17565b91905055507f4d99b957a2bc29a30ebd96a7be8e68fe50a3c701db28a91436490b7d53870ca43360078381548110610db357610db2612cc8565b5b905f5260205f2090600402015f0154604051610dd0929190612e53565b60405180910390a150565b6060600380811115610df057610def6125fa565b5b60095f9054906101000a900460ff166003811115610e1157610e106125fa565b5b14610e51576040517f08c379a0000000000000000000000000000000000000000000000000000000008152600401610e4890612bf6565b60405180910390fd5b5f805b600780549050811015611036575f60078281548110610e7657610e75612cc8565b5b905f5260205f2090600402016040518060800160405290815f8201548152602001600182018054610ea690612751565b80601f0160208091040260200160405190810160405280929190818152602001828054610ed290612751565b8015610f1d5780601f10610ef457610100808354040283529160200191610f1d565b820191905f5260205f20905b815481529060010190602001808311610f0057829003601f168201915b505050505081526020016002820154815260200160038201548152505090508281604001511115610fbe5760025f610f55919061209d565b600281908060018154018082558091505060019003905f5260205f2090600402015f909190919091505f820151815f01556020820151816001019081610f9b9190612a1b565b506040820151816002015560608201518160030155505080604001519250611028565b8281604001510361102757600281908060018154018082558091505060019003905f5260205f2090600402015f909190919091505f820151815f0155602082015181600101908161100f9190612a1b565b50604082015181600201556060820151816003015550505b5b508080600101915050610e54565b506001600280549050111561107f577f9152e2dccfc44aa8ab1fb145f54b5e72ae0202e28c3ce79d77c70e502c31eae260405161107290612f10565b60405180910390a16110a9565b60025f8154811061109357611092612cc8565b5b905f5260205f2090600402015f01546001819055505b6002805480602002602001604051908101604052809291908181526020015f905b828210156111a7578382905f5260205f2090600402016040518060800160405290815f820154815260200160018201805461110490612751565b80601f016020809104026020016040519081016040528092919081815260200182805461113090612751565b801561117b5780601f106111525761010080835404028352916020019161117b565b820191905f5260205f20905b81548152906001019060200180831161115e57829003601f168201915b5050505050815260200160028201548152602001600382015481525050815260200190600101906110ca565b5050505091505090565b5f805f9054906101000a900473ffffffffffffffffffffffffffffffffffffffff16905090565b5f80600154121561121e576040517f08c379a000000000000000000000000000000000000000000000000000000000815260040161121590612f9e565b60405180910390fd5b600154905090565b61122e611b49565b600380811115611241576112406125fa565b5b60095f9054906101000a900460ff166003811115611262576112616125fa565b5b146112a2576040517f08c379a000000000000000000000000000000000000000000000000000000000815260040161129990612bf6565b60405180910390fd5b6001600280549050116112ea576040517f08c379a00000000000000000000000000000000000000000000000000000000081526004016112e190612caa565b60405180910390fd5b5f4290506112f661217f565b5f5b60028054905081101561144e575f6002828154811061131a57611319612cc8565b5b905f5260205f209060040201600301541415801561135a5750826002828154811061134857611347612cc8565b5b905f5260205f20906004020160030154105b15611441576002818154811061137357611372612cc8565b5b905f5260205f2090600402016040518060800160405290815f82015481526020016001820180546113a390612751565b80601f01602080910402602001604051908101604052809291908181526020018280546113cf90612751565b801561141a5780601f106113f15761010080835404028352916020019161141a565b820191905f5260205f20905b8154815290600101906020018083116113fd57829003601f168201915b50505050508152602001600282015481526020016003820154815250509150816060015192505b80806001019150506112f8565b50805f01516001819055505050565b6001151560035f3373ffffffffffffffffffffffffffffffffffffffff1673ffffffffffffffffffffffffffffffffffffffff1681526020019081526020015f205f015f9054906101000a900460ff161515146114ef576040517f08c379a00000000000000000000000000000000000000000000000000000000081526004016114e6906127cb565b60405180910390fd5b5f6003811115611502576115016125fa565b5b60095f9054906101000a900460ff166003811115611523576115226125fa565b5b14611563576040517f08c379a000000000000000000000000000000000000000000000000000000000815260040161155a90613006565b60405180910390fd5b60035f8273ffffffffffffffffffffffffffffffffffffffff1673ffffffffffffffffffffffffffffffffffffffff1681526020019081526020015f205f015f9054906101000a900460ff161561160e5760035f8273ffffffffffffffffffffffffffffffffffffffff1673ffffffffffffffffffffffffffffffffffffffff1681526020019081526020015f206002015f81548092919061160490612b17565b9190505550611618565b61161781611c91565b5b61162133611d96565b50565b5f60095f9054906101000a900460ff16905090565b611641611b49565b5f73ffffffffffffffffffffffffffffffffffffffff168173ffffffffffffffffffffffffffffffffffffffff16036116b1575f6040517f1e4fbdf70000000000000000000000000000000000000000000000000000000081526004016116a8919061255b565b60405180910390fd5b6116ba81611bd0565b50565b6116c5611b49565b5f60038111156116d8576116d76125fa565b5b60095f9054906101000a900460ff1660038111156116f9576116f86125fa565b5b14611739576040517f08c379a000000000000000000000000000000000000000000000000000000000815260040161173090613006565b60405180910390fd5b6117416111b1565b73ffffffffffffffffffffffffffffffffffffffff168173ffffffffffffffffffffffffffffffffffffffff16036117ae576040517f08c379a00000000000000000000000000000000000000000000000000000000081526004016117a59061306e565b60405180910390fd5b5f151560035f8373ffffffffffffffffffffffffffffffffffffffff1673ffffffffffffffffffffffffffffffffffffffff1681526020019081526020015f205f015f9054906101000a900460ff1615151461183f576040517f08c379a0000000000000000000000000000000000000000000000000000000008152600401611836906130d6565b60405180910390fd5b61184881611c91565b7fb6be2187d059cc2a55fe29e0e503b566e1e0f8c8780096e185429350acffd3dd81604051611877919061255b565b60405180910390a150565b61188a611b49565b60035f600381111561189f5761189e6125fa565b5b60095f9054906101000a900460ff1660038111156118c0576118bf6125fa565b5b0361190b5780600554101561190a576040517f08c379a000000000000000000000000000000000000000000000000000000000815260040161190190613164565b60405180910390fd5b5b600260016003811115611921576119206125fa565b5b60095f9054906101000a900460ff166003811115611942576119416125fa565b5b0361198d5780600854101561198c576040517f08c379a0000000000000000000000000000000000000000000000000000000008152600401611983906131f2565b60405180910390fd5b5b6001600260038111156119a3576119a26125fa565b5b60095f9054906101000a900460ff1660038111156119c4576119c36125fa565b5b03611a0f57806006541015611a0e576040517f08c379a0000000000000000000000000000000000000000000000000000000008152600401611a0590613280565b60405180910390fd5b5b600380811115611a2257611a216125fa565b5b60095f9054906101000a900460ff166003811115611a4357611a426125fa565b5b03611a83576040517f08c379a0000000000000000000000000000000000000000000000000000000008152600401611a7a9061330e565b60405180910390fd5b5f60095f9054906101000a900460ff169050600160095f9054906101000a900460ff166003811115611ab857611ab76125fa565b5b611ac2919061332c565b6003811115611ad457611ad36125fa565b5b60095f6101000a81548160ff02191690836003811115611af757611af66125fa565b5b02179055507f0a97a4ee45751e2abf3e4fc8946939630b11b371ea8ae39ccdc3056e98f5cc3f8160095f9054906101000a900460ff16604051611b3b92919061335f565b60405180910390a150505050565b611b51611f95565b73ffffffffffffffffffffffffffffffffffffffff16611b6f6111b1565b73ffffffffffffffffffffffffffffffffffffffff1614611bce57611b92611f95565b6040517f118cdaa7000000000000000000000000000000000000000000000000000000008152600401611bc5919061255b565b60405180910390fd5b565b5f805f9054906101000a900473ffffffffffffffffffffffffffffffffffffffff169050815f806101000a81548173ffffffffffffffffffffffffffffffffffffffff021916908373ffffffffffffffffffffffffffffffffffffffff1602179055508173ffffffffffffffffffffffffffffffffffffffff168173ffffffffffffffffffffffffffffffffffffffff167f8be0079c531659141344cd1fd0a4f28419497f9722a3daafe3b4186f6b6457e060405160405180910390a35050565b5f60035f8373ffffffffffffffffffffffffffffffffffffffff1673ffffffffffffffffffffffffffffffffffffffff1681526020019081526020015f2060010181905550600160035f8373ffffffffffffffffffffffffffffffffffffffff1673ffffffffffffffffffffffffffffffffffffffff1681526020019081526020015f2060020181905550600160035f8373ffffffffffffffffffffffffffffffffffffffff1673ffffffffffffffffffffffffffffffffffffffff1681526020019081526020015f205f015f6101000a81548160ff021916908315150217905550611d7c81611f9c565b60055f815480929190611d8e90612b17565b919050555050565b5f60035f8373ffffffffffffffffffffffffffffffffffffffff1673ffffffffffffffffffffffffffffffffffffffff1681526020019081526020015f205f015f6101000a81548160ff0219169083151502179055505f60035f8373ffffffffffffffffffffffffffffffffffffffff1673ffffffffffffffffffffffffffffffffffffffff1681526020019081526020015f2060010181905550600160035f8373ffffffffffffffffffffffffffffffffffffffff1673ffffffffffffffffffffffffffffffffffffffff1681526020019081526020015f206002018190555060035f8273ffffffffffffffffffffffffffffffffffffffff1673ffffffffffffffffffffffffffffffffffffffff1681526020019081526020015f206003015f611ec29190612143565b5f5b600480549050811015611f91578173ffffffffffffffffffffffffffffffffffffffff1660048281548110611efc57611efb612cc8565b5b905f5260205f20015f9054906101000a900473ffffffffffffffffffffffffffffffffffffffff1673ffffffffffffffffffffffffffffffffffffffff1603611f84576004805480611f5157611f50613386565b5b600190038181905f5260205f20015f6101000a81549073ffffffffffffffffffffffffffffffffffffffff021916905590555b8080600101915050611ec4565b5050565b5f33905090565b5f805b60048054905081101561202c578273ffffffffffffffffffffffffffffffffffffffff1660048281548110611fd757611fd6612cc8565b5b905f5260205f20015f9054906101000a900473ffffffffffffffffffffffffffffffffffffffff1673ffffffffffffffffffffffffffffffffffffffff160361201f57600191505b8080600101915050611f9f565b505f15158115150361209957600482908060018154018082558091505060019003905f5260205f20015f9091909190916101000a81548173ffffffffffffffffffffffffffffffffffffffff021916908373ffffffffffffffffffffffffffffffffffffffff1602179055505b5050565b5080545f8255600402905f5260205f20908101906120bb91906121a4565b50565b828054828255905f5260205f20906004028101928215612132575f5260205f209160040282015b828111156121315782825f820154815f01556001820181600101908161210b91906133c8565b5060028201548160020155600382015481600301555050916004019190600401906120e5565b5b50905061213f91906121a4565b5090565b5080545f8255905f5260205f209081019061215e91906121de565b50565b5080545f8255905f5260205f209081019061217c91906121de565b50565b60405180608001604052805f8152602001606081526020015f81526020015f81525090565b5b808211156121da575f8082015f9055600182015f6121c391906121f9565b600282015f9055600382015f9055506004016121a5565b5090565b5b808211156121f5575f815f9055506001016121df565b5090565b50805461220590612751565b5f825580601f106122165750612233565b601f0160209004905f5260205f209081019061223291906121de565b5b50565b5f81519050919050565b5f82825260208201905092915050565b5f819050602082019050919050565b5f819050919050565b6122718161225f565b82525050565b5f81519050919050565b5f82825260208201905092915050565b5f5b838110156122ae578082015181840152602081019050612293565b5f8484015250505050565b5f601f19601f8301169050919050565b5f6122d382612277565b6122dd8185612281565b93506122ed818560208601612291565b6122f6816122b9565b840191505092915050565b5f608083015f8301516123165f860182612268565b506020830151848203602086015261232e82826122c9565b91505060408301516123436040860182612268565b5060608301516123566060860182612268565b508091505092915050565b5f61236c8383612301565b905092915050565b5f602082019050919050565b5f61238a82612236565b6123948185612240565b9350836020820285016123a685612250565b805f5b858110156123e157848403895281516123c28582612361565b94506123cd83612374565b925060208a019950506001810190506123a9565b50829750879550505050505092915050565b5f6020820190508181035f83015261240b8184612380565b905092915050565b5f80fd5b5f80fd5b5f80fd5b5f80fd5b5f80fd5b5f8083601f84011261243c5761243b61241b565b5b8235905067ffffffffffffffff8111156124595761245861241f565b5b60208301915083600182028301111561247557612474612423565b5b9250929050565b5f806020838503121561249257612491612413565b5b5f83013567ffffffffffffffff8111156124af576124ae612417565b5b6124bb85828601612427565b92509250509250929050565b6124d08161225f565b81146124da575f80fd5b50565b5f813590506124eb816124c7565b92915050565b5f6020828403121561250657612505612413565b5b5f612513848285016124dd565b91505092915050565b5f73ffffffffffffffffffffffffffffffffffffffff82169050919050565b5f6125458261251c565b9050919050565b6125558161253b565b82525050565b5f60208201905061256e5f83018461254c565b92915050565b5f819050919050565b61258681612574565b82525050565b5f60208201905061259f5f83018461257d565b92915050565b6125ae8161253b565b81146125b8575f80fd5b50565b5f813590506125c9816125a5565b92915050565b5f602082840312156125e4576125e3612413565b5b5f6125f1848285016125bb565b91505092915050565b7f4e487b71000000000000000000000000000000000000000000000000000000005f52602160045260245ffd5b60048110612638576126376125fa565b5b50565b5f81905061264882612627565b919050565b5f6126578261263b565b9050919050565b6126678161264d565b82525050565b5f6020820190506126805f83018461265e565b92915050565b5f82825260208201905092915050565b7f546865726520617265206e6f2070726f706f736974696f6e73207265676973745f8201527f6572656420796574210000000000000000000000000000000000000000000000602082015250565b5f6126f0602983612686565b91506126fb82612696565b604082019050919050565b5f6020820190508181035f83015261271d816126e4565b9050919050565b7f4e487b71000000000000000000000000000000000000000000000000000000005f52602260045260245ffd5b5f600282049050600182168061276857607f821691505b60208210810361277b5761277a612724565b5b50919050565b7f596f7520617265206e6f7420612076616c696420766f746572210000000000005f82015250565b5f6127b5601a83612686565b91506127c082612781565b602082019050919050565b5f6020820190508181035f8301526127e2816127a9565b9050919050565b7f596f752063616e6e6f742072656769737465722070726f706f73616c730000005f82015250565b5f61281d601d83612686565b9150612828826127e9565b602082019050919050565b5f6020820190508181035f83015261284a81612811565b9050919050565b7f4e487b71000000000000000000000000000000000000000000000000000000005f52604160045260245ffd5b5f819050815f5260205f209050919050565b5f6020601f8301049050919050565b5f82821b905092915050565b5f600883026128da7fffffffffffffffffffffffffffffffffffffffffffffffffffffffffffffffff8261289f565b6128e4868361289f565b95508019841693508086168417925050509392505050565b5f819050919050565b5f61291f61291a6129158461225f565b6128fc565b61225f565b9050919050565b5f819050919050565b61293883612905565b61294c61294482612926565b8484546128ab565b825550505050565b5f90565b612960612954565b61296b81848461292f565b505050565b5b8181101561298e576129835f82612958565b600181019050612971565b5050565b601f8211156129d3576129a48161287e565b6129ad84612890565b810160208510156129bc578190505b6129d06129c885612890565b830182612970565b50505b505050565b5f82821c905092915050565b5f6129f35f19846008026129d8565b1980831691505092915050565b5f612a0b83836129e4565b9150826002028217905092915050565b612a2482612277565b67ffffffffffffffff811115612a3d57612a3c612851565b5b612a478254612751565b612a52828285612992565b5f60209050601f831160018114612a83575f8415612a71578287015190505b612a7b8582612a00565b865550612ae2565b601f198416612a918661287e565b5f5b82811015612ab857848901518255600182019150602085019450602081019050612a93565b86831015612ad55784890151612ad1601f8916826129e4565b8355505b6001600288020188555050505b505050505050565b7f4e487b71000000000000000000000000000000000000000000000000000000005f52601160045260245ffd5b5f612b218261225f565b91507fffffffffffffffffffffffffffffffffffffffffffffffffffffffffffffffff8203612b5357612b52612aea565b5b600182019050919050565b612b678161225f565b82525050565b5f602082019050612b805f830184612b5e565b92915050565b7f566f746573206e65656420746f2062652074616c6c69656420696e206f7264655f8201527f7220746f20706572666f726d2074686973206f7065726174696f6e0000000000602082015250565b5f612be0603b83612686565b9150612beb82612b86565b604082019050919050565b5f6020820190508181035f830152612c0d81612bd4565b9050919050565b7f546865726520617265206e6f20657175616c69747920696e20726573756c74735f8201527f20736f20776520646f6e2774206e65656420746f20627265616b20746865207460208201527f6965210000000000000000000000000000000000000000000000000000000000604082015250565b5f612c94604383612686565b9150612c9f82612c14565b606082019050919050565b5f6020820190508181035f830152612cc181612c88565b9050919050565b7f4e487b71000000000000000000000000000000000000000000000000000000005f52603260045260245ffd5b7f596f752063616e6e6f7420766f74652070726f706f73616c73000000000000005f82015250565b5f612d29601983612686565b9150612d3482612cf5565b602082019050919050565b5f6020820190508181035f830152612d5681612d1d565b9050919050565b7f596f7520616c7265616479207573656420616c6c20796f757220766f746573215f82015250565b5f612d91602083612686565b9150612d9c82612d5d565b602082019050919050565b5f6020820190508181035f830152612dbe81612d85565b9050919050565b7f5468652070726f706f736974696f6e20796f7527726520766f74696e6720666f5f8201527f7220646f6573206e6f7420657869737421000000000000000000000000000000602082015250565b5f612e1f603183612686565b9150612e2a82612dc5565b604082019050919050565b5f6020820190508181035f830152612e4c81612e13565b9050919050565b5f604082019050612e665f83018561254c565b612e736020830184612b5e565b9392505050565b7f596f75206d75737420766f746520616761696e20666f72206f6e65206f6620745f8201527f68652070726f706f736974696f6e73207768696368207175616c69666965642060208201527f70726576696f75736c7921000000000000000000000000000000000000000000604082015250565b5f612efa604b83612686565b9150612f0582612e7a565b606082019050919050565b5f6020820190508181035f830152612f2781612eee565b9050919050565b7f5468657265206973206e6f2077696e6e696e672070726f706f736974696f6e205f8201527f7965742100000000000000000000000000000000000000000000000000000000602082015250565b5f612f88602483612686565b9150612f9382612f2e565b604082019050919050565b5f6020820190508181035f830152612fb581612f7c565b9050919050565b7f596f752063616e6e6f7420726567697374657220766f746572730000000000005f82015250565b5f612ff0601a83612686565b9150612ffb82612fbc565b602082019050919050565b5f6020820190508181035f83015261301d81612fe4565b9050919050565b7f4f776e65722063616e6e6f7420766f74652100000000000000000000000000005f82015250565b5f613058601283612686565b915061306382613024565b602082019050919050565b5f6020820190508181035f8301526130858161304c565b9050919050565b7f566f74657220616c7265616479207265676973746572656421000000000000005f82015250565b5f6130c0601983612686565b91506130cb8261308c565b602082019050919050565b5f6020820190508181035f8301526130ed816130b4565b9050919050565b7f41206d696e696d756d206e756d626572206f6620766f746572732061726520725f8201527f6571756972656420746f20636f6e74696e756500000000000000000000000000602082015250565b5f61314e603383612686565b9150613159826130f4565b604082019050919050565b5f6020820190508181035f83015261317b81613142565b9050919050565b7f41206d696e696d756d206e756d626572206f662070726f706f736974696f6e735f8201527f2061726520726571756972656420746f20636f6e74696e756500000000000000602082015250565b5f6131dc603983612686565b91506131e782613182565b604082019050919050565b5f6020820190508181035f830152613209816131d0565b9050919050565b7f41206d696e696d756d206e756d626572206f6620766f746573206172652072655f8201527f71756972656420746f20636f6e74696e75650000000000000000000000000000602082015250565b5f61326a603283612686565b915061327582613210565b604082019050919050565b5f6020820190508181035f8301526132978161325e565b9050919050565b7f566f746573206861766520746f2062652074616c6c6965642e204974206973205f8201527f6f7665722e205468657265206973206e6f206e65787420737465702100000000602082015250565b5f6132f8603c83612686565b91506133038261329e565b604082019050919050565b5f6020820190508181035f830152613325816132ec565b9050919050565b5f6133368261225f565b91506133418361225f565b925082820190508082111561335957613358612aea565b5b92915050565b5f6040820190506133725f83018561265e565b61337f602083018461265e565b9392505050565b7f4e487b71000000000000000000000000000000000000000000000000000000005f52603160045260245ffd5b5f815490506133c181612751565b9050919050565b8181036133d65750506134ab565b6133df826133b3565b67ffffffffffffffff8111156133f8576133f7612851565b5b6134028254612751565b61340d828285612992565b5f601f83116001811461343a575f8415613428578287015490505b6134328582612a00565b8655506134a4565b601f1984166134488761287e565b96506134538661287e565b5f5b8281101561347a57848901548255600182019150600185019450602081019050613455565b868310156134975784890154613493601f8916826129e4565b8355505b6001600288020188555050505b5050505050505b56fea264697066735822122055515c43253db05e23c1e1c72fb06d2f4de94da44a526164ed915d34d3fd20a064736f6c63430008170033",
					"opcodes": "PUSH1 0x80 PUSH1 0x40 MSTORE PUSH32 0xFFFFFFFFFFFFFFFFFFFFFFFFFFFFFFFFFFFFFFFFFFFFFFFFFFFFFFFFFFFFFFFF PUSH1 0x1 SSTORE PUSH0 PUSH1 0x5 SSTORE PUSH0 PUSH1 0x6 SSTORE PUSH0 PUSH1 0x8 SSTORE CALLVALUE DUP1 ISZERO PUSH3 0x40 JUMPI PUSH0 DUP1 REVERT JUMPDEST POP CALLER PUSH0 PUSH20 0xFFFFFFFFFFFFFFFFFFFFFFFFFFFFFFFFFFFFFFFF AND DUP2 PUSH20 0xFFFFFFFFFFFFFFFFFFFFFFFFFFFFFFFFFFFFFFFF AND SUB PUSH3 0xB5 JUMPI PUSH0 PUSH1 0x40 MLOAD PUSH32 0x1E4FBDF700000000000000000000000000000000000000000000000000000000 DUP2 MSTORE PUSH1 0x4 ADD PUSH3 0xAC SWAP2 SWAP1 PUSH3 0x1FD JUMP JUMPDEST PUSH1 0x40 MLOAD DUP1 SWAP2 SUB SWAP1 REVERT JUMPDEST PUSH3 0xC6 DUP2 PUSH3 0xF9 PUSH1 0x20 SHL PUSH1 0x20 SHR JUMP JUMPDEST POP PUSH0 PUSH1 0x9 PUSH0 PUSH2 0x100 EXP DUP2 SLOAD DUP2 PUSH1 0xFF MUL NOT AND SWAP1 DUP4 PUSH1 0x3 DUP2 GT ISZERO PUSH3 0xEE JUMPI PUSH3 0xED PUSH3 0x218 JUMP JUMPDEST JUMPDEST MUL OR SWAP1 SSTORE POP PUSH3 0x245 JUMP JUMPDEST PUSH0 DUP1 PUSH0 SWAP1 SLOAD SWAP1 PUSH2 0x100 EXP SWAP1 DIV PUSH20 0xFFFFFFFFFFFFFFFFFFFFFFFFFFFFFFFFFFFFFFFF AND SWAP1 POP DUP2 PUSH0 DUP1 PUSH2 0x100 EXP DUP2 SLOAD DUP2 PUSH20 0xFFFFFFFFFFFFFFFFFFFFFFFFFFFFFFFFFFFFFFFF MUL NOT AND SWAP1 DUP4 PUSH20 0xFFFFFFFFFFFFFFFFFFFFFFFFFFFFFFFFFFFFFFFF AND MUL OR SWAP1 SSTORE POP DUP2 PUSH20 0xFFFFFFFFFFFFFFFFFFFFFFFFFFFFFFFFFFFFFFFF AND DUP2 PUSH20 0xFFFFFFFFFFFFFFFFFFFFFFFFFFFFFFFFFFFFFFFF AND PUSH32 0x8BE0079C531659141344CD1FD0A4F28419497F9722A3DAAFE3B4186F6B6457E0 PUSH1 0x40 MLOAD PUSH1 0x40 MLOAD DUP1 SWAP2 SUB SWAP1 LOG3 POP POP JUMP JUMPDEST PUSH0 PUSH20 0xFFFFFFFFFFFFFFFFFFFFFFFFFFFFFFFFFFFFFFFF DUP3 AND SWAP1 POP SWAP2 SWAP1 POP JUMP JUMPDEST PUSH0 PUSH3 0x1E5 DUP3 PUSH3 0x1BA JUMP JUMPDEST SWAP1 POP SWAP2 SWAP1 POP JUMP JUMPDEST PUSH3 0x1F7 DUP2 PUSH3 0x1D9 JUMP JUMPDEST DUP3 MSTORE POP POP JUMP JUMPDEST PUSH0 PUSH1 0x20 DUP3 ADD SWAP1 POP PUSH3 0x212 PUSH0 DUP4 ADD DUP5 PUSH3 0x1EC JUMP JUMPDEST SWAP3 SWAP2 POP POP JUMP JUMPDEST PUSH32 0x4E487B7100000000000000000000000000000000000000000000000000000000 PUSH0 MSTORE PUSH1 0x21 PUSH1 0x4 MSTORE PUSH1 0x24 PUSH0 REVERT JUMPDEST PUSH2 0x34E3 DUP1 PUSH3 0x253 PUSH0 CODECOPY PUSH0 RETURN INVALID PUSH1 0x80 PUSH1 0x40 MSTORE CALLVALUE DUP1 ISZERO PUSH2 0xF JUMPI PUSH0 DUP1 REVERT JUMPDEST POP PUSH1 0x4 CALLDATASIZE LT PUSH2 0xF3 JUMPI PUSH0 CALLDATALOAD PUSH1 0xE0 SHR DUP1 PUSH4 0x8DA5CB5B GT PUSH2 0x95 JUMPI DUP1 PUSH4 0xE77AA682 GT PUSH2 0x64 JUMPI DUP1 PUSH4 0xE77AA682 EQ PUSH2 0x1EB JUMPI DUP1 PUSH4 0xF2FDE38B EQ PUSH2 0x209 JUMPI DUP1 PUSH4 0xF4AB9ADF EQ PUSH2 0x225 JUMPI DUP1 PUSH4 0xFD20255C EQ PUSH2 0x241 JUMPI PUSH2 0xF3 JUMP JUMPDEST DUP1 PUSH4 0x8DA5CB5B EQ PUSH2 0x189 JUMPI DUP1 PUSH4 0x8E7EA5B2 EQ PUSH2 0x1A7 JUMPI DUP1 PUSH4 0xA1B1F89A EQ PUSH2 0x1C5 JUMPI DUP1 PUSH4 0xB31E1D4D EQ PUSH2 0x1CF JUMPI PUSH2 0xF3 JUMP JUMPDEST DUP1 PUSH4 0x6334EF66 GT PUSH2 0xD1 JUMPI DUP1 PUSH4 0x6334EF66 EQ PUSH2 0x13B JUMPI DUP1 PUSH4 0x715018A6 EQ PUSH2 0x145 JUMPI DUP1 PUSH4 0x746536B5 EQ PUSH2 0x14F JUMPI DUP1 PUSH4 0x898F0087 EQ PUSH2 0x16B JUMPI PUSH2 0xF3 JUMP JUMPDEST DUP1 PUSH4 0x26C7EB1C EQ PUSH2 0xF7 JUMPI DUP1 PUSH4 0x2FDAE3C5 EQ PUSH2 0x115 JUMPI DUP1 PUSH4 0x45DDBF75 EQ PUSH2 0x131 JUMPI JUMPDEST PUSH0 DUP1 REVERT JUMPDEST PUSH2 0xFF PUSH2 0x24B JUMP JUMPDEST PUSH1 0x40 MLOAD PUSH2 0x10C SWAP2 SWAP1 PUSH2 0x23F3 JUMP JUMPDEST PUSH1 0x40 MLOAD DUP1 SWAP2 SUB SWAP1 RETURN JUMPDEST PUSH2 0x12F PUSH1 0x4 DUP1 CALLDATASIZE SUB DUP2 ADD SWAP1 PUSH2 0x12A SWAP2 SWAP1 PUSH2 0x247C JUMP JUMPDEST PUSH2 0x39B JUMP JUMPDEST STOP JUMPDEST PUSH2 0x139 PUSH2 0x5B4 JUMP JUMPDEST STOP JUMPDEST PUSH2 0x143 PUSH2 0x838 JUMP JUMPDEST STOP JUMPDEST PUSH2 0x14D PUSH2 0x9FC JUMP JUMPDEST STOP JUMPDEST PUSH2 0x169 PUSH1 0x4 DUP1 CALLDATASIZE SUB DUP2 ADD SWAP1 PUSH2 0x164 SWAP2 SWAP1 PUSH2 0x24F1 JUMP JUMPDEST PUSH2 0xA0F JUMP JUMPDEST STOP JUMPDEST PUSH2 0x173 PUSH2 0xDDB JUMP JUMPDEST PUSH1 0x40 MLOAD PUSH2 0x180 SWAP2 SWAP1 PUSH2 0x23F3 JUMP JUMPDEST PUSH1 0x40 MLOAD DUP1 SWAP2 SUB SWAP1 RETURN JUMPDEST PUSH2 0x191 PUSH2 0x11B1 JUMP JUMPDEST PUSH1 0x40 MLOAD PUSH2 0x19E SWAP2 SWAP1 PUSH2 0x255B JUMP JUMPDEST PUSH1 0x40 MLOAD DUP1 SWAP2 SUB SWAP1 RETURN JUMPDEST PUSH2 0x1AF PUSH2 0x11D8 JUMP JUMPDEST PUSH1 0x40 MLOAD PUSH2 0x1BC SWAP2 SWAP1 PUSH2 0x258C JUMP JUMPDEST PUSH1 0x40 MLOAD DUP1 SWAP2 SUB SWAP1 RETURN JUMPDEST PUSH2 0x1CD PUSH2 0x1226 JUMP JUMPDEST STOP JUMPDEST PUSH2 0x1E9 PUSH1 0x4 DUP1 CALLDATASIZE SUB DUP2 ADD SWAP1 PUSH2 0x1E4 SWAP2 SWAP1 PUSH2 0x25CF JUMP JUMPDEST PUSH2 0x145D JUMP JUMPDEST STOP JUMPDEST PUSH2 0x1F3 PUSH2 0x1624 JUMP JUMPDEST PUSH1 0x40 MLOAD PUSH2 0x200 SWAP2 SWAP1 PUSH2 0x266D JUMP JUMPDEST PUSH1 0x40 MLOAD DUP1 SWAP2 SUB SWAP1 RETURN JUMPDEST PUSH2 0x223 PUSH1 0x4 DUP1 CALLDATASIZE SUB DUP2 ADD SWAP1 PUSH2 0x21E SWAP2 SWAP1 PUSH2 0x25CF JUMP JUMPDEST PUSH2 0x1639 JUMP JUMPDEST STOP JUMPDEST PUSH2 0x23F PUSH1 0x4 DUP1 CALLDATASIZE SUB DUP2 ADD SWAP1 PUSH2 0x23A SWAP2 SWAP1 PUSH2 0x25CF JUMP JUMPDEST PUSH2 0x16BD JUMP JUMPDEST STOP JUMPDEST PUSH2 0x249 PUSH2 0x1882 JUMP JUMPDEST STOP JUMPDEST PUSH1 0x60 PUSH0 PUSH1 0x7 DUP1 SLOAD SWAP1 POP GT PUSH2 0x294 JUMPI PUSH1 0x40 MLOAD PUSH32 0x8C379A000000000000000000000000000000000000000000000000000000000 DUP2 MSTORE PUSH1 0x4 ADD PUSH2 0x28B SWAP1 PUSH2 0x2706 JUMP JUMPDEST PUSH1 0x40 MLOAD DUP1 SWAP2 SUB SWAP1 REVERT JUMPDEST PUSH1 0x7 DUP1 SLOAD DUP1 PUSH1 0x20 MUL PUSH1 0x20 ADD PUSH1 0x40 MLOAD SWAP1 DUP2 ADD PUSH1 0x40 MSTORE DUP1 SWAP3 SWAP2 SWAP1 DUP2 DUP2 MSTORE PUSH1 0x20 ADD PUSH0 SWAP1 JUMPDEST DUP3 DUP3 LT ISZERO PUSH2 0x392 JUMPI DUP4 DUP3 SWAP1 PUSH0 MSTORE PUSH1 0x20 PUSH0 KECCAK256 SWAP1 PUSH1 0x4 MUL ADD PUSH1 0x40 MLOAD DUP1 PUSH1 0x80 ADD PUSH1 0x40 MSTORE SWAP1 DUP2 PUSH0 DUP3 ADD SLOAD DUP2 MSTORE PUSH1 0x20 ADD PUSH1 0x1 DUP3 ADD DUP1 SLOAD PUSH2 0x2EF SWAP1 PUSH2 0x2751 JUMP JUMPDEST DUP1 PUSH1 0x1F ADD PUSH1 0x20 DUP1 SWAP2 DIV MUL PUSH1 0x20 ADD PUSH1 0x40 MLOAD SWAP1 DUP2 ADD PUSH1 0x40 MSTORE DUP1 SWAP3 SWAP2 SWAP1 DUP2 DUP2 MSTORE PUSH1 0x20 ADD DUP3 DUP1 SLOAD PUSH2 0x31B SWAP1 PUSH2 0x2751 JUMP JUMPDEST DUP1 ISZERO PUSH2 0x366 JUMPI DUP1 PUSH1 0x1F LT PUSH2 0x33D JUMPI PUSH2 0x100 DUP1 DUP4 SLOAD DIV MUL DUP4 MSTORE SWAP2 PUSH1 0x20 ADD SWAP2 PUSH2 0x366 JUMP JUMPDEST DUP3 ADD SWAP2 SWAP1 PUSH0 MSTORE PUSH1 0x20 PUSH0 KECCAK256 SWAP1 JUMPDEST DUP2 SLOAD DUP2 MSTORE SWAP1 PUSH1 0x1 ADD SWAP1 PUSH1 0x20 ADD DUP1 DUP4 GT PUSH2 0x349 JUMPI DUP3 SWAP1 SUB PUSH1 0x1F AND DUP3 ADD SWAP2 JUMPDEST POP POP POP POP POP DUP2 MSTORE PUSH1 0x20 ADD PUSH1 0x2 DUP3 ADD SLOAD DUP2 MSTORE PUSH1 0x20 ADD PUSH1 0x3 DUP3 ADD SLOAD DUP2 MSTORE POP POP DUP2 MSTORE PUSH1 0x20 ADD SWAP1 PUSH1 0x1 ADD SWAP1 PUSH2 0x2B5 JUMP JUMPDEST POP POP POP POP SWAP1 POP SWAP1 JUMP JUMPDEST PUSH1 0x1 ISZERO ISZERO PUSH1 0x3 PUSH0 CALLER PUSH20 0xFFFFFFFFFFFFFFFFFFFFFFFFFFFFFFFFFFFFFFFF AND PUSH20 0xFFFFFFFFFFFFFFFFFFFFFFFFFFFFFFFFFFFFFFFF AND DUP2 MSTORE PUSH1 0x20 ADD SWAP1 DUP2 MSTORE PUSH1 0x20 ADD PUSH0 KECCAK256 PUSH0 ADD PUSH0 SWAP1 SLOAD SWAP1 PUSH2 0x100 EXP SWAP1 DIV PUSH1 0xFF AND ISZERO ISZERO EQ PUSH2 0x42D JUMPI PUSH1 0x40 MLOAD PUSH32 0x8C379A000000000000000000000000000000000000000000000000000000000 DUP2 MSTORE PUSH1 0x4 ADD PUSH2 0x424 SWAP1 PUSH2 0x27CB JUMP JUMPDEST PUSH1 0x40 MLOAD DUP1 SWAP2 SUB SWAP1 REVERT JUMPDEST PUSH1 0x1 PUSH1 0x3 DUP2 GT ISZERO PUSH2 0x441 JUMPI PUSH2 0x440 PUSH2 0x25FA JUMP JUMPDEST JUMPDEST PUSH1 0x9 PUSH0 SWAP1 SLOAD SWAP1 PUSH2 0x100 EXP SWAP1 DIV PUSH1 0xFF AND PUSH1 0x3 DUP2 GT ISZERO PUSH2 0x462 JUMPI PUSH2 0x461 PUSH2 0x25FA JUMP JUMPDEST JUMPDEST EQ PUSH2 0x4A2 JUMPI PUSH1 0x40 MLOAD PUSH32 0x8C379A000000000000000000000000000000000000000000000000000000000 DUP2 MSTORE PUSH1 0x4 ADD PUSH2 0x499 SWAP1 PUSH2 0x2833 JUMP JUMPDEST PUSH1 0x40 MLOAD DUP1 SWAP2 SUB SWAP1 REVERT JUMPDEST PUSH1 0x7 PUSH1 0x40 MLOAD DUP1 PUSH1 0x80 ADD PUSH1 0x40 MSTORE DUP1 PUSH1 0x8 SLOAD DUP2 MSTORE PUSH1 0x20 ADD DUP5 DUP5 DUP1 DUP1 PUSH1 0x1F ADD PUSH1 0x20 DUP1 SWAP2 DIV MUL PUSH1 0x20 ADD PUSH1 0x40 MLOAD SWAP1 DUP2 ADD PUSH1 0x40 MSTORE DUP1 SWAP4 SWAP3 SWAP2 SWAP1 DUP2 DUP2 MSTORE PUSH1 0x20 ADD DUP4 DUP4 DUP1 DUP3 DUP5 CALLDATACOPY PUSH0 DUP2 DUP5 ADD MSTORE PUSH1 0x1F NOT PUSH1 0x1F DUP3 ADD AND SWAP1 POP DUP1 DUP4 ADD SWAP3 POP POP POP POP POP POP POP DUP2 MSTORE PUSH1 0x20 ADD PUSH0 DUP2 MSTORE PUSH1 0x20 ADD PUSH0 DUP2 MSTORE POP SWAP1 DUP1 PUSH1 0x1 DUP2 SLOAD ADD DUP1 DUP3 SSTORE DUP1 SWAP2 POP POP PUSH1 0x1 SWAP1 SUB SWAP1 PUSH0 MSTORE PUSH1 0x20 PUSH0 KECCAK256 SWAP1 PUSH1 0x4 MUL ADD PUSH0 SWAP1 SWAP2 SWAP1 SWAP2 SWAP1 SWAP2 POP PUSH0 DUP3 ADD MLOAD DUP2 PUSH0 ADD SSTORE PUSH1 0x20 DUP3 ADD MLOAD DUP2 PUSH1 0x1 ADD SWAP1 DUP2 PUSH2 0x54D SWAP2 SWAP1 PUSH2 0x2A1B JUMP JUMPDEST POP PUSH1 0x40 DUP3 ADD MLOAD DUP2 PUSH1 0x2 ADD SSTORE PUSH1 0x60 DUP3 ADD MLOAD DUP2 PUSH1 0x3 ADD SSTORE POP POP PUSH32 0x92E393E9B54E2F801D3EA4BEB0C5E71A21CC34A5D34B77D0FB8A3AA1650DC18F PUSH1 0x8 PUSH0 DUP2 SLOAD DUP1 SWAP3 SWAP2 SWAP1 PUSH2 0x597 SWAP1 PUSH2 0x2B17 JUMP JUMPDEST SWAP2 SWAP1 POP SSTORE PUSH1 0x40 MLOAD PUSH2 0x5A8 SWAP2 SWAP1 PUSH2 0x2B6D JUMP JUMPDEST PUSH1 0x40 MLOAD DUP1 SWAP2 SUB SWAP1 LOG1 POP POP JUMP JUMPDEST PUSH2 0x5BC PUSH2 0x1B49 JUMP JUMPDEST PUSH1 0x3 DUP1 DUP2 GT ISZERO PUSH2 0x5CF JUMPI PUSH2 0x5CE PUSH2 0x25FA JUMP JUMPDEST JUMPDEST PUSH1 0x9 PUSH0 SWAP1 SLOAD SWAP1 PUSH2 0x100 EXP SWAP1 DIV PUSH1 0xFF AND PUSH1 0x3 DUP2 GT ISZERO PUSH2 0x5F0 JUMPI PUSH2 0x5EF PUSH2 0x25FA JUMP JUMPDEST JUMPDEST EQ PUSH2 0x630 JUMPI PUSH1 0x40 MLOAD PUSH32 0x8C379A000000000000000000000000000000000000000000000000000000000 DUP2 MSTORE PUSH1 0x4 ADD PUSH2 0x627 SWAP1 PUSH2 0x2BF6 JUMP JUMPDEST PUSH1 0x40 MLOAD DUP1 SWAP2 SUB SWAP1 REVERT JUMPDEST PUSH1 0x1 PUSH1 0x2 DUP1 SLOAD SWAP1 POP GT PUSH2 0x678 JUMPI PUSH1 0x40 MLOAD PUSH32 0x8C379A000000000000000000000000000000000000000000000000000000000 DUP2 MSTORE PUSH1 0x4 ADD PUSH2 0x66F SWAP1 PUSH2 0x2CAA JUMP JUMPDEST PUSH1 0x40 MLOAD DUP1 SWAP2 SUB SWAP1 REVERT JUMPDEST PUSH1 0x2 DUP1 SLOAD SWAP1 POP PUSH1 0x8 DUP2 SWAP1 SSTORE POP PUSH1 0x7 PUSH0 PUSH2 0x691 SWAP2 SWAP1 PUSH2 0x209D JUMP JUMPDEST PUSH1 0x2 PUSH1 0x7 SWAP1 DUP1 SLOAD PUSH2 0x6A3 SWAP3 SWAP2 SWAP1 PUSH2 0x20BE JUMP JUMPDEST POP PUSH0 JUMPDEST PUSH1 0x7 DUP1 SLOAD SWAP1 POP DUP2 LT ISZERO PUSH2 0x6E8 JUMPI PUSH0 PUSH1 0x7 DUP3 DUP2 SLOAD DUP2 LT PUSH2 0x6C8 JUMPI PUSH2 0x6C7 PUSH2 0x2CC8 JUMP JUMPDEST JUMPDEST SWAP1 PUSH0 MSTORE PUSH1 0x20 PUSH0 KECCAK256 SWAP1 PUSH1 0x4 MUL ADD PUSH1 0x2 ADD DUP2 SWAP1 SSTORE POP DUP1 DUP1 PUSH1 0x1 ADD SWAP2 POP POP PUSH2 0x6A6 JUMP JUMPDEST POP PUSH0 JUMPDEST PUSH1 0x4 DUP1 SLOAD SWAP1 POP DUP2 LT ISZERO PUSH2 0x80B JUMPI PUSH0 PUSH1 0x3 PUSH0 PUSH1 0x4 DUP5 DUP2 SLOAD DUP2 LT PUSH2 0x710 JUMPI PUSH2 0x70F PUSH2 0x2CC8 JUMP JUMPDEST JUMPDEST SWAP1 PUSH0 MSTORE PUSH1 0x20 PUSH0 KECCAK256 ADD PUSH0 SWAP1 SLOAD SWAP1 PUSH2 0x100 EXP SWAP1 DIV PUSH20 0xFFFFFFFFFFFFFFFFFFFFFFFFFFFFFFFFFFFFFFFF AND PUSH20 0xFFFFFFFFFFFFFFFFFFFFFFFFFFFFFFFFFFFFFFFF AND PUSH20 0xFFFFFFFFFFFFFFFFFFFFFFFFFFFFFFFFFFFFFFFF AND DUP2 MSTORE PUSH1 0x20 ADD SWAP1 DUP2 MSTORE PUSH1 0x20 ADD PUSH0 KECCAK256 PUSH1 0x1 ADD DUP2 SWAP1 SSTORE POP PUSH1 0x3 PUSH0 PUSH1 0x4 DUP4 DUP2 SLOAD DUP2 LT PUSH2 0x78F JUMPI PUSH2 0x78E PUSH2 0x2CC8 JUMP JUMPDEST JUMPDEST SWAP1 PUSH0 MSTORE PUSH1 0x20 PUSH0 KECCAK256 ADD PUSH0 SWAP1 SLOAD SWAP1 PUSH2 0x100 EXP SWAP1 DIV PUSH20 0xFFFFFFFFFFFFFFFFFFFFFFFFFFFFFFFFFFFFFFFF AND PUSH20 0xFFFFFFFFFFFFFFFFFFFFFFFFFFFFFFFFFFFFFFFF AND PUSH20 0xFFFFFFFFFFFFFFFFFFFFFFFFFFFFFFFFFFFFFFFF AND DUP2 MSTORE PUSH1 0x20 ADD SWAP1 DUP2 MSTORE PUSH1 0x20 ADD PUSH0 KECCAK256 PUSH1 0x3 ADD PUSH0 PUSH2 0x7FE SWAP2 SWAP1 PUSH2 0x2143 JUMP JUMPDEST DUP1 DUP1 PUSH1 0x1 ADD SWAP2 POP POP PUSH2 0x6EB JUMP JUMPDEST POP PUSH1 0x2 PUSH1 0x9 PUSH0 PUSH2 0x100 EXP DUP2 SLOAD DUP2 PUSH1 0xFF MUL NOT AND SWAP1 DUP4 PUSH1 0x3 DUP2 GT ISZERO PUSH2 0x831 JUMPI PUSH2 0x830 PUSH2 0x25FA JUMP JUMPDEST JUMPDEST MUL OR SWAP1 SSTORE POP JUMP JUMPDEST PUSH1 0x3 DUP1 DUP2 GT ISZERO PUSH2 0x84B JUMPI PUSH2 0x84A PUSH2 0x25FA JUMP JUMPDEST JUMPDEST PUSH1 0x9 PUSH0 SWAP1 SLOAD SWAP1 PUSH2 0x100 EXP SWAP1 DIV PUSH1 0xFF AND PUSH1 0x3 DUP2 GT ISZERO PUSH2 0x86C JUMPI PUSH2 0x86B PUSH2 0x25FA JUMP JUMPDEST JUMPDEST EQ PUSH2 0x8AC JUMPI PUSH1 0x40 MLOAD PUSH32 0x8C379A000000000000000000000000000000000000000000000000000000000 DUP2 MSTORE PUSH1 0x4 ADD PUSH2 0x8A3 SWAP1 PUSH2 0x2BF6 JUMP JUMPDEST PUSH1 0x40 MLOAD DUP1 SWAP2 SUB SWAP1 REVERT JUMPDEST PUSH2 0x8B4 PUSH2 0x1B49 JUMP JUMPDEST PUSH0 PUSH1 0x9 PUSH0 PUSH2 0x100 EXP DUP2 SLOAD DUP2 PUSH1 0xFF MUL NOT AND SWAP1 DUP4 PUSH1 0x3 DUP2 GT ISZERO PUSH2 0x8D8 JUMPI PUSH2 0x8D7 PUSH2 0x25FA JUMP JUMPDEST JUMPDEST MUL OR SWAP1 SSTORE POP PUSH0 PUSH1 0x8 DUP2 SWAP1 SSTORE POP PUSH1 0x7 PUSH0 PUSH2 0x8F1 SWAP2 SWAP1 PUSH2 0x209D JUMP JUMPDEST PUSH0 PUSH1 0x5 DUP2 SWAP1 SSTORE POP PUSH0 PUSH1 0x6 DUP2 SWAP1 SSTORE POP PUSH0 JUMPDEST PUSH1 0x4 DUP1 SLOAD SWAP1 POP DUP2 LT ISZERO PUSH2 0x9C5 JUMPI PUSH1 0x3 PUSH0 PUSH1 0x4 DUP4 DUP2 SLOAD DUP2 LT PUSH2 0x925 JUMPI PUSH2 0x924 PUSH2 0x2CC8 JUMP JUMPDEST JUMPDEST SWAP1 PUSH0 MSTORE PUSH1 0x20 PUSH0 KECCAK256 ADD PUSH0 SWAP1 SLOAD SWAP1 PUSH2 0x100 EXP SWAP1 DIV PUSH20 0xFFFFFFFFFFFFFFFFFFFFFFFFFFFFFFFFFFFFFFFF AND PUSH20 0xFFFFFFFFFFFFFFFFFFFFFFFFFFFFFFFFFFFFFFFF AND PUSH20 0xFFFFFFFFFFFFFFFFFFFFFFFFFFFFFFFFFFFFFFFF AND DUP2 MSTORE PUSH1 0x20 ADD SWAP1 DUP2 MSTORE PUSH1 0x20 ADD PUSH0 KECCAK256 PUSH0 DUP1 DUP3 ADD PUSH0 PUSH2 0x100 EXP DUP2 SLOAD SWAP1 PUSH1 0xFF MUL NOT AND SWAP1 SSTORE PUSH1 0x1 DUP3 ADD PUSH0 SWAP1 SSTORE PUSH1 0x2 DUP3 ADD PUSH0 SWAP1 SSTORE PUSH1 0x3 DUP3 ADD PUSH0 PUSH2 0x9B6 SWAP2 SWAP1 PUSH2 0x2143 JUMP JUMPDEST POP POP DUP1 DUP1 PUSH1 0x1 ADD SWAP2 POP POP PUSH2 0x901 JUMP JUMPDEST POP PUSH1 0x4 PUSH0 PUSH2 0x9D3 SWAP2 SWAP1 PUSH2 0x2161 JUMP JUMPDEST PUSH32 0xFFFFFFFFFFFFFFFFFFFFFFFFFFFFFFFFFFFFFFFFFFFFFFFFFFFFFFFFFFFFFFFF PUSH1 0x1 DUP2 SWAP1 SSTORE POP JUMP JUMPDEST PUSH2 0xA04 PUSH2 0x1B49 JUMP JUMPDEST PUSH2 0xA0D PUSH0 PUSH2 0x1BD0 JUMP JUMPDEST JUMP JUMPDEST PUSH1 0x1 ISZERO ISZERO PUSH1 0x3 PUSH0 CALLER PUSH20 0xFFFFFFFFFFFFFFFFFFFFFFFFFFFFFFFFFFFFFFFF AND PUSH20 0xFFFFFFFFFFFFFFFFFFFFFFFFFFFFFFFFFFFFFFFF AND DUP2 MSTORE PUSH1 0x20 ADD SWAP1 DUP2 MSTORE PUSH1 0x20 ADD PUSH0 KECCAK256 PUSH0 ADD PUSH0 SWAP1 SLOAD SWAP1 PUSH2 0x100 EXP SWAP1 DIV PUSH1 0xFF AND ISZERO ISZERO EQ PUSH2 0xAA1 JUMPI PUSH1 0x40 MLOAD PUSH32 0x8C379A000000000000000000000000000000000000000000000000000000000 DUP2 MSTORE PUSH1 0x4 ADD PUSH2 0xA98 SWAP1 PUSH2 0x27CB JUMP JUMPDEST PUSH1 0x40 MLOAD DUP1 SWAP2 SUB SWAP1 REVERT JUMPDEST PUSH1 0x2 PUSH1 0x3 DUP2 GT ISZERO PUSH2 0xAB5 JUMPI PUSH2 0xAB4 PUSH2 0x25FA JUMP JUMPDEST JUMPDEST PUSH1 0x9 PUSH0 SWAP1 SLOAD SWAP1 PUSH2 0x100 EXP SWAP1 DIV PUSH1 0xFF AND PUSH1 0x3 DUP2 GT ISZERO PUSH2 0xAD6 JUMPI PUSH2 0xAD5 PUSH2 0x25FA JUMP JUMPDEST JUMPDEST EQ PUSH2 0xB16 JUMPI PUSH1 0x40 MLOAD PUSH32 0x8C379A000000000000000000000000000000000000000000000000000000000 DUP2 MSTORE PUSH1 0x4 ADD PUSH2 0xB0D SWAP1 PUSH2 0x2D3F JUMP JUMPDEST PUSH1 0x40 MLOAD DUP1 SWAP2 SUB SWAP1 REVERT JUMPDEST PUSH1 0x3 PUSH0 CALLER PUSH20 0xFFFFFFFFFFFFFFFFFFFFFFFFFFFFFFFFFFFFFFFF AND PUSH20 0xFFFFFFFFFFFFFFFFFFFFFFFFFFFFFFFFFFFFFFFF AND DUP2 MSTORE PUSH1 0x20 ADD SWAP1 DUP2 MSTORE PUSH1 0x20 ADD PUSH0 KECCAK256 PUSH1 0x2 ADD SLOAD PUSH1 0x3 PUSH0 CALLER PUSH20 0xFFFFFFFFFFFFFFFFFFFFFFFFFFFFFFFFFFFFFFFF AND PUSH20 0xFFFFFFFFFFFFFFFFFFFFFFFFFFFFFFFFFFFFFFFF AND DUP2 MSTORE PUSH1 0x20 ADD SWAP1 DUP2 MSTORE PUSH1 0x20 ADD PUSH0 KECCAK256 PUSH1 0x1 ADD SLOAD LT PUSH2 0xBD8 JUMPI PUSH1 0x40 MLOAD PUSH32 0x8C379A000000000000000000000000000000000000000000000000000000000 DUP2 MSTORE PUSH1 0x4 ADD PUSH2 0xBCF SWAP1 PUSH2 0x2DA7 JUMP JUMPDEST PUSH1 0x40 MLOAD DUP1 SWAP2 SUB SWAP1 REVERT JUMPDEST PUSH0 DUP2 LT ISZERO DUP1 ISZERO PUSH2 0xBEC JUMPI POP PUSH1 0x7 DUP1 SLOAD SWAP1 POP DUP2 LT JUMPDEST PUSH2 0xC2B JUMPI PUSH1 0x40 MLOAD PUSH32 0x8C379A000000000000000000000000000000000000000000000000000000000 DUP2 MSTORE PUSH1 0x4 ADD PUSH2 0xC22 SWAP1 PUSH2 0x2E35 JUMP JUMPDEST PUSH1 0x40 MLOAD DUP1 SWAP2 SUB SWAP1 REVERT JUMPDEST PUSH1 0x7 DUP2 DUP2 SLOAD DUP2 LT PUSH2 0xC3F JUMPI PUSH2 0xC3E PUSH2 0x2CC8 JUMP JUMPDEST JUMPDEST SWAP1 PUSH0 MSTORE PUSH1 0x20 PUSH0 KECCAK256 SWAP1 PUSH1 0x4 MUL ADD PUSH1 0x2 ADD PUSH0 DUP2 SLOAD DUP1 SWAP3 SWAP2 SWAP1 PUSH2 0xC5E SWAP1 PUSH2 0x2B17 JUMP JUMPDEST SWAP2 SWAP1 POP SSTORE POP TIMESTAMP PUSH1 0x7 DUP3 DUP2 SLOAD DUP2 LT PUSH2 0xC78 JUMPI PUSH2 0xC77 PUSH2 0x2CC8 JUMP JUMPDEST JUMPDEST SWAP1 PUSH0 MSTORE PUSH1 0x20 PUSH0 KECCAK256 SWAP1 PUSH1 0x4 MUL ADD PUSH1 0x3 ADD DUP2 SWAP1 SSTORE POP PUSH1 0x3 PUSH0 CALLER PUSH20 0xFFFFFFFFFFFFFFFFFFFFFFFFFFFFFFFFFFFFFFFF AND PUSH20 0xFFFFFFFFFFFFFFFFFFFFFFFFFFFFFFFFFFFFFFFF AND DUP2 MSTORE PUSH1 0x20 ADD SWAP1 DUP2 MSTORE PUSH1 0x20 ADD PUSH0 KECCAK256 PUSH1 0x1 ADD PUSH0 DUP2 SLOAD DUP1 SWAP3 SWAP2 SWAP1 PUSH2 0xCDB SWAP1 PUSH2 0x2B17 JUMP JUMPDEST SWAP2 SWAP1 POP SSTORE POP PUSH1 0x3 PUSH0 CALLER PUSH20 0xFFFFFFFFFFFFFFFFFFFFFFFFFFFFFFFFFFFFFFFF AND PUSH20 0xFFFFFFFFFFFFFFFFFFFFFFFFFFFFFFFFFFFFFFFF AND DUP2 MSTORE PUSH1 0x20 ADD SWAP1 DUP2 MSTORE PUSH1 0x20 ADD PUSH0 KECCAK256 PUSH1 0x3 ADD PUSH1 0x7 DUP3 DUP2 SLOAD DUP2 LT PUSH2 0xD34 JUMPI PUSH2 0xD33 PUSH2 0x2CC8 JUMP JUMPDEST JUMPDEST SWAP1 PUSH0 MSTORE PUSH1 0x20 PUSH0 KECCAK256 SWAP1 PUSH1 0x4 MUL ADD PUSH0 ADD SLOAD SWAP1 DUP1 PUSH1 0x1 DUP2 SLOAD ADD DUP1 DUP3 SSTORE DUP1 SWAP2 POP POP PUSH1 0x1 SWAP1 SUB SWAP1 PUSH0 MSTORE PUSH1 0x20 PUSH0 KECCAK256 ADD PUSH0 SWAP1 SWAP2 SWAP1 SWAP2 SWAP1 SWAP2 POP SSTORE PUSH1 0x6 PUSH0 DUP2 SLOAD DUP1 SWAP3 SWAP2 SWAP1 PUSH2 0xD78 SWAP1 PUSH2 0x2B17 JUMP JUMPDEST SWAP2 SWAP1 POP SSTORE POP PUSH32 0x4D99B957A2BC29A30EBD96A7BE8E68FE50A3C701DB28A91436490B7D53870CA4 CALLER PUSH1 0x7 DUP4 DUP2 SLOAD DUP2 LT PUSH2 0xDB3 JUMPI PUSH2 0xDB2 PUSH2 0x2CC8 JUMP JUMPDEST JUMPDEST SWAP1 PUSH0 MSTORE PUSH1 0x20 PUSH0 KECCAK256 SWAP1 PUSH1 0x4 MUL ADD PUSH0 ADD SLOAD PUSH1 0x40 MLOAD PUSH2 0xDD0 SWAP3 SWAP2 SWAP1 PUSH2 0x2E53 JUMP JUMPDEST PUSH1 0x40 MLOAD DUP1 SWAP2 SUB SWAP1 LOG1 POP JUMP JUMPDEST PUSH1 0x60 PUSH1 0x3 DUP1 DUP2 GT ISZERO PUSH2 0xDF0 JUMPI PUSH2 0xDEF PUSH2 0x25FA JUMP JUMPDEST JUMPDEST PUSH1 0x9 PUSH0 SWAP1 SLOAD SWAP1 PUSH2 0x100 EXP SWAP1 DIV PUSH1 0xFF AND PUSH1 0x3 DUP2 GT ISZERO PUSH2 0xE11 JUMPI PUSH2 0xE10 PUSH2 0x25FA JUMP JUMPDEST JUMPDEST EQ PUSH2 0xE51 JUMPI PUSH1 0x40 MLOAD PUSH32 0x8C379A000000000000000000000000000000000000000000000000000000000 DUP2 MSTORE PUSH1 0x4 ADD PUSH2 0xE48 SWAP1 PUSH2 0x2BF6 JUMP JUMPDEST PUSH1 0x40 MLOAD DUP1 SWAP2 SUB SWAP1 REVERT JUMPDEST PUSH0 DUP1 JUMPDEST PUSH1 0x7 DUP1 SLOAD SWAP1 POP DUP2 LT ISZERO PUSH2 0x1036 JUMPI PUSH0 PUSH1 0x7 DUP3 DUP2 SLOAD DUP2 LT PUSH2 0xE76 JUMPI PUSH2 0xE75 PUSH2 0x2CC8 JUMP JUMPDEST JUMPDEST SWAP1 PUSH0 MSTORE PUSH1 0x20 PUSH0 KECCAK256 SWAP1 PUSH1 0x4 MUL ADD PUSH1 0x40 MLOAD DUP1 PUSH1 0x80 ADD PUSH1 0x40 MSTORE SWAP1 DUP2 PUSH0 DUP3 ADD SLOAD DUP2 MSTORE PUSH1 0x20 ADD PUSH1 0x1 DUP3 ADD DUP1 SLOAD PUSH2 0xEA6 SWAP1 PUSH2 0x2751 JUMP JUMPDEST DUP1 PUSH1 0x1F ADD PUSH1 0x20 DUP1 SWAP2 DIV MUL PUSH1 0x20 ADD PUSH1 0x40 MLOAD SWAP1 DUP2 ADD PUSH1 0x40 MSTORE DUP1 SWAP3 SWAP2 SWAP1 DUP2 DUP2 MSTORE PUSH1 0x20 ADD DUP3 DUP1 SLOAD PUSH2 0xED2 SWAP1 PUSH2 0x2751 JUMP JUMPDEST DUP1 ISZERO PUSH2 0xF1D JUMPI DUP1 PUSH1 0x1F LT PUSH2 0xEF4 JUMPI PUSH2 0x100 DUP1 DUP4 SLOAD DIV MUL DUP4 MSTORE SWAP2 PUSH1 0x20 ADD SWAP2 PUSH2 0xF1D JUMP JUMPDEST DUP3 ADD SWAP2 SWAP1 PUSH0 MSTORE PUSH1 0x20 PUSH0 KECCAK256 SWAP1 JUMPDEST DUP2 SLOAD DUP2 MSTORE SWAP1 PUSH1 0x1 ADD SWAP1 PUSH1 0x20 ADD DUP1 DUP4 GT PUSH2 0xF00 JUMPI DUP3 SWAP1 SUB PUSH1 0x1F AND DUP3 ADD SWAP2 JUMPDEST POP POP POP POP POP DUP2 MSTORE PUSH1 0x20 ADD PUSH1 0x2 DUP3 ADD SLOAD DUP2 MSTORE PUSH1 0x20 ADD PUSH1 0x3 DUP3 ADD SLOAD DUP2 MSTORE POP POP SWAP1 POP DUP3 DUP2 PUSH1 0x40 ADD MLOAD GT ISZERO PUSH2 0xFBE JUMPI PUSH1 0x2 PUSH0 PUSH2 0xF55 SWAP2 SWAP1 PUSH2 0x209D JUMP JUMPDEST PUSH1 0x2 DUP2 SWAP1 DUP1 PUSH1 0x1 DUP2 SLOAD ADD DUP1 DUP3 SSTORE DUP1 SWAP2 POP POP PUSH1 0x1 SWAP1 SUB SWAP1 PUSH0 MSTORE PUSH1 0x20 PUSH0 KECCAK256 SWAP1 PUSH1 0x4 MUL ADD PUSH0 SWAP1 SWAP2 SWAP1 SWAP2 SWAP1 SWAP2 POP PUSH0 DUP3 ADD MLOAD DUP2 PUSH0 ADD SSTORE PUSH1 0x20 DUP3 ADD MLOAD DUP2 PUSH1 0x1 ADD SWAP1 DUP2 PUSH2 0xF9B SWAP2 SWAP1 PUSH2 0x2A1B JUMP JUMPDEST POP PUSH1 0x40 DUP3 ADD MLOAD DUP2 PUSH1 0x2 ADD SSTORE PUSH1 0x60 DUP3 ADD MLOAD DUP2 PUSH1 0x3 ADD SSTORE POP POP DUP1 PUSH1 0x40 ADD MLOAD SWAP3 POP PUSH2 0x1028 JUMP JUMPDEST DUP3 DUP2 PUSH1 0x40 ADD MLOAD SUB PUSH2 0x1027 JUMPI PUSH1 0x2 DUP2 SWAP1 DUP1 PUSH1 0x1 DUP2 SLOAD ADD DUP1 DUP3 SSTORE DUP1 SWAP2 POP POP PUSH1 0x1 SWAP1 SUB SWAP1 PUSH0 MSTORE PUSH1 0x20 PUSH0 KECCAK256 SWAP1 PUSH1 0x4 MUL ADD PUSH0 SWAP1 SWAP2 SWAP1 SWAP2 SWAP1 SWAP2 POP PUSH0 DUP3 ADD MLOAD DUP2 PUSH0 ADD SSTORE PUSH1 0x20 DUP3 ADD MLOAD DUP2 PUSH1 0x1 ADD SWAP1 DUP2 PUSH2 0x100F SWAP2 SWAP1 PUSH2 0x2A1B JUMP JUMPDEST POP PUSH1 0x40 DUP3 ADD MLOAD DUP2 PUSH1 0x2 ADD SSTORE PUSH1 0x60 DUP3 ADD MLOAD DUP2 PUSH1 0x3 ADD SSTORE POP POP JUMPDEST JUMPDEST POP DUP1 DUP1 PUSH1 0x1 ADD SWAP2 POP POP PUSH2 0xE54 JUMP JUMPDEST POP PUSH1 0x1 PUSH1 0x2 DUP1 SLOAD SWAP1 POP GT ISZERO PUSH2 0x107F JUMPI PUSH32 0x9152E2DCCFC44AA8AB1FB145F54B5E72AE0202E28C3CE79D77C70E502C31EAE2 PUSH1 0x40 MLOAD PUSH2 0x1072 SWAP1 PUSH2 0x2F10 JUMP JUMPDEST PUSH1 0x40 MLOAD DUP1 SWAP2 SUB SWAP1 LOG1 PUSH2 0x10A9 JUMP JUMPDEST PUSH1 0x2 PUSH0 DUP2 SLOAD DUP2 LT PUSH2 0x1093 JUMPI PUSH2 0x1092 PUSH2 0x2CC8 JUMP JUMPDEST JUMPDEST SWAP1 PUSH0 MSTORE PUSH1 0x20 PUSH0 KECCAK256 SWAP1 PUSH1 0x4 MUL ADD PUSH0 ADD SLOAD PUSH1 0x1 DUP2 SWAP1 SSTORE POP JUMPDEST PUSH1 0x2 DUP1 SLOAD DUP1 PUSH1 0x20 MUL PUSH1 0x20 ADD PUSH1 0x40 MLOAD SWAP1 DUP2 ADD PUSH1 0x40 MSTORE DUP1 SWAP3 SWAP2 SWAP1 DUP2 DUP2 MSTORE PUSH1 0x20 ADD PUSH0 SWAP1 JUMPDEST DUP3 DUP3 LT ISZERO PUSH2 0x11A7 JUMPI DUP4 DUP3 SWAP1 PUSH0 MSTORE PUSH1 0x20 PUSH0 KECCAK256 SWAP1 PUSH1 0x4 MUL ADD PUSH1 0x40 MLOAD DUP1 PUSH1 0x80 ADD PUSH1 0x40 MSTORE SWAP1 DUP2 PUSH0 DUP3 ADD SLOAD DUP2 MSTORE PUSH1 0x20 ADD PUSH1 0x1 DUP3 ADD DUP1 SLOAD PUSH2 0x1104 SWAP1 PUSH2 0x2751 JUMP JUMPDEST DUP1 PUSH1 0x1F ADD PUSH1 0x20 DUP1 SWAP2 DIV MUL PUSH1 0x20 ADD PUSH1 0x40 MLOAD SWAP1 DUP2 ADD PUSH1 0x40 MSTORE DUP1 SWAP3 SWAP2 SWAP1 DUP2 DUP2 MSTORE PUSH1 0x20 ADD DUP3 DUP1 SLOAD PUSH2 0x1130 SWAP1 PUSH2 0x2751 JUMP JUMPDEST DUP1 ISZERO PUSH2 0x117B JUMPI DUP1 PUSH1 0x1F LT PUSH2 0x1152 JUMPI PUSH2 0x100 DUP1 DUP4 SLOAD DIV MUL DUP4 MSTORE SWAP2 PUSH1 0x20 ADD SWAP2 PUSH2 0x117B JUMP JUMPDEST DUP3 ADD SWAP2 SWAP1 PUSH0 MSTORE PUSH1 0x20 PUSH0 KECCAK256 SWAP1 JUMPDEST DUP2 SLOAD DUP2 MSTORE SWAP1 PUSH1 0x1 ADD SWAP1 PUSH1 0x20 ADD DUP1 DUP4 GT PUSH2 0x115E JUMPI DUP3 SWAP1 SUB PUSH1 0x1F AND DUP3 ADD SWAP2 JUMPDEST POP POP POP POP POP DUP2 MSTORE PUSH1 0x20 ADD PUSH1 0x2 DUP3 ADD SLOAD DUP2 MSTORE PUSH1 0x20 ADD PUSH1 0x3 DUP3 ADD SLOAD DUP2 MSTORE POP POP DUP2 MSTORE PUSH1 0x20 ADD SWAP1 PUSH1 0x1 ADD SWAP1 PUSH2 0x10CA JUMP JUMPDEST POP POP POP POP SWAP2 POP POP SWAP1 JUMP JUMPDEST PUSH0 DUP1 PUSH0 SWAP1 SLOAD SWAP1 PUSH2 0x100 EXP SWAP1 DIV PUSH20 0xFFFFFFFFFFFFFFFFFFFFFFFFFFFFFFFFFFFFFFFF AND SWAP1 POP SWAP1 JUMP JUMPDEST PUSH0 DUP1 PUSH1 0x1 SLOAD SLT ISZERO PUSH2 0x121E JUMPI PUSH1 0x40 MLOAD PUSH32 0x8C379A000000000000000000000000000000000000000000000000000000000 DUP2 MSTORE PUSH1 0x4 ADD PUSH2 0x1215 SWAP1 PUSH2 0x2F9E JUMP JUMPDEST PUSH1 0x40 MLOAD DUP1 SWAP2 SUB SWAP1 REVERT JUMPDEST PUSH1 0x1 SLOAD SWAP1 POP SWAP1 JUMP JUMPDEST PUSH2 0x122E PUSH2 0x1B49 JUMP JUMPDEST PUSH1 0x3 DUP1 DUP2 GT ISZERO PUSH2 0x1241 JUMPI PUSH2 0x1240 PUSH2 0x25FA JUMP JUMPDEST JUMPDEST PUSH1 0x9 PUSH0 SWAP1 SLOAD SWAP1 PUSH2 0x100 EXP SWAP1 DIV PUSH1 0xFF AND PUSH1 0x3 DUP2 GT ISZERO PUSH2 0x1262 JUMPI PUSH2 0x1261 PUSH2 0x25FA JUMP JUMPDEST JUMPDEST EQ PUSH2 0x12A2 JUMPI PUSH1 0x40 MLOAD PUSH32 0x8C379A000000000000000000000000000000000000000000000000000000000 DUP2 MSTORE PUSH1 0x4 ADD PUSH2 0x1299 SWAP1 PUSH2 0x2BF6 JUMP JUMPDEST PUSH1 0x40 MLOAD DUP1 SWAP2 SUB SWAP1 REVERT JUMPDEST PUSH1 0x1 PUSH1 0x2 DUP1 SLOAD SWAP1 POP GT PUSH2 0x12EA JUMPI PUSH1 0x40 MLOAD PUSH32 0x8C379A000000000000000000000000000000000000000000000000000000000 DUP2 MSTORE PUSH1 0x4 ADD PUSH2 0x12E1 SWAP1 PUSH2 0x2CAA JUMP JUMPDEST PUSH1 0x40 MLOAD DUP1 SWAP2 SUB SWAP1 REVERT JUMPDEST PUSH0 TIMESTAMP SWAP1 POP PUSH2 0x12F6 PUSH2 0x217F JUMP JUMPDEST PUSH0 JUMPDEST PUSH1 0x2 DUP1 SLOAD SWAP1 POP DUP2 LT ISZERO PUSH2 0x144E JUMPI PUSH0 PUSH1 0x2 DUP3 DUP2 SLOAD DUP2 LT PUSH2 0x131A JUMPI PUSH2 0x1319 PUSH2 0x2CC8 JUMP JUMPDEST JUMPDEST SWAP1 PUSH0 MSTORE PUSH1 0x20 PUSH0 KECCAK256 SWAP1 PUSH1 0x4 MUL ADD PUSH1 0x3 ADD SLOAD EQ ISZERO DUP1 ISZERO PUSH2 0x135A JUMPI POP DUP3 PUSH1 0x2 DUP3 DUP2 SLOAD DUP2 LT PUSH2 0x1348 JUMPI PUSH2 0x1347 PUSH2 0x2CC8 JUMP JUMPDEST JUMPDEST SWAP1 PUSH0 MSTORE PUSH1 0x20 PUSH0 KECCAK256 SWAP1 PUSH1 0x4 MUL ADD PUSH1 0x3 ADD SLOAD LT JUMPDEST ISZERO PUSH2 0x1441 JUMPI PUSH1 0x2 DUP2 DUP2 SLOAD DUP2 LT PUSH2 0x1373 JUMPI PUSH2 0x1372 PUSH2 0x2CC8 JUMP JUMPDEST JUMPDEST SWAP1 PUSH0 MSTORE PUSH1 0x20 PUSH0 KECCAK256 SWAP1 PUSH1 0x4 MUL ADD PUSH1 0x40 MLOAD DUP1 PUSH1 0x80 ADD PUSH1 0x40 MSTORE SWAP1 DUP2 PUSH0 DUP3 ADD SLOAD DUP2 MSTORE PUSH1 0x20 ADD PUSH1 0x1 DUP3 ADD DUP1 SLOAD PUSH2 0x13A3 SWAP1 PUSH2 0x2751 JUMP JUMPDEST DUP1 PUSH1 0x1F ADD PUSH1 0x20 DUP1 SWAP2 DIV MUL PUSH1 0x20 ADD PUSH1 0x40 MLOAD SWAP1 DUP2 ADD PUSH1 0x40 MSTORE DUP1 SWAP3 SWAP2 SWAP1 DUP2 DUP2 MSTORE PUSH1 0x20 ADD DUP3 DUP1 SLOAD PUSH2 0x13CF SWAP1 PUSH2 0x2751 JUMP JUMPDEST DUP1 ISZERO PUSH2 0x141A JUMPI DUP1 PUSH1 0x1F LT PUSH2 0x13F1 JUMPI PUSH2 0x100 DUP1 DUP4 SLOAD DIV MUL DUP4 MSTORE SWAP2 PUSH1 0x20 ADD SWAP2 PUSH2 0x141A JUMP JUMPDEST DUP3 ADD SWAP2 SWAP1 PUSH0 MSTORE PUSH1 0x20 PUSH0 KECCAK256 SWAP1 JUMPDEST DUP2 SLOAD DUP2 MSTORE SWAP1 PUSH1 0x1 ADD SWAP1 PUSH1 0x20 ADD DUP1 DUP4 GT PUSH2 0x13FD JUMPI DUP3 SWAP1 SUB PUSH1 0x1F AND DUP3 ADD SWAP2 JUMPDEST POP POP POP POP POP DUP2 MSTORE PUSH1 0x20 ADD PUSH1 0x2 DUP3 ADD SLOAD DUP2 MSTORE PUSH1 0x20 ADD PUSH1 0x3 DUP3 ADD SLOAD DUP2 MSTORE POP POP SWAP2 POP DUP2 PUSH1 0x60 ADD MLOAD SWAP3 POP JUMPDEST DUP1 DUP1 PUSH1 0x1 ADD SWAP2 POP POP PUSH2 0x12F8 JUMP JUMPDEST POP DUP1 PUSH0 ADD MLOAD PUSH1 0x1 DUP2 SWAP1 SSTORE POP POP POP JUMP JUMPDEST PUSH1 0x1 ISZERO ISZERO PUSH1 0x3 PUSH0 CALLER PUSH20 0xFFFFFFFFFFFFFFFFFFFFFFFFFFFFFFFFFFFFFFFF AND PUSH20 0xFFFFFFFFFFFFFFFFFFFFFFFFFFFFFFFFFFFFFFFF AND DUP2 MSTORE PUSH1 0x20 ADD SWAP1 DUP2 MSTORE PUSH1 0x20 ADD PUSH0 KECCAK256 PUSH0 ADD PUSH0 SWAP1 SLOAD SWAP1 PUSH2 0x100 EXP SWAP1 DIV PUSH1 0xFF AND ISZERO ISZERO EQ PUSH2 0x14EF JUMPI PUSH1 0x40 MLOAD PUSH32 0x8C379A000000000000000000000000000000000000000000000000000000000 DUP2 MSTORE PUSH1 0x4 ADD PUSH2 0x14E6 SWAP1 PUSH2 0x27CB JUMP JUMPDEST PUSH1 0x40 MLOAD DUP1 SWAP2 SUB SWAP1 REVERT JUMPDEST PUSH0 PUSH1 0x3 DUP2 GT ISZERO PUSH2 0x1502 JUMPI PUSH2 0x1501 PUSH2 0x25FA JUMP JUMPDEST JUMPDEST PUSH1 0x9 PUSH0 SWAP1 SLOAD SWAP1 PUSH2 0x100 EXP SWAP1 DIV PUSH1 0xFF AND PUSH1 0x3 DUP2 GT ISZERO PUSH2 0x1523 JUMPI PUSH2 0x1522 PUSH2 0x25FA JUMP JUMPDEST JUMPDEST EQ PUSH2 0x1563 JUMPI PUSH1 0x40 MLOAD PUSH32 0x8C379A000000000000000000000000000000000000000000000000000000000 DUP2 MSTORE PUSH1 0x4 ADD PUSH2 0x155A SWAP1 PUSH2 0x3006 JUMP JUMPDEST PUSH1 0x40 MLOAD DUP1 SWAP2 SUB SWAP1 REVERT JUMPDEST PUSH1 0x3 PUSH0 DUP3 PUSH20 0xFFFFFFFFFFFFFFFFFFFFFFFFFFFFFFFFFFFFFFFF AND PUSH20 0xFFFFFFFFFFFFFFFFFFFFFFFFFFFFFFFFFFFFFFFF AND DUP2 MSTORE PUSH1 0x20 ADD SWAP1 DUP2 MSTORE PUSH1 0x20 ADD PUSH0 KECCAK256 PUSH0 ADD PUSH0 SWAP1 SLOAD SWAP1 PUSH2 0x100 EXP SWAP1 DIV PUSH1 0xFF AND ISZERO PUSH2 0x160E JUMPI PUSH1 0x3 PUSH0 DUP3 PUSH20 0xFFFFFFFFFFFFFFFFFFFFFFFFFFFFFFFFFFFFFFFF AND PUSH20 0xFFFFFFFFFFFFFFFFFFFFFFFFFFFFFFFFFFFFFFFF AND DUP2 MSTORE PUSH1 0x20 ADD SWAP1 DUP2 MSTORE PUSH1 0x20 ADD PUSH0 KECCAK256 PUSH1 0x2 ADD PUSH0 DUP2 SLOAD DUP1 SWAP3 SWAP2 SWAP1 PUSH2 0x1604 SWAP1 PUSH2 0x2B17 JUMP JUMPDEST SWAP2 SWAP1 POP SSTORE POP PUSH2 0x1618 JUMP JUMPDEST PUSH2 0x1617 DUP2 PUSH2 0x1C91 JUMP JUMPDEST JUMPDEST PUSH2 0x1621 CALLER PUSH2 0x1D96 JUMP JUMPDEST POP JUMP JUMPDEST PUSH0 PUSH1 0x9 PUSH0 SWAP1 SLOAD SWAP1 PUSH2 0x100 EXP SWAP1 DIV PUSH1 0xFF AND SWAP1 POP SWAP1 JUMP JUMPDEST PUSH2 0x1641 PUSH2 0x1B49 JUMP JUMPDEST PUSH0 PUSH20 0xFFFFFFFFFFFFFFFFFFFFFFFFFFFFFFFFFFFFFFFF AND DUP2 PUSH20 0xFFFFFFFFFFFFFFFFFFFFFFFFFFFFFFFFFFFFFFFF AND SUB PUSH2 0x16B1 JUMPI PUSH0 PUSH1 0x40 MLOAD PUSH32 0x1E4FBDF700000000000000000000000000000000000000000000000000000000 DUP2 MSTORE PUSH1 0x4 ADD PUSH2 0x16A8 SWAP2 SWAP1 PUSH2 0x255B JUMP JUMPDEST PUSH1 0x40 MLOAD DUP1 SWAP2 SUB SWAP1 REVERT JUMPDEST PUSH2 0x16BA DUP2 PUSH2 0x1BD0 JUMP JUMPDEST POP JUMP JUMPDEST PUSH2 0x16C5 PUSH2 0x1B49 JUMP JUMPDEST PUSH0 PUSH1 0x3 DUP2 GT ISZERO PUSH2 0x16D8 JUMPI PUSH2 0x16D7 PUSH2 0x25FA JUMP JUMPDEST JUMPDEST PUSH1 0x9 PUSH0 SWAP1 SLOAD SWAP1 PUSH2 0x100 EXP SWAP1 DIV PUSH1 0xFF AND PUSH1 0x3 DUP2 GT ISZERO PUSH2 0x16F9 JUMPI PUSH2 0x16F8 PUSH2 0x25FA JUMP JUMPDEST JUMPDEST EQ PUSH2 0x1739 JUMPI PUSH1 0x40 MLOAD PUSH32 0x8C379A000000000000000000000000000000000000000000000000000000000 DUP2 MSTORE PUSH1 0x4 ADD PUSH2 0x1730 SWAP1 PUSH2 0x3006 JUMP JUMPDEST PUSH1 0x40 MLOAD DUP1 SWAP2 SUB SWAP1 REVERT JUMPDEST PUSH2 0x1741 PUSH2 0x11B1 JUMP JUMPDEST PUSH20 0xFFFFFFFFFFFFFFFFFFFFFFFFFFFFFFFFFFFFFFFF AND DUP2 PUSH20 0xFFFFFFFFFFFFFFFFFFFFFFFFFFFFFFFFFFFFFFFF AND SUB PUSH2 0x17AE JUMPI PUSH1 0x40 MLOAD PUSH32 0x8C379A000000000000000000000000000000000000000000000000000000000 DUP2 MSTORE PUSH1 0x4 ADD PUSH2 0x17A5 SWAP1 PUSH2 0x306E JUMP JUMPDEST PUSH1 0x40 MLOAD DUP1 SWAP2 SUB SWAP1 REVERT JUMPDEST PUSH0 ISZERO ISZERO PUSH1 0x3 PUSH0 DUP4 PUSH20 0xFFFFFFFFFFFFFFFFFFFFFFFFFFFFFFFFFFFFFFFF AND PUSH20 0xFFFFFFFFFFFFFFFFFFFFFFFFFFFFFFFFFFFFFFFF AND DUP2 MSTORE PUSH1 0x20 ADD SWAP1 DUP2 MSTORE PUSH1 0x20 ADD PUSH0 KECCAK256 PUSH0 ADD PUSH0 SWAP1 SLOAD SWAP1 PUSH2 0x100 EXP SWAP1 DIV PUSH1 0xFF AND ISZERO ISZERO EQ PUSH2 0x183F JUMPI PUSH1 0x40 MLOAD PUSH32 0x8C379A000000000000000000000000000000000000000000000000000000000 DUP2 MSTORE PUSH1 0x4 ADD PUSH2 0x1836 SWAP1 PUSH2 0x30D6 JUMP JUMPDEST PUSH1 0x40 MLOAD DUP1 SWAP2 SUB SWAP1 REVERT JUMPDEST PUSH2 0x1848 DUP2 PUSH2 0x1C91 JUMP JUMPDEST PUSH32 0xB6BE2187D059CC2A55FE29E0E503B566E1E0F8C8780096E185429350ACFFD3DD DUP2 PUSH1 0x40 MLOAD PUSH2 0x1877 SWAP2 SWAP1 PUSH2 0x255B JUMP JUMPDEST PUSH1 0x40 MLOAD DUP1 SWAP2 SUB SWAP1 LOG1 POP JUMP JUMPDEST PUSH2 0x188A PUSH2 0x1B49 JUMP JUMPDEST PUSH1 0x3 PUSH0 PUSH1 0x3 DUP2 GT ISZERO PUSH2 0x189F JUMPI PUSH2 0x189E PUSH2 0x25FA JUMP JUMPDEST JUMPDEST PUSH1 0x9 PUSH0 SWAP1 SLOAD SWAP1 PUSH2 0x100 EXP SWAP1 DIV PUSH1 0xFF AND PUSH1 0x3 DUP2 GT ISZERO PUSH2 0x18C0 JUMPI PUSH2 0x18BF PUSH2 0x25FA JUMP JUMPDEST JUMPDEST SUB PUSH2 0x190B JUMPI DUP1 PUSH1 0x5 SLOAD LT ISZERO PUSH2 0x190A JUMPI PUSH1 0x40 MLOAD PUSH32 0x8C379A000000000000000000000000000000000000000000000000000000000 DUP2 MSTORE PUSH1 0x4 ADD PUSH2 0x1901 SWAP1 PUSH2 0x3164 JUMP JUMPDEST PUSH1 0x40 MLOAD DUP1 SWAP2 SUB SWAP1 REVERT JUMPDEST JUMPDEST PUSH1 0x2 PUSH1 0x1 PUSH1 0x3 DUP2 GT ISZERO PUSH2 0x1921 JUMPI PUSH2 0x1920 PUSH2 0x25FA JUMP JUMPDEST JUMPDEST PUSH1 0x9 PUSH0 SWAP1 SLOAD SWAP1 PUSH2 0x100 EXP SWAP1 DIV PUSH1 0xFF AND PUSH1 0x3 DUP2 GT ISZERO PUSH2 0x1942 JUMPI PUSH2 0x1941 PUSH2 0x25FA JUMP JUMPDEST JUMPDEST SUB PUSH2 0x198D JUMPI DUP1 PUSH1 0x8 SLOAD LT ISZERO PUSH2 0x198C JUMPI PUSH1 0x40 MLOAD PUSH32 0x8C379A000000000000000000000000000000000000000000000000000000000 DUP2 MSTORE PUSH1 0x4 ADD PUSH2 0x1983 SWAP1 PUSH2 0x31F2 JUMP JUMPDEST PUSH1 0x40 MLOAD DUP1 SWAP2 SUB SWAP1 REVERT JUMPDEST JUMPDEST PUSH1 0x1 PUSH1 0x2 PUSH1 0x3 DUP2 GT ISZERO PUSH2 0x19A3 JUMPI PUSH2 0x19A2 PUSH2 0x25FA JUMP JUMPDEST JUMPDEST PUSH1 0x9 PUSH0 SWAP1 SLOAD SWAP1 PUSH2 0x100 EXP SWAP1 DIV PUSH1 0xFF AND PUSH1 0x3 DUP2 GT ISZERO PUSH2 0x19C4 JUMPI PUSH2 0x19C3 PUSH2 0x25FA JUMP JUMPDEST JUMPDEST SUB PUSH2 0x1A0F JUMPI DUP1 PUSH1 0x6 SLOAD LT ISZERO PUSH2 0x1A0E JUMPI PUSH1 0x40 MLOAD PUSH32 0x8C379A000000000000000000000000000000000000000000000000000000000 DUP2 MSTORE PUSH1 0x4 ADD PUSH2 0x1A05 SWAP1 PUSH2 0x3280 JUMP JUMPDEST PUSH1 0x40 MLOAD DUP1 SWAP2 SUB SWAP1 REVERT JUMPDEST JUMPDEST PUSH1 0x3 DUP1 DUP2 GT ISZERO PUSH2 0x1A22 JUMPI PUSH2 0x1A21 PUSH2 0x25FA JUMP JUMPDEST JUMPDEST PUSH1 0x9 PUSH0 SWAP1 SLOAD SWAP1 PUSH2 0x100 EXP SWAP1 DIV PUSH1 0xFF AND PUSH1 0x3 DUP2 GT ISZERO PUSH2 0x1A43 JUMPI PUSH2 0x1A42 PUSH2 0x25FA JUMP JUMPDEST JUMPDEST SUB PUSH2 0x1A83 JUMPI PUSH1 0x40 MLOAD PUSH32 0x8C379A000000000000000000000000000000000000000000000000000000000 DUP2 MSTORE PUSH1 0x4 ADD PUSH2 0x1A7A SWAP1 PUSH2 0x330E JUMP JUMPDEST PUSH1 0x40 MLOAD DUP1 SWAP2 SUB SWAP1 REVERT JUMPDEST PUSH0 PUSH1 0x9 PUSH0 SWAP1 SLOAD SWAP1 PUSH2 0x100 EXP SWAP1 DIV PUSH1 0xFF AND SWAP1 POP PUSH1 0x1 PUSH1 0x9 PUSH0 SWAP1 SLOAD SWAP1 PUSH2 0x100 EXP SWAP1 DIV PUSH1 0xFF AND PUSH1 0x3 DUP2 GT ISZERO PUSH2 0x1AB8 JUMPI PUSH2 0x1AB7 PUSH2 0x25FA JUMP JUMPDEST JUMPDEST PUSH2 0x1AC2 SWAP2 SWAP1 PUSH2 0x332C JUMP JUMPDEST PUSH1 0x3 DUP2 GT ISZERO PUSH2 0x1AD4 JUMPI PUSH2 0x1AD3 PUSH2 0x25FA JUMP JUMPDEST JUMPDEST PUSH1 0x9 PUSH0 PUSH2 0x100 EXP DUP2 SLOAD DUP2 PUSH1 0xFF MUL NOT AND SWAP1 DUP4 PUSH1 0x3 DUP2 GT ISZERO PUSH2 0x1AF7 JUMPI PUSH2 0x1AF6 PUSH2 0x25FA JUMP JUMPDEST JUMPDEST MUL OR SWAP1 SSTORE POP PUSH32 0xA97A4EE45751E2ABF3E4FC8946939630B11B371EA8AE39CCDC3056E98F5CC3F DUP2 PUSH1 0x9 PUSH0 SWAP1 SLOAD SWAP1 PUSH2 0x100 EXP SWAP1 DIV PUSH1 0xFF AND PUSH1 0x40 MLOAD PUSH2 0x1B3B SWAP3 SWAP2 SWAP1 PUSH2 0x335F JUMP JUMPDEST PUSH1 0x40 MLOAD DUP1 SWAP2 SUB SWAP1 LOG1 POP POP POP POP JUMP JUMPDEST PUSH2 0x1B51 PUSH2 0x1F95 JUMP JUMPDEST PUSH20 0xFFFFFFFFFFFFFFFFFFFFFFFFFFFFFFFFFFFFFFFF AND PUSH2 0x1B6F PUSH2 0x11B1 JUMP JUMPDEST PUSH20 0xFFFFFFFFFFFFFFFFFFFFFFFFFFFFFFFFFFFFFFFF AND EQ PUSH2 0x1BCE JUMPI PUSH2 0x1B92 PUSH2 0x1F95 JUMP JUMPDEST PUSH1 0x40 MLOAD PUSH32 0x118CDAA700000000000000000000000000000000000000000000000000000000 DUP2 MSTORE PUSH1 0x4 ADD PUSH2 0x1BC5 SWAP2 SWAP1 PUSH2 0x255B JUMP JUMPDEST PUSH1 0x40 MLOAD DUP1 SWAP2 SUB SWAP1 REVERT JUMPDEST JUMP JUMPDEST PUSH0 DUP1 PUSH0 SWAP1 SLOAD SWAP1 PUSH2 0x100 EXP SWAP1 DIV PUSH20 0xFFFFFFFFFFFFFFFFFFFFFFFFFFFFFFFFFFFFFFFF AND SWAP1 POP DUP2 PUSH0 DUP1 PUSH2 0x100 EXP DUP2 SLOAD DUP2 PUSH20 0xFFFFFFFFFFFFFFFFFFFFFFFFFFFFFFFFFFFFFFFF MUL NOT AND SWAP1 DUP4 PUSH20 0xFFFFFFFFFFFFFFFFFFFFFFFFFFFFFFFFFFFFFFFF AND MUL OR SWAP1 SSTORE POP DUP2 PUSH20 0xFFFFFFFFFFFFFFFFFFFFFFFFFFFFFFFFFFFFFFFF AND DUP2 PUSH20 0xFFFFFFFFFFFFFFFFFFFFFFFFFFFFFFFFFFFFFFFF AND PUSH32 0x8BE0079C531659141344CD1FD0A4F28419497F9722A3DAAFE3B4186F6B6457E0 PUSH1 0x40 MLOAD PUSH1 0x40 MLOAD DUP1 SWAP2 SUB SWAP1 LOG3 POP POP JUMP JUMPDEST PUSH0 PUSH1 0x3 PUSH0 DUP4 PUSH20 0xFFFFFFFFFFFFFFFFFFFFFFFFFFFFFFFFFFFFFFFF AND PUSH20 0xFFFFFFFFFFFFFFFFFFFFFFFFFFFFFFFFFFFFFFFF AND DUP2 MSTORE PUSH1 0x20 ADD SWAP1 DUP2 MSTORE PUSH1 0x20 ADD PUSH0 KECCAK256 PUSH1 0x1 ADD DUP2 SWAP1 SSTORE POP PUSH1 0x1 PUSH1 0x3 PUSH0 DUP4 PUSH20 0xFFFFFFFFFFFFFFFFFFFFFFFFFFFFFFFFFFFFFFFF AND PUSH20 0xFFFFFFFFFFFFFFFFFFFFFFFFFFFFFFFFFFFFFFFF AND DUP2 MSTORE PUSH1 0x20 ADD SWAP1 DUP2 MSTORE PUSH1 0x20 ADD PUSH0 KECCAK256 PUSH1 0x2 ADD DUP2 SWAP1 SSTORE POP PUSH1 0x1 PUSH1 0x3 PUSH0 DUP4 PUSH20 0xFFFFFFFFFFFFFFFFFFFFFFFFFFFFFFFFFFFFFFFF AND PUSH20 0xFFFFFFFFFFFFFFFFFFFFFFFFFFFFFFFFFFFFFFFF AND DUP2 MSTORE PUSH1 0x20 ADD SWAP1 DUP2 MSTORE PUSH1 0x20 ADD PUSH0 KECCAK256 PUSH0 ADD PUSH0 PUSH2 0x100 EXP DUP2 SLOAD DUP2 PUSH1 0xFF MUL NOT AND SWAP1 DUP4 ISZERO ISZERO MUL OR SWAP1 SSTORE POP PUSH2 0x1D7C DUP2 PUSH2 0x1F9C JUMP JUMPDEST PUSH1 0x5 PUSH0 DUP2 SLOAD DUP1 SWAP3 SWAP2 SWAP1 PUSH2 0x1D8E SWAP1 PUSH2 0x2B17 JUMP JUMPDEST SWAP2 SWAP1 POP SSTORE POP POP JUMP JUMPDEST PUSH0 PUSH1 0x3 PUSH0 DUP4 PUSH20 0xFFFFFFFFFFFFFFFFFFFFFFFFFFFFFFFFFFFFFFFF AND PUSH20 0xFFFFFFFFFFFFFFFFFFFFFFFFFFFFFFFFFFFFFFFF AND DUP2 MSTORE PUSH1 0x20 ADD SWAP1 DUP2 MSTORE PUSH1 0x20 ADD PUSH0 KECCAK256 PUSH0 ADD PUSH0 PUSH2 0x100 EXP DUP2 SLOAD DUP2 PUSH1 0xFF MUL NOT AND SWAP1 DUP4 ISZERO ISZERO MUL OR SWAP1 SSTORE POP PUSH0 PUSH1 0x3 PUSH0 DUP4 PUSH20 0xFFFFFFFFFFFFFFFFFFFFFFFFFFFFFFFFFFFFFFFF AND PUSH20 0xFFFFFFFFFFFFFFFFFFFFFFFFFFFFFFFFFFFFFFFF AND DUP2 MSTORE PUSH1 0x20 ADD SWAP1 DUP2 MSTORE PUSH1 0x20 ADD PUSH0 KECCAK256 PUSH1 0x1 ADD DUP2 SWAP1 SSTORE POP PUSH1 0x1 PUSH1 0x3 PUSH0 DUP4 PUSH20 0xFFFFFFFFFFFFFFFFFFFFFFFFFFFFFFFFFFFFFFFF AND PUSH20 0xFFFFFFFFFFFFFFFFFFFFFFFFFFFFFFFFFFFFFFFF AND DUP2 MSTORE PUSH1 0x20 ADD SWAP1 DUP2 MSTORE PUSH1 0x20 ADD PUSH0 KECCAK256 PUSH1 0x2 ADD DUP2 SWAP1 SSTORE POP PUSH1 0x3 PUSH0 DUP3 PUSH20 0xFFFFFFFFFFFFFFFFFFFFFFFFFFFFFFFFFFFFFFFF AND PUSH20 0xFFFFFFFFFFFFFFFFFFFFFFFFFFFFFFFFFFFFFFFF AND DUP2 MSTORE PUSH1 0x20 ADD SWAP1 DUP2 MSTORE PUSH1 0x20 ADD PUSH0 KECCAK256 PUSH1 0x3 ADD PUSH0 PUSH2 0x1EC2 SWAP2 SWAP1 PUSH2 0x2143 JUMP JUMPDEST PUSH0 JUMPDEST PUSH1 0x4 DUP1 SLOAD SWAP1 POP DUP2 LT ISZERO PUSH2 0x1F91 JUMPI DUP2 PUSH20 0xFFFFFFFFFFFFFFFFFFFFFFFFFFFFFFFFFFFFFFFF AND PUSH1 0x4 DUP3 DUP2 SLOAD DUP2 LT PUSH2 0x1EFC JUMPI PUSH2 0x1EFB PUSH2 0x2CC8 JUMP JUMPDEST JUMPDEST SWAP1 PUSH0 MSTORE PUSH1 0x20 PUSH0 KECCAK256 ADD PUSH0 SWAP1 SLOAD SWAP1 PUSH2 0x100 EXP SWAP1 DIV PUSH20 0xFFFFFFFFFFFFFFFFFFFFFFFFFFFFFFFFFFFFFFFF AND PUSH20 0xFFFFFFFFFFFFFFFFFFFFFFFFFFFFFFFFFFFFFFFF AND SUB PUSH2 0x1F84 JUMPI PUSH1 0x4 DUP1 SLOAD DUP1 PUSH2 0x1F51 JUMPI PUSH2 0x1F50 PUSH2 0x3386 JUMP JUMPDEST JUMPDEST PUSH1 0x1 SWAP1 SUB DUP2 DUP2 SWAP1 PUSH0 MSTORE PUSH1 0x20 PUSH0 KECCAK256 ADD PUSH0 PUSH2 0x100 EXP DUP2 SLOAD SWAP1 PUSH20 0xFFFFFFFFFFFFFFFFFFFFFFFFFFFFFFFFFFFFFFFF MUL NOT AND SWAP1 SSTORE SWAP1 SSTORE JUMPDEST DUP1 DUP1 PUSH1 0x1 ADD SWAP2 POP POP PUSH2 0x1EC4 JUMP JUMPDEST POP POP JUMP JUMPDEST PUSH0 CALLER SWAP1 POP SWAP1 JUMP JUMPDEST PUSH0 DUP1 JUMPDEST PUSH1 0x4 DUP1 SLOAD SWAP1 POP DUP2 LT ISZERO PUSH2 0x202C JUMPI DUP3 PUSH20 0xFFFFFFFFFFFFFFFFFFFFFFFFFFFFFFFFFFFFFFFF AND PUSH1 0x4 DUP3 DUP2 SLOAD DUP2 LT PUSH2 0x1FD7 JUMPI PUSH2 0x1FD6 PUSH2 0x2CC8 JUMP JUMPDEST JUMPDEST SWAP1 PUSH0 MSTORE PUSH1 0x20 PUSH0 KECCAK256 ADD PUSH0 SWAP1 SLOAD SWAP1 PUSH2 0x100 EXP SWAP1 DIV PUSH20 0xFFFFFFFFFFFFFFFFFFFFFFFFFFFFFFFFFFFFFFFF AND PUSH20 0xFFFFFFFFFFFFFFFFFFFFFFFFFFFFFFFFFFFFFFFF AND SUB PUSH2 0x201F JUMPI PUSH1 0x1 SWAP2 POP JUMPDEST DUP1 DUP1 PUSH1 0x1 ADD SWAP2 POP POP PUSH2 0x1F9F JUMP JUMPDEST POP PUSH0 ISZERO ISZERO DUP2 ISZERO ISZERO SUB PUSH2 0x2099 JUMPI PUSH1 0x4 DUP3 SWAP1 DUP1 PUSH1 0x1 DUP2 SLOAD ADD DUP1 DUP3 SSTORE DUP1 SWAP2 POP POP PUSH1 0x1 SWAP1 SUB SWAP1 PUSH0 MSTORE PUSH1 0x20 PUSH0 KECCAK256 ADD PUSH0 SWAP1 SWAP2 SWAP1 SWAP2 SWAP1 SWAP2 PUSH2 0x100 EXP DUP2 SLOAD DUP2 PUSH20 0xFFFFFFFFFFFFFFFFFFFFFFFFFFFFFFFFFFFFFFFF MUL NOT AND SWAP1 DUP4 PUSH20 0xFFFFFFFFFFFFFFFFFFFFFFFFFFFFFFFFFFFFFFFF AND MUL OR SWAP1 SSTORE POP JUMPDEST POP POP JUMP JUMPDEST POP DUP1 SLOAD PUSH0 DUP3 SSTORE PUSH1 0x4 MUL SWAP1 PUSH0 MSTORE PUSH1 0x20 PUSH0 KECCAK256 SWAP1 DUP2 ADD SWAP1 PUSH2 0x20BB SWAP2 SWAP1 PUSH2 0x21A4 JUMP JUMPDEST POP JUMP JUMPDEST DUP3 DUP1 SLOAD DUP3 DUP3 SSTORE SWAP1 PUSH0 MSTORE PUSH1 0x20 PUSH0 KECCAK256 SWAP1 PUSH1 0x4 MUL DUP2 ADD SWAP3 DUP3 ISZERO PUSH2 0x2132 JUMPI PUSH0 MSTORE PUSH1 0x20 PUSH0 KECCAK256 SWAP2 PUSH1 0x4 MUL DUP3 ADD JUMPDEST DUP3 DUP2 GT ISZERO PUSH2 0x2131 JUMPI DUP3 DUP3 PUSH0 DUP3 ADD SLOAD DUP2 PUSH0 ADD SSTORE PUSH1 0x1 DUP3 ADD DUP2 PUSH1 0x1 ADD SWAP1 DUP2 PUSH2 0x210B SWAP2 SWAP1 PUSH2 0x33C8 JUMP JUMPDEST POP PUSH1 0x2 DUP3 ADD SLOAD DUP2 PUSH1 0x2 ADD SSTORE PUSH1 0x3 DUP3 ADD SLOAD DUP2 PUSH1 0x3 ADD SSTORE POP POP SWAP2 PUSH1 0x4 ADD SWAP2 SWAP1 PUSH1 0x4 ADD SWAP1 PUSH2 0x20E5 JUMP JUMPDEST JUMPDEST POP SWAP1 POP PUSH2 0x213F SWAP2 SWAP1 PUSH2 0x21A4 JUMP JUMPDEST POP SWAP1 JUMP JUMPDEST POP DUP1 SLOAD PUSH0 DUP3 SSTORE SWAP1 PUSH0 MSTORE PUSH1 0x20 PUSH0 KECCAK256 SWAP1 DUP2 ADD SWAP1 PUSH2 0x215E SWAP2 SWAP1 PUSH2 0x21DE JUMP JUMPDEST POP JUMP JUMPDEST POP DUP1 SLOAD PUSH0 DUP3 SSTORE SWAP1 PUSH0 MSTORE PUSH1 0x20 PUSH0 KECCAK256 SWAP1 DUP2 ADD SWAP1 PUSH2 0x217C SWAP2 SWAP1 PUSH2 0x21DE JUMP JUMPDEST POP JUMP JUMPDEST PUSH1 0x40 MLOAD DUP1 PUSH1 0x80 ADD PUSH1 0x40 MSTORE DUP1 PUSH0 DUP2 MSTORE PUSH1 0x20 ADD PUSH1 0x60 DUP2 MSTORE PUSH1 0x20 ADD PUSH0 DUP2 MSTORE PUSH1 0x20 ADD PUSH0 DUP2 MSTORE POP SWAP1 JUMP JUMPDEST JUMPDEST DUP1 DUP3 GT ISZERO PUSH2 0x21DA JUMPI PUSH0 DUP1 DUP3 ADD PUSH0 SWAP1 SSTORE PUSH1 0x1 DUP3 ADD PUSH0 PUSH2 0x21C3 SWAP2 SWAP1 PUSH2 0x21F9 JUMP JUMPDEST PUSH1 0x2 DUP3 ADD PUSH0 SWAP1 SSTORE PUSH1 0x3 DUP3 ADD PUSH0 SWAP1 SSTORE POP PUSH1 0x4 ADD PUSH2 0x21A5 JUMP JUMPDEST POP SWAP1 JUMP JUMPDEST JUMPDEST DUP1 DUP3 GT ISZERO PUSH2 0x21F5 JUMPI PUSH0 DUP2 PUSH0 SWAP1 SSTORE POP PUSH1 0x1 ADD PUSH2 0x21DF JUMP JUMPDEST POP SWAP1 JUMP JUMPDEST POP DUP1 SLOAD PUSH2 0x2205 SWAP1 PUSH2 0x2751 JUMP JUMPDEST PUSH0 DUP3 SSTORE DUP1 PUSH1 0x1F LT PUSH2 0x2216 JUMPI POP PUSH2 0x2233 JUMP JUMPDEST PUSH1 0x1F ADD PUSH1 0x20 SWAP1 DIV SWAP1 PUSH0 MSTORE PUSH1 0x20 PUSH0 KECCAK256 SWAP1 DUP2 ADD SWAP1 PUSH2 0x2232 SWAP2 SWAP1 PUSH2 0x21DE JUMP JUMPDEST JUMPDEST POP JUMP JUMPDEST PUSH0 DUP2 MLOAD SWAP1 POP SWAP2 SWAP1 POP JUMP JUMPDEST PUSH0 DUP3 DUP3 MSTORE PUSH1 0x20 DUP3 ADD SWAP1 POP SWAP3 SWAP2 POP POP JUMP JUMPDEST PUSH0 DUP2 SWAP1 POP PUSH1 0x20 DUP3 ADD SWAP1 POP SWAP2 SWAP1 POP JUMP JUMPDEST PUSH0 DUP2 SWAP1 POP SWAP2 SWAP1 POP JUMP JUMPDEST PUSH2 0x2271 DUP2 PUSH2 0x225F JUMP JUMPDEST DUP3 MSTORE POP POP JUMP JUMPDEST PUSH0 DUP2 MLOAD SWAP1 POP SWAP2 SWAP1 POP JUMP JUMPDEST PUSH0 DUP3 DUP3 MSTORE PUSH1 0x20 DUP3 ADD SWAP1 POP SWAP3 SWAP2 POP POP JUMP JUMPDEST PUSH0 JUMPDEST DUP4 DUP2 LT ISZERO PUSH2 0x22AE JUMPI DUP1 DUP3 ADD MLOAD DUP2 DUP5 ADD MSTORE PUSH1 0x20 DUP2 ADD SWAP1 POP PUSH2 0x2293 JUMP JUMPDEST PUSH0 DUP5 DUP5 ADD MSTORE POP POP POP POP JUMP JUMPDEST PUSH0 PUSH1 0x1F NOT PUSH1 0x1F DUP4 ADD AND SWAP1 POP SWAP2 SWAP1 POP JUMP JUMPDEST PUSH0 PUSH2 0x22D3 DUP3 PUSH2 0x2277 JUMP JUMPDEST PUSH2 0x22DD DUP2 DUP6 PUSH2 0x2281 JUMP JUMPDEST SWAP4 POP PUSH2 0x22ED DUP2 DUP6 PUSH1 0x20 DUP7 ADD PUSH2 0x2291 JUMP JUMPDEST PUSH2 0x22F6 DUP2 PUSH2 0x22B9 JUMP JUMPDEST DUP5 ADD SWAP2 POP POP SWAP3 SWAP2 POP POP JUMP JUMPDEST PUSH0 PUSH1 0x80 DUP4 ADD PUSH0 DUP4 ADD MLOAD PUSH2 0x2316 PUSH0 DUP7 ADD DUP3 PUSH2 0x2268 JUMP JUMPDEST POP PUSH1 0x20 DUP4 ADD MLOAD DUP5 DUP3 SUB PUSH1 0x20 DUP7 ADD MSTORE PUSH2 0x232E DUP3 DUP3 PUSH2 0x22C9 JUMP JUMPDEST SWAP2 POP POP PUSH1 0x40 DUP4 ADD MLOAD PUSH2 0x2343 PUSH1 0x40 DUP7 ADD DUP3 PUSH2 0x2268 JUMP JUMPDEST POP PUSH1 0x60 DUP4 ADD MLOAD PUSH2 0x2356 PUSH1 0x60 DUP7 ADD DUP3 PUSH2 0x2268 JUMP JUMPDEST POP DUP1 SWAP2 POP POP SWAP3 SWAP2 POP POP JUMP JUMPDEST PUSH0 PUSH2 0x236C DUP4 DUP4 PUSH2 0x2301 JUMP JUMPDEST SWAP1 POP SWAP3 SWAP2 POP POP JUMP JUMPDEST PUSH0 PUSH1 0x20 DUP3 ADD SWAP1 POP SWAP2 SWAP1 POP JUMP JUMPDEST PUSH0 PUSH2 0x238A DUP3 PUSH2 0x2236 JUMP JUMPDEST PUSH2 0x2394 DUP2 DUP6 PUSH2 0x2240 JUMP JUMPDEST SWAP4 POP DUP4 PUSH1 0x20 DUP3 MUL DUP6 ADD PUSH2 0x23A6 DUP6 PUSH2 0x2250 JUMP JUMPDEST DUP1 PUSH0 JUMPDEST DUP6 DUP2 LT ISZERO PUSH2 0x23E1 JUMPI DUP5 DUP5 SUB DUP10 MSTORE DUP2 MLOAD PUSH2 0x23C2 DUP6 DUP3 PUSH2 0x2361 JUMP JUMPDEST SWAP5 POP PUSH2 0x23CD DUP4 PUSH2 0x2374 JUMP JUMPDEST SWAP3 POP PUSH1 0x20 DUP11 ADD SWAP10 POP POP PUSH1 0x1 DUP2 ADD SWAP1 POP PUSH2 0x23A9 JUMP JUMPDEST POP DUP3 SWAP8 POP DUP8 SWAP6 POP POP POP POP POP POP SWAP3 SWAP2 POP POP JUMP JUMPDEST PUSH0 PUSH1 0x20 DUP3 ADD SWAP1 POP DUP2 DUP2 SUB PUSH0 DUP4 ADD MSTORE PUSH2 0x240B DUP2 DUP5 PUSH2 0x2380 JUMP JUMPDEST SWAP1 POP SWAP3 SWAP2 POP POP JUMP JUMPDEST PUSH0 DUP1 REVERT JUMPDEST PUSH0 DUP1 REVERT JUMPDEST PUSH0 DUP1 REVERT JUMPDEST PUSH0 DUP1 REVERT JUMPDEST PUSH0 DUP1 REVERT JUMPDEST PUSH0 DUP1 DUP4 PUSH1 0x1F DUP5 ADD SLT PUSH2 0x243C JUMPI PUSH2 0x243B PUSH2 0x241B JUMP JUMPDEST JUMPDEST DUP3 CALLDATALOAD SWAP1 POP PUSH8 0xFFFFFFFFFFFFFFFF DUP2 GT ISZERO PUSH2 0x2459 JUMPI PUSH2 0x2458 PUSH2 0x241F JUMP JUMPDEST JUMPDEST PUSH1 0x20 DUP4 ADD SWAP2 POP DUP4 PUSH1 0x1 DUP3 MUL DUP4 ADD GT ISZERO PUSH2 0x2475 JUMPI PUSH2 0x2474 PUSH2 0x2423 JUMP JUMPDEST JUMPDEST SWAP3 POP SWAP3 SWAP1 POP JUMP JUMPDEST PUSH0 DUP1 PUSH1 0x20 DUP4 DUP6 SUB SLT ISZERO PUSH2 0x2492 JUMPI PUSH2 0x2491 PUSH2 0x2413 JUMP JUMPDEST JUMPDEST PUSH0 DUP4 ADD CALLDATALOAD PUSH8 0xFFFFFFFFFFFFFFFF DUP2 GT ISZERO PUSH2 0x24AF JUMPI PUSH2 0x24AE PUSH2 0x2417 JUMP JUMPDEST JUMPDEST PUSH2 0x24BB DUP6 DUP3 DUP7 ADD PUSH2 0x2427 JUMP JUMPDEST SWAP3 POP SWAP3 POP POP SWAP3 POP SWAP3 SWAP1 POP JUMP JUMPDEST PUSH2 0x24D0 DUP2 PUSH2 0x225F JUMP JUMPDEST DUP2 EQ PUSH2 0x24DA JUMPI PUSH0 DUP1 REVERT JUMPDEST POP JUMP JUMPDEST PUSH0 DUP2 CALLDATALOAD SWAP1 POP PUSH2 0x24EB DUP2 PUSH2 0x24C7 JUMP JUMPDEST SWAP3 SWAP2 POP POP JUMP JUMPDEST PUSH0 PUSH1 0x20 DUP3 DUP5 SUB SLT ISZERO PUSH2 0x2506 JUMPI PUSH2 0x2505 PUSH2 0x2413 JUMP JUMPDEST JUMPDEST PUSH0 PUSH2 0x2513 DUP5 DUP3 DUP6 ADD PUSH2 0x24DD JUMP JUMPDEST SWAP2 POP POP SWAP3 SWAP2 POP POP JUMP JUMPDEST PUSH0 PUSH20 0xFFFFFFFFFFFFFFFFFFFFFFFFFFFFFFFFFFFFFFFF DUP3 AND SWAP1 POP SWAP2 SWAP1 POP JUMP JUMPDEST PUSH0 PUSH2 0x2545 DUP3 PUSH2 0x251C JUMP JUMPDEST SWAP1 POP SWAP2 SWAP1 POP JUMP JUMPDEST PUSH2 0x2555 DUP2 PUSH2 0x253B JUMP JUMPDEST DUP3 MSTORE POP POP JUMP JUMPDEST PUSH0 PUSH1 0x20 DUP3 ADD SWAP1 POP PUSH2 0x256E PUSH0 DUP4 ADD DUP5 PUSH2 0x254C JUMP JUMPDEST SWAP3 SWAP2 POP POP JUMP JUMPDEST PUSH0 DUP2 SWAP1 POP SWAP2 SWAP1 POP JUMP JUMPDEST PUSH2 0x2586 DUP2 PUSH2 0x2574 JUMP JUMPDEST DUP3 MSTORE POP POP JUMP JUMPDEST PUSH0 PUSH1 0x20 DUP3 ADD SWAP1 POP PUSH2 0x259F PUSH0 DUP4 ADD DUP5 PUSH2 0x257D JUMP JUMPDEST SWAP3 SWAP2 POP POP JUMP JUMPDEST PUSH2 0x25AE DUP2 PUSH2 0x253B JUMP JUMPDEST DUP2 EQ PUSH2 0x25B8 JUMPI PUSH0 DUP1 REVERT JUMPDEST POP JUMP JUMPDEST PUSH0 DUP2 CALLDATALOAD SWAP1 POP PUSH2 0x25C9 DUP2 PUSH2 0x25A5 JUMP JUMPDEST SWAP3 SWAP2 POP POP JUMP JUMPDEST PUSH0 PUSH1 0x20 DUP3 DUP5 SUB SLT ISZERO PUSH2 0x25E4 JUMPI PUSH2 0x25E3 PUSH2 0x2413 JUMP JUMPDEST JUMPDEST PUSH0 PUSH2 0x25F1 DUP5 DUP3 DUP6 ADD PUSH2 0x25BB JUMP JUMPDEST SWAP2 POP POP SWAP3 SWAP2 POP POP JUMP JUMPDEST PUSH32 0x4E487B7100000000000000000000000000000000000000000000000000000000 PUSH0 MSTORE PUSH1 0x21 PUSH1 0x4 MSTORE PUSH1 0x24 PUSH0 REVERT JUMPDEST PUSH1 0x4 DUP2 LT PUSH2 0x2638 JUMPI PUSH2 0x2637 PUSH2 0x25FA JUMP JUMPDEST JUMPDEST POP JUMP JUMPDEST PUSH0 DUP2 SWAP1 POP PUSH2 0x2648 DUP3 PUSH2 0x2627 JUMP JUMPDEST SWAP2 SWAP1 POP JUMP JUMPDEST PUSH0 PUSH2 0x2657 DUP3 PUSH2 0x263B JUMP JUMPDEST SWAP1 POP SWAP2 SWAP1 POP JUMP JUMPDEST PUSH2 0x2667 DUP2 PUSH2 0x264D JUMP JUMPDEST DUP3 MSTORE POP POP JUMP JUMPDEST PUSH0 PUSH1 0x20 DUP3 ADD SWAP1 POP PUSH2 0x2680 PUSH0 DUP4 ADD DUP5 PUSH2 0x265E JUMP JUMPDEST SWAP3 SWAP2 POP POP JUMP JUMPDEST PUSH0 DUP3 DUP3 MSTORE PUSH1 0x20 DUP3 ADD SWAP1 POP SWAP3 SWAP2 POP POP JUMP JUMPDEST PUSH32 0x546865726520617265206E6F2070726F706F736974696F6E7320726567697374 PUSH0 DUP3 ADD MSTORE PUSH32 0x6572656420796574210000000000000000000000000000000000000000000000 PUSH1 0x20 DUP3 ADD MSTORE POP JUMP JUMPDEST PUSH0 PUSH2 0x26F0 PUSH1 0x29 DUP4 PUSH2 0x2686 JUMP JUMPDEST SWAP2 POP PUSH2 0x26FB DUP3 PUSH2 0x2696 JUMP JUMPDEST PUSH1 0x40 DUP3 ADD SWAP1 POP SWAP2 SWAP1 POP JUMP JUMPDEST PUSH0 PUSH1 0x20 DUP3 ADD SWAP1 POP DUP2 DUP2 SUB PUSH0 DUP4 ADD MSTORE PUSH2 0x271D DUP2 PUSH2 0x26E4 JUMP JUMPDEST SWAP1 POP SWAP2 SWAP1 POP JUMP JUMPDEST PUSH32 0x4E487B7100000000000000000000000000000000000000000000000000000000 PUSH0 MSTORE PUSH1 0x22 PUSH1 0x4 MSTORE PUSH1 0x24 PUSH0 REVERT JUMPDEST PUSH0 PUSH1 0x2 DUP3 DIV SWAP1 POP PUSH1 0x1 DUP3 AND DUP1 PUSH2 0x2768 JUMPI PUSH1 0x7F DUP3 AND SWAP2 POP JUMPDEST PUSH1 0x20 DUP3 LT DUP2 SUB PUSH2 0x277B JUMPI PUSH2 0x277A PUSH2 0x2724 JUMP JUMPDEST JUMPDEST POP SWAP2 SWAP1 POP JUMP JUMPDEST PUSH32 0x596F7520617265206E6F7420612076616C696420766F74657221000000000000 PUSH0 DUP3 ADD MSTORE POP JUMP JUMPDEST PUSH0 PUSH2 0x27B5 PUSH1 0x1A DUP4 PUSH2 0x2686 JUMP JUMPDEST SWAP2 POP PUSH2 0x27C0 DUP3 PUSH2 0x2781 JUMP JUMPDEST PUSH1 0x20 DUP3 ADD SWAP1 POP SWAP2 SWAP1 POP JUMP JUMPDEST PUSH0 PUSH1 0x20 DUP3 ADD SWAP1 POP DUP2 DUP2 SUB PUSH0 DUP4 ADD MSTORE PUSH2 0x27E2 DUP2 PUSH2 0x27A9 JUMP JUMPDEST SWAP1 POP SWAP2 SWAP1 POP JUMP JUMPDEST PUSH32 0x596F752063616E6E6F742072656769737465722070726F706F73616C73000000 PUSH0 DUP3 ADD MSTORE POP JUMP JUMPDEST PUSH0 PUSH2 0x281D PUSH1 0x1D DUP4 PUSH2 0x2686 JUMP JUMPDEST SWAP2 POP PUSH2 0x2828 DUP3 PUSH2 0x27E9 JUMP JUMPDEST PUSH1 0x20 DUP3 ADD SWAP1 POP SWAP2 SWAP1 POP JUMP JUMPDEST PUSH0 PUSH1 0x20 DUP3 ADD SWAP1 POP DUP2 DUP2 SUB PUSH0 DUP4 ADD MSTORE PUSH2 0x284A DUP2 PUSH2 0x2811 JUMP JUMPDEST SWAP1 POP SWAP2 SWAP1 POP JUMP JUMPDEST PUSH32 0x4E487B7100000000000000000000000000000000000000000000000000000000 PUSH0 MSTORE PUSH1 0x41 PUSH1 0x4 MSTORE PUSH1 0x24 PUSH0 REVERT JUMPDEST PUSH0 DUP2 SWAP1 POP DUP2 PUSH0 MSTORE PUSH1 0x20 PUSH0 KECCAK256 SWAP1 POP SWAP2 SWAP1 POP JUMP JUMPDEST PUSH0 PUSH1 0x20 PUSH1 0x1F DUP4 ADD DIV SWAP1 POP SWAP2 SWAP1 POP JUMP JUMPDEST PUSH0 DUP3 DUP3 SHL SWAP1 POP SWAP3 SWAP2 POP POP JUMP JUMPDEST PUSH0 PUSH1 0x8 DUP4 MUL PUSH2 0x28DA PUSH32 0xFFFFFFFFFFFFFFFFFFFFFFFFFFFFFFFFFFFFFFFFFFFFFFFFFFFFFFFFFFFFFFFF DUP3 PUSH2 0x289F JUMP JUMPDEST PUSH2 0x28E4 DUP7 DUP4 PUSH2 0x289F JUMP JUMPDEST SWAP6 POP DUP1 NOT DUP5 AND SWAP4 POP DUP1 DUP7 AND DUP5 OR SWAP3 POP POP POP SWAP4 SWAP3 POP POP POP JUMP JUMPDEST PUSH0 DUP2 SWAP1 POP SWAP2 SWAP1 POP JUMP JUMPDEST PUSH0 PUSH2 0x291F PUSH2 0x291A PUSH2 0x2915 DUP5 PUSH2 0x225F JUMP JUMPDEST PUSH2 0x28FC JUMP JUMPDEST PUSH2 0x225F JUMP JUMPDEST SWAP1 POP SWAP2 SWAP1 POP JUMP JUMPDEST PUSH0 DUP2 SWAP1 POP SWAP2 SWAP1 POP JUMP JUMPDEST PUSH2 0x2938 DUP4 PUSH2 0x2905 JUMP JUMPDEST PUSH2 0x294C PUSH2 0x2944 DUP3 PUSH2 0x2926 JUMP JUMPDEST DUP5 DUP5 SLOAD PUSH2 0x28AB JUMP JUMPDEST DUP3 SSTORE POP POP POP POP JUMP JUMPDEST PUSH0 SWAP1 JUMP JUMPDEST PUSH2 0x2960 PUSH2 0x2954 JUMP JUMPDEST PUSH2 0x296B DUP2 DUP5 DUP5 PUSH2 0x292F JUMP JUMPDEST POP POP POP JUMP JUMPDEST JUMPDEST DUP2 DUP2 LT ISZERO PUSH2 0x298E JUMPI PUSH2 0x2983 PUSH0 DUP3 PUSH2 0x2958 JUMP JUMPDEST PUSH1 0x1 DUP2 ADD SWAP1 POP PUSH2 0x2971 JUMP JUMPDEST POP POP JUMP JUMPDEST PUSH1 0x1F DUP3 GT ISZERO PUSH2 0x29D3 JUMPI PUSH2 0x29A4 DUP2 PUSH2 0x287E JUMP JUMPDEST PUSH2 0x29AD DUP5 PUSH2 0x2890 JUMP JUMPDEST DUP2 ADD PUSH1 0x20 DUP6 LT ISZERO PUSH2 0x29BC JUMPI DUP2 SWAP1 POP JUMPDEST PUSH2 0x29D0 PUSH2 0x29C8 DUP6 PUSH2 0x2890 JUMP JUMPDEST DUP4 ADD DUP3 PUSH2 0x2970 JUMP JUMPDEST POP POP JUMPDEST POP POP POP JUMP JUMPDEST PUSH0 DUP3 DUP3 SHR SWAP1 POP SWAP3 SWAP2 POP POP JUMP JUMPDEST PUSH0 PUSH2 0x29F3 PUSH0 NOT DUP5 PUSH1 0x8 MUL PUSH2 0x29D8 JUMP JUMPDEST NOT DUP1 DUP4 AND SWAP2 POP POP SWAP3 SWAP2 POP POP JUMP JUMPDEST PUSH0 PUSH2 0x2A0B DUP4 DUP4 PUSH2 0x29E4 JUMP JUMPDEST SWAP2 POP DUP3 PUSH1 0x2 MUL DUP3 OR SWAP1 POP SWAP3 SWAP2 POP POP JUMP JUMPDEST PUSH2 0x2A24 DUP3 PUSH2 0x2277 JUMP JUMPDEST PUSH8 0xFFFFFFFFFFFFFFFF DUP2 GT ISZERO PUSH2 0x2A3D JUMPI PUSH2 0x2A3C PUSH2 0x2851 JUMP JUMPDEST JUMPDEST PUSH2 0x2A47 DUP3 SLOAD PUSH2 0x2751 JUMP JUMPDEST PUSH2 0x2A52 DUP3 DUP3 DUP6 PUSH2 0x2992 JUMP JUMPDEST PUSH0 PUSH1 0x20 SWAP1 POP PUSH1 0x1F DUP4 GT PUSH1 0x1 DUP2 EQ PUSH2 0x2A83 JUMPI PUSH0 DUP5 ISZERO PUSH2 0x2A71 JUMPI DUP3 DUP8 ADD MLOAD SWAP1 POP JUMPDEST PUSH2 0x2A7B DUP6 DUP3 PUSH2 0x2A00 JUMP JUMPDEST DUP7 SSTORE POP PUSH2 0x2AE2 JUMP JUMPDEST PUSH1 0x1F NOT DUP5 AND PUSH2 0x2A91 DUP7 PUSH2 0x287E JUMP JUMPDEST PUSH0 JUMPDEST DUP3 DUP2 LT ISZERO PUSH2 0x2AB8 JUMPI DUP5 DUP10 ADD MLOAD DUP3 SSTORE PUSH1 0x1 DUP3 ADD SWAP2 POP PUSH1 0x20 DUP6 ADD SWAP5 POP PUSH1 0x20 DUP2 ADD SWAP1 POP PUSH2 0x2A93 JUMP JUMPDEST DUP7 DUP4 LT ISZERO PUSH2 0x2AD5 JUMPI DUP5 DUP10 ADD MLOAD PUSH2 0x2AD1 PUSH1 0x1F DUP10 AND DUP3 PUSH2 0x29E4 JUMP JUMPDEST DUP4 SSTORE POP JUMPDEST PUSH1 0x1 PUSH1 0x2 DUP9 MUL ADD DUP9 SSTORE POP POP POP JUMPDEST POP POP POP POP POP POP JUMP JUMPDEST PUSH32 0x4E487B7100000000000000000000000000000000000000000000000000000000 PUSH0 MSTORE PUSH1 0x11 PUSH1 0x4 MSTORE PUSH1 0x24 PUSH0 REVERT JUMPDEST PUSH0 PUSH2 0x2B21 DUP3 PUSH2 0x225F JUMP JUMPDEST SWAP2 POP PUSH32 0xFFFFFFFFFFFFFFFFFFFFFFFFFFFFFFFFFFFFFFFFFFFFFFFFFFFFFFFFFFFFFFFF DUP3 SUB PUSH2 0x2B53 JUMPI PUSH2 0x2B52 PUSH2 0x2AEA JUMP JUMPDEST JUMPDEST PUSH1 0x1 DUP3 ADD SWAP1 POP SWAP2 SWAP1 POP JUMP JUMPDEST PUSH2 0x2B67 DUP2 PUSH2 0x225F JUMP JUMPDEST DUP3 MSTORE POP POP JUMP JUMPDEST PUSH0 PUSH1 0x20 DUP3 ADD SWAP1 POP PUSH2 0x2B80 PUSH0 DUP4 ADD DUP5 PUSH2 0x2B5E JUMP JUMPDEST SWAP3 SWAP2 POP POP JUMP JUMPDEST PUSH32 0x566F746573206E65656420746F2062652074616C6C69656420696E206F726465 PUSH0 DUP3 ADD MSTORE PUSH32 0x7220746F20706572666F726D2074686973206F7065726174696F6E0000000000 PUSH1 0x20 DUP3 ADD MSTORE POP JUMP JUMPDEST PUSH0 PUSH2 0x2BE0 PUSH1 0x3B DUP4 PUSH2 0x2686 JUMP JUMPDEST SWAP2 POP PUSH2 0x2BEB DUP3 PUSH2 0x2B86 JUMP JUMPDEST PUSH1 0x40 DUP3 ADD SWAP1 POP SWAP2 SWAP1 POP JUMP JUMPDEST PUSH0 PUSH1 0x20 DUP3 ADD SWAP1 POP DUP2 DUP2 SUB PUSH0 DUP4 ADD MSTORE PUSH2 0x2C0D DUP2 PUSH2 0x2BD4 JUMP JUMPDEST SWAP1 POP SWAP2 SWAP1 POP JUMP JUMPDEST PUSH32 0x546865726520617265206E6F20657175616C69747920696E20726573756C7473 PUSH0 DUP3 ADD MSTORE PUSH32 0x20736F20776520646F6E2774206E65656420746F20627265616B207468652074 PUSH1 0x20 DUP3 ADD MSTORE PUSH32 0x6965210000000000000000000000000000000000000000000000000000000000 PUSH1 0x40 DUP3 ADD MSTORE POP JUMP JUMPDEST PUSH0 PUSH2 0x2C94 PUSH1 0x43 DUP4 PUSH2 0x2686 JUMP JUMPDEST SWAP2 POP PUSH2 0x2C9F DUP3 PUSH2 0x2C14 JUMP JUMPDEST PUSH1 0x60 DUP3 ADD SWAP1 POP SWAP2 SWAP1 POP JUMP JUMPDEST PUSH0 PUSH1 0x20 DUP3 ADD SWAP1 POP DUP2 DUP2 SUB PUSH0 DUP4 ADD MSTORE PUSH2 0x2CC1 DUP2 PUSH2 0x2C88 JUMP JUMPDEST SWAP1 POP SWAP2 SWAP1 POP JUMP JUMPDEST PUSH32 0x4E487B7100000000000000000000000000000000000000000000000000000000 PUSH0 MSTORE PUSH1 0x32 PUSH1 0x4 MSTORE PUSH1 0x24 PUSH0 REVERT JUMPDEST PUSH32 0x596F752063616E6E6F7420766F74652070726F706F73616C7300000000000000 PUSH0 DUP3 ADD MSTORE POP JUMP JUMPDEST PUSH0 PUSH2 0x2D29 PUSH1 0x19 DUP4 PUSH2 0x2686 JUMP JUMPDEST SWAP2 POP PUSH2 0x2D34 DUP3 PUSH2 0x2CF5 JUMP JUMPDEST PUSH1 0x20 DUP3 ADD SWAP1 POP SWAP2 SWAP1 POP JUMP JUMPDEST PUSH0 PUSH1 0x20 DUP3 ADD SWAP1 POP DUP2 DUP2 SUB PUSH0 DUP4 ADD MSTORE PUSH2 0x2D56 DUP2 PUSH2 0x2D1D JUMP JUMPDEST SWAP1 POP SWAP2 SWAP1 POP JUMP JUMPDEST PUSH32 0x596F7520616C7265616479207573656420616C6C20796F757220766F74657321 PUSH0 DUP3 ADD MSTORE POP JUMP JUMPDEST PUSH0 PUSH2 0x2D91 PUSH1 0x20 DUP4 PUSH2 0x2686 JUMP JUMPDEST SWAP2 POP PUSH2 0x2D9C DUP3 PUSH2 0x2D5D JUMP JUMPDEST PUSH1 0x20 DUP3 ADD SWAP1 POP SWAP2 SWAP1 POP JUMP JUMPDEST PUSH0 PUSH1 0x20 DUP3 ADD SWAP1 POP DUP2 DUP2 SUB PUSH0 DUP4 ADD MSTORE PUSH2 0x2DBE DUP2 PUSH2 0x2D85 JUMP JUMPDEST SWAP1 POP SWAP2 SWAP1 POP JUMP JUMPDEST PUSH32 0x5468652070726F706F736974696F6E20796F7527726520766F74696E6720666F PUSH0 DUP3 ADD MSTORE PUSH32 0x7220646F6573206E6F7420657869737421000000000000000000000000000000 PUSH1 0x20 DUP3 ADD MSTORE POP JUMP JUMPDEST PUSH0 PUSH2 0x2E1F PUSH1 0x31 DUP4 PUSH2 0x2686 JUMP JUMPDEST SWAP2 POP PUSH2 0x2E2A DUP3 PUSH2 0x2DC5 JUMP JUMPDEST PUSH1 0x40 DUP3 ADD SWAP1 POP SWAP2 SWAP1 POP JUMP JUMPDEST PUSH0 PUSH1 0x20 DUP3 ADD SWAP1 POP DUP2 DUP2 SUB PUSH0 DUP4 ADD MSTORE PUSH2 0x2E4C DUP2 PUSH2 0x2E13 JUMP JUMPDEST SWAP1 POP SWAP2 SWAP1 POP JUMP JUMPDEST PUSH0 PUSH1 0x40 DUP3 ADD SWAP1 POP PUSH2 0x2E66 PUSH0 DUP4 ADD DUP6 PUSH2 0x254C JUMP JUMPDEST PUSH2 0x2E73 PUSH1 0x20 DUP4 ADD DUP5 PUSH2 0x2B5E JUMP JUMPDEST SWAP4 SWAP3 POP POP POP JUMP JUMPDEST PUSH32 0x596F75206D75737420766F746520616761696E20666F72206F6E65206F662074 PUSH0 DUP3 ADD MSTORE PUSH32 0x68652070726F706F736974696F6E73207768696368207175616C696669656420 PUSH1 0x20 DUP3 ADD MSTORE PUSH32 0x70726576696F75736C7921000000000000000000000000000000000000000000 PUSH1 0x40 DUP3 ADD MSTORE POP JUMP JUMPDEST PUSH0 PUSH2 0x2EFA PUSH1 0x4B DUP4 PUSH2 0x2686 JUMP JUMPDEST SWAP2 POP PUSH2 0x2F05 DUP3 PUSH2 0x2E7A JUMP JUMPDEST PUSH1 0x60 DUP3 ADD SWAP1 POP SWAP2 SWAP1 POP JUMP JUMPDEST PUSH0 PUSH1 0x20 DUP3 ADD SWAP1 POP DUP2 DUP2 SUB PUSH0 DUP4 ADD MSTORE PUSH2 0x2F27 DUP2 PUSH2 0x2EEE JUMP JUMPDEST SWAP1 POP SWAP2 SWAP1 POP JUMP JUMPDEST PUSH32 0x5468657265206973206E6F2077696E6E696E672070726F706F736974696F6E20 PUSH0 DUP3 ADD MSTORE PUSH32 0x7965742100000000000000000000000000000000000000000000000000000000 PUSH1 0x20 DUP3 ADD MSTORE POP JUMP JUMPDEST PUSH0 PUSH2 0x2F88 PUSH1 0x24 DUP4 PUSH2 0x2686 JUMP JUMPDEST SWAP2 POP PUSH2 0x2F93 DUP3 PUSH2 0x2F2E JUMP JUMPDEST PUSH1 0x40 DUP3 ADD SWAP1 POP SWAP2 SWAP1 POP JUMP JUMPDEST PUSH0 PUSH1 0x20 DUP3 ADD SWAP1 POP DUP2 DUP2 SUB PUSH0 DUP4 ADD MSTORE PUSH2 0x2FB5 DUP2 PUSH2 0x2F7C JUMP JUMPDEST SWAP1 POP SWAP2 SWAP1 POP JUMP JUMPDEST PUSH32 0x596F752063616E6E6F7420726567697374657220766F74657273000000000000 PUSH0 DUP3 ADD MSTORE POP JUMP JUMPDEST PUSH0 PUSH2 0x2FF0 PUSH1 0x1A DUP4 PUSH2 0x2686 JUMP JUMPDEST SWAP2 POP PUSH2 0x2FFB DUP3 PUSH2 0x2FBC JUMP JUMPDEST PUSH1 0x20 DUP3 ADD SWAP1 POP SWAP2 SWAP1 POP JUMP JUMPDEST PUSH0 PUSH1 0x20 DUP3 ADD SWAP1 POP DUP2 DUP2 SUB PUSH0 DUP4 ADD MSTORE PUSH2 0x301D DUP2 PUSH2 0x2FE4 JUMP JUMPDEST SWAP1 POP SWAP2 SWAP1 POP JUMP JUMPDEST PUSH32 0x4F776E65722063616E6E6F7420766F7465210000000000000000000000000000 PUSH0 DUP3 ADD MSTORE POP JUMP JUMPDEST PUSH0 PUSH2 0x3058 PUSH1 0x12 DUP4 PUSH2 0x2686 JUMP JUMPDEST SWAP2 POP PUSH2 0x3063 DUP3 PUSH2 0x3024 JUMP JUMPDEST PUSH1 0x20 DUP3 ADD SWAP1 POP SWAP2 SWAP1 POP JUMP JUMPDEST PUSH0 PUSH1 0x20 DUP3 ADD SWAP1 POP DUP2 DUP2 SUB PUSH0 DUP4 ADD MSTORE PUSH2 0x3085 DUP2 PUSH2 0x304C JUMP JUMPDEST SWAP1 POP SWAP2 SWAP1 POP JUMP JUMPDEST PUSH32 0x566F74657220616C726561647920726567697374657265642100000000000000 PUSH0 DUP3 ADD MSTORE POP JUMP JUMPDEST PUSH0 PUSH2 0x30C0 PUSH1 0x19 DUP4 PUSH2 0x2686 JUMP JUMPDEST SWAP2 POP PUSH2 0x30CB DUP3 PUSH2 0x308C JUMP JUMPDEST PUSH1 0x20 DUP3 ADD SWAP1 POP SWAP2 SWAP1 POP JUMP JUMPDEST PUSH0 PUSH1 0x20 DUP3 ADD SWAP1 POP DUP2 DUP2 SUB PUSH0 DUP4 ADD MSTORE PUSH2 0x30ED DUP2 PUSH2 0x30B4 JUMP JUMPDEST SWAP1 POP SWAP2 SWAP1 POP JUMP JUMPDEST PUSH32 0x41206D696E696D756D206E756D626572206F6620766F74657273206172652072 PUSH0 DUP3 ADD MSTORE PUSH32 0x6571756972656420746F20636F6E74696E756500000000000000000000000000 PUSH1 0x20 DUP3 ADD MSTORE POP JUMP JUMPDEST PUSH0 PUSH2 0x314E PUSH1 0x33 DUP4 PUSH2 0x2686 JUMP JUMPDEST SWAP2 POP PUSH2 0x3159 DUP3 PUSH2 0x30F4 JUMP JUMPDEST PUSH1 0x40 DUP3 ADD SWAP1 POP SWAP2 SWAP1 POP JUMP JUMPDEST PUSH0 PUSH1 0x20 DUP3 ADD SWAP1 POP DUP2 DUP2 SUB PUSH0 DUP4 ADD MSTORE PUSH2 0x317B DUP2 PUSH2 0x3142 JUMP JUMPDEST SWAP1 POP SWAP2 SWAP1 POP JUMP JUMPDEST PUSH32 0x41206D696E696D756D206E756D626572206F662070726F706F736974696F6E73 PUSH0 DUP3 ADD MSTORE PUSH32 0x2061726520726571756972656420746F20636F6E74696E756500000000000000 PUSH1 0x20 DUP3 ADD MSTORE POP JUMP JUMPDEST PUSH0 PUSH2 0x31DC PUSH1 0x39 DUP4 PUSH2 0x2686 JUMP JUMPDEST SWAP2 POP PUSH2 0x31E7 DUP3 PUSH2 0x3182 JUMP JUMPDEST PUSH1 0x40 DUP3 ADD SWAP1 POP SWAP2 SWAP1 POP JUMP JUMPDEST PUSH0 PUSH1 0x20 DUP3 ADD SWAP1 POP DUP2 DUP2 SUB PUSH0 DUP4 ADD MSTORE PUSH2 0x3209 DUP2 PUSH2 0x31D0 JUMP JUMPDEST SWAP1 POP SWAP2 SWAP1 POP JUMP JUMPDEST PUSH32 0x41206D696E696D756D206E756D626572206F6620766F74657320617265207265 PUSH0 DUP3 ADD MSTORE PUSH32 0x71756972656420746F20636F6E74696E75650000000000000000000000000000 PUSH1 0x20 DUP3 ADD MSTORE POP JUMP JUMPDEST PUSH0 PUSH2 0x326A PUSH1 0x32 DUP4 PUSH2 0x2686 JUMP JUMPDEST SWAP2 POP PUSH2 0x3275 DUP3 PUSH2 0x3210 JUMP JUMPDEST PUSH1 0x40 DUP3 ADD SWAP1 POP SWAP2 SWAP1 POP JUMP JUMPDEST PUSH0 PUSH1 0x20 DUP3 ADD SWAP1 POP DUP2 DUP2 SUB PUSH0 DUP4 ADD MSTORE PUSH2 0x3297 DUP2 PUSH2 0x325E JUMP JUMPDEST SWAP1 POP SWAP2 SWAP1 POP JUMP JUMPDEST PUSH32 0x566F746573206861766520746F2062652074616C6C6965642E20497420697320 PUSH0 DUP3 ADD MSTORE PUSH32 0x6F7665722E205468657265206973206E6F206E65787420737465702100000000 PUSH1 0x20 DUP3 ADD MSTORE POP JUMP JUMPDEST PUSH0 PUSH2 0x32F8 PUSH1 0x3C DUP4 PUSH2 0x2686 JUMP JUMPDEST SWAP2 POP PUSH2 0x3303 DUP3 PUSH2 0x329E JUMP JUMPDEST PUSH1 0x40 DUP3 ADD SWAP1 POP SWAP2 SWAP1 POP JUMP JUMPDEST PUSH0 PUSH1 0x20 DUP3 ADD SWAP1 POP DUP2 DUP2 SUB PUSH0 DUP4 ADD MSTORE PUSH2 0x3325 DUP2 PUSH2 0x32EC JUMP JUMPDEST SWAP1 POP SWAP2 SWAP1 POP JUMP JUMPDEST PUSH0 PUSH2 0x3336 DUP3 PUSH2 0x225F JUMP JUMPDEST SWAP2 POP PUSH2 0x3341 DUP4 PUSH2 0x225F JUMP JUMPDEST SWAP3 POP DUP3 DUP3 ADD SWAP1 POP DUP1 DUP3 GT ISZERO PUSH2 0x3359 JUMPI PUSH2 0x3358 PUSH2 0x2AEA JUMP JUMPDEST JUMPDEST SWAP3 SWAP2 POP POP JUMP JUMPDEST PUSH0 PUSH1 0x40 DUP3 ADD SWAP1 POP PUSH2 0x3372 PUSH0 DUP4 ADD DUP6 PUSH2 0x265E JUMP JUMPDEST PUSH2 0x337F PUSH1 0x20 DUP4 ADD DUP5 PUSH2 0x265E JUMP JUMPDEST SWAP4 SWAP3 POP POP POP JUMP JUMPDEST PUSH32 0x4E487B7100000000000000000000000000000000000000000000000000000000 PUSH0 MSTORE PUSH1 0x31 PUSH1 0x4 MSTORE PUSH1 0x24 PUSH0 REVERT JUMPDEST PUSH0 DUP2 SLOAD SWAP1 POP PUSH2 0x33C1 DUP2 PUSH2 0x2751 JUMP JUMPDEST SWAP1 POP SWAP2 SWAP1 POP JUMP JUMPDEST DUP2 DUP2 SUB PUSH2 0x33D6 JUMPI POP POP PUSH2 0x34AB JUMP JUMPDEST PUSH2 0x33DF DUP3 PUSH2 0x33B3 JUMP JUMPDEST PUSH8 0xFFFFFFFFFFFFFFFF DUP2 GT ISZERO PUSH2 0x33F8 JUMPI PUSH2 0x33F7 PUSH2 0x2851 JUMP JUMPDEST JUMPDEST PUSH2 0x3402 DUP3 SLOAD PUSH2 0x2751 JUMP JUMPDEST PUSH2 0x340D DUP3 DUP3 DUP6 PUSH2 0x2992 JUMP JUMPDEST PUSH0 PUSH1 0x1F DUP4 GT PUSH1 0x1 DUP2 EQ PUSH2 0x343A JUMPI PUSH0 DUP5 ISZERO PUSH2 0x3428 JUMPI DUP3 DUP8 ADD SLOAD SWAP1 POP JUMPDEST PUSH2 0x3432 DUP6 DUP3 PUSH2 0x2A00 JUMP JUMPDEST DUP7 SSTORE POP PUSH2 0x34A4 JUMP JUMPDEST PUSH1 0x1F NOT DUP5 AND PUSH2 0x3448 DUP8 PUSH2 0x287E JUMP JUMPDEST SWAP7 POP PUSH2 0x3453 DUP7 PUSH2 0x287E JUMP JUMPDEST PUSH0 JUMPDEST DUP3 DUP2 LT ISZERO PUSH2 0x347A JUMPI DUP5 DUP10 ADD SLOAD DUP3 SSTORE PUSH1 0x1 DUP3 ADD SWAP2 POP PUSH1 0x1 DUP6 ADD SWAP5 POP PUSH1 0x20 DUP2 ADD SWAP1 POP PUSH2 0x3455 JUMP JUMPDEST DUP7 DUP4 LT ISZERO PUSH2 0x3497 JUMPI DUP5 DUP10 ADD SLOAD PUSH2 0x3493 PUSH1 0x1F DUP10 AND DUP3 PUSH2 0x29E4 JUMP JUMPDEST DUP4 SSTORE POP JUMPDEST PUSH1 0x1 PUSH1 0x2 DUP9 MUL ADD DUP9 SSTORE POP POP POP JUMPDEST POP POP POP POP POP POP JUMPDEST JUMP INVALID LOG2 PUSH5 0x6970667358 0x22 SLT KECCAK256 SSTORE MLOAD 0x5C NUMBER 0x25 RETURNDATASIZE 0xB0 0x5E 0x23 0xC1 0xE1 0xC7 0x2F 0xB0 PUSH14 0x2F4DE94DA44A526164ED915D34D3 REVERT KECCAK256 LOG0 PUSH5 0x736F6C6343 STOP ADDMOD OR STOP CALLER "
				},
				"gasEstimates": {
					"creation": {
						"codeDepositCost": "2707800",
						"executionCost": "infinite",
						"totalCost": "infinite"
					},
					"external": {
						"addProposal(string)": "infinite",
						"addVoter(address)": "infinite",
						"delegateVote(address)": "infinite",
						"getCurrentVoteStep()": "2583",
						"getWinner()": "4603",
						"listProposals()": "infinite",
						"nextVoteStep()": "infinite",
						"owner()": "2538",
						"renounceOwnership()": "infinite",
						"restartVoteFromScratch()": "infinite",
						"solveEqualityWithTimestamp()": "infinite",
						"solveEqualityWithVote()": "infinite",
						"tailVotes()": "infinite",
						"transferOwnership(address)": "infinite",
						"voteForProposition(uint256)": "infinite"
					},
					"internal": {
						"addVoterInternal(address)": "infinite",
						"deleteVoter(address)": "infinite",
						"registerVoterKey(address)": "infinite"
					}
				},
				"methodIdentifiers": {
					"addProposal(string)": "2fdae3c5",
					"addVoter(address)": "f4ab9adf",
					"delegateVote(address)": "b31e1d4d",
					"getCurrentVoteStep()": "e77aa682",
					"getWinner()": "8e7ea5b2",
					"listProposals()": "26c7eb1c",
					"nextVoteStep()": "fd20255c",
					"owner()": "8da5cb5b",
					"renounceOwnership()": "715018a6",
					"restartVoteFromScratch()": "6334ef66",
					"solveEqualityWithTimestamp()": "a1b1f89a",
					"solveEqualityWithVote()": "45ddbf75",
					"tailVotes()": "898f0087",
					"transferOwnership(address)": "f2fde38b",
					"voteForProposition(uint256)": "746536b5"
				}
			},
			"storageLayout": {
				"storage": [
					{
						"astId": 968,
						"contract": "VotingPlus.sol:VotingPlus",
						"label": "_owner",
						"offset": 0,
						"slot": "0",
						"type": "t_address"
					},
					{
						"astId": 37,
						"contract": "VotingPlus.sol:VotingPlus",
						"label": "winningProposalId",
						"offset": 0,
						"slot": "1",
						"type": "t_int256"
					},
					{
						"astId": 42,
						"contract": "VotingPlus.sol:VotingPlus",
						"label": "winners",
						"offset": 0,
						"slot": "2",
						"type": "t_array(t_struct(Proposal)114_storage)dyn_storage"
					},
					{
						"astId": 59,
						"contract": "VotingPlus.sol:VotingPlus",
						"label": "voters",
						"offset": 0,
						"slot": "3",
						"type": "t_mapping(t_address,t_struct(Voter)53_storage)"
					},
					{
						"astId": 62,
						"contract": "VotingPlus.sol:VotingPlus",
						"label": "votersKeys",
						"offset": 0,
						"slot": "4",
						"type": "t_array(t_address)dyn_storage"
					},
					{
						"astId": 65,
						"contract": "VotingPlus.sol:VotingPlus",
						"label": "votersNumber",
						"offset": 0,
						"slot": "5",
						"type": "t_uint256"
					},
					{
						"astId": 68,
						"contract": "VotingPlus.sol:VotingPlus",
						"label": "atLeastOneVote",
						"offset": 0,
						"slot": "6",
						"type": "t_uint256"
					},
					{
						"astId": 119,
						"contract": "VotingPlus.sol:VotingPlus",
						"label": "proposals",
						"offset": 0,
						"slot": "7",
						"type": "t_array(t_struct(Proposal)114_storage)dyn_storage"
					},
					{
						"astId": 122,
						"contract": "VotingPlus.sol:VotingPlus",
						"label": "proposalIdCounter",
						"offset": 0,
						"slot": "8",
						"type": "t_uint256"
					},
					{
						"astId": 132,
						"contract": "VotingPlus.sol:VotingPlus",
						"label": "currentVoteState",
						"offset": 0,
						"slot": "9",
						"type": "t_enum(WorkflowStatus)128"
					}
				],
				"types": {
					"t_address": {
						"encoding": "inplace",
						"label": "address",
						"numberOfBytes": "20"
					},
					"t_array(t_address)dyn_storage": {
						"base": "t_address",
						"encoding": "dynamic_array",
						"label": "address[]",
						"numberOfBytes": "32"
					},
					"t_array(t_struct(Proposal)114_storage)dyn_storage": {
						"base": "t_struct(Proposal)114_storage",
						"encoding": "dynamic_array",
						"label": "struct VotingPlus.Proposal[]",
						"numberOfBytes": "32"
					},
					"t_array(t_uint256)dyn_storage": {
						"base": "t_uint256",
						"encoding": "dynamic_array",
						"label": "uint256[]",
						"numberOfBytes": "32"
					},
					"t_bool": {
						"encoding": "inplace",
						"label": "bool",
						"numberOfBytes": "1"
					},
					"t_enum(WorkflowStatus)128": {
						"encoding": "inplace",
						"label": "enum VotingPlus.WorkflowStatus",
						"numberOfBytes": "1"
					},
					"t_int256": {
						"encoding": "inplace",
						"label": "int256",
						"numberOfBytes": "32"
					},
					"t_mapping(t_address,t_struct(Voter)53_storage)": {
						"encoding": "mapping",
						"key": "t_address",
						"label": "mapping(address => struct VotingPlus.Voter)",
						"numberOfBytes": "32",
						"value": "t_struct(Voter)53_storage"
					},
					"t_string_storage": {
						"encoding": "bytes",
						"label": "string",
						"numberOfBytes": "32"
					},
					"t_struct(Proposal)114_storage": {
						"encoding": "inplace",
						"label": "struct VotingPlus.Proposal",
						"members": [
							{
								"astId": 107,
								"contract": "VotingPlus.sol:VotingPlus",
								"label": "id",
								"offset": 0,
								"slot": "0",
								"type": "t_uint256"
							},
							{
								"astId": 109,
								"contract": "VotingPlus.sol:VotingPlus",
								"label": "description",
								"offset": 0,
								"slot": "1",
								"type": "t_string_storage"
							},
							{
								"astId": 111,
								"contract": "VotingPlus.sol:VotingPlus",
								"label": "voteCount",
								"offset": 0,
								"slot": "2",
								"type": "t_uint256"
							},
							{
								"astId": 113,
								"contract": "VotingPlus.sol:VotingPlus",
								"label": "lastVoteTimestamp",
								"offset": 0,
								"slot": "3",
								"type": "t_uint256"
							}
						],
						"numberOfBytes": "128"
					},
					"t_struct(Voter)53_storage": {
						"encoding": "inplace",
						"label": "struct VotingPlus.Voter",
						"members": [
							{
								"astId": 45,
								"contract": "VotingPlus.sol:VotingPlus",
								"label": "isRegistered",
								"offset": 0,
								"slot": "0",
								"type": "t_bool"
							},
							{
								"astId": 47,
								"contract": "VotingPlus.sol:VotingPlus",
								"label": "hasVoted",
								"offset": 0,
								"slot": "1",
								"type": "t_uint256"
							},
							{
								"astId": 49,
								"contract": "VotingPlus.sol:VotingPlus",
								"label": "nbVotes",
								"offset": 0,
								"slot": "2",
								"type": "t_uint256"
							},
							{
								"astId": 52,
								"contract": "VotingPlus.sol:VotingPlus",
								"label": "votedProposalIds",
								"offset": 0,
								"slot": "3",
								"type": "t_array(t_uint256)dyn_storage"
							}
						],
						"numberOfBytes": "128"
					},
					"t_uint256": {
						"encoding": "inplace",
						"label": "uint256",
						"numberOfBytes": "32"
					}
				}
			},
			"userdoc": {
				"events": {
					"VoterRegistered(address)": {
						"notice": "Events"
					}
				},
				"kind": "user",
				"methods": {
					"addProposal(string)": {
						"notice": "This method allows to create a new proposition"
					},
					"addVoter(address)": {
						"notice": "this external addVoter function allows to add a new voter to the whitelist"
					},
					"constructor": {
						"notice": "=================================================================================================================================================================== Smart Contract methods***================================================================================================================================================================="
					},
					"delegateVote(address)": {
						"notice": "This method allows a voter to delegate its vote to an existing or to a new voter"
					},
					"getCurrentVoteStep()": {
						"notice": "Returns the current step of the state machine"
					},
					"getWinner()": {
						"notice": "This method returns the winning proposition once votes have been tallied and equality issues solved"
					},
					"listProposals()": {
						"notice": "This method allows to list all registered propositions"
					},
					"nextVoteStep()": {
						"notice": "Move the state machine to its next state if constraints brought by modifiers are fullfilled"
					},
					"restartVoteFromScratch()": {
						"notice": "This method allows to restart the whole voting session once votes are tallied"
					},
					"solveEqualityWithTimestamp()": {
						"notice": "This method will solve a situtation of equality between proposals by looking for the oldest voted proposition.           It is this one which will be designated as the winner and its id stored in winningProposalId"
					},
					"solveEqualityWithVote()": {
						"notice": "This method will solve a situation of equality between proposals by creating a voting session only for these            propositions which got the same number of votes. Vote will take the same shape until there is one unique winner."
					},
					"tailVotes()": {
						"notice": "This method will tail the Votes and return an array containing one or more winners. In case there is only one winner           its id will be recorded as the winning proposition in winningProposalId which can be retrieved through the getWinner           function."
					},
					"voteForProposition(uint256)": {
						"notice": "This method allows to vote for a proposition by its id"
					}
				},
				"version": 1
			}
		}
	}
}