{
	"Voting.sol": {
		"Voting": {
			"abi": [
				{
					"inputs": [],
					"stateMutability": "nonpayable",
					"type": "constructor"
				},
				{
					"inputs": [
						{
							"internalType": "address",
							"name": "owner",
							"type": "address"
						}
					],
					"name": "OwnableInvalidOwner",
					"type": "error"
				},
				{
					"inputs": [
						{
							"internalType": "address",
							"name": "account",
							"type": "address"
						}
					],
					"name": "OwnableUnauthorizedAccount",
					"type": "error"
				},
				{
					"anonymous": false,
					"inputs": [
						{
							"indexed": true,
							"internalType": "address",
							"name": "previousOwner",
							"type": "address"
						},
						{
							"indexed": true,
							"internalType": "address",
							"name": "newOwner",
							"type": "address"
						}
					],
					"name": "OwnershipTransferred",
					"type": "event"
				},
				{
					"anonymous": false,
					"inputs": [
						{
							"indexed": false,
							"internalType": "uint256",
							"name": "proposalId",
							"type": "uint256"
						}
					],
					"name": "ProposalRegistered",
					"type": "event"
				},
				{
					"anonymous": false,
					"inputs": [
						{
							"indexed": false,
							"internalType": "address",
							"name": "voter",
							"type": "address"
						},
						{
							"indexed": false,
							"internalType": "uint256",
							"name": "proposalId",
							"type": "uint256"
						}
					],
					"name": "Voted",
					"type": "event"
				},
				{
					"anonymous": false,
					"inputs": [
						{
							"indexed": false,
							"internalType": "address",
							"name": "voterAddress",
							"type": "address"
						}
					],
					"name": "VoterRegistered",
					"type": "event"
				},
				{
					"anonymous": false,
					"inputs": [
						{
							"indexed": false,
							"internalType": "enum Voting.WorkflowStatus",
							"name": "previousStatus",
							"type": "uint8"
						},
						{
							"indexed": false,
							"internalType": "enum Voting.WorkflowStatus",
							"name": "newStatus",
							"type": "uint8"
						}
					],
					"name": "WorkflowStatusChange",
					"type": "event"
				},
				{
					"inputs": [
						{
							"internalType": "string",
							"name": "_description",
							"type": "string"
						}
					],
					"name": "addProposal",
					"outputs": [],
					"stateMutability": "nonpayable",
					"type": "function"
				},
				{
					"inputs": [
						{
							"internalType": "address",
							"name": "_address",
							"type": "address"
						}
					],
					"name": "addVoter",
					"outputs": [],
					"stateMutability": "nonpayable",
					"type": "function"
				},
				{
					"inputs": [],
					"name": "getProposals",
					"outputs": [
						{
							"components": [
								{
									"internalType": "uint256",
									"name": "id",
									"type": "uint256"
								},
								{
									"internalType": "string",
									"name": "description",
									"type": "string"
								},
								{
									"internalType": "uint256",
									"name": "voteCount",
									"type": "uint256"
								}
							],
							"internalType": "struct Voting.Proposal[]",
							"name": "",
							"type": "tuple[]"
						}
					],
					"stateMutability": "view",
					"type": "function"
				},
				{
					"inputs": [],
					"name": "getVoteStep",
					"outputs": [
						{
							"internalType": "enum Voting.WorkflowStatus",
							"name": "",
							"type": "uint8"
						}
					],
					"stateMutability": "view",
					"type": "function"
				},
				{
					"inputs": [],
					"name": "getWinner",
					"outputs": [
						{
							"components": [
								{
									"internalType": "uint256",
									"name": "id",
									"type": "uint256"
								},
								{
									"internalType": "string",
									"name": "description",
									"type": "string"
								},
								{
									"internalType": "uint256",
									"name": "voteCount",
									"type": "uint256"
								}
							],
							"internalType": "struct Voting.Proposal",
							"name": "",
							"type": "tuple"
						}
					],
					"stateMutability": "nonpayable",
					"type": "function"
				},
				{
					"inputs": [],
					"name": "nextVoteStep",
					"outputs": [],
					"stateMutability": "nonpayable",
					"type": "function"
				},
				{
					"inputs": [],
					"name": "owner",
					"outputs": [
						{
							"internalType": "address",
							"name": "",
							"type": "address"
						}
					],
					"stateMutability": "view",
					"type": "function"
				},
				{
					"inputs": [],
					"name": "renounceOwnership",
					"outputs": [],
					"stateMutability": "nonpayable",
					"type": "function"
				},
				{
					"inputs": [],
					"name": "restartVote",
					"outputs": [],
					"stateMutability": "nonpayable",
					"type": "function"
				},
				{
					"inputs": [
						{
							"internalType": "address",
							"name": "newOwner",
							"type": "address"
						}
					],
					"name": "transferOwnership",
					"outputs": [],
					"stateMutability": "nonpayable",
					"type": "function"
				},
				{
					"inputs": [
						{
							"internalType": "uint256",
							"name": "_proposalId",
							"type": "uint256"
						}
					],
					"name": "vote",
					"outputs": [],
					"stateMutability": "nonpayable",
					"type": "function"
				}
			],
			"devdoc": {
				"errors": {
					"OwnableInvalidOwner(address)": [
						{
							"details": "The owner is not a valid owner account. (eg. `address(0)`)"
						}
					],
					"OwnableUnauthorizedAccount(address)": [
						{
							"details": "The caller account is not authorized to perform an operation."
						}
					]
				},
				"kind": "dev",
				"methods": {
					"owner()": {
						"details": "Returns the address of the current owner."
					},
					"renounceOwnership()": {
						"details": "Leaves the contract without owner. It will not be possible to call `onlyOwner` functions. Can only be called by the current owner. NOTE: Renouncing ownership will leave the contract without an owner, thereby disabling any functionality that is only available to the owner."
					},
					"transferOwnership(address)": {
						"details": "Transfers ownership of the contract to a new account (`newOwner`). Can only be called by the current owner."
					}
				},
				"version": 1
			},
			"evm": {
				"assembly": "    /* \"Voting.sol\":164:3969  contract Voting is Ownable {... */\n  mstore(0x40, 0x80)\n    /* \"Voting.sol\":1014:1015  0 */\n  0x00\n    /* \"Voting.sol\":996:1015  uint proposalId = 0 */\n  0x04\n  sstore\n    /* \"Voting.sol\":2105:2207  constructor() Ownable(msg.sender) {... */\n  callvalue\n  dup1\n  iszero\n  tag_1\n  jumpi\n  0x00\n  dup1\n  revert\ntag_1:\n  pop\n    /* \"Voting.sol\":2127:2137  msg.sender */\n  caller\n    /* \"https://github.com/OpenZeppelin/openzeppelin-contracts/blob/master/contracts/access/Ownable.sol\":1297:1298  0 */\n  0x00\n    /* \"https://github.com/OpenZeppelin/openzeppelin-contracts/blob/master/contracts/access/Ownable.sol\":1273:1299  initialOwner == address(0) */\n  0xffffffffffffffffffffffffffffffffffffffff\n  and\n    /* \"https://github.com/OpenZeppelin/openzeppelin-contracts/blob/master/contracts/access/Ownable.sol\":1273:1285  initialOwner */\n  dup2\n    /* \"https://github.com/OpenZeppelin/openzeppelin-contracts/blob/master/contracts/access/Ownable.sol\":1273:1299  initialOwner == address(0) */\n  0xffffffffffffffffffffffffffffffffffffffff\n  and\n  sub\n    /* \"https://github.com/OpenZeppelin/openzeppelin-contracts/blob/master/contracts/access/Ownable.sol\":1269:1364  if (initialOwner == address(0)) {... */\n  tag_5\n  jumpi\n    /* \"https://github.com/OpenZeppelin/openzeppelin-contracts/blob/master/contracts/access/Ownable.sol\":1350:1351  0 */\n  0x00\n    /* \"https://github.com/OpenZeppelin/openzeppelin-contracts/blob/master/contracts/access/Ownable.sol\":1322:1353  OwnableInvalidOwner(address(0)) */\n  mload(0x40)\n  0x1e4fbdf700000000000000000000000000000000000000000000000000000000\n  dup2\n  mstore\n  0x04\n  add\n  tag_6\n  swap2\n  swap1\n  tag_7\n  jump\t// in\ntag_6:\n  mload(0x40)\n  dup1\n  swap2\n  sub\n  swap1\n  revert\n    /* \"https://github.com/OpenZeppelin/openzeppelin-contracts/blob/master/contracts/access/Ownable.sol\":1269:1364  if (initialOwner == address(0)) {... */\ntag_5:\n    /* \"https://github.com/OpenZeppelin/openzeppelin-contracts/blob/master/contracts/access/Ownable.sol\":1373:1405  _transferOwnership(initialOwner) */\n  tag_8\n    /* \"https://github.com/OpenZeppelin/openzeppelin-contracts/blob/master/contracts/access/Ownable.sol\":1392:1404  initialOwner */\n  dup2\n    /* \"https://github.com/OpenZeppelin/openzeppelin-contracts/blob/master/contracts/access/Ownable.sol\":1373:1391  _transferOwnership */\n  shl(0x20, tag_9)\n    /* \"https://github.com/OpenZeppelin/openzeppelin-contracts/blob/master/contracts/access/Ownable.sol\":1373:1405  _transferOwnership(initialOwner) */\n  0x20\n  shr\n  jump\t// in\ntag_8:\n    /* \"https://github.com/OpenZeppelin/openzeppelin-contracts/blob/master/contracts/access/Ownable.sol\":1225:1412  constructor(address initialOwner) {... */\n  pop\n    /* \"Voting.sol\":2168:2200  WorkflowStatus.RegisteringVoters */\n  0x00\n    /* \"Voting.sol\":2149:2165  currentVoteState */\n  0x05\n  0x00\n    /* \"Voting.sol\":2149:2200  currentVoteState = WorkflowStatus.RegisteringVoters */\n  0x0100\n  exp\n  dup2\n  sload\n  dup2\n  0xff\n  mul\n  not\n  and\n  swap1\n  dup4\n  0x05\n  dup2\n  gt\n  iszero\n  tag_11\n  jumpi\n  tag_12\n  tag_13\n  jump\t// in\ntag_12:\ntag_11:\n  mul\n  or\n  swap1\n  sstore\n  pop\n    /* \"Voting.sol\":164:3969  contract Voting is Ownable {... */\n  jump(tag_14)\n    /* \"https://github.com/OpenZeppelin/openzeppelin-contracts/blob/master/contracts/access/Ownable.sol\":2912:3099  function _transferOwnership(address newOwner) internal virtual {... */\ntag_9:\n    /* \"https://github.com/OpenZeppelin/openzeppelin-contracts/blob/master/contracts/access/Ownable.sol\":2985:3001  address oldOwner */\n  0x00\n    /* \"https://github.com/OpenZeppelin/openzeppelin-contracts/blob/master/contracts/access/Ownable.sol\":3004:3010  _owner */\n  dup1\n  0x00\n  swap1\n  sload\n  swap1\n  0x0100\n  exp\n  swap1\n  div\n  0xffffffffffffffffffffffffffffffffffffffff\n  and\n    /* \"https://github.com/OpenZeppelin/openzeppelin-contracts/blob/master/contracts/access/Ownable.sol\":2985:3010  address oldOwner = _owner */\n  swap1\n  pop\n    /* \"https://github.com/OpenZeppelin/openzeppelin-contracts/blob/master/contracts/access/Ownable.sol\":3029:3037  newOwner */\n  dup2\n    /* \"https://github.com/OpenZeppelin/openzeppelin-contracts/blob/master/contracts/access/Ownable.sol\":3020:3026  _owner */\n  0x00\n  dup1\n    /* \"https://github.com/OpenZeppelin/openzeppelin-contracts/blob/master/contracts/access/Ownable.sol\":3020:3037  _owner = newOwner */\n  0x0100\n  exp\n  dup2\n  sload\n  dup2\n  0xffffffffffffffffffffffffffffffffffffffff\n  mul\n  not\n  and\n  swap1\n  dup4\n  0xffffffffffffffffffffffffffffffffffffffff\n  and\n  mul\n  or\n  swap1\n  sstore\n  pop\n    /* \"https://github.com/OpenZeppelin/openzeppelin-contracts/blob/master/contracts/access/Ownable.sol\":3083:3091  newOwner */\n  dup2\n    /* \"https://github.com/OpenZeppelin/openzeppelin-contracts/blob/master/contracts/access/Ownable.sol\":3052:3092  OwnershipTransferred(oldOwner, newOwner) */\n  0xffffffffffffffffffffffffffffffffffffffff\n  and\n    /* \"https://github.com/OpenZeppelin/openzeppelin-contracts/blob/master/contracts/access/Ownable.sol\":3073:3081  oldOwner */\n  dup2\n    /* \"https://github.com/OpenZeppelin/openzeppelin-contracts/blob/master/contracts/access/Ownable.sol\":3052:3092  OwnershipTransferred(oldOwner, newOwner) */\n  0xffffffffffffffffffffffffffffffffffffffff\n  and\n  0x8be0079c531659141344cd1fd0a4f28419497f9722a3daafe3b4186f6b6457e0\n  mload(0x40)\n  mload(0x40)\n  dup1\n  swap2\n  sub\n  swap1\n  log3\n    /* \"https://github.com/OpenZeppelin/openzeppelin-contracts/blob/master/contracts/access/Ownable.sol\":2975:3099  {... */\n  pop\n    /* \"https://github.com/OpenZeppelin/openzeppelin-contracts/blob/master/contracts/access/Ownable.sol\":2912:3099  function _transferOwnership(address newOwner) internal virtual {... */\n  pop\n  jump\t// out\n    /* \"#utility.yul\":7:133   */\ntag_16:\n    /* \"#utility.yul\":44:51   */\n  0x00\n    /* \"#utility.yul\":84:126   */\n  0xffffffffffffffffffffffffffffffffffffffff\n    /* \"#utility.yul\":77:82   */\n  dup3\n    /* \"#utility.yul\":73:127   */\n  and\n    /* \"#utility.yul\":62:127   */\n  swap1\n  pop\n    /* \"#utility.yul\":7:133   */\n  swap2\n  swap1\n  pop\n  jump\t// out\n    /* \"#utility.yul\":139:235   */\ntag_17:\n    /* \"#utility.yul\":176:183   */\n  0x00\n    /* \"#utility.yul\":205:229   */\n  tag_22\n    /* \"#utility.yul\":223:228   */\n  dup3\n    /* \"#utility.yul\":205:229   */\n  tag_16\n  jump\t// in\ntag_22:\n    /* \"#utility.yul\":194:229   */\n  swap1\n  pop\n    /* \"#utility.yul\":139:235   */\n  swap2\n  swap1\n  pop\n  jump\t// out\n    /* \"#utility.yul\":241:359   */\ntag_18:\n    /* \"#utility.yul\":328:352   */\n  tag_24\n    /* \"#utility.yul\":346:351   */\n  dup2\n    /* \"#utility.yul\":328:352   */\n  tag_17\n  jump\t// in\ntag_24:\n    /* \"#utility.yul\":323:326   */\n  dup3\n    /* \"#utility.yul\":316:353   */\n  mstore\n    /* \"#utility.yul\":241:359   */\n  pop\n  pop\n  jump\t// out\n    /* \"#utility.yul\":365:587   */\ntag_7:\n    /* \"#utility.yul\":458:462   */\n  0x00\n    /* \"#utility.yul\":496:498   */\n  0x20\n    /* \"#utility.yul\":485:494   */\n  dup3\n    /* \"#utility.yul\":481:499   */\n  add\n    /* \"#utility.yul\":473:499   */\n  swap1\n  pop\n    /* \"#utility.yul\":509:580   */\n  tag_26\n    /* \"#utility.yul\":577:578   */\n  0x00\n    /* \"#utility.yul\":566:575   */\n  dup4\n    /* \"#utility.yul\":562:579   */\n  add\n    /* \"#utility.yul\":553:559   */\n  dup5\n    /* \"#utility.yul\":509:580   */\n  tag_18\n  jump\t// in\ntag_26:\n    /* \"#utility.yul\":365:587   */\n  swap3\n  swap2\n  pop\n  pop\n  jump\t// out\n    /* \"#utility.yul\":593:773   */\ntag_13:\n    /* \"#utility.yul\":641:718   */\n  0x4e487b7100000000000000000000000000000000000000000000000000000000\n    /* \"#utility.yul\":638:639   */\n  0x00\n    /* \"#utility.yul\":631:719   */\n  mstore\n    /* \"#utility.yul\":738:742   */\n  0x21\n    /* \"#utility.yul\":735:736   */\n  0x04\n    /* \"#utility.yul\":728:743   */\n  mstore\n    /* \"#utility.yul\":762:766   */\n  0x24\n    /* \"#utility.yul\":759:760   */\n  0x00\n    /* \"#utility.yul\":752:767   */\n  revert\n    /* \"Voting.sol\":164:3969  contract Voting is Ownable {... */\ntag_14:\n  dataSize(sub_0)\n  dup1\n  dataOffset(sub_0)\n  0x00\n  codecopy\n  0x00\n  return\nstop\n\nsub_0: assembly {\n        /* \"Voting.sol\":164:3969  contract Voting is Ownable {... */\n      mstore(0x40, 0x80)\n      callvalue\n      dup1\n      iszero\n      tag_1\n      jumpi\n      0x00\n      dup1\n      revert\n    tag_1:\n      pop\n      jumpi(tag_2, lt(calldatasize, 0x04))\n      shr(0xe0, calldataload(0x00))\n      dup1\n      0x8da5cb5b\n      gt\n      tag_14\n      jumpi\n      dup1\n      0x8da5cb5b\n      eq\n      tag_8\n      jumpi\n      dup1\n      0x8e7ea5b2\n      eq\n      tag_9\n      jumpi\n      dup1\n      0xb126f771\n      eq\n      tag_10\n      jumpi\n      dup1\n      0xf2fde38b\n      eq\n      tag_11\n      jumpi\n      dup1\n      0xf4ab9adf\n      eq\n      tag_12\n      jumpi\n      dup1\n      0xfd20255c\n      eq\n      tag_13\n      jumpi\n      jump(tag_2)\n    tag_14:\n      dup1\n      0x0121b93f\n      eq\n      tag_3\n      jumpi\n      dup1\n      0x1e09506d\n      eq\n      tag_4\n      jumpi\n      dup1\n      0x2fdae3c5\n      eq\n      tag_5\n      jumpi\n      dup1\n      0x62564c48\n      eq\n      tag_6\n      jumpi\n      dup1\n      0x715018a6\n      eq\n      tag_7\n      jumpi\n    tag_2:\n      0x00\n      dup1\n      revert\n        /* \"Voting.sol\":3215:3528  function vote(uint _proposalId) external onlyVoters votingProposals VoteOnce {... */\n    tag_3:\n      tag_15\n      0x04\n      dup1\n      calldatasize\n      sub\n      dup2\n      add\n      swap1\n      tag_16\n      swap2\n      swap1\n      tag_17\n      jump\t// in\n    tag_16:\n      tag_18\n      jump\t// in\n    tag_15:\n      stop\n        /* \"Voting.sol\":2214:2316  function getVoteStep() external view returns (WorkflowStatus) {... */\n    tag_4:\n      tag_19\n      tag_20\n      jump\t// in\n    tag_19:\n      mload(0x40)\n      tag_21\n      swap2\n      swap1\n      tag_22\n      jump\t// in\n    tag_21:\n      mload(0x40)\n      dup1\n      swap2\n      sub\n      swap1\n      return\n        /* \"Voting.sol\":2895:3104  function addProposal(string calldata _description) external onlyVoters registeringProposals {... */\n    tag_5:\n      tag_23\n      0x04\n      dup1\n      calldatasize\n      sub\n      dup2\n      add\n      swap1\n      tag_24\n      swap2\n      swap1\n      tag_25\n      jump\t// in\n    tag_24:\n      tag_26\n      jump\t// in\n    tag_23:\n      stop\n        /* \"Voting.sol\":3110:3209  function getProposals() external view returns (Proposal[] memory) {... */\n    tag_6:\n      tag_27\n      tag_28\n      jump\t// in\n    tag_27:\n      mload(0x40)\n      tag_29\n      swap2\n      swap1\n      tag_30\n      jump\t// in\n    tag_29:\n      mload(0x40)\n      dup1\n      swap2\n      sub\n      swap1\n      return\n        /* \"https://github.com/OpenZeppelin/openzeppelin-contracts/blob/master/contracts/access/Ownable.sol\":2293:2394  function renounceOwnership() public virtual onlyOwner {... */\n    tag_7:\n      tag_31\n      tag_32\n      jump\t// in\n    tag_31:\n      stop\n        /* \"https://github.com/OpenZeppelin/openzeppelin-contracts/blob/master/contracts/access/Ownable.sol\":1638:1723  function owner() public view virtual returns (address) {... */\n    tag_8:\n      tag_33\n      tag_34\n      jump\t// in\n    tag_33:\n      mload(0x40)\n      tag_35\n      swap2\n      swap1\n      tag_36\n      jump\t// in\n    tag_35:\n      mload(0x40)\n      dup1\n      swap2\n      sub\n      swap1\n      return\n        /* \"Voting.sol\":3534:3967  function getWinner() external votesTallied returns (Proposal memory) {... */\n    tag_9:\n      tag_37\n      tag_38\n      jump\t// in\n    tag_37:\n      mload(0x40)\n      tag_39\n      swap2\n      swap1\n      tag_40\n      jump\t// in\n    tag_39:\n      mload(0x40)\n      dup1\n      swap2\n      sub\n      swap1\n      return\n        /* \"Voting.sol\":2594:2717  function restartVote() external onlyOwner votesTallied {... */\n    tag_10:\n      tag_41\n      tag_42\n      jump\t// in\n    tag_41:\n      stop\n        /* \"https://github.com/OpenZeppelin/openzeppelin-contracts/blob/master/contracts/access/Ownable.sol\":2543:2758  function transferOwnership(address newOwner) public virtual onlyOwner {... */\n    tag_11:\n      tag_43\n      0x04\n      dup1\n      calldatasize\n      sub\n      dup2\n      add\n      swap1\n      tag_44\n      swap2\n      swap1\n      tag_45\n      jump\t// in\n    tag_44:\n      tag_46\n      jump\t// in\n    tag_43:\n      stop\n        /* \"Voting.sol\":2723:2889  function addVoter(address _address) external onlyOwner registeringVoters {... */\n    tag_12:\n      tag_47\n      0x04\n      dup1\n      calldatasize\n      sub\n      dup2\n      add\n      swap1\n      tag_48\n      swap2\n      swap1\n      tag_45\n      jump\t// in\n    tag_48:\n      tag_49\n      jump\t// in\n    tag_47:\n      stop\n        /* \"Voting.sol\":2322:2584  function nextVoteStep() external onlyOwner votesNotTallied {... */\n    tag_13:\n      tag_50\n      tag_51\n      jump\t// in\n    tag_50:\n      stop\n        /* \"Voting.sol\":3215:3528  function vote(uint _proposalId) external onlyVoters votingProposals VoteOnce {... */\n    tag_18:\n        /* \"Voting.sol\":692:696  true */\n      0x01\n        /* \"Voting.sol\":657:696  voters[msg.sender].isRegistered == true */\n      iszero\n      iszero\n        /* \"Voting.sol\":657:663  voters */\n      0x02\n        /* \"Voting.sol\":657:675  voters[msg.sender] */\n      0x00\n        /* \"Voting.sol\":664:674  msg.sender */\n      caller\n        /* \"Voting.sol\":657:675  voters[msg.sender] */\n      0xffffffffffffffffffffffffffffffffffffffff\n      and\n      0xffffffffffffffffffffffffffffffffffffffff\n      and\n      dup2\n      mstore\n      0x20\n      add\n      swap1\n      dup2\n      mstore\n      0x20\n      add\n      0x00\n      keccak256\n        /* \"Voting.sol\":657:688  voters[msg.sender].isRegistered */\n      0x00\n      add\n      0x00\n      swap1\n      sload\n      swap1\n      0x0100\n      exp\n      swap1\n      div\n      0xff\n      and\n        /* \"Voting.sol\":657:696  voters[msg.sender].isRegistered == true */\n      iszero\n      iszero\n      eq\n        /* \"Voting.sol\":649:727  require(voters[msg.sender].isRegistered == true, \"You are not a valid voter!\") */\n      tag_53\n      jumpi\n      mload(0x40)\n      0x08c379a000000000000000000000000000000000000000000000000000000000\n      dup2\n      mstore\n      0x04\n      add\n      tag_54\n      swap1\n      tag_55\n      jump\t// in\n    tag_54:\n      mload(0x40)\n      dup1\n      swap2\n      sub\n      swap1\n      revert\n    tag_53:\n        /* \"Voting.sol\":2013:2048  WorkflowStatus.VotingSessionStarted */\n      0x03\n        /* \"Voting.sol\":1993:2048  currentVoteState == WorkflowStatus.VotingSessionStarted */\n      0x05\n      dup2\n      gt\n      iszero\n      tag_57\n      jumpi\n      tag_58\n      tag_59\n      jump\t// in\n    tag_58:\n    tag_57:\n        /* \"Voting.sol\":1993:2009  currentVoteState */\n      0x05\n      0x00\n      swap1\n      sload\n      swap1\n      0x0100\n      exp\n      swap1\n      div\n      0xff\n      and\n        /* \"Voting.sol\":1993:2048  currentVoteState == WorkflowStatus.VotingSessionStarted */\n      0x05\n      dup2\n      gt\n      iszero\n      tag_60\n      jumpi\n      tag_61\n      tag_59\n      jump\t// in\n    tag_61:\n    tag_60:\n      eq\n        /* \"Voting.sol\":1985:2079  require(currentVoteState == WorkflowStatus.VotingSessionStarted, \"You cannot vote proposals.\") */\n      tag_62\n      jumpi\n      mload(0x40)\n      0x08c379a000000000000000000000000000000000000000000000000000000000\n      dup2\n      mstore\n      0x04\n      add\n      tag_63\n      swap1\n      tag_64\n      jump\t// in\n    tag_63:\n      mload(0x40)\n      dup1\n      swap2\n      sub\n      swap1\n      revert\n    tag_62:\n        /* \"Voting.sol\":820:825  false */\n      0x00\n        /* \"Voting.sol\":789:825  voters[msg.sender].hasVoted == false */\n      iszero\n      iszero\n        /* \"Voting.sol\":789:795  voters */\n      0x02\n        /* \"Voting.sol\":789:807  voters[msg.sender] */\n      0x00\n        /* \"Voting.sol\":796:806  msg.sender */\n      caller\n        /* \"Voting.sol\":789:807  voters[msg.sender] */\n      0xffffffffffffffffffffffffffffffffffffffff\n      and\n      0xffffffffffffffffffffffffffffffffffffffff\n      and\n      dup2\n      mstore\n      0x20\n      add\n      swap1\n      dup2\n      mstore\n      0x20\n      add\n      0x00\n      keccak256\n        /* \"Voting.sol\":789:816  voters[msg.sender].hasVoted */\n      0x00\n      add\n      0x01\n      swap1\n      sload\n      swap1\n      0x0100\n      exp\n      swap1\n      div\n      0xff\n      and\n        /* \"Voting.sol\":789:825  voters[msg.sender].hasVoted == false */\n      iszero\n      iszero\n      eq\n        /* \"Voting.sol\":781:848  require(voters[msg.sender].hasVoted == false, \"You already voted!\") */\n      tag_66\n      jumpi\n      mload(0x40)\n      0x08c379a000000000000000000000000000000000000000000000000000000000\n      dup2\n      mstore\n      0x04\n      add\n      tag_67\n      swap1\n      tag_68\n      jump\t// in\n    tag_67:\n      mload(0x40)\n      dup1\n      swap2\n      sub\n      swap1\n      revert\n    tag_66:\n        /* \"Voting.sol\":3302:3311  proposals */\n      0x03\n        /* \"Voting.sol\":3312:3323  _proposalId */\n      dup2\n        /* \"Voting.sol\":3302:3324  proposals[_proposalId] */\n      dup2\n      sload\n      dup2\n      lt\n      tag_70\n      jumpi\n      tag_71\n      tag_72\n      jump\t// in\n    tag_71:\n    tag_70:\n      swap1\n      0x00\n      mstore\n      keccak256(0x00, 0x20)\n      swap1\n      0x03\n      mul\n      add\n        /* \"Voting.sol\":3302:3334  proposals[_proposalId].voteCount */\n      0x02\n      add\n      0x00\n        /* \"Voting.sol\":3302:3336  proposals[_proposalId].voteCount++ */\n      dup2\n      sload\n      dup1\n      swap3\n      swap2\n      swap1\n      tag_74\n      swap1\n      tag_75\n      jump\t// in\n    tag_74:\n      swap2\n      swap1\n      pop\n      sstore\n      pop\n        /* \"Voting.sol\":3376:3380  true */\n      0x01\n        /* \"Voting.sol\":3346:3352  voters */\n      0x02\n        /* \"Voting.sol\":3346:3364  voters[msg.sender] */\n      0x00\n        /* \"Voting.sol\":3353:3363  msg.sender */\n      caller\n        /* \"Voting.sol\":3346:3364  voters[msg.sender] */\n      0xffffffffffffffffffffffffffffffffffffffff\n      and\n      0xffffffffffffffffffffffffffffffffffffffff\n      and\n      dup2\n      mstore\n      0x20\n      add\n      swap1\n      dup2\n      mstore\n      0x20\n      add\n      0x00\n      keccak256\n        /* \"Voting.sol\":3346:3373  voters[msg.sender].hasVoted */\n      0x00\n      add\n      0x01\n        /* \"Voting.sol\":3346:3380  voters[msg.sender].hasVoted = true */\n      0x0100\n      exp\n      dup2\n      sload\n      dup2\n      0xff\n      mul\n      not\n      and\n      swap1\n      dup4\n      iszero\n      iszero\n      mul\n      or\n      swap1\n      sstore\n      pop\n        /* \"Voting.sol\":3427:3436  proposals */\n      0x03\n        /* \"Voting.sol\":3437:3448  _proposalId */\n      dup2\n        /* \"Voting.sol\":3427:3449  proposals[_proposalId] */\n      dup2\n      sload\n      dup2\n      lt\n      tag_76\n      jumpi\n      tag_77\n      tag_72\n      jump\t// in\n    tag_77:\n    tag_76:\n      swap1\n      0x00\n      mstore\n      keccak256(0x00, 0x20)\n      swap1\n      0x03\n      mul\n      add\n        /* \"Voting.sol\":3427:3452  proposals[_proposalId].id */\n      0x00\n      add\n      sload\n        /* \"Voting.sol\":3390:3396  voters */\n      0x02\n        /* \"Voting.sol\":3390:3408  voters[msg.sender] */\n      0x00\n        /* \"Voting.sol\":3397:3407  msg.sender */\n      caller\n        /* \"Voting.sol\":3390:3408  voters[msg.sender] */\n      0xffffffffffffffffffffffffffffffffffffffff\n      and\n      0xffffffffffffffffffffffffffffffffffffffff\n      and\n      dup2\n      mstore\n      0x20\n      add\n      swap1\n      dup2\n      mstore\n      0x20\n      add\n      0x00\n      keccak256\n        /* \"Voting.sol\":3390:3424  voters[msg.sender].votedProposalId */\n      0x01\n      add\n        /* \"Voting.sol\":3390:3452  voters[msg.sender].votedProposalId = proposals[_proposalId].id */\n      dup2\n      swap1\n      sstore\n      pop\n        /* \"Voting.sol\":3468:3521  Voted(msg.sender, voters[msg.sender].votedProposalId) */\n      0x4d99b957a2bc29a30ebd96a7be8e68fe50a3c701db28a91436490b7d53870ca4\n        /* \"Voting.sol\":3474:3484  msg.sender */\n      caller\n        /* \"Voting.sol\":3486:3492  voters */\n      0x02\n        /* \"Voting.sol\":3486:3504  voters[msg.sender] */\n      0x00\n        /* \"Voting.sol\":3493:3503  msg.sender */\n      caller\n        /* \"Voting.sol\":3486:3504  voters[msg.sender] */\n      0xffffffffffffffffffffffffffffffffffffffff\n      and\n      0xffffffffffffffffffffffffffffffffffffffff\n      and\n      dup2\n      mstore\n      0x20\n      add\n      swap1\n      dup2\n      mstore\n      0x20\n      add\n      0x00\n      keccak256\n        /* \"Voting.sol\":3486:3520  voters[msg.sender].votedProposalId */\n      0x01\n      add\n      sload\n        /* \"Voting.sol\":3468:3521  Voted(msg.sender, voters[msg.sender].votedProposalId) */\n      mload(0x40)\n      tag_79\n      swap3\n      swap2\n      swap1\n      tag_80\n      jump\t// in\n    tag_79:\n      mload(0x40)\n      dup1\n      swap2\n      sub\n      swap1\n      log1\n        /* \"Voting.sol\":3215:3528  function vote(uint _proposalId) external onlyVoters votingProposals VoteOnce {... */\n      pop\n      jump\t// out\n        /* \"Voting.sol\":2214:2316  function getVoteStep() external view returns (WorkflowStatus) {... */\n    tag_20:\n        /* \"Voting.sol\":2260:2274  WorkflowStatus */\n      0x00\n        /* \"Voting.sol\":2293:2309  currentVoteState */\n      0x05\n      0x00\n      swap1\n      sload\n      swap1\n      0x0100\n      exp\n      swap1\n      div\n      0xff\n      and\n        /* \"Voting.sol\":2286:2309  return currentVoteState */\n      swap1\n      pop\n        /* \"Voting.sol\":2214:2316  function getVoteStep() external view returns (WorkflowStatus) {... */\n      swap1\n      jump\t// out\n        /* \"Voting.sol\":2895:3104  function addProposal(string calldata _description) external onlyVoters registeringProposals {... */\n    tag_26:\n        /* \"Voting.sol\":692:696  true */\n      0x01\n        /* \"Voting.sol\":657:696  voters[msg.sender].isRegistered == true */\n      iszero\n      iszero\n        /* \"Voting.sol\":657:663  voters */\n      0x02\n        /* \"Voting.sol\":657:675  voters[msg.sender] */\n      0x00\n        /* \"Voting.sol\":664:674  msg.sender */\n      caller\n        /* \"Voting.sol\":657:675  voters[msg.sender] */\n      0xffffffffffffffffffffffffffffffffffffffff\n      and\n      0xffffffffffffffffffffffffffffffffffffffff\n      and\n      dup2\n      mstore\n      0x20\n      add\n      swap1\n      dup2\n      mstore\n      0x20\n      add\n      0x00\n      keccak256\n        /* \"Voting.sol\":657:688  voters[msg.sender].isRegistered */\n      0x00\n      add\n      0x00\n      swap1\n      sload\n      swap1\n      0x0100\n      exp\n      swap1\n      div\n      0xff\n      and\n        /* \"Voting.sol\":657:696  voters[msg.sender].isRegistered == true */\n      iszero\n      iszero\n      eq\n        /* \"Voting.sol\":649:727  require(voters[msg.sender].isRegistered == true, \"You are not a valid voter!\") */\n      tag_83\n      jumpi\n      mload(0x40)\n      0x08c379a000000000000000000000000000000000000000000000000000000000\n      dup2\n      mstore\n      0x04\n      add\n      tag_84\n      swap1\n      tag_55\n      jump\t// in\n    tag_84:\n      mload(0x40)\n      dup1\n      swap2\n      sub\n      swap1\n      revert\n    tag_83:\n        /* \"Voting.sol\":1846:1889  WorkflowStatus.ProposalsRegistrationStarted */\n      0x01\n        /* \"Voting.sol\":1826:1889  currentVoteState == WorkflowStatus.ProposalsRegistrationStarted */\n      0x05\n      dup2\n      gt\n      iszero\n      tag_86\n      jumpi\n      tag_87\n      tag_59\n      jump\t// in\n    tag_87:\n    tag_86:\n        /* \"Voting.sol\":1826:1842  currentVoteState */\n      0x05\n      0x00\n      swap1\n      sload\n      swap1\n      0x0100\n      exp\n      swap1\n      div\n      0xff\n      and\n        /* \"Voting.sol\":1826:1889  currentVoteState == WorkflowStatus.ProposalsRegistrationStarted */\n      0x05\n      dup2\n      gt\n      iszero\n      tag_88\n      jumpi\n      tag_89\n      tag_59\n      jump\t// in\n    tag_89:\n    tag_88:\n      eq\n        /* \"Voting.sol\":1818:1924  require(currentVoteState == WorkflowStatus.ProposalsRegistrationStarted, \"You cannot register proposals.\") */\n      tag_90\n      jumpi\n      mload(0x40)\n      0x08c379a000000000000000000000000000000000000000000000000000000000\n      dup2\n      mstore\n      0x04\n      add\n      tag_91\n      swap1\n      tag_92\n      jump\t// in\n    tag_91:\n      mload(0x40)\n      dup1\n      swap2\n      sub\n      swap1\n      revert\n    tag_90:\n        /* \"Voting.sol\":2997:3006  proposals */\n      0x03\n        /* \"Voting.sol\":3012:3049  Proposal(proposalId, _description, 0) */\n      mload(0x40)\n      dup1\n      0x60\n      add\n      0x40\n      mstore\n      dup1\n        /* \"Voting.sol\":3021:3031  proposalId */\n      sload(0x04)\n        /* \"Voting.sol\":3012:3049  Proposal(proposalId, _description, 0) */\n      dup2\n      mstore\n      0x20\n      add\n        /* \"Voting.sol\":3033:3045  _description */\n      dup5\n      dup5\n        /* \"Voting.sol\":3012:3049  Proposal(proposalId, _description, 0) */\n      dup1\n      dup1\n      0x1f\n      add\n      0x20\n      dup1\n      swap2\n      div\n      mul\n      0x20\n      add\n      mload(0x40)\n      swap1\n      dup2\n      add\n      0x40\n      mstore\n      dup1\n      swap4\n      swap3\n      swap2\n      swap1\n      dup2\n      dup2\n      mstore\n      0x20\n      add\n      dup4\n      dup4\n      dup1\n      dup3\n      dup5\n      calldatacopy\n      0x00\n      dup2\n      dup5\n      add\n      mstore\n      not(0x1f)\n      0x1f\n      dup3\n      add\n      and\n      swap1\n      pop\n      dup1\n      dup4\n      add\n      swap3\n      pop\n      pop\n      pop\n      pop\n      pop\n      pop\n      pop\n      dup2\n      mstore\n      0x20\n      add\n        /* \"Voting.sol\":3047:3048  0 */\n      0x00\n        /* \"Voting.sol\":3012:3049  Proposal(proposalId, _description, 0) */\n      dup2\n      mstore\n      pop\n        /* \"Voting.sol\":2997:3050  proposals.push(Proposal(proposalId, _description, 0)) */\n      swap1\n      dup1\n      0x01\n      dup2\n      sload\n      add\n      dup1\n      dup3\n      sstore\n      dup1\n      swap2\n      pop\n      pop\n      0x01\n      swap1\n      sub\n      swap1\n      0x00\n      mstore\n      keccak256(0x00, 0x20)\n      swap1\n      0x03\n      mul\n      add\n      0x00\n      swap1\n      swap2\n      swap1\n      swap2\n      swap1\n      swap2\n      pop\n      0x00\n      dup3\n      add\n      mload\n      dup2\n      0x00\n      add\n      sstore\n      0x20\n      dup3\n      add\n      mload\n      dup2\n      0x01\n      add\n      swap1\n      dup2\n      tag_95\n      swap2\n      swap1\n      tag_96\n      jump\t// in\n    tag_95:\n      pop\n      0x40\n      dup3\n      add\n      mload\n      dup2\n      0x02\n      add\n      sstore\n      pop\n      pop\n        /* \"Voting.sol\":3065:3097  ProposalRegistered(proposalId++) */\n      0x92e393e9b54e2f801d3ea4beb0c5e71a21cc34a5d34b77d0fb8a3aa1650dc18f\n        /* \"Voting.sol\":3084:3094  proposalId */\n      0x04\n      0x00\n        /* \"Voting.sol\":3084:3096  proposalId++ */\n      dup2\n      sload\n      dup1\n      swap3\n      swap2\n      swap1\n      tag_97\n      swap1\n      tag_75\n      jump\t// in\n    tag_97:\n      swap2\n      swap1\n      pop\n      sstore\n        /* \"Voting.sol\":3065:3097  ProposalRegistered(proposalId++) */\n      mload(0x40)\n      tag_98\n      swap2\n      swap1\n      tag_99\n      jump\t// in\n    tag_98:\n      mload(0x40)\n      dup1\n      swap2\n      sub\n      swap1\n      log1\n        /* \"Voting.sol\":2895:3104  function addProposal(string calldata _description) external onlyVoters registeringProposals {... */\n      pop\n      pop\n      jump\t// out\n        /* \"Voting.sol\":3110:3209  function getProposals() external view returns (Proposal[] memory) {... */\n    tag_28:\n        /* \"Voting.sol\":3157:3174  Proposal[] memory */\n      0x60\n        /* \"Voting.sol\":3193:3202  proposals */\n      0x03\n        /* \"Voting.sol\":3186:3202  return proposals */\n      dup1\n      sload\n      dup1\n      0x20\n      mul\n      0x20\n      add\n      mload(0x40)\n      swap1\n      dup2\n      add\n      0x40\n      mstore\n      dup1\n      swap3\n      swap2\n      swap1\n      dup2\n      dup2\n      mstore\n      0x20\n      add\n      0x00\n      swap1\n    tag_101:\n      dup3\n      dup3\n      lt\n      iszero\n      tag_102\n      jumpi\n      dup4\n      dup3\n      swap1\n      0x00\n      mstore\n      keccak256(0x00, 0x20)\n      swap1\n      0x03\n      mul\n      add\n      mload(0x40)\n      dup1\n      0x60\n      add\n      0x40\n      mstore\n      swap1\n      dup2\n      0x00\n      dup3\n      add\n      sload\n      dup2\n      mstore\n      0x20\n      add\n      0x01\n      dup3\n      add\n      dup1\n      sload\n      tag_104\n      swap1\n      tag_105\n      jump\t// in\n    tag_104:\n      dup1\n      0x1f\n      add\n      0x20\n      dup1\n      swap2\n      div\n      mul\n      0x20\n      add\n      mload(0x40)\n      swap1\n      dup2\n      add\n      0x40\n      mstore\n      dup1\n      swap3\n      swap2\n      swap1\n      dup2\n      dup2\n      mstore\n      0x20\n      add\n      dup3\n      dup1\n      sload\n      tag_106\n      swap1\n      tag_105\n      jump\t// in\n    tag_106:\n      dup1\n      iszero\n      tag_107\n      jumpi\n      dup1\n      0x1f\n      lt\n      tag_108\n      jumpi\n      0x0100\n      dup1\n      dup4\n      sload\n      div\n      mul\n      dup4\n      mstore\n      swap2\n      0x20\n      add\n      swap2\n      jump(tag_107)\n    tag_108:\n      dup3\n      add\n      swap2\n      swap1\n      0x00\n      mstore\n      keccak256(0x00, 0x20)\n      swap1\n    tag_109:\n      dup2\n      sload\n      dup2\n      mstore\n      swap1\n      0x01\n      add\n      swap1\n      0x20\n      add\n      dup1\n      dup4\n      gt\n      tag_109\n      jumpi\n      dup3\n      swap1\n      sub\n      0x1f\n      and\n      dup3\n      add\n      swap2\n    tag_107:\n      pop\n      pop\n      pop\n      pop\n      pop\n      dup2\n      mstore\n      0x20\n      add\n      0x02\n      dup3\n      add\n      sload\n      dup2\n      mstore\n      pop\n      pop\n      dup2\n      mstore\n      0x20\n      add\n      swap1\n      0x01\n      add\n      swap1\n      jump(tag_101)\n    tag_102:\n      pop\n      pop\n      pop\n      pop\n      swap1\n      pop\n        /* \"Voting.sol\":3110:3209  function getProposals() external view returns (Proposal[] memory) {... */\n      swap1\n      jump\t// out\n        /* \"https://github.com/OpenZeppelin/openzeppelin-contracts/blob/master/contracts/access/Ownable.sol\":2293:2394  function renounceOwnership() public virtual onlyOwner {... */\n    tag_32:\n        /* \"https://github.com/OpenZeppelin/openzeppelin-contracts/blob/master/contracts/access/Ownable.sol\":1531:1544  _checkOwner() */\n      tag_111\n        /* \"https://github.com/OpenZeppelin/openzeppelin-contracts/blob/master/contracts/access/Ownable.sol\":1531:1542  _checkOwner */\n      tag_112\n        /* \"https://github.com/OpenZeppelin/openzeppelin-contracts/blob/master/contracts/access/Ownable.sol\":1531:1544  _checkOwner() */\n      jump\t// in\n    tag_111:\n        /* \"https://github.com/OpenZeppelin/openzeppelin-contracts/blob/master/contracts/access/Ownable.sol\":2357:2387  _transferOwnership(address(0)) */\n      tag_114\n        /* \"https://github.com/OpenZeppelin/openzeppelin-contracts/blob/master/contracts/access/Ownable.sol\":2384:2385  0 */\n      0x00\n        /* \"https://github.com/OpenZeppelin/openzeppelin-contracts/blob/master/contracts/access/Ownable.sol\":2357:2375  _transferOwnership */\n      tag_115\n        /* \"https://github.com/OpenZeppelin/openzeppelin-contracts/blob/master/contracts/access/Ownable.sol\":2357:2387  _transferOwnership(address(0)) */\n      jump\t// in\n    tag_114:\n        /* \"https://github.com/OpenZeppelin/openzeppelin-contracts/blob/master/contracts/access/Ownable.sol\":2293:2394  function renounceOwnership() public virtual onlyOwner {... */\n      jump\t// out\n        /* \"https://github.com/OpenZeppelin/openzeppelin-contracts/blob/master/contracts/access/Ownable.sol\":1638:1723  function owner() public view virtual returns (address) {... */\n    tag_34:\n        /* \"https://github.com/OpenZeppelin/openzeppelin-contracts/blob/master/contracts/access/Ownable.sol\":1684:1691  address */\n      0x00\n        /* \"https://github.com/OpenZeppelin/openzeppelin-contracts/blob/master/contracts/access/Ownable.sol\":1710:1716  _owner */\n      dup1\n      0x00\n      swap1\n      sload\n      swap1\n      0x0100\n      exp\n      swap1\n      div\n      0xffffffffffffffffffffffffffffffffffffffff\n      and\n        /* \"https://github.com/OpenZeppelin/openzeppelin-contracts/blob/master/contracts/access/Ownable.sol\":1703:1716  return _owner */\n      swap1\n      pop\n        /* \"https://github.com/OpenZeppelin/openzeppelin-contracts/blob/master/contracts/access/Ownable.sol\":1638:1723  function owner() public view virtual returns (address) {... */\n      swap1\n      jump\t// out\n        /* \"Voting.sol\":3534:3967  function getWinner() external votesTallied returns (Proposal memory) {... */\n    tag_38:\n        /* \"Voting.sol\":3586:3601  Proposal memory */\n      tag_117\n      tag_118\n      jump\t// in\n    tag_117:\n        /* \"Voting.sol\":1351:1378  WorkflowStatus.VotesTallied */\n      0x05\n        /* \"Voting.sol\":1331:1378  currentVoteState == WorkflowStatus.VotesTallied */\n      dup1\n      dup2\n      gt\n      iszero\n      tag_120\n      jumpi\n      tag_121\n      tag_59\n      jump\t// in\n    tag_121:\n    tag_120:\n        /* \"Voting.sol\":1331:1347  currentVoteState */\n      0x05\n      0x00\n      swap1\n      sload\n      swap1\n      0x0100\n      exp\n      swap1\n      div\n      0xff\n      and\n        /* \"Voting.sol\":1331:1378  currentVoteState == WorkflowStatus.VotesTallied */\n      0x05\n      dup2\n      gt\n      iszero\n      tag_122\n      jumpi\n      tag_123\n      tag_59\n      jump\t// in\n    tag_123:\n    tag_122:\n      eq\n        /* \"Voting.sol\":1323:1428  require(currentVoteState == WorkflowStatus.VotesTallied, \"Votes need to be tallied in order to do that.\") */\n      tag_124\n      jumpi\n      mload(0x40)\n      0x08c379a000000000000000000000000000000000000000000000000000000000\n      dup2\n      mstore\n      0x04\n      add\n      tag_125\n      swap1\n      tag_126\n      jump\t// in\n    tag_125:\n      mload(0x40)\n      dup1\n      swap2\n      sub\n      swap1\n      revert\n    tag_124:\n        /* \"Voting.sol\":3613:3630  uint maxVoteCount */\n      0x00\n        /* \"Voting.sol\":3649:3655  uint i */\n      dup1\n        /* \"Voting.sol\":3644:3915  for (uint i=0; i<proposals.length; i++) {... */\n    tag_128:\n        /* \"Voting.sol\":3661:3670  proposals */\n      0x03\n        /* \"Voting.sol\":3661:3677  proposals.length */\n      dup1\n      sload\n      swap1\n      pop\n        /* \"Voting.sol\":3659:3660  i */\n      dup2\n        /* \"Voting.sol\":3659:3677  i<proposals.length */\n      lt\n        /* \"Voting.sol\":3644:3915  for (uint i=0; i<proposals.length; i++) {... */\n      iszero\n      tag_129\n      jumpi\n        /* \"Voting.sol\":3698:3722  Proposal memory proposal */\n      0x00\n        /* \"Voting.sol\":3725:3734  proposals */\n      0x03\n        /* \"Voting.sol\":3735:3736  i */\n      dup3\n        /* \"Voting.sol\":3725:3737  proposals[i] */\n      dup2\n      sload\n      dup2\n      lt\n      tag_131\n      jumpi\n      tag_132\n      tag_72\n      jump\t// in\n    tag_132:\n    tag_131:\n      swap1\n      0x00\n      mstore\n      keccak256(0x00, 0x20)\n      swap1\n      0x03\n      mul\n      add\n        /* \"Voting.sol\":3698:3737  Proposal memory proposal = proposals[i] */\n      mload(0x40)\n      dup1\n      0x60\n      add\n      0x40\n      mstore\n      swap1\n      dup2\n      0x00\n      dup3\n      add\n      sload\n      dup2\n      mstore\n      0x20\n      add\n      0x01\n      dup3\n      add\n      dup1\n      sload\n      tag_134\n      swap1\n      tag_105\n      jump\t// in\n    tag_134:\n      dup1\n      0x1f\n      add\n      0x20\n      dup1\n      swap2\n      div\n      mul\n      0x20\n      add\n      mload(0x40)\n      swap1\n      dup2\n      add\n      0x40\n      mstore\n      dup1\n      swap3\n      swap2\n      swap1\n      dup2\n      dup2\n      mstore\n      0x20\n      add\n      dup3\n      dup1\n      sload\n      tag_135\n      swap1\n      tag_105\n      jump\t// in\n    tag_135:\n      dup1\n      iszero\n      tag_136\n      jumpi\n      dup1\n      0x1f\n      lt\n      tag_137\n      jumpi\n      0x0100\n      dup1\n      dup4\n      sload\n      div\n      mul\n      dup4\n      mstore\n      swap2\n      0x20\n      add\n      swap2\n      jump(tag_136)\n    tag_137:\n      dup3\n      add\n      swap2\n      swap1\n      0x00\n      mstore\n      keccak256(0x00, 0x20)\n      swap1\n    tag_138:\n      dup2\n      sload\n      dup2\n      mstore\n      swap1\n      0x01\n      add\n      swap1\n      0x20\n      add\n      dup1\n      dup4\n      gt\n      tag_138\n      jumpi\n      dup3\n      swap1\n      sub\n      0x1f\n      and\n      dup3\n      add\n      swap2\n    tag_136:\n      pop\n      pop\n      pop\n      pop\n      pop\n      dup2\n      mstore\n      0x20\n      add\n      0x02\n      dup3\n      add\n      sload\n      dup2\n      mstore\n      pop\n      pop\n      swap1\n      pop\n        /* \"Voting.sol\":3776:3788  maxVoteCount */\n      dup3\n        /* \"Voting.sol\":3755:3763  proposal */\n      dup2\n        /* \"Voting.sol\":3755:3773  proposal.voteCount */\n      0x40\n      add\n      mload\n        /* \"Voting.sol\":3755:3788  proposal.voteCount > maxVoteCount */\n      gt\n        /* \"Voting.sol\":3751:3905  if (proposal.voteCount > maxVoteCount) {... */\n      iszero\n      tag_139\n      jumpi\n        /* \"Voting.sol\":3828:3836  proposal */\n      dup1\n        /* \"Voting.sol\":3828:3839  proposal.id */\n      0x00\n      add\n      mload\n        /* \"Voting.sol\":3808:3825  winningProposalId */\n      0x01\n        /* \"Voting.sol\":3808:3839  winningProposalId = proposal.id */\n      dup2\n      swap1\n      sstore\n      pop\n        /* \"Voting.sol\":3872:3880  proposal */\n      dup1\n        /* \"Voting.sol\":3872:3890  proposal.voteCount */\n      0x40\n      add\n      mload\n        /* \"Voting.sol\":3857:3890  maxVoteCount = proposal.voteCount */\n      swap3\n      pop\n        /* \"Voting.sol\":3751:3905  if (proposal.voteCount > maxVoteCount) {... */\n    tag_139:\n        /* \"Voting.sol\":3684:3915  {... */\n      pop\n        /* \"Voting.sol\":3679:3682  i++ */\n      dup1\n      dup1\n      0x01\n      add\n      swap2\n      pop\n      pop\n        /* \"Voting.sol\":3644:3915  for (uint i=0; i<proposals.length; i++) {... */\n      jump(tag_128)\n    tag_129:\n      pop\n        /* \"Voting.sol\":3932:3941  proposals */\n      0x03\n        /* \"Voting.sol\":3942:3959  winningProposalId */\n      sload(0x01)\n        /* \"Voting.sol\":3932:3960  proposals[winningProposalId] */\n      dup2\n      sload\n      dup2\n      lt\n      tag_140\n      jumpi\n      tag_141\n      tag_72\n      jump\t// in\n    tag_141:\n    tag_140:\n      swap1\n      0x00\n      mstore\n      keccak256(0x00, 0x20)\n      swap1\n      0x03\n      mul\n      add\n        /* \"Voting.sol\":3925:3960  return proposals[winningProposalId] */\n      mload(0x40)\n      dup1\n      0x60\n      add\n      0x40\n      mstore\n      swap1\n      dup2\n      0x00\n      dup3\n      add\n      sload\n      dup2\n      mstore\n      0x20\n      add\n      0x01\n      dup3\n      add\n      dup1\n      sload\n      tag_143\n      swap1\n      tag_105\n      jump\t// in\n    tag_143:\n      dup1\n      0x1f\n      add\n      0x20\n      dup1\n      swap2\n      div\n      mul\n      0x20\n      add\n      mload(0x40)\n      swap1\n      dup2\n      add\n      0x40\n      mstore\n      dup1\n      swap3\n      swap2\n      swap1\n      dup2\n      dup2\n      mstore\n      0x20\n      add\n      dup3\n      dup1\n      sload\n      tag_144\n      swap1\n      tag_105\n      jump\t// in\n    tag_144:\n      dup1\n      iszero\n      tag_145\n      jumpi\n      dup1\n      0x1f\n      lt\n      tag_146\n      jumpi\n      0x0100\n      dup1\n      dup4\n      sload\n      div\n      mul\n      dup4\n      mstore\n      swap2\n      0x20\n      add\n      swap2\n      jump(tag_145)\n    tag_146:\n      dup3\n      add\n      swap2\n      swap1\n      0x00\n      mstore\n      keccak256(0x00, 0x20)\n      swap1\n    tag_147:\n      dup2\n      sload\n      dup2\n      mstore\n      swap1\n      0x01\n      add\n      swap1\n      0x20\n      add\n      dup1\n      dup4\n      gt\n      tag_147\n      jumpi\n      dup3\n      swap1\n      sub\n      0x1f\n      and\n      dup3\n      add\n      swap2\n    tag_145:\n      pop\n      pop\n      pop\n      pop\n      pop\n      dup2\n      mstore\n      0x20\n      add\n      0x02\n      dup3\n      add\n      sload\n      dup2\n      mstore\n      pop\n      pop\n      swap2\n      pop\n      pop\n        /* \"Voting.sol\":3534:3967  function getWinner() external votesTallied returns (Proposal memory) {... */\n      swap1\n      jump\t// out\n        /* \"Voting.sol\":2594:2717  function restartVote() external onlyOwner votesTallied {... */\n    tag_42:\n        /* \"https://github.com/OpenZeppelin/openzeppelin-contracts/blob/master/contracts/access/Ownable.sol\":1531:1544  _checkOwner() */\n      tag_149\n        /* \"https://github.com/OpenZeppelin/openzeppelin-contracts/blob/master/contracts/access/Ownable.sol\":1531:1542  _checkOwner */\n      tag_112\n        /* \"https://github.com/OpenZeppelin/openzeppelin-contracts/blob/master/contracts/access/Ownable.sol\":1531:1544  _checkOwner() */\n      jump\t// in\n    tag_149:\n        /* \"Voting.sol\":1351:1378  WorkflowStatus.VotesTallied */\n      0x05\n        /* \"Voting.sol\":1331:1378  currentVoteState == WorkflowStatus.VotesTallied */\n      dup1\n      dup2\n      gt\n      iszero\n      tag_151\n      jumpi\n      tag_152\n      tag_59\n      jump\t// in\n    tag_152:\n    tag_151:\n        /* \"Voting.sol\":1331:1347  currentVoteState */\n      0x05\n      0x00\n      swap1\n      sload\n      swap1\n      0x0100\n      exp\n      swap1\n      div\n      0xff\n      and\n        /* \"Voting.sol\":1331:1378  currentVoteState == WorkflowStatus.VotesTallied */\n      0x05\n      dup2\n      gt\n      iszero\n      tag_153\n      jumpi\n      tag_154\n      tag_59\n      jump\t// in\n    tag_154:\n    tag_153:\n      eq\n        /* \"Voting.sol\":1323:1428  require(currentVoteState == WorkflowStatus.VotesTallied, \"Votes need to be tallied in order to do that.\") */\n      tag_155\n      jumpi\n      mload(0x40)\n      0x08c379a000000000000000000000000000000000000000000000000000000000\n      dup2\n      mstore\n      0x04\n      add\n      tag_156\n      swap1\n      tag_126\n      jump\t// in\n    tag_156:\n      mload(0x40)\n      dup1\n      swap2\n      sub\n      swap1\n      revert\n    tag_155:\n        /* \"Voting.sol\":2678:2710  WorkflowStatus.RegisteringVoters */\n      0x00\n        /* \"Voting.sol\":2659:2675  currentVoteState */\n      0x05\n      0x00\n        /* \"Voting.sol\":2659:2710  currentVoteState = WorkflowStatus.RegisteringVoters */\n      0x0100\n      exp\n      dup2\n      sload\n      dup2\n      0xff\n      mul\n      not\n      and\n      swap1\n      dup4\n      0x05\n      dup2\n      gt\n      iszero\n      tag_158\n      jumpi\n      tag_159\n      tag_59\n      jump\t// in\n    tag_159:\n    tag_158:\n      mul\n      or\n      swap1\n      sstore\n      pop\n        /* \"Voting.sol\":2594:2717  function restartVote() external onlyOwner votesTallied {... */\n      jump\t// out\n        /* \"https://github.com/OpenZeppelin/openzeppelin-contracts/blob/master/contracts/access/Ownable.sol\":2543:2758  function transferOwnership(address newOwner) public virtual onlyOwner {... */\n    tag_46:\n        /* \"https://github.com/OpenZeppelin/openzeppelin-contracts/blob/master/contracts/access/Ownable.sol\":1531:1544  _checkOwner() */\n      tag_161\n        /* \"https://github.com/OpenZeppelin/openzeppelin-contracts/blob/master/contracts/access/Ownable.sol\":1531:1542  _checkOwner */\n      tag_112\n        /* \"https://github.com/OpenZeppelin/openzeppelin-contracts/blob/master/contracts/access/Ownable.sol\":1531:1544  _checkOwner() */\n      jump\t// in\n    tag_161:\n        /* \"https://github.com/OpenZeppelin/openzeppelin-contracts/blob/master/contracts/access/Ownable.sol\":2647:2648  0 */\n      0x00\n        /* \"https://github.com/OpenZeppelin/openzeppelin-contracts/blob/master/contracts/access/Ownable.sol\":2627:2649  newOwner == address(0) */\n      0xffffffffffffffffffffffffffffffffffffffff\n      and\n        /* \"https://github.com/OpenZeppelin/openzeppelin-contracts/blob/master/contracts/access/Ownable.sol\":2627:2635  newOwner */\n      dup2\n        /* \"https://github.com/OpenZeppelin/openzeppelin-contracts/blob/master/contracts/access/Ownable.sol\":2627:2649  newOwner == address(0) */\n      0xffffffffffffffffffffffffffffffffffffffff\n      and\n      sub\n        /* \"https://github.com/OpenZeppelin/openzeppelin-contracts/blob/master/contracts/access/Ownable.sol\":2623:2714  if (newOwner == address(0)) {... */\n      tag_163\n      jumpi\n        /* \"https://github.com/OpenZeppelin/openzeppelin-contracts/blob/master/contracts/access/Ownable.sol\":2700:2701  0 */\n      0x00\n        /* \"https://github.com/OpenZeppelin/openzeppelin-contracts/blob/master/contracts/access/Ownable.sol\":2672:2703  OwnableInvalidOwner(address(0)) */\n      mload(0x40)\n      0x1e4fbdf700000000000000000000000000000000000000000000000000000000\n      dup2\n      mstore\n      0x04\n      add\n      tag_164\n      swap2\n      swap1\n      tag_36\n      jump\t// in\n    tag_164:\n      mload(0x40)\n      dup1\n      swap2\n      sub\n      swap1\n      revert\n        /* \"https://github.com/OpenZeppelin/openzeppelin-contracts/blob/master/contracts/access/Ownable.sol\":2623:2714  if (newOwner == address(0)) {... */\n    tag_163:\n        /* \"https://github.com/OpenZeppelin/openzeppelin-contracts/blob/master/contracts/access/Ownable.sol\":2723:2751  _transferOwnership(newOwner) */\n      tag_165\n        /* \"https://github.com/OpenZeppelin/openzeppelin-contracts/blob/master/contracts/access/Ownable.sol\":2742:2750  newOwner */\n      dup2\n        /* \"https://github.com/OpenZeppelin/openzeppelin-contracts/blob/master/contracts/access/Ownable.sol\":2723:2741  _transferOwnership */\n      tag_115\n        /* \"https://github.com/OpenZeppelin/openzeppelin-contracts/blob/master/contracts/access/Ownable.sol\":2723:2751  _transferOwnership(newOwner) */\n      jump\t// in\n    tag_165:\n        /* \"https://github.com/OpenZeppelin/openzeppelin-contracts/blob/master/contracts/access/Ownable.sol\":2543:2758  function transferOwnership(address newOwner) public virtual onlyOwner {... */\n      pop\n      jump\t// out\n        /* \"Voting.sol\":2723:2889  function addVoter(address _address) external onlyOwner registeringVoters {... */\n    tag_49:\n        /* \"https://github.com/OpenZeppelin/openzeppelin-contracts/blob/master/contracts/access/Ownable.sol\":1531:1544  _checkOwner() */\n      tag_167\n        /* \"https://github.com/OpenZeppelin/openzeppelin-contracts/blob/master/contracts/access/Ownable.sol\":1531:1542  _checkOwner */\n      tag_112\n        /* \"https://github.com/OpenZeppelin/openzeppelin-contracts/blob/master/contracts/access/Ownable.sol\":1531:1544  _checkOwner() */\n      jump\t// in\n    tag_167:\n        /* \"Voting.sol\":1688:1720  WorkflowStatus.RegisteringVoters */\n      0x00\n        /* \"Voting.sol\":1668:1720  currentVoteState == WorkflowStatus.RegisteringVoters */\n      0x05\n      dup2\n      gt\n      iszero\n      tag_169\n      jumpi\n      tag_170\n      tag_59\n      jump\t// in\n    tag_170:\n    tag_169:\n        /* \"Voting.sol\":1668:1684  currentVoteState */\n      0x05\n      0x00\n      swap1\n      sload\n      swap1\n      0x0100\n      exp\n      swap1\n      div\n      0xff\n      and\n        /* \"Voting.sol\":1668:1720  currentVoteState == WorkflowStatus.RegisteringVoters */\n      0x05\n      dup2\n      gt\n      iszero\n      tag_171\n      jumpi\n      tag_172\n      tag_59\n      jump\t// in\n    tag_172:\n    tag_171:\n      eq\n        /* \"Voting.sol\":1660:1752  require(currentVoteState == WorkflowStatus.RegisteringVoters, \"You cannot register voters.\") */\n      tag_173\n      jumpi\n      mload(0x40)\n      0x08c379a000000000000000000000000000000000000000000000000000000000\n      dup2\n      mstore\n      0x04\n      add\n      tag_174\n      swap1\n      tag_175\n      jump\t// in\n    tag_174:\n      mload(0x40)\n      dup1\n      swap2\n      sub\n      swap1\n      revert\n    tag_173:\n        /* \"Voting.sol\":2838:2842  true */\n      0x01\n        /* \"Voting.sol\":2806:2812  voters */\n      0x02\n        /* \"Voting.sol\":2806:2822  voters[_address] */\n      0x00\n        /* \"Voting.sol\":2813:2821  _address */\n      dup4\n        /* \"Voting.sol\":2806:2822  voters[_address] */\n      0xffffffffffffffffffffffffffffffffffffffff\n      and\n      0xffffffffffffffffffffffffffffffffffffffff\n      and\n      dup2\n      mstore\n      0x20\n      add\n      swap1\n      dup2\n      mstore\n      0x20\n      add\n      0x00\n      keccak256\n        /* \"Voting.sol\":2806:2835  voters[_address].isRegistered */\n      0x00\n      add\n      0x00\n        /* \"Voting.sol\":2806:2842  voters[_address].isRegistered = true */\n      0x0100\n      exp\n      dup2\n      sload\n      dup2\n      0xff\n      mul\n      not\n      and\n      swap1\n      dup4\n      iszero\n      iszero\n      mul\n      or\n      swap1\n      sstore\n      pop\n        /* \"Voting.sol\":2857:2882  VoterRegistered(_address) */\n      0xb6be2187d059cc2a55fe29e0e503b566e1e0f8c8780096e185429350acffd3dd\n        /* \"Voting.sol\":2873:2881  _address */\n      dup2\n        /* \"Voting.sol\":2857:2882  VoterRegistered(_address) */\n      mload(0x40)\n      tag_177\n      swap2\n      swap1\n      tag_36\n      jump\t// in\n    tag_177:\n      mload(0x40)\n      dup1\n      swap2\n      sub\n      swap1\n      log1\n        /* \"Voting.sol\":2723:2889  function addVoter(address _address) external onlyOwner registeringVoters {... */\n      pop\n      jump\t// out\n        /* \"Voting.sol\":2322:2584  function nextVoteStep() external onlyOwner votesNotTallied {... */\n    tag_51:\n        /* \"https://github.com/OpenZeppelin/openzeppelin-contracts/blob/master/contracts/access/Ownable.sol\":1531:1544  _checkOwner() */\n      tag_179\n        /* \"https://github.com/OpenZeppelin/openzeppelin-contracts/blob/master/contracts/access/Ownable.sol\":1531:1542  _checkOwner */\n      tag_112\n        /* \"https://github.com/OpenZeppelin/openzeppelin-contracts/blob/master/contracts/access/Ownable.sol\":1531:1544  _checkOwner() */\n      jump\t// in\n    tag_179:\n        /* \"Voting.sol\":1517:1544  WorkflowStatus.VotesTallied */\n      0x05\n        /* \"Voting.sol\":1497:1544  currentVoteState != WorkflowStatus.VotesTallied */\n      dup1\n      dup2\n      gt\n      iszero\n      tag_181\n      jumpi\n      tag_182\n      tag_59\n      jump\t// in\n    tag_182:\n    tag_181:\n        /* \"Voting.sol\":1497:1513  currentVoteState */\n      0x05\n      0x00\n      swap1\n      sload\n      swap1\n      0x0100\n      exp\n      swap1\n      div\n      0xff\n      and\n        /* \"Voting.sol\":1497:1544  currentVoteState != WorkflowStatus.VotesTallied */\n      0x05\n      dup2\n      gt\n      iszero\n      tag_183\n      jumpi\n      tag_184\n      tag_59\n      jump\t// in\n    tag_184:\n    tag_183:\n      sub\n        /* \"Voting.sol\":1489:1597  require(currentVoteState != WorkflowStatus.VotesTallied, \"Votes should not be tallied in order to do that.\") */\n      tag_185\n      jumpi\n      mload(0x40)\n      0x08c379a000000000000000000000000000000000000000000000000000000000\n      dup2\n      mstore\n      0x04\n      add\n      tag_186\n      swap1\n      tag_187\n      jump\t// in\n    tag_186:\n      mload(0x40)\n      dup1\n      swap2\n      sub\n      swap1\n      revert\n    tag_185:\n        /* \"Voting.sol\":2391:2419  WorkflowStatus previousState */\n      0x00\n        /* \"Voting.sol\":2422:2438  currentVoteState */\n      0x05\n      0x00\n      swap1\n      sload\n      swap1\n      0x0100\n      exp\n      swap1\n      div\n      0xff\n      and\n        /* \"Voting.sol\":2391:2438  WorkflowStatus previousState = currentVoteState */\n      swap1\n      pop\n        /* \"Voting.sol\":2507:2508  1 */\n      0x01\n        /* \"Voting.sol\":2487:2503  currentVoteState */\n      0x05\n      0x00\n      swap1\n      sload\n      swap1\n      0x0100\n      exp\n      swap1\n      div\n      0xff\n      and\n        /* \"Voting.sol\":2482:2504  uint(currentVoteState) */\n      0x05\n      dup2\n      gt\n      iszero\n      tag_189\n      jumpi\n      tag_190\n      tag_59\n      jump\t// in\n    tag_190:\n    tag_189:\n        /* \"Voting.sol\":2482:2508  uint(currentVoteState) + 1 */\n      tag_191\n      swap2\n      swap1\n      tag_192\n      jump\t// in\n    tag_191:\n        /* \"Voting.sol\":2467:2509  WorkflowStatus(uint(currentVoteState) + 1) */\n      0x05\n      dup2\n      gt\n      iszero\n      tag_193\n      jumpi\n      tag_194\n      tag_59\n      jump\t// in\n    tag_194:\n    tag_193:\n        /* \"Voting.sol\":2448:2464  currentVoteState */\n      0x05\n      0x00\n        /* \"Voting.sol\":2448:2509  currentVoteState = WorkflowStatus(uint(currentVoteState) + 1) */\n      0x0100\n      exp\n      dup2\n      sload\n      dup2\n      0xff\n      mul\n      not\n      and\n      swap1\n      dup4\n      0x05\n      dup2\n      gt\n      iszero\n      tag_195\n      jumpi\n      tag_196\n      tag_59\n      jump\t// in\n    tag_196:\n    tag_195:\n      mul\n      or\n      swap1\n      sstore\n      pop\n        /* \"Voting.sol\":2524:2577  WorkflowStatusChange(previousState, currentVoteState) */\n      0x0a97a4ee45751e2abf3e4fc8946939630b11b371ea8ae39ccdc3056e98f5cc3f\n        /* \"Voting.sol\":2545:2558  previousState */\n      dup2\n        /* \"Voting.sol\":2560:2576  currentVoteState */\n      0x05\n      0x00\n      swap1\n      sload\n      swap1\n      0x0100\n      exp\n      swap1\n      div\n      0xff\n      and\n        /* \"Voting.sol\":2524:2577  WorkflowStatusChange(previousState, currentVoteState) */\n      mload(0x40)\n      tag_197\n      swap3\n      swap2\n      swap1\n      tag_198\n      jump\t// in\n    tag_197:\n      mload(0x40)\n      dup1\n      swap2\n      sub\n      swap1\n      log1\n        /* \"Voting.sol\":2381:2584  {... */\n      pop\n        /* \"Voting.sol\":2322:2584  function nextVoteStep() external onlyOwner votesNotTallied {... */\n      jump\t// out\n        /* \"https://github.com/OpenZeppelin/openzeppelin-contracts/blob/master/contracts/access/Ownable.sol\":1796:1958  function _checkOwner() internal view virtual {... */\n    tag_112:\n        /* \"https://github.com/OpenZeppelin/openzeppelin-contracts/blob/master/contracts/access/Ownable.sol\":1866:1878  _msgSender() */\n      tag_200\n        /* \"https://github.com/OpenZeppelin/openzeppelin-contracts/blob/master/contracts/access/Ownable.sol\":1866:1876  _msgSender */\n      tag_201\n        /* \"https://github.com/OpenZeppelin/openzeppelin-contracts/blob/master/contracts/access/Ownable.sol\":1866:1878  _msgSender() */\n      jump\t// in\n    tag_200:\n        /* \"https://github.com/OpenZeppelin/openzeppelin-contracts/blob/master/contracts/access/Ownable.sol\":1855:1878  owner() != _msgSender() */\n      0xffffffffffffffffffffffffffffffffffffffff\n      and\n        /* \"https://github.com/OpenZeppelin/openzeppelin-contracts/blob/master/contracts/access/Ownable.sol\":1855:1862  owner() */\n      tag_202\n        /* \"https://github.com/OpenZeppelin/openzeppelin-contracts/blob/master/contracts/access/Ownable.sol\":1855:1860  owner */\n      tag_34\n        /* \"https://github.com/OpenZeppelin/openzeppelin-contracts/blob/master/contracts/access/Ownable.sol\":1855:1862  owner() */\n      jump\t// in\n    tag_202:\n        /* \"https://github.com/OpenZeppelin/openzeppelin-contracts/blob/master/contracts/access/Ownable.sol\":1855:1878  owner() != _msgSender() */\n      0xffffffffffffffffffffffffffffffffffffffff\n      and\n      eq\n        /* \"https://github.com/OpenZeppelin/openzeppelin-contracts/blob/master/contracts/access/Ownable.sol\":1851:1952  if (owner() != _msgSender()) {... */\n      tag_203\n      jumpi\n        /* \"https://github.com/OpenZeppelin/openzeppelin-contracts/blob/master/contracts/access/Ownable.sol\":1928:1940  _msgSender() */\n      tag_204\n        /* \"https://github.com/OpenZeppelin/openzeppelin-contracts/blob/master/contracts/access/Ownable.sol\":1928:1938  _msgSender */\n      tag_201\n        /* \"https://github.com/OpenZeppelin/openzeppelin-contracts/blob/master/contracts/access/Ownable.sol\":1928:1940  _msgSender() */\n      jump\t// in\n    tag_204:\n        /* \"https://github.com/OpenZeppelin/openzeppelin-contracts/blob/master/contracts/access/Ownable.sol\":1901:1941  OwnableUnauthorizedAccount(_msgSender()) */\n      mload(0x40)\n      0x118cdaa700000000000000000000000000000000000000000000000000000000\n      dup2\n      mstore\n      0x04\n      add\n      tag_205\n      swap2\n      swap1\n      tag_36\n      jump\t// in\n    tag_205:\n      mload(0x40)\n      dup1\n      swap2\n      sub\n      swap1\n      revert\n        /* \"https://github.com/OpenZeppelin/openzeppelin-contracts/blob/master/contracts/access/Ownable.sol\":1851:1952  if (owner() != _msgSender()) {... */\n    tag_203:\n        /* \"https://github.com/OpenZeppelin/openzeppelin-contracts/blob/master/contracts/access/Ownable.sol\":1796:1958  function _checkOwner() internal view virtual {... */\n      jump\t// out\n        /* \"https://github.com/OpenZeppelin/openzeppelin-contracts/blob/master/contracts/access/Ownable.sol\":2912:3099  function _transferOwnership(address newOwner) internal virtual {... */\n    tag_115:\n        /* \"https://github.com/OpenZeppelin/openzeppelin-contracts/blob/master/contracts/access/Ownable.sol\":2985:3001  address oldOwner */\n      0x00\n        /* \"https://github.com/OpenZeppelin/openzeppelin-contracts/blob/master/contracts/access/Ownable.sol\":3004:3010  _owner */\n      dup1\n      0x00\n      swap1\n      sload\n      swap1\n      0x0100\n      exp\n      swap1\n      div\n      0xffffffffffffffffffffffffffffffffffffffff\n      and\n        /* \"https://github.com/OpenZeppelin/openzeppelin-contracts/blob/master/contracts/access/Ownable.sol\":2985:3010  address oldOwner = _owner */\n      swap1\n      pop\n        /* \"https://github.com/OpenZeppelin/openzeppelin-contracts/blob/master/contracts/access/Ownable.sol\":3029:3037  newOwner */\n      dup2\n        /* \"https://github.com/OpenZeppelin/openzeppelin-contracts/blob/master/contracts/access/Ownable.sol\":3020:3026  _owner */\n      0x00\n      dup1\n        /* \"https://github.com/OpenZeppelin/openzeppelin-contracts/blob/master/contracts/access/Ownable.sol\":3020:3037  _owner = newOwner */\n      0x0100\n      exp\n      dup2\n      sload\n      dup2\n      0xffffffffffffffffffffffffffffffffffffffff\n      mul\n      not\n      and\n      swap1\n      dup4\n      0xffffffffffffffffffffffffffffffffffffffff\n      and\n      mul\n      or\n      swap1\n      sstore\n      pop\n        /* \"https://github.com/OpenZeppelin/openzeppelin-contracts/blob/master/contracts/access/Ownable.sol\":3083:3091  newOwner */\n      dup2\n        /* \"https://github.com/OpenZeppelin/openzeppelin-contracts/blob/master/contracts/access/Ownable.sol\":3052:3092  OwnershipTransferred(oldOwner, newOwner) */\n      0xffffffffffffffffffffffffffffffffffffffff\n      and\n        /* \"https://github.com/OpenZeppelin/openzeppelin-contracts/blob/master/contracts/access/Ownable.sol\":3073:3081  oldOwner */\n      dup2\n        /* \"https://github.com/OpenZeppelin/openzeppelin-contracts/blob/master/contracts/access/Ownable.sol\":3052:3092  OwnershipTransferred(oldOwner, newOwner) */\n      0xffffffffffffffffffffffffffffffffffffffff\n      and\n      0x8be0079c531659141344cd1fd0a4f28419497f9722a3daafe3b4186f6b6457e0\n      mload(0x40)\n      mload(0x40)\n      dup1\n      swap2\n      sub\n      swap1\n      log3\n        /* \"https://github.com/OpenZeppelin/openzeppelin-contracts/blob/master/contracts/access/Ownable.sol\":2975:3099  {... */\n      pop\n        /* \"https://github.com/OpenZeppelin/openzeppelin-contracts/blob/master/contracts/access/Ownable.sol\":2912:3099  function _transferOwnership(address newOwner) internal virtual {... */\n      pop\n      jump\t// out\n        /* \"https://github.com/OpenZeppelin/openzeppelin-contracts/blob/master/contracts/utils/Context.sol\":656:752  function _msgSender() internal view virtual returns (address) {... */\n    tag_201:\n        /* \"https://github.com/OpenZeppelin/openzeppelin-contracts/blob/master/contracts/utils/Context.sol\":709:716  address */\n      0x00\n        /* \"https://github.com/OpenZeppelin/openzeppelin-contracts/blob/master/contracts/utils/Context.sol\":735:745  msg.sender */\n      caller\n        /* \"https://github.com/OpenZeppelin/openzeppelin-contracts/blob/master/contracts/utils/Context.sol\":728:745  return msg.sender */\n      swap1\n      pop\n        /* \"https://github.com/OpenZeppelin/openzeppelin-contracts/blob/master/contracts/utils/Context.sol\":656:752  function _msgSender() internal view virtual returns (address) {... */\n      swap1\n      jump\t// out\n    tag_118:\n      mload(0x40)\n      dup1\n      0x60\n      add\n      0x40\n      mstore\n      dup1\n      0x00\n      dup2\n      mstore\n      0x20\n      add\n      0x60\n      dup2\n      mstore\n      0x20\n      add\n      0x00\n      dup2\n      mstore\n      pop\n      swap1\n      jump\t// out\n        /* \"#utility.yul\":88:205   */\n    tag_209:\n        /* \"#utility.yul\":197:198   */\n      0x00\n        /* \"#utility.yul\":194:195   */\n      dup1\n        /* \"#utility.yul\":187:199   */\n      revert\n        /* \"#utility.yul\":211:328   */\n    tag_210:\n        /* \"#utility.yul\":320:321   */\n      0x00\n        /* \"#utility.yul\":317:318   */\n      dup1\n        /* \"#utility.yul\":310:322   */\n      revert\n        /* \"#utility.yul\":334:411   */\n    tag_211:\n        /* \"#utility.yul\":371:378   */\n      0x00\n        /* \"#utility.yul\":400:405   */\n      dup2\n        /* \"#utility.yul\":389:405   */\n      swap1\n      pop\n        /* \"#utility.yul\":334:411   */\n      swap2\n      swap1\n      pop\n      jump\t// out\n        /* \"#utility.yul\":417:539   */\n    tag_212:\n        /* \"#utility.yul\":490:514   */\n      tag_281\n        /* \"#utility.yul\":508:513   */\n      dup2\n        /* \"#utility.yul\":490:514   */\n      tag_211\n      jump\t// in\n    tag_281:\n        /* \"#utility.yul\":483:488   */\n      dup2\n        /* \"#utility.yul\":480:515   */\n      eq\n        /* \"#utility.yul\":470:533   */\n      tag_282\n      jumpi\n        /* \"#utility.yul\":529:530   */\n      0x00\n        /* \"#utility.yul\":526:527   */\n      dup1\n        /* \"#utility.yul\":519:531   */\n      revert\n        /* \"#utility.yul\":470:533   */\n    tag_282:\n        /* \"#utility.yul\":417:539   */\n      pop\n      jump\t// out\n        /* \"#utility.yul\":545:684   */\n    tag_213:\n        /* \"#utility.yul\":591:596   */\n      0x00\n        /* \"#utility.yul\":629:635   */\n      dup2\n        /* \"#utility.yul\":616:636   */\n      calldataload\n        /* \"#utility.yul\":607:636   */\n      swap1\n      pop\n        /* \"#utility.yul\":645:678   */\n      tag_284\n        /* \"#utility.yul\":672:677   */\n      dup2\n        /* \"#utility.yul\":645:678   */\n      tag_212\n      jump\t// in\n    tag_284:\n        /* \"#utility.yul\":545:684   */\n      swap3\n      swap2\n      pop\n      pop\n      jump\t// out\n        /* \"#utility.yul\":690:1019   */\n    tag_17:\n        /* \"#utility.yul\":749:755   */\n      0x00\n        /* \"#utility.yul\":798:800   */\n      0x20\n        /* \"#utility.yul\":786:795   */\n      dup3\n        /* \"#utility.yul\":777:784   */\n      dup5\n        /* \"#utility.yul\":773:796   */\n      sub\n        /* \"#utility.yul\":769:801   */\n      slt\n        /* \"#utility.yul\":766:885   */\n      iszero\n      tag_286\n      jumpi\n        /* \"#utility.yul\":804:883   */\n      tag_287\n      tag_209\n      jump\t// in\n    tag_287:\n        /* \"#utility.yul\":766:885   */\n    tag_286:\n        /* \"#utility.yul\":924:925   */\n      0x00\n        /* \"#utility.yul\":949:1002   */\n      tag_288\n        /* \"#utility.yul\":994:1001   */\n      dup5\n        /* \"#utility.yul\":985:991   */\n      dup3\n        /* \"#utility.yul\":974:983   */\n      dup6\n        /* \"#utility.yul\":970:992   */\n      add\n        /* \"#utility.yul\":949:1002   */\n      tag_213\n      jump\t// in\n    tag_288:\n        /* \"#utility.yul\":939:1002   */\n      swap2\n      pop\n        /* \"#utility.yul\":895:1012   */\n      pop\n        /* \"#utility.yul\":690:1019   */\n      swap3\n      swap2\n      pop\n      pop\n      jump\t// out\n        /* \"#utility.yul\":1025:1205   */\n    tag_59:\n        /* \"#utility.yul\":1073:1150   */\n      0x4e487b7100000000000000000000000000000000000000000000000000000000\n        /* \"#utility.yul\":1070:1071   */\n      0x00\n        /* \"#utility.yul\":1063:1151   */\n      mstore\n        /* \"#utility.yul\":1170:1174   */\n      0x21\n        /* \"#utility.yul\":1167:1168   */\n      0x04\n        /* \"#utility.yul\":1160:1175   */\n      mstore\n        /* \"#utility.yul\":1194:1198   */\n      0x24\n        /* \"#utility.yul\":1191:1192   */\n      0x00\n        /* \"#utility.yul\":1184:1199   */\n      revert\n        /* \"#utility.yul\":1211:1333   */\n    tag_214:\n        /* \"#utility.yul\":1301:1302   */\n      0x06\n        /* \"#utility.yul\":1294:1299   */\n      dup2\n        /* \"#utility.yul\":1291:1303   */\n      lt\n        /* \"#utility.yul\":1281:1327   */\n      tag_291\n      jumpi\n        /* \"#utility.yul\":1307:1325   */\n      tag_292\n      tag_59\n      jump\t// in\n    tag_292:\n        /* \"#utility.yul\":1281:1327   */\n    tag_291:\n        /* \"#utility.yul\":1211:1333   */\n      pop\n      jump\t// out\n        /* \"#utility.yul\":1339:1484   */\n    tag_215:\n        /* \"#utility.yul\":1393:1400   */\n      0x00\n        /* \"#utility.yul\":1422:1427   */\n      dup2\n        /* \"#utility.yul\":1411:1427   */\n      swap1\n      pop\n        /* \"#utility.yul\":1428:1478   */\n      tag_294\n        /* \"#utility.yul\":1472:1477   */\n      dup3\n        /* \"#utility.yul\":1428:1478   */\n      tag_214\n      jump\t// in\n    tag_294:\n        /* \"#utility.yul\":1339:1484   */\n      swap2\n      swap1\n      pop\n      jump\t// out\n        /* \"#utility.yul\":1490:1635   */\n    tag_216:\n        /* \"#utility.yul\":1555:1564   */\n      0x00\n        /* \"#utility.yul\":1588:1629   */\n      tag_296\n        /* \"#utility.yul\":1623:1628   */\n      dup3\n        /* \"#utility.yul\":1588:1629   */\n      tag_215\n      jump\t// in\n    tag_296:\n        /* \"#utility.yul\":1575:1629   */\n      swap1\n      pop\n        /* \"#utility.yul\":1490:1635   */\n      swap2\n      swap1\n      pop\n      jump\t// out\n        /* \"#utility.yul\":1641:1802   */\n    tag_217:\n        /* \"#utility.yul\":1743:1795   */\n      tag_298\n        /* \"#utility.yul\":1789:1794   */\n      dup2\n        /* \"#utility.yul\":1743:1795   */\n      tag_216\n      jump\t// in\n    tag_298:\n        /* \"#utility.yul\":1738:1741   */\n      dup3\n        /* \"#utility.yul\":1731:1796   */\n      mstore\n        /* \"#utility.yul\":1641:1802   */\n      pop\n      pop\n      jump\t// out\n        /* \"#utility.yul\":1808:2060   */\n    tag_22:\n        /* \"#utility.yul\":1916:1920   */\n      0x00\n        /* \"#utility.yul\":1954:1956   */\n      0x20\n        /* \"#utility.yul\":1943:1952   */\n      dup3\n        /* \"#utility.yul\":1939:1957   */\n      add\n        /* \"#utility.yul\":1931:1957   */\n      swap1\n      pop\n        /* \"#utility.yul\":1967:2053   */\n      tag_300\n        /* \"#utility.yul\":2050:2051   */\n      0x00\n        /* \"#utility.yul\":2039:2048   */\n      dup4\n        /* \"#utility.yul\":2035:2052   */\n      add\n        /* \"#utility.yul\":2026:2032   */\n      dup5\n        /* \"#utility.yul\":1967:2053   */\n      tag_217\n      jump\t// in\n    tag_300:\n        /* \"#utility.yul\":1808:2060   */\n      swap3\n      swap2\n      pop\n      pop\n      jump\t// out\n        /* \"#utility.yul\":2066:2183   */\n    tag_218:\n        /* \"#utility.yul\":2175:2176   */\n      0x00\n        /* \"#utility.yul\":2172:2173   */\n      dup1\n        /* \"#utility.yul\":2165:2177   */\n      revert\n        /* \"#utility.yul\":2189:2306   */\n    tag_219:\n        /* \"#utility.yul\":2298:2299   */\n      0x00\n        /* \"#utility.yul\":2295:2296   */\n      dup1\n        /* \"#utility.yul\":2288:2300   */\n      revert\n        /* \"#utility.yul\":2312:2429   */\n    tag_220:\n        /* \"#utility.yul\":2421:2422   */\n      0x00\n        /* \"#utility.yul\":2418:2419   */\n      dup1\n        /* \"#utility.yul\":2411:2423   */\n      revert\n        /* \"#utility.yul\":2449:3002   */\n    tag_221:\n        /* \"#utility.yul\":2507:2515   */\n      0x00\n        /* \"#utility.yul\":2517:2523   */\n      dup1\n        /* \"#utility.yul\":2567:2570   */\n      dup4\n        /* \"#utility.yul\":2560:2564   */\n      0x1f\n        /* \"#utility.yul\":2552:2558   */\n      dup5\n        /* \"#utility.yul\":2548:2565   */\n      add\n        /* \"#utility.yul\":2544:2571   */\n      slt\n        /* \"#utility.yul\":2534:2656   */\n      tag_305\n      jumpi\n        /* \"#utility.yul\":2575:2654   */\n      tag_306\n      tag_218\n      jump\t// in\n    tag_306:\n        /* \"#utility.yul\":2534:2656   */\n    tag_305:\n        /* \"#utility.yul\":2688:2694   */\n      dup3\n        /* \"#utility.yul\":2675:2695   */\n      calldataload\n        /* \"#utility.yul\":2665:2695   */\n      swap1\n      pop\n        /* \"#utility.yul\":2718:2736   */\n      0xffffffffffffffff\n        /* \"#utility.yul\":2710:2716   */\n      dup2\n        /* \"#utility.yul\":2707:2737   */\n      gt\n        /* \"#utility.yul\":2704:2821   */\n      iszero\n      tag_307\n      jumpi\n        /* \"#utility.yul\":2740:2819   */\n      tag_308\n      tag_219\n      jump\t// in\n    tag_308:\n        /* \"#utility.yul\":2704:2821   */\n    tag_307:\n        /* \"#utility.yul\":2854:2858   */\n      0x20\n        /* \"#utility.yul\":2846:2852   */\n      dup4\n        /* \"#utility.yul\":2842:2859   */\n      add\n        /* \"#utility.yul\":2830:2859   */\n      swap2\n      pop\n        /* \"#utility.yul\":2908:2911   */\n      dup4\n        /* \"#utility.yul\":2900:2904   */\n      0x01\n        /* \"#utility.yul\":2892:2898   */\n      dup3\n        /* \"#utility.yul\":2888:2905   */\n      mul\n        /* \"#utility.yul\":2878:2886   */\n      dup4\n        /* \"#utility.yul\":2874:2906   */\n      add\n        /* \"#utility.yul\":2871:2912   */\n      gt\n        /* \"#utility.yul\":2868:2996   */\n      iszero\n      tag_309\n      jumpi\n        /* \"#utility.yul\":2915:2994   */\n      tag_310\n      tag_220\n      jump\t// in\n    tag_310:\n        /* \"#utility.yul\":2868:2996   */\n    tag_309:\n        /* \"#utility.yul\":2449:3002   */\n      swap3\n      pop\n      swap3\n      swap1\n      pop\n      jump\t// out\n        /* \"#utility.yul\":3008:3537   */\n    tag_25:\n        /* \"#utility.yul\":3079:3085   */\n      0x00\n        /* \"#utility.yul\":3087:3093   */\n      dup1\n        /* \"#utility.yul\":3136:3138   */\n      0x20\n        /* \"#utility.yul\":3124:3133   */\n      dup4\n        /* \"#utility.yul\":3115:3122   */\n      dup6\n        /* \"#utility.yul\":3111:3134   */\n      sub\n        /* \"#utility.yul\":3107:3139   */\n      slt\n        /* \"#utility.yul\":3104:3223   */\n      iszero\n      tag_312\n      jumpi\n        /* \"#utility.yul\":3142:3221   */\n      tag_313\n      tag_209\n      jump\t// in\n    tag_313:\n        /* \"#utility.yul\":3104:3223   */\n    tag_312:\n        /* \"#utility.yul\":3290:3291   */\n      0x00\n        /* \"#utility.yul\":3279:3288   */\n      dup4\n        /* \"#utility.yul\":3275:3292   */\n      add\n        /* \"#utility.yul\":3262:3293   */\n      calldataload\n        /* \"#utility.yul\":3320:3338   */\n      0xffffffffffffffff\n        /* \"#utility.yul\":3312:3318   */\n      dup2\n        /* \"#utility.yul\":3309:3339   */\n      gt\n        /* \"#utility.yul\":3306:3423   */\n      iszero\n      tag_314\n      jumpi\n        /* \"#utility.yul\":3342:3421   */\n      tag_315\n      tag_210\n      jump\t// in\n    tag_315:\n        /* \"#utility.yul\":3306:3423   */\n    tag_314:\n        /* \"#utility.yul\":3455:3520   */\n      tag_316\n        /* \"#utility.yul\":3512:3519   */\n      dup6\n        /* \"#utility.yul\":3503:3509   */\n      dup3\n        /* \"#utility.yul\":3492:3501   */\n      dup7\n        /* \"#utility.yul\":3488:3510   */\n      add\n        /* \"#utility.yul\":3455:3520   */\n      tag_221\n      jump\t// in\n    tag_316:\n        /* \"#utility.yul\":3437:3520   */\n      swap3\n      pop\n      swap3\n      pop\n        /* \"#utility.yul\":3233:3530   */\n      pop\n        /* \"#utility.yul\":3008:3537   */\n      swap3\n      pop\n      swap3\n      swap1\n      pop\n      jump\t// out\n        /* \"#utility.yul\":3543:3681   */\n    tag_222:\n        /* \"#utility.yul\":3634:3640   */\n      0x00\n        /* \"#utility.yul\":3668:3673   */\n      dup2\n        /* \"#utility.yul\":3662:3674   */\n      mload\n        /* \"#utility.yul\":3652:3674   */\n      swap1\n      pop\n        /* \"#utility.yul\":3543:3681   */\n      swap2\n      swap1\n      pop\n      jump\t// out\n        /* \"#utility.yul\":3687:3895   */\n    tag_223:\n        /* \"#utility.yul\":3810:3821   */\n      0x00\n        /* \"#utility.yul\":3844:3850   */\n      dup3\n        /* \"#utility.yul\":3839:3842   */\n      dup3\n        /* \"#utility.yul\":3832:3851   */\n      mstore\n        /* \"#utility.yul\":3884:3888   */\n      0x20\n        /* \"#utility.yul\":3879:3882   */\n      dup3\n        /* \"#utility.yul\":3875:3889   */\n      add\n        /* \"#utility.yul\":3860:3889   */\n      swap1\n      pop\n        /* \"#utility.yul\":3687:3895   */\n      swap3\n      swap2\n      pop\n      pop\n      jump\t// out\n        /* \"#utility.yul\":3901:4057   */\n    tag_224:\n        /* \"#utility.yul\":3992:3996   */\n      0x00\n        /* \"#utility.yul\":4015:4018   */\n      dup2\n        /* \"#utility.yul\":4007:4018   */\n      swap1\n      pop\n        /* \"#utility.yul\":4045:4049   */\n      0x20\n        /* \"#utility.yul\":4040:4043   */\n      dup3\n        /* \"#utility.yul\":4036:4050   */\n      add\n        /* \"#utility.yul\":4028:4050   */\n      swap1\n      pop\n        /* \"#utility.yul\":3901:4057   */\n      swap2\n      swap1\n      pop\n      jump\t// out\n        /* \"#utility.yul\":4063:4171   */\n    tag_225:\n        /* \"#utility.yul\":4140:4164   */\n      tag_321\n        /* \"#utility.yul\":4158:4163   */\n      dup2\n        /* \"#utility.yul\":4140:4164   */\n      tag_211\n      jump\t// in\n    tag_321:\n        /* \"#utility.yul\":4135:4138   */\n      dup3\n        /* \"#utility.yul\":4128:4165   */\n      mstore\n        /* \"#utility.yul\":4063:4171   */\n      pop\n      pop\n      jump\t// out\n        /* \"#utility.yul\":4177:4276   */\n    tag_226:\n        /* \"#utility.yul\":4229:4235   */\n      0x00\n        /* \"#utility.yul\":4263:4268   */\n      dup2\n        /* \"#utility.yul\":4257:4269   */\n      mload\n        /* \"#utility.yul\":4247:4269   */\n      swap1\n      pop\n        /* \"#utility.yul\":4177:4276   */\n      swap2\n      swap1\n      pop\n      jump\t// out\n        /* \"#utility.yul\":4282:4441   */\n    tag_227:\n        /* \"#utility.yul\":4356:4367   */\n      0x00\n        /* \"#utility.yul\":4390:4396   */\n      dup3\n        /* \"#utility.yul\":4385:4388   */\n      dup3\n        /* \"#utility.yul\":4378:4397   */\n      mstore\n        /* \"#utility.yul\":4430:4434   */\n      0x20\n        /* \"#utility.yul\":4425:4428   */\n      dup3\n        /* \"#utility.yul\":4421:4435   */\n      add\n        /* \"#utility.yul\":4406:4435   */\n      swap1\n      pop\n        /* \"#utility.yul\":4282:4441   */\n      swap3\n      swap2\n      pop\n      pop\n      jump\t// out\n        /* \"#utility.yul\":4447:4693   */\n    tag_228:\n        /* \"#utility.yul\":4528:4529   */\n      0x00\n        /* \"#utility.yul\":4538:4651   */\n    tag_325:\n        /* \"#utility.yul\":4552:4558   */\n      dup4\n        /* \"#utility.yul\":4549:4550   */\n      dup2\n        /* \"#utility.yul\":4546:4559   */\n      lt\n        /* \"#utility.yul\":4538:4651   */\n      iszero\n      tag_327\n      jumpi\n        /* \"#utility.yul\":4637:4638   */\n      dup1\n        /* \"#utility.yul\":4632:4635   */\n      dup3\n        /* \"#utility.yul\":4628:4639   */\n      add\n        /* \"#utility.yul\":4622:4640   */\n      mload\n        /* \"#utility.yul\":4618:4619   */\n      dup2\n        /* \"#utility.yul\":4613:4616   */\n      dup5\n        /* \"#utility.yul\":4609:4620   */\n      add\n        /* \"#utility.yul\":4602:4641   */\n      mstore\n        /* \"#utility.yul\":4574:4576   */\n      0x20\n        /* \"#utility.yul\":4571:4572   */\n      dup2\n        /* \"#utility.yul\":4567:4577   */\n      add\n        /* \"#utility.yul\":4562:4577   */\n      swap1\n      pop\n        /* \"#utility.yul\":4538:4651   */\n      jump(tag_325)\n    tag_327:\n        /* \"#utility.yul\":4685:4686   */\n      0x00\n        /* \"#utility.yul\":4676:4682   */\n      dup5\n        /* \"#utility.yul\":4671:4674   */\n      dup5\n        /* \"#utility.yul\":4667:4683   */\n      add\n        /* \"#utility.yul\":4660:4687   */\n      mstore\n        /* \"#utility.yul\":4509:4693   */\n      pop\n        /* \"#utility.yul\":4447:4693   */\n      pop\n      pop\n      pop\n      jump\t// out\n        /* \"#utility.yul\":4699:4801   */\n    tag_229:\n        /* \"#utility.yul\":4740:4746   */\n      0x00\n        /* \"#utility.yul\":4791:4793   */\n      0x1f\n        /* \"#utility.yul\":4787:4794   */\n      not\n        /* \"#utility.yul\":4782:4784   */\n      0x1f\n        /* \"#utility.yul\":4775:4780   */\n      dup4\n        /* \"#utility.yul\":4771:4785   */\n      add\n        /* \"#utility.yul\":4767:4795   */\n      and\n        /* \"#utility.yul\":4757:4795   */\n      swap1\n      pop\n        /* \"#utility.yul\":4699:4801   */\n      swap2\n      swap1\n      pop\n      jump\t// out\n        /* \"#utility.yul\":4807:5164   */\n    tag_230:\n        /* \"#utility.yul\":4885:4888   */\n      0x00\n        /* \"#utility.yul\":4913:4952   */\n      tag_330\n        /* \"#utility.yul\":4946:4951   */\n      dup3\n        /* \"#utility.yul\":4913:4952   */\n      tag_226\n      jump\t// in\n    tag_330:\n        /* \"#utility.yul\":4968:5029   */\n      tag_331\n        /* \"#utility.yul\":5022:5028   */\n      dup2\n        /* \"#utility.yul\":5017:5020   */\n      dup6\n        /* \"#utility.yul\":4968:5029   */\n      tag_227\n      jump\t// in\n    tag_331:\n        /* \"#utility.yul\":4961:5029   */\n      swap4\n      pop\n        /* \"#utility.yul\":5038:5103   */\n      tag_332\n        /* \"#utility.yul\":5096:5102   */\n      dup2\n        /* \"#utility.yul\":5091:5094   */\n      dup6\n        /* \"#utility.yul\":5084:5088   */\n      0x20\n        /* \"#utility.yul\":5077:5082   */\n      dup7\n        /* \"#utility.yul\":5073:5089   */\n      add\n        /* \"#utility.yul\":5038:5103   */\n      tag_228\n      jump\t// in\n    tag_332:\n        /* \"#utility.yul\":5128:5157   */\n      tag_333\n        /* \"#utility.yul\":5150:5156   */\n      dup2\n        /* \"#utility.yul\":5128:5157   */\n      tag_229\n      jump\t// in\n    tag_333:\n        /* \"#utility.yul\":5123:5126   */\n      dup5\n        /* \"#utility.yul\":5119:5158   */\n      add\n        /* \"#utility.yul\":5112:5158   */\n      swap2\n      pop\n        /* \"#utility.yul\":4889:5164   */\n      pop\n        /* \"#utility.yul\":4807:5164   */\n      swap3\n      swap2\n      pop\n      pop\n      jump\t// out\n        /* \"#utility.yul\":5226:6004   */\n    tag_231:\n        /* \"#utility.yul\":5333:5336   */\n      0x00\n        /* \"#utility.yul\":5369:5373   */\n      0x60\n        /* \"#utility.yul\":5364:5367   */\n      dup4\n        /* \"#utility.yul\":5360:5374   */\n      add\n        /* \"#utility.yul\":5454:5458   */\n      0x00\n        /* \"#utility.yul\":5447:5452   */\n      dup4\n        /* \"#utility.yul\":5443:5459   */\n      add\n        /* \"#utility.yul\":5437:5460   */\n      mload\n        /* \"#utility.yul\":5473:5536   */\n      tag_335\n        /* \"#utility.yul\":5530:5534   */\n      0x00\n        /* \"#utility.yul\":5525:5528   */\n      dup7\n        /* \"#utility.yul\":5521:5535   */\n      add\n        /* \"#utility.yul\":5507:5519   */\n      dup3\n        /* \"#utility.yul\":5473:5536   */\n      tag_225\n      jump\t// in\n    tag_335:\n        /* \"#utility.yul\":5384:5546   */\n      pop\n        /* \"#utility.yul\":5635:5639   */\n      0x20\n        /* \"#utility.yul\":5628:5633   */\n      dup4\n        /* \"#utility.yul\":5624:5640   */\n      add\n        /* \"#utility.yul\":5618:5641   */\n      mload\n        /* \"#utility.yul\":5688:5691   */\n      dup5\n        /* \"#utility.yul\":5682:5686   */\n      dup3\n        /* \"#utility.yul\":5678:5692   */\n      sub\n        /* \"#utility.yul\":5671:5675   */\n      0x20\n        /* \"#utility.yul\":5666:5669   */\n      dup7\n        /* \"#utility.yul\":5662:5676   */\n      add\n        /* \"#utility.yul\":5655:5693   */\n      mstore\n        /* \"#utility.yul\":5714:5787   */\n      tag_336\n        /* \"#utility.yul\":5782:5786   */\n      dup3\n        /* \"#utility.yul\":5768:5780   */\n      dup3\n        /* \"#utility.yul\":5714:5787   */\n      tag_230\n      jump\t// in\n    tag_336:\n        /* \"#utility.yul\":5706:5787   */\n      swap2\n      pop\n        /* \"#utility.yul\":5556:5798   */\n      pop\n        /* \"#utility.yul\":5885:5889   */\n      0x40\n        /* \"#utility.yul\":5878:5883   */\n      dup4\n        /* \"#utility.yul\":5874:5890   */\n      add\n        /* \"#utility.yul\":5868:5891   */\n      mload\n        /* \"#utility.yul\":5904:5967   */\n      tag_337\n        /* \"#utility.yul\":5961:5965   */\n      0x40\n        /* \"#utility.yul\":5956:5959   */\n      dup7\n        /* \"#utility.yul\":5952:5966   */\n      add\n        /* \"#utility.yul\":5938:5950   */\n      dup3\n        /* \"#utility.yul\":5904:5967   */\n      tag_225\n      jump\t// in\n    tag_337:\n        /* \"#utility.yul\":5808:5977   */\n      pop\n        /* \"#utility.yul\":5994:5998   */\n      dup1\n        /* \"#utility.yul\":5987:5998   */\n      swap2\n      pop\n        /* \"#utility.yul\":5338:6004   */\n      pop\n        /* \"#utility.yul\":5226:6004   */\n      swap3\n      swap2\n      pop\n      pop\n      jump\t// out\n        /* \"#utility.yul\":6010:6262   */\n    tag_232:\n        /* \"#utility.yul\":6127:6137   */\n      0x00\n        /* \"#utility.yul\":6162:6256   */\n      tag_339\n        /* \"#utility.yul\":6252:6255   */\n      dup4\n        /* \"#utility.yul\":6244:6250   */\n      dup4\n        /* \"#utility.yul\":6162:6256   */\n      tag_231\n      jump\t// in\n    tag_339:\n        /* \"#utility.yul\":6148:6256   */\n      swap1\n      pop\n        /* \"#utility.yul\":6010:6262   */\n      swap3\n      swap2\n      pop\n      pop\n      jump\t// out\n        /* \"#utility.yul\":6268:6405   */\n    tag_233:\n        /* \"#utility.yul\":6362:6366   */\n      0x00\n        /* \"#utility.yul\":6394:6398   */\n      0x20\n        /* \"#utility.yul\":6389:6392   */\n      dup3\n        /* \"#utility.yul\":6385:6399   */\n      add\n        /* \"#utility.yul\":6377:6399   */\n      swap1\n      pop\n        /* \"#utility.yul\":6268:6405   */\n      swap2\n      swap1\n      pop\n      jump\t// out\n        /* \"#utility.yul\":6471:7574   */\n    tag_234:\n        /* \"#utility.yul\":6638:6641   */\n      0x00\n        /* \"#utility.yul\":6667:6745   */\n      tag_342\n        /* \"#utility.yul\":6739:6744   */\n      dup3\n        /* \"#utility.yul\":6667:6745   */\n      tag_222\n      jump\t// in\n    tag_342:\n        /* \"#utility.yul\":6761:6871   */\n      tag_343\n        /* \"#utility.yul\":6864:6870   */\n      dup2\n        /* \"#utility.yul\":6859:6862   */\n      dup6\n        /* \"#utility.yul\":6761:6871   */\n      tag_223\n      jump\t// in\n    tag_343:\n        /* \"#utility.yul\":6754:6871   */\n      swap4\n      pop\n        /* \"#utility.yul\":6897:6900   */\n      dup4\n        /* \"#utility.yul\":6942:6946   */\n      0x20\n        /* \"#utility.yul\":6934:6940   */\n      dup3\n        /* \"#utility.yul\":6930:6947   */\n      mul\n        /* \"#utility.yul\":6925:6928   */\n      dup6\n        /* \"#utility.yul\":6921:6948   */\n      add\n        /* \"#utility.yul\":6972:7052   */\n      tag_344\n        /* \"#utility.yul\":7046:7051   */\n      dup6\n        /* \"#utility.yul\":6972:7052   */\n      tag_224\n      jump\t// in\n    tag_344:\n        /* \"#utility.yul\":7075:7082   */\n      dup1\n        /* \"#utility.yul\":7106:7107   */\n      0x00\n        /* \"#utility.yul\":7091:7529   */\n    tag_345:\n        /* \"#utility.yul\":7116:7122   */\n      dup6\n        /* \"#utility.yul\":7113:7114   */\n      dup2\n        /* \"#utility.yul\":7110:7123   */\n      lt\n        /* \"#utility.yul\":7091:7529   */\n      iszero\n      tag_347\n      jumpi\n        /* \"#utility.yul\":7187:7196   */\n      dup5\n        /* \"#utility.yul\":7181:7185   */\n      dup5\n        /* \"#utility.yul\":7177:7197   */\n      sub\n        /* \"#utility.yul\":7172:7175   */\n      dup10\n        /* \"#utility.yul\":7165:7198   */\n      mstore\n        /* \"#utility.yul\":7238:7244   */\n      dup2\n        /* \"#utility.yul\":7232:7245   */\n      mload\n        /* \"#utility.yul\":7266:7378   */\n      tag_348\n        /* \"#utility.yul\":7373:7377   */\n      dup6\n        /* \"#utility.yul\":7358:7371   */\n      dup3\n        /* \"#utility.yul\":7266:7378   */\n      tag_232\n      jump\t// in\n    tag_348:\n        /* \"#utility.yul\":7258:7378   */\n      swap5\n      pop\n        /* \"#utility.yul\":7401:7485   */\n      tag_349\n        /* \"#utility.yul\":7478:7484   */\n      dup4\n        /* \"#utility.yul\":7401:7485   */\n      tag_233\n      jump\t// in\n    tag_349:\n        /* \"#utility.yul\":7391:7485   */\n      swap3\n      pop\n        /* \"#utility.yul\":7514:7518   */\n      0x20\n        /* \"#utility.yul\":7509:7512   */\n      dup11\n        /* \"#utility.yul\":7505:7519   */\n      add\n        /* \"#utility.yul\":7498:7519   */\n      swap10\n      pop\n        /* \"#utility.yul\":7151:7529   */\n      pop\n        /* \"#utility.yul\":7138:7139   */\n      0x01\n        /* \"#utility.yul\":7135:7136   */\n      dup2\n        /* \"#utility.yul\":7131:7140   */\n      add\n        /* \"#utility.yul\":7126:7140   */\n      swap1\n      pop\n        /* \"#utility.yul\":7091:7529   */\n      jump(tag_345)\n    tag_347:\n        /* \"#utility.yul\":7095:7109   */\n      pop\n        /* \"#utility.yul\":7545:7549   */\n      dup3\n        /* \"#utility.yul\":7538:7549   */\n      swap8\n      pop\n        /* \"#utility.yul\":7565:7568   */\n      dup8\n        /* \"#utility.yul\":7558:7568   */\n      swap6\n      pop\n        /* \"#utility.yul\":6643:7574   */\n      pop\n      pop\n      pop\n      pop\n      pop\n        /* \"#utility.yul\":6471:7574   */\n      swap3\n      swap2\n      pop\n      pop\n      jump\t// out\n        /* \"#utility.yul\":7580:8049   */\n    tag_30:\n        /* \"#utility.yul\":7771:7775   */\n      0x00\n        /* \"#utility.yul\":7809:7811   */\n      0x20\n        /* \"#utility.yul\":7798:7807   */\n      dup3\n        /* \"#utility.yul\":7794:7812   */\n      add\n        /* \"#utility.yul\":7786:7812   */\n      swap1\n      pop\n        /* \"#utility.yul\":7858:7867   */\n      dup2\n        /* \"#utility.yul\":7852:7856   */\n      dup2\n        /* \"#utility.yul\":7848:7868   */\n      sub\n        /* \"#utility.yul\":7844:7845   */\n      0x00\n        /* \"#utility.yul\":7833:7842   */\n      dup4\n        /* \"#utility.yul\":7829:7846   */\n      add\n        /* \"#utility.yul\":7822:7869   */\n      mstore\n        /* \"#utility.yul\":7886:8042   */\n      tag_351\n        /* \"#utility.yul\":8037:8041   */\n      dup2\n        /* \"#utility.yul\":8028:8034   */\n      dup5\n        /* \"#utility.yul\":7886:8042   */\n      tag_234\n      jump\t// in\n    tag_351:\n        /* \"#utility.yul\":7878:8042   */\n      swap1\n      pop\n        /* \"#utility.yul\":7580:8049   */\n      swap3\n      swap2\n      pop\n      pop\n      jump\t// out\n        /* \"#utility.yul\":8055:8181   */\n    tag_235:\n        /* \"#utility.yul\":8092:8099   */\n      0x00\n        /* \"#utility.yul\":8132:8174   */\n      0xffffffffffffffffffffffffffffffffffffffff\n        /* \"#utility.yul\":8125:8130   */\n      dup3\n        /* \"#utility.yul\":8121:8175   */\n      and\n        /* \"#utility.yul\":8110:8175   */\n      swap1\n      pop\n        /* \"#utility.yul\":8055:8181   */\n      swap2\n      swap1\n      pop\n      jump\t// out\n        /* \"#utility.yul\":8187:8283   */\n    tag_236:\n        /* \"#utility.yul\":8224:8231   */\n      0x00\n        /* \"#utility.yul\":8253:8277   */\n      tag_354\n        /* \"#utility.yul\":8271:8276   */\n      dup3\n        /* \"#utility.yul\":8253:8277   */\n      tag_235\n      jump\t// in\n    tag_354:\n        /* \"#utility.yul\":8242:8277   */\n      swap1\n      pop\n        /* \"#utility.yul\":8187:8283   */\n      swap2\n      swap1\n      pop\n      jump\t// out\n        /* \"#utility.yul\":8289:8407   */\n    tag_237:\n        /* \"#utility.yul\":8376:8400   */\n      tag_356\n        /* \"#utility.yul\":8394:8399   */\n      dup2\n        /* \"#utility.yul\":8376:8400   */\n      tag_236\n      jump\t// in\n    tag_356:\n        /* \"#utility.yul\":8371:8374   */\n      dup3\n        /* \"#utility.yul\":8364:8401   */\n      mstore\n        /* \"#utility.yul\":8289:8407   */\n      pop\n      pop\n      jump\t// out\n        /* \"#utility.yul\":8413:8635   */\n    tag_36:\n        /* \"#utility.yul\":8506:8510   */\n      0x00\n        /* \"#utility.yul\":8544:8546   */\n      0x20\n        /* \"#utility.yul\":8533:8542   */\n      dup3\n        /* \"#utility.yul\":8529:8547   */\n      add\n        /* \"#utility.yul\":8521:8547   */\n      swap1\n      pop\n        /* \"#utility.yul\":8557:8628   */\n      tag_358\n        /* \"#utility.yul\":8625:8626   */\n      0x00\n        /* \"#utility.yul\":8614:8623   */\n      dup4\n        /* \"#utility.yul\":8610:8627   */\n      add\n        /* \"#utility.yul\":8601:8607   */\n      dup5\n        /* \"#utility.yul\":8557:8628   */\n      tag_237\n      jump\t// in\n    tag_358:\n        /* \"#utility.yul\":8413:8635   */\n      swap3\n      swap2\n      pop\n      pop\n      jump\t// out\n        /* \"#utility.yul\":8697:9485   */\n    tag_238:\n        /* \"#utility.yul\":8814:8817   */\n      0x00\n        /* \"#utility.yul\":8850:8854   */\n      0x60\n        /* \"#utility.yul\":8845:8848   */\n      dup4\n        /* \"#utility.yul\":8841:8855   */\n      add\n        /* \"#utility.yul\":8935:8939   */\n      0x00\n        /* \"#utility.yul\":8928:8933   */\n      dup4\n        /* \"#utility.yul\":8924:8940   */\n      add\n        /* \"#utility.yul\":8918:8941   */\n      mload\n        /* \"#utility.yul\":8954:9017   */\n      tag_360\n        /* \"#utility.yul\":9011:9015   */\n      0x00\n        /* \"#utility.yul\":9006:9009   */\n      dup7\n        /* \"#utility.yul\":9002:9016   */\n      add\n        /* \"#utility.yul\":8988:9000   */\n      dup3\n        /* \"#utility.yul\":8954:9017   */\n      tag_225\n      jump\t// in\n    tag_360:\n        /* \"#utility.yul\":8865:9027   */\n      pop\n        /* \"#utility.yul\":9116:9120   */\n      0x20\n        /* \"#utility.yul\":9109:9114   */\n      dup4\n        /* \"#utility.yul\":9105:9121   */\n      add\n        /* \"#utility.yul\":9099:9122   */\n      mload\n        /* \"#utility.yul\":9169:9172   */\n      dup5\n        /* \"#utility.yul\":9163:9167   */\n      dup3\n        /* \"#utility.yul\":9159:9173   */\n      sub\n        /* \"#utility.yul\":9152:9156   */\n      0x20\n        /* \"#utility.yul\":9147:9150   */\n      dup7\n        /* \"#utility.yul\":9143:9157   */\n      add\n        /* \"#utility.yul\":9136:9174   */\n      mstore\n        /* \"#utility.yul\":9195:9268   */\n      tag_361\n        /* \"#utility.yul\":9263:9267   */\n      dup3\n        /* \"#utility.yul\":9249:9261   */\n      dup3\n        /* \"#utility.yul\":9195:9268   */\n      tag_230\n      jump\t// in\n    tag_361:\n        /* \"#utility.yul\":9187:9268   */\n      swap2\n      pop\n        /* \"#utility.yul\":9037:9279   */\n      pop\n        /* \"#utility.yul\":9366:9370   */\n      0x40\n        /* \"#utility.yul\":9359:9364   */\n      dup4\n        /* \"#utility.yul\":9355:9371   */\n      add\n        /* \"#utility.yul\":9349:9372   */\n      mload\n        /* \"#utility.yul\":9385:9448   */\n      tag_362\n        /* \"#utility.yul\":9442:9446   */\n      0x40\n        /* \"#utility.yul\":9437:9440   */\n      dup7\n        /* \"#utility.yul\":9433:9447   */\n      add\n        /* \"#utility.yul\":9419:9431   */\n      dup3\n        /* \"#utility.yul\":9385:9448   */\n      tag_225\n      jump\t// in\n    tag_362:\n        /* \"#utility.yul\":9289:9458   */\n      pop\n        /* \"#utility.yul\":9475:9479   */\n      dup1\n        /* \"#utility.yul\":9468:9479   */\n      swap2\n      pop\n        /* \"#utility.yul\":8819:9485   */\n      pop\n        /* \"#utility.yul\":8697:9485   */\n      swap3\n      swap2\n      pop\n      pop\n      jump\t// out\n        /* \"#utility.yul\":9491:9860   */\n    tag_40:\n        /* \"#utility.yul\":9632:9636   */\n      0x00\n        /* \"#utility.yul\":9670:9672   */\n      0x20\n        /* \"#utility.yul\":9659:9668   */\n      dup3\n        /* \"#utility.yul\":9655:9673   */\n      add\n        /* \"#utility.yul\":9647:9673   */\n      swap1\n      pop\n        /* \"#utility.yul\":9719:9728   */\n      dup2\n        /* \"#utility.yul\":9713:9717   */\n      dup2\n        /* \"#utility.yul\":9709:9729   */\n      sub\n        /* \"#utility.yul\":9705:9706   */\n      0x00\n        /* \"#utility.yul\":9694:9703   */\n      dup4\n        /* \"#utility.yul\":9690:9707   */\n      add\n        /* \"#utility.yul\":9683:9730   */\n      mstore\n        /* \"#utility.yul\":9747:9853   */\n      tag_364\n        /* \"#utility.yul\":9848:9852   */\n      dup2\n        /* \"#utility.yul\":9839:9845   */\n      dup5\n        /* \"#utility.yul\":9747:9853   */\n      tag_238\n      jump\t// in\n    tag_364:\n        /* \"#utility.yul\":9739:9853   */\n      swap1\n      pop\n        /* \"#utility.yul\":9491:9860   */\n      swap3\n      swap2\n      pop\n      pop\n      jump\t// out\n        /* \"#utility.yul\":9866:9988   */\n    tag_239:\n        /* \"#utility.yul\":9939:9963   */\n      tag_366\n        /* \"#utility.yul\":9957:9962   */\n      dup2\n        /* \"#utility.yul\":9939:9963   */\n      tag_236\n      jump\t// in\n    tag_366:\n        /* \"#utility.yul\":9932:9937   */\n      dup2\n        /* \"#utility.yul\":9929:9964   */\n      eq\n        /* \"#utility.yul\":9919:9982   */\n      tag_367\n      jumpi\n        /* \"#utility.yul\":9978:9979   */\n      0x00\n        /* \"#utility.yul\":9975:9976   */\n      dup1\n        /* \"#utility.yul\":9968:9980   */\n      revert\n        /* \"#utility.yul\":9919:9982   */\n    tag_367:\n        /* \"#utility.yul\":9866:9988   */\n      pop\n      jump\t// out\n        /* \"#utility.yul\":9994:10133   */\n    tag_240:\n        /* \"#utility.yul\":10040:10045   */\n      0x00\n        /* \"#utility.yul\":10078:10084   */\n      dup2\n        /* \"#utility.yul\":10065:10085   */\n      calldataload\n        /* \"#utility.yul\":10056:10085   */\n      swap1\n      pop\n        /* \"#utility.yul\":10094:10127   */\n      tag_369\n        /* \"#utility.yul\":10121:10126   */\n      dup2\n        /* \"#utility.yul\":10094:10127   */\n      tag_239\n      jump\t// in\n    tag_369:\n        /* \"#utility.yul\":9994:10133   */\n      swap3\n      swap2\n      pop\n      pop\n      jump\t// out\n        /* \"#utility.yul\":10139:10468   */\n    tag_45:\n        /* \"#utility.yul\":10198:10204   */\n      0x00\n        /* \"#utility.yul\":10247:10249   */\n      0x20\n        /* \"#utility.yul\":10235:10244   */\n      dup3\n        /* \"#utility.yul\":10226:10233   */\n      dup5\n        /* \"#utility.yul\":10222:10245   */\n      sub\n        /* \"#utility.yul\":10218:10250   */\n      slt\n        /* \"#utility.yul\":10215:10334   */\n      iszero\n      tag_371\n      jumpi\n        /* \"#utility.yul\":10253:10332   */\n      tag_372\n      tag_209\n      jump\t// in\n    tag_372:\n        /* \"#utility.yul\":10215:10334   */\n    tag_371:\n        /* \"#utility.yul\":10373:10374   */\n      0x00\n        /* \"#utility.yul\":10398:10451   */\n      tag_373\n        /* \"#utility.yul\":10443:10450   */\n      dup5\n        /* \"#utility.yul\":10434:10440   */\n      dup3\n        /* \"#utility.yul\":10423:10432   */\n      dup6\n        /* \"#utility.yul\":10419:10441   */\n      add\n        /* \"#utility.yul\":10398:10451   */\n      tag_240\n      jump\t// in\n    tag_373:\n        /* \"#utility.yul\":10388:10451   */\n      swap2\n      pop\n        /* \"#utility.yul\":10344:10461   */\n      pop\n        /* \"#utility.yul\":10139:10468   */\n      swap3\n      swap2\n      pop\n      pop\n      jump\t// out\n        /* \"#utility.yul\":10474:10643   */\n    tag_241:\n        /* \"#utility.yul\":10558:10569   */\n      0x00\n        /* \"#utility.yul\":10592:10598   */\n      dup3\n        /* \"#utility.yul\":10587:10590   */\n      dup3\n        /* \"#utility.yul\":10580:10599   */\n      mstore\n        /* \"#utility.yul\":10632:10636   */\n      0x20\n        /* \"#utility.yul\":10627:10630   */\n      dup3\n        /* \"#utility.yul\":10623:10637   */\n      add\n        /* \"#utility.yul\":10608:10637   */\n      swap1\n      pop\n        /* \"#utility.yul\":10474:10643   */\n      swap3\n      swap2\n      pop\n      pop\n      jump\t// out\n        /* \"#utility.yul\":10649:10825   */\n    tag_242:\n        /* \"#utility.yul\":10789:10817   */\n      0x596f7520617265206e6f7420612076616c696420766f74657221000000000000\n        /* \"#utility.yul\":10785:10786   */\n      0x00\n        /* \"#utility.yul\":10777:10783   */\n      dup3\n        /* \"#utility.yul\":10773:10787   */\n      add\n        /* \"#utility.yul\":10766:10818   */\n      mstore\n        /* \"#utility.yul\":10649:10825   */\n      pop\n      jump\t// out\n        /* \"#utility.yul\":10831:11197   */\n    tag_243:\n        /* \"#utility.yul\":10973:10976   */\n      0x00\n        /* \"#utility.yul\":10994:11061   */\n      tag_377\n        /* \"#utility.yul\":11058:11060   */\n      0x1a\n        /* \"#utility.yul\":11053:11056   */\n      dup4\n        /* \"#utility.yul\":10994:11061   */\n      tag_241\n      jump\t// in\n    tag_377:\n        /* \"#utility.yul\":10987:11061   */\n      swap2\n      pop\n        /* \"#utility.yul\":11070:11163   */\n      tag_378\n        /* \"#utility.yul\":11159:11162   */\n      dup3\n        /* \"#utility.yul\":11070:11163   */\n      tag_242\n      jump\t// in\n    tag_378:\n        /* \"#utility.yul\":11188:11190   */\n      0x20\n        /* \"#utility.yul\":11183:11186   */\n      dup3\n        /* \"#utility.yul\":11179:11191   */\n      add\n        /* \"#utility.yul\":11172:11191   */\n      swap1\n      pop\n        /* \"#utility.yul\":10831:11197   */\n      swap2\n      swap1\n      pop\n      jump\t// out\n        /* \"#utility.yul\":11203:11622   */\n    tag_55:\n        /* \"#utility.yul\":11369:11373   */\n      0x00\n        /* \"#utility.yul\":11407:11409   */\n      0x20\n        /* \"#utility.yul\":11396:11405   */\n      dup3\n        /* \"#utility.yul\":11392:11410   */\n      add\n        /* \"#utility.yul\":11384:11410   */\n      swap1\n      pop\n        /* \"#utility.yul\":11456:11465   */\n      dup2\n        /* \"#utility.yul\":11450:11454   */\n      dup2\n        /* \"#utility.yul\":11446:11466   */\n      sub\n        /* \"#utility.yul\":11442:11443   */\n      0x00\n        /* \"#utility.yul\":11431:11440   */\n      dup4\n        /* \"#utility.yul\":11427:11444   */\n      add\n        /* \"#utility.yul\":11420:11467   */\n      mstore\n        /* \"#utility.yul\":11484:11615   */\n      tag_380\n        /* \"#utility.yul\":11610:11614   */\n      dup2\n        /* \"#utility.yul\":11484:11615   */\n      tag_243\n      jump\t// in\n    tag_380:\n        /* \"#utility.yul\":11476:11615   */\n      swap1\n      pop\n        /* \"#utility.yul\":11203:11622   */\n      swap2\n      swap1\n      pop\n      jump\t// out\n        /* \"#utility.yul\":11628:11804   */\n    tag_244:\n        /* \"#utility.yul\":11768:11796   */\n      0x596f752063616e6e6f7420766f74652070726f706f73616c732e000000000000\n        /* \"#utility.yul\":11764:11765   */\n      0x00\n        /* \"#utility.yul\":11756:11762   */\n      dup3\n        /* \"#utility.yul\":11752:11766   */\n      add\n        /* \"#utility.yul\":11745:11797   */\n      mstore\n        /* \"#utility.yul\":11628:11804   */\n      pop\n      jump\t// out\n        /* \"#utility.yul\":11810:12176   */\n    tag_245:\n        /* \"#utility.yul\":11952:11955   */\n      0x00\n        /* \"#utility.yul\":11973:12040   */\n      tag_383\n        /* \"#utility.yul\":12037:12039   */\n      0x1a\n        /* \"#utility.yul\":12032:12035   */\n      dup4\n        /* \"#utility.yul\":11973:12040   */\n      tag_241\n      jump\t// in\n    tag_383:\n        /* \"#utility.yul\":11966:12040   */\n      swap2\n      pop\n        /* \"#utility.yul\":12049:12142   */\n      tag_384\n        /* \"#utility.yul\":12138:12141   */\n      dup3\n        /* \"#utility.yul\":12049:12142   */\n      tag_244\n      jump\t// in\n    tag_384:\n        /* \"#utility.yul\":12167:12169   */\n      0x20\n        /* \"#utility.yul\":12162:12165   */\n      dup3\n        /* \"#utility.yul\":12158:12170   */\n      add\n        /* \"#utility.yul\":12151:12170   */\n      swap1\n      pop\n        /* \"#utility.yul\":11810:12176   */\n      swap2\n      swap1\n      pop\n      jump\t// out\n        /* \"#utility.yul\":12182:12601   */\n    tag_64:\n        /* \"#utility.yul\":12348:12352   */\n      0x00\n        /* \"#utility.yul\":12386:12388   */\n      0x20\n        /* \"#utility.yul\":12375:12384   */\n      dup3\n        /* \"#utility.yul\":12371:12389   */\n      add\n        /* \"#utility.yul\":12363:12389   */\n      swap1\n      pop\n        /* \"#utility.yul\":12435:12444   */\n      dup2\n        /* \"#utility.yul\":12429:12433   */\n      dup2\n        /* \"#utility.yul\":12425:12445   */\n      sub\n        /* \"#utility.yul\":12421:12422   */\n      0x00\n        /* \"#utility.yul\":12410:12419   */\n      dup4\n        /* \"#utility.yul\":12406:12423   */\n      add\n        /* \"#utility.yul\":12399:12446   */\n      mstore\n        /* \"#utility.yul\":12463:12594   */\n      tag_386\n        /* \"#utility.yul\":12589:12593   */\n      dup2\n        /* \"#utility.yul\":12463:12594   */\n      tag_245\n      jump\t// in\n    tag_386:\n        /* \"#utility.yul\":12455:12594   */\n      swap1\n      pop\n        /* \"#utility.yul\":12182:12601   */\n      swap2\n      swap1\n      pop\n      jump\t// out\n        /* \"#utility.yul\":12607:12775   */\n    tag_246:\n        /* \"#utility.yul\":12747:12767   */\n      0x596f7520616c726561647920766f746564210000000000000000000000000000\n        /* \"#utility.yul\":12743:12744   */\n      0x00\n        /* \"#utility.yul\":12735:12741   */\n      dup3\n        /* \"#utility.yul\":12731:12745   */\n      add\n        /* \"#utility.yul\":12724:12768   */\n      mstore\n        /* \"#utility.yul\":12607:12775   */\n      pop\n      jump\t// out\n        /* \"#utility.yul\":12781:13147   */\n    tag_247:\n        /* \"#utility.yul\":12923:12926   */\n      0x00\n        /* \"#utility.yul\":12944:13011   */\n      tag_389\n        /* \"#utility.yul\":13008:13010   */\n      0x12\n        /* \"#utility.yul\":13003:13006   */\n      dup4\n        /* \"#utility.yul\":12944:13011   */\n      tag_241\n      jump\t// in\n    tag_389:\n        /* \"#utility.yul\":12937:13011   */\n      swap2\n      pop\n        /* \"#utility.yul\":13020:13113   */\n      tag_390\n        /* \"#utility.yul\":13109:13112   */\n      dup3\n        /* \"#utility.yul\":13020:13113   */\n      tag_246\n      jump\t// in\n    tag_390:\n        /* \"#utility.yul\":13138:13140   */\n      0x20\n        /* \"#utility.yul\":13133:13136   */\n      dup3\n        /* \"#utility.yul\":13129:13141   */\n      add\n        /* \"#utility.yul\":13122:13141   */\n      swap1\n      pop\n        /* \"#utility.yul\":12781:13147   */\n      swap2\n      swap1\n      pop\n      jump\t// out\n        /* \"#utility.yul\":13153:13572   */\n    tag_68:\n        /* \"#utility.yul\":13319:13323   */\n      0x00\n        /* \"#utility.yul\":13357:13359   */\n      0x20\n        /* \"#utility.yul\":13346:13355   */\n      dup3\n        /* \"#utility.yul\":13342:13360   */\n      add\n        /* \"#utility.yul\":13334:13360   */\n      swap1\n      pop\n        /* \"#utility.yul\":13406:13415   */\n      dup2\n        /* \"#utility.yul\":13400:13404   */\n      dup2\n        /* \"#utility.yul\":13396:13416   */\n      sub\n        /* \"#utility.yul\":13392:13393   */\n      0x00\n        /* \"#utility.yul\":13381:13390   */\n      dup4\n        /* \"#utility.yul\":13377:13394   */\n      add\n        /* \"#utility.yul\":13370:13417   */\n      mstore\n        /* \"#utility.yul\":13434:13565   */\n      tag_392\n        /* \"#utility.yul\":13560:13564   */\n      dup2\n        /* \"#utility.yul\":13434:13565   */\n      tag_247\n      jump\t// in\n    tag_392:\n        /* \"#utility.yul\":13426:13565   */\n      swap1\n      pop\n        /* \"#utility.yul\":13153:13572   */\n      swap2\n      swap1\n      pop\n      jump\t// out\n        /* \"#utility.yul\":13578:13758   */\n    tag_72:\n        /* \"#utility.yul\":13626:13703   */\n      0x4e487b7100000000000000000000000000000000000000000000000000000000\n        /* \"#utility.yul\":13623:13624   */\n      0x00\n        /* \"#utility.yul\":13616:13704   */\n      mstore\n        /* \"#utility.yul\":13723:13727   */\n      0x32\n        /* \"#utility.yul\":13720:13721   */\n      0x04\n        /* \"#utility.yul\":13713:13728   */\n      mstore\n        /* \"#utility.yul\":13747:13751   */\n      0x24\n        /* \"#utility.yul\":13744:13745   */\n      0x00\n        /* \"#utility.yul\":13737:13752   */\n      revert\n        /* \"#utility.yul\":13764:13944   */\n    tag_248:\n        /* \"#utility.yul\":13812:13889   */\n      0x4e487b7100000000000000000000000000000000000000000000000000000000\n        /* \"#utility.yul\":13809:13810   */\n      0x00\n        /* \"#utility.yul\":13802:13890   */\n      mstore\n        /* \"#utility.yul\":13909:13913   */\n      0x11\n        /* \"#utility.yul\":13906:13907   */\n      0x04\n        /* \"#utility.yul\":13899:13914   */\n      mstore\n        /* \"#utility.yul\":13933:13937   */\n      0x24\n        /* \"#utility.yul\":13930:13931   */\n      0x00\n        /* \"#utility.yul\":13923:13938   */\n      revert\n        /* \"#utility.yul\":13950:14183   */\n    tag_75:\n        /* \"#utility.yul\":13989:13992   */\n      0x00\n        /* \"#utility.yul\":14012:14036   */\n      tag_396\n        /* \"#utility.yul\":14030:14035   */\n      dup3\n        /* \"#utility.yul\":14012:14036   */\n      tag_211\n      jump\t// in\n    tag_396:\n        /* \"#utility.yul\":14003:14036   */\n      swap2\n      pop\n        /* \"#utility.yul\":14058:14124   */\n      0xffffffffffffffffffffffffffffffffffffffffffffffffffffffffffffffff\n        /* \"#utility.yul\":14051:14056   */\n      dup3\n        /* \"#utility.yul\":14048:14125   */\n      sub\n        /* \"#utility.yul\":14045:14148   */\n      tag_397\n      jumpi\n        /* \"#utility.yul\":14128:14146   */\n      tag_398\n      tag_248\n      jump\t// in\n    tag_398:\n        /* \"#utility.yul\":14045:14148   */\n    tag_397:\n        /* \"#utility.yul\":14175:14176   */\n      0x01\n        /* \"#utility.yul\":14168:14173   */\n      dup3\n        /* \"#utility.yul\":14164:14177   */\n      add\n        /* \"#utility.yul\":14157:14177   */\n      swap1\n      pop\n        /* \"#utility.yul\":13950:14183   */\n      swap2\n      swap1\n      pop\n      jump\t// out\n        /* \"#utility.yul\":14189:14307   */\n    tag_249:\n        /* \"#utility.yul\":14276:14300   */\n      tag_400\n        /* \"#utility.yul\":14294:14299   */\n      dup2\n        /* \"#utility.yul\":14276:14300   */\n      tag_211\n      jump\t// in\n    tag_400:\n        /* \"#utility.yul\":14271:14274   */\n      dup3\n        /* \"#utility.yul\":14264:14301   */\n      mstore\n        /* \"#utility.yul\":14189:14307   */\n      pop\n      pop\n      jump\t// out\n        /* \"#utility.yul\":14313:14645   */\n    tag_80:\n        /* \"#utility.yul\":14434:14438   */\n      0x00\n        /* \"#utility.yul\":14472:14474   */\n      0x40\n        /* \"#utility.yul\":14461:14470   */\n      dup3\n        /* \"#utility.yul\":14457:14475   */\n      add\n        /* \"#utility.yul\":14449:14475   */\n      swap1\n      pop\n        /* \"#utility.yul\":14485:14556   */\n      tag_402\n        /* \"#utility.yul\":14553:14554   */\n      0x00\n        /* \"#utility.yul\":14542:14551   */\n      dup4\n        /* \"#utility.yul\":14538:14555   */\n      add\n        /* \"#utility.yul\":14529:14535   */\n      dup6\n        /* \"#utility.yul\":14485:14556   */\n      tag_237\n      jump\t// in\n    tag_402:\n        /* \"#utility.yul\":14566:14638   */\n      tag_403\n        /* \"#utility.yul\":14634:14636   */\n      0x20\n        /* \"#utility.yul\":14623:14632   */\n      dup4\n        /* \"#utility.yul\":14619:14637   */\n      add\n        /* \"#utility.yul\":14610:14616   */\n      dup5\n        /* \"#utility.yul\":14566:14638   */\n      tag_249\n      jump\t// in\n    tag_403:\n        /* \"#utility.yul\":14313:14645   */\n      swap4\n      swap3\n      pop\n      pop\n      pop\n      jump\t// out\n        /* \"#utility.yul\":14651:14831   */\n    tag_250:\n        /* \"#utility.yul\":14791:14823   */\n      0x596f752063616e6e6f742072656769737465722070726f706f73616c732e0000\n        /* \"#utility.yul\":14787:14788   */\n      0x00\n        /* \"#utility.yul\":14779:14785   */\n      dup3\n        /* \"#utility.yul\":14775:14789   */\n      add\n        /* \"#utility.yul\":14768:14824   */\n      mstore\n        /* \"#utility.yul\":14651:14831   */\n      pop\n      jump\t// out\n        /* \"#utility.yul\":14837:15203   */\n    tag_251:\n        /* \"#utility.yul\":14979:14982   */\n      0x00\n        /* \"#utility.yul\":15000:15067   */\n      tag_406\n        /* \"#utility.yul\":15064:15066   */\n      0x1e\n        /* \"#utility.yul\":15059:15062   */\n      dup4\n        /* \"#utility.yul\":15000:15067   */\n      tag_241\n      jump\t// in\n    tag_406:\n        /* \"#utility.yul\":14993:15067   */\n      swap2\n      pop\n        /* \"#utility.yul\":15076:15169   */\n      tag_407\n        /* \"#utility.yul\":15165:15168   */\n      dup3\n        /* \"#utility.yul\":15076:15169   */\n      tag_250\n      jump\t// in\n    tag_407:\n        /* \"#utility.yul\":15194:15196   */\n      0x20\n        /* \"#utility.yul\":15189:15192   */\n      dup3\n        /* \"#utility.yul\":15185:15197   */\n      add\n        /* \"#utility.yul\":15178:15197   */\n      swap1\n      pop\n        /* \"#utility.yul\":14837:15203   */\n      swap2\n      swap1\n      pop\n      jump\t// out\n        /* \"#utility.yul\":15209:15628   */\n    tag_92:\n        /* \"#utility.yul\":15375:15379   */\n      0x00\n        /* \"#utility.yul\":15413:15415   */\n      0x20\n        /* \"#utility.yul\":15402:15411   */\n      dup3\n        /* \"#utility.yul\":15398:15416   */\n      add\n        /* \"#utility.yul\":15390:15416   */\n      swap1\n      pop\n        /* \"#utility.yul\":15462:15471   */\n      dup2\n        /* \"#utility.yul\":15456:15460   */\n      dup2\n        /* \"#utility.yul\":15452:15472   */\n      sub\n        /* \"#utility.yul\":15448:15449   */\n      0x00\n        /* \"#utility.yul\":15437:15446   */\n      dup4\n        /* \"#utility.yul\":15433:15450   */\n      add\n        /* \"#utility.yul\":15426:15473   */\n      mstore\n        /* \"#utility.yul\":15490:15621   */\n      tag_409\n        /* \"#utility.yul\":15616:15620   */\n      dup2\n        /* \"#utility.yul\":15490:15621   */\n      tag_251\n      jump\t// in\n    tag_409:\n        /* \"#utility.yul\":15482:15621   */\n      swap1\n      pop\n        /* \"#utility.yul\":15209:15628   */\n      swap2\n      swap1\n      pop\n      jump\t// out\n        /* \"#utility.yul\":15634:15814   */\n    tag_252:\n        /* \"#utility.yul\":15682:15759   */\n      0x4e487b7100000000000000000000000000000000000000000000000000000000\n        /* \"#utility.yul\":15679:15680   */\n      0x00\n        /* \"#utility.yul\":15672:15760   */\n      mstore\n        /* \"#utility.yul\":15779:15783   */\n      0x41\n        /* \"#utility.yul\":15776:15777   */\n      0x04\n        /* \"#utility.yul\":15769:15784   */\n      mstore\n        /* \"#utility.yul\":15803:15807   */\n      0x24\n        /* \"#utility.yul\":15800:15801   */\n      0x00\n        /* \"#utility.yul\":15793:15808   */\n      revert\n        /* \"#utility.yul\":15820:16000   */\n    tag_253:\n        /* \"#utility.yul\":15868:15945   */\n      0x4e487b7100000000000000000000000000000000000000000000000000000000\n        /* \"#utility.yul\":15865:15866   */\n      0x00\n        /* \"#utility.yul\":15858:15946   */\n      mstore\n        /* \"#utility.yul\":15965:15969   */\n      0x22\n        /* \"#utility.yul\":15962:15963   */\n      0x04\n        /* \"#utility.yul\":15955:15970   */\n      mstore\n        /* \"#utility.yul\":15989:15993   */\n      0x24\n        /* \"#utility.yul\":15986:15987   */\n      0x00\n        /* \"#utility.yul\":15979:15994   */\n      revert\n        /* \"#utility.yul\":16006:16326   */\n    tag_105:\n        /* \"#utility.yul\":16050:16056   */\n      0x00\n        /* \"#utility.yul\":16087:16088   */\n      0x02\n        /* \"#utility.yul\":16081:16085   */\n      dup3\n        /* \"#utility.yul\":16077:16089   */\n      div\n        /* \"#utility.yul\":16067:16089   */\n      swap1\n      pop\n        /* \"#utility.yul\":16134:16135   */\n      0x01\n        /* \"#utility.yul\":16128:16132   */\n      dup3\n        /* \"#utility.yul\":16124:16136   */\n      and\n        /* \"#utility.yul\":16155:16173   */\n      dup1\n        /* \"#utility.yul\":16145:16226   */\n      tag_413\n      jumpi\n        /* \"#utility.yul\":16211:16215   */\n      0x7f\n        /* \"#utility.yul\":16203:16209   */\n      dup3\n        /* \"#utility.yul\":16199:16216   */\n      and\n        /* \"#utility.yul\":16189:16216   */\n      swap2\n      pop\n        /* \"#utility.yul\":16145:16226   */\n    tag_413:\n        /* \"#utility.yul\":16273:16275   */\n      0x20\n        /* \"#utility.yul\":16265:16271   */\n      dup3\n        /* \"#utility.yul\":16262:16276   */\n      lt\n        /* \"#utility.yul\":16242:16260   */\n      dup2\n        /* \"#utility.yul\":16239:16277   */\n      sub\n        /* \"#utility.yul\":16236:16320   */\n      tag_414\n      jumpi\n        /* \"#utility.yul\":16292:16310   */\n      tag_415\n      tag_253\n      jump\t// in\n    tag_415:\n        /* \"#utility.yul\":16236:16320   */\n    tag_414:\n        /* \"#utility.yul\":16057:16326   */\n      pop\n        /* \"#utility.yul\":16006:16326   */\n      swap2\n      swap1\n      pop\n      jump\t// out\n        /* \"#utility.yul\":16332:16473   */\n    tag_254:\n        /* \"#utility.yul\":16381:16385   */\n      0x00\n        /* \"#utility.yul\":16404:16407   */\n      dup2\n        /* \"#utility.yul\":16396:16407   */\n      swap1\n      pop\n        /* \"#utility.yul\":16427:16430   */\n      dup2\n        /* \"#utility.yul\":16424:16425   */\n      0x00\n        /* \"#utility.yul\":16417:16431   */\n      mstore\n        /* \"#utility.yul\":16461:16465   */\n      0x20\n        /* \"#utility.yul\":16458:16459   */\n      0x00\n        /* \"#utility.yul\":16448:16466   */\n      keccak256\n        /* \"#utility.yul\":16440:16466   */\n      swap1\n      pop\n        /* \"#utility.yul\":16332:16473   */\n      swap2\n      swap1\n      pop\n      jump\t// out\n        /* \"#utility.yul\":16479:16572   */\n    tag_255:\n        /* \"#utility.yul\":16516:16522   */\n      0x00\n        /* \"#utility.yul\":16563:16565   */\n      0x20\n        /* \"#utility.yul\":16558:16560   */\n      0x1f\n        /* \"#utility.yul\":16551:16556   */\n      dup4\n        /* \"#utility.yul\":16547:16561   */\n      add\n        /* \"#utility.yul\":16543:16566   */\n      div\n        /* \"#utility.yul\":16533:16566   */\n      swap1\n      pop\n        /* \"#utility.yul\":16479:16572   */\n      swap2\n      swap1\n      pop\n      jump\t// out\n        /* \"#utility.yul\":16578:16685   */\n    tag_256:\n        /* \"#utility.yul\":16622:16630   */\n      0x00\n        /* \"#utility.yul\":16672:16677   */\n      dup3\n        /* \"#utility.yul\":16666:16670   */\n      dup3\n        /* \"#utility.yul\":16662:16678   */\n      shl\n        /* \"#utility.yul\":16641:16678   */\n      swap1\n      pop\n        /* \"#utility.yul\":16578:16685   */\n      swap3\n      swap2\n      pop\n      pop\n      jump\t// out\n        /* \"#utility.yul\":16691:17084   */\n    tag_257:\n        /* \"#utility.yul\":16760:16766   */\n      0x00\n        /* \"#utility.yul\":16810:16811   */\n      0x08\n        /* \"#utility.yul\":16798:16808   */\n      dup4\n        /* \"#utility.yul\":16794:16812   */\n      mul\n        /* \"#utility.yul\":16833:16930   */\n      tag_420\n        /* \"#utility.yul\":16863:16929   */\n      0xffffffffffffffffffffffffffffffffffffffffffffffffffffffffffffffff\n        /* \"#utility.yul\":16852:16861   */\n      dup3\n        /* \"#utility.yul\":16833:16930   */\n      tag_256\n      jump\t// in\n    tag_420:\n        /* \"#utility.yul\":16951:16990   */\n      tag_421\n        /* \"#utility.yul\":16981:16989   */\n      dup7\n        /* \"#utility.yul\":16970:16979   */\n      dup4\n        /* \"#utility.yul\":16951:16990   */\n      tag_256\n      jump\t// in\n    tag_421:\n        /* \"#utility.yul\":16939:16990   */\n      swap6\n      pop\n        /* \"#utility.yul\":17023:17027   */\n      dup1\n        /* \"#utility.yul\":17019:17028   */\n      not\n        /* \"#utility.yul\":17012:17017   */\n      dup5\n        /* \"#utility.yul\":17008:17029   */\n      and\n        /* \"#utility.yul\":16999:17029   */\n      swap4\n      pop\n        /* \"#utility.yul\":17072:17076   */\n      dup1\n        /* \"#utility.yul\":17062:17070   */\n      dup7\n        /* \"#utility.yul\":17058:17077   */\n      and\n        /* \"#utility.yul\":17051:17056   */\n      dup5\n        /* \"#utility.yul\":17048:17078   */\n      or\n        /* \"#utility.yul\":17038:17078   */\n      swap3\n      pop\n        /* \"#utility.yul\":16767:17084   */\n      pop\n      pop\n        /* \"#utility.yul\":16691:17084   */\n      swap4\n      swap3\n      pop\n      pop\n      pop\n      jump\t// out\n        /* \"#utility.yul\":17090:17150   */\n    tag_258:\n        /* \"#utility.yul\":17118:17121   */\n      0x00\n        /* \"#utility.yul\":17139:17144   */\n      dup2\n        /* \"#utility.yul\":17132:17144   */\n      swap1\n      pop\n        /* \"#utility.yul\":17090:17150   */\n      swap2\n      swap1\n      pop\n      jump\t// out\n        /* \"#utility.yul\":17156:17298   */\n    tag_259:\n        /* \"#utility.yul\":17206:17215   */\n      0x00\n        /* \"#utility.yul\":17239:17292   */\n      tag_424\n        /* \"#utility.yul\":17257:17291   */\n      tag_425\n        /* \"#utility.yul\":17266:17290   */\n      tag_426\n        /* \"#utility.yul\":17284:17289   */\n      dup5\n        /* \"#utility.yul\":17266:17290   */\n      tag_211\n      jump\t// in\n    tag_426:\n        /* \"#utility.yul\":17257:17291   */\n      tag_258\n      jump\t// in\n    tag_425:\n        /* \"#utility.yul\":17239:17292   */\n      tag_211\n      jump\t// in\n    tag_424:\n        /* \"#utility.yul\":17226:17292   */\n      swap1\n      pop\n        /* \"#utility.yul\":17156:17298   */\n      swap2\n      swap1\n      pop\n      jump\t// out\n        /* \"#utility.yul\":17304:17379   */\n    tag_260:\n        /* \"#utility.yul\":17347:17350   */\n      0x00\n        /* \"#utility.yul\":17368:17373   */\n      dup2\n        /* \"#utility.yul\":17361:17373   */\n      swap1\n      pop\n        /* \"#utility.yul\":17304:17379   */\n      swap2\n      swap1\n      pop\n      jump\t// out\n        /* \"#utility.yul\":17385:17654   */\n    tag_261:\n        /* \"#utility.yul\":17495:17534   */\n      tag_429\n        /* \"#utility.yul\":17526:17533   */\n      dup4\n        /* \"#utility.yul\":17495:17534   */\n      tag_259\n      jump\t// in\n    tag_429:\n        /* \"#utility.yul\":17556:17647   */\n      tag_430\n        /* \"#utility.yul\":17605:17646   */\n      tag_431\n        /* \"#utility.yul\":17629:17645   */\n      dup3\n        /* \"#utility.yul\":17605:17646   */\n      tag_260\n      jump\t// in\n    tag_431:\n        /* \"#utility.yul\":17597:17603   */\n      dup5\n        /* \"#utility.yul\":17590:17594   */\n      dup5\n        /* \"#utility.yul\":17584:17595   */\n      sload\n        /* \"#utility.yul\":17556:17647   */\n      tag_257\n      jump\t// in\n    tag_430:\n        /* \"#utility.yul\":17550:17554   */\n      dup3\n        /* \"#utility.yul\":17543:17648   */\n      sstore\n        /* \"#utility.yul\":17461:17654   */\n      pop\n        /* \"#utility.yul\":17385:17654   */\n      pop\n      pop\n      pop\n      jump\t// out\n        /* \"#utility.yul\":17660:17733   */\n    tag_262:\n        /* \"#utility.yul\":17705:17708   */\n      0x00\n        /* \"#utility.yul\":17660:17733   */\n      swap1\n      jump\t// out\n        /* \"#utility.yul\":17739:17928   */\n    tag_263:\n        /* \"#utility.yul\":17816:17848   */\n      tag_434\n      tag_262\n      jump\t// in\n    tag_434:\n        /* \"#utility.yul\":17857:17922   */\n      tag_435\n        /* \"#utility.yul\":17915:17921   */\n      dup2\n        /* \"#utility.yul\":17907:17913   */\n      dup5\n        /* \"#utility.yul\":17901:17905   */\n      dup5\n        /* \"#utility.yul\":17857:17922   */\n      tag_261\n      jump\t// in\n    tag_435:\n        /* \"#utility.yul\":17792:17928   */\n      pop\n        /* \"#utility.yul\":17739:17928   */\n      pop\n      pop\n      jump\t// out\n        /* \"#utility.yul\":17934:18120   */\n    tag_264:\n        /* \"#utility.yul\":17994:18114   */\n    tag_437:\n        /* \"#utility.yul\":18011:18014   */\n      dup2\n        /* \"#utility.yul\":18004:18009   */\n      dup2\n        /* \"#utility.yul\":18001:18015   */\n      lt\n        /* \"#utility.yul\":17994:18114   */\n      iszero\n      tag_439\n      jumpi\n        /* \"#utility.yul\":18065:18104   */\n      tag_440\n        /* \"#utility.yul\":18102:18103   */\n      0x00\n        /* \"#utility.yul\":18095:18100   */\n      dup3\n        /* \"#utility.yul\":18065:18104   */\n      tag_263\n      jump\t// in\n    tag_440:\n        /* \"#utility.yul\":18038:18039   */\n      0x01\n        /* \"#utility.yul\":18031:18036   */\n      dup2\n        /* \"#utility.yul\":18027:18040   */\n      add\n        /* \"#utility.yul\":18018:18040   */\n      swap1\n      pop\n        /* \"#utility.yul\":17994:18114   */\n      jump(tag_437)\n    tag_439:\n        /* \"#utility.yul\":17934:18120   */\n      pop\n      pop\n      jump\t// out\n        /* \"#utility.yul\":18126:18669   */\n    tag_265:\n        /* \"#utility.yul\":18227:18229   */\n      0x1f\n        /* \"#utility.yul\":18222:18225   */\n      dup3\n        /* \"#utility.yul\":18219:18230   */\n      gt\n        /* \"#utility.yul\":18216:18662   */\n      iszero\n      tag_442\n      jumpi\n        /* \"#utility.yul\":18261:18299   */\n      tag_443\n        /* \"#utility.yul\":18293:18298   */\n      dup2\n        /* \"#utility.yul\":18261:18299   */\n      tag_254\n      jump\t// in\n    tag_443:\n        /* \"#utility.yul\":18345:18374   */\n      tag_444\n        /* \"#utility.yul\":18363:18373   */\n      dup5\n        /* \"#utility.yul\":18345:18374   */\n      tag_255\n      jump\t// in\n    tag_444:\n        /* \"#utility.yul\":18335:18343   */\n      dup2\n        /* \"#utility.yul\":18331:18375   */\n      add\n        /* \"#utility.yul\":18528:18530   */\n      0x20\n        /* \"#utility.yul\":18516:18526   */\n      dup6\n        /* \"#utility.yul\":18513:18531   */\n      lt\n        /* \"#utility.yul\":18510:18559   */\n      iszero\n      tag_445\n      jumpi\n        /* \"#utility.yul\":18549:18557   */\n      dup2\n        /* \"#utility.yul\":18534:18557   */\n      swap1\n      pop\n        /* \"#utility.yul\":18510:18559   */\n    tag_445:\n        /* \"#utility.yul\":18572:18652   */\n      tag_446\n        /* \"#utility.yul\":18628:18650   */\n      tag_447\n        /* \"#utility.yul\":18646:18649   */\n      dup6\n        /* \"#utility.yul\":18628:18650   */\n      tag_255\n      jump\t// in\n    tag_447:\n        /* \"#utility.yul\":18618:18626   */\n      dup4\n        /* \"#utility.yul\":18614:18651   */\n      add\n        /* \"#utility.yul\":18601:18612   */\n      dup3\n        /* \"#utility.yul\":18572:18652   */\n      tag_264\n      jump\t// in\n    tag_446:\n        /* \"#utility.yul\":18231:18662   */\n      pop\n      pop\n        /* \"#utility.yul\":18216:18662   */\n    tag_442:\n        /* \"#utility.yul\":18126:18669   */\n      pop\n      pop\n      pop\n      jump\t// out\n        /* \"#utility.yul\":18675:18792   */\n    tag_266:\n        /* \"#utility.yul\":18729:18737   */\n      0x00\n        /* \"#utility.yul\":18779:18784   */\n      dup3\n        /* \"#utility.yul\":18773:18777   */\n      dup3\n        /* \"#utility.yul\":18769:18785   */\n      shr\n        /* \"#utility.yul\":18748:18785   */\n      swap1\n      pop\n        /* \"#utility.yul\":18675:18792   */\n      swap3\n      swap2\n      pop\n      pop\n      jump\t// out\n        /* \"#utility.yul\":18798:18967   */\n    tag_267:\n        /* \"#utility.yul\":18842:18848   */\n      0x00\n        /* \"#utility.yul\":18875:18926   */\n      tag_450\n        /* \"#utility.yul\":18923:18924   */\n      0x00\n        /* \"#utility.yul\":18919:18925   */\n      not\n        /* \"#utility.yul\":18911:18916   */\n      dup5\n        /* \"#utility.yul\":18908:18909   */\n      0x08\n        /* \"#utility.yul\":18904:18917   */\n      mul\n        /* \"#utility.yul\":18875:18926   */\n      tag_266\n      jump\t// in\n    tag_450:\n        /* \"#utility.yul\":18871:18927   */\n      not\n        /* \"#utility.yul\":18956:18960   */\n      dup1\n        /* \"#utility.yul\":18950:18954   */\n      dup4\n        /* \"#utility.yul\":18946:18961   */\n      and\n        /* \"#utility.yul\":18936:18961   */\n      swap2\n      pop\n        /* \"#utility.yul\":18849:18967   */\n      pop\n        /* \"#utility.yul\":18798:18967   */\n      swap3\n      swap2\n      pop\n      pop\n      jump\t// out\n        /* \"#utility.yul\":18972:19267   */\n    tag_268:\n        /* \"#utility.yul\":19048:19052   */\n      0x00\n        /* \"#utility.yul\":19194:19223   */\n      tag_452\n        /* \"#utility.yul\":19219:19222   */\n      dup4\n        /* \"#utility.yul\":19213:19217   */\n      dup4\n        /* \"#utility.yul\":19194:19223   */\n      tag_267\n      jump\t// in\n    tag_452:\n        /* \"#utility.yul\":19186:19223   */\n      swap2\n      pop\n        /* \"#utility.yul\":19256:19259   */\n      dup3\n        /* \"#utility.yul\":19253:19254   */\n      0x02\n        /* \"#utility.yul\":19249:19260   */\n      mul\n        /* \"#utility.yul\":19243:19247   */\n      dup3\n        /* \"#utility.yul\":19240:19261   */\n      or\n        /* \"#utility.yul\":19232:19261   */\n      swap1\n      pop\n        /* \"#utility.yul\":18972:19267   */\n      swap3\n      swap2\n      pop\n      pop\n      jump\t// out\n        /* \"#utility.yul\":19272:20667   */\n    tag_96:\n        /* \"#utility.yul\":19389:19426   */\n      tag_454\n        /* \"#utility.yul\":19422:19425   */\n      dup3\n        /* \"#utility.yul\":19389:19426   */\n      tag_226\n      jump\t// in\n    tag_454:\n        /* \"#utility.yul\":19491:19509   */\n      0xffffffffffffffff\n        /* \"#utility.yul\":19483:19489   */\n      dup2\n        /* \"#utility.yul\":19480:19510   */\n      gt\n        /* \"#utility.yul\":19477:19533   */\n      iszero\n      tag_455\n      jumpi\n        /* \"#utility.yul\":19513:19531   */\n      tag_456\n      tag_252\n      jump\t// in\n    tag_456:\n        /* \"#utility.yul\":19477:19533   */\n    tag_455:\n        /* \"#utility.yul\":19557:19595   */\n      tag_457\n        /* \"#utility.yul\":19589:19593   */\n      dup3\n        /* \"#utility.yul\":19583:19594   */\n      sload\n        /* \"#utility.yul\":19557:19595   */\n      tag_105\n      jump\t// in\n    tag_457:\n        /* \"#utility.yul\":19642:19709   */\n      tag_458\n        /* \"#utility.yul\":19702:19708   */\n      dup3\n        /* \"#utility.yul\":19694:19700   */\n      dup3\n        /* \"#utility.yul\":19688:19692   */\n      dup6\n        /* \"#utility.yul\":19642:19709   */\n      tag_265\n      jump\t// in\n    tag_458:\n        /* \"#utility.yul\":19736:19737   */\n      0x00\n        /* \"#utility.yul\":19760:19764   */\n      0x20\n        /* \"#utility.yul\":19747:19764   */\n      swap1\n      pop\n        /* \"#utility.yul\":19792:19794   */\n      0x1f\n        /* \"#utility.yul\":19784:19790   */\n      dup4\n        /* \"#utility.yul\":19781:19795   */\n      gt\n        /* \"#utility.yul\":19809:19810   */\n      0x01\n        /* \"#utility.yul\":19804:20422   */\n      dup2\n      eq\n      tag_460\n      jumpi\n        /* \"#utility.yul\":20466:20467   */\n      0x00\n        /* \"#utility.yul\":20483:20489   */\n      dup5\n        /* \"#utility.yul\":20480:20557   */\n      iszero\n      tag_461\n      jumpi\n        /* \"#utility.yul\":20532:20541   */\n      dup3\n        /* \"#utility.yul\":20527:20530   */\n      dup8\n        /* \"#utility.yul\":20523:20542   */\n      add\n        /* \"#utility.yul\":20517:20543   */\n      mload\n        /* \"#utility.yul\":20508:20543   */\n      swap1\n      pop\n        /* \"#utility.yul\":20480:20557   */\n    tag_461:\n        /* \"#utility.yul\":20583:20650   */\n      tag_462\n        /* \"#utility.yul\":20643:20649   */\n      dup6\n        /* \"#utility.yul\":20636:20641   */\n      dup3\n        /* \"#utility.yul\":20583:20650   */\n      tag_268\n      jump\t// in\n    tag_462:\n        /* \"#utility.yul\":20577:20581   */\n      dup7\n        /* \"#utility.yul\":20570:20651   */\n      sstore\n        /* \"#utility.yul\":20439:20661   */\n      pop\n        /* \"#utility.yul\":19774:20661   */\n      jump(tag_459)\n        /* \"#utility.yul\":19804:20422   */\n    tag_460:\n        /* \"#utility.yul\":19856:19860   */\n      0x1f\n        /* \"#utility.yul\":19852:19861   */\n      not\n        /* \"#utility.yul\":19844:19850   */\n      dup5\n        /* \"#utility.yul\":19840:19862   */\n      and\n        /* \"#utility.yul\":19890:19927   */\n      tag_463\n        /* \"#utility.yul\":19922:19926   */\n      dup7\n        /* \"#utility.yul\":19890:19927   */\n      tag_254\n      jump\t// in\n    tag_463:\n        /* \"#utility.yul\":19949:19950   */\n      0x00\n        /* \"#utility.yul\":19963:20171   */\n    tag_464:\n        /* \"#utility.yul\":19977:19984   */\n      dup3\n        /* \"#utility.yul\":19974:19975   */\n      dup2\n        /* \"#utility.yul\":19971:19985   */\n      lt\n        /* \"#utility.yul\":19963:20171   */\n      iszero\n      tag_466\n      jumpi\n        /* \"#utility.yul\":20056:20065   */\n      dup5\n        /* \"#utility.yul\":20051:20054   */\n      dup10\n        /* \"#utility.yul\":20047:20066   */\n      add\n        /* \"#utility.yul\":20041:20067   */\n      mload\n        /* \"#utility.yul\":20033:20039   */\n      dup3\n        /* \"#utility.yul\":20026:20068   */\n      sstore\n        /* \"#utility.yul\":20107:20108   */\n      0x01\n        /* \"#utility.yul\":20099:20105   */\n      dup3\n        /* \"#utility.yul\":20095:20109   */\n      add\n        /* \"#utility.yul\":20085:20109   */\n      swap2\n      pop\n        /* \"#utility.yul\":20154:20156   */\n      0x20\n        /* \"#utility.yul\":20143:20152   */\n      dup6\n        /* \"#utility.yul\":20139:20157   */\n      add\n        /* \"#utility.yul\":20126:20157   */\n      swap5\n      pop\n        /* \"#utility.yul\":20000:20004   */\n      0x20\n        /* \"#utility.yul\":19997:19998   */\n      dup2\n        /* \"#utility.yul\":19993:20005   */\n      add\n        /* \"#utility.yul\":19988:20005   */\n      swap1\n      pop\n        /* \"#utility.yul\":19963:20171   */\n      jump(tag_464)\n    tag_466:\n        /* \"#utility.yul\":20199:20205   */\n      dup7\n        /* \"#utility.yul\":20190:20197   */\n      dup4\n        /* \"#utility.yul\":20187:20206   */\n      lt\n        /* \"#utility.yul\":20184:20363   */\n      iszero\n      tag_467\n      jumpi\n        /* \"#utility.yul\":20257:20266   */\n      dup5\n        /* \"#utility.yul\":20252:20255   */\n      dup10\n        /* \"#utility.yul\":20248:20267   */\n      add\n        /* \"#utility.yul\":20242:20268   */\n      mload\n        /* \"#utility.yul\":20300:20348   */\n      tag_468\n        /* \"#utility.yul\":20342:20346   */\n      0x1f\n        /* \"#utility.yul\":20334:20340   */\n      dup10\n        /* \"#utility.yul\":20330:20347   */\n      and\n        /* \"#utility.yul\":20319:20328   */\n      dup3\n        /* \"#utility.yul\":20300:20348   */\n      tag_267\n      jump\t// in\n    tag_468:\n        /* \"#utility.yul\":20292:20298   */\n      dup4\n        /* \"#utility.yul\":20285:20349   */\n      sstore\n        /* \"#utility.yul\":20207:20363   */\n      pop\n        /* \"#utility.yul\":20184:20363   */\n    tag_467:\n        /* \"#utility.yul\":20409:20410   */\n      0x01\n        /* \"#utility.yul\":20405:20406   */\n      0x02\n        /* \"#utility.yul\":20397:20403   */\n      dup9\n        /* \"#utility.yul\":20393:20407   */\n      mul\n        /* \"#utility.yul\":20389:20411   */\n      add\n        /* \"#utility.yul\":20383:20387   */\n      dup9\n        /* \"#utility.yul\":20376:20412   */\n      sstore\n        /* \"#utility.yul\":19811:20422   */\n      pop\n      pop\n      pop\n        /* \"#utility.yul\":19774:20661   */\n    tag_459:\n      pop\n        /* \"#utility.yul\":19364:20667   */\n      pop\n      pop\n      pop\n        /* \"#utility.yul\":19272:20667   */\n      pop\n      pop\n      jump\t// out\n        /* \"#utility.yul\":20673:20895   */\n    tag_99:\n        /* \"#utility.yul\":20766:20770   */\n      0x00\n        /* \"#utility.yul\":20804:20806   */\n      0x20\n        /* \"#utility.yul\":20793:20802   */\n      dup3\n        /* \"#utility.yul\":20789:20807   */\n      add\n        /* \"#utility.yul\":20781:20807   */\n      swap1\n      pop\n        /* \"#utility.yul\":20817:20888   */\n      tag_470\n        /* \"#utility.yul\":20885:20886   */\n      0x00\n        /* \"#utility.yul\":20874:20883   */\n      dup4\n        /* \"#utility.yul\":20870:20887   */\n      add\n        /* \"#utility.yul\":20861:20867   */\n      dup5\n        /* \"#utility.yul\":20817:20888   */\n      tag_249\n      jump\t// in\n    tag_470:\n        /* \"#utility.yul\":20673:20895   */\n      swap3\n      swap2\n      pop\n      pop\n      jump\t// out\n        /* \"#utility.yul\":20901:21133   */\n    tag_269:\n        /* \"#utility.yul\":21041:21075   */\n      0x566f746573206e65656420746f2062652074616c6c69656420696e206f726465\n        /* \"#utility.yul\":21037:21038   */\n      0x00\n        /* \"#utility.yul\":21029:21035   */\n      dup3\n        /* \"#utility.yul\":21025:21039   */\n      add\n        /* \"#utility.yul\":21018:21076   */\n      mstore\n        /* \"#utility.yul\":21110:21125   */\n      0x7220746f20646f20746861742e00000000000000000000000000000000000000\n        /* \"#utility.yul\":21105:21107   */\n      0x20\n        /* \"#utility.yul\":21097:21103   */\n      dup3\n        /* \"#utility.yul\":21093:21108   */\n      add\n        /* \"#utility.yul\":21086:21126   */\n      mstore\n        /* \"#utility.yul\":20901:21133   */\n      pop\n      jump\t// out\n        /* \"#utility.yul\":21139:21505   */\n    tag_270:\n        /* \"#utility.yul\":21281:21284   */\n      0x00\n        /* \"#utility.yul\":21302:21369   */\n      tag_473\n        /* \"#utility.yul\":21366:21368   */\n      0x2d\n        /* \"#utility.yul\":21361:21364   */\n      dup4\n        /* \"#utility.yul\":21302:21369   */\n      tag_241\n      jump\t// in\n    tag_473:\n        /* \"#utility.yul\":21295:21369   */\n      swap2\n      pop\n        /* \"#utility.yul\":21378:21471   */\n      tag_474\n        /* \"#utility.yul\":21467:21470   */\n      dup3\n        /* \"#utility.yul\":21378:21471   */\n      tag_269\n      jump\t// in\n    tag_474:\n        /* \"#utility.yul\":21496:21498   */\n      0x40\n        /* \"#utility.yul\":21491:21494   */\n      dup3\n        /* \"#utility.yul\":21487:21499   */\n      add\n        /* \"#utility.yul\":21480:21499   */\n      swap1\n      pop\n        /* \"#utility.yul\":21139:21505   */\n      swap2\n      swap1\n      pop\n      jump\t// out\n        /* \"#utility.yul\":21511:21930   */\n    tag_126:\n        /* \"#utility.yul\":21677:21681   */\n      0x00\n        /* \"#utility.yul\":21715:21717   */\n      0x20\n        /* \"#utility.yul\":21704:21713   */\n      dup3\n        /* \"#utility.yul\":21700:21718   */\n      add\n        /* \"#utility.yul\":21692:21718   */\n      swap1\n      pop\n        /* \"#utility.yul\":21764:21773   */\n      dup2\n        /* \"#utility.yul\":21758:21762   */\n      dup2\n        /* \"#utility.yul\":21754:21774   */\n      sub\n        /* \"#utility.yul\":21750:21751   */\n      0x00\n        /* \"#utility.yul\":21739:21748   */\n      dup4\n        /* \"#utility.yul\":21735:21752   */\n      add\n        /* \"#utility.yul\":21728:21775   */\n      mstore\n        /* \"#utility.yul\":21792:21923   */\n      tag_476\n        /* \"#utility.yul\":21918:21922   */\n      dup2\n        /* \"#utility.yul\":21792:21923   */\n      tag_270\n      jump\t// in\n    tag_476:\n        /* \"#utility.yul\":21784:21923   */\n      swap1\n      pop\n        /* \"#utility.yul\":21511:21930   */\n      swap2\n      swap1\n      pop\n      jump\t// out\n        /* \"#utility.yul\":21936:22113   */\n    tag_271:\n        /* \"#utility.yul\":22076:22105   */\n      0x596f752063616e6e6f7420726567697374657220766f746572732e0000000000\n        /* \"#utility.yul\":22072:22073   */\n      0x00\n        /* \"#utility.yul\":22064:22070   */\n      dup3\n        /* \"#utility.yul\":22060:22074   */\n      add\n        /* \"#utility.yul\":22053:22106   */\n      mstore\n        /* \"#utility.yul\":21936:22113   */\n      pop\n      jump\t// out\n        /* \"#utility.yul\":22119:22485   */\n    tag_272:\n        /* \"#utility.yul\":22261:22264   */\n      0x00\n        /* \"#utility.yul\":22282:22349   */\n      tag_479\n        /* \"#utility.yul\":22346:22348   */\n      0x1b\n        /* \"#utility.yul\":22341:22344   */\n      dup4\n        /* \"#utility.yul\":22282:22349   */\n      tag_241\n      jump\t// in\n    tag_479:\n        /* \"#utility.yul\":22275:22349   */\n      swap2\n      pop\n        /* \"#utility.yul\":22358:22451   */\n      tag_480\n        /* \"#utility.yul\":22447:22450   */\n      dup3\n        /* \"#utility.yul\":22358:22451   */\n      tag_271\n      jump\t// in\n    tag_480:\n        /* \"#utility.yul\":22476:22478   */\n      0x20\n        /* \"#utility.yul\":22471:22474   */\n      dup3\n        /* \"#utility.yul\":22467:22479   */\n      add\n        /* \"#utility.yul\":22460:22479   */\n      swap1\n      pop\n        /* \"#utility.yul\":22119:22485   */\n      swap2\n      swap1\n      pop\n      jump\t// out\n        /* \"#utility.yul\":22491:22910   */\n    tag_175:\n        /* \"#utility.yul\":22657:22661   */\n      0x00\n        /* \"#utility.yul\":22695:22697   */\n      0x20\n        /* \"#utility.yul\":22684:22693   */\n      dup3\n        /* \"#utility.yul\":22680:22698   */\n      add\n        /* \"#utility.yul\":22672:22698   */\n      swap1\n      pop\n        /* \"#utility.yul\":22744:22753   */\n      dup2\n        /* \"#utility.yul\":22738:22742   */\n      dup2\n        /* \"#utility.yul\":22734:22754   */\n      sub\n        /* \"#utility.yul\":22730:22731   */\n      0x00\n        /* \"#utility.yul\":22719:22728   */\n      dup4\n        /* \"#utility.yul\":22715:22732   */\n      add\n        /* \"#utility.yul\":22708:22755   */\n      mstore\n        /* \"#utility.yul\":22772:22903   */\n      tag_482\n        /* \"#utility.yul\":22898:22902   */\n      dup2\n        /* \"#utility.yul\":22772:22903   */\n      tag_272\n      jump\t// in\n    tag_482:\n        /* \"#utility.yul\":22764:22903   */\n      swap1\n      pop\n        /* \"#utility.yul\":22491:22910   */\n      swap2\n      swap1\n      pop\n      jump\t// out\n        /* \"#utility.yul\":22916:23151   */\n    tag_273:\n        /* \"#utility.yul\":23056:23090   */\n      0x566f7465732073686f756c64206e6f742062652074616c6c69656420696e206f\n        /* \"#utility.yul\":23052:23053   */\n      0x00\n        /* \"#utility.yul\":23044:23050   */\n      dup3\n        /* \"#utility.yul\":23040:23054   */\n      add\n        /* \"#utility.yul\":23033:23091   */\n      mstore\n        /* \"#utility.yul\":23125:23143   */\n      0x7264657220746f20646f20746861742e00000000000000000000000000000000\n        /* \"#utility.yul\":23120:23122   */\n      0x20\n        /* \"#utility.yul\":23112:23118   */\n      dup3\n        /* \"#utility.yul\":23108:23123   */\n      add\n        /* \"#utility.yul\":23101:23144   */\n      mstore\n        /* \"#utility.yul\":22916:23151   */\n      pop\n      jump\t// out\n        /* \"#utility.yul\":23157:23523   */\n    tag_274:\n        /* \"#utility.yul\":23299:23302   */\n      0x00\n        /* \"#utility.yul\":23320:23387   */\n      tag_485\n        /* \"#utility.yul\":23384:23386   */\n      0x30\n        /* \"#utility.yul\":23379:23382   */\n      dup4\n        /* \"#utility.yul\":23320:23387   */\n      tag_241\n      jump\t// in\n    tag_485:\n        /* \"#utility.yul\":23313:23387   */\n      swap2\n      pop\n        /* \"#utility.yul\":23396:23489   */\n      tag_486\n        /* \"#utility.yul\":23485:23488   */\n      dup3\n        /* \"#utility.yul\":23396:23489   */\n      tag_273\n      jump\t// in\n    tag_486:\n        /* \"#utility.yul\":23514:23516   */\n      0x40\n        /* \"#utility.yul\":23509:23512   */\n      dup3\n        /* \"#utility.yul\":23505:23517   */\n      add\n        /* \"#utility.yul\":23498:23517   */\n      swap1\n      pop\n        /* \"#utility.yul\":23157:23523   */\n      swap2\n      swap1\n      pop\n      jump\t// out\n        /* \"#utility.yul\":23529:23948   */\n    tag_187:\n        /* \"#utility.yul\":23695:23699   */\n      0x00\n        /* \"#utility.yul\":23733:23735   */\n      0x20\n        /* \"#utility.yul\":23722:23731   */\n      dup3\n        /* \"#utility.yul\":23718:23736   */\n      add\n        /* \"#utility.yul\":23710:23736   */\n      swap1\n      pop\n        /* \"#utility.yul\":23782:23791   */\n      dup2\n        /* \"#utility.yul\":23776:23780   */\n      dup2\n        /* \"#utility.yul\":23772:23792   */\n      sub\n        /* \"#utility.yul\":23768:23769   */\n      0x00\n        /* \"#utility.yul\":23757:23766   */\n      dup4\n        /* \"#utility.yul\":23753:23770   */\n      add\n        /* \"#utility.yul\":23746:23793   */\n      mstore\n        /* \"#utility.yul\":23810:23941   */\n      tag_488\n        /* \"#utility.yul\":23936:23940   */\n      dup2\n        /* \"#utility.yul\":23810:23941   */\n      tag_274\n      jump\t// in\n    tag_488:\n        /* \"#utility.yul\":23802:23941   */\n      swap1\n      pop\n        /* \"#utility.yul\":23529:23948   */\n      swap2\n      swap1\n      pop\n      jump\t// out\n        /* \"#utility.yul\":23954:24145   */\n    tag_192:\n        /* \"#utility.yul\":23994:23997   */\n      0x00\n        /* \"#utility.yul\":24013:24033   */\n      tag_490\n        /* \"#utility.yul\":24031:24032   */\n      dup3\n        /* \"#utility.yul\":24013:24033   */\n      tag_211\n      jump\t// in\n    tag_490:\n        /* \"#utility.yul\":24008:24033   */\n      swap2\n      pop\n        /* \"#utility.yul\":24047:24067   */\n      tag_491\n        /* \"#utility.yul\":24065:24066   */\n      dup4\n        /* \"#utility.yul\":24047:24067   */\n      tag_211\n      jump\t// in\n    tag_491:\n        /* \"#utility.yul\":24042:24067   */\n      swap3\n      pop\n        /* \"#utility.yul\":24090:24091   */\n      dup3\n        /* \"#utility.yul\":24087:24088   */\n      dup3\n        /* \"#utility.yul\":24083:24092   */\n      add\n        /* \"#utility.yul\":24076:24092   */\n      swap1\n      pop\n        /* \"#utility.yul\":24111:24114   */\n      dup1\n        /* \"#utility.yul\":24108:24109   */\n      dup3\n        /* \"#utility.yul\":24105:24115   */\n      gt\n        /* \"#utility.yul\":24102:24138   */\n      iszero\n      tag_492\n      jumpi\n        /* \"#utility.yul\":24118:24136   */\n      tag_493\n      tag_248\n      jump\t// in\n    tag_493:\n        /* \"#utility.yul\":24102:24138   */\n    tag_492:\n        /* \"#utility.yul\":23954:24145   */\n      swap3\n      swap2\n      pop\n      pop\n      jump\t// out\n        /* \"#utility.yul\":24151:24543   */\n    tag_198:\n        /* \"#utility.yul\":24302:24306   */\n      0x00\n        /* \"#utility.yul\":24340:24342   */\n      0x40\n        /* \"#utility.yul\":24329:24338   */\n      dup3\n        /* \"#utility.yul\":24325:24343   */\n      add\n        /* \"#utility.yul\":24317:24343   */\n      swap1\n      pop\n        /* \"#utility.yul\":24353:24439   */\n      tag_495\n        /* \"#utility.yul\":24436:24437   */\n      0x00\n        /* \"#utility.yul\":24425:24434   */\n      dup4\n        /* \"#utility.yul\":24421:24438   */\n      add\n        /* \"#utility.yul\":24412:24418   */\n      dup6\n        /* \"#utility.yul\":24353:24439   */\n      tag_217\n      jump\t// in\n    tag_495:\n        /* \"#utility.yul\":24449:24536   */\n      tag_496\n        /* \"#utility.yul\":24532:24534   */\n      0x20\n        /* \"#utility.yul\":24521:24530   */\n      dup4\n        /* \"#utility.yul\":24517:24535   */\n      add\n        /* \"#utility.yul\":24508:24514   */\n      dup5\n        /* \"#utility.yul\":24449:24536   */\n      tag_217\n      jump\t// in\n    tag_496:\n        /* \"#utility.yul\":24151:24543   */\n      swap4\n      swap3\n      pop\n      pop\n      pop\n      jump\t// out\n\n    auxdata: 0xa2646970667358221220d6e2d8a1ae2dd404cb9d7be222c15d12c9fa1a3c3a964bb05f4352835d6be2f964736f6c63430008170033\n}\n",
				"bytecode": {
					"linkReferences": {},
					"object": "60806040525f60045534801562000014575f80fd5b50335f73ffffffffffffffffffffffffffffffffffffffff168173ffffffffffffffffffffffffffffffffffffffff160362000089575f6040517f1e4fbdf7000000000000000000000000000000000000000000000000000000008152600401620000809190620001d1565b60405180910390fd5b6200009a81620000cd60201b60201c565b505f60055f6101000a81548160ff02191690836005811115620000c257620000c1620001ec565b5b021790555062000219565b5f805f9054906101000a900473ffffffffffffffffffffffffffffffffffffffff169050815f806101000a81548173ffffffffffffffffffffffffffffffffffffffff021916908373ffffffffffffffffffffffffffffffffffffffff1602179055508173ffffffffffffffffffffffffffffffffffffffff168173ffffffffffffffffffffffffffffffffffffffff167f8be0079c531659141344cd1fd0a4f28419497f9722a3daafe3b4186f6b6457e060405160405180910390a35050565b5f73ffffffffffffffffffffffffffffffffffffffff82169050919050565b5f620001b9826200018e565b9050919050565b620001cb81620001ad565b82525050565b5f602082019050620001e65f830184620001c0565b92915050565b7f4e487b71000000000000000000000000000000000000000000000000000000005f52602160045260245ffd5b611b7c80620002275f395ff3fe608060405234801561000f575f80fd5b50600436106100a7575f3560e01c80638da5cb5b1161006f5780638da5cb5b146101295780638e7ea5b214610147578063b126f77114610165578063f2fde38b1461016f578063f4ab9adf1461018b578063fd20255c146101a7576100a7565b80630121b93f146100ab5780631e09506d146100c75780632fdae3c5146100e557806362564c4814610101578063715018a61461011f575b5f80fd5b6100c560048036038101906100c09190610f94565b6101b1565b005b6100cf6104bd565b6040516100dc9190611032565b60405180910390f35b6100ff60048036038101906100fa91906110ac565b6104d2565b005b6101096106db565b6040516101169190611298565b60405180910390f35b6101276107da565b005b6101316107ed565b60405161013e91906112f7565b60405180910390f35b61014f610814565b60405161015c919061135d565b60405180910390f35b61016d610a74565b005b610189600480360381019061018491906113a7565b610b1b565b005b6101a560048036038101906101a091906113a7565b610b9f565b005b6101af610cac565b005b6001151560025f3373ffffffffffffffffffffffffffffffffffffffff1673ffffffffffffffffffffffffffffffffffffffff1681526020019081526020015f205f015f9054906101000a900460ff16151514610243576040517f08c379a000000000000000000000000000000000000000000000000000000000815260040161023a9061142c565b60405180910390fd5b6003600581111561025757610256610fbf565b5b60055f9054906101000a900460ff16600581111561027857610277610fbf565b5b146102b8576040517f08c379a00000000000000000000000000000000000000000000000000000000081526004016102af90611494565b60405180910390fd5b5f151560025f3373ffffffffffffffffffffffffffffffffffffffff1673ffffffffffffffffffffffffffffffffffffffff1681526020019081526020015f205f0160019054906101000a900460ff1615151461034a576040517f08c379a0000000000000000000000000000000000000000000000000000000008152600401610341906114fc565b60405180910390fd5b6003818154811061035e5761035d61151a565b5b905f5260205f2090600302016002015f81548092919061037d90611574565b9190505550600160025f3373ffffffffffffffffffffffffffffffffffffffff1673ffffffffffffffffffffffffffffffffffffffff1681526020019081526020015f205f0160016101000a81548160ff021916908315150217905550600381815481106103ee576103ed61151a565b5b905f5260205f2090600302015f015460025f3373ffffffffffffffffffffffffffffffffffffffff1673ffffffffffffffffffffffffffffffffffffffff1681526020019081526020015f20600101819055507f4d99b957a2bc29a30ebd96a7be8e68fe50a3c701db28a91436490b7d53870ca43360025f3373ffffffffffffffffffffffffffffffffffffffff1673ffffffffffffffffffffffffffffffffffffffff1681526020019081526020015f20600101546040516104b29291906115ca565b60405180910390a150565b5f60055f9054906101000a900460ff16905090565b6001151560025f3373ffffffffffffffffffffffffffffffffffffffff1673ffffffffffffffffffffffffffffffffffffffff1681526020019081526020015f205f015f9054906101000a900460ff16151514610564576040517f08c379a000000000000000000000000000000000000000000000000000000000815260040161055b9061142c565b60405180910390fd5b6001600581111561057857610577610fbf565b5b60055f9054906101000a900460ff16600581111561059957610598610fbf565b5b146105d9576040517f08c379a00000000000000000000000000000000000000000000000000000000081526004016105d09061163b565b60405180910390fd5b60036040518060600160405280600454815260200184848080601f0160208091040260200160405190810160405280939291908181526020018383808284375f81840152601f19601f8201169050808301925050505050505081526020015f815250908060018154018082558091505060019003905f5260205f2090600302015f909190919091505f820151815f0155602082015181600101908161067e9190611880565b506040820151816002015550507f92e393e9b54e2f801d3ea4beb0c5e71a21cc34a5d34b77d0fb8a3aa1650dc18f60045f8154809291906106be90611574565b919050556040516106cf919061194f565b60405180910390a15050565b60606003805480602002602001604051908101604052809291908181526020015f905b828210156107d1578382905f5260205f2090600302016040518060600160405290815f8201548152602001600182018054610738906116b3565b80601f0160208091040260200160405190810160405280929190818152602001828054610764906116b3565b80156107af5780601f10610786576101008083540402835291602001916107af565b820191905f5260205f20905b81548152906001019060200180831161079257829003601f168201915b50505050508152602001600282015481525050815260200190600101906106fe565b50505050905090565b6107e2610deb565b6107eb5f610e72565b565b5f805f9054906101000a900473ffffffffffffffffffffffffffffffffffffffff16905090565b61081c610f3a565b60058081111561082f5761082e610fbf565b5b60055f9054906101000a900460ff1660058111156108505761084f610fbf565b5b14610890576040517f08c379a0000000000000000000000000000000000000000000000000000000008152600401610887906119d8565b60405180910390fd5b5f805b60038054905081101561099d575f600382815481106108b5576108b461151a565b5b905f5260205f2090600302016040518060600160405290815f82015481526020016001820180546108e5906116b3565b80601f0160208091040260200160405190810160405280929190818152602001828054610911906116b3565b801561095c5780601f106109335761010080835404028352916020019161095c565b820191905f5260205f20905b81548152906001019060200180831161093f57829003601f168201915b505050505081526020016002820154815250509050828160400151111561098f57805f0151600181905550806040015192505b508080600101915050610893565b506003600154815481106109b4576109b361151a565b5b905f5260205f2090600302016040518060600160405290815f82015481526020016001820180546109e4906116b3565b80601f0160208091040260200160405190810160405280929190818152602001828054610a10906116b3565b8015610a5b5780601f10610a3257610100808354040283529160200191610a5b565b820191905f5260205f20905b815481529060010190602001808311610a3e57829003601f168201915b5050505050815260200160028201548152505091505090565b610a7c610deb565b600580811115610a8f57610a8e610fbf565b5b60055f9054906101000a900460ff166005811115610ab057610aaf610fbf565b5b14610af0576040517f08c379a0000000000000000000000000000000000000000000000000000000008152600401610ae7906119d8565b60405180910390fd5b5f60055f6101000a81548160ff02191690836005811115610b1457610b13610fbf565b5b0217905550565b610b23610deb565b5f73ffffffffffffffffffffffffffffffffffffffff168173ffffffffffffffffffffffffffffffffffffffff1603610b93575f6040517f1e4fbdf7000000000000000000000000000000000000000000000000000000008152600401610b8a91906112f7565b60405180910390fd5b610b9c81610e72565b50565b610ba7610deb565b5f6005811115610bba57610bb9610fbf565b5b60055f9054906101000a900460ff166005811115610bdb57610bda610fbf565b5b14610c1b576040517f08c379a0000000000000000000000000000000000000000000000000000000008152600401610c1290611a40565b60405180910390fd5b600160025f8373ffffffffffffffffffffffffffffffffffffffff1673ffffffffffffffffffffffffffffffffffffffff1681526020019081526020015f205f015f6101000a81548160ff0219169083151502179055507fb6be2187d059cc2a55fe29e0e503b566e1e0f8c8780096e185429350acffd3dd81604051610ca191906112f7565b60405180910390a150565b610cb4610deb565b600580811115610cc757610cc6610fbf565b5b60055f9054906101000a900460ff166005811115610ce857610ce7610fbf565b5b03610d28576040517f08c379a0000000000000000000000000000000000000000000000000000000008152600401610d1f90611ace565b60405180910390fd5b5f60055f9054906101000a900460ff169050600160055f9054906101000a900460ff166005811115610d5d57610d5c610fbf565b5b610d679190611aec565b6005811115610d7957610d78610fbf565b5b60055f6101000a81548160ff02191690836005811115610d9c57610d9b610fbf565b5b02179055507f0a97a4ee45751e2abf3e4fc8946939630b11b371ea8ae39ccdc3056e98f5cc3f8160055f9054906101000a900460ff16604051610de0929190611b1f565b60405180910390a150565b610df3610f33565b73ffffffffffffffffffffffffffffffffffffffff16610e116107ed565b73ffffffffffffffffffffffffffffffffffffffff1614610e7057610e34610f33565b6040517f118cdaa7000000000000000000000000000000000000000000000000000000008152600401610e6791906112f7565b60405180910390fd5b565b5f805f9054906101000a900473ffffffffffffffffffffffffffffffffffffffff169050815f806101000a81548173ffffffffffffffffffffffffffffffffffffffff021916908373ffffffffffffffffffffffffffffffffffffffff1602179055508173ffffffffffffffffffffffffffffffffffffffff168173ffffffffffffffffffffffffffffffffffffffff167f8be0079c531659141344cd1fd0a4f28419497f9722a3daafe3b4186f6b6457e060405160405180910390a35050565b5f33905090565b60405180606001604052805f8152602001606081526020015f81525090565b5f80fd5b5f80fd5b5f819050919050565b610f7381610f61565b8114610f7d575f80fd5b50565b5f81359050610f8e81610f6a565b92915050565b5f60208284031215610fa957610fa8610f59565b5b5f610fb684828501610f80565b91505092915050565b7f4e487b71000000000000000000000000000000000000000000000000000000005f52602160045260245ffd5b60068110610ffd57610ffc610fbf565b5b50565b5f81905061100d82610fec565b919050565b5f61101c82611000565b9050919050565b61102c81611012565b82525050565b5f6020820190506110455f830184611023565b92915050565b5f80fd5b5f80fd5b5f80fd5b5f8083601f84011261106c5761106b61104b565b5b8235905067ffffffffffffffff8111156110895761108861104f565b5b6020830191508360018202830111156110a5576110a4611053565b5b9250929050565b5f80602083850312156110c2576110c1610f59565b5b5f83013567ffffffffffffffff8111156110df576110de610f5d565b5b6110eb85828601611057565b92509250509250929050565b5f81519050919050565b5f82825260208201905092915050565b5f819050602082019050919050565b61112981610f61565b82525050565b5f81519050919050565b5f82825260208201905092915050565b5f5b8381101561116657808201518184015260208101905061114b565b5f8484015250505050565b5f601f19601f8301169050919050565b5f61118b8261112f565b6111958185611139565b93506111a5818560208601611149565b6111ae81611171565b840191505092915050565b5f606083015f8301516111ce5f860182611120565b50602083015184820360208601526111e68282611181565b91505060408301516111fb6040860182611120565b508091505092915050565b5f61121183836111b9565b905092915050565b5f602082019050919050565b5f61122f826110f7565b6112398185611101565b93508360208202850161124b85611111565b805f5b8581101561128657848403895281516112678582611206565b945061127283611219565b925060208a0199505060018101905061124e565b50829750879550505050505092915050565b5f6020820190508181035f8301526112b08184611225565b905092915050565b5f73ffffffffffffffffffffffffffffffffffffffff82169050919050565b5f6112e1826112b8565b9050919050565b6112f1816112d7565b82525050565b5f60208201905061130a5f8301846112e8565b92915050565b5f606083015f8301516113255f860182611120565b506020830151848203602086015261133d8282611181565b91505060408301516113526040860182611120565b508091505092915050565b5f6020820190508181035f8301526113758184611310565b905092915050565b611386816112d7565b8114611390575f80fd5b50565b5f813590506113a18161137d565b92915050565b5f602082840312156113bc576113bb610f59565b5b5f6113c984828501611393565b91505092915050565b5f82825260208201905092915050565b7f596f7520617265206e6f7420612076616c696420766f746572210000000000005f82015250565b5f611416601a836113d2565b9150611421826113e2565b602082019050919050565b5f6020820190508181035f8301526114438161140a565b9050919050565b7f596f752063616e6e6f7420766f74652070726f706f73616c732e0000000000005f82015250565b5f61147e601a836113d2565b91506114898261144a565b602082019050919050565b5f6020820190508181035f8301526114ab81611472565b9050919050565b7f596f7520616c726561647920766f7465642100000000000000000000000000005f82015250565b5f6114e66012836113d2565b91506114f1826114b2565b602082019050919050565b5f6020820190508181035f830152611513816114da565b9050919050565b7f4e487b71000000000000000000000000000000000000000000000000000000005f52603260045260245ffd5b7f4e487b71000000000000000000000000000000000000000000000000000000005f52601160045260245ffd5b5f61157e82610f61565b91507fffffffffffffffffffffffffffffffffffffffffffffffffffffffffffffffff82036115b0576115af611547565b5b600182019050919050565b6115c481610f61565b82525050565b5f6040820190506115dd5f8301856112e8565b6115ea60208301846115bb565b9392505050565b7f596f752063616e6e6f742072656769737465722070726f706f73616c732e00005f82015250565b5f611625601e836113d2565b9150611630826115f1565b602082019050919050565b5f6020820190508181035f83015261165281611619565b9050919050565b7f4e487b71000000000000000000000000000000000000000000000000000000005f52604160045260245ffd5b7f4e487b71000000000000000000000000000000000000000000000000000000005f52602260045260245ffd5b5f60028204905060018216806116ca57607f821691505b6020821081036116dd576116dc611686565b5b50919050565b5f819050815f5260205f209050919050565b5f6020601f8301049050919050565b5f82821b905092915050565b5f6008830261173f7fffffffffffffffffffffffffffffffffffffffffffffffffffffffffffffffff82611704565b6117498683611704565b95508019841693508086168417925050509392505050565b5f819050919050565b5f61178461177f61177a84610f61565b611761565b610f61565b9050919050565b5f819050919050565b61179d8361176a565b6117b16117a98261178b565b848454611710565b825550505050565b5f90565b6117c56117b9565b6117d0818484611794565b505050565b5b818110156117f3576117e85f826117bd565b6001810190506117d6565b5050565b601f82111561183857611809816116e3565b611812846116f5565b81016020851015611821578190505b61183561182d856116f5565b8301826117d5565b50505b505050565b5f82821c905092915050565b5f6118585f198460080261183d565b1980831691505092915050565b5f6118708383611849565b9150826002028217905092915050565b6118898261112f565b67ffffffffffffffff8111156118a2576118a1611659565b5b6118ac82546116b3565b6118b78282856117f7565b5f60209050601f8311600181146118e8575f84156118d6578287015190505b6118e08582611865565b865550611947565b601f1984166118f6866116e3565b5f5b8281101561191d578489015182556001820191506020850194506020810190506118f8565b8683101561193a5784890151611936601f891682611849565b8355505b6001600288020188555050505b505050505050565b5f6020820190506119625f8301846115bb565b92915050565b7f566f746573206e65656420746f2062652074616c6c69656420696e206f7264655f8201527f7220746f20646f20746861742e00000000000000000000000000000000000000602082015250565b5f6119c2602d836113d2565b91506119cd82611968565b604082019050919050565b5f6020820190508181035f8301526119ef816119b6565b9050919050565b7f596f752063616e6e6f7420726567697374657220766f746572732e00000000005f82015250565b5f611a2a601b836113d2565b9150611a35826119f6565b602082019050919050565b5f6020820190508181035f830152611a5781611a1e565b9050919050565b7f566f7465732073686f756c64206e6f742062652074616c6c69656420696e206f5f8201527f7264657220746f20646f20746861742e00000000000000000000000000000000602082015250565b5f611ab86030836113d2565b9150611ac382611a5e565b604082019050919050565b5f6020820190508181035f830152611ae581611aac565b9050919050565b5f611af682610f61565b9150611b0183610f61565b9250828201905080821115611b1957611b18611547565b5b92915050565b5f604082019050611b325f830185611023565b611b3f6020830184611023565b939250505056fea2646970667358221220d6e2d8a1ae2dd404cb9d7be222c15d12c9fa1a3c3a964bb05f4352835d6be2f964736f6c63430008170033",
					"opcodes": "PUSH1 0x80 PUSH1 0x40 MSTORE PUSH0 PUSH1 0x4 SSTORE CALLVALUE DUP1 ISZERO PUSH3 0x14 JUMPI PUSH0 DUP1 REVERT JUMPDEST POP CALLER PUSH0 PUSH20 0xFFFFFFFFFFFFFFFFFFFFFFFFFFFFFFFFFFFFFFFF AND DUP2 PUSH20 0xFFFFFFFFFFFFFFFFFFFFFFFFFFFFFFFFFFFFFFFF AND SUB PUSH3 0x89 JUMPI PUSH0 PUSH1 0x40 MLOAD PUSH32 0x1E4FBDF700000000000000000000000000000000000000000000000000000000 DUP2 MSTORE PUSH1 0x4 ADD PUSH3 0x80 SWAP2 SWAP1 PUSH3 0x1D1 JUMP JUMPDEST PUSH1 0x40 MLOAD DUP1 SWAP2 SUB SWAP1 REVERT JUMPDEST PUSH3 0x9A DUP2 PUSH3 0xCD PUSH1 0x20 SHL PUSH1 0x20 SHR JUMP JUMPDEST POP PUSH0 PUSH1 0x5 PUSH0 PUSH2 0x100 EXP DUP2 SLOAD DUP2 PUSH1 0xFF MUL NOT AND SWAP1 DUP4 PUSH1 0x5 DUP2 GT ISZERO PUSH3 0xC2 JUMPI PUSH3 0xC1 PUSH3 0x1EC JUMP JUMPDEST JUMPDEST MUL OR SWAP1 SSTORE POP PUSH3 0x219 JUMP JUMPDEST PUSH0 DUP1 PUSH0 SWAP1 SLOAD SWAP1 PUSH2 0x100 EXP SWAP1 DIV PUSH20 0xFFFFFFFFFFFFFFFFFFFFFFFFFFFFFFFFFFFFFFFF AND SWAP1 POP DUP2 PUSH0 DUP1 PUSH2 0x100 EXP DUP2 SLOAD DUP2 PUSH20 0xFFFFFFFFFFFFFFFFFFFFFFFFFFFFFFFFFFFFFFFF MUL NOT AND SWAP1 DUP4 PUSH20 0xFFFFFFFFFFFFFFFFFFFFFFFFFFFFFFFFFFFFFFFF AND MUL OR SWAP1 SSTORE POP DUP2 PUSH20 0xFFFFFFFFFFFFFFFFFFFFFFFFFFFFFFFFFFFFFFFF AND DUP2 PUSH20 0xFFFFFFFFFFFFFFFFFFFFFFFFFFFFFFFFFFFFFFFF AND PUSH32 0x8BE0079C531659141344CD1FD0A4F28419497F9722A3DAAFE3B4186F6B6457E0 PUSH1 0x40 MLOAD PUSH1 0x40 MLOAD DUP1 SWAP2 SUB SWAP1 LOG3 POP POP JUMP JUMPDEST PUSH0 PUSH20 0xFFFFFFFFFFFFFFFFFFFFFFFFFFFFFFFFFFFFFFFF DUP3 AND SWAP1 POP SWAP2 SWAP1 POP JUMP JUMPDEST PUSH0 PUSH3 0x1B9 DUP3 PUSH3 0x18E JUMP JUMPDEST SWAP1 POP SWAP2 SWAP1 POP JUMP JUMPDEST PUSH3 0x1CB DUP2 PUSH3 0x1AD JUMP JUMPDEST DUP3 MSTORE POP POP JUMP JUMPDEST PUSH0 PUSH1 0x20 DUP3 ADD SWAP1 POP PUSH3 0x1E6 PUSH0 DUP4 ADD DUP5 PUSH3 0x1C0 JUMP JUMPDEST SWAP3 SWAP2 POP POP JUMP JUMPDEST PUSH32 0x4E487B7100000000000000000000000000000000000000000000000000000000 PUSH0 MSTORE PUSH1 0x21 PUSH1 0x4 MSTORE PUSH1 0x24 PUSH0 REVERT JUMPDEST PUSH2 0x1B7C DUP1 PUSH3 0x227 PUSH0 CODECOPY PUSH0 RETURN INVALID PUSH1 0x80 PUSH1 0x40 MSTORE CALLVALUE DUP1 ISZERO PUSH2 0xF JUMPI PUSH0 DUP1 REVERT JUMPDEST POP PUSH1 0x4 CALLDATASIZE LT PUSH2 0xA7 JUMPI PUSH0 CALLDATALOAD PUSH1 0xE0 SHR DUP1 PUSH4 0x8DA5CB5B GT PUSH2 0x6F JUMPI DUP1 PUSH4 0x8DA5CB5B EQ PUSH2 0x129 JUMPI DUP1 PUSH4 0x8E7EA5B2 EQ PUSH2 0x147 JUMPI DUP1 PUSH4 0xB126F771 EQ PUSH2 0x165 JUMPI DUP1 PUSH4 0xF2FDE38B EQ PUSH2 0x16F JUMPI DUP1 PUSH4 0xF4AB9ADF EQ PUSH2 0x18B JUMPI DUP1 PUSH4 0xFD20255C EQ PUSH2 0x1A7 JUMPI PUSH2 0xA7 JUMP JUMPDEST DUP1 PUSH4 0x121B93F EQ PUSH2 0xAB JUMPI DUP1 PUSH4 0x1E09506D EQ PUSH2 0xC7 JUMPI DUP1 PUSH4 0x2FDAE3C5 EQ PUSH2 0xE5 JUMPI DUP1 PUSH4 0x62564C48 EQ PUSH2 0x101 JUMPI DUP1 PUSH4 0x715018A6 EQ PUSH2 0x11F JUMPI JUMPDEST PUSH0 DUP1 REVERT JUMPDEST PUSH2 0xC5 PUSH1 0x4 DUP1 CALLDATASIZE SUB DUP2 ADD SWAP1 PUSH2 0xC0 SWAP2 SWAP1 PUSH2 0xF94 JUMP JUMPDEST PUSH2 0x1B1 JUMP JUMPDEST STOP JUMPDEST PUSH2 0xCF PUSH2 0x4BD JUMP JUMPDEST PUSH1 0x40 MLOAD PUSH2 0xDC SWAP2 SWAP1 PUSH2 0x1032 JUMP JUMPDEST PUSH1 0x40 MLOAD DUP1 SWAP2 SUB SWAP1 RETURN JUMPDEST PUSH2 0xFF PUSH1 0x4 DUP1 CALLDATASIZE SUB DUP2 ADD SWAP1 PUSH2 0xFA SWAP2 SWAP1 PUSH2 0x10AC JUMP JUMPDEST PUSH2 0x4D2 JUMP JUMPDEST STOP JUMPDEST PUSH2 0x109 PUSH2 0x6DB JUMP JUMPDEST PUSH1 0x40 MLOAD PUSH2 0x116 SWAP2 SWAP1 PUSH2 0x1298 JUMP JUMPDEST PUSH1 0x40 MLOAD DUP1 SWAP2 SUB SWAP1 RETURN JUMPDEST PUSH2 0x127 PUSH2 0x7DA JUMP JUMPDEST STOP JUMPDEST PUSH2 0x131 PUSH2 0x7ED JUMP JUMPDEST PUSH1 0x40 MLOAD PUSH2 0x13E SWAP2 SWAP1 PUSH2 0x12F7 JUMP JUMPDEST PUSH1 0x40 MLOAD DUP1 SWAP2 SUB SWAP1 RETURN JUMPDEST PUSH2 0x14F PUSH2 0x814 JUMP JUMPDEST PUSH1 0x40 MLOAD PUSH2 0x15C SWAP2 SWAP1 PUSH2 0x135D JUMP JUMPDEST PUSH1 0x40 MLOAD DUP1 SWAP2 SUB SWAP1 RETURN JUMPDEST PUSH2 0x16D PUSH2 0xA74 JUMP JUMPDEST STOP JUMPDEST PUSH2 0x189 PUSH1 0x4 DUP1 CALLDATASIZE SUB DUP2 ADD SWAP1 PUSH2 0x184 SWAP2 SWAP1 PUSH2 0x13A7 JUMP JUMPDEST PUSH2 0xB1B JUMP JUMPDEST STOP JUMPDEST PUSH2 0x1A5 PUSH1 0x4 DUP1 CALLDATASIZE SUB DUP2 ADD SWAP1 PUSH2 0x1A0 SWAP2 SWAP1 PUSH2 0x13A7 JUMP JUMPDEST PUSH2 0xB9F JUMP JUMPDEST STOP JUMPDEST PUSH2 0x1AF PUSH2 0xCAC JUMP JUMPDEST STOP JUMPDEST PUSH1 0x1 ISZERO ISZERO PUSH1 0x2 PUSH0 CALLER PUSH20 0xFFFFFFFFFFFFFFFFFFFFFFFFFFFFFFFFFFFFFFFF AND PUSH20 0xFFFFFFFFFFFFFFFFFFFFFFFFFFFFFFFFFFFFFFFF AND DUP2 MSTORE PUSH1 0x20 ADD SWAP1 DUP2 MSTORE PUSH1 0x20 ADD PUSH0 KECCAK256 PUSH0 ADD PUSH0 SWAP1 SLOAD SWAP1 PUSH2 0x100 EXP SWAP1 DIV PUSH1 0xFF AND ISZERO ISZERO EQ PUSH2 0x243 JUMPI PUSH1 0x40 MLOAD PUSH32 0x8C379A000000000000000000000000000000000000000000000000000000000 DUP2 MSTORE PUSH1 0x4 ADD PUSH2 0x23A SWAP1 PUSH2 0x142C JUMP JUMPDEST PUSH1 0x40 MLOAD DUP1 SWAP2 SUB SWAP1 REVERT JUMPDEST PUSH1 0x3 PUSH1 0x5 DUP2 GT ISZERO PUSH2 0x257 JUMPI PUSH2 0x256 PUSH2 0xFBF JUMP JUMPDEST JUMPDEST PUSH1 0x5 PUSH0 SWAP1 SLOAD SWAP1 PUSH2 0x100 EXP SWAP1 DIV PUSH1 0xFF AND PUSH1 0x5 DUP2 GT ISZERO PUSH2 0x278 JUMPI PUSH2 0x277 PUSH2 0xFBF JUMP JUMPDEST JUMPDEST EQ PUSH2 0x2B8 JUMPI PUSH1 0x40 MLOAD PUSH32 0x8C379A000000000000000000000000000000000000000000000000000000000 DUP2 MSTORE PUSH1 0x4 ADD PUSH2 0x2AF SWAP1 PUSH2 0x1494 JUMP JUMPDEST PUSH1 0x40 MLOAD DUP1 SWAP2 SUB SWAP1 REVERT JUMPDEST PUSH0 ISZERO ISZERO PUSH1 0x2 PUSH0 CALLER PUSH20 0xFFFFFFFFFFFFFFFFFFFFFFFFFFFFFFFFFFFFFFFF AND PUSH20 0xFFFFFFFFFFFFFFFFFFFFFFFFFFFFFFFFFFFFFFFF AND DUP2 MSTORE PUSH1 0x20 ADD SWAP1 DUP2 MSTORE PUSH1 0x20 ADD PUSH0 KECCAK256 PUSH0 ADD PUSH1 0x1 SWAP1 SLOAD SWAP1 PUSH2 0x100 EXP SWAP1 DIV PUSH1 0xFF AND ISZERO ISZERO EQ PUSH2 0x34A JUMPI PUSH1 0x40 MLOAD PUSH32 0x8C379A000000000000000000000000000000000000000000000000000000000 DUP2 MSTORE PUSH1 0x4 ADD PUSH2 0x341 SWAP1 PUSH2 0x14FC JUMP JUMPDEST PUSH1 0x40 MLOAD DUP1 SWAP2 SUB SWAP1 REVERT JUMPDEST PUSH1 0x3 DUP2 DUP2 SLOAD DUP2 LT PUSH2 0x35E JUMPI PUSH2 0x35D PUSH2 0x151A JUMP JUMPDEST JUMPDEST SWAP1 PUSH0 MSTORE PUSH1 0x20 PUSH0 KECCAK256 SWAP1 PUSH1 0x3 MUL ADD PUSH1 0x2 ADD PUSH0 DUP2 SLOAD DUP1 SWAP3 SWAP2 SWAP1 PUSH2 0x37D SWAP1 PUSH2 0x1574 JUMP JUMPDEST SWAP2 SWAP1 POP SSTORE POP PUSH1 0x1 PUSH1 0x2 PUSH0 CALLER PUSH20 0xFFFFFFFFFFFFFFFFFFFFFFFFFFFFFFFFFFFFFFFF AND PUSH20 0xFFFFFFFFFFFFFFFFFFFFFFFFFFFFFFFFFFFFFFFF AND DUP2 MSTORE PUSH1 0x20 ADD SWAP1 DUP2 MSTORE PUSH1 0x20 ADD PUSH0 KECCAK256 PUSH0 ADD PUSH1 0x1 PUSH2 0x100 EXP DUP2 SLOAD DUP2 PUSH1 0xFF MUL NOT AND SWAP1 DUP4 ISZERO ISZERO MUL OR SWAP1 SSTORE POP PUSH1 0x3 DUP2 DUP2 SLOAD DUP2 LT PUSH2 0x3EE JUMPI PUSH2 0x3ED PUSH2 0x151A JUMP JUMPDEST JUMPDEST SWAP1 PUSH0 MSTORE PUSH1 0x20 PUSH0 KECCAK256 SWAP1 PUSH1 0x3 MUL ADD PUSH0 ADD SLOAD PUSH1 0x2 PUSH0 CALLER PUSH20 0xFFFFFFFFFFFFFFFFFFFFFFFFFFFFFFFFFFFFFFFF AND PUSH20 0xFFFFFFFFFFFFFFFFFFFFFFFFFFFFFFFFFFFFFFFF AND DUP2 MSTORE PUSH1 0x20 ADD SWAP1 DUP2 MSTORE PUSH1 0x20 ADD PUSH0 KECCAK256 PUSH1 0x1 ADD DUP2 SWAP1 SSTORE POP PUSH32 0x4D99B957A2BC29A30EBD96A7BE8E68FE50A3C701DB28A91436490B7D53870CA4 CALLER PUSH1 0x2 PUSH0 CALLER PUSH20 0xFFFFFFFFFFFFFFFFFFFFFFFFFFFFFFFFFFFFFFFF AND PUSH20 0xFFFFFFFFFFFFFFFFFFFFFFFFFFFFFFFFFFFFFFFF AND DUP2 MSTORE PUSH1 0x20 ADD SWAP1 DUP2 MSTORE PUSH1 0x20 ADD PUSH0 KECCAK256 PUSH1 0x1 ADD SLOAD PUSH1 0x40 MLOAD PUSH2 0x4B2 SWAP3 SWAP2 SWAP1 PUSH2 0x15CA JUMP JUMPDEST PUSH1 0x40 MLOAD DUP1 SWAP2 SUB SWAP1 LOG1 POP JUMP JUMPDEST PUSH0 PUSH1 0x5 PUSH0 SWAP1 SLOAD SWAP1 PUSH2 0x100 EXP SWAP1 DIV PUSH1 0xFF AND SWAP1 POP SWAP1 JUMP JUMPDEST PUSH1 0x1 ISZERO ISZERO PUSH1 0x2 PUSH0 CALLER PUSH20 0xFFFFFFFFFFFFFFFFFFFFFFFFFFFFFFFFFFFFFFFF AND PUSH20 0xFFFFFFFFFFFFFFFFFFFFFFFFFFFFFFFFFFFFFFFF AND DUP2 MSTORE PUSH1 0x20 ADD SWAP1 DUP2 MSTORE PUSH1 0x20 ADD PUSH0 KECCAK256 PUSH0 ADD PUSH0 SWAP1 SLOAD SWAP1 PUSH2 0x100 EXP SWAP1 DIV PUSH1 0xFF AND ISZERO ISZERO EQ PUSH2 0x564 JUMPI PUSH1 0x40 MLOAD PUSH32 0x8C379A000000000000000000000000000000000000000000000000000000000 DUP2 MSTORE PUSH1 0x4 ADD PUSH2 0x55B SWAP1 PUSH2 0x142C JUMP JUMPDEST PUSH1 0x40 MLOAD DUP1 SWAP2 SUB SWAP1 REVERT JUMPDEST PUSH1 0x1 PUSH1 0x5 DUP2 GT ISZERO PUSH2 0x578 JUMPI PUSH2 0x577 PUSH2 0xFBF JUMP JUMPDEST JUMPDEST PUSH1 0x5 PUSH0 SWAP1 SLOAD SWAP1 PUSH2 0x100 EXP SWAP1 DIV PUSH1 0xFF AND PUSH1 0x5 DUP2 GT ISZERO PUSH2 0x599 JUMPI PUSH2 0x598 PUSH2 0xFBF JUMP JUMPDEST JUMPDEST EQ PUSH2 0x5D9 JUMPI PUSH1 0x40 MLOAD PUSH32 0x8C379A000000000000000000000000000000000000000000000000000000000 DUP2 MSTORE PUSH1 0x4 ADD PUSH2 0x5D0 SWAP1 PUSH2 0x163B JUMP JUMPDEST PUSH1 0x40 MLOAD DUP1 SWAP2 SUB SWAP1 REVERT JUMPDEST PUSH1 0x3 PUSH1 0x40 MLOAD DUP1 PUSH1 0x60 ADD PUSH1 0x40 MSTORE DUP1 PUSH1 0x4 SLOAD DUP2 MSTORE PUSH1 0x20 ADD DUP5 DUP5 DUP1 DUP1 PUSH1 0x1F ADD PUSH1 0x20 DUP1 SWAP2 DIV MUL PUSH1 0x20 ADD PUSH1 0x40 MLOAD SWAP1 DUP2 ADD PUSH1 0x40 MSTORE DUP1 SWAP4 SWAP3 SWAP2 SWAP1 DUP2 DUP2 MSTORE PUSH1 0x20 ADD DUP4 DUP4 DUP1 DUP3 DUP5 CALLDATACOPY PUSH0 DUP2 DUP5 ADD MSTORE PUSH1 0x1F NOT PUSH1 0x1F DUP3 ADD AND SWAP1 POP DUP1 DUP4 ADD SWAP3 POP POP POP POP POP POP POP DUP2 MSTORE PUSH1 0x20 ADD PUSH0 DUP2 MSTORE POP SWAP1 DUP1 PUSH1 0x1 DUP2 SLOAD ADD DUP1 DUP3 SSTORE DUP1 SWAP2 POP POP PUSH1 0x1 SWAP1 SUB SWAP1 PUSH0 MSTORE PUSH1 0x20 PUSH0 KECCAK256 SWAP1 PUSH1 0x3 MUL ADD PUSH0 SWAP1 SWAP2 SWAP1 SWAP2 SWAP1 SWAP2 POP PUSH0 DUP3 ADD MLOAD DUP2 PUSH0 ADD SSTORE PUSH1 0x20 DUP3 ADD MLOAD DUP2 PUSH1 0x1 ADD SWAP1 DUP2 PUSH2 0x67E SWAP2 SWAP1 PUSH2 0x1880 JUMP JUMPDEST POP PUSH1 0x40 DUP3 ADD MLOAD DUP2 PUSH1 0x2 ADD SSTORE POP POP PUSH32 0x92E393E9B54E2F801D3EA4BEB0C5E71A21CC34A5D34B77D0FB8A3AA1650DC18F PUSH1 0x4 PUSH0 DUP2 SLOAD DUP1 SWAP3 SWAP2 SWAP1 PUSH2 0x6BE SWAP1 PUSH2 0x1574 JUMP JUMPDEST SWAP2 SWAP1 POP SSTORE PUSH1 0x40 MLOAD PUSH2 0x6CF SWAP2 SWAP1 PUSH2 0x194F JUMP JUMPDEST PUSH1 0x40 MLOAD DUP1 SWAP2 SUB SWAP1 LOG1 POP POP JUMP JUMPDEST PUSH1 0x60 PUSH1 0x3 DUP1 SLOAD DUP1 PUSH1 0x20 MUL PUSH1 0x20 ADD PUSH1 0x40 MLOAD SWAP1 DUP2 ADD PUSH1 0x40 MSTORE DUP1 SWAP3 SWAP2 SWAP1 DUP2 DUP2 MSTORE PUSH1 0x20 ADD PUSH0 SWAP1 JUMPDEST DUP3 DUP3 LT ISZERO PUSH2 0x7D1 JUMPI DUP4 DUP3 SWAP1 PUSH0 MSTORE PUSH1 0x20 PUSH0 KECCAK256 SWAP1 PUSH1 0x3 MUL ADD PUSH1 0x40 MLOAD DUP1 PUSH1 0x60 ADD PUSH1 0x40 MSTORE SWAP1 DUP2 PUSH0 DUP3 ADD SLOAD DUP2 MSTORE PUSH1 0x20 ADD PUSH1 0x1 DUP3 ADD DUP1 SLOAD PUSH2 0x738 SWAP1 PUSH2 0x16B3 JUMP JUMPDEST DUP1 PUSH1 0x1F ADD PUSH1 0x20 DUP1 SWAP2 DIV MUL PUSH1 0x20 ADD PUSH1 0x40 MLOAD SWAP1 DUP2 ADD PUSH1 0x40 MSTORE DUP1 SWAP3 SWAP2 SWAP1 DUP2 DUP2 MSTORE PUSH1 0x20 ADD DUP3 DUP1 SLOAD PUSH2 0x764 SWAP1 PUSH2 0x16B3 JUMP JUMPDEST DUP1 ISZERO PUSH2 0x7AF JUMPI DUP1 PUSH1 0x1F LT PUSH2 0x786 JUMPI PUSH2 0x100 DUP1 DUP4 SLOAD DIV MUL DUP4 MSTORE SWAP2 PUSH1 0x20 ADD SWAP2 PUSH2 0x7AF JUMP JUMPDEST DUP3 ADD SWAP2 SWAP1 PUSH0 MSTORE PUSH1 0x20 PUSH0 KECCAK256 SWAP1 JUMPDEST DUP2 SLOAD DUP2 MSTORE SWAP1 PUSH1 0x1 ADD SWAP1 PUSH1 0x20 ADD DUP1 DUP4 GT PUSH2 0x792 JUMPI DUP3 SWAP1 SUB PUSH1 0x1F AND DUP3 ADD SWAP2 JUMPDEST POP POP POP POP POP DUP2 MSTORE PUSH1 0x20 ADD PUSH1 0x2 DUP3 ADD SLOAD DUP2 MSTORE POP POP DUP2 MSTORE PUSH1 0x20 ADD SWAP1 PUSH1 0x1 ADD SWAP1 PUSH2 0x6FE JUMP JUMPDEST POP POP POP POP SWAP1 POP SWAP1 JUMP JUMPDEST PUSH2 0x7E2 PUSH2 0xDEB JUMP JUMPDEST PUSH2 0x7EB PUSH0 PUSH2 0xE72 JUMP JUMPDEST JUMP JUMPDEST PUSH0 DUP1 PUSH0 SWAP1 SLOAD SWAP1 PUSH2 0x100 EXP SWAP1 DIV PUSH20 0xFFFFFFFFFFFFFFFFFFFFFFFFFFFFFFFFFFFFFFFF AND SWAP1 POP SWAP1 JUMP JUMPDEST PUSH2 0x81C PUSH2 0xF3A JUMP JUMPDEST PUSH1 0x5 DUP1 DUP2 GT ISZERO PUSH2 0x82F JUMPI PUSH2 0x82E PUSH2 0xFBF JUMP JUMPDEST JUMPDEST PUSH1 0x5 PUSH0 SWAP1 SLOAD SWAP1 PUSH2 0x100 EXP SWAP1 DIV PUSH1 0xFF AND PUSH1 0x5 DUP2 GT ISZERO PUSH2 0x850 JUMPI PUSH2 0x84F PUSH2 0xFBF JUMP JUMPDEST JUMPDEST EQ PUSH2 0x890 JUMPI PUSH1 0x40 MLOAD PUSH32 0x8C379A000000000000000000000000000000000000000000000000000000000 DUP2 MSTORE PUSH1 0x4 ADD PUSH2 0x887 SWAP1 PUSH2 0x19D8 JUMP JUMPDEST PUSH1 0x40 MLOAD DUP1 SWAP2 SUB SWAP1 REVERT JUMPDEST PUSH0 DUP1 JUMPDEST PUSH1 0x3 DUP1 SLOAD SWAP1 POP DUP2 LT ISZERO PUSH2 0x99D JUMPI PUSH0 PUSH1 0x3 DUP3 DUP2 SLOAD DUP2 LT PUSH2 0x8B5 JUMPI PUSH2 0x8B4 PUSH2 0x151A JUMP JUMPDEST JUMPDEST SWAP1 PUSH0 MSTORE PUSH1 0x20 PUSH0 KECCAK256 SWAP1 PUSH1 0x3 MUL ADD PUSH1 0x40 MLOAD DUP1 PUSH1 0x60 ADD PUSH1 0x40 MSTORE SWAP1 DUP2 PUSH0 DUP3 ADD SLOAD DUP2 MSTORE PUSH1 0x20 ADD PUSH1 0x1 DUP3 ADD DUP1 SLOAD PUSH2 0x8E5 SWAP1 PUSH2 0x16B3 JUMP JUMPDEST DUP1 PUSH1 0x1F ADD PUSH1 0x20 DUP1 SWAP2 DIV MUL PUSH1 0x20 ADD PUSH1 0x40 MLOAD SWAP1 DUP2 ADD PUSH1 0x40 MSTORE DUP1 SWAP3 SWAP2 SWAP1 DUP2 DUP2 MSTORE PUSH1 0x20 ADD DUP3 DUP1 SLOAD PUSH2 0x911 SWAP1 PUSH2 0x16B3 JUMP JUMPDEST DUP1 ISZERO PUSH2 0x95C JUMPI DUP1 PUSH1 0x1F LT PUSH2 0x933 JUMPI PUSH2 0x100 DUP1 DUP4 SLOAD DIV MUL DUP4 MSTORE SWAP2 PUSH1 0x20 ADD SWAP2 PUSH2 0x95C JUMP JUMPDEST DUP3 ADD SWAP2 SWAP1 PUSH0 MSTORE PUSH1 0x20 PUSH0 KECCAK256 SWAP1 JUMPDEST DUP2 SLOAD DUP2 MSTORE SWAP1 PUSH1 0x1 ADD SWAP1 PUSH1 0x20 ADD DUP1 DUP4 GT PUSH2 0x93F JUMPI DUP3 SWAP1 SUB PUSH1 0x1F AND DUP3 ADD SWAP2 JUMPDEST POP POP POP POP POP DUP2 MSTORE PUSH1 0x20 ADD PUSH1 0x2 DUP3 ADD SLOAD DUP2 MSTORE POP POP SWAP1 POP DUP3 DUP2 PUSH1 0x40 ADD MLOAD GT ISZERO PUSH2 0x98F JUMPI DUP1 PUSH0 ADD MLOAD PUSH1 0x1 DUP2 SWAP1 SSTORE POP DUP1 PUSH1 0x40 ADD MLOAD SWAP3 POP JUMPDEST POP DUP1 DUP1 PUSH1 0x1 ADD SWAP2 POP POP PUSH2 0x893 JUMP JUMPDEST POP PUSH1 0x3 PUSH1 0x1 SLOAD DUP2 SLOAD DUP2 LT PUSH2 0x9B4 JUMPI PUSH2 0x9B3 PUSH2 0x151A JUMP JUMPDEST JUMPDEST SWAP1 PUSH0 MSTORE PUSH1 0x20 PUSH0 KECCAK256 SWAP1 PUSH1 0x3 MUL ADD PUSH1 0x40 MLOAD DUP1 PUSH1 0x60 ADD PUSH1 0x40 MSTORE SWAP1 DUP2 PUSH0 DUP3 ADD SLOAD DUP2 MSTORE PUSH1 0x20 ADD PUSH1 0x1 DUP3 ADD DUP1 SLOAD PUSH2 0x9E4 SWAP1 PUSH2 0x16B3 JUMP JUMPDEST DUP1 PUSH1 0x1F ADD PUSH1 0x20 DUP1 SWAP2 DIV MUL PUSH1 0x20 ADD PUSH1 0x40 MLOAD SWAP1 DUP2 ADD PUSH1 0x40 MSTORE DUP1 SWAP3 SWAP2 SWAP1 DUP2 DUP2 MSTORE PUSH1 0x20 ADD DUP3 DUP1 SLOAD PUSH2 0xA10 SWAP1 PUSH2 0x16B3 JUMP JUMPDEST DUP1 ISZERO PUSH2 0xA5B JUMPI DUP1 PUSH1 0x1F LT PUSH2 0xA32 JUMPI PUSH2 0x100 DUP1 DUP4 SLOAD DIV MUL DUP4 MSTORE SWAP2 PUSH1 0x20 ADD SWAP2 PUSH2 0xA5B JUMP JUMPDEST DUP3 ADD SWAP2 SWAP1 PUSH0 MSTORE PUSH1 0x20 PUSH0 KECCAK256 SWAP1 JUMPDEST DUP2 SLOAD DUP2 MSTORE SWAP1 PUSH1 0x1 ADD SWAP1 PUSH1 0x20 ADD DUP1 DUP4 GT PUSH2 0xA3E JUMPI DUP3 SWAP1 SUB PUSH1 0x1F AND DUP3 ADD SWAP2 JUMPDEST POP POP POP POP POP DUP2 MSTORE PUSH1 0x20 ADD PUSH1 0x2 DUP3 ADD SLOAD DUP2 MSTORE POP POP SWAP2 POP POP SWAP1 JUMP JUMPDEST PUSH2 0xA7C PUSH2 0xDEB JUMP JUMPDEST PUSH1 0x5 DUP1 DUP2 GT ISZERO PUSH2 0xA8F JUMPI PUSH2 0xA8E PUSH2 0xFBF JUMP JUMPDEST JUMPDEST PUSH1 0x5 PUSH0 SWAP1 SLOAD SWAP1 PUSH2 0x100 EXP SWAP1 DIV PUSH1 0xFF AND PUSH1 0x5 DUP2 GT ISZERO PUSH2 0xAB0 JUMPI PUSH2 0xAAF PUSH2 0xFBF JUMP JUMPDEST JUMPDEST EQ PUSH2 0xAF0 JUMPI PUSH1 0x40 MLOAD PUSH32 0x8C379A000000000000000000000000000000000000000000000000000000000 DUP2 MSTORE PUSH1 0x4 ADD PUSH2 0xAE7 SWAP1 PUSH2 0x19D8 JUMP JUMPDEST PUSH1 0x40 MLOAD DUP1 SWAP2 SUB SWAP1 REVERT JUMPDEST PUSH0 PUSH1 0x5 PUSH0 PUSH2 0x100 EXP DUP2 SLOAD DUP2 PUSH1 0xFF MUL NOT AND SWAP1 DUP4 PUSH1 0x5 DUP2 GT ISZERO PUSH2 0xB14 JUMPI PUSH2 0xB13 PUSH2 0xFBF JUMP JUMPDEST JUMPDEST MUL OR SWAP1 SSTORE POP JUMP JUMPDEST PUSH2 0xB23 PUSH2 0xDEB JUMP JUMPDEST PUSH0 PUSH20 0xFFFFFFFFFFFFFFFFFFFFFFFFFFFFFFFFFFFFFFFF AND DUP2 PUSH20 0xFFFFFFFFFFFFFFFFFFFFFFFFFFFFFFFFFFFFFFFF AND SUB PUSH2 0xB93 JUMPI PUSH0 PUSH1 0x40 MLOAD PUSH32 0x1E4FBDF700000000000000000000000000000000000000000000000000000000 DUP2 MSTORE PUSH1 0x4 ADD PUSH2 0xB8A SWAP2 SWAP1 PUSH2 0x12F7 JUMP JUMPDEST PUSH1 0x40 MLOAD DUP1 SWAP2 SUB SWAP1 REVERT JUMPDEST PUSH2 0xB9C DUP2 PUSH2 0xE72 JUMP JUMPDEST POP JUMP JUMPDEST PUSH2 0xBA7 PUSH2 0xDEB JUMP JUMPDEST PUSH0 PUSH1 0x5 DUP2 GT ISZERO PUSH2 0xBBA JUMPI PUSH2 0xBB9 PUSH2 0xFBF JUMP JUMPDEST JUMPDEST PUSH1 0x5 PUSH0 SWAP1 SLOAD SWAP1 PUSH2 0x100 EXP SWAP1 DIV PUSH1 0xFF AND PUSH1 0x5 DUP2 GT ISZERO PUSH2 0xBDB JUMPI PUSH2 0xBDA PUSH2 0xFBF JUMP JUMPDEST JUMPDEST EQ PUSH2 0xC1B JUMPI PUSH1 0x40 MLOAD PUSH32 0x8C379A000000000000000000000000000000000000000000000000000000000 DUP2 MSTORE PUSH1 0x4 ADD PUSH2 0xC12 SWAP1 PUSH2 0x1A40 JUMP JUMPDEST PUSH1 0x40 MLOAD DUP1 SWAP2 SUB SWAP1 REVERT JUMPDEST PUSH1 0x1 PUSH1 0x2 PUSH0 DUP4 PUSH20 0xFFFFFFFFFFFFFFFFFFFFFFFFFFFFFFFFFFFFFFFF AND PUSH20 0xFFFFFFFFFFFFFFFFFFFFFFFFFFFFFFFFFFFFFFFF AND DUP2 MSTORE PUSH1 0x20 ADD SWAP1 DUP2 MSTORE PUSH1 0x20 ADD PUSH0 KECCAK256 PUSH0 ADD PUSH0 PUSH2 0x100 EXP DUP2 SLOAD DUP2 PUSH1 0xFF MUL NOT AND SWAP1 DUP4 ISZERO ISZERO MUL OR SWAP1 SSTORE POP PUSH32 0xB6BE2187D059CC2A55FE29E0E503B566E1E0F8C8780096E185429350ACFFD3DD DUP2 PUSH1 0x40 MLOAD PUSH2 0xCA1 SWAP2 SWAP1 PUSH2 0x12F7 JUMP JUMPDEST PUSH1 0x40 MLOAD DUP1 SWAP2 SUB SWAP1 LOG1 POP JUMP JUMPDEST PUSH2 0xCB4 PUSH2 0xDEB JUMP JUMPDEST PUSH1 0x5 DUP1 DUP2 GT ISZERO PUSH2 0xCC7 JUMPI PUSH2 0xCC6 PUSH2 0xFBF JUMP JUMPDEST JUMPDEST PUSH1 0x5 PUSH0 SWAP1 SLOAD SWAP1 PUSH2 0x100 EXP SWAP1 DIV PUSH1 0xFF AND PUSH1 0x5 DUP2 GT ISZERO PUSH2 0xCE8 JUMPI PUSH2 0xCE7 PUSH2 0xFBF JUMP JUMPDEST JUMPDEST SUB PUSH2 0xD28 JUMPI PUSH1 0x40 MLOAD PUSH32 0x8C379A000000000000000000000000000000000000000000000000000000000 DUP2 MSTORE PUSH1 0x4 ADD PUSH2 0xD1F SWAP1 PUSH2 0x1ACE JUMP JUMPDEST PUSH1 0x40 MLOAD DUP1 SWAP2 SUB SWAP1 REVERT JUMPDEST PUSH0 PUSH1 0x5 PUSH0 SWAP1 SLOAD SWAP1 PUSH2 0x100 EXP SWAP1 DIV PUSH1 0xFF AND SWAP1 POP PUSH1 0x1 PUSH1 0x5 PUSH0 SWAP1 SLOAD SWAP1 PUSH2 0x100 EXP SWAP1 DIV PUSH1 0xFF AND PUSH1 0x5 DUP2 GT ISZERO PUSH2 0xD5D JUMPI PUSH2 0xD5C PUSH2 0xFBF JUMP JUMPDEST JUMPDEST PUSH2 0xD67 SWAP2 SWAP1 PUSH2 0x1AEC JUMP JUMPDEST PUSH1 0x5 DUP2 GT ISZERO PUSH2 0xD79 JUMPI PUSH2 0xD78 PUSH2 0xFBF JUMP JUMPDEST JUMPDEST PUSH1 0x5 PUSH0 PUSH2 0x100 EXP DUP2 SLOAD DUP2 PUSH1 0xFF MUL NOT AND SWAP1 DUP4 PUSH1 0x5 DUP2 GT ISZERO PUSH2 0xD9C JUMPI PUSH2 0xD9B PUSH2 0xFBF JUMP JUMPDEST JUMPDEST MUL OR SWAP1 SSTORE POP PUSH32 0xA97A4EE45751E2ABF3E4FC8946939630B11B371EA8AE39CCDC3056E98F5CC3F DUP2 PUSH1 0x5 PUSH0 SWAP1 SLOAD SWAP1 PUSH2 0x100 EXP SWAP1 DIV PUSH1 0xFF AND PUSH1 0x40 MLOAD PUSH2 0xDE0 SWAP3 SWAP2 SWAP1 PUSH2 0x1B1F JUMP JUMPDEST PUSH1 0x40 MLOAD DUP1 SWAP2 SUB SWAP1 LOG1 POP JUMP JUMPDEST PUSH2 0xDF3 PUSH2 0xF33 JUMP JUMPDEST PUSH20 0xFFFFFFFFFFFFFFFFFFFFFFFFFFFFFFFFFFFFFFFF AND PUSH2 0xE11 PUSH2 0x7ED JUMP JUMPDEST PUSH20 0xFFFFFFFFFFFFFFFFFFFFFFFFFFFFFFFFFFFFFFFF AND EQ PUSH2 0xE70 JUMPI PUSH2 0xE34 PUSH2 0xF33 JUMP JUMPDEST PUSH1 0x40 MLOAD PUSH32 0x118CDAA700000000000000000000000000000000000000000000000000000000 DUP2 MSTORE PUSH1 0x4 ADD PUSH2 0xE67 SWAP2 SWAP1 PUSH2 0x12F7 JUMP JUMPDEST PUSH1 0x40 MLOAD DUP1 SWAP2 SUB SWAP1 REVERT JUMPDEST JUMP JUMPDEST PUSH0 DUP1 PUSH0 SWAP1 SLOAD SWAP1 PUSH2 0x100 EXP SWAP1 DIV PUSH20 0xFFFFFFFFFFFFFFFFFFFFFFFFFFFFFFFFFFFFFFFF AND SWAP1 POP DUP2 PUSH0 DUP1 PUSH2 0x100 EXP DUP2 SLOAD DUP2 PUSH20 0xFFFFFFFFFFFFFFFFFFFFFFFFFFFFFFFFFFFFFFFF MUL NOT AND SWAP1 DUP4 PUSH20 0xFFFFFFFFFFFFFFFFFFFFFFFFFFFFFFFFFFFFFFFF AND MUL OR SWAP1 SSTORE POP DUP2 PUSH20 0xFFFFFFFFFFFFFFFFFFFFFFFFFFFFFFFFFFFFFFFF AND DUP2 PUSH20 0xFFFFFFFFFFFFFFFFFFFFFFFFFFFFFFFFFFFFFFFF AND PUSH32 0x8BE0079C531659141344CD1FD0A4F28419497F9722A3DAAFE3B4186F6B6457E0 PUSH1 0x40 MLOAD PUSH1 0x40 MLOAD DUP1 SWAP2 SUB SWAP1 LOG3 POP POP JUMP JUMPDEST PUSH0 CALLER SWAP1 POP SWAP1 JUMP JUMPDEST PUSH1 0x40 MLOAD DUP1 PUSH1 0x60 ADD PUSH1 0x40 MSTORE DUP1 PUSH0 DUP2 MSTORE PUSH1 0x20 ADD PUSH1 0x60 DUP2 MSTORE PUSH1 0x20 ADD PUSH0 DUP2 MSTORE POP SWAP1 JUMP JUMPDEST PUSH0 DUP1 REVERT JUMPDEST PUSH0 DUP1 REVERT JUMPDEST PUSH0 DUP2 SWAP1 POP SWAP2 SWAP1 POP JUMP JUMPDEST PUSH2 0xF73 DUP2 PUSH2 0xF61 JUMP JUMPDEST DUP2 EQ PUSH2 0xF7D JUMPI PUSH0 DUP1 REVERT JUMPDEST POP JUMP JUMPDEST PUSH0 DUP2 CALLDATALOAD SWAP1 POP PUSH2 0xF8E DUP2 PUSH2 0xF6A JUMP JUMPDEST SWAP3 SWAP2 POP POP JUMP JUMPDEST PUSH0 PUSH1 0x20 DUP3 DUP5 SUB SLT ISZERO PUSH2 0xFA9 JUMPI PUSH2 0xFA8 PUSH2 0xF59 JUMP JUMPDEST JUMPDEST PUSH0 PUSH2 0xFB6 DUP5 DUP3 DUP6 ADD PUSH2 0xF80 JUMP JUMPDEST SWAP2 POP POP SWAP3 SWAP2 POP POP JUMP JUMPDEST PUSH32 0x4E487B7100000000000000000000000000000000000000000000000000000000 PUSH0 MSTORE PUSH1 0x21 PUSH1 0x4 MSTORE PUSH1 0x24 PUSH0 REVERT JUMPDEST PUSH1 0x6 DUP2 LT PUSH2 0xFFD JUMPI PUSH2 0xFFC PUSH2 0xFBF JUMP JUMPDEST JUMPDEST POP JUMP JUMPDEST PUSH0 DUP2 SWAP1 POP PUSH2 0x100D DUP3 PUSH2 0xFEC JUMP JUMPDEST SWAP2 SWAP1 POP JUMP JUMPDEST PUSH0 PUSH2 0x101C DUP3 PUSH2 0x1000 JUMP JUMPDEST SWAP1 POP SWAP2 SWAP1 POP JUMP JUMPDEST PUSH2 0x102C DUP2 PUSH2 0x1012 JUMP JUMPDEST DUP3 MSTORE POP POP JUMP JUMPDEST PUSH0 PUSH1 0x20 DUP3 ADD SWAP1 POP PUSH2 0x1045 PUSH0 DUP4 ADD DUP5 PUSH2 0x1023 JUMP JUMPDEST SWAP3 SWAP2 POP POP JUMP JUMPDEST PUSH0 DUP1 REVERT JUMPDEST PUSH0 DUP1 REVERT JUMPDEST PUSH0 DUP1 REVERT JUMPDEST PUSH0 DUP1 DUP4 PUSH1 0x1F DUP5 ADD SLT PUSH2 0x106C JUMPI PUSH2 0x106B PUSH2 0x104B JUMP JUMPDEST JUMPDEST DUP3 CALLDATALOAD SWAP1 POP PUSH8 0xFFFFFFFFFFFFFFFF DUP2 GT ISZERO PUSH2 0x1089 JUMPI PUSH2 0x1088 PUSH2 0x104F JUMP JUMPDEST JUMPDEST PUSH1 0x20 DUP4 ADD SWAP2 POP DUP4 PUSH1 0x1 DUP3 MUL DUP4 ADD GT ISZERO PUSH2 0x10A5 JUMPI PUSH2 0x10A4 PUSH2 0x1053 JUMP JUMPDEST JUMPDEST SWAP3 POP SWAP3 SWAP1 POP JUMP JUMPDEST PUSH0 DUP1 PUSH1 0x20 DUP4 DUP6 SUB SLT ISZERO PUSH2 0x10C2 JUMPI PUSH2 0x10C1 PUSH2 0xF59 JUMP JUMPDEST JUMPDEST PUSH0 DUP4 ADD CALLDATALOAD PUSH8 0xFFFFFFFFFFFFFFFF DUP2 GT ISZERO PUSH2 0x10DF JUMPI PUSH2 0x10DE PUSH2 0xF5D JUMP JUMPDEST JUMPDEST PUSH2 0x10EB DUP6 DUP3 DUP7 ADD PUSH2 0x1057 JUMP JUMPDEST SWAP3 POP SWAP3 POP POP SWAP3 POP SWAP3 SWAP1 POP JUMP JUMPDEST PUSH0 DUP2 MLOAD SWAP1 POP SWAP2 SWAP1 POP JUMP JUMPDEST PUSH0 DUP3 DUP3 MSTORE PUSH1 0x20 DUP3 ADD SWAP1 POP SWAP3 SWAP2 POP POP JUMP JUMPDEST PUSH0 DUP2 SWAP1 POP PUSH1 0x20 DUP3 ADD SWAP1 POP SWAP2 SWAP1 POP JUMP JUMPDEST PUSH2 0x1129 DUP2 PUSH2 0xF61 JUMP JUMPDEST DUP3 MSTORE POP POP JUMP JUMPDEST PUSH0 DUP2 MLOAD SWAP1 POP SWAP2 SWAP1 POP JUMP JUMPDEST PUSH0 DUP3 DUP3 MSTORE PUSH1 0x20 DUP3 ADD SWAP1 POP SWAP3 SWAP2 POP POP JUMP JUMPDEST PUSH0 JUMPDEST DUP4 DUP2 LT ISZERO PUSH2 0x1166 JUMPI DUP1 DUP3 ADD MLOAD DUP2 DUP5 ADD MSTORE PUSH1 0x20 DUP2 ADD SWAP1 POP PUSH2 0x114B JUMP JUMPDEST PUSH0 DUP5 DUP5 ADD MSTORE POP POP POP POP JUMP JUMPDEST PUSH0 PUSH1 0x1F NOT PUSH1 0x1F DUP4 ADD AND SWAP1 POP SWAP2 SWAP1 POP JUMP JUMPDEST PUSH0 PUSH2 0x118B DUP3 PUSH2 0x112F JUMP JUMPDEST PUSH2 0x1195 DUP2 DUP6 PUSH2 0x1139 JUMP JUMPDEST SWAP4 POP PUSH2 0x11A5 DUP2 DUP6 PUSH1 0x20 DUP7 ADD PUSH2 0x1149 JUMP JUMPDEST PUSH2 0x11AE DUP2 PUSH2 0x1171 JUMP JUMPDEST DUP5 ADD SWAP2 POP POP SWAP3 SWAP2 POP POP JUMP JUMPDEST PUSH0 PUSH1 0x60 DUP4 ADD PUSH0 DUP4 ADD MLOAD PUSH2 0x11CE PUSH0 DUP7 ADD DUP3 PUSH2 0x1120 JUMP JUMPDEST POP PUSH1 0x20 DUP4 ADD MLOAD DUP5 DUP3 SUB PUSH1 0x20 DUP7 ADD MSTORE PUSH2 0x11E6 DUP3 DUP3 PUSH2 0x1181 JUMP JUMPDEST SWAP2 POP POP PUSH1 0x40 DUP4 ADD MLOAD PUSH2 0x11FB PUSH1 0x40 DUP7 ADD DUP3 PUSH2 0x1120 JUMP JUMPDEST POP DUP1 SWAP2 POP POP SWAP3 SWAP2 POP POP JUMP JUMPDEST PUSH0 PUSH2 0x1211 DUP4 DUP4 PUSH2 0x11B9 JUMP JUMPDEST SWAP1 POP SWAP3 SWAP2 POP POP JUMP JUMPDEST PUSH0 PUSH1 0x20 DUP3 ADD SWAP1 POP SWAP2 SWAP1 POP JUMP JUMPDEST PUSH0 PUSH2 0x122F DUP3 PUSH2 0x10F7 JUMP JUMPDEST PUSH2 0x1239 DUP2 DUP6 PUSH2 0x1101 JUMP JUMPDEST SWAP4 POP DUP4 PUSH1 0x20 DUP3 MUL DUP6 ADD PUSH2 0x124B DUP6 PUSH2 0x1111 JUMP JUMPDEST DUP1 PUSH0 JUMPDEST DUP6 DUP2 LT ISZERO PUSH2 0x1286 JUMPI DUP5 DUP5 SUB DUP10 MSTORE DUP2 MLOAD PUSH2 0x1267 DUP6 DUP3 PUSH2 0x1206 JUMP JUMPDEST SWAP5 POP PUSH2 0x1272 DUP4 PUSH2 0x1219 JUMP JUMPDEST SWAP3 POP PUSH1 0x20 DUP11 ADD SWAP10 POP POP PUSH1 0x1 DUP2 ADD SWAP1 POP PUSH2 0x124E JUMP JUMPDEST POP DUP3 SWAP8 POP DUP8 SWAP6 POP POP POP POP POP POP SWAP3 SWAP2 POP POP JUMP JUMPDEST PUSH0 PUSH1 0x20 DUP3 ADD SWAP1 POP DUP2 DUP2 SUB PUSH0 DUP4 ADD MSTORE PUSH2 0x12B0 DUP2 DUP5 PUSH2 0x1225 JUMP JUMPDEST SWAP1 POP SWAP3 SWAP2 POP POP JUMP JUMPDEST PUSH0 PUSH20 0xFFFFFFFFFFFFFFFFFFFFFFFFFFFFFFFFFFFFFFFF DUP3 AND SWAP1 POP SWAP2 SWAP1 POP JUMP JUMPDEST PUSH0 PUSH2 0x12E1 DUP3 PUSH2 0x12B8 JUMP JUMPDEST SWAP1 POP SWAP2 SWAP1 POP JUMP JUMPDEST PUSH2 0x12F1 DUP2 PUSH2 0x12D7 JUMP JUMPDEST DUP3 MSTORE POP POP JUMP JUMPDEST PUSH0 PUSH1 0x20 DUP3 ADD SWAP1 POP PUSH2 0x130A PUSH0 DUP4 ADD DUP5 PUSH2 0x12E8 JUMP JUMPDEST SWAP3 SWAP2 POP POP JUMP JUMPDEST PUSH0 PUSH1 0x60 DUP4 ADD PUSH0 DUP4 ADD MLOAD PUSH2 0x1325 PUSH0 DUP7 ADD DUP3 PUSH2 0x1120 JUMP JUMPDEST POP PUSH1 0x20 DUP4 ADD MLOAD DUP5 DUP3 SUB PUSH1 0x20 DUP7 ADD MSTORE PUSH2 0x133D DUP3 DUP3 PUSH2 0x1181 JUMP JUMPDEST SWAP2 POP POP PUSH1 0x40 DUP4 ADD MLOAD PUSH2 0x1352 PUSH1 0x40 DUP7 ADD DUP3 PUSH2 0x1120 JUMP JUMPDEST POP DUP1 SWAP2 POP POP SWAP3 SWAP2 POP POP JUMP JUMPDEST PUSH0 PUSH1 0x20 DUP3 ADD SWAP1 POP DUP2 DUP2 SUB PUSH0 DUP4 ADD MSTORE PUSH2 0x1375 DUP2 DUP5 PUSH2 0x1310 JUMP JUMPDEST SWAP1 POP SWAP3 SWAP2 POP POP JUMP JUMPDEST PUSH2 0x1386 DUP2 PUSH2 0x12D7 JUMP JUMPDEST DUP2 EQ PUSH2 0x1390 JUMPI PUSH0 DUP1 REVERT JUMPDEST POP JUMP JUMPDEST PUSH0 DUP2 CALLDATALOAD SWAP1 POP PUSH2 0x13A1 DUP2 PUSH2 0x137D JUMP JUMPDEST SWAP3 SWAP2 POP POP JUMP JUMPDEST PUSH0 PUSH1 0x20 DUP3 DUP5 SUB SLT ISZERO PUSH2 0x13BC JUMPI PUSH2 0x13BB PUSH2 0xF59 JUMP JUMPDEST JUMPDEST PUSH0 PUSH2 0x13C9 DUP5 DUP3 DUP6 ADD PUSH2 0x1393 JUMP JUMPDEST SWAP2 POP POP SWAP3 SWAP2 POP POP JUMP JUMPDEST PUSH0 DUP3 DUP3 MSTORE PUSH1 0x20 DUP3 ADD SWAP1 POP SWAP3 SWAP2 POP POP JUMP JUMPDEST PUSH32 0x596F7520617265206E6F7420612076616C696420766F74657221000000000000 PUSH0 DUP3 ADD MSTORE POP JUMP JUMPDEST PUSH0 PUSH2 0x1416 PUSH1 0x1A DUP4 PUSH2 0x13D2 JUMP JUMPDEST SWAP2 POP PUSH2 0x1421 DUP3 PUSH2 0x13E2 JUMP JUMPDEST PUSH1 0x20 DUP3 ADD SWAP1 POP SWAP2 SWAP1 POP JUMP JUMPDEST PUSH0 PUSH1 0x20 DUP3 ADD SWAP1 POP DUP2 DUP2 SUB PUSH0 DUP4 ADD MSTORE PUSH2 0x1443 DUP2 PUSH2 0x140A JUMP JUMPDEST SWAP1 POP SWAP2 SWAP1 POP JUMP JUMPDEST PUSH32 0x596F752063616E6E6F7420766F74652070726F706F73616C732E000000000000 PUSH0 DUP3 ADD MSTORE POP JUMP JUMPDEST PUSH0 PUSH2 0x147E PUSH1 0x1A DUP4 PUSH2 0x13D2 JUMP JUMPDEST SWAP2 POP PUSH2 0x1489 DUP3 PUSH2 0x144A JUMP JUMPDEST PUSH1 0x20 DUP3 ADD SWAP1 POP SWAP2 SWAP1 POP JUMP JUMPDEST PUSH0 PUSH1 0x20 DUP3 ADD SWAP1 POP DUP2 DUP2 SUB PUSH0 DUP4 ADD MSTORE PUSH2 0x14AB DUP2 PUSH2 0x1472 JUMP JUMPDEST SWAP1 POP SWAP2 SWAP1 POP JUMP JUMPDEST PUSH32 0x596F7520616C726561647920766F746564210000000000000000000000000000 PUSH0 DUP3 ADD MSTORE POP JUMP JUMPDEST PUSH0 PUSH2 0x14E6 PUSH1 0x12 DUP4 PUSH2 0x13D2 JUMP JUMPDEST SWAP2 POP PUSH2 0x14F1 DUP3 PUSH2 0x14B2 JUMP JUMPDEST PUSH1 0x20 DUP3 ADD SWAP1 POP SWAP2 SWAP1 POP JUMP JUMPDEST PUSH0 PUSH1 0x20 DUP3 ADD SWAP1 POP DUP2 DUP2 SUB PUSH0 DUP4 ADD MSTORE PUSH2 0x1513 DUP2 PUSH2 0x14DA JUMP JUMPDEST SWAP1 POP SWAP2 SWAP1 POP JUMP JUMPDEST PUSH32 0x4E487B7100000000000000000000000000000000000000000000000000000000 PUSH0 MSTORE PUSH1 0x32 PUSH1 0x4 MSTORE PUSH1 0x24 PUSH0 REVERT JUMPDEST PUSH32 0x4E487B7100000000000000000000000000000000000000000000000000000000 PUSH0 MSTORE PUSH1 0x11 PUSH1 0x4 MSTORE PUSH1 0x24 PUSH0 REVERT JUMPDEST PUSH0 PUSH2 0x157E DUP3 PUSH2 0xF61 JUMP JUMPDEST SWAP2 POP PUSH32 0xFFFFFFFFFFFFFFFFFFFFFFFFFFFFFFFFFFFFFFFFFFFFFFFFFFFFFFFFFFFFFFFF DUP3 SUB PUSH2 0x15B0 JUMPI PUSH2 0x15AF PUSH2 0x1547 JUMP JUMPDEST JUMPDEST PUSH1 0x1 DUP3 ADD SWAP1 POP SWAP2 SWAP1 POP JUMP JUMPDEST PUSH2 0x15C4 DUP2 PUSH2 0xF61 JUMP JUMPDEST DUP3 MSTORE POP POP JUMP JUMPDEST PUSH0 PUSH1 0x40 DUP3 ADD SWAP1 POP PUSH2 0x15DD PUSH0 DUP4 ADD DUP6 PUSH2 0x12E8 JUMP JUMPDEST PUSH2 0x15EA PUSH1 0x20 DUP4 ADD DUP5 PUSH2 0x15BB JUMP JUMPDEST SWAP4 SWAP3 POP POP POP JUMP JUMPDEST PUSH32 0x596F752063616E6E6F742072656769737465722070726F706F73616C732E0000 PUSH0 DUP3 ADD MSTORE POP JUMP JUMPDEST PUSH0 PUSH2 0x1625 PUSH1 0x1E DUP4 PUSH2 0x13D2 JUMP JUMPDEST SWAP2 POP PUSH2 0x1630 DUP3 PUSH2 0x15F1 JUMP JUMPDEST PUSH1 0x20 DUP3 ADD SWAP1 POP SWAP2 SWAP1 POP JUMP JUMPDEST PUSH0 PUSH1 0x20 DUP3 ADD SWAP1 POP DUP2 DUP2 SUB PUSH0 DUP4 ADD MSTORE PUSH2 0x1652 DUP2 PUSH2 0x1619 JUMP JUMPDEST SWAP1 POP SWAP2 SWAP1 POP JUMP JUMPDEST PUSH32 0x4E487B7100000000000000000000000000000000000000000000000000000000 PUSH0 MSTORE PUSH1 0x41 PUSH1 0x4 MSTORE PUSH1 0x24 PUSH0 REVERT JUMPDEST PUSH32 0x4E487B7100000000000000000000000000000000000000000000000000000000 PUSH0 MSTORE PUSH1 0x22 PUSH1 0x4 MSTORE PUSH1 0x24 PUSH0 REVERT JUMPDEST PUSH0 PUSH1 0x2 DUP3 DIV SWAP1 POP PUSH1 0x1 DUP3 AND DUP1 PUSH2 0x16CA JUMPI PUSH1 0x7F DUP3 AND SWAP2 POP JUMPDEST PUSH1 0x20 DUP3 LT DUP2 SUB PUSH2 0x16DD JUMPI PUSH2 0x16DC PUSH2 0x1686 JUMP JUMPDEST JUMPDEST POP SWAP2 SWAP1 POP JUMP JUMPDEST PUSH0 DUP2 SWAP1 POP DUP2 PUSH0 MSTORE PUSH1 0x20 PUSH0 KECCAK256 SWAP1 POP SWAP2 SWAP1 POP JUMP JUMPDEST PUSH0 PUSH1 0x20 PUSH1 0x1F DUP4 ADD DIV SWAP1 POP SWAP2 SWAP1 POP JUMP JUMPDEST PUSH0 DUP3 DUP3 SHL SWAP1 POP SWAP3 SWAP2 POP POP JUMP JUMPDEST PUSH0 PUSH1 0x8 DUP4 MUL PUSH2 0x173F PUSH32 0xFFFFFFFFFFFFFFFFFFFFFFFFFFFFFFFFFFFFFFFFFFFFFFFFFFFFFFFFFFFFFFFF DUP3 PUSH2 0x1704 JUMP JUMPDEST PUSH2 0x1749 DUP7 DUP4 PUSH2 0x1704 JUMP JUMPDEST SWAP6 POP DUP1 NOT DUP5 AND SWAP4 POP DUP1 DUP7 AND DUP5 OR SWAP3 POP POP POP SWAP4 SWAP3 POP POP POP JUMP JUMPDEST PUSH0 DUP2 SWAP1 POP SWAP2 SWAP1 POP JUMP JUMPDEST PUSH0 PUSH2 0x1784 PUSH2 0x177F PUSH2 0x177A DUP5 PUSH2 0xF61 JUMP JUMPDEST PUSH2 0x1761 JUMP JUMPDEST PUSH2 0xF61 JUMP JUMPDEST SWAP1 POP SWAP2 SWAP1 POP JUMP JUMPDEST PUSH0 DUP2 SWAP1 POP SWAP2 SWAP1 POP JUMP JUMPDEST PUSH2 0x179D DUP4 PUSH2 0x176A JUMP JUMPDEST PUSH2 0x17B1 PUSH2 0x17A9 DUP3 PUSH2 0x178B JUMP JUMPDEST DUP5 DUP5 SLOAD PUSH2 0x1710 JUMP JUMPDEST DUP3 SSTORE POP POP POP POP JUMP JUMPDEST PUSH0 SWAP1 JUMP JUMPDEST PUSH2 0x17C5 PUSH2 0x17B9 JUMP JUMPDEST PUSH2 0x17D0 DUP2 DUP5 DUP5 PUSH2 0x1794 JUMP JUMPDEST POP POP POP JUMP JUMPDEST JUMPDEST DUP2 DUP2 LT ISZERO PUSH2 0x17F3 JUMPI PUSH2 0x17E8 PUSH0 DUP3 PUSH2 0x17BD JUMP JUMPDEST PUSH1 0x1 DUP2 ADD SWAP1 POP PUSH2 0x17D6 JUMP JUMPDEST POP POP JUMP JUMPDEST PUSH1 0x1F DUP3 GT ISZERO PUSH2 0x1838 JUMPI PUSH2 0x1809 DUP2 PUSH2 0x16E3 JUMP JUMPDEST PUSH2 0x1812 DUP5 PUSH2 0x16F5 JUMP JUMPDEST DUP2 ADD PUSH1 0x20 DUP6 LT ISZERO PUSH2 0x1821 JUMPI DUP2 SWAP1 POP JUMPDEST PUSH2 0x1835 PUSH2 0x182D DUP6 PUSH2 0x16F5 JUMP JUMPDEST DUP4 ADD DUP3 PUSH2 0x17D5 JUMP JUMPDEST POP POP JUMPDEST POP POP POP JUMP JUMPDEST PUSH0 DUP3 DUP3 SHR SWAP1 POP SWAP3 SWAP2 POP POP JUMP JUMPDEST PUSH0 PUSH2 0x1858 PUSH0 NOT DUP5 PUSH1 0x8 MUL PUSH2 0x183D JUMP JUMPDEST NOT DUP1 DUP4 AND SWAP2 POP POP SWAP3 SWAP2 POP POP JUMP JUMPDEST PUSH0 PUSH2 0x1870 DUP4 DUP4 PUSH2 0x1849 JUMP JUMPDEST SWAP2 POP DUP3 PUSH1 0x2 MUL DUP3 OR SWAP1 POP SWAP3 SWAP2 POP POP JUMP JUMPDEST PUSH2 0x1889 DUP3 PUSH2 0x112F JUMP JUMPDEST PUSH8 0xFFFFFFFFFFFFFFFF DUP2 GT ISZERO PUSH2 0x18A2 JUMPI PUSH2 0x18A1 PUSH2 0x1659 JUMP JUMPDEST JUMPDEST PUSH2 0x18AC DUP3 SLOAD PUSH2 0x16B3 JUMP JUMPDEST PUSH2 0x18B7 DUP3 DUP3 DUP6 PUSH2 0x17F7 JUMP JUMPDEST PUSH0 PUSH1 0x20 SWAP1 POP PUSH1 0x1F DUP4 GT PUSH1 0x1 DUP2 EQ PUSH2 0x18E8 JUMPI PUSH0 DUP5 ISZERO PUSH2 0x18D6 JUMPI DUP3 DUP8 ADD MLOAD SWAP1 POP JUMPDEST PUSH2 0x18E0 DUP6 DUP3 PUSH2 0x1865 JUMP JUMPDEST DUP7 SSTORE POP PUSH2 0x1947 JUMP JUMPDEST PUSH1 0x1F NOT DUP5 AND PUSH2 0x18F6 DUP7 PUSH2 0x16E3 JUMP JUMPDEST PUSH0 JUMPDEST DUP3 DUP2 LT ISZERO PUSH2 0x191D JUMPI DUP5 DUP10 ADD MLOAD DUP3 SSTORE PUSH1 0x1 DUP3 ADD SWAP2 POP PUSH1 0x20 DUP6 ADD SWAP5 POP PUSH1 0x20 DUP2 ADD SWAP1 POP PUSH2 0x18F8 JUMP JUMPDEST DUP7 DUP4 LT ISZERO PUSH2 0x193A JUMPI DUP5 DUP10 ADD MLOAD PUSH2 0x1936 PUSH1 0x1F DUP10 AND DUP3 PUSH2 0x1849 JUMP JUMPDEST DUP4 SSTORE POP JUMPDEST PUSH1 0x1 PUSH1 0x2 DUP9 MUL ADD DUP9 SSTORE POP POP POP JUMPDEST POP POP POP POP POP POP JUMP JUMPDEST PUSH0 PUSH1 0x20 DUP3 ADD SWAP1 POP PUSH2 0x1962 PUSH0 DUP4 ADD DUP5 PUSH2 0x15BB JUMP JUMPDEST SWAP3 SWAP2 POP POP JUMP JUMPDEST PUSH32 0x566F746573206E65656420746F2062652074616C6C69656420696E206F726465 PUSH0 DUP3 ADD MSTORE PUSH32 0x7220746F20646F20746861742E00000000000000000000000000000000000000 PUSH1 0x20 DUP3 ADD MSTORE POP JUMP JUMPDEST PUSH0 PUSH2 0x19C2 PUSH1 0x2D DUP4 PUSH2 0x13D2 JUMP JUMPDEST SWAP2 POP PUSH2 0x19CD DUP3 PUSH2 0x1968 JUMP JUMPDEST PUSH1 0x40 DUP3 ADD SWAP1 POP SWAP2 SWAP1 POP JUMP JUMPDEST PUSH0 PUSH1 0x20 DUP3 ADD SWAP1 POP DUP2 DUP2 SUB PUSH0 DUP4 ADD MSTORE PUSH2 0x19EF DUP2 PUSH2 0x19B6 JUMP JUMPDEST SWAP1 POP SWAP2 SWAP1 POP JUMP JUMPDEST PUSH32 0x596F752063616E6E6F7420726567697374657220766F746572732E0000000000 PUSH0 DUP3 ADD MSTORE POP JUMP JUMPDEST PUSH0 PUSH2 0x1A2A PUSH1 0x1B DUP4 PUSH2 0x13D2 JUMP JUMPDEST SWAP2 POP PUSH2 0x1A35 DUP3 PUSH2 0x19F6 JUMP JUMPDEST PUSH1 0x20 DUP3 ADD SWAP1 POP SWAP2 SWAP1 POP JUMP JUMPDEST PUSH0 PUSH1 0x20 DUP3 ADD SWAP1 POP DUP2 DUP2 SUB PUSH0 DUP4 ADD MSTORE PUSH2 0x1A57 DUP2 PUSH2 0x1A1E JUMP JUMPDEST SWAP1 POP SWAP2 SWAP1 POP JUMP JUMPDEST PUSH32 0x566F7465732073686F756C64206E6F742062652074616C6C69656420696E206F PUSH0 DUP3 ADD MSTORE PUSH32 0x7264657220746F20646F20746861742E00000000000000000000000000000000 PUSH1 0x20 DUP3 ADD MSTORE POP JUMP JUMPDEST PUSH0 PUSH2 0x1AB8 PUSH1 0x30 DUP4 PUSH2 0x13D2 JUMP JUMPDEST SWAP2 POP PUSH2 0x1AC3 DUP3 PUSH2 0x1A5E JUMP JUMPDEST PUSH1 0x40 DUP3 ADD SWAP1 POP SWAP2 SWAP1 POP JUMP JUMPDEST PUSH0 PUSH1 0x20 DUP3 ADD SWAP1 POP DUP2 DUP2 SUB PUSH0 DUP4 ADD MSTORE PUSH2 0x1AE5 DUP2 PUSH2 0x1AAC JUMP JUMPDEST SWAP1 POP SWAP2 SWAP1 POP JUMP JUMPDEST PUSH0 PUSH2 0x1AF6 DUP3 PUSH2 0xF61 JUMP JUMPDEST SWAP2 POP PUSH2 0x1B01 DUP4 PUSH2 0xF61 JUMP JUMPDEST SWAP3 POP DUP3 DUP3 ADD SWAP1 POP DUP1 DUP3 GT ISZERO PUSH2 0x1B19 JUMPI PUSH2 0x1B18 PUSH2 0x1547 JUMP JUMPDEST JUMPDEST SWAP3 SWAP2 POP POP JUMP JUMPDEST PUSH0 PUSH1 0x40 DUP3 ADD SWAP1 POP PUSH2 0x1B32 PUSH0 DUP4 ADD DUP6 PUSH2 0x1023 JUMP JUMPDEST PUSH2 0x1B3F PUSH1 0x20 DUP4 ADD DUP5 PUSH2 0x1023 JUMP JUMPDEST SWAP4 SWAP3 POP POP POP JUMP INVALID LOG2 PUSH5 0x6970667358 0x22 SLT KECCAK256 0xD6 0xE2 0xD8 LOG1 0xAE 0x2D 0xD4 DIV 0xCB SWAP14 PUSH28 0xE222C15D12C9FA1A3C3A964BB05F4352835D6BE2F964736F6C634300 ADDMOD OR STOP CALLER "
				},
				"gasEstimates": {
					"creation": {
						"codeDepositCost": "1407200",
						"executionCost": "infinite",
						"totalCost": "infinite"
					},
					"external": {
						"addProposal(string)": "infinite",
						"addVoter(address)": "infinite",
						"getProposals()": "infinite",
						"getVoteStep()": "2584",
						"getWinner()": "infinite",
						"nextVoteStep()": "infinite",
						"owner()": "2515",
						"renounceOwnership()": "infinite",
						"restartVote()": "infinite",
						"transferOwnership(address)": "infinite",
						"vote(uint256)": "infinite"
					}
				},
				"methodIdentifiers": {
					"addProposal(string)": "2fdae3c5",
					"addVoter(address)": "f4ab9adf",
					"getProposals()": "62564c48",
					"getVoteStep()": "1e09506d",
					"getWinner()": "8e7ea5b2",
					"nextVoteStep()": "fd20255c",
					"owner()": "8da5cb5b",
					"renounceOwnership()": "715018a6",
					"restartVote()": "b126f771",
					"transferOwnership(address)": "f2fde38b",
					"vote(uint256)": "0121b93f"
				}
			},
			"storageLayout": {
				"storage": [
					{
						"astId": 384,
						"contract": "Voting.sol:Voting",
						"label": "_owner",
						"offset": 0,
						"slot": "0",
						"type": "t_address"
					},
					{
						"astId": 28,
						"contract": "Voting.sol:Voting",
						"label": "winningProposalId",
						"offset": 0,
						"slot": "1",
						"type": "t_uint256"
					},
					{
						"astId": 40,
						"contract": "Voting.sol:Voting",
						"label": "voters",
						"offset": 0,
						"slot": "2",
						"type": "t_mapping(t_address,t_struct(Voter)35_storage)"
					},
					{
						"astId": 81,
						"contract": "Voting.sol:Voting",
						"label": "proposals",
						"offset": 0,
						"slot": "3",
						"type": "t_array(t_struct(Proposal)77_storage)dyn_storage"
					},
					{
						"astId": 84,
						"contract": "Voting.sol:Voting",
						"label": "proposalId",
						"offset": 0,
						"slot": "4",
						"type": "t_uint256"
					},
					{
						"astId": 94,
						"contract": "Voting.sol:Voting",
						"label": "currentVoteState",
						"offset": 0,
						"slot": "5",
						"type": "t_enum(WorkflowStatus)91"
					}
				],
				"types": {
					"t_address": {
						"encoding": "inplace",
						"label": "address",
						"numberOfBytes": "20"
					},
					"t_array(t_struct(Proposal)77_storage)dyn_storage": {
						"base": "t_struct(Proposal)77_storage",
						"encoding": "dynamic_array",
						"label": "struct Voting.Proposal[]",
						"numberOfBytes": "32"
					},
					"t_bool": {
						"encoding": "inplace",
						"label": "bool",
						"numberOfBytes": "1"
					},
					"t_enum(WorkflowStatus)91": {
						"encoding": "inplace",
						"label": "enum Voting.WorkflowStatus",
						"numberOfBytes": "1"
					},
					"t_mapping(t_address,t_struct(Voter)35_storage)": {
						"encoding": "mapping",
						"key": "t_address",
						"label": "mapping(address => struct Voting.Voter)",
						"numberOfBytes": "32",
						"value": "t_struct(Voter)35_storage"
					},
					"t_string_storage": {
						"encoding": "bytes",
						"label": "string",
						"numberOfBytes": "32"
					},
					"t_struct(Proposal)77_storage": {
						"encoding": "inplace",
						"label": "struct Voting.Proposal",
						"members": [
							{
								"astId": 72,
								"contract": "Voting.sol:Voting",
								"label": "id",
								"offset": 0,
								"slot": "0",
								"type": "t_uint256"
							},
							{
								"astId": 74,
								"contract": "Voting.sol:Voting",
								"label": "description",
								"offset": 0,
								"slot": "1",
								"type": "t_string_storage"
							},
							{
								"astId": 76,
								"contract": "Voting.sol:Voting",
								"label": "voteCount",
								"offset": 0,
								"slot": "2",
								"type": "t_uint256"
							}
						],
						"numberOfBytes": "96"
					},
					"t_struct(Voter)35_storage": {
						"encoding": "inplace",
						"label": "struct Voting.Voter",
						"members": [
							{
								"astId": 30,
								"contract": "Voting.sol:Voting",
								"label": "isRegistered",
								"offset": 0,
								"slot": "0",
								"type": "t_bool"
							},
							{
								"astId": 32,
								"contract": "Voting.sol:Voting",
								"label": "hasVoted",
								"offset": 1,
								"slot": "0",
								"type": "t_bool"
							},
							{
								"astId": 34,
								"contract": "Voting.sol:Voting",
								"label": "votedProposalId",
								"offset": 0,
								"slot": "1",
								"type": "t_uint256"
							}
						],
						"numberOfBytes": "64"
					},
					"t_uint256": {
						"encoding": "inplace",
						"label": "uint256",
						"numberOfBytes": "32"
					}
				}
			},
			"userdoc": {
				"kind": "user",
				"methods": {},
				"version": 1
			}
		}
	}
}