{
	"VotingPlus.sol": {
		"VotingPlus": {
			"abi": [
				{
					"inputs": [],
					"stateMutability": "nonpayable",
					"type": "constructor"
				},
				{
					"inputs": [
						{
							"internalType": "address",
							"name": "owner",
							"type": "address"
						}
					],
					"name": "OwnableInvalidOwner",
					"type": "error"
				},
				{
					"inputs": [
						{
							"internalType": "address",
							"name": "account",
							"type": "address"
						}
					],
					"name": "OwnableUnauthorizedAccount",
					"type": "error"
				},
				{
					"anonymous": false,
					"inputs": [
						{
							"indexed": true,
							"internalType": "address",
							"name": "previousOwner",
							"type": "address"
						},
						{
							"indexed": true,
							"internalType": "address",
							"name": "newOwner",
							"type": "address"
						}
					],
					"name": "OwnershipTransferred",
					"type": "event"
				},
				{
					"anonymous": false,
					"inputs": [
						{
							"indexed": false,
							"internalType": "uint256",
							"name": "proposalId",
							"type": "uint256"
						}
					],
					"name": "ProposalRegistered",
					"type": "event"
				},
				{
					"anonymous": false,
					"inputs": [
						{
							"indexed": false,
							"internalType": "string",
							"name": "message",
							"type": "string"
						}
					],
					"name": "VoteEquality",
					"type": "event"
				},
				{
					"anonymous": false,
					"inputs": [
						{
							"indexed": false,
							"internalType": "address",
							"name": "voter",
							"type": "address"
						},
						{
							"indexed": false,
							"internalType": "uint256",
							"name": "proposalId",
							"type": "uint256"
						}
					],
					"name": "Voted",
					"type": "event"
				},
				{
					"anonymous": false,
					"inputs": [
						{
							"indexed": false,
							"internalType": "address",
							"name": "voterAddress",
							"type": "address"
						}
					],
					"name": "VoterRegistered",
					"type": "event"
				},
				{
					"anonymous": false,
					"inputs": [
						{
							"indexed": false,
							"internalType": "enum VotingPlus.WorkflowStatus",
							"name": "previousStatus",
							"type": "uint8"
						},
						{
							"indexed": false,
							"internalType": "enum VotingPlus.WorkflowStatus",
							"name": "newStatus",
							"type": "uint8"
						}
					],
					"name": "WorkflowStatusChange",
					"type": "event"
				},
				{
					"inputs": [
						{
							"internalType": "string",
							"name": "_description",
							"type": "string"
						}
					],
					"name": "addProposal",
					"outputs": [],
					"stateMutability": "nonpayable",
					"type": "function"
				},
				{
					"inputs": [
						{
							"internalType": "address",
							"name": "_address",
							"type": "address"
						}
					],
					"name": "addVoter",
					"outputs": [],
					"stateMutability": "nonpayable",
					"type": "function"
				},
				{
					"inputs": [
						{
							"internalType": "address",
							"name": "_delegate",
							"type": "address"
						}
					],
					"name": "delegateVote",
					"outputs": [],
					"stateMutability": "nonpayable",
					"type": "function"
				},
				{
					"inputs": [],
					"name": "getCurrentVoteStep",
					"outputs": [
						{
							"internalType": "enum VotingPlus.WorkflowStatus",
							"name": "",
							"type": "uint8"
						}
					],
					"stateMutability": "view",
					"type": "function"
				},
				{
					"inputs": [],
					"name": "getWinner",
					"outputs": [
						{
							"components": [
								{
									"internalType": "uint256",
									"name": "id",
									"type": "uint256"
								},
								{
									"internalType": "string",
									"name": "description",
									"type": "string"
								},
								{
									"internalType": "uint256",
									"name": "voteCount",
									"type": "uint256"
								}
							],
							"internalType": "struct VotingPlus.Proposal[]",
							"name": "",
							"type": "tuple[]"
						}
					],
					"stateMutability": "nonpayable",
					"type": "function"
				},
				{
					"inputs": [],
					"name": "listProposals",
					"outputs": [
						{
							"components": [
								{
									"internalType": "uint256",
									"name": "id",
									"type": "uint256"
								},
								{
									"internalType": "string",
									"name": "description",
									"type": "string"
								},
								{
									"internalType": "uint256",
									"name": "voteCount",
									"type": "uint256"
								}
							],
							"internalType": "struct VotingPlus.Proposal[]",
							"name": "",
							"type": "tuple[]"
						}
					],
					"stateMutability": "view",
					"type": "function"
				},
				{
					"inputs": [],
					"name": "nextVoteStep",
					"outputs": [],
					"stateMutability": "nonpayable",
					"type": "function"
				},
				{
					"inputs": [],
					"name": "owner",
					"outputs": [
						{
							"internalType": "address",
							"name": "",
							"type": "address"
						}
					],
					"stateMutability": "view",
					"type": "function"
				},
				{
					"inputs": [],
					"name": "processEquality",
					"outputs": [],
					"stateMutability": "nonpayable",
					"type": "function"
				},
				{
					"inputs": [],
					"name": "renounceOwnership",
					"outputs": [],
					"stateMutability": "nonpayable",
					"type": "function"
				},
				{
					"inputs": [],
					"name": "restartVoteFromScratch",
					"outputs": [],
					"stateMutability": "nonpayable",
					"type": "function"
				},
				{
					"inputs": [
						{
							"internalType": "address",
							"name": "newOwner",
							"type": "address"
						}
					],
					"name": "transferOwnership",
					"outputs": [],
					"stateMutability": "nonpayable",
					"type": "function"
				},
				{
					"inputs": [
						{
							"internalType": "uint256",
							"name": "_proposalId",
							"type": "uint256"
						}
					],
					"name": "voteForProposition",
					"outputs": [],
					"stateMutability": "nonpayable",
					"type": "function"
				}
			],
			"devdoc": {
				"author": "Maxime AUBURTIN",
				"errors": {
					"OwnableInvalidOwner(address)": [
						{
							"details": "The owner is not a valid owner account. (eg. `address(0)`)"
						}
					],
					"OwnableUnauthorizedAccount(address)": [
						{
							"details": "The caller account is not authorized to perform an operation."
						}
					]
				},
				"kind": "dev",
				"methods": {
					"owner()": {
						"details": "Returns the address of the current owner."
					},
					"renounceOwnership()": {
						"details": "Leaves the contract without owner. It will not be possible to call `onlyOwner` functions. Can only be called by the current owner. NOTE: Renouncing ownership will leave the contract without an owner, thereby disabling any functionality that is only available to the owner."
					},
					"transferOwnership(address)": {
						"details": "Transfers ownership of the contract to a new account (`newOwner`). Can only be called by the current owner."
					}
				},
				"title": "Voting contrat: this contract allow a whitelist of voters to vote for their favorite proposition.",
				"version": 1
			},
			"evm": {
				"assembly": "    /* \"VotingPlus.sol\":382:10542  contract VotingPlus is Ownable {... */\n  mstore(0x40, 0x80)\n    /* \"VotingPlus.sol\":1158:1159  0 */\n  0x00\n    /* \"VotingPlus.sol\":1138:1159  uint votersNumber = 0 */\n  0x04\n  sstore\n    /* \"VotingPlus.sol\":1187:1188  0 */\n  0x00\n    /* \"VotingPlus.sol\":1165:1188  uint atLeastOneVote = 0 */\n  0x05\n  sstore\n    /* \"VotingPlus.sol\":1887:1888  0 */\n  0x00\n    /* \"VotingPlus.sol\":1862:1888  uint proposalIdCounter = 0 */\n  0x07\n  sstore\n    /* \"VotingPlus.sol\":4852:4954  constructor() Ownable(msg.sender) {... */\n  callvalue\n  dup1\n  iszero\n  tag_1\n  jumpi\n  0x00\n  dup1\n  revert\ntag_1:\n  pop\n    /* \"VotingPlus.sol\":4874:4884  msg.sender */\n  caller\n    /* \"https://github.com/OpenZeppelin/openzeppelin-contracts/blob/master/contracts/access/Ownable.sol\":1297:1298  0 */\n  0x00\n    /* \"https://github.com/OpenZeppelin/openzeppelin-contracts/blob/master/contracts/access/Ownable.sol\":1273:1299  initialOwner == address(0) */\n  0xffffffffffffffffffffffffffffffffffffffff\n  and\n    /* \"https://github.com/OpenZeppelin/openzeppelin-contracts/blob/master/contracts/access/Ownable.sol\":1273:1285  initialOwner */\n  dup2\n    /* \"https://github.com/OpenZeppelin/openzeppelin-contracts/blob/master/contracts/access/Ownable.sol\":1273:1299  initialOwner == address(0) */\n  0xffffffffffffffffffffffffffffffffffffffff\n  and\n  sub\n    /* \"https://github.com/OpenZeppelin/openzeppelin-contracts/blob/master/contracts/access/Ownable.sol\":1269:1364  if (initialOwner == address(0)) {... */\n  tag_5\n  jumpi\n    /* \"https://github.com/OpenZeppelin/openzeppelin-contracts/blob/master/contracts/access/Ownable.sol\":1350:1351  0 */\n  0x00\n    /* \"https://github.com/OpenZeppelin/openzeppelin-contracts/blob/master/contracts/access/Ownable.sol\":1322:1353  OwnableInvalidOwner(address(0)) */\n  mload(0x40)\n  0x1e4fbdf700000000000000000000000000000000000000000000000000000000\n  dup2\n  mstore\n  0x04\n  add\n  tag_6\n  swap2\n  swap1\n  tag_7\n  jump\t// in\ntag_6:\n  mload(0x40)\n  dup1\n  swap2\n  sub\n  swap1\n  revert\n    /* \"https://github.com/OpenZeppelin/openzeppelin-contracts/blob/master/contracts/access/Ownable.sol\":1269:1364  if (initialOwner == address(0)) {... */\ntag_5:\n    /* \"https://github.com/OpenZeppelin/openzeppelin-contracts/blob/master/contracts/access/Ownable.sol\":1373:1405  _transferOwnership(initialOwner) */\n  tag_8\n    /* \"https://github.com/OpenZeppelin/openzeppelin-contracts/blob/master/contracts/access/Ownable.sol\":1392:1404  initialOwner */\n  dup2\n    /* \"https://github.com/OpenZeppelin/openzeppelin-contracts/blob/master/contracts/access/Ownable.sol\":1373:1391  _transferOwnership */\n  shl(0x20, tag_9)\n    /* \"https://github.com/OpenZeppelin/openzeppelin-contracts/blob/master/contracts/access/Ownable.sol\":1373:1405  _transferOwnership(initialOwner) */\n  0x20\n  shr\n  jump\t// in\ntag_8:\n    /* \"https://github.com/OpenZeppelin/openzeppelin-contracts/blob/master/contracts/access/Ownable.sol\":1225:1412  constructor(address initialOwner) {... */\n  pop\n    /* \"VotingPlus.sol\":4915:4947  WorkflowStatus.RegisteringVoters */\n  0x00\n    /* \"VotingPlus.sol\":4896:4912  currentVoteState */\n  0x08\n  0x00\n    /* \"VotingPlus.sol\":4896:4947  currentVoteState = WorkflowStatus.RegisteringVoters */\n  0x0100\n  exp\n  dup2\n  sload\n  dup2\n  0xff\n  mul\n  not\n  and\n  swap1\n  dup4\n  0x03\n  dup2\n  gt\n  iszero\n  tag_11\n  jumpi\n  tag_12\n  tag_13\n  jump\t// in\ntag_12:\ntag_11:\n  mul\n  or\n  swap1\n  sstore\n  pop\n    /* \"VotingPlus.sol\":382:10542  contract VotingPlus is Ownable {... */\n  jump(tag_14)\n    /* \"https://github.com/OpenZeppelin/openzeppelin-contracts/blob/master/contracts/access/Ownable.sol\":2912:3099  function _transferOwnership(address newOwner) internal virtual {... */\ntag_9:\n    /* \"https://github.com/OpenZeppelin/openzeppelin-contracts/blob/master/contracts/access/Ownable.sol\":2985:3001  address oldOwner */\n  0x00\n    /* \"https://github.com/OpenZeppelin/openzeppelin-contracts/blob/master/contracts/access/Ownable.sol\":3004:3010  _owner */\n  dup1\n  0x00\n  swap1\n  sload\n  swap1\n  0x0100\n  exp\n  swap1\n  div\n  0xffffffffffffffffffffffffffffffffffffffff\n  and\n    /* \"https://github.com/OpenZeppelin/openzeppelin-contracts/blob/master/contracts/access/Ownable.sol\":2985:3010  address oldOwner = _owner */\n  swap1\n  pop\n    /* \"https://github.com/OpenZeppelin/openzeppelin-contracts/blob/master/contracts/access/Ownable.sol\":3029:3037  newOwner */\n  dup2\n    /* \"https://github.com/OpenZeppelin/openzeppelin-contracts/blob/master/contracts/access/Ownable.sol\":3020:3026  _owner */\n  0x00\n  dup1\n    /* \"https://github.com/OpenZeppelin/openzeppelin-contracts/blob/master/contracts/access/Ownable.sol\":3020:3037  _owner = newOwner */\n  0x0100\n  exp\n  dup2\n  sload\n  dup2\n  0xffffffffffffffffffffffffffffffffffffffff\n  mul\n  not\n  and\n  swap1\n  dup4\n  0xffffffffffffffffffffffffffffffffffffffff\n  and\n  mul\n  or\n  swap1\n  sstore\n  pop\n    /* \"https://github.com/OpenZeppelin/openzeppelin-contracts/blob/master/contracts/access/Ownable.sol\":3083:3091  newOwner */\n  dup2\n    /* \"https://github.com/OpenZeppelin/openzeppelin-contracts/blob/master/contracts/access/Ownable.sol\":3052:3092  OwnershipTransferred(oldOwner, newOwner) */\n  0xffffffffffffffffffffffffffffffffffffffff\n  and\n    /* \"https://github.com/OpenZeppelin/openzeppelin-contracts/blob/master/contracts/access/Ownable.sol\":3073:3081  oldOwner */\n  dup2\n    /* \"https://github.com/OpenZeppelin/openzeppelin-contracts/blob/master/contracts/access/Ownable.sol\":3052:3092  OwnershipTransferred(oldOwner, newOwner) */\n  0xffffffffffffffffffffffffffffffffffffffff\n  and\n  0x8be0079c531659141344cd1fd0a4f28419497f9722a3daafe3b4186f6b6457e0\n  mload(0x40)\n  mload(0x40)\n  dup1\n  swap2\n  sub\n  swap1\n  log3\n    /* \"https://github.com/OpenZeppelin/openzeppelin-contracts/blob/master/contracts/access/Ownable.sol\":2975:3099  {... */\n  pop\n    /* \"https://github.com/OpenZeppelin/openzeppelin-contracts/blob/master/contracts/access/Ownable.sol\":2912:3099  function _transferOwnership(address newOwner) internal virtual {... */\n  pop\n  jump\t// out\n    /* \"#utility.yul\":7:133   */\ntag_16:\n    /* \"#utility.yul\":44:51   */\n  0x00\n    /* \"#utility.yul\":84:126   */\n  0xffffffffffffffffffffffffffffffffffffffff\n    /* \"#utility.yul\":77:82   */\n  dup3\n    /* \"#utility.yul\":73:127   */\n  and\n    /* \"#utility.yul\":62:127   */\n  swap1\n  pop\n    /* \"#utility.yul\":7:133   */\n  swap2\n  swap1\n  pop\n  jump\t// out\n    /* \"#utility.yul\":139:235   */\ntag_17:\n    /* \"#utility.yul\":176:183   */\n  0x00\n    /* \"#utility.yul\":205:229   */\n  tag_22\n    /* \"#utility.yul\":223:228   */\n  dup3\n    /* \"#utility.yul\":205:229   */\n  tag_16\n  jump\t// in\ntag_22:\n    /* \"#utility.yul\":194:229   */\n  swap1\n  pop\n    /* \"#utility.yul\":139:235   */\n  swap2\n  swap1\n  pop\n  jump\t// out\n    /* \"#utility.yul\":241:359   */\ntag_18:\n    /* \"#utility.yul\":328:352   */\n  tag_24\n    /* \"#utility.yul\":346:351   */\n  dup2\n    /* \"#utility.yul\":328:352   */\n  tag_17\n  jump\t// in\ntag_24:\n    /* \"#utility.yul\":323:326   */\n  dup3\n    /* \"#utility.yul\":316:353   */\n  mstore\n    /* \"#utility.yul\":241:359   */\n  pop\n  pop\n  jump\t// out\n    /* \"#utility.yul\":365:587   */\ntag_7:\n    /* \"#utility.yul\":458:462   */\n  0x00\n    /* \"#utility.yul\":496:498   */\n  0x20\n    /* \"#utility.yul\":485:494   */\n  dup3\n    /* \"#utility.yul\":481:499   */\n  add\n    /* \"#utility.yul\":473:499   */\n  swap1\n  pop\n    /* \"#utility.yul\":509:580   */\n  tag_26\n    /* \"#utility.yul\":577:578   */\n  0x00\n    /* \"#utility.yul\":566:575   */\n  dup4\n    /* \"#utility.yul\":562:579   */\n  add\n    /* \"#utility.yul\":553:559   */\n  dup5\n    /* \"#utility.yul\":509:580   */\n  tag_18\n  jump\t// in\ntag_26:\n    /* \"#utility.yul\":365:587   */\n  swap3\n  swap2\n  pop\n  pop\n  jump\t// out\n    /* \"#utility.yul\":593:773   */\ntag_13:\n    /* \"#utility.yul\":641:718   */\n  0x4e487b7100000000000000000000000000000000000000000000000000000000\n    /* \"#utility.yul\":638:639   */\n  0x00\n    /* \"#utility.yul\":631:719   */\n  mstore\n    /* \"#utility.yul\":738:742   */\n  0x21\n    /* \"#utility.yul\":735:736   */\n  0x04\n    /* \"#utility.yul\":728:743   */\n  mstore\n    /* \"#utility.yul\":762:766   */\n  0x24\n    /* \"#utility.yul\":759:760   */\n  0x00\n    /* \"#utility.yul\":752:767   */\n  revert\n    /* \"VotingPlus.sol\":382:10542  contract VotingPlus is Ownable {... */\ntag_14:\n  dataSize(sub_0)\n  dup1\n  dataOffset(sub_0)\n  0x00\n  codecopy\n  0x00\n  return\nstop\n\nsub_0: assembly {\n        /* \"VotingPlus.sol\":382:10542  contract VotingPlus is Ownable {... */\n      mstore(0x40, 0x80)\n      callvalue\n      dup1\n      iszero\n      tag_1\n      jumpi\n      0x00\n      dup1\n      revert\n    tag_1:\n      pop\n      jumpi(tag_2, lt(calldatasize, 0x04))\n      shr(0xe0, calldataload(0x00))\n      dup1\n      0x8da5cb5b\n      gt\n      tag_16\n      jumpi\n      dup1\n      0xe77aa682\n      gt\n      tag_17\n      jumpi\n      dup1\n      0xe77aa682\n      eq\n      tag_12\n      jumpi\n      dup1\n      0xf2fde38b\n      eq\n      tag_13\n      jumpi\n      dup1\n      0xf4ab9adf\n      eq\n      tag_14\n      jumpi\n      dup1\n      0xfd20255c\n      eq\n      tag_15\n      jumpi\n      jump(tag_2)\n    tag_17:\n      dup1\n      0x8da5cb5b\n      eq\n      tag_9\n      jumpi\n      dup1\n      0x8e7ea5b2\n      eq\n      tag_10\n      jumpi\n      dup1\n      0xb31e1d4d\n      eq\n      tag_11\n      jumpi\n      jump(tag_2)\n    tag_16:\n      dup1\n      0x1d533571\n      eq\n      tag_3\n      jumpi\n      dup1\n      0x26c7eb1c\n      eq\n      tag_4\n      jumpi\n      dup1\n      0x2fdae3c5\n      eq\n      tag_5\n      jumpi\n      dup1\n      0x6334ef66\n      eq\n      tag_6\n      jumpi\n      dup1\n      0x715018a6\n      eq\n      tag_7\n      jumpi\n      dup1\n      0x746536b5\n      eq\n      tag_8\n      jumpi\n    tag_2:\n      0x00\n      dup1\n      revert\n        /* \"VotingPlus.sol\":9047:9898  function processEquality() external onlyOwner votesTallied {... */\n    tag_3:\n      tag_18\n      tag_19\n      jump\t// in\n    tag_18:\n      stop\n        /* \"VotingPlus.sol\":7445:7629  function listProposals() external view returns (Proposal[] memory) {... */\n    tag_4:\n      tag_20\n      tag_21\n      jump\t// in\n    tag_20:\n      mload(0x40)\n      tag_22\n      swap2\n      swap1\n      tag_23\n      jump\t// in\n    tag_22:\n      mload(0x40)\n      dup1\n      swap2\n      sub\n      swap1\n      return\n        /* \"VotingPlus.sol\":7216:7439  function addProposal(string calldata _description) external onlyVoters registeringProposals {... */\n    tag_5:\n      tag_24\n      0x04\n      dup1\n      calldatasize\n      sub\n      dup2\n      add\n      swap1\n      tag_25\n      swap2\n      swap1\n      tag_26\n      jump\t// in\n    tag_25:\n      tag_27\n      jump\t// in\n    tag_24:\n      stop\n        /* \"VotingPlus.sol\":9904:10540  function restartVoteFromScratch() external votesTallied onlyOwner {... */\n    tag_6:\n      tag_28\n      tag_29\n      jump\t// in\n    tag_28:\n      stop\n        /* \"https://github.com/OpenZeppelin/openzeppelin-contracts/blob/master/contracts/access/Ownable.sol\":2293:2394  function renounceOwnership() public virtual onlyOwner {... */\n    tag_7:\n      tag_30\n      tag_31\n      jump\t// in\n    tag_30:\n      stop\n        /* \"VotingPlus.sol\":7635:8273  function voteForProposition(uint _proposalId) external onlyVoters votingProposals voteAsManyTimesAsYoureAllowedTo {... */\n    tag_8:\n      tag_32\n      0x04\n      dup1\n      calldatasize\n      sub\n      dup2\n      add\n      swap1\n      tag_33\n      swap2\n      swap1\n      tag_34\n      jump\t// in\n    tag_33:\n      tag_35\n      jump\t// in\n    tag_32:\n      stop\n        /* \"https://github.com/OpenZeppelin/openzeppelin-contracts/blob/master/contracts/access/Ownable.sol\":1638:1723  function owner() public view virtual returns (address) {... */\n    tag_9:\n      tag_36\n      tag_37\n      jump\t// in\n    tag_36:\n      mload(0x40)\n      tag_38\n      swap2\n      swap1\n      tag_39\n      jump\t// in\n    tag_38:\n      mload(0x40)\n      dup1\n      swap2\n      sub\n      swap1\n      return\n        /* \"VotingPlus.sol\":8279:9041  function getWinner() external votesTallied returns (Proposal[] memory) {... */\n    tag_10:\n      tag_40\n      tag_41\n      jump\t// in\n    tag_40:\n      mload(0x40)\n      tag_42\n      swap2\n      swap1\n      tag_23\n      jump\t// in\n    tag_42:\n      mload(0x40)\n      dup1\n      swap2\n      sub\n      swap1\n      return\n        /* \"VotingPlus.sol\":6325:6820  function delegateVote(address _delegate) onlyVoters registeringVoters external {... */\n    tag_11:\n      tag_43\n      0x04\n      dup1\n      calldatasize\n      sub\n      dup2\n      add\n      swap1\n      tag_44\n      swap2\n      swap1\n      tag_45\n      jump\t// in\n    tag_44:\n      tag_46\n      jump\t// in\n    tag_43:\n      stop\n        /* \"VotingPlus.sol\":4961:5070  function getCurrentVoteStep() external view returns (WorkflowStatus) {... */\n    tag_12:\n      tag_47\n      tag_48\n      jump\t// in\n    tag_47:\n      mload(0x40)\n      tag_49\n      swap2\n      swap1\n      tag_50\n      jump\t// in\n    tag_49:\n      mload(0x40)\n      dup1\n      swap2\n      sub\n      swap1\n      return\n        /* \"https://github.com/OpenZeppelin/openzeppelin-contracts/blob/master/contracts/access/Ownable.sol\":2543:2758  function transferOwnership(address newOwner) public virtual onlyOwner {... */\n    tag_13:\n      tag_51\n      0x04\n      dup1\n      calldatasize\n      sub\n      dup2\n      add\n      swap1\n      tag_52\n      swap2\n      swap1\n      tag_45\n      jump\t// in\n    tag_52:\n      tag_53\n      jump\t// in\n    tag_51:\n      stop\n        /* \"VotingPlus.sol\":5404:5705  function addVoter(address _address) public onlyOwner registeringVoters {... */\n    tag_14:\n      tag_54\n      0x04\n      dup1\n      calldatasize\n      sub\n      dup2\n      add\n      swap1\n      tag_55\n      swap2\n      swap1\n      tag_45\n      jump\t// in\n    tag_55:\n      tag_56\n      jump\t// in\n    tag_54:\n      stop\n        /* \"VotingPlus.sol\":5076:5398  function nextVoteStep() external onlyOwner votersRegistered(3) proposalRegistered(2) voteRegistered(1) votesNotTallied {... */\n    tag_15:\n      tag_57\n      tag_58\n      jump\t// in\n    tag_57:\n      stop\n        /* \"VotingPlus.sol\":9047:9898  function processEquality() external onlyOwner votesTallied {... */\n    tag_19:\n        /* \"https://github.com/OpenZeppelin/openzeppelin-contracts/blob/master/contracts/access/Ownable.sol\":1531:1544  _checkOwner() */\n      tag_60\n        /* \"https://github.com/OpenZeppelin/openzeppelin-contracts/blob/master/contracts/access/Ownable.sol\":1531:1542  _checkOwner */\n      tag_61\n        /* \"https://github.com/OpenZeppelin/openzeppelin-contracts/blob/master/contracts/access/Ownable.sol\":1531:1544  _checkOwner() */\n      jump\t// in\n    tag_60:\n        /* \"VotingPlus.sol\":2379:2406  WorkflowStatus.VotesTallied */\n      0x03\n        /* \"VotingPlus.sol\":2359:2406  currentVoteState == WorkflowStatus.VotesTallied */\n      dup1\n      dup2\n      gt\n      iszero\n      tag_63\n      jumpi\n      tag_64\n      tag_65\n      jump\t// in\n    tag_64:\n    tag_63:\n        /* \"VotingPlus.sol\":2359:2375  currentVoteState */\n      0x08\n      0x00\n      swap1\n      sload\n      swap1\n      0x0100\n      exp\n      swap1\n      div\n      0xff\n      and\n        /* \"VotingPlus.sol\":2359:2406  currentVoteState == WorkflowStatus.VotesTallied */\n      0x03\n      dup2\n      gt\n      iszero\n      tag_66\n      jumpi\n      tag_67\n      tag_65\n      jump\t// in\n    tag_67:\n    tag_66:\n      eq\n        /* \"VotingPlus.sol\":2351:2470  require(currentVoteState == WorkflowStatus.VotesTallied, \"Votes need to be tallied in order to perform this operation\") */\n      tag_68\n      jumpi\n      mload(0x40)\n      0x08c379a000000000000000000000000000000000000000000000000000000000\n      dup2\n      mstore\n      0x04\n      add\n      tag_69\n      swap1\n      tag_70\n      jump\t// in\n    tag_69:\n      mload(0x40)\n      dup1\n      swap2\n      sub\n      swap1\n      revert\n    tag_68:\n        /* \"VotingPlus.sol\":9141:9142  1 */\n      0x01\n        /* \"VotingPlus.sol\":9124:9131  winners */\n      dup1\n        /* \"VotingPlus.sol\":9124:9138  winners.length */\n      dup1\n      sload\n      swap1\n      pop\n        /* \"VotingPlus.sol\":9124:9142  winners.length > 1 */\n      gt\n        /* \"VotingPlus.sol\":9116:9214  require(winners.length > 1, \"There are no equality in results so we don't need to break the tie!\") */\n      tag_72\n      jumpi\n      mload(0x40)\n      0x08c379a000000000000000000000000000000000000000000000000000000000\n      dup2\n      mstore\n      0x04\n      add\n      tag_73\n      swap1\n      tag_74\n      jump\t// in\n    tag_73:\n      mload(0x40)\n      dup1\n      swap2\n      sub\n      swap1\n      revert\n    tag_72:\n        /* \"VotingPlus.sol\":9245:9252  winners */\n      0x01\n        /* \"VotingPlus.sol\":9245:9259  winners.length */\n      dup1\n      sload\n      swap1\n      pop\n        /* \"VotingPlus.sol\":9225:9242  proposalIdCounter */\n      0x07\n        /* \"VotingPlus.sol\":9225:9259  proposalIdCounter = winners.length */\n      dup2\n      swap1\n      sstore\n      pop\n        /* \"VotingPlus.sol\":9353:9362  proposals */\n      0x06\n      0x00\n        /* \"VotingPlus.sol\":9346:9362  delete proposals */\n      tag_75\n      swap2\n      swap1\n      tag_76\n      jump\t// in\n    tag_75:\n        /* \"VotingPlus.sol\":9384:9391  winners */\n      0x01\n        /* \"VotingPlus.sol\":9372:9381  proposals */\n      0x06\n        /* \"VotingPlus.sol\":9372:9391  proposals = winners */\n      swap1\n      dup1\n      sload\n      tag_77\n      swap3\n      swap2\n      swap1\n      tag_78\n      jump\t// in\n    tag_77:\n      pop\n        /* \"VotingPlus.sol\":9462:9468  uint i */\n      0x00\n        /* \"VotingPlus.sol\":9457:9548  for (uint i=0; i<proposals.length; i++) {... */\n    tag_79:\n        /* \"VotingPlus.sol\":9474:9483  proposals */\n      0x06\n        /* \"VotingPlus.sol\":9474:9490  proposals.length */\n      dup1\n      sload\n      swap1\n      pop\n        /* \"VotingPlus.sol\":9472:9473  i */\n      dup2\n        /* \"VotingPlus.sol\":9472:9490  i<proposals.length */\n      lt\n        /* \"VotingPlus.sol\":9457:9548  for (uint i=0; i<proposals.length; i++) {... */\n      iszero\n      tag_80\n      jumpi\n        /* \"VotingPlus.sol\":9536:9537  0 */\n      0x00\n        /* \"VotingPlus.sol\":9511:9520  proposals */\n      0x06\n        /* \"VotingPlus.sol\":9521:9522  i */\n      dup3\n        /* \"VotingPlus.sol\":9511:9523  proposals[i] */\n      dup2\n      sload\n      dup2\n      lt\n      tag_82\n      jumpi\n      tag_83\n      tag_84\n      jump\t// in\n    tag_83:\n    tag_82:\n      swap1\n      0x00\n      mstore\n      keccak256(0x00, 0x20)\n      swap1\n      0x03\n      mul\n      add\n        /* \"VotingPlus.sol\":9511:9533  proposals[i].voteCount */\n      0x02\n      add\n        /* \"VotingPlus.sol\":9511:9537  proposals[i].voteCount = 0 */\n      dup2\n      swap1\n      sstore\n      pop\n        /* \"VotingPlus.sol\":9492:9495  i++ */\n      dup1\n      dup1\n      0x01\n      add\n      swap2\n      pop\n      pop\n        /* \"VotingPlus.sol\":9457:9548  for (uint i=0; i<proposals.length; i++) {... */\n      jump(tag_79)\n    tag_80:\n      pop\n        /* \"VotingPlus.sol\":9608:9614  uint i */\n      0x00\n        /* \"VotingPlus.sol\":9603:9762  for (uint i=0; i<votersKeys.length; i++) {... */\n    tag_86:\n        /* \"VotingPlus.sol\":9620:9630  votersKeys */\n      0x03\n        /* \"VotingPlus.sol\":9620:9637  votersKeys.length */\n      dup1\n      sload\n      swap1\n      pop\n        /* \"VotingPlus.sol\":9618:9619  i */\n      dup2\n        /* \"VotingPlus.sol\":9618:9637  i<votersKeys.length */\n      lt\n        /* \"VotingPlus.sol\":9603:9762  for (uint i=0; i<votersKeys.length; i++) {... */\n      iszero\n      tag_87\n      jumpi\n        /* \"VotingPlus.sol\":9691:9692  0 */\n      0x00\n        /* \"VotingPlus.sol\":9658:9664  voters */\n      0x02\n        /* \"VotingPlus.sol\":9658:9679  voters[votersKeys[i]] */\n      0x00\n        /* \"VotingPlus.sol\":9665:9675  votersKeys */\n      0x03\n        /* \"VotingPlus.sol\":9676:9677  i */\n      dup5\n        /* \"VotingPlus.sol\":9665:9678  votersKeys[i] */\n      dup2\n      sload\n      dup2\n      lt\n      tag_89\n      jumpi\n      tag_90\n      tag_84\n      jump\t// in\n    tag_90:\n    tag_89:\n      swap1\n      0x00\n      mstore\n      keccak256(0x00, 0x20)\n      add\n      0x00\n      swap1\n      sload\n      swap1\n      0x0100\n      exp\n      swap1\n      div\n      0xffffffffffffffffffffffffffffffffffffffff\n      and\n        /* \"VotingPlus.sol\":9658:9679  voters[votersKeys[i]] */\n      0xffffffffffffffffffffffffffffffffffffffff\n      and\n      0xffffffffffffffffffffffffffffffffffffffff\n      and\n      dup2\n      mstore\n      0x20\n      add\n      swap1\n      dup2\n      mstore\n      0x20\n      add\n      0x00\n      keccak256\n        /* \"VotingPlus.sol\":9658:9688  voters[votersKeys[i]].hasVoted */\n      0x01\n      add\n        /* \"VotingPlus.sol\":9658:9692  voters[votersKeys[i]].hasVoted = 0 */\n      dup2\n      swap1\n      sstore\n      pop\n        /* \"VotingPlus.sol\":9713:9719  voters */\n      0x02\n        /* \"VotingPlus.sol\":9713:9734  voters[votersKeys[i]] */\n      0x00\n        /* \"VotingPlus.sol\":9720:9730  votersKeys */\n      0x03\n        /* \"VotingPlus.sol\":9731:9732  i */\n      dup4\n        /* \"VotingPlus.sol\":9720:9733  votersKeys[i] */\n      dup2\n      sload\n      dup2\n      lt\n      tag_92\n      jumpi\n      tag_93\n      tag_84\n      jump\t// in\n    tag_93:\n    tag_92:\n      swap1\n      0x00\n      mstore\n      keccak256(0x00, 0x20)\n      add\n      0x00\n      swap1\n      sload\n      swap1\n      0x0100\n      exp\n      swap1\n      div\n      0xffffffffffffffffffffffffffffffffffffffff\n      and\n        /* \"VotingPlus.sol\":9713:9734  voters[votersKeys[i]] */\n      0xffffffffffffffffffffffffffffffffffffffff\n      and\n      0xffffffffffffffffffffffffffffffffffffffff\n      and\n      dup2\n      mstore\n      0x20\n      add\n      swap1\n      dup2\n      mstore\n      0x20\n      add\n      0x00\n      keccak256\n        /* \"VotingPlus.sol\":9713:9751  voters[votersKeys[i]].votedProposalIds */\n      0x03\n      add\n      0x00\n        /* \"VotingPlus.sol\":9706:9751  delete voters[votersKeys[i]].votedProposalIds */\n      tag_95\n      swap2\n      swap1\n      tag_96\n      jump\t// in\n    tag_95:\n        /* \"VotingPlus.sol\":9639:9642  i++ */\n      dup1\n      dup1\n      0x01\n      add\n      swap2\n      pop\n      pop\n        /* \"VotingPlus.sol\":9603:9762  for (uint i=0; i<votersKeys.length; i++) {... */\n      jump(tag_86)\n    tag_87:\n      pop\n        /* \"VotingPlus.sol\":9863:9891  WorkflowStatus.VotingSession */\n      0x02\n        /* \"VotingPlus.sol\":9844:9860  currentVoteState */\n      0x08\n      0x00\n        /* \"VotingPlus.sol\":9844:9891  currentVoteState = WorkflowStatus.VotingSession */\n      0x0100\n      exp\n      dup2\n      sload\n      dup2\n      0xff\n      mul\n      not\n      and\n      swap1\n      dup4\n      0x03\n      dup2\n      gt\n      iszero\n      tag_97\n      jumpi\n      tag_98\n      tag_65\n      jump\t// in\n    tag_98:\n    tag_97:\n      mul\n      or\n      swap1\n      sstore\n      pop\n        /* \"VotingPlus.sol\":9047:9898  function processEquality() external onlyOwner votesTallied {... */\n      jump\t// out\n        /* \"VotingPlus.sol\":7445:7629  function listProposals() external view returns (Proposal[] memory) {... */\n    tag_21:\n        /* \"VotingPlus.sol\":7493:7510  Proposal[] memory */\n      0x60\n        /* \"VotingPlus.sol\":7549:7550  0 */\n      0x00\n        /* \"VotingPlus.sol\":7530:7539  proposals */\n      0x06\n        /* \"VotingPlus.sol\":7530:7546  proposals.length */\n      dup1\n      sload\n      swap1\n      pop\n        /* \"VotingPlus.sol\":7530:7550  proposals.length > 0 */\n      gt\n        /* \"VotingPlus.sol\":7522:7596  require(proposals.length > 0, \"There are no propositions registered yet!\") */\n      tag_100\n      jumpi\n      mload(0x40)\n      0x08c379a000000000000000000000000000000000000000000000000000000000\n      dup2\n      mstore\n      0x04\n      add\n      tag_101\n      swap1\n      tag_102\n      jump\t// in\n    tag_101:\n      mload(0x40)\n      dup1\n      swap2\n      sub\n      swap1\n      revert\n    tag_100:\n        /* \"VotingPlus.sol\":7613:7622  proposals */\n      0x06\n        /* \"VotingPlus.sol\":7606:7622  return proposals */\n      dup1\n      sload\n      dup1\n      0x20\n      mul\n      0x20\n      add\n      mload(0x40)\n      swap1\n      dup2\n      add\n      0x40\n      mstore\n      dup1\n      swap3\n      swap2\n      swap1\n      dup2\n      dup2\n      mstore\n      0x20\n      add\n      0x00\n      swap1\n    tag_103:\n      dup3\n      dup3\n      lt\n      iszero\n      tag_104\n      jumpi\n      dup4\n      dup3\n      swap1\n      0x00\n      mstore\n      keccak256(0x00, 0x20)\n      swap1\n      0x03\n      mul\n      add\n      mload(0x40)\n      dup1\n      0x60\n      add\n      0x40\n      mstore\n      swap1\n      dup2\n      0x00\n      dup3\n      add\n      sload\n      dup2\n      mstore\n      0x20\n      add\n      0x01\n      dup3\n      add\n      dup1\n      sload\n      tag_106\n      swap1\n      tag_107\n      jump\t// in\n    tag_106:\n      dup1\n      0x1f\n      add\n      0x20\n      dup1\n      swap2\n      div\n      mul\n      0x20\n      add\n      mload(0x40)\n      swap1\n      dup2\n      add\n      0x40\n      mstore\n      dup1\n      swap3\n      swap2\n      swap1\n      dup2\n      dup2\n      mstore\n      0x20\n      add\n      dup3\n      dup1\n      sload\n      tag_108\n      swap1\n      tag_107\n      jump\t// in\n    tag_108:\n      dup1\n      iszero\n      tag_109\n      jumpi\n      dup1\n      0x1f\n      lt\n      tag_110\n      jumpi\n      0x0100\n      dup1\n      dup4\n      sload\n      div\n      mul\n      dup4\n      mstore\n      swap2\n      0x20\n      add\n      swap2\n      jump(tag_109)\n    tag_110:\n      dup3\n      add\n      swap2\n      swap1\n      0x00\n      mstore\n      keccak256(0x00, 0x20)\n      swap1\n    tag_111:\n      dup2\n      sload\n      dup2\n      mstore\n      swap1\n      0x01\n      add\n      swap1\n      0x20\n      add\n      dup1\n      dup4\n      gt\n      tag_111\n      jumpi\n      dup3\n      swap1\n      sub\n      0x1f\n      and\n      dup3\n      add\n      swap2\n    tag_109:\n      pop\n      pop\n      pop\n      pop\n      pop\n      dup2\n      mstore\n      0x20\n      add\n      0x02\n      dup3\n      add\n      sload\n      dup2\n      mstore\n      pop\n      pop\n      dup2\n      mstore\n      0x20\n      add\n      swap1\n      0x01\n      add\n      swap1\n      jump(tag_103)\n    tag_104:\n      pop\n      pop\n      pop\n      pop\n      swap1\n      pop\n        /* \"VotingPlus.sol\":7445:7629  function listProposals() external view returns (Proposal[] memory) {... */\n      swap1\n      jump\t// out\n        /* \"VotingPlus.sol\":7216:7439  function addProposal(string calldata _description) external onlyVoters registeringProposals {... */\n    tag_27:\n        /* \"VotingPlus.sol\":1321:1325  true */\n      0x01\n        /* \"VotingPlus.sol\":1286:1325  voters[msg.sender].isRegistered == true */\n      iszero\n      iszero\n        /* \"VotingPlus.sol\":1286:1292  voters */\n      0x02\n        /* \"VotingPlus.sol\":1286:1304  voters[msg.sender] */\n      0x00\n        /* \"VotingPlus.sol\":1293:1303  msg.sender */\n      caller\n        /* \"VotingPlus.sol\":1286:1304  voters[msg.sender] */\n      0xffffffffffffffffffffffffffffffffffffffff\n      and\n      0xffffffffffffffffffffffffffffffffffffffff\n      and\n      dup2\n      mstore\n      0x20\n      add\n      swap1\n      dup2\n      mstore\n      0x20\n      add\n      0x00\n      keccak256\n        /* \"VotingPlus.sol\":1286:1317  voters[msg.sender].isRegistered */\n      0x00\n      add\n      0x00\n      swap1\n      sload\n      swap1\n      0x0100\n      exp\n      swap1\n      div\n      0xff\n      and\n        /* \"VotingPlus.sol\":1286:1325  voters[msg.sender].isRegistered == true */\n      iszero\n      iszero\n      eq\n        /* \"VotingPlus.sol\":1278:1356  require(voters[msg.sender].isRegistered == true, \"You are not a valid voter!\") */\n      tag_113\n      jumpi\n      mload(0x40)\n      0x08c379a000000000000000000000000000000000000000000000000000000000\n      dup2\n      mstore\n      0x04\n      add\n      tag_114\n      swap1\n      tag_115\n      jump\t// in\n    tag_114:\n      mload(0x40)\n      dup1\n      swap2\n      sub\n      swap1\n      revert\n    tag_113:\n        /* \"VotingPlus.sol\":3092:3128  WorkflowStatus.ProposalsRegistration */\n      0x01\n        /* \"VotingPlus.sol\":3072:3128  currentVoteState == WorkflowStatus.ProposalsRegistration */\n      0x03\n      dup2\n      gt\n      iszero\n      tag_117\n      jumpi\n      tag_118\n      tag_65\n      jump\t// in\n    tag_118:\n    tag_117:\n        /* \"VotingPlus.sol\":3072:3088  currentVoteState */\n      0x08\n      0x00\n      swap1\n      sload\n      swap1\n      0x0100\n      exp\n      swap1\n      div\n      0xff\n      and\n        /* \"VotingPlus.sol\":3072:3128  currentVoteState == WorkflowStatus.ProposalsRegistration */\n      0x03\n      dup2\n      gt\n      iszero\n      tag_119\n      jumpi\n      tag_120\n      tag_65\n      jump\t// in\n    tag_120:\n    tag_119:\n      eq\n        /* \"VotingPlus.sol\":3064:3162  require(currentVoteState == WorkflowStatus.ProposalsRegistration, \"You cannot register proposals\") */\n      tag_121\n      jumpi\n      mload(0x40)\n      0x08c379a000000000000000000000000000000000000000000000000000000000\n      dup2\n      mstore\n      0x04\n      add\n      tag_122\n      swap1\n      tag_123\n      jump\t// in\n    tag_122:\n      mload(0x40)\n      dup1\n      swap2\n      sub\n      swap1\n      revert\n    tag_121:\n        /* \"VotingPlus.sol\":7318:7327  proposals */\n      0x06\n        /* \"VotingPlus.sol\":7333:7377  Proposal(proposalIdCounter, _description, 0) */\n      mload(0x40)\n      dup1\n      0x60\n      add\n      0x40\n      mstore\n      dup1\n        /* \"VotingPlus.sol\":7342:7359  proposalIdCounter */\n      sload(0x07)\n        /* \"VotingPlus.sol\":7333:7377  Proposal(proposalIdCounter, _description, 0) */\n      dup2\n      mstore\n      0x20\n      add\n        /* \"VotingPlus.sol\":7361:7373  _description */\n      dup5\n      dup5\n        /* \"VotingPlus.sol\":7333:7377  Proposal(proposalIdCounter, _description, 0) */\n      dup1\n      dup1\n      0x1f\n      add\n      0x20\n      dup1\n      swap2\n      div\n      mul\n      0x20\n      add\n      mload(0x40)\n      swap1\n      dup2\n      add\n      0x40\n      mstore\n      dup1\n      swap4\n      swap3\n      swap2\n      swap1\n      dup2\n      dup2\n      mstore\n      0x20\n      add\n      dup4\n      dup4\n      dup1\n      dup3\n      dup5\n      calldatacopy\n      0x00\n      dup2\n      dup5\n      add\n      mstore\n      not(0x1f)\n      0x1f\n      dup3\n      add\n      and\n      swap1\n      pop\n      dup1\n      dup4\n      add\n      swap3\n      pop\n      pop\n      pop\n      pop\n      pop\n      pop\n      pop\n      dup2\n      mstore\n      0x20\n      add\n        /* \"VotingPlus.sol\":7375:7376  0 */\n      0x00\n        /* \"VotingPlus.sol\":7333:7377  Proposal(proposalIdCounter, _description, 0) */\n      dup2\n      mstore\n      pop\n        /* \"VotingPlus.sol\":7318:7378  proposals.push(Proposal(proposalIdCounter, _description, 0)) */\n      swap1\n      dup1\n      0x01\n      dup2\n      sload\n      add\n      dup1\n      dup3\n      sstore\n      dup1\n      swap2\n      pop\n      pop\n      0x01\n      swap1\n      sub\n      swap1\n      0x00\n      mstore\n      keccak256(0x00, 0x20)\n      swap1\n      0x03\n      mul\n      add\n      0x00\n      swap1\n      swap2\n      swap1\n      swap2\n      swap1\n      swap2\n      pop\n      0x00\n      dup3\n      add\n      mload\n      dup2\n      0x00\n      add\n      sstore\n      0x20\n      dup3\n      add\n      mload\n      dup2\n      0x01\n      add\n      swap1\n      dup2\n      tag_126\n      swap2\n      swap1\n      tag_127\n      jump\t// in\n    tag_126:\n      pop\n      0x40\n      dup3\n      add\n      mload\n      dup2\n      0x02\n      add\n      sstore\n      pop\n      pop\n        /* \"VotingPlus.sol\":7393:7432  ProposalRegistered(proposalIdCounter++) */\n      0x92e393e9b54e2f801d3ea4beb0c5e71a21cc34a5d34b77d0fb8a3aa1650dc18f\n        /* \"VotingPlus.sol\":7412:7429  proposalIdCounter */\n      0x07\n      0x00\n        /* \"VotingPlus.sol\":7412:7431  proposalIdCounter++ */\n      dup2\n      sload\n      dup1\n      swap3\n      swap2\n      swap1\n      tag_128\n      swap1\n      tag_129\n      jump\t// in\n    tag_128:\n      swap2\n      swap1\n      pop\n      sstore\n        /* \"VotingPlus.sol\":7393:7432  ProposalRegistered(proposalIdCounter++) */\n      mload(0x40)\n      tag_130\n      swap2\n      swap1\n      tag_131\n      jump\t// in\n    tag_130:\n      mload(0x40)\n      dup1\n      swap2\n      sub\n      swap1\n      log1\n        /* \"VotingPlus.sol\":7216:7439  function addProposal(string calldata _description) external onlyVoters registeringProposals {... */\n      pop\n      pop\n      jump\t// out\n        /* \"VotingPlus.sol\":9904:10540  function restartVoteFromScratch() external votesTallied onlyOwner {... */\n    tag_29:\n        /* \"VotingPlus.sol\":2379:2406  WorkflowStatus.VotesTallied */\n      0x03\n        /* \"VotingPlus.sol\":2359:2406  currentVoteState == WorkflowStatus.VotesTallied */\n      dup1\n      dup2\n      gt\n      iszero\n      tag_133\n      jumpi\n      tag_134\n      tag_65\n      jump\t// in\n    tag_134:\n    tag_133:\n        /* \"VotingPlus.sol\":2359:2375  currentVoteState */\n      0x08\n      0x00\n      swap1\n      sload\n      swap1\n      0x0100\n      exp\n      swap1\n      div\n      0xff\n      and\n        /* \"VotingPlus.sol\":2359:2406  currentVoteState == WorkflowStatus.VotesTallied */\n      0x03\n      dup2\n      gt\n      iszero\n      tag_135\n      jumpi\n      tag_136\n      tag_65\n      jump\t// in\n    tag_136:\n    tag_135:\n      eq\n        /* \"VotingPlus.sol\":2351:2470  require(currentVoteState == WorkflowStatus.VotesTallied, \"Votes need to be tallied in order to perform this operation\") */\n      tag_137\n      jumpi\n      mload(0x40)\n      0x08c379a000000000000000000000000000000000000000000000000000000000\n      dup2\n      mstore\n      0x04\n      add\n      tag_138\n      swap1\n      tag_70\n      jump\t// in\n    tag_138:\n      mload(0x40)\n      dup1\n      swap2\n      sub\n      swap1\n      revert\n    tag_137:\n        /* \"https://github.com/OpenZeppelin/openzeppelin-contracts/blob/master/contracts/access/Ownable.sol\":1531:1544  _checkOwner() */\n      tag_140\n        /* \"https://github.com/OpenZeppelin/openzeppelin-contracts/blob/master/contracts/access/Ownable.sol\":1531:1542  _checkOwner */\n      tag_61\n        /* \"https://github.com/OpenZeppelin/openzeppelin-contracts/blob/master/contracts/access/Ownable.sol\":1531:1544  _checkOwner() */\n      jump\t// in\n    tag_140:\n        /* \"VotingPlus.sol\":10075:10107  WorkflowStatus.RegisteringVoters */\n      0x00\n        /* \"VotingPlus.sol\":10056:10072  currentVoteState */\n      0x08\n      0x00\n        /* \"VotingPlus.sol\":10056:10107  currentVoteState = WorkflowStatus.RegisteringVoters */\n      0x0100\n      exp\n      dup2\n      sload\n      dup2\n      0xff\n      mul\n      not\n      and\n      swap1\n      dup4\n      0x03\n      dup2\n      gt\n      iszero\n      tag_142\n      jumpi\n      tag_143\n      tag_65\n      jump\t// in\n    tag_143:\n    tag_142:\n      mul\n      or\n      swap1\n      sstore\n      pop\n        /* \"VotingPlus.sol\":10179:10180  0 */\n      0x00\n        /* \"VotingPlus.sol\":10159:10176  proposalIdCounter */\n      0x07\n        /* \"VotingPlus.sol\":10159:10180  proposalIdCounter = 0 */\n      dup2\n      swap1\n      sstore\n      pop\n        /* \"VotingPlus.sol\":10197:10206  proposals */\n      0x06\n      0x00\n        /* \"VotingPlus.sol\":10190:10206  delete proposals */\n      tag_144\n      swap2\n      swap1\n      tag_76\n      jump\t// in\n    tag_144:\n        /* \"VotingPlus.sol\":10274:10275  0 */\n      0x00\n        /* \"VotingPlus.sol\":10259:10271  votersNumber */\n      0x04\n        /* \"VotingPlus.sol\":10259:10275  votersNumber = 0 */\n      dup2\n      swap1\n      sstore\n      pop\n        /* \"VotingPlus.sol\":10302:10303  0 */\n      0x00\n        /* \"VotingPlus.sol\":10285:10299  atLeastOneVote */\n      0x05\n        /* \"VotingPlus.sol\":10285:10303  atLeastOneVote = 0 */\n      dup2\n      swap1\n      sstore\n      pop\n        /* \"VotingPlus.sol\":10374:10380  uint i */\n      0x00\n        /* \"VotingPlus.sol\":10369:10463  for (uint i=0; i<votersKeys.length; i++) {... */\n    tag_145:\n        /* \"VotingPlus.sol\":10386:10396  votersKeys */\n      0x03\n        /* \"VotingPlus.sol\":10386:10403  votersKeys.length */\n      dup1\n      sload\n      swap1\n      pop\n        /* \"VotingPlus.sol\":10384:10385  i */\n      dup2\n        /* \"VotingPlus.sol\":10384:10403  i<votersKeys.length */\n      lt\n        /* \"VotingPlus.sol\":10369:10463  for (uint i=0; i<votersKeys.length; i++) {... */\n      iszero\n      tag_146\n      jumpi\n        /* \"VotingPlus.sol\":10431:10437  voters */\n      0x02\n        /* \"VotingPlus.sol\":10431:10452  voters[votersKeys[i]] */\n      0x00\n        /* \"VotingPlus.sol\":10438:10448  votersKeys */\n      0x03\n        /* \"VotingPlus.sol\":10449:10450  i */\n      dup4\n        /* \"VotingPlus.sol\":10438:10451  votersKeys[i] */\n      dup2\n      sload\n      dup2\n      lt\n      tag_148\n      jumpi\n      tag_149\n      tag_84\n      jump\t// in\n    tag_149:\n    tag_148:\n      swap1\n      0x00\n      mstore\n      keccak256(0x00, 0x20)\n      add\n      0x00\n      swap1\n      sload\n      swap1\n      0x0100\n      exp\n      swap1\n      div\n      0xffffffffffffffffffffffffffffffffffffffff\n      and\n        /* \"VotingPlus.sol\":10431:10452  voters[votersKeys[i]] */\n      0xffffffffffffffffffffffffffffffffffffffff\n      and\n      0xffffffffffffffffffffffffffffffffffffffff\n      and\n      dup2\n      mstore\n      0x20\n      add\n      swap1\n      dup2\n      mstore\n      0x20\n      add\n      0x00\n      keccak256\n      0x00\n        /* \"VotingPlus.sol\":10424:10452  delete voters[votersKeys[i]] */\n      dup1\n      dup3\n      add\n      exp(0x0100, 0x00)\n      dup2\n      sload\n      swap1\n      0xff\n      mul\n      not\n      and\n      swap1\n      sstore\n      0x01\n      dup3\n      add\n      0x00\n      swap1\n      sstore\n      0x02\n      dup3\n      add\n      0x00\n      swap1\n      sstore\n      0x03\n      dup3\n      add\n      0x00\n      tag_151\n      swap2\n      swap1\n      tag_96\n      jump\t// in\n    tag_151:\n      pop\n      pop\n        /* \"VotingPlus.sol\":10405:10408  i++ */\n      dup1\n      dup1\n      0x01\n      add\n      swap2\n      pop\n      pop\n        /* \"VotingPlus.sol\":10369:10463  for (uint i=0; i<votersKeys.length; i++) {... */\n      jump(tag_145)\n    tag_146:\n      pop\n        /* \"VotingPlus.sol\":10523:10533  votersKeys */\n      0x03\n      0x00\n        /* \"VotingPlus.sol\":10516:10533  delete votersKeys */\n      tag_152\n      swap2\n      swap1\n      tag_153\n      jump\t// in\n    tag_152:\n        /* \"VotingPlus.sol\":9904:10540  function restartVoteFromScratch() external votesTallied onlyOwner {... */\n      jump\t// out\n        /* \"https://github.com/OpenZeppelin/openzeppelin-contracts/blob/master/contracts/access/Ownable.sol\":2293:2394  function renounceOwnership() public virtual onlyOwner {... */\n    tag_31:\n        /* \"https://github.com/OpenZeppelin/openzeppelin-contracts/blob/master/contracts/access/Ownable.sol\":1531:1544  _checkOwner() */\n      tag_155\n        /* \"https://github.com/OpenZeppelin/openzeppelin-contracts/blob/master/contracts/access/Ownable.sol\":1531:1542  _checkOwner */\n      tag_61\n        /* \"https://github.com/OpenZeppelin/openzeppelin-contracts/blob/master/contracts/access/Ownable.sol\":1531:1544  _checkOwner() */\n      jump\t// in\n    tag_155:\n        /* \"https://github.com/OpenZeppelin/openzeppelin-contracts/blob/master/contracts/access/Ownable.sol\":2357:2387  _transferOwnership(address(0)) */\n      tag_157\n        /* \"https://github.com/OpenZeppelin/openzeppelin-contracts/blob/master/contracts/access/Ownable.sol\":2384:2385  0 */\n      0x00\n        /* \"https://github.com/OpenZeppelin/openzeppelin-contracts/blob/master/contracts/access/Ownable.sol\":2357:2375  _transferOwnership */\n      tag_158\n        /* \"https://github.com/OpenZeppelin/openzeppelin-contracts/blob/master/contracts/access/Ownable.sol\":2357:2387  _transferOwnership(address(0)) */\n      jump\t// in\n    tag_157:\n        /* \"https://github.com/OpenZeppelin/openzeppelin-contracts/blob/master/contracts/access/Ownable.sol\":2293:2394  function renounceOwnership() public virtual onlyOwner {... */\n      jump\t// out\n        /* \"VotingPlus.sol\":7635:8273  function voteForProposition(uint _proposalId) external onlyVoters votingProposals voteAsManyTimesAsYoureAllowedTo {... */\n    tag_35:\n        /* \"VotingPlus.sol\":1321:1325  true */\n      0x01\n        /* \"VotingPlus.sol\":1286:1325  voters[msg.sender].isRegistered == true */\n      iszero\n      iszero\n        /* \"VotingPlus.sol\":1286:1292  voters */\n      0x02\n        /* \"VotingPlus.sol\":1286:1304  voters[msg.sender] */\n      0x00\n        /* \"VotingPlus.sol\":1293:1303  msg.sender */\n      caller\n        /* \"VotingPlus.sol\":1286:1304  voters[msg.sender] */\n      0xffffffffffffffffffffffffffffffffffffffff\n      and\n      0xffffffffffffffffffffffffffffffffffffffff\n      and\n      dup2\n      mstore\n      0x20\n      add\n      swap1\n      dup2\n      mstore\n      0x20\n      add\n      0x00\n      keccak256\n        /* \"VotingPlus.sol\":1286:1317  voters[msg.sender].isRegistered */\n      0x00\n      add\n      0x00\n      swap1\n      sload\n      swap1\n      0x0100\n      exp\n      swap1\n      div\n      0xff\n      and\n        /* \"VotingPlus.sol\":1286:1325  voters[msg.sender].isRegistered == true */\n      iszero\n      iszero\n      eq\n        /* \"VotingPlus.sol\":1278:1356  require(voters[msg.sender].isRegistered == true, \"You are not a valid voter!\") */\n      tag_160\n      jumpi\n      mload(0x40)\n      0x08c379a000000000000000000000000000000000000000000000000000000000\n      dup2\n      mstore\n      0x04\n      add\n      tag_161\n      swap1\n      tag_115\n      jump\t// in\n    tag_161:\n      mload(0x40)\n      dup1\n      swap2\n      sub\n      swap1\n      revert\n    tag_160:\n        /* \"VotingPlus.sol\":3312:3340  WorkflowStatus.VotingSession */\n      0x02\n        /* \"VotingPlus.sol\":3292:3340  currentVoteState == WorkflowStatus.VotingSession */\n      0x03\n      dup2\n      gt\n      iszero\n      tag_163\n      jumpi\n      tag_164\n      tag_65\n      jump\t// in\n    tag_164:\n    tag_163:\n        /* \"VotingPlus.sol\":3292:3308  currentVoteState */\n      0x08\n      0x00\n      swap1\n      sload\n      swap1\n      0x0100\n      exp\n      swap1\n      div\n      0xff\n      and\n        /* \"VotingPlus.sol\":3292:3340  currentVoteState == WorkflowStatus.VotingSession */\n      0x03\n      dup2\n      gt\n      iszero\n      tag_165\n      jumpi\n      tag_166\n      tag_65\n      jump\t// in\n    tag_166:\n    tag_165:\n      eq\n        /* \"VotingPlus.sol\":3284:3370  require(currentVoteState == WorkflowStatus.VotingSession, \"You cannot vote proposals\") */\n      tag_167\n      jumpi\n      mload(0x40)\n      0x08c379a000000000000000000000000000000000000000000000000000000000\n      dup2\n      mstore\n      0x04\n      add\n      tag_168\n      swap1\n      tag_169\n      jump\t// in\n    tag_168:\n      mload(0x40)\n      dup1\n      swap2\n      sub\n      swap1\n      revert\n    tag_167:\n        /* \"VotingPlus.sol\":1529:1535  voters */\n      0x02\n        /* \"VotingPlus.sol\":1529:1547  voters[msg.sender] */\n      0x00\n        /* \"VotingPlus.sol\":1536:1546  msg.sender */\n      caller\n        /* \"VotingPlus.sol\":1529:1547  voters[msg.sender] */\n      0xffffffffffffffffffffffffffffffffffffffff\n      and\n      0xffffffffffffffffffffffffffffffffffffffff\n      and\n      dup2\n      mstore\n      0x20\n      add\n      swap1\n      dup2\n      mstore\n      0x20\n      add\n      0x00\n      keccak256\n        /* \"VotingPlus.sol\":1529:1555  voters[msg.sender].nbVotes */\n      0x02\n      add\n      sload\n        /* \"VotingPlus.sol\":1499:1505  voters */\n      0x02\n        /* \"VotingPlus.sol\":1499:1517  voters[msg.sender] */\n      0x00\n        /* \"VotingPlus.sol\":1506:1516  msg.sender */\n      caller\n        /* \"VotingPlus.sol\":1499:1517  voters[msg.sender] */\n      0xffffffffffffffffffffffffffffffffffffffff\n      and\n      0xffffffffffffffffffffffffffffffffffffffff\n      and\n      dup2\n      mstore\n      0x20\n      add\n      swap1\n      dup2\n      mstore\n      0x20\n      add\n      0x00\n      keccak256\n        /* \"VotingPlus.sol\":1499:1526  voters[msg.sender].hasVoted */\n      0x01\n      add\n      sload\n        /* \"VotingPlus.sol\":1499:1555  voters[msg.sender].hasVoted < voters[msg.sender].nbVotes */\n      lt\n        /* \"VotingPlus.sol\":1491:1592  require(voters[msg.sender].hasVoted < voters[msg.sender].nbVotes, \"You already used all your votes!\") */\n      tag_171\n      jumpi\n      mload(0x40)\n      0x08c379a000000000000000000000000000000000000000000000000000000000\n      dup2\n      mstore\n      0x04\n      add\n      tag_172\n      swap1\n      tag_173\n      jump\t// in\n    tag_172:\n      mload(0x40)\n      dup1\n      swap2\n      sub\n      swap1\n      revert\n    tag_171:\n        /* \"VotingPlus.sol\":7782:7783  0 */\n      0x00\n        /* \"VotingPlus.sol\":7767:7778  _proposalId */\n      dup2\n        /* \"VotingPlus.sol\":7767:7783  _proposalId >= 0 */\n      lt\n      iszero\n        /* \"VotingPlus.sol\":7767:7817  _proposalId >= 0 && _proposalId < proposals.length */\n      dup1\n      iszero\n      tag_175\n      jumpi\n      pop\n        /* \"VotingPlus.sol\":7801:7810  proposals */\n      0x06\n        /* \"VotingPlus.sol\":7801:7817  proposals.length */\n      dup1\n      sload\n      swap1\n      pop\n        /* \"VotingPlus.sol\":7787:7798  _proposalId */\n      dup2\n        /* \"VotingPlus.sol\":7787:7817  _proposalId < proposals.length */\n      lt\n        /* \"VotingPlus.sol\":7767:7817  _proposalId >= 0 && _proposalId < proposals.length */\n    tag_175:\n        /* \"VotingPlus.sol\":7759:7871  require(_proposalId >= 0 && _proposalId < proposals.length, \"The proposition you're voting for does not exist!\") */\n      tag_176\n      jumpi\n      mload(0x40)\n      0x08c379a000000000000000000000000000000000000000000000000000000000\n      dup2\n      mstore\n      0x04\n      add\n      tag_177\n      swap1\n      tag_178\n      jump\t// in\n    tag_177:\n      mload(0x40)\n      dup1\n      swap2\n      sub\n      swap1\n      revert\n    tag_176:\n        /* \"VotingPlus.sol\":7882:7891  proposals */\n      0x06\n        /* \"VotingPlus.sol\":7892:7903  _proposalId */\n      dup2\n        /* \"VotingPlus.sol\":7882:7904  proposals[_proposalId] */\n      dup2\n      sload\n      dup2\n      lt\n      tag_179\n      jumpi\n      tag_180\n      tag_84\n      jump\t// in\n    tag_180:\n    tag_179:\n      swap1\n      0x00\n      mstore\n      keccak256(0x00, 0x20)\n      swap1\n      0x03\n      mul\n      add\n        /* \"VotingPlus.sol\":7882:7914  proposals[_proposalId].voteCount */\n      0x02\n      add\n      0x00\n        /* \"VotingPlus.sol\":7882:7916  proposals[_proposalId].voteCount++ */\n      dup2\n      sload\n      dup1\n      swap3\n      swap2\n      swap1\n      tag_182\n      swap1\n      tag_129\n      jump\t// in\n    tag_182:\n      swap2\n      swap1\n      pop\n      sstore\n      pop\n        /* \"VotingPlus.sol\":8073:8079  voters */\n      0x02\n        /* \"VotingPlus.sol\":8073:8091  voters[msg.sender] */\n      0x00\n        /* \"VotingPlus.sol\":8080:8090  msg.sender */\n      caller\n        /* \"VotingPlus.sol\":8073:8091  voters[msg.sender] */\n      0xffffffffffffffffffffffffffffffffffffffff\n      and\n      0xffffffffffffffffffffffffffffffffffffffff\n      and\n      dup2\n      mstore\n      0x20\n      add\n      swap1\n      dup2\n      mstore\n      0x20\n      add\n      0x00\n      keccak256\n        /* \"VotingPlus.sol\":8073:8100  voters[msg.sender].hasVoted */\n      0x01\n      add\n      0x00\n        /* \"VotingPlus.sol\":8073:8102  voters[msg.sender].hasVoted++ */\n      dup2\n      sload\n      dup1\n      swap3\n      swap2\n      swap1\n      tag_183\n      swap1\n      tag_129\n      jump\t// in\n    tag_183:\n      swap2\n      swap1\n      pop\n      sstore\n      pop\n        /* \"VotingPlus.sol\":8112:8118  voters */\n      0x02\n        /* \"VotingPlus.sol\":8112:8130  voters[msg.sender] */\n      0x00\n        /* \"VotingPlus.sol\":8119:8129  msg.sender */\n      caller\n        /* \"VotingPlus.sol\":8112:8130  voters[msg.sender] */\n      0xffffffffffffffffffffffffffffffffffffffff\n      and\n      0xffffffffffffffffffffffffffffffffffffffff\n      and\n      dup2\n      mstore\n      0x20\n      add\n      swap1\n      dup2\n      mstore\n      0x20\n      add\n      0x00\n      keccak256\n        /* \"VotingPlus.sol\":8112:8147  voters[msg.sender].votedProposalIds */\n      0x03\n      add\n        /* \"VotingPlus.sol\":8153:8162  proposals */\n      0x06\n        /* \"VotingPlus.sol\":8163:8174  _proposalId */\n      dup3\n        /* \"VotingPlus.sol\":8153:8175  proposals[_proposalId] */\n      dup2\n      sload\n      dup2\n      lt\n      tag_184\n      jumpi\n      tag_185\n      tag_84\n      jump\t// in\n    tag_185:\n    tag_184:\n      swap1\n      0x00\n      mstore\n      keccak256(0x00, 0x20)\n      swap1\n      0x03\n      mul\n      add\n        /* \"VotingPlus.sol\":8153:8178  proposals[_proposalId].id */\n      0x00\n      add\n      sload\n        /* \"VotingPlus.sol\":8112:8179  voters[msg.sender].votedProposalIds.push(proposals[_proposalId].id) */\n      swap1\n      dup1\n      0x01\n      dup2\n      sload\n      add\n      dup1\n      dup3\n      sstore\n      dup1\n      swap2\n      pop\n      pop\n      0x01\n      swap1\n      sub\n      swap1\n      0x00\n      mstore\n      keccak256(0x00, 0x20)\n      add\n      0x00\n      swap1\n      swap2\n      swap1\n      swap2\n      swap1\n      swap2\n      pop\n      sstore\n        /* \"VotingPlus.sol\":8190:8204  atLeastOneVote */\n      0x05\n      0x00\n        /* \"VotingPlus.sol\":8190:8206  atLeastOneVote++ */\n      dup2\n      sload\n      dup1\n      swap3\n      swap2\n      swap1\n      tag_188\n      swap1\n      tag_129\n      jump\t// in\n    tag_188:\n      swap2\n      swap1\n      pop\n      sstore\n      pop\n        /* \"VotingPlus.sol\":8221:8265  Voted(msg.sender, proposals[_proposalId].id) */\n      0x4d99b957a2bc29a30ebd96a7be8e68fe50a3c701db28a91436490b7d53870ca4\n        /* \"VotingPlus.sol\":8227:8237  msg.sender */\n      caller\n        /* \"VotingPlus.sol\":8239:8248  proposals */\n      0x06\n        /* \"VotingPlus.sol\":8249:8260  _proposalId */\n      dup4\n        /* \"VotingPlus.sol\":8239:8261  proposals[_proposalId] */\n      dup2\n      sload\n      dup2\n      lt\n      tag_189\n      jumpi\n      tag_190\n      tag_84\n      jump\t// in\n    tag_190:\n    tag_189:\n      swap1\n      0x00\n      mstore\n      keccak256(0x00, 0x20)\n      swap1\n      0x03\n      mul\n      add\n        /* \"VotingPlus.sol\":8239:8264  proposals[_proposalId].id */\n      0x00\n      add\n      sload\n        /* \"VotingPlus.sol\":8221:8265  Voted(msg.sender, proposals[_proposalId].id) */\n      mload(0x40)\n      tag_192\n      swap3\n      swap2\n      swap1\n      tag_193\n      jump\t// in\n    tag_192:\n      mload(0x40)\n      dup1\n      swap2\n      sub\n      swap1\n      log1\n        /* \"VotingPlus.sol\":7635:8273  function voteForProposition(uint _proposalId) external onlyVoters votingProposals voteAsManyTimesAsYoureAllowedTo {... */\n      pop\n      jump\t// out\n        /* \"https://github.com/OpenZeppelin/openzeppelin-contracts/blob/master/contracts/access/Ownable.sol\":1638:1723  function owner() public view virtual returns (address) {... */\n    tag_37:\n        /* \"https://github.com/OpenZeppelin/openzeppelin-contracts/blob/master/contracts/access/Ownable.sol\":1684:1691  address */\n      0x00\n        /* \"https://github.com/OpenZeppelin/openzeppelin-contracts/blob/master/contracts/access/Ownable.sol\":1710:1716  _owner */\n      dup1\n      0x00\n      swap1\n      sload\n      swap1\n      0x0100\n      exp\n      swap1\n      div\n      0xffffffffffffffffffffffffffffffffffffffff\n      and\n        /* \"https://github.com/OpenZeppelin/openzeppelin-contracts/blob/master/contracts/access/Ownable.sol\":1703:1716  return _owner */\n      swap1\n      pop\n        /* \"https://github.com/OpenZeppelin/openzeppelin-contracts/blob/master/contracts/access/Ownable.sol\":1638:1723  function owner() public view virtual returns (address) {... */\n      swap1\n      jump\t// out\n        /* \"VotingPlus.sol\":8279:9041  function getWinner() external votesTallied returns (Proposal[] memory) {... */\n    tag_41:\n        /* \"VotingPlus.sol\":8331:8348  Proposal[] memory */\n      0x60\n        /* \"VotingPlus.sol\":2379:2406  WorkflowStatus.VotesTallied */\n      0x03\n        /* \"VotingPlus.sol\":2359:2406  currentVoteState == WorkflowStatus.VotesTallied */\n      dup1\n      dup2\n      gt\n      iszero\n      tag_196\n      jumpi\n      tag_197\n      tag_65\n      jump\t// in\n    tag_197:\n    tag_196:\n        /* \"VotingPlus.sol\":2359:2375  currentVoteState */\n      0x08\n      0x00\n      swap1\n      sload\n      swap1\n      0x0100\n      exp\n      swap1\n      div\n      0xff\n      and\n        /* \"VotingPlus.sol\":2359:2406  currentVoteState == WorkflowStatus.VotesTallied */\n      0x03\n      dup2\n      gt\n      iszero\n      tag_198\n      jumpi\n      tag_199\n      tag_65\n      jump\t// in\n    tag_199:\n    tag_198:\n      eq\n        /* \"VotingPlus.sol\":2351:2470  require(currentVoteState == WorkflowStatus.VotesTallied, \"Votes need to be tallied in order to perform this operation\") */\n      tag_200\n      jumpi\n      mload(0x40)\n      0x08c379a000000000000000000000000000000000000000000000000000000000\n      dup2\n      mstore\n      0x04\n      add\n      tag_201\n      swap1\n      tag_70\n      jump\t// in\n    tag_201:\n      mload(0x40)\n      dup1\n      swap2\n      sub\n      swap1\n      revert\n    tag_200:\n        /* \"VotingPlus.sol\":8361:8378  uint maxVoteCount */\n      0x00\n        /* \"VotingPlus.sol\":8464:8470  uint i */\n      dup1\n        /* \"VotingPlus.sol\":8459:8854  for (uint i=0; i<proposals.length; i++) {... */\n    tag_203:\n        /* \"VotingPlus.sol\":8476:8485  proposals */\n      0x06\n        /* \"VotingPlus.sol\":8476:8492  proposals.length */\n      dup1\n      sload\n      swap1\n      pop\n        /* \"VotingPlus.sol\":8474:8475  i */\n      dup2\n        /* \"VotingPlus.sol\":8474:8492  i<proposals.length */\n      lt\n        /* \"VotingPlus.sol\":8459:8854  for (uint i=0; i<proposals.length; i++) {... */\n      iszero\n      tag_204\n      jumpi\n        /* \"VotingPlus.sol\":8513:8537  Proposal memory proposal */\n      0x00\n        /* \"VotingPlus.sol\":8540:8549  proposals */\n      0x06\n        /* \"VotingPlus.sol\":8550:8551  i */\n      dup3\n        /* \"VotingPlus.sol\":8540:8552  proposals[i] */\n      dup2\n      sload\n      dup2\n      lt\n      tag_206\n      jumpi\n      tag_207\n      tag_84\n      jump\t// in\n    tag_207:\n    tag_206:\n      swap1\n      0x00\n      mstore\n      keccak256(0x00, 0x20)\n      swap1\n      0x03\n      mul\n      add\n        /* \"VotingPlus.sol\":8513:8552  Proposal memory proposal = proposals[i] */\n      mload(0x40)\n      dup1\n      0x60\n      add\n      0x40\n      mstore\n      swap1\n      dup2\n      0x00\n      dup3\n      add\n      sload\n      dup2\n      mstore\n      0x20\n      add\n      0x01\n      dup3\n      add\n      dup1\n      sload\n      tag_209\n      swap1\n      tag_107\n      jump\t// in\n    tag_209:\n      dup1\n      0x1f\n      add\n      0x20\n      dup1\n      swap2\n      div\n      mul\n      0x20\n      add\n      mload(0x40)\n      swap1\n      dup2\n      add\n      0x40\n      mstore\n      dup1\n      swap3\n      swap2\n      swap1\n      dup2\n      dup2\n      mstore\n      0x20\n      add\n      dup3\n      dup1\n      sload\n      tag_210\n      swap1\n      tag_107\n      jump\t// in\n    tag_210:\n      dup1\n      iszero\n      tag_211\n      jumpi\n      dup1\n      0x1f\n      lt\n      tag_212\n      jumpi\n      0x0100\n      dup1\n      dup4\n      sload\n      div\n      mul\n      dup4\n      mstore\n      swap2\n      0x20\n      add\n      swap2\n      jump(tag_211)\n    tag_212:\n      dup3\n      add\n      swap2\n      swap1\n      0x00\n      mstore\n      keccak256(0x00, 0x20)\n      swap1\n    tag_213:\n      dup2\n      sload\n      dup2\n      mstore\n      swap1\n      0x01\n      add\n      swap1\n      0x20\n      add\n      dup1\n      dup4\n      gt\n      tag_213\n      jumpi\n      dup3\n      swap1\n      sub\n      0x1f\n      and\n      dup3\n      add\n      swap2\n    tag_211:\n      pop\n      pop\n      pop\n      pop\n      pop\n      dup2\n      mstore\n      0x20\n      add\n      0x02\n      dup3\n      add\n      sload\n      dup2\n      mstore\n      pop\n      pop\n      swap1\n      pop\n        /* \"VotingPlus.sol\":8591:8603  maxVoteCount */\n      dup3\n        /* \"VotingPlus.sol\":8570:8578  proposal */\n      dup2\n        /* \"VotingPlus.sol\":8570:8588  proposal.voteCount */\n      0x40\n      add\n      mload\n        /* \"VotingPlus.sol\":8570:8603  proposal.voteCount > maxVoteCount */\n      gt\n        /* \"VotingPlus.sol\":8566:8844  if (proposal.voteCount > maxVoteCount) {... */\n      iszero\n      tag_214\n      jumpi\n        /* \"VotingPlus.sol\":8630:8637  winners */\n      0x01\n      0x00\n        /* \"VotingPlus.sol\":8623:8637  delete winners */\n      tag_215\n      swap2\n      swap1\n      tag_76\n      jump\t// in\n    tag_215:\n        /* \"VotingPlus.sol\":8655:8662  winners */\n      0x01\n        /* \"VotingPlus.sol\":8668:8676  proposal */\n      dup2\n        /* \"VotingPlus.sol\":8655:8677  winners.push(proposal) */\n      swap1\n      dup1\n      0x01\n      dup2\n      sload\n      add\n      dup1\n      dup3\n      sstore\n      dup1\n      swap2\n      pop\n      pop\n      0x01\n      swap1\n      sub\n      swap1\n      0x00\n      mstore\n      keccak256(0x00, 0x20)\n      swap1\n      0x03\n      mul\n      add\n      0x00\n      swap1\n      swap2\n      swap1\n      swap2\n      swap1\n      swap2\n      pop\n      0x00\n      dup3\n      add\n      mload\n      dup2\n      0x00\n      add\n      sstore\n      0x20\n      dup3\n      add\n      mload\n      dup2\n      0x01\n      add\n      swap1\n      dup2\n      tag_217\n      swap2\n      swap1\n      tag_127\n      jump\t// in\n    tag_217:\n      pop\n      0x40\n      dup3\n      add\n      mload\n      dup2\n      0x02\n      add\n      sstore\n      pop\n      pop\n        /* \"VotingPlus.sol\":8710:8718  proposal */\n      dup1\n        /* \"VotingPlus.sol\":8710:8728  proposal.voteCount */\n      0x40\n      add\n      mload\n        /* \"VotingPlus.sol\":8695:8728  maxVoteCount = proposal.voteCount */\n      swap3\n      pop\n        /* \"VotingPlus.sol\":8566:8844  if (proposal.voteCount > maxVoteCount) {... */\n      jump(tag_218)\n    tag_214:\n        /* \"VotingPlus.sol\":8775:8787  maxVoteCount */\n      dup3\n        /* \"VotingPlus.sol\":8753:8761  proposal */\n      dup2\n        /* \"VotingPlus.sol\":8753:8771  proposal.voteCount */\n      0x40\n      add\n      mload\n        /* \"VotingPlus.sol\":8753:8787  proposal.voteCount == maxVoteCount */\n      sub\n        /* \"VotingPlus.sol\":8749:8844  if (proposal.voteCount == maxVoteCount) {... */\n      tag_219\n      jumpi\n        /* \"VotingPlus.sol\":8807:8814  winners */\n      0x01\n        /* \"VotingPlus.sol\":8820:8828  proposal */\n      dup2\n        /* \"VotingPlus.sol\":8807:8829  winners.push(proposal) */\n      swap1\n      dup1\n      0x01\n      dup2\n      sload\n      add\n      dup1\n      dup3\n      sstore\n      dup1\n      swap2\n      pop\n      pop\n      0x01\n      swap1\n      sub\n      swap1\n      0x00\n      mstore\n      keccak256(0x00, 0x20)\n      swap1\n      0x03\n      mul\n      add\n      0x00\n      swap1\n      swap2\n      swap1\n      swap2\n      swap1\n      swap2\n      pop\n      0x00\n      dup3\n      add\n      mload\n      dup2\n      0x00\n      add\n      sstore\n      0x20\n      dup3\n      add\n      mload\n      dup2\n      0x01\n      add\n      swap1\n      dup2\n      tag_221\n      swap2\n      swap1\n      tag_127\n      jump\t// in\n    tag_221:\n      pop\n      0x40\n      dup3\n      add\n      mload\n      dup2\n      0x02\n      add\n      sstore\n      pop\n      pop\n        /* \"VotingPlus.sol\":8749:8844  if (proposal.voteCount == maxVoteCount) {... */\n    tag_219:\n        /* \"VotingPlus.sol\":8566:8844  if (proposal.voteCount > maxVoteCount) {... */\n    tag_218:\n        /* \"VotingPlus.sol\":8499:8854  {... */\n      pop\n        /* \"VotingPlus.sol\":8494:8497  i++ */\n      dup1\n      dup1\n      0x01\n      add\n      swap2\n      pop\n      pop\n        /* \"VotingPlus.sol\":8459:8854  for (uint i=0; i<proposals.length; i++) {... */\n      jump(tag_203)\n    tag_204:\n      pop\n        /* \"VotingPlus.sol\":8885:8886  1 */\n      0x01\n        /* \"VotingPlus.sol\":8868:8875  winners */\n      dup1\n        /* \"VotingPlus.sol\":8868:8882  winners.length */\n      dup1\n      sload\n      swap1\n      pop\n        /* \"VotingPlus.sol\":8868:8886  winners.length > 1 */\n      gt\n        /* \"VotingPlus.sol\":8864:9010  if (winners.length > 1 ) {... */\n      iszero\n      tag_222\n      jumpi\n        /* \"VotingPlus.sol\":8908:8999  VoteEquality(\"You must vote again for one of the propositions which qualified previously!\") */\n      0x9152e2dccfc44aa8ab1fb145f54b5e72ae0202e28c3ce79d77c70e502c31eae2\n      mload(0x40)\n      tag_223\n      swap1\n      tag_224\n      jump\t// in\n    tag_223:\n      mload(0x40)\n      dup1\n      swap2\n      sub\n      swap1\n      log1\n        /* \"VotingPlus.sol\":8864:9010  if (winners.length > 1 ) {... */\n    tag_222:\n        /* \"VotingPlus.sol\":9027:9034  winners */\n      0x01\n        /* \"VotingPlus.sol\":9020:9034  return winners */\n      dup1\n      sload\n      dup1\n      0x20\n      mul\n      0x20\n      add\n      mload(0x40)\n      swap1\n      dup2\n      add\n      0x40\n      mstore\n      dup1\n      swap3\n      swap2\n      swap1\n      dup2\n      dup2\n      mstore\n      0x20\n      add\n      0x00\n      swap1\n    tag_225:\n      dup3\n      dup3\n      lt\n      iszero\n      tag_226\n      jumpi\n      dup4\n      dup3\n      swap1\n      0x00\n      mstore\n      keccak256(0x00, 0x20)\n      swap1\n      0x03\n      mul\n      add\n      mload(0x40)\n      dup1\n      0x60\n      add\n      0x40\n      mstore\n      swap1\n      dup2\n      0x00\n      dup3\n      add\n      sload\n      dup2\n      mstore\n      0x20\n      add\n      0x01\n      dup3\n      add\n      dup1\n      sload\n      tag_228\n      swap1\n      tag_107\n      jump\t// in\n    tag_228:\n      dup1\n      0x1f\n      add\n      0x20\n      dup1\n      swap2\n      div\n      mul\n      0x20\n      add\n      mload(0x40)\n      swap1\n      dup2\n      add\n      0x40\n      mstore\n      dup1\n      swap3\n      swap2\n      swap1\n      dup2\n      dup2\n      mstore\n      0x20\n      add\n      dup3\n      dup1\n      sload\n      tag_229\n      swap1\n      tag_107\n      jump\t// in\n    tag_229:\n      dup1\n      iszero\n      tag_230\n      jumpi\n      dup1\n      0x1f\n      lt\n      tag_231\n      jumpi\n      0x0100\n      dup1\n      dup4\n      sload\n      div\n      mul\n      dup4\n      mstore\n      swap2\n      0x20\n      add\n      swap2\n      jump(tag_230)\n    tag_231:\n      dup3\n      add\n      swap2\n      swap1\n      0x00\n      mstore\n      keccak256(0x00, 0x20)\n      swap1\n    tag_232:\n      dup2\n      sload\n      dup2\n      mstore\n      swap1\n      0x01\n      add\n      swap1\n      0x20\n      add\n      dup1\n      dup4\n      gt\n      tag_232\n      jumpi\n      dup3\n      swap1\n      sub\n      0x1f\n      and\n      dup3\n      add\n      swap2\n    tag_230:\n      pop\n      pop\n      pop\n      pop\n      pop\n      dup2\n      mstore\n      0x20\n      add\n      0x02\n      dup3\n      add\n      sload\n      dup2\n      mstore\n      pop\n      pop\n      dup2\n      mstore\n      0x20\n      add\n      swap1\n      0x01\n      add\n      swap1\n      jump(tag_225)\n    tag_226:\n      pop\n      pop\n      pop\n      pop\n      swap2\n      pop\n      pop\n        /* \"VotingPlus.sol\":8279:9041  function getWinner() external votesTallied returns (Proposal[] memory) {... */\n      swap1\n      jump\t// out\n        /* \"VotingPlus.sol\":6325:6820  function delegateVote(address _delegate) onlyVoters registeringVoters external {... */\n    tag_46:\n        /* \"VotingPlus.sol\":1321:1325  true */\n      0x01\n        /* \"VotingPlus.sol\":1286:1325  voters[msg.sender].isRegistered == true */\n      iszero\n      iszero\n        /* \"VotingPlus.sol\":1286:1292  voters */\n      0x02\n        /* \"VotingPlus.sol\":1286:1304  voters[msg.sender] */\n      0x00\n        /* \"VotingPlus.sol\":1293:1303  msg.sender */\n      caller\n        /* \"VotingPlus.sol\":1286:1304  voters[msg.sender] */\n      0xffffffffffffffffffffffffffffffffffffffff\n      and\n      0xffffffffffffffffffffffffffffffffffffffff\n      and\n      dup2\n      mstore\n      0x20\n      add\n      swap1\n      dup2\n      mstore\n      0x20\n      add\n      0x00\n      keccak256\n        /* \"VotingPlus.sol\":1286:1317  voters[msg.sender].isRegistered */\n      0x00\n      add\n      0x00\n      swap1\n      sload\n      swap1\n      0x0100\n      exp\n      swap1\n      div\n      0xff\n      and\n        /* \"VotingPlus.sol\":1286:1325  voters[msg.sender].isRegistered == true */\n      iszero\n      iszero\n      eq\n        /* \"VotingPlus.sol\":1278:1356  require(voters[msg.sender].isRegistered == true, \"You are not a valid voter!\") */\n      tag_234\n      jumpi\n      mload(0x40)\n      0x08c379a000000000000000000000000000000000000000000000000000000000\n      dup2\n      mstore\n      0x04\n      add\n      tag_235\n      swap1\n      tag_115\n      jump\t// in\n    tag_235:\n      mload(0x40)\n      dup1\n      swap2\n      sub\n      swap1\n      revert\n    tag_234:\n        /* \"VotingPlus.sol\":2869:2901  WorkflowStatus.RegisteringVoters */\n      0x00\n        /* \"VotingPlus.sol\":2849:2901  currentVoteState == WorkflowStatus.RegisteringVoters */\n      0x03\n      dup2\n      gt\n      iszero\n      tag_237\n      jumpi\n      tag_238\n      tag_65\n      jump\t// in\n    tag_238:\n    tag_237:\n        /* \"VotingPlus.sol\":2849:2865  currentVoteState */\n      0x08\n      0x00\n      swap1\n      sload\n      swap1\n      0x0100\n      exp\n      swap1\n      div\n      0xff\n      and\n        /* \"VotingPlus.sol\":2849:2901  currentVoteState == WorkflowStatus.RegisteringVoters */\n      0x03\n      dup2\n      gt\n      iszero\n      tag_239\n      jumpi\n      tag_240\n      tag_65\n      jump\t// in\n    tag_240:\n    tag_239:\n      eq\n        /* \"VotingPlus.sol\":2841:2932  require(currentVoteState == WorkflowStatus.RegisteringVoters, \"You cannot register voters\") */\n      tag_241\n      jumpi\n      mload(0x40)\n      0x08c379a000000000000000000000000000000000000000000000000000000000\n      dup2\n      mstore\n      0x04\n      add\n      tag_242\n      swap1\n      tag_243\n      jump\t// in\n    tag_242:\n      mload(0x40)\n      dup1\n      swap2\n      sub\n      swap1\n      revert\n    tag_241:\n        /* \"VotingPlus.sol\":6494:6500  voters */\n      0x02\n        /* \"VotingPlus.sol\":6494:6511  voters[_delegate] */\n      0x00\n        /* \"VotingPlus.sol\":6501:6510  _delegate */\n      dup3\n        /* \"VotingPlus.sol\":6494:6511  voters[_delegate] */\n      0xffffffffffffffffffffffffffffffffffffffff\n      and\n      0xffffffffffffffffffffffffffffffffffffffff\n      and\n      dup2\n      mstore\n      0x20\n      add\n      swap1\n      dup2\n      mstore\n      0x20\n      add\n      0x00\n      keccak256\n        /* \"VotingPlus.sol\":6494:6524  voters[_delegate].isRegistered */\n      0x00\n      add\n      0x00\n      swap1\n      sload\n      swap1\n      0x0100\n      exp\n      swap1\n      div\n      0xff\n      and\n        /* \"VotingPlus.sol\":6490:6740  if (voters[_delegate].isRegistered) {... */\n      iszero\n      tag_245\n      jumpi\n        /* \"VotingPlus.sol\":6596:6602  voters */\n      0x02\n        /* \"VotingPlus.sol\":6596:6613  voters[_delegate] */\n      0x00\n        /* \"VotingPlus.sol\":6603:6612  _delegate */\n      dup3\n        /* \"VotingPlus.sol\":6596:6613  voters[_delegate] */\n      0xffffffffffffffffffffffffffffffffffffffff\n      and\n      0xffffffffffffffffffffffffffffffffffffffff\n      and\n      dup2\n      mstore\n      0x20\n      add\n      swap1\n      dup2\n      mstore\n      0x20\n      add\n      0x00\n      keccak256\n        /* \"VotingPlus.sol\":6596:6621  voters[_delegate].nbVotes */\n      0x02\n      add\n      0x00\n        /* \"VotingPlus.sol\":6596:6623  voters[_delegate].nbVotes++ */\n      dup2\n      sload\n      dup1\n      swap3\n      swap2\n      swap1\n      tag_246\n      swap1\n      tag_129\n      jump\t// in\n    tag_246:\n      swap2\n      swap1\n      pop\n      sstore\n      pop\n        /* \"VotingPlus.sol\":6490:6740  if (voters[_delegate].isRegistered) {... */\n      jump(tag_247)\n    tag_245:\n        /* \"VotingPlus.sol\":6702:6729  addVoterInternal(_delegate) */\n      tag_248\n        /* \"VotingPlus.sol\":6719:6728  _delegate */\n      dup2\n        /* \"VotingPlus.sol\":6702:6718  addVoterInternal */\n      tag_249\n        /* \"VotingPlus.sol\":6702:6729  addVoterInternal(_delegate) */\n      jump\t// in\n    tag_248:\n        /* \"VotingPlus.sol\":6490:6740  if (voters[_delegate].isRegistered) {... */\n    tag_247:\n        /* \"VotingPlus.sol\":6789:6812  deleteVoter(msg.sender) */\n      tag_250\n        /* \"VotingPlus.sol\":6801:6811  msg.sender */\n      caller\n        /* \"VotingPlus.sol\":6789:6800  deleteVoter */\n      tag_251\n        /* \"VotingPlus.sol\":6789:6812  deleteVoter(msg.sender) */\n      jump\t// in\n    tag_250:\n        /* \"VotingPlus.sol\":6325:6820  function delegateVote(address _delegate) onlyVoters registeringVoters external {... */\n      pop\n      jump\t// out\n        /* \"VotingPlus.sol\":4961:5070  function getCurrentVoteStep() external view returns (WorkflowStatus) {... */\n    tag_48:\n        /* \"VotingPlus.sol\":5014:5028  WorkflowStatus */\n      0x00\n        /* \"VotingPlus.sol\":5047:5063  currentVoteState */\n      0x08\n      0x00\n      swap1\n      sload\n      swap1\n      0x0100\n      exp\n      swap1\n      div\n      0xff\n      and\n        /* \"VotingPlus.sol\":5040:5063  return currentVoteState */\n      swap1\n      pop\n        /* \"VotingPlus.sol\":4961:5070  function getCurrentVoteStep() external view returns (WorkflowStatus) {... */\n      swap1\n      jump\t// out\n        /* \"https://github.com/OpenZeppelin/openzeppelin-contracts/blob/master/contracts/access/Ownable.sol\":2543:2758  function transferOwnership(address newOwner) public virtual onlyOwner {... */\n    tag_53:\n        /* \"https://github.com/OpenZeppelin/openzeppelin-contracts/blob/master/contracts/access/Ownable.sol\":1531:1544  _checkOwner() */\n      tag_254\n        /* \"https://github.com/OpenZeppelin/openzeppelin-contracts/blob/master/contracts/access/Ownable.sol\":1531:1542  _checkOwner */\n      tag_61\n        /* \"https://github.com/OpenZeppelin/openzeppelin-contracts/blob/master/contracts/access/Ownable.sol\":1531:1544  _checkOwner() */\n      jump\t// in\n    tag_254:\n        /* \"https://github.com/OpenZeppelin/openzeppelin-contracts/blob/master/contracts/access/Ownable.sol\":2647:2648  0 */\n      0x00\n        /* \"https://github.com/OpenZeppelin/openzeppelin-contracts/blob/master/contracts/access/Ownable.sol\":2627:2649  newOwner == address(0) */\n      0xffffffffffffffffffffffffffffffffffffffff\n      and\n        /* \"https://github.com/OpenZeppelin/openzeppelin-contracts/blob/master/contracts/access/Ownable.sol\":2627:2635  newOwner */\n      dup2\n        /* \"https://github.com/OpenZeppelin/openzeppelin-contracts/blob/master/contracts/access/Ownable.sol\":2627:2649  newOwner == address(0) */\n      0xffffffffffffffffffffffffffffffffffffffff\n      and\n      sub\n        /* \"https://github.com/OpenZeppelin/openzeppelin-contracts/blob/master/contracts/access/Ownable.sol\":2623:2714  if (newOwner == address(0)) {... */\n      tag_256\n      jumpi\n        /* \"https://github.com/OpenZeppelin/openzeppelin-contracts/blob/master/contracts/access/Ownable.sol\":2700:2701  0 */\n      0x00\n        /* \"https://github.com/OpenZeppelin/openzeppelin-contracts/blob/master/contracts/access/Ownable.sol\":2672:2703  OwnableInvalidOwner(address(0)) */\n      mload(0x40)\n      0x1e4fbdf700000000000000000000000000000000000000000000000000000000\n      dup2\n      mstore\n      0x04\n      add\n      tag_257\n      swap2\n      swap1\n      tag_39\n      jump\t// in\n    tag_257:\n      mload(0x40)\n      dup1\n      swap2\n      sub\n      swap1\n      revert\n        /* \"https://github.com/OpenZeppelin/openzeppelin-contracts/blob/master/contracts/access/Ownable.sol\":2623:2714  if (newOwner == address(0)) {... */\n    tag_256:\n        /* \"https://github.com/OpenZeppelin/openzeppelin-contracts/blob/master/contracts/access/Ownable.sol\":2723:2751  _transferOwnership(newOwner) */\n      tag_258\n        /* \"https://github.com/OpenZeppelin/openzeppelin-contracts/blob/master/contracts/access/Ownable.sol\":2742:2750  newOwner */\n      dup2\n        /* \"https://github.com/OpenZeppelin/openzeppelin-contracts/blob/master/contracts/access/Ownable.sol\":2723:2741  _transferOwnership */\n      tag_158\n        /* \"https://github.com/OpenZeppelin/openzeppelin-contracts/blob/master/contracts/access/Ownable.sol\":2723:2751  _transferOwnership(newOwner) */\n      jump\t// in\n    tag_258:\n        /* \"https://github.com/OpenZeppelin/openzeppelin-contracts/blob/master/contracts/access/Ownable.sol\":2543:2758  function transferOwnership(address newOwner) public virtual onlyOwner {... */\n      pop\n      jump\t// out\n        /* \"VotingPlus.sol\":5404:5705  function addVoter(address _address) public onlyOwner registeringVoters {... */\n    tag_56:\n        /* \"https://github.com/OpenZeppelin/openzeppelin-contracts/blob/master/contracts/access/Ownable.sol\":1531:1544  _checkOwner() */\n      tag_260\n        /* \"https://github.com/OpenZeppelin/openzeppelin-contracts/blob/master/contracts/access/Ownable.sol\":1531:1542  _checkOwner */\n      tag_61\n        /* \"https://github.com/OpenZeppelin/openzeppelin-contracts/blob/master/contracts/access/Ownable.sol\":1531:1544  _checkOwner() */\n      jump\t// in\n    tag_260:\n        /* \"VotingPlus.sol\":2869:2901  WorkflowStatus.RegisteringVoters */\n      0x00\n        /* \"VotingPlus.sol\":2849:2901  currentVoteState == WorkflowStatus.RegisteringVoters */\n      0x03\n      dup2\n      gt\n      iszero\n      tag_262\n      jumpi\n      tag_263\n      tag_65\n      jump\t// in\n    tag_263:\n    tag_262:\n        /* \"VotingPlus.sol\":2849:2865  currentVoteState */\n      0x08\n      0x00\n      swap1\n      sload\n      swap1\n      0x0100\n      exp\n      swap1\n      div\n      0xff\n      and\n        /* \"VotingPlus.sol\":2849:2901  currentVoteState == WorkflowStatus.RegisteringVoters */\n      0x03\n      dup2\n      gt\n      iszero\n      tag_264\n      jumpi\n      tag_265\n      tag_65\n      jump\t// in\n    tag_265:\n    tag_264:\n      eq\n        /* \"VotingPlus.sol\":2841:2932  require(currentVoteState == WorkflowStatus.RegisteringVoters, \"You cannot register voters\") */\n      tag_266\n      jumpi\n      mload(0x40)\n      0x08c379a000000000000000000000000000000000000000000000000000000000\n      dup2\n      mstore\n      0x04\n      add\n      tag_267\n      swap1\n      tag_243\n      jump\t// in\n    tag_267:\n      mload(0x40)\n      dup1\n      swap2\n      sub\n      swap1\n      revert\n    tag_266:\n        /* \"VotingPlus.sol\":5505:5512  owner() */\n      tag_269\n        /* \"VotingPlus.sol\":5505:5510  owner */\n      tag_37\n        /* \"VotingPlus.sol\":5505:5512  owner() */\n      jump\t// in\n    tag_269:\n        /* \"VotingPlus.sol\":5493:5512  _address != owner() */\n      0xffffffffffffffffffffffffffffffffffffffff\n      and\n        /* \"VotingPlus.sol\":5493:5501  _address */\n      dup2\n        /* \"VotingPlus.sol\":5493:5512  _address != owner() */\n      0xffffffffffffffffffffffffffffffffffffffff\n      and\n      sub\n        /* \"VotingPlus.sol\":5485:5535  require(_address != owner(), \"Owner cannot vote!\") */\n      tag_270\n      jumpi\n      mload(0x40)\n      0x08c379a000000000000000000000000000000000000000000000000000000000\n      dup2\n      mstore\n      0x04\n      add\n      tag_271\n      swap1\n      tag_272\n      jump\t// in\n    tag_271:\n      mload(0x40)\n      dup1\n      swap2\n      sub\n      swap1\n      revert\n    tag_270:\n        /* \"VotingPlus.sol\":5586:5591  false */\n      0x00\n        /* \"VotingPlus.sol\":5553:5591  voters[_address].isRegistered == false */\n      iszero\n      iszero\n        /* \"VotingPlus.sol\":5553:5559  voters */\n      0x02\n        /* \"VotingPlus.sol\":5553:5569  voters[_address] */\n      0x00\n        /* \"VotingPlus.sol\":5560:5568  _address */\n      dup4\n        /* \"VotingPlus.sol\":5553:5569  voters[_address] */\n      0xffffffffffffffffffffffffffffffffffffffff\n      and\n      0xffffffffffffffffffffffffffffffffffffffff\n      and\n      dup2\n      mstore\n      0x20\n      add\n      swap1\n      dup2\n      mstore\n      0x20\n      add\n      0x00\n      keccak256\n        /* \"VotingPlus.sol\":5553:5582  voters[_address].isRegistered */\n      0x00\n      add\n      0x00\n      swap1\n      sload\n      swap1\n      0x0100\n      exp\n      swap1\n      div\n      0xff\n      and\n        /* \"VotingPlus.sol\":5553:5591  voters[_address].isRegistered == false */\n      iszero\n      iszero\n      eq\n        /* \"VotingPlus.sol\":5545:5621  require(voters[_address].isRegistered == false, \"Voter already registered!\") */\n      tag_273\n      jumpi\n      mload(0x40)\n      0x08c379a000000000000000000000000000000000000000000000000000000000\n      dup2\n      mstore\n      0x04\n      add\n      tag_274\n      swap1\n      tag_275\n      jump\t// in\n    tag_274:\n      mload(0x40)\n      dup1\n      swap2\n      sub\n      swap1\n      revert\n    tag_273:\n        /* \"VotingPlus.sol\":5632:5658  addVoterInternal(_address) */\n      tag_276\n        /* \"VotingPlus.sol\":5649:5657  _address */\n      dup2\n        /* \"VotingPlus.sol\":5632:5648  addVoterInternal */\n      tag_249\n        /* \"VotingPlus.sol\":5632:5658  addVoterInternal(_address) */\n      jump\t// in\n    tag_276:\n        /* \"VotingPlus.sol\":5673:5698  VoterRegistered(_address) */\n      0xb6be2187d059cc2a55fe29e0e503b566e1e0f8c8780096e185429350acffd3dd\n        /* \"VotingPlus.sol\":5689:5697  _address */\n      dup2\n        /* \"VotingPlus.sol\":5673:5698  VoterRegistered(_address) */\n      mload(0x40)\n      tag_277\n      swap2\n      swap1\n      tag_39\n      jump\t// in\n    tag_277:\n      mload(0x40)\n      dup1\n      swap2\n      sub\n      swap1\n      log1\n        /* \"VotingPlus.sol\":5404:5705  function addVoter(address _address) public onlyOwner registeringVoters {... */\n      pop\n      jump\t// out\n        /* \"VotingPlus.sol\":5076:5398  function nextVoteStep() external onlyOwner votersRegistered(3) proposalRegistered(2) voteRegistered(1) votesNotTallied {... */\n    tag_58:\n        /* \"https://github.com/OpenZeppelin/openzeppelin-contracts/blob/master/contracts/access/Ownable.sol\":1531:1544  _checkOwner() */\n      tag_279\n        /* \"https://github.com/OpenZeppelin/openzeppelin-contracts/blob/master/contracts/access/Ownable.sol\":1531:1542  _checkOwner */\n      tag_61\n        /* \"https://github.com/OpenZeppelin/openzeppelin-contracts/blob/master/contracts/access/Ownable.sol\":1531:1544  _checkOwner() */\n      jump\t// in\n    tag_279:\n        /* \"VotingPlus.sol\":5136:5137  3 */\n      0x03\n        /* \"VotingPlus.sol\":3579:3611  WorkflowStatus.RegisteringVoters */\n      0x00\n        /* \"VotingPlus.sol\":3559:3611  currentVoteState == WorkflowStatus.RegisteringVoters */\n      0x03\n      dup2\n      gt\n      iszero\n      tag_281\n      jumpi\n      tag_282\n      tag_65\n      jump\t// in\n    tag_282:\n    tag_281:\n        /* \"VotingPlus.sol\":3559:3575  currentVoteState */\n      0x08\n      0x00\n      swap1\n      sload\n      swap1\n      0x0100\n      exp\n      swap1\n      div\n      0xff\n      and\n        /* \"VotingPlus.sol\":3559:3611  currentVoteState == WorkflowStatus.RegisteringVoters */\n      0x03\n      dup2\n      gt\n      iszero\n      tag_283\n      jumpi\n      tag_284\n      tag_65\n      jump\t// in\n    tag_284:\n    tag_283:\n      sub\n        /* \"VotingPlus.sol\":3555:3726  if (currentVoteState == WorkflowStatus.RegisteringVoters) {... */\n      tag_285\n      jumpi\n        /* \"VotingPlus.sol\":3651:3659  nbVoters */\n      dup1\n        /* \"VotingPlus.sol\":3635:3647  votersNumber */\n      sload(0x04)\n        /* \"VotingPlus.sol\":3635:3659  votersNumber >= nbVoters */\n      lt\n      iszero\n        /* \"VotingPlus.sol\":3627:3715  require(votersNumber >= nbVoters, \"A minimum number of voters are required to continue\") */\n      tag_286\n      jumpi\n      mload(0x40)\n      0x08c379a000000000000000000000000000000000000000000000000000000000\n      dup2\n      mstore\n      0x04\n      add\n      tag_287\n      swap1\n      tag_288\n      jump\t// in\n    tag_287:\n      mload(0x40)\n      dup1\n      swap2\n      sub\n      swap1\n      revert\n    tag_286:\n        /* \"VotingPlus.sol\":3555:3726  if (currentVoteState == WorkflowStatus.RegisteringVoters) {... */\n    tag_285:\n        /* \"VotingPlus.sol\":5158:5159  2 */\n      0x02\n        /* \"VotingPlus.sol\":3948:3984  WorkflowStatus.ProposalsRegistration */\n      0x01\n        /* \"VotingPlus.sol\":3928:3984  currentVoteState == WorkflowStatus.ProposalsRegistration */\n      0x03\n      dup2\n      gt\n      iszero\n      tag_290\n      jumpi\n      tag_291\n      tag_65\n      jump\t// in\n    tag_291:\n    tag_290:\n        /* \"VotingPlus.sol\":3928:3944  currentVoteState */\n      0x08\n      0x00\n      swap1\n      sload\n      swap1\n      0x0100\n      exp\n      swap1\n      div\n      0xff\n      and\n        /* \"VotingPlus.sol\":3928:3984  currentVoteState == WorkflowStatus.ProposalsRegistration */\n      0x03\n      dup2\n      gt\n      iszero\n      tag_292\n      jumpi\n      tag_293\n      tag_65\n      jump\t// in\n    tag_293:\n    tag_292:\n      sub\n        /* \"VotingPlus.sol\":3924:4113  if (currentVoteState == WorkflowStatus.ProposalsRegistration) {... */\n      tag_294\n      jumpi\n        /* \"VotingPlus.sol\":4029:4040  nbProposals */\n      dup1\n        /* \"VotingPlus.sol\":4008:4025  proposalIdCounter */\n      sload(0x07)\n        /* \"VotingPlus.sol\":4008:4040  proposalIdCounter >= nbProposals */\n      lt\n      iszero\n        /* \"VotingPlus.sol\":4000:4102  require(proposalIdCounter >= nbProposals, \"A minimum number of propositions are required to continue\") */\n      tag_295\n      jumpi\n      mload(0x40)\n      0x08c379a000000000000000000000000000000000000000000000000000000000\n      dup2\n      mstore\n      0x04\n      add\n      tag_296\n      swap1\n      tag_297\n      jump\t// in\n    tag_296:\n      mload(0x40)\n      dup1\n      swap2\n      sub\n      swap1\n      revert\n    tag_295:\n        /* \"VotingPlus.sol\":3924:4113  if (currentVoteState == WorkflowStatus.ProposalsRegistration) {... */\n    tag_294:\n        /* \"VotingPlus.sol\":5176:5177  1 */\n      0x01\n        /* \"VotingPlus.sol\":4314:4342  WorkflowStatus.VotingSession */\n      0x02\n        /* \"VotingPlus.sol\":4294:4342  currentVoteState == WorkflowStatus.VotingSession */\n      0x03\n      dup2\n      gt\n      iszero\n      tag_299\n      jumpi\n      tag_300\n      tag_65\n      jump\t// in\n    tag_300:\n    tag_299:\n        /* \"VotingPlus.sol\":4294:4310  currentVoteState */\n      0x08\n      0x00\n      swap1\n      sload\n      swap1\n      0x0100\n      exp\n      swap1\n      div\n      0xff\n      and\n        /* \"VotingPlus.sol\":4294:4342  currentVoteState == WorkflowStatus.VotingSession */\n      0x03\n      dup2\n      gt\n      iszero\n      tag_301\n      jumpi\n      tag_302\n      tag_65\n      jump\t// in\n    tag_302:\n    tag_301:\n      sub\n        /* \"VotingPlus.sol\":4290:4456  if (currentVoteState == WorkflowStatus.VotingSession) {... */\n      tag_303\n      jumpi\n        /* \"VotingPlus.sol\":4384:4390  nbVote */\n      dup1\n        /* \"VotingPlus.sol\":4366:4380  atLeastOneVote */\n      sload(0x05)\n        /* \"VotingPlus.sol\":4366:4390  atLeastOneVote >= nbVote */\n      lt\n      iszero\n        /* \"VotingPlus.sol\":4358:4445  require(atLeastOneVote >= nbVote, \"A minimum number of votes are required to continue\") */\n      tag_304\n      jumpi\n      mload(0x40)\n      0x08c379a000000000000000000000000000000000000000000000000000000000\n      dup2\n      mstore\n      0x04\n      add\n      tag_305\n      swap1\n      tag_306\n      jump\t// in\n    tag_305:\n      mload(0x40)\n      dup1\n      swap2\n      sub\n      swap1\n      revert\n    tag_304:\n        /* \"VotingPlus.sol\":4290:4456  if (currentVoteState == WorkflowStatus.VotingSession) {... */\n    tag_303:\n        /* \"VotingPlus.sol\":2627:2654  WorkflowStatus.VotesTallied */\n      0x03\n        /* \"VotingPlus.sol\":2607:2654  currentVoteState != WorkflowStatus.VotesTallied */\n      dup1\n      dup2\n      gt\n      iszero\n      tag_308\n      jumpi\n      tag_309\n      tag_65\n      jump\t// in\n    tag_309:\n    tag_308:\n        /* \"VotingPlus.sol\":2607:2623  currentVoteState */\n      0x08\n      0x00\n      swap1\n      sload\n      swap1\n      0x0100\n      exp\n      swap1\n      div\n      0xff\n      and\n        /* \"VotingPlus.sol\":2607:2654  currentVoteState != WorkflowStatus.VotesTallied */\n      0x03\n      dup2\n      gt\n      iszero\n      tag_310\n      jumpi\n      tag_311\n      tag_65\n      jump\t// in\n    tag_311:\n    tag_310:\n      sub\n        /* \"VotingPlus.sol\":2599:2718  require(currentVoteState != WorkflowStatus.VotesTallied, \"Votes have been tallied. It is over. There is no next step!\") */\n      tag_312\n      jumpi\n      mload(0x40)\n      0x08c379a000000000000000000000000000000000000000000000000000000000\n      dup2\n      mstore\n      0x04\n      add\n      tag_313\n      swap1\n      tag_314\n      jump\t// in\n    tag_313:\n      mload(0x40)\n      dup1\n      swap2\n      sub\n      swap1\n      revert\n    tag_312:\n        /* \"VotingPlus.sol\":5205:5233  WorkflowStatus previousState */\n      0x00\n        /* \"VotingPlus.sol\":5236:5252  currentVoteState */\n      0x08\n      0x00\n      swap1\n      sload\n      swap1\n      0x0100\n      exp\n      swap1\n      div\n      0xff\n      and\n        /* \"VotingPlus.sol\":5205:5252  WorkflowStatus previousState = currentVoteState */\n      swap1\n      pop\n        /* \"VotingPlus.sol\":5321:5322  1 */\n      0x01\n        /* \"VotingPlus.sol\":5301:5317  currentVoteState */\n      0x08\n      0x00\n      swap1\n      sload\n      swap1\n      0x0100\n      exp\n      swap1\n      div\n      0xff\n      and\n        /* \"VotingPlus.sol\":5296:5318  uint(currentVoteState) */\n      0x03\n      dup2\n      gt\n      iszero\n      tag_316\n      jumpi\n      tag_317\n      tag_65\n      jump\t// in\n    tag_317:\n    tag_316:\n        /* \"VotingPlus.sol\":5296:5322  uint(currentVoteState) + 1 */\n      tag_318\n      swap2\n      swap1\n      tag_319\n      jump\t// in\n    tag_318:\n        /* \"VotingPlus.sol\":5281:5323  WorkflowStatus(uint(currentVoteState) + 1) */\n      0x03\n      dup2\n      gt\n      iszero\n      tag_320\n      jumpi\n      tag_321\n      tag_65\n      jump\t// in\n    tag_321:\n    tag_320:\n        /* \"VotingPlus.sol\":5262:5278  currentVoteState */\n      0x08\n      0x00\n        /* \"VotingPlus.sol\":5262:5323  currentVoteState = WorkflowStatus(uint(currentVoteState) + 1) */\n      0x0100\n      exp\n      dup2\n      sload\n      dup2\n      0xff\n      mul\n      not\n      and\n      swap1\n      dup4\n      0x03\n      dup2\n      gt\n      iszero\n      tag_322\n      jumpi\n      tag_323\n      tag_65\n      jump\t// in\n    tag_323:\n    tag_322:\n      mul\n      or\n      swap1\n      sstore\n      pop\n        /* \"VotingPlus.sol\":5338:5391  WorkflowStatusChange(previousState, currentVoteState) */\n      0x0a97a4ee45751e2abf3e4fc8946939630b11b371ea8ae39ccdc3056e98f5cc3f\n        /* \"VotingPlus.sol\":5359:5372  previousState */\n      dup2\n        /* \"VotingPlus.sol\":5374:5390  currentVoteState */\n      0x08\n      0x00\n      swap1\n      sload\n      swap1\n      0x0100\n      exp\n      swap1\n      div\n      0xff\n      and\n        /* \"VotingPlus.sol\":5338:5391  WorkflowStatusChange(previousState, currentVoteState) */\n      mload(0x40)\n      tag_324\n      swap3\n      swap2\n      swap1\n      tag_325\n      jump\t// in\n    tag_324:\n      mload(0x40)\n      dup1\n      swap2\n      sub\n      swap1\n      log1\n        /* \"VotingPlus.sol\":5195:5398  {... */\n      pop\n        /* \"VotingPlus.sol\":4122:4123  _ */\n      pop\n        /* \"VotingPlus.sol\":3735:3736  _ */\n      pop\n        /* \"https://github.com/OpenZeppelin/openzeppelin-contracts/blob/master/contracts/access/Ownable.sol\":1554:1555  _ */\n      pop\n        /* \"VotingPlus.sol\":5076:5398  function nextVoteStep() external onlyOwner votersRegistered(3) proposalRegistered(2) voteRegistered(1) votesNotTallied {... */\n      jump\t// out\n        /* \"https://github.com/OpenZeppelin/openzeppelin-contracts/blob/master/contracts/access/Ownable.sol\":1796:1958  function _checkOwner() internal view virtual {... */\n    tag_61:\n        /* \"https://github.com/OpenZeppelin/openzeppelin-contracts/blob/master/contracts/access/Ownable.sol\":1866:1878  _msgSender() */\n      tag_327\n        /* \"https://github.com/OpenZeppelin/openzeppelin-contracts/blob/master/contracts/access/Ownable.sol\":1866:1876  _msgSender */\n      tag_328\n        /* \"https://github.com/OpenZeppelin/openzeppelin-contracts/blob/master/contracts/access/Ownable.sol\":1866:1878  _msgSender() */\n      jump\t// in\n    tag_327:\n        /* \"https://github.com/OpenZeppelin/openzeppelin-contracts/blob/master/contracts/access/Ownable.sol\":1855:1878  owner() != _msgSender() */\n      0xffffffffffffffffffffffffffffffffffffffff\n      and\n        /* \"https://github.com/OpenZeppelin/openzeppelin-contracts/blob/master/contracts/access/Ownable.sol\":1855:1862  owner() */\n      tag_329\n        /* \"https://github.com/OpenZeppelin/openzeppelin-contracts/blob/master/contracts/access/Ownable.sol\":1855:1860  owner */\n      tag_37\n        /* \"https://github.com/OpenZeppelin/openzeppelin-contracts/blob/master/contracts/access/Ownable.sol\":1855:1862  owner() */\n      jump\t// in\n    tag_329:\n        /* \"https://github.com/OpenZeppelin/openzeppelin-contracts/blob/master/contracts/access/Ownable.sol\":1855:1878  owner() != _msgSender() */\n      0xffffffffffffffffffffffffffffffffffffffff\n      and\n      eq\n        /* \"https://github.com/OpenZeppelin/openzeppelin-contracts/blob/master/contracts/access/Ownable.sol\":1851:1952  if (owner() != _msgSender()) {... */\n      tag_330\n      jumpi\n        /* \"https://github.com/OpenZeppelin/openzeppelin-contracts/blob/master/contracts/access/Ownable.sol\":1928:1940  _msgSender() */\n      tag_331\n        /* \"https://github.com/OpenZeppelin/openzeppelin-contracts/blob/master/contracts/access/Ownable.sol\":1928:1938  _msgSender */\n      tag_328\n        /* \"https://github.com/OpenZeppelin/openzeppelin-contracts/blob/master/contracts/access/Ownable.sol\":1928:1940  _msgSender() */\n      jump\t// in\n    tag_331:\n        /* \"https://github.com/OpenZeppelin/openzeppelin-contracts/blob/master/contracts/access/Ownable.sol\":1901:1941  OwnableUnauthorizedAccount(_msgSender()) */\n      mload(0x40)\n      0x118cdaa700000000000000000000000000000000000000000000000000000000\n      dup2\n      mstore\n      0x04\n      add\n      tag_332\n      swap2\n      swap1\n      tag_39\n      jump\t// in\n    tag_332:\n      mload(0x40)\n      dup1\n      swap2\n      sub\n      swap1\n      revert\n        /* \"https://github.com/OpenZeppelin/openzeppelin-contracts/blob/master/contracts/access/Ownable.sol\":1851:1952  if (owner() != _msgSender()) {... */\n    tag_330:\n        /* \"https://github.com/OpenZeppelin/openzeppelin-contracts/blob/master/contracts/access/Ownable.sol\":1796:1958  function _checkOwner() internal view virtual {... */\n      jump\t// out\n        /* \"https://github.com/OpenZeppelin/openzeppelin-contracts/blob/master/contracts/access/Ownable.sol\":2912:3099  function _transferOwnership(address newOwner) internal virtual {... */\n    tag_158:\n        /* \"https://github.com/OpenZeppelin/openzeppelin-contracts/blob/master/contracts/access/Ownable.sol\":2985:3001  address oldOwner */\n      0x00\n        /* \"https://github.com/OpenZeppelin/openzeppelin-contracts/blob/master/contracts/access/Ownable.sol\":3004:3010  _owner */\n      dup1\n      0x00\n      swap1\n      sload\n      swap1\n      0x0100\n      exp\n      swap1\n      div\n      0xffffffffffffffffffffffffffffffffffffffff\n      and\n        /* \"https://github.com/OpenZeppelin/openzeppelin-contracts/blob/master/contracts/access/Ownable.sol\":2985:3010  address oldOwner = _owner */\n      swap1\n      pop\n        /* \"https://github.com/OpenZeppelin/openzeppelin-contracts/blob/master/contracts/access/Ownable.sol\":3029:3037  newOwner */\n      dup2\n        /* \"https://github.com/OpenZeppelin/openzeppelin-contracts/blob/master/contracts/access/Ownable.sol\":3020:3026  _owner */\n      0x00\n      dup1\n        /* \"https://github.com/OpenZeppelin/openzeppelin-contracts/blob/master/contracts/access/Ownable.sol\":3020:3037  _owner = newOwner */\n      0x0100\n      exp\n      dup2\n      sload\n      dup2\n      0xffffffffffffffffffffffffffffffffffffffff\n      mul\n      not\n      and\n      swap1\n      dup4\n      0xffffffffffffffffffffffffffffffffffffffff\n      and\n      mul\n      or\n      swap1\n      sstore\n      pop\n        /* \"https://github.com/OpenZeppelin/openzeppelin-contracts/blob/master/contracts/access/Ownable.sol\":3083:3091  newOwner */\n      dup2\n        /* \"https://github.com/OpenZeppelin/openzeppelin-contracts/blob/master/contracts/access/Ownable.sol\":3052:3092  OwnershipTransferred(oldOwner, newOwner) */\n      0xffffffffffffffffffffffffffffffffffffffff\n      and\n        /* \"https://github.com/OpenZeppelin/openzeppelin-contracts/blob/master/contracts/access/Ownable.sol\":3073:3081  oldOwner */\n      dup2\n        /* \"https://github.com/OpenZeppelin/openzeppelin-contracts/blob/master/contracts/access/Ownable.sol\":3052:3092  OwnershipTransferred(oldOwner, newOwner) */\n      0xffffffffffffffffffffffffffffffffffffffff\n      and\n      0x8be0079c531659141344cd1fd0a4f28419497f9722a3daafe3b4186f6b6457e0\n      mload(0x40)\n      mload(0x40)\n      dup1\n      swap2\n      sub\n      swap1\n      log3\n        /* \"https://github.com/OpenZeppelin/openzeppelin-contracts/blob/master/contracts/access/Ownable.sol\":2975:3099  {... */\n      pop\n        /* \"https://github.com/OpenZeppelin/openzeppelin-contracts/blob/master/contracts/access/Ownable.sol\":2912:3099  function _transferOwnership(address newOwner) internal virtual {... */\n      pop\n      jump\t// out\n        /* \"VotingPlus.sol\":5711:5963  function addVoterInternal(address _address) internal {... */\n    tag_249:\n        /* \"VotingPlus.sol\":5802:5803  0 */\n      0x00\n        /* \"VotingPlus.sol\":5774:5780  voters */\n      0x02\n        /* \"VotingPlus.sol\":5774:5790  voters[_address] */\n      0x00\n        /* \"VotingPlus.sol\":5781:5789  _address */\n      dup4\n        /* \"VotingPlus.sol\":5774:5790  voters[_address] */\n      0xffffffffffffffffffffffffffffffffffffffff\n      and\n      0xffffffffffffffffffffffffffffffffffffffff\n      and\n      dup2\n      mstore\n      0x20\n      add\n      swap1\n      dup2\n      mstore\n      0x20\n      add\n      0x00\n      keccak256\n        /* \"VotingPlus.sol\":5774:5799  voters[_address].hasVoted */\n      0x01\n      add\n        /* \"VotingPlus.sol\":5774:5803  voters[_address].hasVoted = 0 */\n      dup2\n      swap1\n      sstore\n      pop\n        /* \"VotingPlus.sol\":5840:5841  1 */\n      0x01\n        /* \"VotingPlus.sol\":5813:5819  voters */\n      0x02\n        /* \"VotingPlus.sol\":5813:5829  voters[_address] */\n      0x00\n        /* \"VotingPlus.sol\":5820:5828  _address */\n      dup4\n        /* \"VotingPlus.sol\":5813:5829  voters[_address] */\n      0xffffffffffffffffffffffffffffffffffffffff\n      and\n      0xffffffffffffffffffffffffffffffffffffffff\n      and\n      dup2\n      mstore\n      0x20\n      add\n      swap1\n      dup2\n      mstore\n      0x20\n      add\n      0x00\n      keccak256\n        /* \"VotingPlus.sol\":5813:5837  voters[_address].nbVotes */\n      0x02\n      add\n        /* \"VotingPlus.sol\":5813:5841  voters[_address].nbVotes = 1 */\n      dup2\n      swap1\n      sstore\n      pop\n        /* \"VotingPlus.sol\":5883:5887  true */\n      0x01\n        /* \"VotingPlus.sol\":5851:5857  voters */\n      0x02\n        /* \"VotingPlus.sol\":5851:5867  voters[_address] */\n      0x00\n        /* \"VotingPlus.sol\":5858:5866  _address */\n      dup4\n        /* \"VotingPlus.sol\":5851:5867  voters[_address] */\n      0xffffffffffffffffffffffffffffffffffffffff\n      and\n      0xffffffffffffffffffffffffffffffffffffffff\n      and\n      dup2\n      mstore\n      0x20\n      add\n      swap1\n      dup2\n      mstore\n      0x20\n      add\n      0x00\n      keccak256\n        /* \"VotingPlus.sol\":5851:5880  voters[_address].isRegistered */\n      0x00\n      add\n      0x00\n        /* \"VotingPlus.sol\":5851:5887  voters[_address].isRegistered = true */\n      0x0100\n      exp\n      dup2\n      sload\n      dup2\n      0xff\n      mul\n      not\n      and\n      swap1\n      dup4\n      iszero\n      iszero\n      mul\n      or\n      swap1\n      sstore\n      pop\n        /* \"VotingPlus.sol\":5897:5923  registerVoterKey(_address) */\n      tag_335\n        /* \"VotingPlus.sol\":5914:5922  _address */\n      dup2\n        /* \"VotingPlus.sol\":5897:5913  registerVoterKey */\n      tag_336\n        /* \"VotingPlus.sol\":5897:5923  registerVoterKey(_address) */\n      jump\t// in\n    tag_335:\n        /* \"VotingPlus.sol\":5942:5954  votersNumber */\n      0x04\n      0x00\n        /* \"VotingPlus.sol\":5942:5956  votersNumber++ */\n      dup2\n      sload\n      dup1\n      swap3\n      swap2\n      swap1\n      tag_337\n      swap1\n      tag_129\n      jump\t// in\n    tag_337:\n      swap2\n      swap1\n      pop\n      sstore\n      pop\n        /* \"VotingPlus.sol\":5711:5963  function addVoterInternal(address _address) internal {... */\n      pop\n      jump\t// out\n        /* \"VotingPlus.sol\":6826:7210  function deleteVoter(address _address) internal {... */\n    tag_251:\n        /* \"VotingPlus.sol\":6916:6921  false */\n      0x00\n        /* \"VotingPlus.sol\":6884:6890  voters */\n      0x02\n        /* \"VotingPlus.sol\":6884:6900  voters[_address] */\n      0x00\n        /* \"VotingPlus.sol\":6891:6899  _address */\n      dup4\n        /* \"VotingPlus.sol\":6884:6900  voters[_address] */\n      0xffffffffffffffffffffffffffffffffffffffff\n      and\n      0xffffffffffffffffffffffffffffffffffffffff\n      and\n      dup2\n      mstore\n      0x20\n      add\n      swap1\n      dup2\n      mstore\n      0x20\n      add\n      0x00\n      keccak256\n        /* \"VotingPlus.sol\":6884:6913  voters[_address].isRegistered */\n      0x00\n      add\n      0x00\n        /* \"VotingPlus.sol\":6884:6921  voters[_address].isRegistered = false */\n      0x0100\n      exp\n      dup2\n      sload\n      dup2\n      0xff\n      mul\n      not\n      and\n      swap1\n      dup4\n      iszero\n      iszero\n      mul\n      or\n      swap1\n      sstore\n      pop\n        /* \"VotingPlus.sol\":6959:6960  0 */\n      0x00\n        /* \"VotingPlus.sol\":6931:6937  voters */\n      0x02\n        /* \"VotingPlus.sol\":6931:6947  voters[_address] */\n      0x00\n        /* \"VotingPlus.sol\":6938:6946  _address */\n      dup4\n        /* \"VotingPlus.sol\":6931:6947  voters[_address] */\n      0xffffffffffffffffffffffffffffffffffffffff\n      and\n      0xffffffffffffffffffffffffffffffffffffffff\n      and\n      dup2\n      mstore\n      0x20\n      add\n      swap1\n      dup2\n      mstore\n      0x20\n      add\n      0x00\n      keccak256\n        /* \"VotingPlus.sol\":6931:6956  voters[_address].hasVoted */\n      0x01\n      add\n        /* \"VotingPlus.sol\":6931:6960  voters[_address].hasVoted = 0 */\n      dup2\n      swap1\n      sstore\n      pop\n        /* \"VotingPlus.sol\":6997:6998  1 */\n      0x01\n        /* \"VotingPlus.sol\":6970:6976  voters */\n      0x02\n        /* \"VotingPlus.sol\":6970:6986  voters[_address] */\n      0x00\n        /* \"VotingPlus.sol\":6977:6985  _address */\n      dup4\n        /* \"VotingPlus.sol\":6970:6986  voters[_address] */\n      0xffffffffffffffffffffffffffffffffffffffff\n      and\n      0xffffffffffffffffffffffffffffffffffffffff\n      and\n      dup2\n      mstore\n      0x20\n      add\n      swap1\n      dup2\n      mstore\n      0x20\n      add\n      0x00\n      keccak256\n        /* \"VotingPlus.sol\":6970:6994  voters[_address].nbVotes */\n      0x02\n      add\n        /* \"VotingPlus.sol\":6970:6998  voters[_address].nbVotes = 1 */\n      dup2\n      swap1\n      sstore\n      pop\n        /* \"VotingPlus.sol\":7015:7021  voters */\n      0x02\n        /* \"VotingPlus.sol\":7015:7031  voters[_address] */\n      0x00\n        /* \"VotingPlus.sol\":7022:7030  _address */\n      dup3\n        /* \"VotingPlus.sol\":7015:7031  voters[_address] */\n      0xffffffffffffffffffffffffffffffffffffffff\n      and\n      0xffffffffffffffffffffffffffffffffffffffff\n      and\n      dup2\n      mstore\n      0x20\n      add\n      swap1\n      dup2\n      mstore\n      0x20\n      add\n      0x00\n      keccak256\n        /* \"VotingPlus.sol\":7015:7048  voters[_address].votedProposalIds */\n      0x03\n      add\n      0x00\n        /* \"VotingPlus.sol\":7008:7048  delete voters[_address].votedProposalIds */\n      tag_339\n      swap2\n      swap1\n      tag_96\n      jump\t// in\n    tag_339:\n        /* \"VotingPlus.sol\":7064:7070  uint i */\n      0x00\n        /* \"VotingPlus.sol\":7059:7204  for (uint i=0; i<votersKeys.length; i++) {... */\n    tag_340:\n        /* \"VotingPlus.sol\":7076:7086  votersKeys */\n      0x03\n        /* \"VotingPlus.sol\":7076:7093  votersKeys.length */\n      dup1\n      sload\n      swap1\n      pop\n        /* \"VotingPlus.sol\":7074:7075  i */\n      dup2\n        /* \"VotingPlus.sol\":7074:7093  i<votersKeys.length */\n      lt\n        /* \"VotingPlus.sol\":7059:7204  for (uint i=0; i<votersKeys.length; i++) {... */\n      iszero\n      tag_341\n      jumpi\n        /* \"VotingPlus.sol\":7135:7143  _address */\n      dup2\n        /* \"VotingPlus.sol\":7118:7143  votersKeys[i] == _address */\n      0xffffffffffffffffffffffffffffffffffffffff\n      and\n        /* \"VotingPlus.sol\":7118:7128  votersKeys */\n      0x03\n        /* \"VotingPlus.sol\":7129:7130  i */\n      dup3\n        /* \"VotingPlus.sol\":7118:7131  votersKeys[i] */\n      dup2\n      sload\n      dup2\n      lt\n      tag_343\n      jumpi\n      tag_344\n      tag_84\n      jump\t// in\n    tag_344:\n    tag_343:\n      swap1\n      0x00\n      mstore\n      keccak256(0x00, 0x20)\n      add\n      0x00\n      swap1\n      sload\n      swap1\n      0x0100\n      exp\n      swap1\n      div\n      0xffffffffffffffffffffffffffffffffffffffff\n      and\n        /* \"VotingPlus.sol\":7118:7143  votersKeys[i] == _address */\n      0xffffffffffffffffffffffffffffffffffffffff\n      and\n      sub\n        /* \"VotingPlus.sol\":7114:7194  if (votersKeys[i] == _address) {... */\n      tag_346\n      jumpi\n        /* \"VotingPlus.sol\":7163:7173  votersKeys */\n      0x03\n        /* \"VotingPlus.sol\":7163:7179  votersKeys.pop() */\n      dup1\n      sload\n      dup1\n      tag_347\n      jumpi\n      tag_348\n      tag_349\n      jump\t// in\n    tag_348:\n    tag_347:\n      0x01\n      swap1\n      sub\n      dup2\n      dup2\n      swap1\n      0x00\n      mstore\n      keccak256(0x00, 0x20)\n      add\n      exp(0x0100, 0x00)\n      dup2\n      sload\n      swap1\n      0xffffffffffffffffffffffffffffffffffffffff\n      mul\n      not\n      and\n      swap1\n      sstore\n      swap1\n      sstore\n        /* \"VotingPlus.sol\":7114:7194  if (votersKeys[i] == _address) {... */\n    tag_346:\n        /* \"VotingPlus.sol\":7095:7098  i++ */\n      dup1\n      dup1\n      0x01\n      add\n      swap2\n      pop\n      pop\n        /* \"VotingPlus.sol\":7059:7204  for (uint i=0; i<votersKeys.length; i++) {... */\n      jump(tag_340)\n    tag_341:\n      pop\n        /* \"VotingPlus.sol\":6826:7210  function deleteVoter(address _address) internal {... */\n      pop\n      jump\t// out\n        /* \"https://github.com/OpenZeppelin/openzeppelin-contracts/blob/master/contracts/utils/Context.sol\":656:752  function _msgSender() internal view virtual returns (address) {... */\n    tag_328:\n        /* \"https://github.com/OpenZeppelin/openzeppelin-contracts/blob/master/contracts/utils/Context.sol\":709:716  address */\n      0x00\n        /* \"https://github.com/OpenZeppelin/openzeppelin-contracts/blob/master/contracts/utils/Context.sol\":735:745  msg.sender */\n      caller\n        /* \"https://github.com/OpenZeppelin/openzeppelin-contracts/blob/master/contracts/utils/Context.sol\":728:745  return msg.sender */\n      swap1\n      pop\n        /* \"https://github.com/OpenZeppelin/openzeppelin-contracts/blob/master/contracts/utils/Context.sol\":656:752  function _msgSender() internal view virtual returns (address) {... */\n      swap1\n      jump\t// out\n        /* \"VotingPlus.sol\":5969:6319  function registerVoterKey(address _voterKey) internal {... */\n    tag_336:\n        /* \"VotingPlus.sol\":6033:6053  bool hasKeyBeenFound */\n      0x00\n        /* \"VotingPlus.sol\":6076:6082  uint i */\n      dup1\n        /* \"VotingPlus.sol\":6071:6223  for (uint i=0; i<votersKeys.length; i++) {... */\n    tag_353:\n        /* \"VotingPlus.sol\":6088:6098  votersKeys */\n      0x03\n        /* \"VotingPlus.sol\":6088:6105  votersKeys.length */\n      dup1\n      sload\n      swap1\n      pop\n        /* \"VotingPlus.sol\":6086:6087  i */\n      dup2\n        /* \"VotingPlus.sol\":6086:6105  i<votersKeys.length */\n      lt\n        /* \"VotingPlus.sol\":6071:6223  for (uint i=0; i<votersKeys.length; i++) {... */\n      iszero\n      tag_354\n      jumpi\n        /* \"VotingPlus.sol\":6147:6156  _voterKey */\n      dup3\n        /* \"VotingPlus.sol\":6130:6156  votersKeys[i] == _voterKey */\n      0xffffffffffffffffffffffffffffffffffffffff\n      and\n        /* \"VotingPlus.sol\":6130:6140  votersKeys */\n      0x03\n        /* \"VotingPlus.sol\":6141:6142  i */\n      dup3\n        /* \"VotingPlus.sol\":6130:6143  votersKeys[i] */\n      dup2\n      sload\n      dup2\n      lt\n      tag_356\n      jumpi\n      tag_357\n      tag_84\n      jump\t// in\n    tag_357:\n    tag_356:\n      swap1\n      0x00\n      mstore\n      keccak256(0x00, 0x20)\n      add\n      0x00\n      swap1\n      sload\n      swap1\n      0x0100\n      exp\n      swap1\n      div\n      0xffffffffffffffffffffffffffffffffffffffff\n      and\n        /* \"VotingPlus.sol\":6130:6156  votersKeys[i] == _voterKey */\n      0xffffffffffffffffffffffffffffffffffffffff\n      and\n      sub\n        /* \"VotingPlus.sol\":6126:6213  if (votersKeys[i] == _voterKey) {... */\n      tag_359\n      jumpi\n        /* \"VotingPlus.sol\":6194:6198  true */\n      0x01\n        /* \"VotingPlus.sol\":6176:6198  hasKeyBeenFound = true */\n      swap2\n      pop\n        /* \"VotingPlus.sol\":6126:6213  if (votersKeys[i] == _voterKey) {... */\n    tag_359:\n        /* \"VotingPlus.sol\":6107:6110  i++ */\n      dup1\n      dup1\n      0x01\n      add\n      swap2\n      pop\n      pop\n        /* \"VotingPlus.sol\":6071:6223  for (uint i=0; i<votersKeys.length; i++) {... */\n      jump(tag_353)\n    tag_354:\n      pop\n        /* \"VotingPlus.sol\":6255:6260  false */\n      0x00\n        /* \"VotingPlus.sol\":6236:6260  hasKeyBeenFound == false */\n      iszero\n      iszero\n        /* \"VotingPlus.sol\":6236:6251  hasKeyBeenFound */\n      dup2\n        /* \"VotingPlus.sol\":6236:6260  hasKeyBeenFound == false */\n      iszero\n      iszero\n      sub\n        /* \"VotingPlus.sol\":6232:6313  if (hasKeyBeenFound == false) {... */\n      tag_360\n      jumpi\n        /* \"VotingPlus.sol\":6276:6286  votersKeys */\n      0x03\n        /* \"VotingPlus.sol\":6292:6301  _voterKey */\n      dup3\n        /* \"VotingPlus.sol\":6276:6302  votersKeys.push(_voterKey) */\n      swap1\n      dup1\n      0x01\n      dup2\n      sload\n      add\n      dup1\n      dup3\n      sstore\n      dup1\n      swap2\n      pop\n      pop\n      0x01\n      swap1\n      sub\n      swap1\n      0x00\n      mstore\n      keccak256(0x00, 0x20)\n      add\n      0x00\n      swap1\n      swap2\n      swap1\n      swap2\n      swap1\n      swap2\n      0x0100\n      exp\n      dup2\n      sload\n      dup2\n      0xffffffffffffffffffffffffffffffffffffffff\n      mul\n      not\n      and\n      swap1\n      dup4\n      0xffffffffffffffffffffffffffffffffffffffff\n      and\n      mul\n      or\n      swap1\n      sstore\n      pop\n        /* \"VotingPlus.sol\":6232:6313  if (hasKeyBeenFound == false) {... */\n    tag_360:\n        /* \"VotingPlus.sol\":6023:6319  {... */\n      pop\n        /* \"VotingPlus.sol\":5969:6319  function registerVoterKey(address _voterKey) internal {... */\n      pop\n      jump\t// out\n    tag_76:\n      pop\n      dup1\n      sload\n      0x00\n      dup3\n      sstore\n      0x03\n      mul\n      swap1\n      0x00\n      mstore\n      keccak256(0x00, 0x20)\n      swap1\n      dup2\n      add\n      swap1\n      tag_363\n      swap2\n      swap1\n      tag_364\n      jump\t// in\n    tag_363:\n      pop\n      jump\t// out\n    tag_78:\n      dup3\n      dup1\n      sload\n      dup3\n      dup3\n      sstore\n      swap1\n      0x00\n      mstore\n      keccak256(0x00, 0x20)\n      swap1\n      0x03\n      mul\n      dup2\n      add\n      swap3\n      dup3\n      iszero\n      tag_365\n      jumpi\n      0x00\n      mstore\n      keccak256(0x00, 0x20)\n      swap2\n      0x03\n      mul\n      dup3\n      add\n    tag_366:\n      dup3\n      dup2\n      gt\n      iszero\n      tag_367\n      jumpi\n      dup3\n      dup3\n      0x00\n      dup3\n      add\n      sload\n      dup2\n      0x00\n      add\n      sstore\n      0x01\n      dup3\n      add\n      dup2\n      0x01\n      add\n      swap1\n      dup2\n      tag_368\n      swap2\n      swap1\n      tag_369\n      jump\t// in\n    tag_368:\n      pop\n      0x02\n      dup3\n      add\n      sload\n      dup2\n      0x02\n      add\n      sstore\n      pop\n      pop\n      swap2\n      0x03\n      add\n      swap2\n      swap1\n      0x03\n      add\n      swap1\n      jump(tag_366)\n    tag_367:\n    tag_365:\n      pop\n      swap1\n      pop\n      tag_370\n      swap2\n      swap1\n      tag_364\n      jump\t// in\n    tag_370:\n      pop\n      swap1\n      jump\t// out\n    tag_96:\n      pop\n      dup1\n      sload\n      0x00\n      dup3\n      sstore\n      swap1\n      0x00\n      mstore\n      keccak256(0x00, 0x20)\n      swap1\n      dup2\n      add\n      swap1\n      tag_372\n      swap2\n      swap1\n      tag_373\n      jump\t// in\n    tag_372:\n      pop\n      jump\t// out\n    tag_153:\n      pop\n      dup1\n      sload\n      0x00\n      dup3\n      sstore\n      swap1\n      0x00\n      mstore\n      keccak256(0x00, 0x20)\n      swap1\n      dup2\n      add\n      swap1\n      tag_375\n      swap2\n      swap1\n      tag_373\n      jump\t// in\n    tag_375:\n      pop\n      jump\t// out\n    tag_364:\n    tag_376:\n      dup1\n      dup3\n      gt\n      iszero\n      tag_377\n      jumpi\n      0x00\n      dup1\n      dup3\n      add\n      0x00\n      swap1\n      sstore\n      0x01\n      dup3\n      add\n      0x00\n      tag_378\n      swap2\n      swap1\n      tag_379\n      jump\t// in\n    tag_378:\n      0x02\n      dup3\n      add\n      0x00\n      swap1\n      sstore\n      pop\n      0x03\n      add\n      jump(tag_376)\n    tag_377:\n      pop\n      swap1\n      jump\t// out\n    tag_373:\n    tag_380:\n      dup1\n      dup3\n      gt\n      iszero\n      tag_381\n      jumpi\n      0x00\n      dup2\n      0x00\n      swap1\n      sstore\n      pop\n      0x01\n      add\n      jump(tag_380)\n    tag_381:\n      pop\n      swap1\n      jump\t// out\n    tag_379:\n      pop\n      dup1\n      sload\n      tag_382\n      swap1\n      tag_107\n      jump\t// in\n    tag_382:\n      0x00\n      dup3\n      sstore\n      dup1\n      0x1f\n      lt\n      tag_384\n      jumpi\n      pop\n      jump(tag_383)\n    tag_384:\n      0x1f\n      add\n      0x20\n      swap1\n      div\n      swap1\n      0x00\n      mstore\n      keccak256(0x00, 0x20)\n      swap1\n      dup2\n      add\n      swap1\n      tag_385\n      swap2\n      swap1\n      tag_373\n      jump\t// in\n    tag_385:\n    tag_383:\n      pop\n      jump\t// out\n        /* \"#utility.yul\":7:146   */\n    tag_386:\n        /* \"#utility.yul\":99:105   */\n      0x00\n        /* \"#utility.yul\":133:138   */\n      dup2\n        /* \"#utility.yul\":127:139   */\n      mload\n        /* \"#utility.yul\":117:139   */\n      swap1\n      pop\n        /* \"#utility.yul\":7:146   */\n      swap2\n      swap1\n      pop\n      jump\t// out\n        /* \"#utility.yul\":152:361   */\n    tag_387:\n        /* \"#utility.yul\":276:287   */\n      0x00\n        /* \"#utility.yul\":310:316   */\n      dup3\n        /* \"#utility.yul\":305:308   */\n      dup3\n        /* \"#utility.yul\":298:317   */\n      mstore\n        /* \"#utility.yul\":350:354   */\n      0x20\n        /* \"#utility.yul\":345:348   */\n      dup3\n        /* \"#utility.yul\":341:355   */\n      add\n        /* \"#utility.yul\":326:355   */\n      swap1\n      pop\n        /* \"#utility.yul\":152:361   */\n      swap3\n      swap2\n      pop\n      pop\n      jump\t// out\n        /* \"#utility.yul\":367:524   */\n    tag_388:\n        /* \"#utility.yul\":459:463   */\n      0x00\n        /* \"#utility.yul\":482:485   */\n      dup2\n        /* \"#utility.yul\":474:485   */\n      swap1\n      pop\n        /* \"#utility.yul\":512:516   */\n      0x20\n        /* \"#utility.yul\":507:510   */\n      dup3\n        /* \"#utility.yul\":503:517   */\n      add\n        /* \"#utility.yul\":495:517   */\n      swap1\n      pop\n        /* \"#utility.yul\":367:524   */\n      swap2\n      swap1\n      pop\n      jump\t// out\n        /* \"#utility.yul\":530:607   */\n    tag_389:\n        /* \"#utility.yul\":567:574   */\n      0x00\n        /* \"#utility.yul\":596:601   */\n      dup2\n        /* \"#utility.yul\":585:601   */\n      swap1\n      pop\n        /* \"#utility.yul\":530:607   */\n      swap2\n      swap1\n      pop\n      jump\t// out\n        /* \"#utility.yul\":613:721   */\n    tag_390:\n        /* \"#utility.yul\":690:714   */\n      tag_477\n        /* \"#utility.yul\":708:713   */\n      dup2\n        /* \"#utility.yul\":690:714   */\n      tag_389\n      jump\t// in\n    tag_477:\n        /* \"#utility.yul\":685:688   */\n      dup3\n        /* \"#utility.yul\":678:715   */\n      mstore\n        /* \"#utility.yul\":613:721   */\n      pop\n      pop\n      jump\t// out\n        /* \"#utility.yul\":727:826   */\n    tag_391:\n        /* \"#utility.yul\":779:785   */\n      0x00\n        /* \"#utility.yul\":813:818   */\n      dup2\n        /* \"#utility.yul\":807:819   */\n      mload\n        /* \"#utility.yul\":797:819   */\n      swap1\n      pop\n        /* \"#utility.yul\":727:826   */\n      swap2\n      swap1\n      pop\n      jump\t// out\n        /* \"#utility.yul\":832:991   */\n    tag_392:\n        /* \"#utility.yul\":906:917   */\n      0x00\n        /* \"#utility.yul\":940:946   */\n      dup3\n        /* \"#utility.yul\":935:938   */\n      dup3\n        /* \"#utility.yul\":928:947   */\n      mstore\n        /* \"#utility.yul\":980:984   */\n      0x20\n        /* \"#utility.yul\":975:978   */\n      dup3\n        /* \"#utility.yul\":971:985   */\n      add\n        /* \"#utility.yul\":956:985   */\n      swap1\n      pop\n        /* \"#utility.yul\":832:991   */\n      swap3\n      swap2\n      pop\n      pop\n      jump\t// out\n        /* \"#utility.yul\":997:1243   */\n    tag_393:\n        /* \"#utility.yul\":1078:1079   */\n      0x00\n        /* \"#utility.yul\":1088:1201   */\n    tag_481:\n        /* \"#utility.yul\":1102:1108   */\n      dup4\n        /* \"#utility.yul\":1099:1100   */\n      dup2\n        /* \"#utility.yul\":1096:1109   */\n      lt\n        /* \"#utility.yul\":1088:1201   */\n      iszero\n      tag_483\n      jumpi\n        /* \"#utility.yul\":1187:1188   */\n      dup1\n        /* \"#utility.yul\":1182:1185   */\n      dup3\n        /* \"#utility.yul\":1178:1189   */\n      add\n        /* \"#utility.yul\":1172:1190   */\n      mload\n        /* \"#utility.yul\":1168:1169   */\n      dup2\n        /* \"#utility.yul\":1163:1166   */\n      dup5\n        /* \"#utility.yul\":1159:1170   */\n      add\n        /* \"#utility.yul\":1152:1191   */\n      mstore\n        /* \"#utility.yul\":1124:1126   */\n      0x20\n        /* \"#utility.yul\":1121:1122   */\n      dup2\n        /* \"#utility.yul\":1117:1127   */\n      add\n        /* \"#utility.yul\":1112:1127   */\n      swap1\n      pop\n        /* \"#utility.yul\":1088:1201   */\n      jump(tag_481)\n    tag_483:\n        /* \"#utility.yul\":1235:1236   */\n      0x00\n        /* \"#utility.yul\":1226:1232   */\n      dup5\n        /* \"#utility.yul\":1221:1224   */\n      dup5\n        /* \"#utility.yul\":1217:1233   */\n      add\n        /* \"#utility.yul\":1210:1237   */\n      mstore\n        /* \"#utility.yul\":1059:1243   */\n      pop\n        /* \"#utility.yul\":997:1243   */\n      pop\n      pop\n      pop\n      jump\t// out\n        /* \"#utility.yul\":1249:1351   */\n    tag_394:\n        /* \"#utility.yul\":1290:1296   */\n      0x00\n        /* \"#utility.yul\":1341:1343   */\n      0x1f\n        /* \"#utility.yul\":1337:1344   */\n      not\n        /* \"#utility.yul\":1332:1334   */\n      0x1f\n        /* \"#utility.yul\":1325:1330   */\n      dup4\n        /* \"#utility.yul\":1321:1335   */\n      add\n        /* \"#utility.yul\":1317:1345   */\n      and\n        /* \"#utility.yul\":1307:1345   */\n      swap1\n      pop\n        /* \"#utility.yul\":1249:1351   */\n      swap2\n      swap1\n      pop\n      jump\t// out\n        /* \"#utility.yul\":1357:1714   */\n    tag_395:\n        /* \"#utility.yul\":1435:1438   */\n      0x00\n        /* \"#utility.yul\":1463:1502   */\n      tag_486\n        /* \"#utility.yul\":1496:1501   */\n      dup3\n        /* \"#utility.yul\":1463:1502   */\n      tag_391\n      jump\t// in\n    tag_486:\n        /* \"#utility.yul\":1518:1579   */\n      tag_487\n        /* \"#utility.yul\":1572:1578   */\n      dup2\n        /* \"#utility.yul\":1567:1570   */\n      dup6\n        /* \"#utility.yul\":1518:1579   */\n      tag_392\n      jump\t// in\n    tag_487:\n        /* \"#utility.yul\":1511:1579   */\n      swap4\n      pop\n        /* \"#utility.yul\":1588:1653   */\n      tag_488\n        /* \"#utility.yul\":1646:1652   */\n      dup2\n        /* \"#utility.yul\":1641:1644   */\n      dup6\n        /* \"#utility.yul\":1634:1638   */\n      0x20\n        /* \"#utility.yul\":1627:1632   */\n      dup7\n        /* \"#utility.yul\":1623:1639   */\n      add\n        /* \"#utility.yul\":1588:1653   */\n      tag_393\n      jump\t// in\n    tag_488:\n        /* \"#utility.yul\":1678:1707   */\n      tag_489\n        /* \"#utility.yul\":1700:1706   */\n      dup2\n        /* \"#utility.yul\":1678:1707   */\n      tag_394\n      jump\t// in\n    tag_489:\n        /* \"#utility.yul\":1673:1676   */\n      dup5\n        /* \"#utility.yul\":1669:1708   */\n      add\n        /* \"#utility.yul\":1662:1708   */\n      swap2\n      pop\n        /* \"#utility.yul\":1439:1714   */\n      pop\n        /* \"#utility.yul\":1357:1714   */\n      swap3\n      swap2\n      pop\n      pop\n      jump\t// out\n        /* \"#utility.yul\":1784:2564   */\n    tag_396:\n        /* \"#utility.yul\":1893:1896   */\n      0x00\n        /* \"#utility.yul\":1929:1933   */\n      0x60\n        /* \"#utility.yul\":1924:1927   */\n      dup4\n        /* \"#utility.yul\":1920:1934   */\n      add\n        /* \"#utility.yul\":2014:2018   */\n      0x00\n        /* \"#utility.yul\":2007:2012   */\n      dup4\n        /* \"#utility.yul\":2003:2019   */\n      add\n        /* \"#utility.yul\":1997:2020   */\n      mload\n        /* \"#utility.yul\":2033:2096   */\n      tag_491\n        /* \"#utility.yul\":2090:2094   */\n      0x00\n        /* \"#utility.yul\":2085:2088   */\n      dup7\n        /* \"#utility.yul\":2081:2095   */\n      add\n        /* \"#utility.yul\":2067:2079   */\n      dup3\n        /* \"#utility.yul\":2033:2096   */\n      tag_390\n      jump\t// in\n    tag_491:\n        /* \"#utility.yul\":1944:2106   */\n      pop\n        /* \"#utility.yul\":2195:2199   */\n      0x20\n        /* \"#utility.yul\":2188:2193   */\n      dup4\n        /* \"#utility.yul\":2184:2200   */\n      add\n        /* \"#utility.yul\":2178:2201   */\n      mload\n        /* \"#utility.yul\":2248:2251   */\n      dup5\n        /* \"#utility.yul\":2242:2246   */\n      dup3\n        /* \"#utility.yul\":2238:2252   */\n      sub\n        /* \"#utility.yul\":2231:2235   */\n      0x20\n        /* \"#utility.yul\":2226:2229   */\n      dup7\n        /* \"#utility.yul\":2222:2236   */\n      add\n        /* \"#utility.yul\":2215:2253   */\n      mstore\n        /* \"#utility.yul\":2274:2347   */\n      tag_492\n        /* \"#utility.yul\":2342:2346   */\n      dup3\n        /* \"#utility.yul\":2328:2340   */\n      dup3\n        /* \"#utility.yul\":2274:2347   */\n      tag_395\n      jump\t// in\n    tag_492:\n        /* \"#utility.yul\":2266:2347   */\n      swap2\n      pop\n        /* \"#utility.yul\":2116:2358   */\n      pop\n        /* \"#utility.yul\":2445:2449   */\n      0x40\n        /* \"#utility.yul\":2438:2443   */\n      dup4\n        /* \"#utility.yul\":2434:2450   */\n      add\n        /* \"#utility.yul\":2428:2451   */\n      mload\n        /* \"#utility.yul\":2464:2527   */\n      tag_493\n        /* \"#utility.yul\":2521:2525   */\n      0x40\n        /* \"#utility.yul\":2516:2519   */\n      dup7\n        /* \"#utility.yul\":2512:2526   */\n      add\n        /* \"#utility.yul\":2498:2510   */\n      dup3\n        /* \"#utility.yul\":2464:2527   */\n      tag_390\n      jump\t// in\n    tag_493:\n        /* \"#utility.yul\":2368:2537   */\n      pop\n        /* \"#utility.yul\":2554:2558   */\n      dup1\n        /* \"#utility.yul\":2547:2558   */\n      swap2\n      pop\n        /* \"#utility.yul\":1898:2564   */\n      pop\n        /* \"#utility.yul\":1784:2564   */\n      swap3\n      swap2\n      pop\n      pop\n      jump\t// out\n        /* \"#utility.yul\":2570:2826   */\n    tag_397:\n        /* \"#utility.yul\":2689:2699   */\n      0x00\n        /* \"#utility.yul\":2724:2820   */\n      tag_495\n        /* \"#utility.yul\":2816:2819   */\n      dup4\n        /* \"#utility.yul\":2808:2814   */\n      dup4\n        /* \"#utility.yul\":2724:2820   */\n      tag_396\n      jump\t// in\n    tag_495:\n        /* \"#utility.yul\":2710:2820   */\n      swap1\n      pop\n        /* \"#utility.yul\":2570:2826   */\n      swap3\n      swap2\n      pop\n      pop\n      jump\t// out\n        /* \"#utility.yul\":2832:2970   */\n    tag_398:\n        /* \"#utility.yul\":2927:2931   */\n      0x00\n        /* \"#utility.yul\":2959:2963   */\n      0x20\n        /* \"#utility.yul\":2954:2957   */\n      dup3\n        /* \"#utility.yul\":2950:2964   */\n      add\n        /* \"#utility.yul\":2942:2964   */\n      swap1\n      pop\n        /* \"#utility.yul\":2832:2970   */\n      swap2\n      swap1\n      pop\n      jump\t// out\n        /* \"#utility.yul\":3044:4155   */\n    tag_399:\n        /* \"#utility.yul\":3213:3216   */\n      0x00\n        /* \"#utility.yul\":3242:3321   */\n      tag_498\n        /* \"#utility.yul\":3315:3320   */\n      dup3\n        /* \"#utility.yul\":3242:3321   */\n      tag_386\n      jump\t// in\n    tag_498:\n        /* \"#utility.yul\":3337:3448   */\n      tag_499\n        /* \"#utility.yul\":3441:3447   */\n      dup2\n        /* \"#utility.yul\":3436:3439   */\n      dup6\n        /* \"#utility.yul\":3337:3448   */\n      tag_387\n      jump\t// in\n    tag_499:\n        /* \"#utility.yul\":3330:3448   */\n      swap4\n      pop\n        /* \"#utility.yul\":3474:3477   */\n      dup4\n        /* \"#utility.yul\":3519:3523   */\n      0x20\n        /* \"#utility.yul\":3511:3517   */\n      dup3\n        /* \"#utility.yul\":3507:3524   */\n      mul\n        /* \"#utility.yul\":3502:3505   */\n      dup6\n        /* \"#utility.yul\":3498:3525   */\n      add\n        /* \"#utility.yul\":3549:3630   */\n      tag_500\n        /* \"#utility.yul\":3624:3629   */\n      dup6\n        /* \"#utility.yul\":3549:3630   */\n      tag_388\n      jump\t// in\n    tag_500:\n        /* \"#utility.yul\":3653:3660   */\n      dup1\n        /* \"#utility.yul\":3684:3685   */\n      0x00\n        /* \"#utility.yul\":3669:4110   */\n    tag_501:\n        /* \"#utility.yul\":3694:3700   */\n      dup6\n        /* \"#utility.yul\":3691:3692   */\n      dup2\n        /* \"#utility.yul\":3688:3701   */\n      lt\n        /* \"#utility.yul\":3669:4110   */\n      iszero\n      tag_503\n      jumpi\n        /* \"#utility.yul\":3765:3774   */\n      dup5\n        /* \"#utility.yul\":3759:3763   */\n      dup5\n        /* \"#utility.yul\":3755:3775   */\n      sub\n        /* \"#utility.yul\":3750:3753   */\n      dup10\n        /* \"#utility.yul\":3743:3776   */\n      mstore\n        /* \"#utility.yul\":3816:3822   */\n      dup2\n        /* \"#utility.yul\":3810:3823   */\n      mload\n        /* \"#utility.yul\":3844:3958   */\n      tag_504\n        /* \"#utility.yul\":3953:3957   */\n      dup6\n        /* \"#utility.yul\":3938:3951   */\n      dup3\n        /* \"#utility.yul\":3844:3958   */\n      tag_397\n      jump\t// in\n    tag_504:\n        /* \"#utility.yul\":3836:3958   */\n      swap5\n      pop\n        /* \"#utility.yul\":3981:4066   */\n      tag_505\n        /* \"#utility.yul\":4059:4065   */\n      dup4\n        /* \"#utility.yul\":3981:4066   */\n      tag_398\n      jump\t// in\n    tag_505:\n        /* \"#utility.yul\":3971:4066   */\n      swap3\n      pop\n        /* \"#utility.yul\":4095:4099   */\n      0x20\n        /* \"#utility.yul\":4090:4093   */\n      dup11\n        /* \"#utility.yul\":4086:4100   */\n      add\n        /* \"#utility.yul\":4079:4100   */\n      swap10\n      pop\n        /* \"#utility.yul\":3729:4110   */\n      pop\n        /* \"#utility.yul\":3716:3717   */\n      0x01\n        /* \"#utility.yul\":3713:3714   */\n      dup2\n        /* \"#utility.yul\":3709:3718   */\n      add\n        /* \"#utility.yul\":3704:3718   */\n      swap1\n      pop\n        /* \"#utility.yul\":3669:4110   */\n      jump(tag_501)\n    tag_503:\n        /* \"#utility.yul\":3673:3687   */\n      pop\n        /* \"#utility.yul\":4126:4130   */\n      dup3\n        /* \"#utility.yul\":4119:4130   */\n      swap8\n      pop\n        /* \"#utility.yul\":4146:4149   */\n      dup8\n        /* \"#utility.yul\":4139:4149   */\n      swap6\n      pop\n        /* \"#utility.yul\":3218:4155   */\n      pop\n      pop\n      pop\n      pop\n      pop\n        /* \"#utility.yul\":3044:4155   */\n      swap3\n      swap2\n      pop\n      pop\n      jump\t// out\n        /* \"#utility.yul\":4161:4634   */\n    tag_23:\n        /* \"#utility.yul\":4354:4358   */\n      0x00\n        /* \"#utility.yul\":4392:4394   */\n      0x20\n        /* \"#utility.yul\":4381:4390   */\n      dup3\n        /* \"#utility.yul\":4377:4395   */\n      add\n        /* \"#utility.yul\":4369:4395   */\n      swap1\n      pop\n        /* \"#utility.yul\":4441:4450   */\n      dup2\n        /* \"#utility.yul\":4435:4439   */\n      dup2\n        /* \"#utility.yul\":4431:4451   */\n      sub\n        /* \"#utility.yul\":4427:4428   */\n      0x00\n        /* \"#utility.yul\":4416:4425   */\n      dup4\n        /* \"#utility.yul\":4412:4429   */\n      add\n        /* \"#utility.yul\":4405:4452   */\n      mstore\n        /* \"#utility.yul\":4469:4627   */\n      tag_507\n        /* \"#utility.yul\":4622:4626   */\n      dup2\n        /* \"#utility.yul\":4613:4619   */\n      dup5\n        /* \"#utility.yul\":4469:4627   */\n      tag_399\n      jump\t// in\n    tag_507:\n        /* \"#utility.yul\":4461:4627   */\n      swap1\n      pop\n        /* \"#utility.yul\":4161:4634   */\n      swap3\n      swap2\n      pop\n      pop\n      jump\t// out\n        /* \"#utility.yul\":4721:4838   */\n    tag_401:\n        /* \"#utility.yul\":4830:4831   */\n      0x00\n        /* \"#utility.yul\":4827:4828   */\n      dup1\n        /* \"#utility.yul\":4820:4832   */\n      revert\n        /* \"#utility.yul\":4844:4961   */\n    tag_402:\n        /* \"#utility.yul\":4953:4954   */\n      0x00\n        /* \"#utility.yul\":4950:4951   */\n      dup1\n        /* \"#utility.yul\":4943:4955   */\n      revert\n        /* \"#utility.yul\":4967:5084   */\n    tag_403:\n        /* \"#utility.yul\":5076:5077   */\n      0x00\n        /* \"#utility.yul\":5073:5074   */\n      dup1\n        /* \"#utility.yul\":5066:5078   */\n      revert\n        /* \"#utility.yul\":5090:5207   */\n    tag_404:\n        /* \"#utility.yul\":5199:5200   */\n      0x00\n        /* \"#utility.yul\":5196:5197   */\n      dup1\n        /* \"#utility.yul\":5189:5201   */\n      revert\n        /* \"#utility.yul\":5213:5330   */\n    tag_405:\n        /* \"#utility.yul\":5322:5323   */\n      0x00\n        /* \"#utility.yul\":5319:5320   */\n      dup1\n        /* \"#utility.yul\":5312:5324   */\n      revert\n        /* \"#utility.yul\":5350:5903   */\n    tag_406:\n        /* \"#utility.yul\":5408:5416   */\n      0x00\n        /* \"#utility.yul\":5418:5424   */\n      dup1\n        /* \"#utility.yul\":5468:5471   */\n      dup4\n        /* \"#utility.yul\":5461:5465   */\n      0x1f\n        /* \"#utility.yul\":5453:5459   */\n      dup5\n        /* \"#utility.yul\":5449:5466   */\n      add\n        /* \"#utility.yul\":5445:5472   */\n      slt\n        /* \"#utility.yul\":5435:5557   */\n      tag_515\n      jumpi\n        /* \"#utility.yul\":5476:5555   */\n      tag_516\n      tag_403\n      jump\t// in\n    tag_516:\n        /* \"#utility.yul\":5435:5557   */\n    tag_515:\n        /* \"#utility.yul\":5589:5595   */\n      dup3\n        /* \"#utility.yul\":5576:5596   */\n      calldataload\n        /* \"#utility.yul\":5566:5596   */\n      swap1\n      pop\n        /* \"#utility.yul\":5619:5637   */\n      0xffffffffffffffff\n        /* \"#utility.yul\":5611:5617   */\n      dup2\n        /* \"#utility.yul\":5608:5638   */\n      gt\n        /* \"#utility.yul\":5605:5722   */\n      iszero\n      tag_517\n      jumpi\n        /* \"#utility.yul\":5641:5720   */\n      tag_518\n      tag_404\n      jump\t// in\n    tag_518:\n        /* \"#utility.yul\":5605:5722   */\n    tag_517:\n        /* \"#utility.yul\":5755:5759   */\n      0x20\n        /* \"#utility.yul\":5747:5753   */\n      dup4\n        /* \"#utility.yul\":5743:5760   */\n      add\n        /* \"#utility.yul\":5731:5760   */\n      swap2\n      pop\n        /* \"#utility.yul\":5809:5812   */\n      dup4\n        /* \"#utility.yul\":5801:5805   */\n      0x01\n        /* \"#utility.yul\":5793:5799   */\n      dup3\n        /* \"#utility.yul\":5789:5806   */\n      mul\n        /* \"#utility.yul\":5779:5787   */\n      dup4\n        /* \"#utility.yul\":5775:5807   */\n      add\n        /* \"#utility.yul\":5772:5813   */\n      gt\n        /* \"#utility.yul\":5769:5897   */\n      iszero\n      tag_519\n      jumpi\n        /* \"#utility.yul\":5816:5895   */\n      tag_520\n      tag_405\n      jump\t// in\n    tag_520:\n        /* \"#utility.yul\":5769:5897   */\n    tag_519:\n        /* \"#utility.yul\":5350:5903   */\n      swap3\n      pop\n      swap3\n      swap1\n      pop\n      jump\t// out\n        /* \"#utility.yul\":5909:6438   */\n    tag_26:\n        /* \"#utility.yul\":5980:5986   */\n      0x00\n        /* \"#utility.yul\":5988:5994   */\n      dup1\n        /* \"#utility.yul\":6037:6039   */\n      0x20\n        /* \"#utility.yul\":6025:6034   */\n      dup4\n        /* \"#utility.yul\":6016:6023   */\n      dup6\n        /* \"#utility.yul\":6012:6035   */\n      sub\n        /* \"#utility.yul\":6008:6040   */\n      slt\n        /* \"#utility.yul\":6005:6124   */\n      iszero\n      tag_522\n      jumpi\n        /* \"#utility.yul\":6043:6122   */\n      tag_523\n      tag_401\n      jump\t// in\n    tag_523:\n        /* \"#utility.yul\":6005:6124   */\n    tag_522:\n        /* \"#utility.yul\":6191:6192   */\n      0x00\n        /* \"#utility.yul\":6180:6189   */\n      dup4\n        /* \"#utility.yul\":6176:6193   */\n      add\n        /* \"#utility.yul\":6163:6194   */\n      calldataload\n        /* \"#utility.yul\":6221:6239   */\n      0xffffffffffffffff\n        /* \"#utility.yul\":6213:6219   */\n      dup2\n        /* \"#utility.yul\":6210:6240   */\n      gt\n        /* \"#utility.yul\":6207:6324   */\n      iszero\n      tag_524\n      jumpi\n        /* \"#utility.yul\":6243:6322   */\n      tag_525\n      tag_402\n      jump\t// in\n    tag_525:\n        /* \"#utility.yul\":6207:6324   */\n    tag_524:\n        /* \"#utility.yul\":6356:6421   */\n      tag_526\n        /* \"#utility.yul\":6413:6420   */\n      dup6\n        /* \"#utility.yul\":6404:6410   */\n      dup3\n        /* \"#utility.yul\":6393:6402   */\n      dup7\n        /* \"#utility.yul\":6389:6411   */\n      add\n        /* \"#utility.yul\":6356:6421   */\n      tag_406\n      jump\t// in\n    tag_526:\n        /* \"#utility.yul\":6338:6421   */\n      swap3\n      pop\n      swap3\n      pop\n        /* \"#utility.yul\":6134:6431   */\n      pop\n        /* \"#utility.yul\":5909:6438   */\n      swap3\n      pop\n      swap3\n      swap1\n      pop\n      jump\t// out\n        /* \"#utility.yul\":6444:6566   */\n    tag_407:\n        /* \"#utility.yul\":6517:6541   */\n      tag_528\n        /* \"#utility.yul\":6535:6540   */\n      dup2\n        /* \"#utility.yul\":6517:6541   */\n      tag_389\n      jump\t// in\n    tag_528:\n        /* \"#utility.yul\":6510:6515   */\n      dup2\n        /* \"#utility.yul\":6507:6542   */\n      eq\n        /* \"#utility.yul\":6497:6560   */\n      tag_529\n      jumpi\n        /* \"#utility.yul\":6556:6557   */\n      0x00\n        /* \"#utility.yul\":6553:6554   */\n      dup1\n        /* \"#utility.yul\":6546:6558   */\n      revert\n        /* \"#utility.yul\":6497:6560   */\n    tag_529:\n        /* \"#utility.yul\":6444:6566   */\n      pop\n      jump\t// out\n        /* \"#utility.yul\":6572:6711   */\n    tag_408:\n        /* \"#utility.yul\":6618:6623   */\n      0x00\n        /* \"#utility.yul\":6656:6662   */\n      dup2\n        /* \"#utility.yul\":6643:6663   */\n      calldataload\n        /* \"#utility.yul\":6634:6663   */\n      swap1\n      pop\n        /* \"#utility.yul\":6672:6705   */\n      tag_531\n        /* \"#utility.yul\":6699:6704   */\n      dup2\n        /* \"#utility.yul\":6672:6705   */\n      tag_407\n      jump\t// in\n    tag_531:\n        /* \"#utility.yul\":6572:6711   */\n      swap3\n      swap2\n      pop\n      pop\n      jump\t// out\n        /* \"#utility.yul\":6717:7046   */\n    tag_34:\n        /* \"#utility.yul\":6776:6782   */\n      0x00\n        /* \"#utility.yul\":6825:6827   */\n      0x20\n        /* \"#utility.yul\":6813:6822   */\n      dup3\n        /* \"#utility.yul\":6804:6811   */\n      dup5\n        /* \"#utility.yul\":6800:6823   */\n      sub\n        /* \"#utility.yul\":6796:6828   */\n      slt\n        /* \"#utility.yul\":6793:6912   */\n      iszero\n      tag_533\n      jumpi\n        /* \"#utility.yul\":6831:6910   */\n      tag_534\n      tag_401\n      jump\t// in\n    tag_534:\n        /* \"#utility.yul\":6793:6912   */\n    tag_533:\n        /* \"#utility.yul\":6951:6952   */\n      0x00\n        /* \"#utility.yul\":6976:7029   */\n      tag_535\n        /* \"#utility.yul\":7021:7028   */\n      dup5\n        /* \"#utility.yul\":7012:7018   */\n      dup3\n        /* \"#utility.yul\":7001:7010   */\n      dup6\n        /* \"#utility.yul\":6997:7019   */\n      add\n        /* \"#utility.yul\":6976:7029   */\n      tag_408\n      jump\t// in\n    tag_535:\n        /* \"#utility.yul\":6966:7029   */\n      swap2\n      pop\n        /* \"#utility.yul\":6922:7039   */\n      pop\n        /* \"#utility.yul\":6717:7046   */\n      swap3\n      swap2\n      pop\n      pop\n      jump\t// out\n        /* \"#utility.yul\":7052:7178   */\n    tag_409:\n        /* \"#utility.yul\":7089:7096   */\n      0x00\n        /* \"#utility.yul\":7129:7171   */\n      0xffffffffffffffffffffffffffffffffffffffff\n        /* \"#utility.yul\":7122:7127   */\n      dup3\n        /* \"#utility.yul\":7118:7172   */\n      and\n        /* \"#utility.yul\":7107:7172   */\n      swap1\n      pop\n        /* \"#utility.yul\":7052:7178   */\n      swap2\n      swap1\n      pop\n      jump\t// out\n        /* \"#utility.yul\":7184:7280   */\n    tag_410:\n        /* \"#utility.yul\":7221:7228   */\n      0x00\n        /* \"#utility.yul\":7250:7274   */\n      tag_538\n        /* \"#utility.yul\":7268:7273   */\n      dup3\n        /* \"#utility.yul\":7250:7274   */\n      tag_409\n      jump\t// in\n    tag_538:\n        /* \"#utility.yul\":7239:7274   */\n      swap1\n      pop\n        /* \"#utility.yul\":7184:7280   */\n      swap2\n      swap1\n      pop\n      jump\t// out\n        /* \"#utility.yul\":7286:7404   */\n    tag_411:\n        /* \"#utility.yul\":7373:7397   */\n      tag_540\n        /* \"#utility.yul\":7391:7396   */\n      dup2\n        /* \"#utility.yul\":7373:7397   */\n      tag_410\n      jump\t// in\n    tag_540:\n        /* \"#utility.yul\":7368:7371   */\n      dup3\n        /* \"#utility.yul\":7361:7398   */\n      mstore\n        /* \"#utility.yul\":7286:7404   */\n      pop\n      pop\n      jump\t// out\n        /* \"#utility.yul\":7410:7632   */\n    tag_39:\n        /* \"#utility.yul\":7503:7507   */\n      0x00\n        /* \"#utility.yul\":7541:7543   */\n      0x20\n        /* \"#utility.yul\":7530:7539   */\n      dup3\n        /* \"#utility.yul\":7526:7544   */\n      add\n        /* \"#utility.yul\":7518:7544   */\n      swap1\n      pop\n        /* \"#utility.yul\":7554:7625   */\n      tag_542\n        /* \"#utility.yul\":7622:7623   */\n      0x00\n        /* \"#utility.yul\":7611:7620   */\n      dup4\n        /* \"#utility.yul\":7607:7624   */\n      add\n        /* \"#utility.yul\":7598:7604   */\n      dup5\n        /* \"#utility.yul\":7554:7625   */\n      tag_411\n      jump\t// in\n    tag_542:\n        /* \"#utility.yul\":7410:7632   */\n      swap3\n      swap2\n      pop\n      pop\n      jump\t// out\n        /* \"#utility.yul\":7638:7760   */\n    tag_412:\n        /* \"#utility.yul\":7711:7735   */\n      tag_544\n        /* \"#utility.yul\":7729:7734   */\n      dup2\n        /* \"#utility.yul\":7711:7735   */\n      tag_410\n      jump\t// in\n    tag_544:\n        /* \"#utility.yul\":7704:7709   */\n      dup2\n        /* \"#utility.yul\":7701:7736   */\n      eq\n        /* \"#utility.yul\":7691:7754   */\n      tag_545\n      jumpi\n        /* \"#utility.yul\":7750:7751   */\n      0x00\n        /* \"#utility.yul\":7747:7748   */\n      dup1\n        /* \"#utility.yul\":7740:7752   */\n      revert\n        /* \"#utility.yul\":7691:7754   */\n    tag_545:\n        /* \"#utility.yul\":7638:7760   */\n      pop\n      jump\t// out\n        /* \"#utility.yul\":7766:7905   */\n    tag_413:\n        /* \"#utility.yul\":7812:7817   */\n      0x00\n        /* \"#utility.yul\":7850:7856   */\n      dup2\n        /* \"#utility.yul\":7837:7857   */\n      calldataload\n        /* \"#utility.yul\":7828:7857   */\n      swap1\n      pop\n        /* \"#utility.yul\":7866:7899   */\n      tag_547\n        /* \"#utility.yul\":7893:7898   */\n      dup2\n        /* \"#utility.yul\":7866:7899   */\n      tag_412\n      jump\t// in\n    tag_547:\n        /* \"#utility.yul\":7766:7905   */\n      swap3\n      swap2\n      pop\n      pop\n      jump\t// out\n        /* \"#utility.yul\":7911:8240   */\n    tag_45:\n        /* \"#utility.yul\":7970:7976   */\n      0x00\n        /* \"#utility.yul\":8019:8021   */\n      0x20\n        /* \"#utility.yul\":8007:8016   */\n      dup3\n        /* \"#utility.yul\":7998:8005   */\n      dup5\n        /* \"#utility.yul\":7994:8017   */\n      sub\n        /* \"#utility.yul\":7990:8022   */\n      slt\n        /* \"#utility.yul\":7987:8106   */\n      iszero\n      tag_549\n      jumpi\n        /* \"#utility.yul\":8025:8104   */\n      tag_550\n      tag_401\n      jump\t// in\n    tag_550:\n        /* \"#utility.yul\":7987:8106   */\n    tag_549:\n        /* \"#utility.yul\":8145:8146   */\n      0x00\n        /* \"#utility.yul\":8170:8223   */\n      tag_551\n        /* \"#utility.yul\":8215:8222   */\n      dup5\n        /* \"#utility.yul\":8206:8212   */\n      dup3\n        /* \"#utility.yul\":8195:8204   */\n      dup6\n        /* \"#utility.yul\":8191:8213   */\n      add\n        /* \"#utility.yul\":8170:8223   */\n      tag_413\n      jump\t// in\n    tag_551:\n        /* \"#utility.yul\":8160:8223   */\n      swap2\n      pop\n        /* \"#utility.yul\":8116:8233   */\n      pop\n        /* \"#utility.yul\":7911:8240   */\n      swap3\n      swap2\n      pop\n      pop\n      jump\t// out\n        /* \"#utility.yul\":8246:8426   */\n    tag_65:\n        /* \"#utility.yul\":8294:8371   */\n      0x4e487b7100000000000000000000000000000000000000000000000000000000\n        /* \"#utility.yul\":8291:8292   */\n      0x00\n        /* \"#utility.yul\":8284:8372   */\n      mstore\n        /* \"#utility.yul\":8391:8395   */\n      0x21\n        /* \"#utility.yul\":8388:8389   */\n      0x04\n        /* \"#utility.yul\":8381:8396   */\n      mstore\n        /* \"#utility.yul\":8415:8419   */\n      0x24\n        /* \"#utility.yul\":8412:8413   */\n      0x00\n        /* \"#utility.yul\":8405:8420   */\n      revert\n        /* \"#utility.yul\":8432:8555   */\n    tag_414:\n        /* \"#utility.yul\":8523:8524   */\n      0x04\n        /* \"#utility.yul\":8516:8521   */\n      dup2\n        /* \"#utility.yul\":8513:8525   */\n      lt\n        /* \"#utility.yul\":8503:8549   */\n      tag_554\n      jumpi\n        /* \"#utility.yul\":8529:8547   */\n      tag_555\n      tag_65\n      jump\t// in\n    tag_555:\n        /* \"#utility.yul\":8503:8549   */\n    tag_554:\n        /* \"#utility.yul\":8432:8555   */\n      pop\n      jump\t// out\n        /* \"#utility.yul\":8561:8708   */\n    tag_415:\n        /* \"#utility.yul\":8616:8623   */\n      0x00\n        /* \"#utility.yul\":8645:8650   */\n      dup2\n        /* \"#utility.yul\":8634:8650   */\n      swap1\n      pop\n        /* \"#utility.yul\":8651:8702   */\n      tag_557\n        /* \"#utility.yul\":8696:8701   */\n      dup3\n        /* \"#utility.yul\":8651:8702   */\n      tag_414\n      jump\t// in\n    tag_557:\n        /* \"#utility.yul\":8561:8708   */\n      swap2\n      swap1\n      pop\n      jump\t// out\n        /* \"#utility.yul\":8714:8861   */\n    tag_416:\n        /* \"#utility.yul\":8780:8789   */\n      0x00\n        /* \"#utility.yul\":8813:8855   */\n      tag_559\n        /* \"#utility.yul\":8849:8854   */\n      dup3\n        /* \"#utility.yul\":8813:8855   */\n      tag_415\n      jump\t// in\n    tag_559:\n        /* \"#utility.yul\":8800:8855   */\n      swap1\n      pop\n        /* \"#utility.yul\":8714:8861   */\n      swap2\n      swap1\n      pop\n      jump\t// out\n        /* \"#utility.yul\":8867:9030   */\n    tag_417:\n        /* \"#utility.yul\":8970:9023   */\n      tag_561\n        /* \"#utility.yul\":9017:9022   */\n      dup2\n        /* \"#utility.yul\":8970:9023   */\n      tag_416\n      jump\t// in\n    tag_561:\n        /* \"#utility.yul\":8965:8968   */\n      dup3\n        /* \"#utility.yul\":8958:9024   */\n      mstore\n        /* \"#utility.yul\":8867:9030   */\n      pop\n      pop\n      jump\t// out\n        /* \"#utility.yul\":9036:9290   */\n    tag_50:\n        /* \"#utility.yul\":9145:9149   */\n      0x00\n        /* \"#utility.yul\":9183:9185   */\n      0x20\n        /* \"#utility.yul\":9172:9181   */\n      dup3\n        /* \"#utility.yul\":9168:9186   */\n      add\n        /* \"#utility.yul\":9160:9186   */\n      swap1\n      pop\n        /* \"#utility.yul\":9196:9283   */\n      tag_563\n        /* \"#utility.yul\":9280:9281   */\n      0x00\n        /* \"#utility.yul\":9269:9278   */\n      dup4\n        /* \"#utility.yul\":9265:9282   */\n      add\n        /* \"#utility.yul\":9256:9262   */\n      dup5\n        /* \"#utility.yul\":9196:9283   */\n      tag_417\n      jump\t// in\n    tag_563:\n        /* \"#utility.yul\":9036:9290   */\n      swap3\n      swap2\n      pop\n      pop\n      jump\t// out\n        /* \"#utility.yul\":9296:9465   */\n    tag_418:\n        /* \"#utility.yul\":9380:9391   */\n      0x00\n        /* \"#utility.yul\":9414:9420   */\n      dup3\n        /* \"#utility.yul\":9409:9412   */\n      dup3\n        /* \"#utility.yul\":9402:9421   */\n      mstore\n        /* \"#utility.yul\":9454:9458   */\n      0x20\n        /* \"#utility.yul\":9449:9452   */\n      dup3\n        /* \"#utility.yul\":9445:9459   */\n      add\n        /* \"#utility.yul\":9430:9459   */\n      swap1\n      pop\n        /* \"#utility.yul\":9296:9465   */\n      swap3\n      swap2\n      pop\n      pop\n      jump\t// out\n        /* \"#utility.yul\":9471:9717   */\n    tag_419:\n        /* \"#utility.yul\":9611:9645   */\n      0x566f746573206e65656420746f2062652074616c6c69656420696e206f726465\n        /* \"#utility.yul\":9607:9608   */\n      0x00\n        /* \"#utility.yul\":9599:9605   */\n      dup3\n        /* \"#utility.yul\":9595:9609   */\n      add\n        /* \"#utility.yul\":9588:9646   */\n      mstore\n        /* \"#utility.yul\":9680:9709   */\n      0x7220746f20706572666f726d2074686973206f7065726174696f6e0000000000\n        /* \"#utility.yul\":9675:9677   */\n      0x20\n        /* \"#utility.yul\":9667:9673   */\n      dup3\n        /* \"#utility.yul\":9663:9678   */\n      add\n        /* \"#utility.yul\":9656:9710   */\n      mstore\n        /* \"#utility.yul\":9471:9717   */\n      pop\n      jump\t// out\n        /* \"#utility.yul\":9723:10089   */\n    tag_420:\n        /* \"#utility.yul\":9865:9868   */\n      0x00\n        /* \"#utility.yul\":9886:9953   */\n      tag_567\n        /* \"#utility.yul\":9950:9952   */\n      0x3b\n        /* \"#utility.yul\":9945:9948   */\n      dup4\n        /* \"#utility.yul\":9886:9953   */\n      tag_418\n      jump\t// in\n    tag_567:\n        /* \"#utility.yul\":9879:9953   */\n      swap2\n      pop\n        /* \"#utility.yul\":9962:10055   */\n      tag_568\n        /* \"#utility.yul\":10051:10054   */\n      dup3\n        /* \"#utility.yul\":9962:10055   */\n      tag_419\n      jump\t// in\n    tag_568:\n        /* \"#utility.yul\":10080:10082   */\n      0x40\n        /* \"#utility.yul\":10075:10078   */\n      dup3\n        /* \"#utility.yul\":10071:10083   */\n      add\n        /* \"#utility.yul\":10064:10083   */\n      swap1\n      pop\n        /* \"#utility.yul\":9723:10089   */\n      swap2\n      swap1\n      pop\n      jump\t// out\n        /* \"#utility.yul\":10095:10514   */\n    tag_70:\n        /* \"#utility.yul\":10261:10265   */\n      0x00\n        /* \"#utility.yul\":10299:10301   */\n      0x20\n        /* \"#utility.yul\":10288:10297   */\n      dup3\n        /* \"#utility.yul\":10284:10302   */\n      add\n        /* \"#utility.yul\":10276:10302   */\n      swap1\n      pop\n        /* \"#utility.yul\":10348:10357   */\n      dup2\n        /* \"#utility.yul\":10342:10346   */\n      dup2\n        /* \"#utility.yul\":10338:10358   */\n      sub\n        /* \"#utility.yul\":10334:10335   */\n      0x00\n        /* \"#utility.yul\":10323:10332   */\n      dup4\n        /* \"#utility.yul\":10319:10336   */\n      add\n        /* \"#utility.yul\":10312:10359   */\n      mstore\n        /* \"#utility.yul\":10376:10507   */\n      tag_570\n        /* \"#utility.yul\":10502:10506   */\n      dup2\n        /* \"#utility.yul\":10376:10507   */\n      tag_420\n      jump\t// in\n    tag_570:\n        /* \"#utility.yul\":10368:10507   */\n      swap1\n      pop\n        /* \"#utility.yul\":10095:10514   */\n      swap2\n      swap1\n      pop\n      jump\t// out\n        /* \"#utility.yul\":10520:10811   */\n    tag_421:\n        /* \"#utility.yul\":10660:10694   */\n      0x546865726520617265206e6f20657175616c69747920696e20726573756c7473\n        /* \"#utility.yul\":10656:10657   */\n      0x00\n        /* \"#utility.yul\":10648:10654   */\n      dup3\n        /* \"#utility.yul\":10644:10658   */\n      add\n        /* \"#utility.yul\":10637:10695   */\n      mstore\n        /* \"#utility.yul\":10729:10763   */\n      0x20736f20776520646f6e2774206e65656420746f20627265616b207468652074\n        /* \"#utility.yul\":10724:10726   */\n      0x20\n        /* \"#utility.yul\":10716:10722   */\n      dup3\n        /* \"#utility.yul\":10712:10727   */\n      add\n        /* \"#utility.yul\":10705:10764   */\n      mstore\n        /* \"#utility.yul\":10798:10803   */\n      0x6965210000000000000000000000000000000000000000000000000000000000\n        /* \"#utility.yul\":10793:10795   */\n      0x40\n        /* \"#utility.yul\":10785:10791   */\n      dup3\n        /* \"#utility.yul\":10781:10796   */\n      add\n        /* \"#utility.yul\":10774:10804   */\n      mstore\n        /* \"#utility.yul\":10520:10811   */\n      pop\n      jump\t// out\n        /* \"#utility.yul\":10817:11183   */\n    tag_422:\n        /* \"#utility.yul\":10959:10962   */\n      0x00\n        /* \"#utility.yul\":10980:11047   */\n      tag_573\n        /* \"#utility.yul\":11044:11046   */\n      0x43\n        /* \"#utility.yul\":11039:11042   */\n      dup4\n        /* \"#utility.yul\":10980:11047   */\n      tag_418\n      jump\t// in\n    tag_573:\n        /* \"#utility.yul\":10973:11047   */\n      swap2\n      pop\n        /* \"#utility.yul\":11056:11149   */\n      tag_574\n        /* \"#utility.yul\":11145:11148   */\n      dup3\n        /* \"#utility.yul\":11056:11149   */\n      tag_421\n      jump\t// in\n    tag_574:\n        /* \"#utility.yul\":11174:11176   */\n      0x60\n        /* \"#utility.yul\":11169:11172   */\n      dup3\n        /* \"#utility.yul\":11165:11177   */\n      add\n        /* \"#utility.yul\":11158:11177   */\n      swap1\n      pop\n        /* \"#utility.yul\":10817:11183   */\n      swap2\n      swap1\n      pop\n      jump\t// out\n        /* \"#utility.yul\":11189:11608   */\n    tag_74:\n        /* \"#utility.yul\":11355:11359   */\n      0x00\n        /* \"#utility.yul\":11393:11395   */\n      0x20\n        /* \"#utility.yul\":11382:11391   */\n      dup3\n        /* \"#utility.yul\":11378:11396   */\n      add\n        /* \"#utility.yul\":11370:11396   */\n      swap1\n      pop\n        /* \"#utility.yul\":11442:11451   */\n      dup2\n        /* \"#utility.yul\":11436:11440   */\n      dup2\n        /* \"#utility.yul\":11432:11452   */\n      sub\n        /* \"#utility.yul\":11428:11429   */\n      0x00\n        /* \"#utility.yul\":11417:11426   */\n      dup4\n        /* \"#utility.yul\":11413:11430   */\n      add\n        /* \"#utility.yul\":11406:11453   */\n      mstore\n        /* \"#utility.yul\":11470:11601   */\n      tag_576\n        /* \"#utility.yul\":11596:11600   */\n      dup2\n        /* \"#utility.yul\":11470:11601   */\n      tag_422\n      jump\t// in\n    tag_576:\n        /* \"#utility.yul\":11462:11601   */\n      swap1\n      pop\n        /* \"#utility.yul\":11189:11608   */\n      swap2\n      swap1\n      pop\n      jump\t// out\n        /* \"#utility.yul\":11614:11794   */\n    tag_84:\n        /* \"#utility.yul\":11662:11739   */\n      0x4e487b7100000000000000000000000000000000000000000000000000000000\n        /* \"#utility.yul\":11659:11660   */\n      0x00\n        /* \"#utility.yul\":11652:11740   */\n      mstore\n        /* \"#utility.yul\":11759:11763   */\n      0x32\n        /* \"#utility.yul\":11756:11757   */\n      0x04\n        /* \"#utility.yul\":11749:11764   */\n      mstore\n        /* \"#utility.yul\":11783:11787   */\n      0x24\n        /* \"#utility.yul\":11780:11781   */\n      0x00\n        /* \"#utility.yul\":11773:11788   */\n      revert\n        /* \"#utility.yul\":11800:12028   */\n    tag_423:\n        /* \"#utility.yul\":11940:11974   */\n      0x546865726520617265206e6f2070726f706f736974696f6e7320726567697374\n        /* \"#utility.yul\":11936:11937   */\n      0x00\n        /* \"#utility.yul\":11928:11934   */\n      dup3\n        /* \"#utility.yul\":11924:11938   */\n      add\n        /* \"#utility.yul\":11917:11975   */\n      mstore\n        /* \"#utility.yul\":12009:12020   */\n      0x6572656420796574210000000000000000000000000000000000000000000000\n        /* \"#utility.yul\":12004:12006   */\n      0x20\n        /* \"#utility.yul\":11996:12002   */\n      dup3\n        /* \"#utility.yul\":11992:12007   */\n      add\n        /* \"#utility.yul\":11985:12021   */\n      mstore\n        /* \"#utility.yul\":11800:12028   */\n      pop\n      jump\t// out\n        /* \"#utility.yul\":12034:12400   */\n    tag_424:\n        /* \"#utility.yul\":12176:12179   */\n      0x00\n        /* \"#utility.yul\":12197:12264   */\n      tag_580\n        /* \"#utility.yul\":12261:12263   */\n      0x29\n        /* \"#utility.yul\":12256:12259   */\n      dup4\n        /* \"#utility.yul\":12197:12264   */\n      tag_418\n      jump\t// in\n    tag_580:\n        /* \"#utility.yul\":12190:12264   */\n      swap2\n      pop\n        /* \"#utility.yul\":12273:12366   */\n      tag_581\n        /* \"#utility.yul\":12362:12365   */\n      dup3\n        /* \"#utility.yul\":12273:12366   */\n      tag_423\n      jump\t// in\n    tag_581:\n        /* \"#utility.yul\":12391:12393   */\n      0x40\n        /* \"#utility.yul\":12386:12389   */\n      dup3\n        /* \"#utility.yul\":12382:12394   */\n      add\n        /* \"#utility.yul\":12375:12394   */\n      swap1\n      pop\n        /* \"#utility.yul\":12034:12400   */\n      swap2\n      swap1\n      pop\n      jump\t// out\n        /* \"#utility.yul\":12406:12825   */\n    tag_102:\n        /* \"#utility.yul\":12572:12576   */\n      0x00\n        /* \"#utility.yul\":12610:12612   */\n      0x20\n        /* \"#utility.yul\":12599:12608   */\n      dup3\n        /* \"#utility.yul\":12595:12613   */\n      add\n        /* \"#utility.yul\":12587:12613   */\n      swap1\n      pop\n        /* \"#utility.yul\":12659:12668   */\n      dup2\n        /* \"#utility.yul\":12653:12657   */\n      dup2\n        /* \"#utility.yul\":12649:12669   */\n      sub\n        /* \"#utility.yul\":12645:12646   */\n      0x00\n        /* \"#utility.yul\":12634:12643   */\n      dup4\n        /* \"#utility.yul\":12630:12647   */\n      add\n        /* \"#utility.yul\":12623:12670   */\n      mstore\n        /* \"#utility.yul\":12687:12818   */\n      tag_583\n        /* \"#utility.yul\":12813:12817   */\n      dup2\n        /* \"#utility.yul\":12687:12818   */\n      tag_424\n      jump\t// in\n    tag_583:\n        /* \"#utility.yul\":12679:12818   */\n      swap1\n      pop\n        /* \"#utility.yul\":12406:12825   */\n      swap2\n      swap1\n      pop\n      jump\t// out\n        /* \"#utility.yul\":12831:13011   */\n    tag_425:\n        /* \"#utility.yul\":12879:12956   */\n      0x4e487b7100000000000000000000000000000000000000000000000000000000\n        /* \"#utility.yul\":12876:12877   */\n      0x00\n        /* \"#utility.yul\":12869:12957   */\n      mstore\n        /* \"#utility.yul\":12976:12980   */\n      0x22\n        /* \"#utility.yul\":12973:12974   */\n      0x04\n        /* \"#utility.yul\":12966:12981   */\n      mstore\n        /* \"#utility.yul\":13000:13004   */\n      0x24\n        /* \"#utility.yul\":12997:12998   */\n      0x00\n        /* \"#utility.yul\":12990:13005   */\n      revert\n        /* \"#utility.yul\":13017:13337   */\n    tag_107:\n        /* \"#utility.yul\":13061:13067   */\n      0x00\n        /* \"#utility.yul\":13098:13099   */\n      0x02\n        /* \"#utility.yul\":13092:13096   */\n      dup3\n        /* \"#utility.yul\":13088:13100   */\n      div\n        /* \"#utility.yul\":13078:13100   */\n      swap1\n      pop\n        /* \"#utility.yul\":13145:13146   */\n      0x01\n        /* \"#utility.yul\":13139:13143   */\n      dup3\n        /* \"#utility.yul\":13135:13147   */\n      and\n        /* \"#utility.yul\":13166:13184   */\n      dup1\n        /* \"#utility.yul\":13156:13237   */\n      tag_586\n      jumpi\n        /* \"#utility.yul\":13222:13226   */\n      0x7f\n        /* \"#utility.yul\":13214:13220   */\n      dup3\n        /* \"#utility.yul\":13210:13227   */\n      and\n        /* \"#utility.yul\":13200:13227   */\n      swap2\n      pop\n        /* \"#utility.yul\":13156:13237   */\n    tag_586:\n        /* \"#utility.yul\":13284:13286   */\n      0x20\n        /* \"#utility.yul\":13276:13282   */\n      dup3\n        /* \"#utility.yul\":13273:13287   */\n      lt\n        /* \"#utility.yul\":13253:13271   */\n      dup2\n        /* \"#utility.yul\":13250:13288   */\n      sub\n        /* \"#utility.yul\":13247:13331   */\n      tag_587\n      jumpi\n        /* \"#utility.yul\":13303:13321   */\n      tag_588\n      tag_425\n      jump\t// in\n    tag_588:\n        /* \"#utility.yul\":13247:13331   */\n    tag_587:\n        /* \"#utility.yul\":13068:13337   */\n      pop\n        /* \"#utility.yul\":13017:13337   */\n      swap2\n      swap1\n      pop\n      jump\t// out\n        /* \"#utility.yul\":13343:13519   */\n    tag_426:\n        /* \"#utility.yul\":13483:13511   */\n      0x596f7520617265206e6f7420612076616c696420766f74657221000000000000\n        /* \"#utility.yul\":13479:13480   */\n      0x00\n        /* \"#utility.yul\":13471:13477   */\n      dup3\n        /* \"#utility.yul\":13467:13481   */\n      add\n        /* \"#utility.yul\":13460:13512   */\n      mstore\n        /* \"#utility.yul\":13343:13519   */\n      pop\n      jump\t// out\n        /* \"#utility.yul\":13525:13891   */\n    tag_427:\n        /* \"#utility.yul\":13667:13670   */\n      0x00\n        /* \"#utility.yul\":13688:13755   */\n      tag_591\n        /* \"#utility.yul\":13752:13754   */\n      0x1a\n        /* \"#utility.yul\":13747:13750   */\n      dup4\n        /* \"#utility.yul\":13688:13755   */\n      tag_418\n      jump\t// in\n    tag_591:\n        /* \"#utility.yul\":13681:13755   */\n      swap2\n      pop\n        /* \"#utility.yul\":13764:13857   */\n      tag_592\n        /* \"#utility.yul\":13853:13856   */\n      dup3\n        /* \"#utility.yul\":13764:13857   */\n      tag_426\n      jump\t// in\n    tag_592:\n        /* \"#utility.yul\":13882:13884   */\n      0x20\n        /* \"#utility.yul\":13877:13880   */\n      dup3\n        /* \"#utility.yul\":13873:13885   */\n      add\n        /* \"#utility.yul\":13866:13885   */\n      swap1\n      pop\n        /* \"#utility.yul\":13525:13891   */\n      swap2\n      swap1\n      pop\n      jump\t// out\n        /* \"#utility.yul\":13897:14316   */\n    tag_115:\n        /* \"#utility.yul\":14063:14067   */\n      0x00\n        /* \"#utility.yul\":14101:14103   */\n      0x20\n        /* \"#utility.yul\":14090:14099   */\n      dup3\n        /* \"#utility.yul\":14086:14104   */\n      add\n        /* \"#utility.yul\":14078:14104   */\n      swap1\n      pop\n        /* \"#utility.yul\":14150:14159   */\n      dup2\n        /* \"#utility.yul\":14144:14148   */\n      dup2\n        /* \"#utility.yul\":14140:14160   */\n      sub\n        /* \"#utility.yul\":14136:14137   */\n      0x00\n        /* \"#utility.yul\":14125:14134   */\n      dup4\n        /* \"#utility.yul\":14121:14138   */\n      add\n        /* \"#utility.yul\":14114:14161   */\n      mstore\n        /* \"#utility.yul\":14178:14309   */\n      tag_594\n        /* \"#utility.yul\":14304:14308   */\n      dup2\n        /* \"#utility.yul\":14178:14309   */\n      tag_427\n      jump\t// in\n    tag_594:\n        /* \"#utility.yul\":14170:14309   */\n      swap1\n      pop\n        /* \"#utility.yul\":13897:14316   */\n      swap2\n      swap1\n      pop\n      jump\t// out\n        /* \"#utility.yul\":14322:14501   */\n    tag_428:\n        /* \"#utility.yul\":14462:14493   */\n      0x596f752063616e6e6f742072656769737465722070726f706f73616c73000000\n        /* \"#utility.yul\":14458:14459   */\n      0x00\n        /* \"#utility.yul\":14450:14456   */\n      dup3\n        /* \"#utility.yul\":14446:14460   */\n      add\n        /* \"#utility.yul\":14439:14494   */\n      mstore\n        /* \"#utility.yul\":14322:14501   */\n      pop\n      jump\t// out\n        /* \"#utility.yul\":14507:14873   */\n    tag_429:\n        /* \"#utility.yul\":14649:14652   */\n      0x00\n        /* \"#utility.yul\":14670:14737   */\n      tag_597\n        /* \"#utility.yul\":14734:14736   */\n      0x1d\n        /* \"#utility.yul\":14729:14732   */\n      dup4\n        /* \"#utility.yul\":14670:14737   */\n      tag_418\n      jump\t// in\n    tag_597:\n        /* \"#utility.yul\":14663:14737   */\n      swap2\n      pop\n        /* \"#utility.yul\":14746:14839   */\n      tag_598\n        /* \"#utility.yul\":14835:14838   */\n      dup3\n        /* \"#utility.yul\":14746:14839   */\n      tag_428\n      jump\t// in\n    tag_598:\n        /* \"#utility.yul\":14864:14866   */\n      0x20\n        /* \"#utility.yul\":14859:14862   */\n      dup3\n        /* \"#utility.yul\":14855:14867   */\n      add\n        /* \"#utility.yul\":14848:14867   */\n      swap1\n      pop\n        /* \"#utility.yul\":14507:14873   */\n      swap2\n      swap1\n      pop\n      jump\t// out\n        /* \"#utility.yul\":14879:15298   */\n    tag_123:\n        /* \"#utility.yul\":15045:15049   */\n      0x00\n        /* \"#utility.yul\":15083:15085   */\n      0x20\n        /* \"#utility.yul\":15072:15081   */\n      dup3\n        /* \"#utility.yul\":15068:15086   */\n      add\n        /* \"#utility.yul\":15060:15086   */\n      swap1\n      pop\n        /* \"#utility.yul\":15132:15141   */\n      dup2\n        /* \"#utility.yul\":15126:15130   */\n      dup2\n        /* \"#utility.yul\":15122:15142   */\n      sub\n        /* \"#utility.yul\":15118:15119   */\n      0x00\n        /* \"#utility.yul\":15107:15116   */\n      dup4\n        /* \"#utility.yul\":15103:15120   */\n      add\n        /* \"#utility.yul\":15096:15143   */\n      mstore\n        /* \"#utility.yul\":15160:15291   */\n      tag_600\n        /* \"#utility.yul\":15286:15290   */\n      dup2\n        /* \"#utility.yul\":15160:15291   */\n      tag_429\n      jump\t// in\n    tag_600:\n        /* \"#utility.yul\":15152:15291   */\n      swap1\n      pop\n        /* \"#utility.yul\":14879:15298   */\n      swap2\n      swap1\n      pop\n      jump\t// out\n        /* \"#utility.yul\":15304:15484   */\n    tag_430:\n        /* \"#utility.yul\":15352:15429   */\n      0x4e487b7100000000000000000000000000000000000000000000000000000000\n        /* \"#utility.yul\":15349:15350   */\n      0x00\n        /* \"#utility.yul\":15342:15430   */\n      mstore\n        /* \"#utility.yul\":15449:15453   */\n      0x41\n        /* \"#utility.yul\":15446:15447   */\n      0x04\n        /* \"#utility.yul\":15439:15454   */\n      mstore\n        /* \"#utility.yul\":15473:15477   */\n      0x24\n        /* \"#utility.yul\":15470:15471   */\n      0x00\n        /* \"#utility.yul\":15463:15478   */\n      revert\n        /* \"#utility.yul\":15490:15631   */\n    tag_431:\n        /* \"#utility.yul\":15539:15543   */\n      0x00\n        /* \"#utility.yul\":15562:15565   */\n      dup2\n        /* \"#utility.yul\":15554:15565   */\n      swap1\n      pop\n        /* \"#utility.yul\":15585:15588   */\n      dup2\n        /* \"#utility.yul\":15582:15583   */\n      0x00\n        /* \"#utility.yul\":15575:15589   */\n      mstore\n        /* \"#utility.yul\":15619:15623   */\n      0x20\n        /* \"#utility.yul\":15616:15617   */\n      0x00\n        /* \"#utility.yul\":15606:15624   */\n      keccak256\n        /* \"#utility.yul\":15598:15624   */\n      swap1\n      pop\n        /* \"#utility.yul\":15490:15631   */\n      swap2\n      swap1\n      pop\n      jump\t// out\n        /* \"#utility.yul\":15637:15730   */\n    tag_432:\n        /* \"#utility.yul\":15674:15680   */\n      0x00\n        /* \"#utility.yul\":15721:15723   */\n      0x20\n        /* \"#utility.yul\":15716:15718   */\n      0x1f\n        /* \"#utility.yul\":15709:15714   */\n      dup4\n        /* \"#utility.yul\":15705:15719   */\n      add\n        /* \"#utility.yul\":15701:15724   */\n      div\n        /* \"#utility.yul\":15691:15724   */\n      swap1\n      pop\n        /* \"#utility.yul\":15637:15730   */\n      swap2\n      swap1\n      pop\n      jump\t// out\n        /* \"#utility.yul\":15736:15843   */\n    tag_433:\n        /* \"#utility.yul\":15780:15788   */\n      0x00\n        /* \"#utility.yul\":15830:15835   */\n      dup3\n        /* \"#utility.yul\":15824:15828   */\n      dup3\n        /* \"#utility.yul\":15820:15836   */\n      shl\n        /* \"#utility.yul\":15799:15836   */\n      swap1\n      pop\n        /* \"#utility.yul\":15736:15843   */\n      swap3\n      swap2\n      pop\n      pop\n      jump\t// out\n        /* \"#utility.yul\":15849:16242   */\n    tag_434:\n        /* \"#utility.yul\":15918:15924   */\n      0x00\n        /* \"#utility.yul\":15968:15969   */\n      0x08\n        /* \"#utility.yul\":15956:15966   */\n      dup4\n        /* \"#utility.yul\":15952:15970   */\n      mul\n        /* \"#utility.yul\":15991:16088   */\n      tag_606\n        /* \"#utility.yul\":16021:16087   */\n      0xffffffffffffffffffffffffffffffffffffffffffffffffffffffffffffffff\n        /* \"#utility.yul\":16010:16019   */\n      dup3\n        /* \"#utility.yul\":15991:16088   */\n      tag_433\n      jump\t// in\n    tag_606:\n        /* \"#utility.yul\":16109:16148   */\n      tag_607\n        /* \"#utility.yul\":16139:16147   */\n      dup7\n        /* \"#utility.yul\":16128:16137   */\n      dup4\n        /* \"#utility.yul\":16109:16148   */\n      tag_433\n      jump\t// in\n    tag_607:\n        /* \"#utility.yul\":16097:16148   */\n      swap6\n      pop\n        /* \"#utility.yul\":16181:16185   */\n      dup1\n        /* \"#utility.yul\":16177:16186   */\n      not\n        /* \"#utility.yul\":16170:16175   */\n      dup5\n        /* \"#utility.yul\":16166:16187   */\n      and\n        /* \"#utility.yul\":16157:16187   */\n      swap4\n      pop\n        /* \"#utility.yul\":16230:16234   */\n      dup1\n        /* \"#utility.yul\":16220:16228   */\n      dup7\n        /* \"#utility.yul\":16216:16235   */\n      and\n        /* \"#utility.yul\":16209:16214   */\n      dup5\n        /* \"#utility.yul\":16206:16236   */\n      or\n        /* \"#utility.yul\":16196:16236   */\n      swap3\n      pop\n        /* \"#utility.yul\":15925:16242   */\n      pop\n      pop\n        /* \"#utility.yul\":15849:16242   */\n      swap4\n      swap3\n      pop\n      pop\n      pop\n      jump\t// out\n        /* \"#utility.yul\":16248:16308   */\n    tag_435:\n        /* \"#utility.yul\":16276:16279   */\n      0x00\n        /* \"#utility.yul\":16297:16302   */\n      dup2\n        /* \"#utility.yul\":16290:16302   */\n      swap1\n      pop\n        /* \"#utility.yul\":16248:16308   */\n      swap2\n      swap1\n      pop\n      jump\t// out\n        /* \"#utility.yul\":16314:16456   */\n    tag_436:\n        /* \"#utility.yul\":16364:16373   */\n      0x00\n        /* \"#utility.yul\":16397:16450   */\n      tag_610\n        /* \"#utility.yul\":16415:16449   */\n      tag_611\n        /* \"#utility.yul\":16424:16448   */\n      tag_612\n        /* \"#utility.yul\":16442:16447   */\n      dup5\n        /* \"#utility.yul\":16424:16448   */\n      tag_389\n      jump\t// in\n    tag_612:\n        /* \"#utility.yul\":16415:16449   */\n      tag_435\n      jump\t// in\n    tag_611:\n        /* \"#utility.yul\":16397:16450   */\n      tag_389\n      jump\t// in\n    tag_610:\n        /* \"#utility.yul\":16384:16450   */\n      swap1\n      pop\n        /* \"#utility.yul\":16314:16456   */\n      swap2\n      swap1\n      pop\n      jump\t// out\n        /* \"#utility.yul\":16462:16537   */\n    tag_437:\n        /* \"#utility.yul\":16505:16508   */\n      0x00\n        /* \"#utility.yul\":16526:16531   */\n      dup2\n        /* \"#utility.yul\":16519:16531   */\n      swap1\n      pop\n        /* \"#utility.yul\":16462:16537   */\n      swap2\n      swap1\n      pop\n      jump\t// out\n        /* \"#utility.yul\":16543:16812   */\n    tag_438:\n        /* \"#utility.yul\":16653:16692   */\n      tag_615\n        /* \"#utility.yul\":16684:16691   */\n      dup4\n        /* \"#utility.yul\":16653:16692   */\n      tag_436\n      jump\t// in\n    tag_615:\n        /* \"#utility.yul\":16714:16805   */\n      tag_616\n        /* \"#utility.yul\":16763:16804   */\n      tag_617\n        /* \"#utility.yul\":16787:16803   */\n      dup3\n        /* \"#utility.yul\":16763:16804   */\n      tag_437\n      jump\t// in\n    tag_617:\n        /* \"#utility.yul\":16755:16761   */\n      dup5\n        /* \"#utility.yul\":16748:16752   */\n      dup5\n        /* \"#utility.yul\":16742:16753   */\n      sload\n        /* \"#utility.yul\":16714:16805   */\n      tag_434\n      jump\t// in\n    tag_616:\n        /* \"#utility.yul\":16708:16712   */\n      dup3\n        /* \"#utility.yul\":16701:16806   */\n      sstore\n        /* \"#utility.yul\":16619:16812   */\n      pop\n        /* \"#utility.yul\":16543:16812   */\n      pop\n      pop\n      pop\n      jump\t// out\n        /* \"#utility.yul\":16818:16891   */\n    tag_439:\n        /* \"#utility.yul\":16863:16866   */\n      0x00\n        /* \"#utility.yul\":16818:16891   */\n      swap1\n      jump\t// out\n        /* \"#utility.yul\":16897:17086   */\n    tag_440:\n        /* \"#utility.yul\":16974:17006   */\n      tag_620\n      tag_439\n      jump\t// in\n    tag_620:\n        /* \"#utility.yul\":17015:17080   */\n      tag_621\n        /* \"#utility.yul\":17073:17079   */\n      dup2\n        /* \"#utility.yul\":17065:17071   */\n      dup5\n        /* \"#utility.yul\":17059:17063   */\n      dup5\n        /* \"#utility.yul\":17015:17080   */\n      tag_438\n      jump\t// in\n    tag_621:\n        /* \"#utility.yul\":16950:17086   */\n      pop\n        /* \"#utility.yul\":16897:17086   */\n      pop\n      pop\n      jump\t// out\n        /* \"#utility.yul\":17092:17278   */\n    tag_441:\n        /* \"#utility.yul\":17152:17272   */\n    tag_623:\n        /* \"#utility.yul\":17169:17172   */\n      dup2\n        /* \"#utility.yul\":17162:17167   */\n      dup2\n        /* \"#utility.yul\":17159:17173   */\n      lt\n        /* \"#utility.yul\":17152:17272   */\n      iszero\n      tag_625\n      jumpi\n        /* \"#utility.yul\":17223:17262   */\n      tag_626\n        /* \"#utility.yul\":17260:17261   */\n      0x00\n        /* \"#utility.yul\":17253:17258   */\n      dup3\n        /* \"#utility.yul\":17223:17262   */\n      tag_440\n      jump\t// in\n    tag_626:\n        /* \"#utility.yul\":17196:17197   */\n      0x01\n        /* \"#utility.yul\":17189:17194   */\n      dup2\n        /* \"#utility.yul\":17185:17198   */\n      add\n        /* \"#utility.yul\":17176:17198   */\n      swap1\n      pop\n        /* \"#utility.yul\":17152:17272   */\n      jump(tag_623)\n    tag_625:\n        /* \"#utility.yul\":17092:17278   */\n      pop\n      pop\n      jump\t// out\n        /* \"#utility.yul\":17284:17827   */\n    tag_442:\n        /* \"#utility.yul\":17385:17387   */\n      0x1f\n        /* \"#utility.yul\":17380:17383   */\n      dup3\n        /* \"#utility.yul\":17377:17388   */\n      gt\n        /* \"#utility.yul\":17374:17820   */\n      iszero\n      tag_628\n      jumpi\n        /* \"#utility.yul\":17419:17457   */\n      tag_629\n        /* \"#utility.yul\":17451:17456   */\n      dup2\n        /* \"#utility.yul\":17419:17457   */\n      tag_431\n      jump\t// in\n    tag_629:\n        /* \"#utility.yul\":17503:17532   */\n      tag_630\n        /* \"#utility.yul\":17521:17531   */\n      dup5\n        /* \"#utility.yul\":17503:17532   */\n      tag_432\n      jump\t// in\n    tag_630:\n        /* \"#utility.yul\":17493:17501   */\n      dup2\n        /* \"#utility.yul\":17489:17533   */\n      add\n        /* \"#utility.yul\":17686:17688   */\n      0x20\n        /* \"#utility.yul\":17674:17684   */\n      dup6\n        /* \"#utility.yul\":17671:17689   */\n      lt\n        /* \"#utility.yul\":17668:17717   */\n      iszero\n      tag_631\n      jumpi\n        /* \"#utility.yul\":17707:17715   */\n      dup2\n        /* \"#utility.yul\":17692:17715   */\n      swap1\n      pop\n        /* \"#utility.yul\":17668:17717   */\n    tag_631:\n        /* \"#utility.yul\":17730:17810   */\n      tag_632\n        /* \"#utility.yul\":17786:17808   */\n      tag_633\n        /* \"#utility.yul\":17804:17807   */\n      dup6\n        /* \"#utility.yul\":17786:17808   */\n      tag_432\n      jump\t// in\n    tag_633:\n        /* \"#utility.yul\":17776:17784   */\n      dup4\n        /* \"#utility.yul\":17772:17809   */\n      add\n        /* \"#utility.yul\":17759:17770   */\n      dup3\n        /* \"#utility.yul\":17730:17810   */\n      tag_441\n      jump\t// in\n    tag_632:\n        /* \"#utility.yul\":17389:17820   */\n      pop\n      pop\n        /* \"#utility.yul\":17374:17820   */\n    tag_628:\n        /* \"#utility.yul\":17284:17827   */\n      pop\n      pop\n      pop\n      jump\t// out\n        /* \"#utility.yul\":17833:17950   */\n    tag_443:\n        /* \"#utility.yul\":17887:17895   */\n      0x00\n        /* \"#utility.yul\":17937:17942   */\n      dup3\n        /* \"#utility.yul\":17931:17935   */\n      dup3\n        /* \"#utility.yul\":17927:17943   */\n      shr\n        /* \"#utility.yul\":17906:17943   */\n      swap1\n      pop\n        /* \"#utility.yul\":17833:17950   */\n      swap3\n      swap2\n      pop\n      pop\n      jump\t// out\n        /* \"#utility.yul\":17956:18125   */\n    tag_444:\n        /* \"#utility.yul\":18000:18006   */\n      0x00\n        /* \"#utility.yul\":18033:18084   */\n      tag_636\n        /* \"#utility.yul\":18081:18082   */\n      0x00\n        /* \"#utility.yul\":18077:18083   */\n      not\n        /* \"#utility.yul\":18069:18074   */\n      dup5\n        /* \"#utility.yul\":18066:18067   */\n      0x08\n        /* \"#utility.yul\":18062:18075   */\n      mul\n        /* \"#utility.yul\":18033:18084   */\n      tag_443\n      jump\t// in\n    tag_636:\n        /* \"#utility.yul\":18029:18085   */\n      not\n        /* \"#utility.yul\":18114:18118   */\n      dup1\n        /* \"#utility.yul\":18108:18112   */\n      dup4\n        /* \"#utility.yul\":18104:18119   */\n      and\n        /* \"#utility.yul\":18094:18119   */\n      swap2\n      pop\n        /* \"#utility.yul\":18007:18125   */\n      pop\n        /* \"#utility.yul\":17956:18125   */\n      swap3\n      swap2\n      pop\n      pop\n      jump\t// out\n        /* \"#utility.yul\":18130:18425   */\n    tag_445:\n        /* \"#utility.yul\":18206:18210   */\n      0x00\n        /* \"#utility.yul\":18352:18381   */\n      tag_638\n        /* \"#utility.yul\":18377:18380   */\n      dup4\n        /* \"#utility.yul\":18371:18375   */\n      dup4\n        /* \"#utility.yul\":18352:18381   */\n      tag_444\n      jump\t// in\n    tag_638:\n        /* \"#utility.yul\":18344:18381   */\n      swap2\n      pop\n        /* \"#utility.yul\":18414:18417   */\n      dup3\n        /* \"#utility.yul\":18411:18412   */\n      0x02\n        /* \"#utility.yul\":18407:18418   */\n      mul\n        /* \"#utility.yul\":18401:18405   */\n      dup3\n        /* \"#utility.yul\":18398:18419   */\n      or\n        /* \"#utility.yul\":18390:18419   */\n      swap1\n      pop\n        /* \"#utility.yul\":18130:18425   */\n      swap3\n      swap2\n      pop\n      pop\n      jump\t// out\n        /* \"#utility.yul\":18430:19825   */\n    tag_127:\n        /* \"#utility.yul\":18547:18584   */\n      tag_640\n        /* \"#utility.yul\":18580:18583   */\n      dup3\n        /* \"#utility.yul\":18547:18584   */\n      tag_391\n      jump\t// in\n    tag_640:\n        /* \"#utility.yul\":18649:18667   */\n      0xffffffffffffffff\n        /* \"#utility.yul\":18641:18647   */\n      dup2\n        /* \"#utility.yul\":18638:18668   */\n      gt\n        /* \"#utility.yul\":18635:18691   */\n      iszero\n      tag_641\n      jumpi\n        /* \"#utility.yul\":18671:18689   */\n      tag_642\n      tag_430\n      jump\t// in\n    tag_642:\n        /* \"#utility.yul\":18635:18691   */\n    tag_641:\n        /* \"#utility.yul\":18715:18753   */\n      tag_643\n        /* \"#utility.yul\":18747:18751   */\n      dup3\n        /* \"#utility.yul\":18741:18752   */\n      sload\n        /* \"#utility.yul\":18715:18753   */\n      tag_107\n      jump\t// in\n    tag_643:\n        /* \"#utility.yul\":18800:18867   */\n      tag_644\n        /* \"#utility.yul\":18860:18866   */\n      dup3\n        /* \"#utility.yul\":18852:18858   */\n      dup3\n        /* \"#utility.yul\":18846:18850   */\n      dup6\n        /* \"#utility.yul\":18800:18867   */\n      tag_442\n      jump\t// in\n    tag_644:\n        /* \"#utility.yul\":18894:18895   */\n      0x00\n        /* \"#utility.yul\":18918:18922   */\n      0x20\n        /* \"#utility.yul\":18905:18922   */\n      swap1\n      pop\n        /* \"#utility.yul\":18950:18952   */\n      0x1f\n        /* \"#utility.yul\":18942:18948   */\n      dup4\n        /* \"#utility.yul\":18939:18953   */\n      gt\n        /* \"#utility.yul\":18967:18968   */\n      0x01\n        /* \"#utility.yul\":18962:19580   */\n      dup2\n      eq\n      tag_646\n      jumpi\n        /* \"#utility.yul\":19624:19625   */\n      0x00\n        /* \"#utility.yul\":19641:19647   */\n      dup5\n        /* \"#utility.yul\":19638:19715   */\n      iszero\n      tag_647\n      jumpi\n        /* \"#utility.yul\":19690:19699   */\n      dup3\n        /* \"#utility.yul\":19685:19688   */\n      dup8\n        /* \"#utility.yul\":19681:19700   */\n      add\n        /* \"#utility.yul\":19675:19701   */\n      mload\n        /* \"#utility.yul\":19666:19701   */\n      swap1\n      pop\n        /* \"#utility.yul\":19638:19715   */\n    tag_647:\n        /* \"#utility.yul\":19741:19808   */\n      tag_648\n        /* \"#utility.yul\":19801:19807   */\n      dup6\n        /* \"#utility.yul\":19794:19799   */\n      dup3\n        /* \"#utility.yul\":19741:19808   */\n      tag_445\n      jump\t// in\n    tag_648:\n        /* \"#utility.yul\":19735:19739   */\n      dup7\n        /* \"#utility.yul\":19728:19809   */\n      sstore\n        /* \"#utility.yul\":19597:19819   */\n      pop\n        /* \"#utility.yul\":18932:19819   */\n      jump(tag_645)\n        /* \"#utility.yul\":18962:19580   */\n    tag_646:\n        /* \"#utility.yul\":19014:19018   */\n      0x1f\n        /* \"#utility.yul\":19010:19019   */\n      not\n        /* \"#utility.yul\":19002:19008   */\n      dup5\n        /* \"#utility.yul\":18998:19020   */\n      and\n        /* \"#utility.yul\":19048:19085   */\n      tag_649\n        /* \"#utility.yul\":19080:19084   */\n      dup7\n        /* \"#utility.yul\":19048:19085   */\n      tag_431\n      jump\t// in\n    tag_649:\n        /* \"#utility.yul\":19107:19108   */\n      0x00\n        /* \"#utility.yul\":19121:19329   */\n    tag_650:\n        /* \"#utility.yul\":19135:19142   */\n      dup3\n        /* \"#utility.yul\":19132:19133   */\n      dup2\n        /* \"#utility.yul\":19129:19143   */\n      lt\n        /* \"#utility.yul\":19121:19329   */\n      iszero\n      tag_652\n      jumpi\n        /* \"#utility.yul\":19214:19223   */\n      dup5\n        /* \"#utility.yul\":19209:19212   */\n      dup10\n        /* \"#utility.yul\":19205:19224   */\n      add\n        /* \"#utility.yul\":19199:19225   */\n      mload\n        /* \"#utility.yul\":19191:19197   */\n      dup3\n        /* \"#utility.yul\":19184:19226   */\n      sstore\n        /* \"#utility.yul\":19265:19266   */\n      0x01\n        /* \"#utility.yul\":19257:19263   */\n      dup3\n        /* \"#utility.yul\":19253:19267   */\n      add\n        /* \"#utility.yul\":19243:19267   */\n      swap2\n      pop\n        /* \"#utility.yul\":19312:19314   */\n      0x20\n        /* \"#utility.yul\":19301:19310   */\n      dup6\n        /* \"#utility.yul\":19297:19315   */\n      add\n        /* \"#utility.yul\":19284:19315   */\n      swap5\n      pop\n        /* \"#utility.yul\":19158:19162   */\n      0x20\n        /* \"#utility.yul\":19155:19156   */\n      dup2\n        /* \"#utility.yul\":19151:19163   */\n      add\n        /* \"#utility.yul\":19146:19163   */\n      swap1\n      pop\n        /* \"#utility.yul\":19121:19329   */\n      jump(tag_650)\n    tag_652:\n        /* \"#utility.yul\":19357:19363   */\n      dup7\n        /* \"#utility.yul\":19348:19355   */\n      dup4\n        /* \"#utility.yul\":19345:19364   */\n      lt\n        /* \"#utility.yul\":19342:19521   */\n      iszero\n      tag_653\n      jumpi\n        /* \"#utility.yul\":19415:19424   */\n      dup5\n        /* \"#utility.yul\":19410:19413   */\n      dup10\n        /* \"#utility.yul\":19406:19425   */\n      add\n        /* \"#utility.yul\":19400:19426   */\n      mload\n        /* \"#utility.yul\":19458:19506   */\n      tag_654\n        /* \"#utility.yul\":19500:19504   */\n      0x1f\n        /* \"#utility.yul\":19492:19498   */\n      dup10\n        /* \"#utility.yul\":19488:19505   */\n      and\n        /* \"#utility.yul\":19477:19486   */\n      dup3\n        /* \"#utility.yul\":19458:19506   */\n      tag_444\n      jump\t// in\n    tag_654:\n        /* \"#utility.yul\":19450:19456   */\n      dup4\n        /* \"#utility.yul\":19443:19507   */\n      sstore\n        /* \"#utility.yul\":19365:19521   */\n      pop\n        /* \"#utility.yul\":19342:19521   */\n    tag_653:\n        /* \"#utility.yul\":19567:19568   */\n      0x01\n        /* \"#utility.yul\":19563:19564   */\n      0x02\n        /* \"#utility.yul\":19555:19561   */\n      dup9\n        /* \"#utility.yul\":19551:19565   */\n      mul\n        /* \"#utility.yul\":19547:19569   */\n      add\n        /* \"#utility.yul\":19541:19545   */\n      dup9\n        /* \"#utility.yul\":19534:19570   */\n      sstore\n        /* \"#utility.yul\":18969:19580   */\n      pop\n      pop\n      pop\n        /* \"#utility.yul\":18932:19819   */\n    tag_645:\n      pop\n        /* \"#utility.yul\":18522:19825   */\n      pop\n      pop\n      pop\n        /* \"#utility.yul\":18430:19825   */\n      pop\n      pop\n      jump\t// out\n        /* \"#utility.yul\":19831:20011   */\n    tag_446:\n        /* \"#utility.yul\":19879:19956   */\n      0x4e487b7100000000000000000000000000000000000000000000000000000000\n        /* \"#utility.yul\":19876:19877   */\n      0x00\n        /* \"#utility.yul\":19869:19957   */\n      mstore\n        /* \"#utility.yul\":19976:19980   */\n      0x11\n        /* \"#utility.yul\":19973:19974   */\n      0x04\n        /* \"#utility.yul\":19966:19981   */\n      mstore\n        /* \"#utility.yul\":20000:20004   */\n      0x24\n        /* \"#utility.yul\":19997:19998   */\n      0x00\n        /* \"#utility.yul\":19990:20005   */\n      revert\n        /* \"#utility.yul\":20017:20250   */\n    tag_129:\n        /* \"#utility.yul\":20056:20059   */\n      0x00\n        /* \"#utility.yul\":20079:20103   */\n      tag_657\n        /* \"#utility.yul\":20097:20102   */\n      dup3\n        /* \"#utility.yul\":20079:20103   */\n      tag_389\n      jump\t// in\n    tag_657:\n        /* \"#utility.yul\":20070:20103   */\n      swap2\n      pop\n        /* \"#utility.yul\":20125:20191   */\n      0xffffffffffffffffffffffffffffffffffffffffffffffffffffffffffffffff\n        /* \"#utility.yul\":20118:20123   */\n      dup3\n        /* \"#utility.yul\":20115:20192   */\n      sub\n        /* \"#utility.yul\":20112:20215   */\n      tag_658\n      jumpi\n        /* \"#utility.yul\":20195:20213   */\n      tag_659\n      tag_446\n      jump\t// in\n    tag_659:\n        /* \"#utility.yul\":20112:20215   */\n    tag_658:\n        /* \"#utility.yul\":20242:20243   */\n      0x01\n        /* \"#utility.yul\":20235:20240   */\n      dup3\n        /* \"#utility.yul\":20231:20244   */\n      add\n        /* \"#utility.yul\":20224:20244   */\n      swap1\n      pop\n        /* \"#utility.yul\":20017:20250   */\n      swap2\n      swap1\n      pop\n      jump\t// out\n        /* \"#utility.yul\":20256:20374   */\n    tag_447:\n        /* \"#utility.yul\":20343:20367   */\n      tag_661\n        /* \"#utility.yul\":20361:20366   */\n      dup2\n        /* \"#utility.yul\":20343:20367   */\n      tag_389\n      jump\t// in\n    tag_661:\n        /* \"#utility.yul\":20338:20341   */\n      dup3\n        /* \"#utility.yul\":20331:20368   */\n      mstore\n        /* \"#utility.yul\":20256:20374   */\n      pop\n      pop\n      jump\t// out\n        /* \"#utility.yul\":20380:20602   */\n    tag_131:\n        /* \"#utility.yul\":20473:20477   */\n      0x00\n        /* \"#utility.yul\":20511:20513   */\n      0x20\n        /* \"#utility.yul\":20500:20509   */\n      dup3\n        /* \"#utility.yul\":20496:20514   */\n      add\n        /* \"#utility.yul\":20488:20514   */\n      swap1\n      pop\n        /* \"#utility.yul\":20524:20595   */\n      tag_663\n        /* \"#utility.yul\":20592:20593   */\n      0x00\n        /* \"#utility.yul\":20581:20590   */\n      dup4\n        /* \"#utility.yul\":20577:20594   */\n      add\n        /* \"#utility.yul\":20568:20574   */\n      dup5\n        /* \"#utility.yul\":20524:20595   */\n      tag_447\n      jump\t// in\n    tag_663:\n        /* \"#utility.yul\":20380:20602   */\n      swap3\n      swap2\n      pop\n      pop\n      jump\t// out\n        /* \"#utility.yul\":20608:20783   */\n    tag_448:\n        /* \"#utility.yul\":20748:20775   */\n      0x596f752063616e6e6f7420766f74652070726f706f73616c7300000000000000\n        /* \"#utility.yul\":20744:20745   */\n      0x00\n        /* \"#utility.yul\":20736:20742   */\n      dup3\n        /* \"#utility.yul\":20732:20746   */\n      add\n        /* \"#utility.yul\":20725:20776   */\n      mstore\n        /* \"#utility.yul\":20608:20783   */\n      pop\n      jump\t// out\n        /* \"#utility.yul\":20789:21155   */\n    tag_449:\n        /* \"#utility.yul\":20931:20934   */\n      0x00\n        /* \"#utility.yul\":20952:21019   */\n      tag_666\n        /* \"#utility.yul\":21016:21018   */\n      0x19\n        /* \"#utility.yul\":21011:21014   */\n      dup4\n        /* \"#utility.yul\":20952:21019   */\n      tag_418\n      jump\t// in\n    tag_666:\n        /* \"#utility.yul\":20945:21019   */\n      swap2\n      pop\n        /* \"#utility.yul\":21028:21121   */\n      tag_667\n        /* \"#utility.yul\":21117:21120   */\n      dup3\n        /* \"#utility.yul\":21028:21121   */\n      tag_448\n      jump\t// in\n    tag_667:\n        /* \"#utility.yul\":21146:21148   */\n      0x20\n        /* \"#utility.yul\":21141:21144   */\n      dup3\n        /* \"#utility.yul\":21137:21149   */\n      add\n        /* \"#utility.yul\":21130:21149   */\n      swap1\n      pop\n        /* \"#utility.yul\":20789:21155   */\n      swap2\n      swap1\n      pop\n      jump\t// out\n        /* \"#utility.yul\":21161:21580   */\n    tag_169:\n        /* \"#utility.yul\":21327:21331   */\n      0x00\n        /* \"#utility.yul\":21365:21367   */\n      0x20\n        /* \"#utility.yul\":21354:21363   */\n      dup3\n        /* \"#utility.yul\":21350:21368   */\n      add\n        /* \"#utility.yul\":21342:21368   */\n      swap1\n      pop\n        /* \"#utility.yul\":21414:21423   */\n      dup2\n        /* \"#utility.yul\":21408:21412   */\n      dup2\n        /* \"#utility.yul\":21404:21424   */\n      sub\n        /* \"#utility.yul\":21400:21401   */\n      0x00\n        /* \"#utility.yul\":21389:21398   */\n      dup4\n        /* \"#utility.yul\":21385:21402   */\n      add\n        /* \"#utility.yul\":21378:21425   */\n      mstore\n        /* \"#utility.yul\":21442:21573   */\n      tag_669\n        /* \"#utility.yul\":21568:21572   */\n      dup2\n        /* \"#utility.yul\":21442:21573   */\n      tag_449\n      jump\t// in\n    tag_669:\n        /* \"#utility.yul\":21434:21573   */\n      swap1\n      pop\n        /* \"#utility.yul\":21161:21580   */\n      swap2\n      swap1\n      pop\n      jump\t// out\n        /* \"#utility.yul\":21586:21768   */\n    tag_450:\n        /* \"#utility.yul\":21726:21760   */\n      0x596f7520616c7265616479207573656420616c6c20796f757220766f74657321\n        /* \"#utility.yul\":21722:21723   */\n      0x00\n        /* \"#utility.yul\":21714:21720   */\n      dup3\n        /* \"#utility.yul\":21710:21724   */\n      add\n        /* \"#utility.yul\":21703:21761   */\n      mstore\n        /* \"#utility.yul\":21586:21768   */\n      pop\n      jump\t// out\n        /* \"#utility.yul\":21774:22140   */\n    tag_451:\n        /* \"#utility.yul\":21916:21919   */\n      0x00\n        /* \"#utility.yul\":21937:22004   */\n      tag_672\n        /* \"#utility.yul\":22001:22003   */\n      0x20\n        /* \"#utility.yul\":21996:21999   */\n      dup4\n        /* \"#utility.yul\":21937:22004   */\n      tag_418\n      jump\t// in\n    tag_672:\n        /* \"#utility.yul\":21930:22004   */\n      swap2\n      pop\n        /* \"#utility.yul\":22013:22106   */\n      tag_673\n        /* \"#utility.yul\":22102:22105   */\n      dup3\n        /* \"#utility.yul\":22013:22106   */\n      tag_450\n      jump\t// in\n    tag_673:\n        /* \"#utility.yul\":22131:22133   */\n      0x20\n        /* \"#utility.yul\":22126:22129   */\n      dup3\n        /* \"#utility.yul\":22122:22134   */\n      add\n        /* \"#utility.yul\":22115:22134   */\n      swap1\n      pop\n        /* \"#utility.yul\":21774:22140   */\n      swap2\n      swap1\n      pop\n      jump\t// out\n        /* \"#utility.yul\":22146:22565   */\n    tag_173:\n        /* \"#utility.yul\":22312:22316   */\n      0x00\n        /* \"#utility.yul\":22350:22352   */\n      0x20\n        /* \"#utility.yul\":22339:22348   */\n      dup3\n        /* \"#utility.yul\":22335:22353   */\n      add\n        /* \"#utility.yul\":22327:22353   */\n      swap1\n      pop\n        /* \"#utility.yul\":22399:22408   */\n      dup2\n        /* \"#utility.yul\":22393:22397   */\n      dup2\n        /* \"#utility.yul\":22389:22409   */\n      sub\n        /* \"#utility.yul\":22385:22386   */\n      0x00\n        /* \"#utility.yul\":22374:22383   */\n      dup4\n        /* \"#utility.yul\":22370:22387   */\n      add\n        /* \"#utility.yul\":22363:22410   */\n      mstore\n        /* \"#utility.yul\":22427:22558   */\n      tag_675\n        /* \"#utility.yul\":22553:22557   */\n      dup2\n        /* \"#utility.yul\":22427:22558   */\n      tag_451\n      jump\t// in\n    tag_675:\n        /* \"#utility.yul\":22419:22558   */\n      swap1\n      pop\n        /* \"#utility.yul\":22146:22565   */\n      swap2\n      swap1\n      pop\n      jump\t// out\n        /* \"#utility.yul\":22571:22807   */\n    tag_452:\n        /* \"#utility.yul\":22711:22745   */\n      0x5468652070726f706f736974696f6e20796f7527726520766f74696e6720666f\n        /* \"#utility.yul\":22707:22708   */\n      0x00\n        /* \"#utility.yul\":22699:22705   */\n      dup3\n        /* \"#utility.yul\":22695:22709   */\n      add\n        /* \"#utility.yul\":22688:22746   */\n      mstore\n        /* \"#utility.yul\":22780:22799   */\n      0x7220646f6573206e6f7420657869737421000000000000000000000000000000\n        /* \"#utility.yul\":22775:22777   */\n      0x20\n        /* \"#utility.yul\":22767:22773   */\n      dup3\n        /* \"#utility.yul\":22763:22778   */\n      add\n        /* \"#utility.yul\":22756:22800   */\n      mstore\n        /* \"#utility.yul\":22571:22807   */\n      pop\n      jump\t// out\n        /* \"#utility.yul\":22813:23179   */\n    tag_453:\n        /* \"#utility.yul\":22955:22958   */\n      0x00\n        /* \"#utility.yul\":22976:23043   */\n      tag_678\n        /* \"#utility.yul\":23040:23042   */\n      0x31\n        /* \"#utility.yul\":23035:23038   */\n      dup4\n        /* \"#utility.yul\":22976:23043   */\n      tag_418\n      jump\t// in\n    tag_678:\n        /* \"#utility.yul\":22969:23043   */\n      swap2\n      pop\n        /* \"#utility.yul\":23052:23145   */\n      tag_679\n        /* \"#utility.yul\":23141:23144   */\n      dup3\n        /* \"#utility.yul\":23052:23145   */\n      tag_452\n      jump\t// in\n    tag_679:\n        /* \"#utility.yul\":23170:23172   */\n      0x40\n        /* \"#utility.yul\":23165:23168   */\n      dup3\n        /* \"#utility.yul\":23161:23173   */\n      add\n        /* \"#utility.yul\":23154:23173   */\n      swap1\n      pop\n        /* \"#utility.yul\":22813:23179   */\n      swap2\n      swap1\n      pop\n      jump\t// out\n        /* \"#utility.yul\":23185:23604   */\n    tag_178:\n        /* \"#utility.yul\":23351:23355   */\n      0x00\n        /* \"#utility.yul\":23389:23391   */\n      0x20\n        /* \"#utility.yul\":23378:23387   */\n      dup3\n        /* \"#utility.yul\":23374:23392   */\n      add\n        /* \"#utility.yul\":23366:23392   */\n      swap1\n      pop\n        /* \"#utility.yul\":23438:23447   */\n      dup2\n        /* \"#utility.yul\":23432:23436   */\n      dup2\n        /* \"#utility.yul\":23428:23448   */\n      sub\n        /* \"#utility.yul\":23424:23425   */\n      0x00\n        /* \"#utility.yul\":23413:23422   */\n      dup4\n        /* \"#utility.yul\":23409:23426   */\n      add\n        /* \"#utility.yul\":23402:23449   */\n      mstore\n        /* \"#utility.yul\":23466:23597   */\n      tag_681\n        /* \"#utility.yul\":23592:23596   */\n      dup2\n        /* \"#utility.yul\":23466:23597   */\n      tag_453\n      jump\t// in\n    tag_681:\n        /* \"#utility.yul\":23458:23597   */\n      swap1\n      pop\n        /* \"#utility.yul\":23185:23604   */\n      swap2\n      swap1\n      pop\n      jump\t// out\n        /* \"#utility.yul\":23610:23942   */\n    tag_193:\n        /* \"#utility.yul\":23731:23735   */\n      0x00\n        /* \"#utility.yul\":23769:23771   */\n      0x40\n        /* \"#utility.yul\":23758:23767   */\n      dup3\n        /* \"#utility.yul\":23754:23772   */\n      add\n        /* \"#utility.yul\":23746:23772   */\n      swap1\n      pop\n        /* \"#utility.yul\":23782:23853   */\n      tag_683\n        /* \"#utility.yul\":23850:23851   */\n      0x00\n        /* \"#utility.yul\":23839:23848   */\n      dup4\n        /* \"#utility.yul\":23835:23852   */\n      add\n        /* \"#utility.yul\":23826:23832   */\n      dup6\n        /* \"#utility.yul\":23782:23853   */\n      tag_411\n      jump\t// in\n    tag_683:\n        /* \"#utility.yul\":23863:23935   */\n      tag_684\n        /* \"#utility.yul\":23931:23933   */\n      0x20\n        /* \"#utility.yul\":23920:23929   */\n      dup4\n        /* \"#utility.yul\":23916:23934   */\n      add\n        /* \"#utility.yul\":23907:23913   */\n      dup5\n        /* \"#utility.yul\":23863:23935   */\n      tag_447\n      jump\t// in\n    tag_684:\n        /* \"#utility.yul\":23610:23942   */\n      swap4\n      swap3\n      pop\n      pop\n      pop\n      jump\t// out\n        /* \"#utility.yul\":23948:24247   */\n    tag_454:\n        /* \"#utility.yul\":24088:24122   */\n      0x596f75206d75737420766f746520616761696e20666f72206f6e65206f662074\n        /* \"#utility.yul\":24084:24085   */\n      0x00\n        /* \"#utility.yul\":24076:24082   */\n      dup3\n        /* \"#utility.yul\":24072:24086   */\n      add\n        /* \"#utility.yul\":24065:24123   */\n      mstore\n        /* \"#utility.yul\":24157:24191   */\n      0x68652070726f706f736974696f6e73207768696368207175616c696669656420\n        /* \"#utility.yul\":24152:24154   */\n      0x20\n        /* \"#utility.yul\":24144:24150   */\n      dup3\n        /* \"#utility.yul\":24140:24155   */\n      add\n        /* \"#utility.yul\":24133:24192   */\n      mstore\n        /* \"#utility.yul\":24226:24239   */\n      0x70726576696f75736c7921000000000000000000000000000000000000000000\n        /* \"#utility.yul\":24221:24223   */\n      0x40\n        /* \"#utility.yul\":24213:24219   */\n      dup3\n        /* \"#utility.yul\":24209:24224   */\n      add\n        /* \"#utility.yul\":24202:24240   */\n      mstore\n        /* \"#utility.yul\":23948:24247   */\n      pop\n      jump\t// out\n        /* \"#utility.yul\":24253:24619   */\n    tag_455:\n        /* \"#utility.yul\":24395:24398   */\n      0x00\n        /* \"#utility.yul\":24416:24483   */\n      tag_687\n        /* \"#utility.yul\":24480:24482   */\n      0x4b\n        /* \"#utility.yul\":24475:24478   */\n      dup4\n        /* \"#utility.yul\":24416:24483   */\n      tag_418\n      jump\t// in\n    tag_687:\n        /* \"#utility.yul\":24409:24483   */\n      swap2\n      pop\n        /* \"#utility.yul\":24492:24585   */\n      tag_688\n        /* \"#utility.yul\":24581:24584   */\n      dup3\n        /* \"#utility.yul\":24492:24585   */\n      tag_454\n      jump\t// in\n    tag_688:\n        /* \"#utility.yul\":24610:24612   */\n      0x60\n        /* \"#utility.yul\":24605:24608   */\n      dup3\n        /* \"#utility.yul\":24601:24613   */\n      add\n        /* \"#utility.yul\":24594:24613   */\n      swap1\n      pop\n        /* \"#utility.yul\":24253:24619   */\n      swap2\n      swap1\n      pop\n      jump\t// out\n        /* \"#utility.yul\":24625:25044   */\n    tag_224:\n        /* \"#utility.yul\":24791:24795   */\n      0x00\n        /* \"#utility.yul\":24829:24831   */\n      0x20\n        /* \"#utility.yul\":24818:24827   */\n      dup3\n        /* \"#utility.yul\":24814:24832   */\n      add\n        /* \"#utility.yul\":24806:24832   */\n      swap1\n      pop\n        /* \"#utility.yul\":24878:24887   */\n      dup2\n        /* \"#utility.yul\":24872:24876   */\n      dup2\n        /* \"#utility.yul\":24868:24888   */\n      sub\n        /* \"#utility.yul\":24864:24865   */\n      0x00\n        /* \"#utility.yul\":24853:24862   */\n      dup4\n        /* \"#utility.yul\":24849:24866   */\n      add\n        /* \"#utility.yul\":24842:24889   */\n      mstore\n        /* \"#utility.yul\":24906:25037   */\n      tag_690\n        /* \"#utility.yul\":25032:25036   */\n      dup2\n        /* \"#utility.yul\":24906:25037   */\n      tag_455\n      jump\t// in\n    tag_690:\n        /* \"#utility.yul\":24898:25037   */\n      swap1\n      pop\n        /* \"#utility.yul\":24625:25044   */\n      swap2\n      swap1\n      pop\n      jump\t// out\n        /* \"#utility.yul\":25050:25226   */\n    tag_456:\n        /* \"#utility.yul\":25190:25218   */\n      0x596f752063616e6e6f7420726567697374657220766f74657273000000000000\n        /* \"#utility.yul\":25186:25187   */\n      0x00\n        /* \"#utility.yul\":25178:25184   */\n      dup3\n        /* \"#utility.yul\":25174:25188   */\n      add\n        /* \"#utility.yul\":25167:25219   */\n      mstore\n        /* \"#utility.yul\":25050:25226   */\n      pop\n      jump\t// out\n        /* \"#utility.yul\":25232:25598   */\n    tag_457:\n        /* \"#utility.yul\":25374:25377   */\n      0x00\n        /* \"#utility.yul\":25395:25462   */\n      tag_693\n        /* \"#utility.yul\":25459:25461   */\n      0x1a\n        /* \"#utility.yul\":25454:25457   */\n      dup4\n        /* \"#utility.yul\":25395:25462   */\n      tag_418\n      jump\t// in\n    tag_693:\n        /* \"#utility.yul\":25388:25462   */\n      swap2\n      pop\n        /* \"#utility.yul\":25471:25564   */\n      tag_694\n        /* \"#utility.yul\":25560:25563   */\n      dup3\n        /* \"#utility.yul\":25471:25564   */\n      tag_456\n      jump\t// in\n    tag_694:\n        /* \"#utility.yul\":25589:25591   */\n      0x20\n        /* \"#utility.yul\":25584:25587   */\n      dup3\n        /* \"#utility.yul\":25580:25592   */\n      add\n        /* \"#utility.yul\":25573:25592   */\n      swap1\n      pop\n        /* \"#utility.yul\":25232:25598   */\n      swap2\n      swap1\n      pop\n      jump\t// out\n        /* \"#utility.yul\":25604:26023   */\n    tag_243:\n        /* \"#utility.yul\":25770:25774   */\n      0x00\n        /* \"#utility.yul\":25808:25810   */\n      0x20\n        /* \"#utility.yul\":25797:25806   */\n      dup3\n        /* \"#utility.yul\":25793:25811   */\n      add\n        /* \"#utility.yul\":25785:25811   */\n      swap1\n      pop\n        /* \"#utility.yul\":25857:25866   */\n      dup2\n        /* \"#utility.yul\":25851:25855   */\n      dup2\n        /* \"#utility.yul\":25847:25867   */\n      sub\n        /* \"#utility.yul\":25843:25844   */\n      0x00\n        /* \"#utility.yul\":25832:25841   */\n      dup4\n        /* \"#utility.yul\":25828:25845   */\n      add\n        /* \"#utility.yul\":25821:25868   */\n      mstore\n        /* \"#utility.yul\":25885:26016   */\n      tag_696\n        /* \"#utility.yul\":26011:26015   */\n      dup2\n        /* \"#utility.yul\":25885:26016   */\n      tag_457\n      jump\t// in\n    tag_696:\n        /* \"#utility.yul\":25877:26016   */\n      swap1\n      pop\n        /* \"#utility.yul\":25604:26023   */\n      swap2\n      swap1\n      pop\n      jump\t// out\n        /* \"#utility.yul\":26029:26197   */\n    tag_458:\n        /* \"#utility.yul\":26169:26189   */\n      0x4f776e65722063616e6e6f7420766f7465210000000000000000000000000000\n        /* \"#utility.yul\":26165:26166   */\n      0x00\n        /* \"#utility.yul\":26157:26163   */\n      dup3\n        /* \"#utility.yul\":26153:26167   */\n      add\n        /* \"#utility.yul\":26146:26190   */\n      mstore\n        /* \"#utility.yul\":26029:26197   */\n      pop\n      jump\t// out\n        /* \"#utility.yul\":26203:26569   */\n    tag_459:\n        /* \"#utility.yul\":26345:26348   */\n      0x00\n        /* \"#utility.yul\":26366:26433   */\n      tag_699\n        /* \"#utility.yul\":26430:26432   */\n      0x12\n        /* \"#utility.yul\":26425:26428   */\n      dup4\n        /* \"#utility.yul\":26366:26433   */\n      tag_418\n      jump\t// in\n    tag_699:\n        /* \"#utility.yul\":26359:26433   */\n      swap2\n      pop\n        /* \"#utility.yul\":26442:26535   */\n      tag_700\n        /* \"#utility.yul\":26531:26534   */\n      dup3\n        /* \"#utility.yul\":26442:26535   */\n      tag_458\n      jump\t// in\n    tag_700:\n        /* \"#utility.yul\":26560:26562   */\n      0x20\n        /* \"#utility.yul\":26555:26558   */\n      dup3\n        /* \"#utility.yul\":26551:26563   */\n      add\n        /* \"#utility.yul\":26544:26563   */\n      swap1\n      pop\n        /* \"#utility.yul\":26203:26569   */\n      swap2\n      swap1\n      pop\n      jump\t// out\n        /* \"#utility.yul\":26575:26994   */\n    tag_272:\n        /* \"#utility.yul\":26741:26745   */\n      0x00\n        /* \"#utility.yul\":26779:26781   */\n      0x20\n        /* \"#utility.yul\":26768:26777   */\n      dup3\n        /* \"#utility.yul\":26764:26782   */\n      add\n        /* \"#utility.yul\":26756:26782   */\n      swap1\n      pop\n        /* \"#utility.yul\":26828:26837   */\n      dup2\n        /* \"#utility.yul\":26822:26826   */\n      dup2\n        /* \"#utility.yul\":26818:26838   */\n      sub\n        /* \"#utility.yul\":26814:26815   */\n      0x00\n        /* \"#utility.yul\":26803:26812   */\n      dup4\n        /* \"#utility.yul\":26799:26816   */\n      add\n        /* \"#utility.yul\":26792:26839   */\n      mstore\n        /* \"#utility.yul\":26856:26987   */\n      tag_702\n        /* \"#utility.yul\":26982:26986   */\n      dup2\n        /* \"#utility.yul\":26856:26987   */\n      tag_459\n      jump\t// in\n    tag_702:\n        /* \"#utility.yul\":26848:26987   */\n      swap1\n      pop\n        /* \"#utility.yul\":26575:26994   */\n      swap2\n      swap1\n      pop\n      jump\t// out\n        /* \"#utility.yul\":27000:27175   */\n    tag_460:\n        /* \"#utility.yul\":27140:27167   */\n      0x566f74657220616c726561647920726567697374657265642100000000000000\n        /* \"#utility.yul\":27136:27137   */\n      0x00\n        /* \"#utility.yul\":27128:27134   */\n      dup3\n        /* \"#utility.yul\":27124:27138   */\n      add\n        /* \"#utility.yul\":27117:27168   */\n      mstore\n        /* \"#utility.yul\":27000:27175   */\n      pop\n      jump\t// out\n        /* \"#utility.yul\":27181:27547   */\n    tag_461:\n        /* \"#utility.yul\":27323:27326   */\n      0x00\n        /* \"#utility.yul\":27344:27411   */\n      tag_705\n        /* \"#utility.yul\":27408:27410   */\n      0x19\n        /* \"#utility.yul\":27403:27406   */\n      dup4\n        /* \"#utility.yul\":27344:27411   */\n      tag_418\n      jump\t// in\n    tag_705:\n        /* \"#utility.yul\":27337:27411   */\n      swap2\n      pop\n        /* \"#utility.yul\":27420:27513   */\n      tag_706\n        /* \"#utility.yul\":27509:27512   */\n      dup3\n        /* \"#utility.yul\":27420:27513   */\n      tag_460\n      jump\t// in\n    tag_706:\n        /* \"#utility.yul\":27538:27540   */\n      0x20\n        /* \"#utility.yul\":27533:27536   */\n      dup3\n        /* \"#utility.yul\":27529:27541   */\n      add\n        /* \"#utility.yul\":27522:27541   */\n      swap1\n      pop\n        /* \"#utility.yul\":27181:27547   */\n      swap2\n      swap1\n      pop\n      jump\t// out\n        /* \"#utility.yul\":27553:27972   */\n    tag_275:\n        /* \"#utility.yul\":27719:27723   */\n      0x00\n        /* \"#utility.yul\":27757:27759   */\n      0x20\n        /* \"#utility.yul\":27746:27755   */\n      dup3\n        /* \"#utility.yul\":27742:27760   */\n      add\n        /* \"#utility.yul\":27734:27760   */\n      swap1\n      pop\n        /* \"#utility.yul\":27806:27815   */\n      dup2\n        /* \"#utility.yul\":27800:27804   */\n      dup2\n        /* \"#utility.yul\":27796:27816   */\n      sub\n        /* \"#utility.yul\":27792:27793   */\n      0x00\n        /* \"#utility.yul\":27781:27790   */\n      dup4\n        /* \"#utility.yul\":27777:27794   */\n      add\n        /* \"#utility.yul\":27770:27817   */\n      mstore\n        /* \"#utility.yul\":27834:27965   */\n      tag_708\n        /* \"#utility.yul\":27960:27964   */\n      dup2\n        /* \"#utility.yul\":27834:27965   */\n      tag_461\n      jump\t// in\n    tag_708:\n        /* \"#utility.yul\":27826:27965   */\n      swap1\n      pop\n        /* \"#utility.yul\":27553:27972   */\n      swap2\n      swap1\n      pop\n      jump\t// out\n        /* \"#utility.yul\":27978:28216   */\n    tag_462:\n        /* \"#utility.yul\":28118:28152   */\n      0x41206d696e696d756d206e756d626572206f6620766f74657273206172652072\n        /* \"#utility.yul\":28114:28115   */\n      0x00\n        /* \"#utility.yul\":28106:28112   */\n      dup3\n        /* \"#utility.yul\":28102:28116   */\n      add\n        /* \"#utility.yul\":28095:28153   */\n      mstore\n        /* \"#utility.yul\":28187:28208   */\n      0x6571756972656420746f20636f6e74696e756500000000000000000000000000\n        /* \"#utility.yul\":28182:28184   */\n      0x20\n        /* \"#utility.yul\":28174:28180   */\n      dup3\n        /* \"#utility.yul\":28170:28185   */\n      add\n        /* \"#utility.yul\":28163:28209   */\n      mstore\n        /* \"#utility.yul\":27978:28216   */\n      pop\n      jump\t// out\n        /* \"#utility.yul\":28222:28588   */\n    tag_463:\n        /* \"#utility.yul\":28364:28367   */\n      0x00\n        /* \"#utility.yul\":28385:28452   */\n      tag_711\n        /* \"#utility.yul\":28449:28451   */\n      0x33\n        /* \"#utility.yul\":28444:28447   */\n      dup4\n        /* \"#utility.yul\":28385:28452   */\n      tag_418\n      jump\t// in\n    tag_711:\n        /* \"#utility.yul\":28378:28452   */\n      swap2\n      pop\n        /* \"#utility.yul\":28461:28554   */\n      tag_712\n        /* \"#utility.yul\":28550:28553   */\n      dup3\n        /* \"#utility.yul\":28461:28554   */\n      tag_462\n      jump\t// in\n    tag_712:\n        /* \"#utility.yul\":28579:28581   */\n      0x40\n        /* \"#utility.yul\":28574:28577   */\n      dup3\n        /* \"#utility.yul\":28570:28582   */\n      add\n        /* \"#utility.yul\":28563:28582   */\n      swap1\n      pop\n        /* \"#utility.yul\":28222:28588   */\n      swap2\n      swap1\n      pop\n      jump\t// out\n        /* \"#utility.yul\":28594:29013   */\n    tag_288:\n        /* \"#utility.yul\":28760:28764   */\n      0x00\n        /* \"#utility.yul\":28798:28800   */\n      0x20\n        /* \"#utility.yul\":28787:28796   */\n      dup3\n        /* \"#utility.yul\":28783:28801   */\n      add\n        /* \"#utility.yul\":28775:28801   */\n      swap1\n      pop\n        /* \"#utility.yul\":28847:28856   */\n      dup2\n        /* \"#utility.yul\":28841:28845   */\n      dup2\n        /* \"#utility.yul\":28837:28857   */\n      sub\n        /* \"#utility.yul\":28833:28834   */\n      0x00\n        /* \"#utility.yul\":28822:28831   */\n      dup4\n        /* \"#utility.yul\":28818:28835   */\n      add\n        /* \"#utility.yul\":28811:28858   */\n      mstore\n        /* \"#utility.yul\":28875:29006   */\n      tag_714\n        /* \"#utility.yul\":29001:29005   */\n      dup2\n        /* \"#utility.yul\":28875:29006   */\n      tag_463\n      jump\t// in\n    tag_714:\n        /* \"#utility.yul\":28867:29006   */\n      swap1\n      pop\n        /* \"#utility.yul\":28594:29013   */\n      swap2\n      swap1\n      pop\n      jump\t// out\n        /* \"#utility.yul\":29019:29263   */\n    tag_464:\n        /* \"#utility.yul\":29159:29193   */\n      0x41206d696e696d756d206e756d626572206f662070726f706f736974696f6e73\n        /* \"#utility.yul\":29155:29156   */\n      0x00\n        /* \"#utility.yul\":29147:29153   */\n      dup3\n        /* \"#utility.yul\":29143:29157   */\n      add\n        /* \"#utility.yul\":29136:29194   */\n      mstore\n        /* \"#utility.yul\":29228:29255   */\n      0x2061726520726571756972656420746f20636f6e74696e756500000000000000\n        /* \"#utility.yul\":29223:29225   */\n      0x20\n        /* \"#utility.yul\":29215:29221   */\n      dup3\n        /* \"#utility.yul\":29211:29226   */\n      add\n        /* \"#utility.yul\":29204:29256   */\n      mstore\n        /* \"#utility.yul\":29019:29263   */\n      pop\n      jump\t// out\n        /* \"#utility.yul\":29269:29635   */\n    tag_465:\n        /* \"#utility.yul\":29411:29414   */\n      0x00\n        /* \"#utility.yul\":29432:29499   */\n      tag_717\n        /* \"#utility.yul\":29496:29498   */\n      0x39\n        /* \"#utility.yul\":29491:29494   */\n      dup4\n        /* \"#utility.yul\":29432:29499   */\n      tag_418\n      jump\t// in\n    tag_717:\n        /* \"#utility.yul\":29425:29499   */\n      swap2\n      pop\n        /* \"#utility.yul\":29508:29601   */\n      tag_718\n        /* \"#utility.yul\":29597:29600   */\n      dup3\n        /* \"#utility.yul\":29508:29601   */\n      tag_464\n      jump\t// in\n    tag_718:\n        /* \"#utility.yul\":29626:29628   */\n      0x40\n        /* \"#utility.yul\":29621:29624   */\n      dup3\n        /* \"#utility.yul\":29617:29629   */\n      add\n        /* \"#utility.yul\":29610:29629   */\n      swap1\n      pop\n        /* \"#utility.yul\":29269:29635   */\n      swap2\n      swap1\n      pop\n      jump\t// out\n        /* \"#utility.yul\":29641:30060   */\n    tag_297:\n        /* \"#utility.yul\":29807:29811   */\n      0x00\n        /* \"#utility.yul\":29845:29847   */\n      0x20\n        /* \"#utility.yul\":29834:29843   */\n      dup3\n        /* \"#utility.yul\":29830:29848   */\n      add\n        /* \"#utility.yul\":29822:29848   */\n      swap1\n      pop\n        /* \"#utility.yul\":29894:29903   */\n      dup2\n        /* \"#utility.yul\":29888:29892   */\n      dup2\n        /* \"#utility.yul\":29884:29904   */\n      sub\n        /* \"#utility.yul\":29880:29881   */\n      0x00\n        /* \"#utility.yul\":29869:29878   */\n      dup4\n        /* \"#utility.yul\":29865:29882   */\n      add\n        /* \"#utility.yul\":29858:29905   */\n      mstore\n        /* \"#utility.yul\":29922:30053   */\n      tag_720\n        /* \"#utility.yul\":30048:30052   */\n      dup2\n        /* \"#utility.yul\":29922:30053   */\n      tag_465\n      jump\t// in\n    tag_720:\n        /* \"#utility.yul\":29914:30053   */\n      swap1\n      pop\n        /* \"#utility.yul\":29641:30060   */\n      swap2\n      swap1\n      pop\n      jump\t// out\n        /* \"#utility.yul\":30066:30303   */\n    tag_466:\n        /* \"#utility.yul\":30206:30240   */\n      0x41206d696e696d756d206e756d626572206f6620766f74657320617265207265\n        /* \"#utility.yul\":30202:30203   */\n      0x00\n        /* \"#utility.yul\":30194:30200   */\n      dup3\n        /* \"#utility.yul\":30190:30204   */\n      add\n        /* \"#utility.yul\":30183:30241   */\n      mstore\n        /* \"#utility.yul\":30275:30295   */\n      0x71756972656420746f20636f6e74696e75650000000000000000000000000000\n        /* \"#utility.yul\":30270:30272   */\n      0x20\n        /* \"#utility.yul\":30262:30268   */\n      dup3\n        /* \"#utility.yul\":30258:30273   */\n      add\n        /* \"#utility.yul\":30251:30296   */\n      mstore\n        /* \"#utility.yul\":30066:30303   */\n      pop\n      jump\t// out\n        /* \"#utility.yul\":30309:30675   */\n    tag_467:\n        /* \"#utility.yul\":30451:30454   */\n      0x00\n        /* \"#utility.yul\":30472:30539   */\n      tag_723\n        /* \"#utility.yul\":30536:30538   */\n      0x32\n        /* \"#utility.yul\":30531:30534   */\n      dup4\n        /* \"#utility.yul\":30472:30539   */\n      tag_418\n      jump\t// in\n    tag_723:\n        /* \"#utility.yul\":30465:30539   */\n      swap2\n      pop\n        /* \"#utility.yul\":30548:30641   */\n      tag_724\n        /* \"#utility.yul\":30637:30640   */\n      dup3\n        /* \"#utility.yul\":30548:30641   */\n      tag_466\n      jump\t// in\n    tag_724:\n        /* \"#utility.yul\":30666:30668   */\n      0x40\n        /* \"#utility.yul\":30661:30664   */\n      dup3\n        /* \"#utility.yul\":30657:30669   */\n      add\n        /* \"#utility.yul\":30650:30669   */\n      swap1\n      pop\n        /* \"#utility.yul\":30309:30675   */\n      swap2\n      swap1\n      pop\n      jump\t// out\n        /* \"#utility.yul\":30681:31100   */\n    tag_306:\n        /* \"#utility.yul\":30847:30851   */\n      0x00\n        /* \"#utility.yul\":30885:30887   */\n      0x20\n        /* \"#utility.yul\":30874:30883   */\n      dup3\n        /* \"#utility.yul\":30870:30888   */\n      add\n        /* \"#utility.yul\":30862:30888   */\n      swap1\n      pop\n        /* \"#utility.yul\":30934:30943   */\n      dup2\n        /* \"#utility.yul\":30928:30932   */\n      dup2\n        /* \"#utility.yul\":30924:30944   */\n      sub\n        /* \"#utility.yul\":30920:30921   */\n      0x00\n        /* \"#utility.yul\":30909:30918   */\n      dup4\n        /* \"#utility.yul\":30905:30922   */\n      add\n        /* \"#utility.yul\":30898:30945   */\n      mstore\n        /* \"#utility.yul\":30962:31093   */\n      tag_726\n        /* \"#utility.yul\":31088:31092   */\n      dup2\n        /* \"#utility.yul\":30962:31093   */\n      tag_467\n      jump\t// in\n    tag_726:\n        /* \"#utility.yul\":30954:31093   */\n      swap1\n      pop\n        /* \"#utility.yul\":30681:31100   */\n      swap2\n      swap1\n      pop\n      jump\t// out\n        /* \"#utility.yul\":31106:31352   */\n    tag_468:\n        /* \"#utility.yul\":31246:31280   */\n      0x566f7465732068617665206265656e2074616c6c6965642e204974206973206f\n        /* \"#utility.yul\":31242:31243   */\n      0x00\n        /* \"#utility.yul\":31234:31240   */\n      dup3\n        /* \"#utility.yul\":31230:31244   */\n      add\n        /* \"#utility.yul\":31223:31281   */\n      mstore\n        /* \"#utility.yul\":31315:31344   */\n      0x7665722e205468657265206973206e6f206e6578742073746570210000000000\n        /* \"#utility.yul\":31310:31312   */\n      0x20\n        /* \"#utility.yul\":31302:31308   */\n      dup3\n        /* \"#utility.yul\":31298:31313   */\n      add\n        /* \"#utility.yul\":31291:31345   */\n      mstore\n        /* \"#utility.yul\":31106:31352   */\n      pop\n      jump\t// out\n        /* \"#utility.yul\":31358:31724   */\n    tag_469:\n        /* \"#utility.yul\":31500:31503   */\n      0x00\n        /* \"#utility.yul\":31521:31588   */\n      tag_729\n        /* \"#utility.yul\":31585:31587   */\n      0x3b\n        /* \"#utility.yul\":31580:31583   */\n      dup4\n        /* \"#utility.yul\":31521:31588   */\n      tag_418\n      jump\t// in\n    tag_729:\n        /* \"#utility.yul\":31514:31588   */\n      swap2\n      pop\n        /* \"#utility.yul\":31597:31690   */\n      tag_730\n        /* \"#utility.yul\":31686:31689   */\n      dup3\n        /* \"#utility.yul\":31597:31690   */\n      tag_468\n      jump\t// in\n    tag_730:\n        /* \"#utility.yul\":31715:31717   */\n      0x40\n        /* \"#utility.yul\":31710:31713   */\n      dup3\n        /* \"#utility.yul\":31706:31718   */\n      add\n        /* \"#utility.yul\":31699:31718   */\n      swap1\n      pop\n        /* \"#utility.yul\":31358:31724   */\n      swap2\n      swap1\n      pop\n      jump\t// out\n        /* \"#utility.yul\":31730:32149   */\n    tag_314:\n        /* \"#utility.yul\":31896:31900   */\n      0x00\n        /* \"#utility.yul\":31934:31936   */\n      0x20\n        /* \"#utility.yul\":31923:31932   */\n      dup3\n        /* \"#utility.yul\":31919:31937   */\n      add\n        /* \"#utility.yul\":31911:31937   */\n      swap1\n      pop\n        /* \"#utility.yul\":31983:31992   */\n      dup2\n        /* \"#utility.yul\":31977:31981   */\n      dup2\n        /* \"#utility.yul\":31973:31993   */\n      sub\n        /* \"#utility.yul\":31969:31970   */\n      0x00\n        /* \"#utility.yul\":31958:31967   */\n      dup4\n        /* \"#utility.yul\":31954:31971   */\n      add\n        /* \"#utility.yul\":31947:31994   */\n      mstore\n        /* \"#utility.yul\":32011:32142   */\n      tag_732\n        /* \"#utility.yul\":32137:32141   */\n      dup2\n        /* \"#utility.yul\":32011:32142   */\n      tag_469\n      jump\t// in\n    tag_732:\n        /* \"#utility.yul\":32003:32142   */\n      swap1\n      pop\n        /* \"#utility.yul\":31730:32149   */\n      swap2\n      swap1\n      pop\n      jump\t// out\n        /* \"#utility.yul\":32155:32346   */\n    tag_319:\n        /* \"#utility.yul\":32195:32198   */\n      0x00\n        /* \"#utility.yul\":32214:32234   */\n      tag_734\n        /* \"#utility.yul\":32232:32233   */\n      dup3\n        /* \"#utility.yul\":32214:32234   */\n      tag_389\n      jump\t// in\n    tag_734:\n        /* \"#utility.yul\":32209:32234   */\n      swap2\n      pop\n        /* \"#utility.yul\":32248:32268   */\n      tag_735\n        /* \"#utility.yul\":32266:32267   */\n      dup4\n        /* \"#utility.yul\":32248:32268   */\n      tag_389\n      jump\t// in\n    tag_735:\n        /* \"#utility.yul\":32243:32268   */\n      swap3\n      pop\n        /* \"#utility.yul\":32291:32292   */\n      dup3\n        /* \"#utility.yul\":32288:32289   */\n      dup3\n        /* \"#utility.yul\":32284:32293   */\n      add\n        /* \"#utility.yul\":32277:32293   */\n      swap1\n      pop\n        /* \"#utility.yul\":32312:32315   */\n      dup1\n        /* \"#utility.yul\":32309:32310   */\n      dup3\n        /* \"#utility.yul\":32306:32316   */\n      gt\n        /* \"#utility.yul\":32303:32339   */\n      iszero\n      tag_736\n      jumpi\n        /* \"#utility.yul\":32319:32337   */\n      tag_737\n      tag_446\n      jump\t// in\n    tag_737:\n        /* \"#utility.yul\":32303:32339   */\n    tag_736:\n        /* \"#utility.yul\":32155:32346   */\n      swap3\n      swap2\n      pop\n      pop\n      jump\t// out\n        /* \"#utility.yul\":32352:32748   */\n    tag_325:\n        /* \"#utility.yul\":32505:32509   */\n      0x00\n        /* \"#utility.yul\":32543:32545   */\n      0x40\n        /* \"#utility.yul\":32532:32541   */\n      dup3\n        /* \"#utility.yul\":32528:32546   */\n      add\n        /* \"#utility.yul\":32520:32546   */\n      swap1\n      pop\n        /* \"#utility.yul\":32556:32643   */\n      tag_739\n        /* \"#utility.yul\":32640:32641   */\n      0x00\n        /* \"#utility.yul\":32629:32638   */\n      dup4\n        /* \"#utility.yul\":32625:32642   */\n      add\n        /* \"#utility.yul\":32616:32622   */\n      dup6\n        /* \"#utility.yul\":32556:32643   */\n      tag_417\n      jump\t// in\n    tag_739:\n        /* \"#utility.yul\":32653:32741   */\n      tag_740\n        /* \"#utility.yul\":32737:32739   */\n      0x20\n        /* \"#utility.yul\":32726:32735   */\n      dup4\n        /* \"#utility.yul\":32722:32740   */\n      add\n        /* \"#utility.yul\":32713:32719   */\n      dup5\n        /* \"#utility.yul\":32653:32741   */\n      tag_417\n      jump\t// in\n    tag_740:\n        /* \"#utility.yul\":32352:32748   */\n      swap4\n      swap3\n      pop\n      pop\n      pop\n      jump\t// out\n        /* \"#utility.yul\":32754:32934   */\n    tag_349:\n        /* \"#utility.yul\":32802:32879   */\n      0x4e487b7100000000000000000000000000000000000000000000000000000000\n        /* \"#utility.yul\":32799:32800   */\n      0x00\n        /* \"#utility.yul\":32792:32880   */\n      mstore\n        /* \"#utility.yul\":32899:32903   */\n      0x31\n        /* \"#utility.yul\":32896:32897   */\n      0x04\n        /* \"#utility.yul\":32889:32904   */\n      mstore\n        /* \"#utility.yul\":32923:32927   */\n      0x24\n        /* \"#utility.yul\":32920:32921   */\n      0x00\n        /* \"#utility.yul\":32913:32928   */\n      revert\n        /* \"#utility.yul\":32940:33089   */\n    tag_470:\n        /* \"#utility.yul\":32989:32995   */\n      0x00\n        /* \"#utility.yul\":33023:33028   */\n      dup2\n        /* \"#utility.yul\":33017:33029   */\n      sload\n        /* \"#utility.yul\":33007:33029   */\n      swap1\n      pop\n        /* \"#utility.yul\":33049:33082   */\n      tag_743\n        /* \"#utility.yul\":33075:33081   */\n      dup2\n        /* \"#utility.yul\":33049:33082   */\n      tag_107\n      jump\t// in\n    tag_743:\n        /* \"#utility.yul\":33039:33082   */\n      swap1\n      pop\n        /* \"#utility.yul\":32940:33089   */\n      swap2\n      swap1\n      pop\n      jump\t// out\n        /* \"#utility.yul\":33095:34546   */\n    tag_369:\n        /* \"#utility.yul\":33206:33209   */\n      dup2\n        /* \"#utility.yul\":33200:33204   */\n      dup2\n        /* \"#utility.yul\":33197:33210   */\n      sub\n        /* \"#utility.yul\":33194:33220   */\n      tag_745\n      jumpi\n        /* \"#utility.yul\":33213:33218   */\n      pop\n      pop\n      jump(tag_744)\n        /* \"#utility.yul\":33194:33220   */\n    tag_745:\n        /* \"#utility.yul\":33244:33278   */\n      tag_746\n        /* \"#utility.yul\":33274:33277   */\n      dup3\n        /* \"#utility.yul\":33244:33278   */\n      tag_470\n      jump\t// in\n    tag_746:\n        /* \"#utility.yul\":33343:33361   */\n      0xffffffffffffffff\n        /* \"#utility.yul\":33335:33341   */\n      dup2\n        /* \"#utility.yul\":33332:33362   */\n      gt\n        /* \"#utility.yul\":33329:33385   */\n      iszero\n      tag_747\n      jumpi\n        /* \"#utility.yul\":33365:33383   */\n      tag_748\n      tag_430\n      jump\t// in\n    tag_748:\n        /* \"#utility.yul\":33329:33385   */\n    tag_747:\n        /* \"#utility.yul\":33409:33447   */\n      tag_749\n        /* \"#utility.yul\":33441:33445   */\n      dup3\n        /* \"#utility.yul\":33435:33446   */\n      sload\n        /* \"#utility.yul\":33409:33447   */\n      tag_107\n      jump\t// in\n    tag_749:\n        /* \"#utility.yul\":33494:33561   */\n      tag_750\n        /* \"#utility.yul\":33554:33560   */\n      dup3\n        /* \"#utility.yul\":33546:33552   */\n      dup3\n        /* \"#utility.yul\":33540:33544   */\n      dup6\n        /* \"#utility.yul\":33494:33561   */\n      tag_442\n      jump\t// in\n    tag_750:\n        /* \"#utility.yul\":33588:33589   */\n      0x00\n        /* \"#utility.yul\":33617:33619   */\n      0x1f\n        /* \"#utility.yul\":33609:33615   */\n      dup4\n        /* \"#utility.yul\":33606:33620   */\n      gt\n        /* \"#utility.yul\":33634:33635   */\n      0x01\n        /* \"#utility.yul\":33629:34301   */\n      dup2\n      eq\n      tag_752\n      jumpi\n        /* \"#utility.yul\":34345:34346   */\n      0x00\n        /* \"#utility.yul\":34362:34368   */\n      dup5\n        /* \"#utility.yul\":34359:34436   */\n      iszero\n      tag_753\n      jumpi\n        /* \"#utility.yul\":34411:34420   */\n      dup3\n        /* \"#utility.yul\":34406:34409   */\n      dup8\n        /* \"#utility.yul\":34402:34421   */\n      add\n        /* \"#utility.yul\":34396:34422   */\n      sload\n        /* \"#utility.yul\":34387:34422   */\n      swap1\n      pop\n        /* \"#utility.yul\":34359:34436   */\n    tag_753:\n        /* \"#utility.yul\":34462:34529   */\n      tag_754\n        /* \"#utility.yul\":34522:34528   */\n      dup6\n        /* \"#utility.yul\":34515:34520   */\n      dup3\n        /* \"#utility.yul\":34462:34529   */\n      tag_445\n      jump\t// in\n    tag_754:\n        /* \"#utility.yul\":34456:34460   */\n      dup7\n        /* \"#utility.yul\":34449:34530   */\n      sstore\n        /* \"#utility.yul\":34318:34540   */\n      pop\n        /* \"#utility.yul\":33599:34540   */\n      jump(tag_751)\n        /* \"#utility.yul\":33629:34301   */\n    tag_752:\n        /* \"#utility.yul\":33681:33685   */\n      0x1f\n        /* \"#utility.yul\":33677:33686   */\n      not\n        /* \"#utility.yul\":33669:33675   */\n      dup5\n        /* \"#utility.yul\":33665:33687   */\n      and\n        /* \"#utility.yul\":33707:33743   */\n      tag_755\n        /* \"#utility.yul\":33739:33742   */\n      dup8\n        /* \"#utility.yul\":33707:33743   */\n      tag_431\n      jump\t// in\n    tag_755:\n        /* \"#utility.yul\":33700:33743   */\n      swap7\n      pop\n        /* \"#utility.yul\":33770:33807   */\n      tag_756\n        /* \"#utility.yul\":33802:33806   */\n      dup7\n        /* \"#utility.yul\":33770:33807   */\n      tag_431\n      jump\t// in\n    tag_756:\n        /* \"#utility.yul\":33829:33830   */\n      0x00\n        /* \"#utility.yul\":33843:34050   */\n    tag_757:\n        /* \"#utility.yul\":33857:33864   */\n      dup3\n        /* \"#utility.yul\":33854:33855   */\n      dup2\n        /* \"#utility.yul\":33851:33865   */\n      lt\n        /* \"#utility.yul\":33843:34050   */\n      iszero\n      tag_759\n      jumpi\n        /* \"#utility.yul\":33936:33945   */\n      dup5\n        /* \"#utility.yul\":33931:33934   */\n      dup10\n        /* \"#utility.yul\":33927:33946   */\n      add\n        /* \"#utility.yul\":33921:33947   */\n      sload\n        /* \"#utility.yul\":33913:33919   */\n      dup3\n        /* \"#utility.yul\":33906:33948   */\n      sstore\n        /* \"#utility.yul\":33987:33988   */\n      0x01\n        /* \"#utility.yul\":33979:33985   */\n      dup3\n        /* \"#utility.yul\":33975:33989   */\n      add\n        /* \"#utility.yul\":33965:33989   */\n      swap2\n      pop\n        /* \"#utility.yul\":34034:34035   */\n      0x01\n        /* \"#utility.yul\":34023:34032   */\n      dup6\n        /* \"#utility.yul\":34019:34036   */\n      add\n        /* \"#utility.yul\":34006:34036   */\n      swap5\n      pop\n        /* \"#utility.yul\":33880:33884   */\n      0x20\n        /* \"#utility.yul\":33877:33878   */\n      dup2\n        /* \"#utility.yul\":33873:33885   */\n      add\n        /* \"#utility.yul\":33868:33885   */\n      swap1\n      pop\n        /* \"#utility.yul\":33843:34050   */\n      jump(tag_757)\n    tag_759:\n        /* \"#utility.yul\":34078:34084   */\n      dup7\n        /* \"#utility.yul\":34069:34076   */\n      dup4\n        /* \"#utility.yul\":34066:34085   */\n      lt\n        /* \"#utility.yul\":34063:34242   */\n      iszero\n      tag_760\n      jumpi\n        /* \"#utility.yul\":34136:34145   */\n      dup5\n        /* \"#utility.yul\":34131:34134   */\n      dup10\n        /* \"#utility.yul\":34127:34146   */\n      add\n        /* \"#utility.yul\":34121:34147   */\n      sload\n        /* \"#utility.yul\":34179:34227   */\n      tag_761\n        /* \"#utility.yul\":34221:34225   */\n      0x1f\n        /* \"#utility.yul\":34213:34219   */\n      dup10\n        /* \"#utility.yul\":34209:34226   */\n      and\n        /* \"#utility.yul\":34198:34207   */\n      dup3\n        /* \"#utility.yul\":34179:34227   */\n      tag_444\n      jump\t// in\n    tag_761:\n        /* \"#utility.yul\":34171:34177   */\n      dup4\n        /* \"#utility.yul\":34164:34228   */\n      sstore\n        /* \"#utility.yul\":34086:34242   */\n      pop\n        /* \"#utility.yul\":34063:34242   */\n    tag_760:\n        /* \"#utility.yul\":34288:34289   */\n      0x01\n        /* \"#utility.yul\":34284:34285   */\n      0x02\n        /* \"#utility.yul\":34276:34282   */\n      dup9\n        /* \"#utility.yul\":34272:34286   */\n      mul\n        /* \"#utility.yul\":34268:34290   */\n      add\n        /* \"#utility.yul\":34262:34266   */\n      dup9\n        /* \"#utility.yul\":34255:34291   */\n      sstore\n        /* \"#utility.yul\":33636:34301   */\n      pop\n      pop\n      pop\n        /* \"#utility.yul\":33599:34540   */\n    tag_751:\n      pop\n        /* \"#utility.yul\":33184:34546   */\n      pop\n      pop\n      pop\n        /* \"#utility.yul\":33095:34546   */\n      pop\n      pop\n    tag_744:\n      jump\t// out\n\n    auxdata: 0xa2646970667358221220ffb64be4e2acbd6a6745856577bbb68d9a2b4d0988f48365ee56d3af2738a84764736f6c63430008170033\n}\n",
				"bytecode": {
					"linkReferences": {},
					"object": "60806040525f6004555f6005555f6007553480156200001c575f80fd5b50335f73ffffffffffffffffffffffffffffffffffffffff168173ffffffffffffffffffffffffffffffffffffffff160362000091575f6040517f1e4fbdf7000000000000000000000000000000000000000000000000000000008152600401620000889190620001d9565b60405180910390fd5b620000a281620000d560201b60201c565b505f60085f6101000a81548160ff02191690836003811115620000ca57620000c9620001f4565b5b021790555062000221565b5f805f9054906101000a900473ffffffffffffffffffffffffffffffffffffffff169050815f806101000a81548173ffffffffffffffffffffffffffffffffffffffff021916908373ffffffffffffffffffffffffffffffffffffffff1602179055508173ffffffffffffffffffffffffffffffffffffffff168173ffffffffffffffffffffffffffffffffffffffff167f8be0079c531659141344cd1fd0a4f28419497f9722a3daafe3b4186f6b6457e060405160405180910390a35050565b5f73ffffffffffffffffffffffffffffffffffffffff82169050919050565b5f620001c18262000196565b9050919050565b620001d381620001b5565b82525050565b5f602082019050620001ee5f830184620001c8565b92915050565b7f4e487b71000000000000000000000000000000000000000000000000000000005f52602160045260245ffd5b613047806200022f5f395ff3fe608060405234801561000f575f80fd5b50600436106100cd575f3560e01c80638da5cb5b1161008a578063e77aa68211610064578063e77aa6821461019d578063f2fde38b146101bb578063f4ab9adf146101d7578063fd20255c146101f3576100cd565b80638da5cb5b146101455780638e7ea5b214610163578063b31e1d4d14610181576100cd565b80631d533571146100d157806326c7eb1c146100db5780632fdae3c5146100f95780636334ef6614610115578063715018a61461011f578063746536b514610129575b5f80fd5b6100d96101fd565b005b6100e3610480565b6040516100f09190612016565b60405180910390f35b610113600480360381019061010e919061209f565b6105c6565b005b61011d6107cf565b005b61012761096c565b005b610143600480360381019061013e9190612114565b61097f565b005b61014d610d23565b60405161015a919061217e565b60405180910390f35b61016b610d4a565b6040516101789190612016565b60405180910390f35b61019b600480360381019061019691906121c1565b6110c9565b005b6101a5611290565b6040516101b2919061225f565b60405180910390f35b6101d560048036038101906101d091906121c1565b6112a5565b005b6101f160048036038101906101ec91906121c1565b611329565b005b6101fb6114ee565b005b6102056117b5565b600380811115610218576102176121ec565b5b60085f9054906101000a900460ff166003811115610239576102386121ec565b5b14610279576040517f08c379a0000000000000000000000000000000000000000000000000000000008152600401610270906122f8565b60405180910390fd5b60018080549050116102c0576040517f08c379a00000000000000000000000000000000000000000000000000000000081526004016102b7906123ac565b60405180910390fd5b60018054905060078190555060065f6102d99190611d09565b600160069080546102eb929190611d2a565b505f5b600680549050811015610330575f600682815481106103105761030f6123ca565b5b905f5260205f2090600302016002018190555080806001019150506102ee565b505f5b600380549050811015610453575f60025f60038481548110610358576103576123ca565b5b905f5260205f20015f9054906101000a900473ffffffffffffffffffffffffffffffffffffffff1673ffffffffffffffffffffffffffffffffffffffff1673ffffffffffffffffffffffffffffffffffffffff1681526020019081526020015f206001018190555060025f600383815481106103d7576103d66123ca565b5b905f5260205f20015f9054906101000a900473ffffffffffffffffffffffffffffffffffffffff1673ffffffffffffffffffffffffffffffffffffffff1673ffffffffffffffffffffffffffffffffffffffff1681526020019081526020015f206003015f6104469190611da5565b8080600101915050610333565b50600260085f6101000a81548160ff02191690836003811115610479576104786121ec565b5b0217905550565b60605f600680549050116104c9576040517f08c379a00000000000000000000000000000000000000000000000000000000081526004016104c090612467565b60405180910390fd5b6006805480602002602001604051908101604052809291908181526020015f905b828210156105bd578382905f5260205f2090600302016040518060600160405290815f8201548152602001600182018054610524906124b2565b80601f0160208091040260200160405190810160405280929190818152602001828054610550906124b2565b801561059b5780601f106105725761010080835404028352916020019161059b565b820191905f5260205f20905b81548152906001019060200180831161057e57829003601f168201915b50505050508152602001600282015481525050815260200190600101906104ea565b50505050905090565b6001151560025f3373ffffffffffffffffffffffffffffffffffffffff1673ffffffffffffffffffffffffffffffffffffffff1681526020019081526020015f205f015f9054906101000a900460ff16151514610658576040517f08c379a000000000000000000000000000000000000000000000000000000000815260040161064f9061252c565b60405180910390fd5b6001600381111561066c5761066b6121ec565b5b60085f9054906101000a900460ff16600381111561068d5761068c6121ec565b5b146106cd576040517f08c379a00000000000000000000000000000000000000000000000000000000081526004016106c490612594565b60405180910390fd5b60066040518060600160405280600754815260200184848080601f0160208091040260200160405190810160405280939291908181526020018383808284375f81840152601f19601f8201169050808301925050505050505081526020015f815250908060018154018082558091505060019003905f5260205f2090600302015f909190919091505f820151815f01556020820151816001019081610772919061277c565b506040820151816002015550507f92e393e9b54e2f801d3ea4beb0c5e71a21cc34a5d34b77d0fb8a3aa1650dc18f60075f8154809291906107b290612878565b919050556040516107c391906128ce565b60405180910390a15050565b6003808111156107e2576107e16121ec565b5b60085f9054906101000a900460ff166003811115610803576108026121ec565b5b14610843576040517f08c379a000000000000000000000000000000000000000000000000000000000815260040161083a906122f8565b60405180910390fd5b61084b6117b5565b5f60085f6101000a81548160ff0219169083600381111561086f5761086e6121ec565b5b02179055505f60078190555060065f6108889190611d09565b5f6004819055505f6005819055505f5b60038054905081101561095c5760025f600383815481106108bc576108bb6123ca565b5b905f5260205f20015f9054906101000a900473ffffffffffffffffffffffffffffffffffffffff1673ffffffffffffffffffffffffffffffffffffffff1673ffffffffffffffffffffffffffffffffffffffff1681526020019081526020015f205f8082015f6101000a81549060ff0219169055600182015f9055600282015f9055600382015f61094d9190611da5565b50508080600101915050610898565b5060035f61096a9190611dc3565b565b6109746117b5565b61097d5f61183c565b565b6001151560025f3373ffffffffffffffffffffffffffffffffffffffff1673ffffffffffffffffffffffffffffffffffffffff1681526020019081526020015f205f015f9054906101000a900460ff16151514610a11576040517f08c379a0000000000000000000000000000000000000000000000000000000008152600401610a089061252c565b60405180910390fd5b60026003811115610a2557610a246121ec565b5b60085f9054906101000a900460ff166003811115610a4657610a456121ec565b5b14610a86576040517f08c379a0000000000000000000000000000000000000000000000000000000008152600401610a7d90612931565b60405180910390fd5b60025f3373ffffffffffffffffffffffffffffffffffffffff1673ffffffffffffffffffffffffffffffffffffffff1681526020019081526020015f206002015460025f3373ffffffffffffffffffffffffffffffffffffffff1673ffffffffffffffffffffffffffffffffffffffff1681526020019081526020015f206001015410610b48576040517f08c379a0000000000000000000000000000000000000000000000000000000008152600401610b3f90612999565b60405180910390fd5b5f8110158015610b5c575060068054905081105b610b9b576040517f08c379a0000000000000000000000000000000000000000000000000000000008152600401610b9290612a27565b60405180910390fd5b60068181548110610baf57610bae6123ca565b5b905f5260205f2090600302016002015f815480929190610bce90612878565b919050555060025f3373ffffffffffffffffffffffffffffffffffffffff1673ffffffffffffffffffffffffffffffffffffffff1681526020019081526020015f206001015f815480929190610c2390612878565b919050555060025f3373ffffffffffffffffffffffffffffffffffffffff1673ffffffffffffffffffffffffffffffffffffffff1681526020019081526020015f2060030160068281548110610c7c57610c7b6123ca565b5b905f5260205f2090600302015f0154908060018154018082558091505060019003905f5260205f20015f909190919091505560055f815480929190610cc090612878565b91905055507f4d99b957a2bc29a30ebd96a7be8e68fe50a3c701db28a91436490b7d53870ca43360068381548110610cfb57610cfa6123ca565b5b905f5260205f2090600302015f0154604051610d18929190612a45565b60405180910390a150565b5f805f9054906101000a900473ffffffffffffffffffffffffffffffffffffffff16905090565b6060600380811115610d5f57610d5e6121ec565b5b60085f9054906101000a900460ff166003811115610d8057610d7f6121ec565b5b14610dc0576040517f08c379a0000000000000000000000000000000000000000000000000000000008152600401610db7906122f8565b60405180910390fd5b5f805b600680549050811015610f87575f60068281548110610de557610de46123ca565b5b905f5260205f2090600302016040518060600160405290815f8201548152602001600182018054610e15906124b2565b80601f0160208091040260200160405190810160405280929190818152602001828054610e41906124b2565b8015610e8c5780601f10610e6357610100808354040283529160200191610e8c565b820191905f5260205f20905b815481529060010190602001808311610e6f57829003601f168201915b5050505050815260200160028201548152505090508281604001511115610f195760015f610eba9190611d09565b600181908060018154018082558091505060019003905f5260205f2090600302015f909190919091505f820151815f01556020820151816001019081610f00919061277c565b5060408201518160020155505080604001519250610f79565b82816040015103610f7857600181908060018154018082558091505060019003905f5260205f2090600302015f909190919091505f820151815f01556020820151816001019081610f6a919061277c565b506040820151816002015550505b5b508080600101915050610dc3565b50600180805490501115610fcb577f9152e2dccfc44aa8ab1fb145f54b5e72ae0202e28c3ce79d77c70e502c31eae2604051610fc290612b02565b60405180910390a15b6001805480602002602001604051908101604052809291908181526020015f905b828210156110bf578382905f5260205f2090600302016040518060600160405290815f8201548152602001600182018054611026906124b2565b80601f0160208091040260200160405190810160405280929190818152602001828054611052906124b2565b801561109d5780601f106110745761010080835404028352916020019161109d565b820191905f5260205f20905b81548152906001019060200180831161108057829003601f168201915b5050505050815260200160028201548152505081526020019060010190610fec565b5050505091505090565b6001151560025f3373ffffffffffffffffffffffffffffffffffffffff1673ffffffffffffffffffffffffffffffffffffffff1681526020019081526020015f205f015f9054906101000a900460ff1615151461115b576040517f08c379a00000000000000000000000000000000000000000000000000000000081526004016111529061252c565b60405180910390fd5b5f600381111561116e5761116d6121ec565b5b60085f9054906101000a900460ff16600381111561118f5761118e6121ec565b5b146111cf576040517f08c379a00000000000000000000000000000000000000000000000000000000081526004016111c690612b6a565b60405180910390fd5b60025f8273ffffffffffffffffffffffffffffffffffffffff1673ffffffffffffffffffffffffffffffffffffffff1681526020019081526020015f205f015f9054906101000a900460ff161561127a5760025f8273ffffffffffffffffffffffffffffffffffffffff1673ffffffffffffffffffffffffffffffffffffffff1681526020019081526020015f206002015f81548092919061127090612878565b9190505550611284565b611283816118fd565b5b61128d33611a02565b50565b5f60085f9054906101000a900460ff16905090565b6112ad6117b5565b5f73ffffffffffffffffffffffffffffffffffffffff168173ffffffffffffffffffffffffffffffffffffffff160361131d575f6040517f1e4fbdf7000000000000000000000000000000000000000000000000000000008152600401611314919061217e565b60405180910390fd5b6113268161183c565b50565b6113316117b5565b5f6003811115611344576113436121ec565b5b60085f9054906101000a900460ff166003811115611365576113646121ec565b5b146113a5576040517f08c379a000000000000000000000000000000000000000000000000000000000815260040161139c90612b6a565b60405180910390fd5b6113ad610d23565b73ffffffffffffffffffffffffffffffffffffffff168173ffffffffffffffffffffffffffffffffffffffff160361141a576040517f08c379a000000000000000000000000000000000000000000000000000000000815260040161141190612bd2565b60405180910390fd5b5f151560025f8373ffffffffffffffffffffffffffffffffffffffff1673ffffffffffffffffffffffffffffffffffffffff1681526020019081526020015f205f015f9054906101000a900460ff161515146114ab576040517f08c379a00000000000000000000000000000000000000000000000000000000081526004016114a290612c3a565b60405180910390fd5b6114b4816118fd565b7fb6be2187d059cc2a55fe29e0e503b566e1e0f8c8780096e185429350acffd3dd816040516114e3919061217e565b60405180910390a150565b6114f66117b5565b60035f600381111561150b5761150a6121ec565b5b60085f9054906101000a900460ff16600381111561152c5761152b6121ec565b5b0361157757806004541015611576576040517f08c379a000000000000000000000000000000000000000000000000000000000815260040161156d90612cc8565b60405180910390fd5b5b60026001600381111561158d5761158c6121ec565b5b60085f9054906101000a900460ff1660038111156115ae576115ad6121ec565b5b036115f9578060075410156115f8576040517f08c379a00000000000000000000000000000000000000000000000000000000081526004016115ef90612d56565b60405180910390fd5b5b60016002600381111561160f5761160e6121ec565b5b60085f9054906101000a900460ff1660038111156116305761162f6121ec565b5b0361167b5780600554101561167a576040517f08c379a000000000000000000000000000000000000000000000000000000000815260040161167190612de4565b60405180910390fd5b5b60038081111561168e5761168d6121ec565b5b60085f9054906101000a900460ff1660038111156116af576116ae6121ec565b5b036116ef576040517f08c379a00000000000000000000000000000000000000000000000000000000081526004016116e690612e72565b60405180910390fd5b5f60085f9054906101000a900460ff169050600160085f9054906101000a900460ff166003811115611724576117236121ec565b5b61172e9190612e90565b60038111156117405761173f6121ec565b5b60085f6101000a81548160ff02191690836003811115611763576117626121ec565b5b02179055507f0a97a4ee45751e2abf3e4fc8946939630b11b371ea8ae39ccdc3056e98f5cc3f8160085f9054906101000a900460ff166040516117a7929190612ec3565b60405180910390a150505050565b6117bd611c01565b73ffffffffffffffffffffffffffffffffffffffff166117db610d23565b73ffffffffffffffffffffffffffffffffffffffff161461183a576117fe611c01565b6040517f118cdaa7000000000000000000000000000000000000000000000000000000008152600401611831919061217e565b60405180910390fd5b565b5f805f9054906101000a900473ffffffffffffffffffffffffffffffffffffffff169050815f806101000a81548173ffffffffffffffffffffffffffffffffffffffff021916908373ffffffffffffffffffffffffffffffffffffffff1602179055508173ffffffffffffffffffffffffffffffffffffffff168173ffffffffffffffffffffffffffffffffffffffff167f8be0079c531659141344cd1fd0a4f28419497f9722a3daafe3b4186f6b6457e060405160405180910390a35050565b5f60025f8373ffffffffffffffffffffffffffffffffffffffff1673ffffffffffffffffffffffffffffffffffffffff1681526020019081526020015f2060010181905550600160025f8373ffffffffffffffffffffffffffffffffffffffff1673ffffffffffffffffffffffffffffffffffffffff1681526020019081526020015f2060020181905550600160025f8373ffffffffffffffffffffffffffffffffffffffff1673ffffffffffffffffffffffffffffffffffffffff1681526020019081526020015f205f015f6101000a81548160ff0219169083151502179055506119e881611c08565b60045f8154809291906119fa90612878565b919050555050565b5f60025f8373ffffffffffffffffffffffffffffffffffffffff1673ffffffffffffffffffffffffffffffffffffffff1681526020019081526020015f205f015f6101000a81548160ff0219169083151502179055505f60025f8373ffffffffffffffffffffffffffffffffffffffff1673ffffffffffffffffffffffffffffffffffffffff1681526020019081526020015f2060010181905550600160025f8373ffffffffffffffffffffffffffffffffffffffff1673ffffffffffffffffffffffffffffffffffffffff1681526020019081526020015f206002018190555060025f8273ffffffffffffffffffffffffffffffffffffffff1673ffffffffffffffffffffffffffffffffffffffff1681526020019081526020015f206003015f611b2e9190611da5565b5f5b600380549050811015611bfd578173ffffffffffffffffffffffffffffffffffffffff1660038281548110611b6857611b676123ca565b5b905f5260205f20015f9054906101000a900473ffffffffffffffffffffffffffffffffffffffff1673ffffffffffffffffffffffffffffffffffffffff1603611bf0576003805480611bbd57611bbc612eea565b5b600190038181905f5260205f20015f6101000a81549073ffffffffffffffffffffffffffffffffffffffff021916905590555b8080600101915050611b30565b5050565b5f33905090565b5f805b600380549050811015611c98578273ffffffffffffffffffffffffffffffffffffffff1660038281548110611c4357611c426123ca565b5b905f5260205f20015f9054906101000a900473ffffffffffffffffffffffffffffffffffffffff1673ffffffffffffffffffffffffffffffffffffffff1603611c8b57600191505b8080600101915050611c0b565b505f151581151503611d0557600382908060018154018082558091505060019003905f5260205f20015f9091909190916101000a81548173ffffffffffffffffffffffffffffffffffffffff021916908373ffffffffffffffffffffffffffffffffffffffff1602179055505b5050565b5080545f8255600302905f5260205f2090810190611d279190611de1565b50565b828054828255905f5260205f20906003028101928215611d94575f5260205f209160030282015b82811115611d935782825f820154815f015560018201816001019081611d779190612f2c565b5060028201548160020155505091600301919060030190611d51565b5b509050611da19190611de1565b5090565b5080545f8255905f5260205f2090810190611dc09190611e14565b50565b5080545f8255905f5260205f2090810190611dde9190611e14565b50565b5b80821115611e10575f8082015f9055600182015f611e009190611e2f565b600282015f905550600301611de2565b5090565b5b80821115611e2b575f815f905550600101611e15565b5090565b508054611e3b906124b2565b5f825580601f10611e4c5750611e69565b601f0160209004905f5260205f2090810190611e689190611e14565b5b50565b5f81519050919050565b5f82825260208201905092915050565b5f819050602082019050919050565b5f819050919050565b611ea781611e95565b82525050565b5f81519050919050565b5f82825260208201905092915050565b5f5b83811015611ee4578082015181840152602081019050611ec9565b5f8484015250505050565b5f601f19601f8301169050919050565b5f611f0982611ead565b611f138185611eb7565b9350611f23818560208601611ec7565b611f2c81611eef565b840191505092915050565b5f606083015f830151611f4c5f860182611e9e565b5060208301518482036020860152611f648282611eff565b9150506040830151611f796040860182611e9e565b508091505092915050565b5f611f8f8383611f37565b905092915050565b5f602082019050919050565b5f611fad82611e6c565b611fb78185611e76565b935083602082028501611fc985611e86565b805f5b858110156120045784840389528151611fe58582611f84565b9450611ff083611f97565b925060208a01995050600181019050611fcc565b50829750879550505050505092915050565b5f6020820190508181035f83015261202e8184611fa3565b905092915050565b5f80fd5b5f80fd5b5f80fd5b5f80fd5b5f80fd5b5f8083601f84011261205f5761205e61203e565b5b8235905067ffffffffffffffff81111561207c5761207b612042565b5b60208301915083600182028301111561209857612097612046565b5b9250929050565b5f80602083850312156120b5576120b4612036565b5b5f83013567ffffffffffffffff8111156120d2576120d161203a565b5b6120de8582860161204a565b92509250509250929050565b6120f381611e95565b81146120fd575f80fd5b50565b5f8135905061210e816120ea565b92915050565b5f6020828403121561212957612128612036565b5b5f61213684828501612100565b91505092915050565b5f73ffffffffffffffffffffffffffffffffffffffff82169050919050565b5f6121688261213f565b9050919050565b6121788161215e565b82525050565b5f6020820190506121915f83018461216f565b92915050565b6121a08161215e565b81146121aa575f80fd5b50565b5f813590506121bb81612197565b92915050565b5f602082840312156121d6576121d5612036565b5b5f6121e3848285016121ad565b91505092915050565b7f4e487b71000000000000000000000000000000000000000000000000000000005f52602160045260245ffd5b6004811061222a576122296121ec565b5b50565b5f81905061223a82612219565b919050565b5f6122498261222d565b9050919050565b6122598161223f565b82525050565b5f6020820190506122725f830184612250565b92915050565b5f82825260208201905092915050565b7f566f746573206e65656420746f2062652074616c6c69656420696e206f7264655f8201527f7220746f20706572666f726d2074686973206f7065726174696f6e0000000000602082015250565b5f6122e2603b83612278565b91506122ed82612288565b604082019050919050565b5f6020820190508181035f83015261230f816122d6565b9050919050565b7f546865726520617265206e6f20657175616c69747920696e20726573756c74735f8201527f20736f20776520646f6e2774206e65656420746f20627265616b20746865207460208201527f6965210000000000000000000000000000000000000000000000000000000000604082015250565b5f612396604383612278565b91506123a182612316565b606082019050919050565b5f6020820190508181035f8301526123c38161238a565b9050919050565b7f4e487b71000000000000000000000000000000000000000000000000000000005f52603260045260245ffd5b7f546865726520617265206e6f2070726f706f736974696f6e73207265676973745f8201527f6572656420796574210000000000000000000000000000000000000000000000602082015250565b5f612451602983612278565b915061245c826123f7565b604082019050919050565b5f6020820190508181035f83015261247e81612445565b9050919050565b7f4e487b71000000000000000000000000000000000000000000000000000000005f52602260045260245ffd5b5f60028204905060018216806124c957607f821691505b6020821081036124dc576124db612485565b5b50919050565b7f596f7520617265206e6f7420612076616c696420766f746572210000000000005f82015250565b5f612516601a83612278565b9150612521826124e2565b602082019050919050565b5f6020820190508181035f8301526125438161250a565b9050919050565b7f596f752063616e6e6f742072656769737465722070726f706f73616c730000005f82015250565b5f61257e601d83612278565b91506125898261254a565b602082019050919050565b5f6020820190508181035f8301526125ab81612572565b9050919050565b7f4e487b71000000000000000000000000000000000000000000000000000000005f52604160045260245ffd5b5f819050815f5260205f209050919050565b5f6020601f8301049050919050565b5f82821b905092915050565b5f6008830261263b7fffffffffffffffffffffffffffffffffffffffffffffffffffffffffffffffff82612600565b6126458683612600565b95508019841693508086168417925050509392505050565b5f819050919050565b5f61268061267b61267684611e95565b61265d565b611e95565b9050919050565b5f819050919050565b61269983612666565b6126ad6126a582612687565b84845461260c565b825550505050565b5f90565b6126c16126b5565b6126cc818484612690565b505050565b5b818110156126ef576126e45f826126b9565b6001810190506126d2565b5050565b601f82111561273457612705816125df565b61270e846125f1565b8101602085101561271d578190505b612731612729856125f1565b8301826126d1565b50505b505050565b5f82821c905092915050565b5f6127545f1984600802612739565b1980831691505092915050565b5f61276c8383612745565b9150826002028217905092915050565b61278582611ead565b67ffffffffffffffff81111561279e5761279d6125b2565b5b6127a882546124b2565b6127b38282856126f3565b5f60209050601f8311600181146127e4575f84156127d2578287015190505b6127dc8582612761565b865550612843565b601f1984166127f2866125df565b5f5b82811015612819578489015182556001820191506020850194506020810190506127f4565b868310156128365784890151612832601f891682612745565b8355505b6001600288020188555050505b505050505050565b7f4e487b71000000000000000000000000000000000000000000000000000000005f52601160045260245ffd5b5f61288282611e95565b91507fffffffffffffffffffffffffffffffffffffffffffffffffffffffffffffffff82036128b4576128b361284b565b5b600182019050919050565b6128c881611e95565b82525050565b5f6020820190506128e15f8301846128bf565b92915050565b7f596f752063616e6e6f7420766f74652070726f706f73616c73000000000000005f82015250565b5f61291b601983612278565b9150612926826128e7565b602082019050919050565b5f6020820190508181035f8301526129488161290f565b9050919050565b7f596f7520616c7265616479207573656420616c6c20796f757220766f746573215f82015250565b5f612983602083612278565b915061298e8261294f565b602082019050919050565b5f6020820190508181035f8301526129b081612977565b9050919050565b7f5468652070726f706f736974696f6e20796f7527726520766f74696e6720666f5f8201527f7220646f6573206e6f7420657869737421000000000000000000000000000000602082015250565b5f612a11603183612278565b9150612a1c826129b7565b604082019050919050565b5f6020820190508181035f830152612a3e81612a05565b9050919050565b5f604082019050612a585f83018561216f565b612a6560208301846128bf565b9392505050565b7f596f75206d75737420766f746520616761696e20666f72206f6e65206f6620745f8201527f68652070726f706f736974696f6e73207768696368207175616c69666965642060208201527f70726576696f75736c7921000000000000000000000000000000000000000000604082015250565b5f612aec604b83612278565b9150612af782612a6c565b606082019050919050565b5f6020820190508181035f830152612b1981612ae0565b9050919050565b7f596f752063616e6e6f7420726567697374657220766f746572730000000000005f82015250565b5f612b54601a83612278565b9150612b5f82612b20565b602082019050919050565b5f6020820190508181035f830152612b8181612b48565b9050919050565b7f4f776e65722063616e6e6f7420766f74652100000000000000000000000000005f82015250565b5f612bbc601283612278565b9150612bc782612b88565b602082019050919050565b5f6020820190508181035f830152612be981612bb0565b9050919050565b7f566f74657220616c7265616479207265676973746572656421000000000000005f82015250565b5f612c24601983612278565b9150612c2f82612bf0565b602082019050919050565b5f6020820190508181035f830152612c5181612c18565b9050919050565b7f41206d696e696d756d206e756d626572206f6620766f746572732061726520725f8201527f6571756972656420746f20636f6e74696e756500000000000000000000000000602082015250565b5f612cb2603383612278565b9150612cbd82612c58565b604082019050919050565b5f6020820190508181035f830152612cdf81612ca6565b9050919050565b7f41206d696e696d756d206e756d626572206f662070726f706f736974696f6e735f8201527f2061726520726571756972656420746f20636f6e74696e756500000000000000602082015250565b5f612d40603983612278565b9150612d4b82612ce6565b604082019050919050565b5f6020820190508181035f830152612d6d81612d34565b9050919050565b7f41206d696e696d756d206e756d626572206f6620766f746573206172652072655f8201527f71756972656420746f20636f6e74696e75650000000000000000000000000000602082015250565b5f612dce603283612278565b9150612dd982612d74565b604082019050919050565b5f6020820190508181035f830152612dfb81612dc2565b9050919050565b7f566f7465732068617665206265656e2074616c6c6965642e204974206973206f5f8201527f7665722e205468657265206973206e6f206e6578742073746570210000000000602082015250565b5f612e5c603b83612278565b9150612e6782612e02565b604082019050919050565b5f6020820190508181035f830152612e8981612e50565b9050919050565b5f612e9a82611e95565b9150612ea583611e95565b9250828201905080821115612ebd57612ebc61284b565b5b92915050565b5f604082019050612ed65f830185612250565b612ee36020830184612250565b9392505050565b7f4e487b71000000000000000000000000000000000000000000000000000000005f52603160045260245ffd5b5f81549050612f25816124b2565b9050919050565b818103612f3a57505061300f565b612f4382612f17565b67ffffffffffffffff811115612f5c57612f5b6125b2565b5b612f6682546124b2565b612f718282856126f3565b5f601f831160018114612f9e575f8415612f8c578287015490505b612f968582612761565b865550613008565b601f198416612fac876125df565b9650612fb7866125df565b5f5b82811015612fde57848901548255600182019150600185019450602081019050612fb9565b86831015612ffb5784890154612ff7601f891682612745565b8355505b6001600288020188555050505b5050505050505b56fea2646970667358221220ffb64be4e2acbd6a6745856577bbb68d9a2b4d0988f48365ee56d3af2738a84764736f6c63430008170033",
					"opcodes": "PUSH1 0x80 PUSH1 0x40 MSTORE PUSH0 PUSH1 0x4 SSTORE PUSH0 PUSH1 0x5 SSTORE PUSH0 PUSH1 0x7 SSTORE CALLVALUE DUP1 ISZERO PUSH3 0x1C JUMPI PUSH0 DUP1 REVERT JUMPDEST POP CALLER PUSH0 PUSH20 0xFFFFFFFFFFFFFFFFFFFFFFFFFFFFFFFFFFFFFFFF AND DUP2 PUSH20 0xFFFFFFFFFFFFFFFFFFFFFFFFFFFFFFFFFFFFFFFF AND SUB PUSH3 0x91 JUMPI PUSH0 PUSH1 0x40 MLOAD PUSH32 0x1E4FBDF700000000000000000000000000000000000000000000000000000000 DUP2 MSTORE PUSH1 0x4 ADD PUSH3 0x88 SWAP2 SWAP1 PUSH3 0x1D9 JUMP JUMPDEST PUSH1 0x40 MLOAD DUP1 SWAP2 SUB SWAP1 REVERT JUMPDEST PUSH3 0xA2 DUP2 PUSH3 0xD5 PUSH1 0x20 SHL PUSH1 0x20 SHR JUMP JUMPDEST POP PUSH0 PUSH1 0x8 PUSH0 PUSH2 0x100 EXP DUP2 SLOAD DUP2 PUSH1 0xFF MUL NOT AND SWAP1 DUP4 PUSH1 0x3 DUP2 GT ISZERO PUSH3 0xCA JUMPI PUSH3 0xC9 PUSH3 0x1F4 JUMP JUMPDEST JUMPDEST MUL OR SWAP1 SSTORE POP PUSH3 0x221 JUMP JUMPDEST PUSH0 DUP1 PUSH0 SWAP1 SLOAD SWAP1 PUSH2 0x100 EXP SWAP1 DIV PUSH20 0xFFFFFFFFFFFFFFFFFFFFFFFFFFFFFFFFFFFFFFFF AND SWAP1 POP DUP2 PUSH0 DUP1 PUSH2 0x100 EXP DUP2 SLOAD DUP2 PUSH20 0xFFFFFFFFFFFFFFFFFFFFFFFFFFFFFFFFFFFFFFFF MUL NOT AND SWAP1 DUP4 PUSH20 0xFFFFFFFFFFFFFFFFFFFFFFFFFFFFFFFFFFFFFFFF AND MUL OR SWAP1 SSTORE POP DUP2 PUSH20 0xFFFFFFFFFFFFFFFFFFFFFFFFFFFFFFFFFFFFFFFF AND DUP2 PUSH20 0xFFFFFFFFFFFFFFFFFFFFFFFFFFFFFFFFFFFFFFFF AND PUSH32 0x8BE0079C531659141344CD1FD0A4F28419497F9722A3DAAFE3B4186F6B6457E0 PUSH1 0x40 MLOAD PUSH1 0x40 MLOAD DUP1 SWAP2 SUB SWAP1 LOG3 POP POP JUMP JUMPDEST PUSH0 PUSH20 0xFFFFFFFFFFFFFFFFFFFFFFFFFFFFFFFFFFFFFFFF DUP3 AND SWAP1 POP SWAP2 SWAP1 POP JUMP JUMPDEST PUSH0 PUSH3 0x1C1 DUP3 PUSH3 0x196 JUMP JUMPDEST SWAP1 POP SWAP2 SWAP1 POP JUMP JUMPDEST PUSH3 0x1D3 DUP2 PUSH3 0x1B5 JUMP JUMPDEST DUP3 MSTORE POP POP JUMP JUMPDEST PUSH0 PUSH1 0x20 DUP3 ADD SWAP1 POP PUSH3 0x1EE PUSH0 DUP4 ADD DUP5 PUSH3 0x1C8 JUMP JUMPDEST SWAP3 SWAP2 POP POP JUMP JUMPDEST PUSH32 0x4E487B7100000000000000000000000000000000000000000000000000000000 PUSH0 MSTORE PUSH1 0x21 PUSH1 0x4 MSTORE PUSH1 0x24 PUSH0 REVERT JUMPDEST PUSH2 0x3047 DUP1 PUSH3 0x22F PUSH0 CODECOPY PUSH0 RETURN INVALID PUSH1 0x80 PUSH1 0x40 MSTORE CALLVALUE DUP1 ISZERO PUSH2 0xF JUMPI PUSH0 DUP1 REVERT JUMPDEST POP PUSH1 0x4 CALLDATASIZE LT PUSH2 0xCD JUMPI PUSH0 CALLDATALOAD PUSH1 0xE0 SHR DUP1 PUSH4 0x8DA5CB5B GT PUSH2 0x8A JUMPI DUP1 PUSH4 0xE77AA682 GT PUSH2 0x64 JUMPI DUP1 PUSH4 0xE77AA682 EQ PUSH2 0x19D JUMPI DUP1 PUSH4 0xF2FDE38B EQ PUSH2 0x1BB JUMPI DUP1 PUSH4 0xF4AB9ADF EQ PUSH2 0x1D7 JUMPI DUP1 PUSH4 0xFD20255C EQ PUSH2 0x1F3 JUMPI PUSH2 0xCD JUMP JUMPDEST DUP1 PUSH4 0x8DA5CB5B EQ PUSH2 0x145 JUMPI DUP1 PUSH4 0x8E7EA5B2 EQ PUSH2 0x163 JUMPI DUP1 PUSH4 0xB31E1D4D EQ PUSH2 0x181 JUMPI PUSH2 0xCD JUMP JUMPDEST DUP1 PUSH4 0x1D533571 EQ PUSH2 0xD1 JUMPI DUP1 PUSH4 0x26C7EB1C EQ PUSH2 0xDB JUMPI DUP1 PUSH4 0x2FDAE3C5 EQ PUSH2 0xF9 JUMPI DUP1 PUSH4 0x6334EF66 EQ PUSH2 0x115 JUMPI DUP1 PUSH4 0x715018A6 EQ PUSH2 0x11F JUMPI DUP1 PUSH4 0x746536B5 EQ PUSH2 0x129 JUMPI JUMPDEST PUSH0 DUP1 REVERT JUMPDEST PUSH2 0xD9 PUSH2 0x1FD JUMP JUMPDEST STOP JUMPDEST PUSH2 0xE3 PUSH2 0x480 JUMP JUMPDEST PUSH1 0x40 MLOAD PUSH2 0xF0 SWAP2 SWAP1 PUSH2 0x2016 JUMP JUMPDEST PUSH1 0x40 MLOAD DUP1 SWAP2 SUB SWAP1 RETURN JUMPDEST PUSH2 0x113 PUSH1 0x4 DUP1 CALLDATASIZE SUB DUP2 ADD SWAP1 PUSH2 0x10E SWAP2 SWAP1 PUSH2 0x209F JUMP JUMPDEST PUSH2 0x5C6 JUMP JUMPDEST STOP JUMPDEST PUSH2 0x11D PUSH2 0x7CF JUMP JUMPDEST STOP JUMPDEST PUSH2 0x127 PUSH2 0x96C JUMP JUMPDEST STOP JUMPDEST PUSH2 0x143 PUSH1 0x4 DUP1 CALLDATASIZE SUB DUP2 ADD SWAP1 PUSH2 0x13E SWAP2 SWAP1 PUSH2 0x2114 JUMP JUMPDEST PUSH2 0x97F JUMP JUMPDEST STOP JUMPDEST PUSH2 0x14D PUSH2 0xD23 JUMP JUMPDEST PUSH1 0x40 MLOAD PUSH2 0x15A SWAP2 SWAP1 PUSH2 0x217E JUMP JUMPDEST PUSH1 0x40 MLOAD DUP1 SWAP2 SUB SWAP1 RETURN JUMPDEST PUSH2 0x16B PUSH2 0xD4A JUMP JUMPDEST PUSH1 0x40 MLOAD PUSH2 0x178 SWAP2 SWAP1 PUSH2 0x2016 JUMP JUMPDEST PUSH1 0x40 MLOAD DUP1 SWAP2 SUB SWAP1 RETURN JUMPDEST PUSH2 0x19B PUSH1 0x4 DUP1 CALLDATASIZE SUB DUP2 ADD SWAP1 PUSH2 0x196 SWAP2 SWAP1 PUSH2 0x21C1 JUMP JUMPDEST PUSH2 0x10C9 JUMP JUMPDEST STOP JUMPDEST PUSH2 0x1A5 PUSH2 0x1290 JUMP JUMPDEST PUSH1 0x40 MLOAD PUSH2 0x1B2 SWAP2 SWAP1 PUSH2 0x225F JUMP JUMPDEST PUSH1 0x40 MLOAD DUP1 SWAP2 SUB SWAP1 RETURN JUMPDEST PUSH2 0x1D5 PUSH1 0x4 DUP1 CALLDATASIZE SUB DUP2 ADD SWAP1 PUSH2 0x1D0 SWAP2 SWAP1 PUSH2 0x21C1 JUMP JUMPDEST PUSH2 0x12A5 JUMP JUMPDEST STOP JUMPDEST PUSH2 0x1F1 PUSH1 0x4 DUP1 CALLDATASIZE SUB DUP2 ADD SWAP1 PUSH2 0x1EC SWAP2 SWAP1 PUSH2 0x21C1 JUMP JUMPDEST PUSH2 0x1329 JUMP JUMPDEST STOP JUMPDEST PUSH2 0x1FB PUSH2 0x14EE JUMP JUMPDEST STOP JUMPDEST PUSH2 0x205 PUSH2 0x17B5 JUMP JUMPDEST PUSH1 0x3 DUP1 DUP2 GT ISZERO PUSH2 0x218 JUMPI PUSH2 0x217 PUSH2 0x21EC JUMP JUMPDEST JUMPDEST PUSH1 0x8 PUSH0 SWAP1 SLOAD SWAP1 PUSH2 0x100 EXP SWAP1 DIV PUSH1 0xFF AND PUSH1 0x3 DUP2 GT ISZERO PUSH2 0x239 JUMPI PUSH2 0x238 PUSH2 0x21EC JUMP JUMPDEST JUMPDEST EQ PUSH2 0x279 JUMPI PUSH1 0x40 MLOAD PUSH32 0x8C379A000000000000000000000000000000000000000000000000000000000 DUP2 MSTORE PUSH1 0x4 ADD PUSH2 0x270 SWAP1 PUSH2 0x22F8 JUMP JUMPDEST PUSH1 0x40 MLOAD DUP1 SWAP2 SUB SWAP1 REVERT JUMPDEST PUSH1 0x1 DUP1 DUP1 SLOAD SWAP1 POP GT PUSH2 0x2C0 JUMPI PUSH1 0x40 MLOAD PUSH32 0x8C379A000000000000000000000000000000000000000000000000000000000 DUP2 MSTORE PUSH1 0x4 ADD PUSH2 0x2B7 SWAP1 PUSH2 0x23AC JUMP JUMPDEST PUSH1 0x40 MLOAD DUP1 SWAP2 SUB SWAP1 REVERT JUMPDEST PUSH1 0x1 DUP1 SLOAD SWAP1 POP PUSH1 0x7 DUP2 SWAP1 SSTORE POP PUSH1 0x6 PUSH0 PUSH2 0x2D9 SWAP2 SWAP1 PUSH2 0x1D09 JUMP JUMPDEST PUSH1 0x1 PUSH1 0x6 SWAP1 DUP1 SLOAD PUSH2 0x2EB SWAP3 SWAP2 SWAP1 PUSH2 0x1D2A JUMP JUMPDEST POP PUSH0 JUMPDEST PUSH1 0x6 DUP1 SLOAD SWAP1 POP DUP2 LT ISZERO PUSH2 0x330 JUMPI PUSH0 PUSH1 0x6 DUP3 DUP2 SLOAD DUP2 LT PUSH2 0x310 JUMPI PUSH2 0x30F PUSH2 0x23CA JUMP JUMPDEST JUMPDEST SWAP1 PUSH0 MSTORE PUSH1 0x20 PUSH0 KECCAK256 SWAP1 PUSH1 0x3 MUL ADD PUSH1 0x2 ADD DUP2 SWAP1 SSTORE POP DUP1 DUP1 PUSH1 0x1 ADD SWAP2 POP POP PUSH2 0x2EE JUMP JUMPDEST POP PUSH0 JUMPDEST PUSH1 0x3 DUP1 SLOAD SWAP1 POP DUP2 LT ISZERO PUSH2 0x453 JUMPI PUSH0 PUSH1 0x2 PUSH0 PUSH1 0x3 DUP5 DUP2 SLOAD DUP2 LT PUSH2 0x358 JUMPI PUSH2 0x357 PUSH2 0x23CA JUMP JUMPDEST JUMPDEST SWAP1 PUSH0 MSTORE PUSH1 0x20 PUSH0 KECCAK256 ADD PUSH0 SWAP1 SLOAD SWAP1 PUSH2 0x100 EXP SWAP1 DIV PUSH20 0xFFFFFFFFFFFFFFFFFFFFFFFFFFFFFFFFFFFFFFFF AND PUSH20 0xFFFFFFFFFFFFFFFFFFFFFFFFFFFFFFFFFFFFFFFF AND PUSH20 0xFFFFFFFFFFFFFFFFFFFFFFFFFFFFFFFFFFFFFFFF AND DUP2 MSTORE PUSH1 0x20 ADD SWAP1 DUP2 MSTORE PUSH1 0x20 ADD PUSH0 KECCAK256 PUSH1 0x1 ADD DUP2 SWAP1 SSTORE POP PUSH1 0x2 PUSH0 PUSH1 0x3 DUP4 DUP2 SLOAD DUP2 LT PUSH2 0x3D7 JUMPI PUSH2 0x3D6 PUSH2 0x23CA JUMP JUMPDEST JUMPDEST SWAP1 PUSH0 MSTORE PUSH1 0x20 PUSH0 KECCAK256 ADD PUSH0 SWAP1 SLOAD SWAP1 PUSH2 0x100 EXP SWAP1 DIV PUSH20 0xFFFFFFFFFFFFFFFFFFFFFFFFFFFFFFFFFFFFFFFF AND PUSH20 0xFFFFFFFFFFFFFFFFFFFFFFFFFFFFFFFFFFFFFFFF AND PUSH20 0xFFFFFFFFFFFFFFFFFFFFFFFFFFFFFFFFFFFFFFFF AND DUP2 MSTORE PUSH1 0x20 ADD SWAP1 DUP2 MSTORE PUSH1 0x20 ADD PUSH0 KECCAK256 PUSH1 0x3 ADD PUSH0 PUSH2 0x446 SWAP2 SWAP1 PUSH2 0x1DA5 JUMP JUMPDEST DUP1 DUP1 PUSH1 0x1 ADD SWAP2 POP POP PUSH2 0x333 JUMP JUMPDEST POP PUSH1 0x2 PUSH1 0x8 PUSH0 PUSH2 0x100 EXP DUP2 SLOAD DUP2 PUSH1 0xFF MUL NOT AND SWAP1 DUP4 PUSH1 0x3 DUP2 GT ISZERO PUSH2 0x479 JUMPI PUSH2 0x478 PUSH2 0x21EC JUMP JUMPDEST JUMPDEST MUL OR SWAP1 SSTORE POP JUMP JUMPDEST PUSH1 0x60 PUSH0 PUSH1 0x6 DUP1 SLOAD SWAP1 POP GT PUSH2 0x4C9 JUMPI PUSH1 0x40 MLOAD PUSH32 0x8C379A000000000000000000000000000000000000000000000000000000000 DUP2 MSTORE PUSH1 0x4 ADD PUSH2 0x4C0 SWAP1 PUSH2 0x2467 JUMP JUMPDEST PUSH1 0x40 MLOAD DUP1 SWAP2 SUB SWAP1 REVERT JUMPDEST PUSH1 0x6 DUP1 SLOAD DUP1 PUSH1 0x20 MUL PUSH1 0x20 ADD PUSH1 0x40 MLOAD SWAP1 DUP2 ADD PUSH1 0x40 MSTORE DUP1 SWAP3 SWAP2 SWAP1 DUP2 DUP2 MSTORE PUSH1 0x20 ADD PUSH0 SWAP1 JUMPDEST DUP3 DUP3 LT ISZERO PUSH2 0x5BD JUMPI DUP4 DUP3 SWAP1 PUSH0 MSTORE PUSH1 0x20 PUSH0 KECCAK256 SWAP1 PUSH1 0x3 MUL ADD PUSH1 0x40 MLOAD DUP1 PUSH1 0x60 ADD PUSH1 0x40 MSTORE SWAP1 DUP2 PUSH0 DUP3 ADD SLOAD DUP2 MSTORE PUSH1 0x20 ADD PUSH1 0x1 DUP3 ADD DUP1 SLOAD PUSH2 0x524 SWAP1 PUSH2 0x24B2 JUMP JUMPDEST DUP1 PUSH1 0x1F ADD PUSH1 0x20 DUP1 SWAP2 DIV MUL PUSH1 0x20 ADD PUSH1 0x40 MLOAD SWAP1 DUP2 ADD PUSH1 0x40 MSTORE DUP1 SWAP3 SWAP2 SWAP1 DUP2 DUP2 MSTORE PUSH1 0x20 ADD DUP3 DUP1 SLOAD PUSH2 0x550 SWAP1 PUSH2 0x24B2 JUMP JUMPDEST DUP1 ISZERO PUSH2 0x59B JUMPI DUP1 PUSH1 0x1F LT PUSH2 0x572 JUMPI PUSH2 0x100 DUP1 DUP4 SLOAD DIV MUL DUP4 MSTORE SWAP2 PUSH1 0x20 ADD SWAP2 PUSH2 0x59B JUMP JUMPDEST DUP3 ADD SWAP2 SWAP1 PUSH0 MSTORE PUSH1 0x20 PUSH0 KECCAK256 SWAP1 JUMPDEST DUP2 SLOAD DUP2 MSTORE SWAP1 PUSH1 0x1 ADD SWAP1 PUSH1 0x20 ADD DUP1 DUP4 GT PUSH2 0x57E JUMPI DUP3 SWAP1 SUB PUSH1 0x1F AND DUP3 ADD SWAP2 JUMPDEST POP POP POP POP POP DUP2 MSTORE PUSH1 0x20 ADD PUSH1 0x2 DUP3 ADD SLOAD DUP2 MSTORE POP POP DUP2 MSTORE PUSH1 0x20 ADD SWAP1 PUSH1 0x1 ADD SWAP1 PUSH2 0x4EA JUMP JUMPDEST POP POP POP POP SWAP1 POP SWAP1 JUMP JUMPDEST PUSH1 0x1 ISZERO ISZERO PUSH1 0x2 PUSH0 CALLER PUSH20 0xFFFFFFFFFFFFFFFFFFFFFFFFFFFFFFFFFFFFFFFF AND PUSH20 0xFFFFFFFFFFFFFFFFFFFFFFFFFFFFFFFFFFFFFFFF AND DUP2 MSTORE PUSH1 0x20 ADD SWAP1 DUP2 MSTORE PUSH1 0x20 ADD PUSH0 KECCAK256 PUSH0 ADD PUSH0 SWAP1 SLOAD SWAP1 PUSH2 0x100 EXP SWAP1 DIV PUSH1 0xFF AND ISZERO ISZERO EQ PUSH2 0x658 JUMPI PUSH1 0x40 MLOAD PUSH32 0x8C379A000000000000000000000000000000000000000000000000000000000 DUP2 MSTORE PUSH1 0x4 ADD PUSH2 0x64F SWAP1 PUSH2 0x252C JUMP JUMPDEST PUSH1 0x40 MLOAD DUP1 SWAP2 SUB SWAP1 REVERT JUMPDEST PUSH1 0x1 PUSH1 0x3 DUP2 GT ISZERO PUSH2 0x66C JUMPI PUSH2 0x66B PUSH2 0x21EC JUMP JUMPDEST JUMPDEST PUSH1 0x8 PUSH0 SWAP1 SLOAD SWAP1 PUSH2 0x100 EXP SWAP1 DIV PUSH1 0xFF AND PUSH1 0x3 DUP2 GT ISZERO PUSH2 0x68D JUMPI PUSH2 0x68C PUSH2 0x21EC JUMP JUMPDEST JUMPDEST EQ PUSH2 0x6CD JUMPI PUSH1 0x40 MLOAD PUSH32 0x8C379A000000000000000000000000000000000000000000000000000000000 DUP2 MSTORE PUSH1 0x4 ADD PUSH2 0x6C4 SWAP1 PUSH2 0x2594 JUMP JUMPDEST PUSH1 0x40 MLOAD DUP1 SWAP2 SUB SWAP1 REVERT JUMPDEST PUSH1 0x6 PUSH1 0x40 MLOAD DUP1 PUSH1 0x60 ADD PUSH1 0x40 MSTORE DUP1 PUSH1 0x7 SLOAD DUP2 MSTORE PUSH1 0x20 ADD DUP5 DUP5 DUP1 DUP1 PUSH1 0x1F ADD PUSH1 0x20 DUP1 SWAP2 DIV MUL PUSH1 0x20 ADD PUSH1 0x40 MLOAD SWAP1 DUP2 ADD PUSH1 0x40 MSTORE DUP1 SWAP4 SWAP3 SWAP2 SWAP1 DUP2 DUP2 MSTORE PUSH1 0x20 ADD DUP4 DUP4 DUP1 DUP3 DUP5 CALLDATACOPY PUSH0 DUP2 DUP5 ADD MSTORE PUSH1 0x1F NOT PUSH1 0x1F DUP3 ADD AND SWAP1 POP DUP1 DUP4 ADD SWAP3 POP POP POP POP POP POP POP DUP2 MSTORE PUSH1 0x20 ADD PUSH0 DUP2 MSTORE POP SWAP1 DUP1 PUSH1 0x1 DUP2 SLOAD ADD DUP1 DUP3 SSTORE DUP1 SWAP2 POP POP PUSH1 0x1 SWAP1 SUB SWAP1 PUSH0 MSTORE PUSH1 0x20 PUSH0 KECCAK256 SWAP1 PUSH1 0x3 MUL ADD PUSH0 SWAP1 SWAP2 SWAP1 SWAP2 SWAP1 SWAP2 POP PUSH0 DUP3 ADD MLOAD DUP2 PUSH0 ADD SSTORE PUSH1 0x20 DUP3 ADD MLOAD DUP2 PUSH1 0x1 ADD SWAP1 DUP2 PUSH2 0x772 SWAP2 SWAP1 PUSH2 0x277C JUMP JUMPDEST POP PUSH1 0x40 DUP3 ADD MLOAD DUP2 PUSH1 0x2 ADD SSTORE POP POP PUSH32 0x92E393E9B54E2F801D3EA4BEB0C5E71A21CC34A5D34B77D0FB8A3AA1650DC18F PUSH1 0x7 PUSH0 DUP2 SLOAD DUP1 SWAP3 SWAP2 SWAP1 PUSH2 0x7B2 SWAP1 PUSH2 0x2878 JUMP JUMPDEST SWAP2 SWAP1 POP SSTORE PUSH1 0x40 MLOAD PUSH2 0x7C3 SWAP2 SWAP1 PUSH2 0x28CE JUMP JUMPDEST PUSH1 0x40 MLOAD DUP1 SWAP2 SUB SWAP1 LOG1 POP POP JUMP JUMPDEST PUSH1 0x3 DUP1 DUP2 GT ISZERO PUSH2 0x7E2 JUMPI PUSH2 0x7E1 PUSH2 0x21EC JUMP JUMPDEST JUMPDEST PUSH1 0x8 PUSH0 SWAP1 SLOAD SWAP1 PUSH2 0x100 EXP SWAP1 DIV PUSH1 0xFF AND PUSH1 0x3 DUP2 GT ISZERO PUSH2 0x803 JUMPI PUSH2 0x802 PUSH2 0x21EC JUMP JUMPDEST JUMPDEST EQ PUSH2 0x843 JUMPI PUSH1 0x40 MLOAD PUSH32 0x8C379A000000000000000000000000000000000000000000000000000000000 DUP2 MSTORE PUSH1 0x4 ADD PUSH2 0x83A SWAP1 PUSH2 0x22F8 JUMP JUMPDEST PUSH1 0x40 MLOAD DUP1 SWAP2 SUB SWAP1 REVERT JUMPDEST PUSH2 0x84B PUSH2 0x17B5 JUMP JUMPDEST PUSH0 PUSH1 0x8 PUSH0 PUSH2 0x100 EXP DUP2 SLOAD DUP2 PUSH1 0xFF MUL NOT AND SWAP1 DUP4 PUSH1 0x3 DUP2 GT ISZERO PUSH2 0x86F JUMPI PUSH2 0x86E PUSH2 0x21EC JUMP JUMPDEST JUMPDEST MUL OR SWAP1 SSTORE POP PUSH0 PUSH1 0x7 DUP2 SWAP1 SSTORE POP PUSH1 0x6 PUSH0 PUSH2 0x888 SWAP2 SWAP1 PUSH2 0x1D09 JUMP JUMPDEST PUSH0 PUSH1 0x4 DUP2 SWAP1 SSTORE POP PUSH0 PUSH1 0x5 DUP2 SWAP1 SSTORE POP PUSH0 JUMPDEST PUSH1 0x3 DUP1 SLOAD SWAP1 POP DUP2 LT ISZERO PUSH2 0x95C JUMPI PUSH1 0x2 PUSH0 PUSH1 0x3 DUP4 DUP2 SLOAD DUP2 LT PUSH2 0x8BC JUMPI PUSH2 0x8BB PUSH2 0x23CA JUMP JUMPDEST JUMPDEST SWAP1 PUSH0 MSTORE PUSH1 0x20 PUSH0 KECCAK256 ADD PUSH0 SWAP1 SLOAD SWAP1 PUSH2 0x100 EXP SWAP1 DIV PUSH20 0xFFFFFFFFFFFFFFFFFFFFFFFFFFFFFFFFFFFFFFFF AND PUSH20 0xFFFFFFFFFFFFFFFFFFFFFFFFFFFFFFFFFFFFFFFF AND PUSH20 0xFFFFFFFFFFFFFFFFFFFFFFFFFFFFFFFFFFFFFFFF AND DUP2 MSTORE PUSH1 0x20 ADD SWAP1 DUP2 MSTORE PUSH1 0x20 ADD PUSH0 KECCAK256 PUSH0 DUP1 DUP3 ADD PUSH0 PUSH2 0x100 EXP DUP2 SLOAD SWAP1 PUSH1 0xFF MUL NOT AND SWAP1 SSTORE PUSH1 0x1 DUP3 ADD PUSH0 SWAP1 SSTORE PUSH1 0x2 DUP3 ADD PUSH0 SWAP1 SSTORE PUSH1 0x3 DUP3 ADD PUSH0 PUSH2 0x94D SWAP2 SWAP1 PUSH2 0x1DA5 JUMP JUMPDEST POP POP DUP1 DUP1 PUSH1 0x1 ADD SWAP2 POP POP PUSH2 0x898 JUMP JUMPDEST POP PUSH1 0x3 PUSH0 PUSH2 0x96A SWAP2 SWAP1 PUSH2 0x1DC3 JUMP JUMPDEST JUMP JUMPDEST PUSH2 0x974 PUSH2 0x17B5 JUMP JUMPDEST PUSH2 0x97D PUSH0 PUSH2 0x183C JUMP JUMPDEST JUMP JUMPDEST PUSH1 0x1 ISZERO ISZERO PUSH1 0x2 PUSH0 CALLER PUSH20 0xFFFFFFFFFFFFFFFFFFFFFFFFFFFFFFFFFFFFFFFF AND PUSH20 0xFFFFFFFFFFFFFFFFFFFFFFFFFFFFFFFFFFFFFFFF AND DUP2 MSTORE PUSH1 0x20 ADD SWAP1 DUP2 MSTORE PUSH1 0x20 ADD PUSH0 KECCAK256 PUSH0 ADD PUSH0 SWAP1 SLOAD SWAP1 PUSH2 0x100 EXP SWAP1 DIV PUSH1 0xFF AND ISZERO ISZERO EQ PUSH2 0xA11 JUMPI PUSH1 0x40 MLOAD PUSH32 0x8C379A000000000000000000000000000000000000000000000000000000000 DUP2 MSTORE PUSH1 0x4 ADD PUSH2 0xA08 SWAP1 PUSH2 0x252C JUMP JUMPDEST PUSH1 0x40 MLOAD DUP1 SWAP2 SUB SWAP1 REVERT JUMPDEST PUSH1 0x2 PUSH1 0x3 DUP2 GT ISZERO PUSH2 0xA25 JUMPI PUSH2 0xA24 PUSH2 0x21EC JUMP JUMPDEST JUMPDEST PUSH1 0x8 PUSH0 SWAP1 SLOAD SWAP1 PUSH2 0x100 EXP SWAP1 DIV PUSH1 0xFF AND PUSH1 0x3 DUP2 GT ISZERO PUSH2 0xA46 JUMPI PUSH2 0xA45 PUSH2 0x21EC JUMP JUMPDEST JUMPDEST EQ PUSH2 0xA86 JUMPI PUSH1 0x40 MLOAD PUSH32 0x8C379A000000000000000000000000000000000000000000000000000000000 DUP2 MSTORE PUSH1 0x4 ADD PUSH2 0xA7D SWAP1 PUSH2 0x2931 JUMP JUMPDEST PUSH1 0x40 MLOAD DUP1 SWAP2 SUB SWAP1 REVERT JUMPDEST PUSH1 0x2 PUSH0 CALLER PUSH20 0xFFFFFFFFFFFFFFFFFFFFFFFFFFFFFFFFFFFFFFFF AND PUSH20 0xFFFFFFFFFFFFFFFFFFFFFFFFFFFFFFFFFFFFFFFF AND DUP2 MSTORE PUSH1 0x20 ADD SWAP1 DUP2 MSTORE PUSH1 0x20 ADD PUSH0 KECCAK256 PUSH1 0x2 ADD SLOAD PUSH1 0x2 PUSH0 CALLER PUSH20 0xFFFFFFFFFFFFFFFFFFFFFFFFFFFFFFFFFFFFFFFF AND PUSH20 0xFFFFFFFFFFFFFFFFFFFFFFFFFFFFFFFFFFFFFFFF AND DUP2 MSTORE PUSH1 0x20 ADD SWAP1 DUP2 MSTORE PUSH1 0x20 ADD PUSH0 KECCAK256 PUSH1 0x1 ADD SLOAD LT PUSH2 0xB48 JUMPI PUSH1 0x40 MLOAD PUSH32 0x8C379A000000000000000000000000000000000000000000000000000000000 DUP2 MSTORE PUSH1 0x4 ADD PUSH2 0xB3F SWAP1 PUSH2 0x2999 JUMP JUMPDEST PUSH1 0x40 MLOAD DUP1 SWAP2 SUB SWAP1 REVERT JUMPDEST PUSH0 DUP2 LT ISZERO DUP1 ISZERO PUSH2 0xB5C JUMPI POP PUSH1 0x6 DUP1 SLOAD SWAP1 POP DUP2 LT JUMPDEST PUSH2 0xB9B JUMPI PUSH1 0x40 MLOAD PUSH32 0x8C379A000000000000000000000000000000000000000000000000000000000 DUP2 MSTORE PUSH1 0x4 ADD PUSH2 0xB92 SWAP1 PUSH2 0x2A27 JUMP JUMPDEST PUSH1 0x40 MLOAD DUP1 SWAP2 SUB SWAP1 REVERT JUMPDEST PUSH1 0x6 DUP2 DUP2 SLOAD DUP2 LT PUSH2 0xBAF JUMPI PUSH2 0xBAE PUSH2 0x23CA JUMP JUMPDEST JUMPDEST SWAP1 PUSH0 MSTORE PUSH1 0x20 PUSH0 KECCAK256 SWAP1 PUSH1 0x3 MUL ADD PUSH1 0x2 ADD PUSH0 DUP2 SLOAD DUP1 SWAP3 SWAP2 SWAP1 PUSH2 0xBCE SWAP1 PUSH2 0x2878 JUMP JUMPDEST SWAP2 SWAP1 POP SSTORE POP PUSH1 0x2 PUSH0 CALLER PUSH20 0xFFFFFFFFFFFFFFFFFFFFFFFFFFFFFFFFFFFFFFFF AND PUSH20 0xFFFFFFFFFFFFFFFFFFFFFFFFFFFFFFFFFFFFFFFF AND DUP2 MSTORE PUSH1 0x20 ADD SWAP1 DUP2 MSTORE PUSH1 0x20 ADD PUSH0 KECCAK256 PUSH1 0x1 ADD PUSH0 DUP2 SLOAD DUP1 SWAP3 SWAP2 SWAP1 PUSH2 0xC23 SWAP1 PUSH2 0x2878 JUMP JUMPDEST SWAP2 SWAP1 POP SSTORE POP PUSH1 0x2 PUSH0 CALLER PUSH20 0xFFFFFFFFFFFFFFFFFFFFFFFFFFFFFFFFFFFFFFFF AND PUSH20 0xFFFFFFFFFFFFFFFFFFFFFFFFFFFFFFFFFFFFFFFF AND DUP2 MSTORE PUSH1 0x20 ADD SWAP1 DUP2 MSTORE PUSH1 0x20 ADD PUSH0 KECCAK256 PUSH1 0x3 ADD PUSH1 0x6 DUP3 DUP2 SLOAD DUP2 LT PUSH2 0xC7C JUMPI PUSH2 0xC7B PUSH2 0x23CA JUMP JUMPDEST JUMPDEST SWAP1 PUSH0 MSTORE PUSH1 0x20 PUSH0 KECCAK256 SWAP1 PUSH1 0x3 MUL ADD PUSH0 ADD SLOAD SWAP1 DUP1 PUSH1 0x1 DUP2 SLOAD ADD DUP1 DUP3 SSTORE DUP1 SWAP2 POP POP PUSH1 0x1 SWAP1 SUB SWAP1 PUSH0 MSTORE PUSH1 0x20 PUSH0 KECCAK256 ADD PUSH0 SWAP1 SWAP2 SWAP1 SWAP2 SWAP1 SWAP2 POP SSTORE PUSH1 0x5 PUSH0 DUP2 SLOAD DUP1 SWAP3 SWAP2 SWAP1 PUSH2 0xCC0 SWAP1 PUSH2 0x2878 JUMP JUMPDEST SWAP2 SWAP1 POP SSTORE POP PUSH32 0x4D99B957A2BC29A30EBD96A7BE8E68FE50A3C701DB28A91436490B7D53870CA4 CALLER PUSH1 0x6 DUP4 DUP2 SLOAD DUP2 LT PUSH2 0xCFB JUMPI PUSH2 0xCFA PUSH2 0x23CA JUMP JUMPDEST JUMPDEST SWAP1 PUSH0 MSTORE PUSH1 0x20 PUSH0 KECCAK256 SWAP1 PUSH1 0x3 MUL ADD PUSH0 ADD SLOAD PUSH1 0x40 MLOAD PUSH2 0xD18 SWAP3 SWAP2 SWAP1 PUSH2 0x2A45 JUMP JUMPDEST PUSH1 0x40 MLOAD DUP1 SWAP2 SUB SWAP1 LOG1 POP JUMP JUMPDEST PUSH0 DUP1 PUSH0 SWAP1 SLOAD SWAP1 PUSH2 0x100 EXP SWAP1 DIV PUSH20 0xFFFFFFFFFFFFFFFFFFFFFFFFFFFFFFFFFFFFFFFF AND SWAP1 POP SWAP1 JUMP JUMPDEST PUSH1 0x60 PUSH1 0x3 DUP1 DUP2 GT ISZERO PUSH2 0xD5F JUMPI PUSH2 0xD5E PUSH2 0x21EC JUMP JUMPDEST JUMPDEST PUSH1 0x8 PUSH0 SWAP1 SLOAD SWAP1 PUSH2 0x100 EXP SWAP1 DIV PUSH1 0xFF AND PUSH1 0x3 DUP2 GT ISZERO PUSH2 0xD80 JUMPI PUSH2 0xD7F PUSH2 0x21EC JUMP JUMPDEST JUMPDEST EQ PUSH2 0xDC0 JUMPI PUSH1 0x40 MLOAD PUSH32 0x8C379A000000000000000000000000000000000000000000000000000000000 DUP2 MSTORE PUSH1 0x4 ADD PUSH2 0xDB7 SWAP1 PUSH2 0x22F8 JUMP JUMPDEST PUSH1 0x40 MLOAD DUP1 SWAP2 SUB SWAP1 REVERT JUMPDEST PUSH0 DUP1 JUMPDEST PUSH1 0x6 DUP1 SLOAD SWAP1 POP DUP2 LT ISZERO PUSH2 0xF87 JUMPI PUSH0 PUSH1 0x6 DUP3 DUP2 SLOAD DUP2 LT PUSH2 0xDE5 JUMPI PUSH2 0xDE4 PUSH2 0x23CA JUMP JUMPDEST JUMPDEST SWAP1 PUSH0 MSTORE PUSH1 0x20 PUSH0 KECCAK256 SWAP1 PUSH1 0x3 MUL ADD PUSH1 0x40 MLOAD DUP1 PUSH1 0x60 ADD PUSH1 0x40 MSTORE SWAP1 DUP2 PUSH0 DUP3 ADD SLOAD DUP2 MSTORE PUSH1 0x20 ADD PUSH1 0x1 DUP3 ADD DUP1 SLOAD PUSH2 0xE15 SWAP1 PUSH2 0x24B2 JUMP JUMPDEST DUP1 PUSH1 0x1F ADD PUSH1 0x20 DUP1 SWAP2 DIV MUL PUSH1 0x20 ADD PUSH1 0x40 MLOAD SWAP1 DUP2 ADD PUSH1 0x40 MSTORE DUP1 SWAP3 SWAP2 SWAP1 DUP2 DUP2 MSTORE PUSH1 0x20 ADD DUP3 DUP1 SLOAD PUSH2 0xE41 SWAP1 PUSH2 0x24B2 JUMP JUMPDEST DUP1 ISZERO PUSH2 0xE8C JUMPI DUP1 PUSH1 0x1F LT PUSH2 0xE63 JUMPI PUSH2 0x100 DUP1 DUP4 SLOAD DIV MUL DUP4 MSTORE SWAP2 PUSH1 0x20 ADD SWAP2 PUSH2 0xE8C JUMP JUMPDEST DUP3 ADD SWAP2 SWAP1 PUSH0 MSTORE PUSH1 0x20 PUSH0 KECCAK256 SWAP1 JUMPDEST DUP2 SLOAD DUP2 MSTORE SWAP1 PUSH1 0x1 ADD SWAP1 PUSH1 0x20 ADD DUP1 DUP4 GT PUSH2 0xE6F JUMPI DUP3 SWAP1 SUB PUSH1 0x1F AND DUP3 ADD SWAP2 JUMPDEST POP POP POP POP POP DUP2 MSTORE PUSH1 0x20 ADD PUSH1 0x2 DUP3 ADD SLOAD DUP2 MSTORE POP POP SWAP1 POP DUP3 DUP2 PUSH1 0x40 ADD MLOAD GT ISZERO PUSH2 0xF19 JUMPI PUSH1 0x1 PUSH0 PUSH2 0xEBA SWAP2 SWAP1 PUSH2 0x1D09 JUMP JUMPDEST PUSH1 0x1 DUP2 SWAP1 DUP1 PUSH1 0x1 DUP2 SLOAD ADD DUP1 DUP3 SSTORE DUP1 SWAP2 POP POP PUSH1 0x1 SWAP1 SUB SWAP1 PUSH0 MSTORE PUSH1 0x20 PUSH0 KECCAK256 SWAP1 PUSH1 0x3 MUL ADD PUSH0 SWAP1 SWAP2 SWAP1 SWAP2 SWAP1 SWAP2 POP PUSH0 DUP3 ADD MLOAD DUP2 PUSH0 ADD SSTORE PUSH1 0x20 DUP3 ADD MLOAD DUP2 PUSH1 0x1 ADD SWAP1 DUP2 PUSH2 0xF00 SWAP2 SWAP1 PUSH2 0x277C JUMP JUMPDEST POP PUSH1 0x40 DUP3 ADD MLOAD DUP2 PUSH1 0x2 ADD SSTORE POP POP DUP1 PUSH1 0x40 ADD MLOAD SWAP3 POP PUSH2 0xF79 JUMP JUMPDEST DUP3 DUP2 PUSH1 0x40 ADD MLOAD SUB PUSH2 0xF78 JUMPI PUSH1 0x1 DUP2 SWAP1 DUP1 PUSH1 0x1 DUP2 SLOAD ADD DUP1 DUP3 SSTORE DUP1 SWAP2 POP POP PUSH1 0x1 SWAP1 SUB SWAP1 PUSH0 MSTORE PUSH1 0x20 PUSH0 KECCAK256 SWAP1 PUSH1 0x3 MUL ADD PUSH0 SWAP1 SWAP2 SWAP1 SWAP2 SWAP1 SWAP2 POP PUSH0 DUP3 ADD MLOAD DUP2 PUSH0 ADD SSTORE PUSH1 0x20 DUP3 ADD MLOAD DUP2 PUSH1 0x1 ADD SWAP1 DUP2 PUSH2 0xF6A SWAP2 SWAP1 PUSH2 0x277C JUMP JUMPDEST POP PUSH1 0x40 DUP3 ADD MLOAD DUP2 PUSH1 0x2 ADD SSTORE POP POP JUMPDEST JUMPDEST POP DUP1 DUP1 PUSH1 0x1 ADD SWAP2 POP POP PUSH2 0xDC3 JUMP JUMPDEST POP PUSH1 0x1 DUP1 DUP1 SLOAD SWAP1 POP GT ISZERO PUSH2 0xFCB JUMPI PUSH32 0x9152E2DCCFC44AA8AB1FB145F54B5E72AE0202E28C3CE79D77C70E502C31EAE2 PUSH1 0x40 MLOAD PUSH2 0xFC2 SWAP1 PUSH2 0x2B02 JUMP JUMPDEST PUSH1 0x40 MLOAD DUP1 SWAP2 SUB SWAP1 LOG1 JUMPDEST PUSH1 0x1 DUP1 SLOAD DUP1 PUSH1 0x20 MUL PUSH1 0x20 ADD PUSH1 0x40 MLOAD SWAP1 DUP2 ADD PUSH1 0x40 MSTORE DUP1 SWAP3 SWAP2 SWAP1 DUP2 DUP2 MSTORE PUSH1 0x20 ADD PUSH0 SWAP1 JUMPDEST DUP3 DUP3 LT ISZERO PUSH2 0x10BF JUMPI DUP4 DUP3 SWAP1 PUSH0 MSTORE PUSH1 0x20 PUSH0 KECCAK256 SWAP1 PUSH1 0x3 MUL ADD PUSH1 0x40 MLOAD DUP1 PUSH1 0x60 ADD PUSH1 0x40 MSTORE SWAP1 DUP2 PUSH0 DUP3 ADD SLOAD DUP2 MSTORE PUSH1 0x20 ADD PUSH1 0x1 DUP3 ADD DUP1 SLOAD PUSH2 0x1026 SWAP1 PUSH2 0x24B2 JUMP JUMPDEST DUP1 PUSH1 0x1F ADD PUSH1 0x20 DUP1 SWAP2 DIV MUL PUSH1 0x20 ADD PUSH1 0x40 MLOAD SWAP1 DUP2 ADD PUSH1 0x40 MSTORE DUP1 SWAP3 SWAP2 SWAP1 DUP2 DUP2 MSTORE PUSH1 0x20 ADD DUP3 DUP1 SLOAD PUSH2 0x1052 SWAP1 PUSH2 0x24B2 JUMP JUMPDEST DUP1 ISZERO PUSH2 0x109D JUMPI DUP1 PUSH1 0x1F LT PUSH2 0x1074 JUMPI PUSH2 0x100 DUP1 DUP4 SLOAD DIV MUL DUP4 MSTORE SWAP2 PUSH1 0x20 ADD SWAP2 PUSH2 0x109D JUMP JUMPDEST DUP3 ADD SWAP2 SWAP1 PUSH0 MSTORE PUSH1 0x20 PUSH0 KECCAK256 SWAP1 JUMPDEST DUP2 SLOAD DUP2 MSTORE SWAP1 PUSH1 0x1 ADD SWAP1 PUSH1 0x20 ADD DUP1 DUP4 GT PUSH2 0x1080 JUMPI DUP3 SWAP1 SUB PUSH1 0x1F AND DUP3 ADD SWAP2 JUMPDEST POP POP POP POP POP DUP2 MSTORE PUSH1 0x20 ADD PUSH1 0x2 DUP3 ADD SLOAD DUP2 MSTORE POP POP DUP2 MSTORE PUSH1 0x20 ADD SWAP1 PUSH1 0x1 ADD SWAP1 PUSH2 0xFEC JUMP JUMPDEST POP POP POP POP SWAP2 POP POP SWAP1 JUMP JUMPDEST PUSH1 0x1 ISZERO ISZERO PUSH1 0x2 PUSH0 CALLER PUSH20 0xFFFFFFFFFFFFFFFFFFFFFFFFFFFFFFFFFFFFFFFF AND PUSH20 0xFFFFFFFFFFFFFFFFFFFFFFFFFFFFFFFFFFFFFFFF AND DUP2 MSTORE PUSH1 0x20 ADD SWAP1 DUP2 MSTORE PUSH1 0x20 ADD PUSH0 KECCAK256 PUSH0 ADD PUSH0 SWAP1 SLOAD SWAP1 PUSH2 0x100 EXP SWAP1 DIV PUSH1 0xFF AND ISZERO ISZERO EQ PUSH2 0x115B JUMPI PUSH1 0x40 MLOAD PUSH32 0x8C379A000000000000000000000000000000000000000000000000000000000 DUP2 MSTORE PUSH1 0x4 ADD PUSH2 0x1152 SWAP1 PUSH2 0x252C JUMP JUMPDEST PUSH1 0x40 MLOAD DUP1 SWAP2 SUB SWAP1 REVERT JUMPDEST PUSH0 PUSH1 0x3 DUP2 GT ISZERO PUSH2 0x116E JUMPI PUSH2 0x116D PUSH2 0x21EC JUMP JUMPDEST JUMPDEST PUSH1 0x8 PUSH0 SWAP1 SLOAD SWAP1 PUSH2 0x100 EXP SWAP1 DIV PUSH1 0xFF AND PUSH1 0x3 DUP2 GT ISZERO PUSH2 0x118F JUMPI PUSH2 0x118E PUSH2 0x21EC JUMP JUMPDEST JUMPDEST EQ PUSH2 0x11CF JUMPI PUSH1 0x40 MLOAD PUSH32 0x8C379A000000000000000000000000000000000000000000000000000000000 DUP2 MSTORE PUSH1 0x4 ADD PUSH2 0x11C6 SWAP1 PUSH2 0x2B6A JUMP JUMPDEST PUSH1 0x40 MLOAD DUP1 SWAP2 SUB SWAP1 REVERT JUMPDEST PUSH1 0x2 PUSH0 DUP3 PUSH20 0xFFFFFFFFFFFFFFFFFFFFFFFFFFFFFFFFFFFFFFFF AND PUSH20 0xFFFFFFFFFFFFFFFFFFFFFFFFFFFFFFFFFFFFFFFF AND DUP2 MSTORE PUSH1 0x20 ADD SWAP1 DUP2 MSTORE PUSH1 0x20 ADD PUSH0 KECCAK256 PUSH0 ADD PUSH0 SWAP1 SLOAD SWAP1 PUSH2 0x100 EXP SWAP1 DIV PUSH1 0xFF AND ISZERO PUSH2 0x127A JUMPI PUSH1 0x2 PUSH0 DUP3 PUSH20 0xFFFFFFFFFFFFFFFFFFFFFFFFFFFFFFFFFFFFFFFF AND PUSH20 0xFFFFFFFFFFFFFFFFFFFFFFFFFFFFFFFFFFFFFFFF AND DUP2 MSTORE PUSH1 0x20 ADD SWAP1 DUP2 MSTORE PUSH1 0x20 ADD PUSH0 KECCAK256 PUSH1 0x2 ADD PUSH0 DUP2 SLOAD DUP1 SWAP3 SWAP2 SWAP1 PUSH2 0x1270 SWAP1 PUSH2 0x2878 JUMP JUMPDEST SWAP2 SWAP1 POP SSTORE POP PUSH2 0x1284 JUMP JUMPDEST PUSH2 0x1283 DUP2 PUSH2 0x18FD JUMP JUMPDEST JUMPDEST PUSH2 0x128D CALLER PUSH2 0x1A02 JUMP JUMPDEST POP JUMP JUMPDEST PUSH0 PUSH1 0x8 PUSH0 SWAP1 SLOAD SWAP1 PUSH2 0x100 EXP SWAP1 DIV PUSH1 0xFF AND SWAP1 POP SWAP1 JUMP JUMPDEST PUSH2 0x12AD PUSH2 0x17B5 JUMP JUMPDEST PUSH0 PUSH20 0xFFFFFFFFFFFFFFFFFFFFFFFFFFFFFFFFFFFFFFFF AND DUP2 PUSH20 0xFFFFFFFFFFFFFFFFFFFFFFFFFFFFFFFFFFFFFFFF AND SUB PUSH2 0x131D JUMPI PUSH0 PUSH1 0x40 MLOAD PUSH32 0x1E4FBDF700000000000000000000000000000000000000000000000000000000 DUP2 MSTORE PUSH1 0x4 ADD PUSH2 0x1314 SWAP2 SWAP1 PUSH2 0x217E JUMP JUMPDEST PUSH1 0x40 MLOAD DUP1 SWAP2 SUB SWAP1 REVERT JUMPDEST PUSH2 0x1326 DUP2 PUSH2 0x183C JUMP JUMPDEST POP JUMP JUMPDEST PUSH2 0x1331 PUSH2 0x17B5 JUMP JUMPDEST PUSH0 PUSH1 0x3 DUP2 GT ISZERO PUSH2 0x1344 JUMPI PUSH2 0x1343 PUSH2 0x21EC JUMP JUMPDEST JUMPDEST PUSH1 0x8 PUSH0 SWAP1 SLOAD SWAP1 PUSH2 0x100 EXP SWAP1 DIV PUSH1 0xFF AND PUSH1 0x3 DUP2 GT ISZERO PUSH2 0x1365 JUMPI PUSH2 0x1364 PUSH2 0x21EC JUMP JUMPDEST JUMPDEST EQ PUSH2 0x13A5 JUMPI PUSH1 0x40 MLOAD PUSH32 0x8C379A000000000000000000000000000000000000000000000000000000000 DUP2 MSTORE PUSH1 0x4 ADD PUSH2 0x139C SWAP1 PUSH2 0x2B6A JUMP JUMPDEST PUSH1 0x40 MLOAD DUP1 SWAP2 SUB SWAP1 REVERT JUMPDEST PUSH2 0x13AD PUSH2 0xD23 JUMP JUMPDEST PUSH20 0xFFFFFFFFFFFFFFFFFFFFFFFFFFFFFFFFFFFFFFFF AND DUP2 PUSH20 0xFFFFFFFFFFFFFFFFFFFFFFFFFFFFFFFFFFFFFFFF AND SUB PUSH2 0x141A JUMPI PUSH1 0x40 MLOAD PUSH32 0x8C379A000000000000000000000000000000000000000000000000000000000 DUP2 MSTORE PUSH1 0x4 ADD PUSH2 0x1411 SWAP1 PUSH2 0x2BD2 JUMP JUMPDEST PUSH1 0x40 MLOAD DUP1 SWAP2 SUB SWAP1 REVERT JUMPDEST PUSH0 ISZERO ISZERO PUSH1 0x2 PUSH0 DUP4 PUSH20 0xFFFFFFFFFFFFFFFFFFFFFFFFFFFFFFFFFFFFFFFF AND PUSH20 0xFFFFFFFFFFFFFFFFFFFFFFFFFFFFFFFFFFFFFFFF AND DUP2 MSTORE PUSH1 0x20 ADD SWAP1 DUP2 MSTORE PUSH1 0x20 ADD PUSH0 KECCAK256 PUSH0 ADD PUSH0 SWAP1 SLOAD SWAP1 PUSH2 0x100 EXP SWAP1 DIV PUSH1 0xFF AND ISZERO ISZERO EQ PUSH2 0x14AB JUMPI PUSH1 0x40 MLOAD PUSH32 0x8C379A000000000000000000000000000000000000000000000000000000000 DUP2 MSTORE PUSH1 0x4 ADD PUSH2 0x14A2 SWAP1 PUSH2 0x2C3A JUMP JUMPDEST PUSH1 0x40 MLOAD DUP1 SWAP2 SUB SWAP1 REVERT JUMPDEST PUSH2 0x14B4 DUP2 PUSH2 0x18FD JUMP JUMPDEST PUSH32 0xB6BE2187D059CC2A55FE29E0E503B566E1E0F8C8780096E185429350ACFFD3DD DUP2 PUSH1 0x40 MLOAD PUSH2 0x14E3 SWAP2 SWAP1 PUSH2 0x217E JUMP JUMPDEST PUSH1 0x40 MLOAD DUP1 SWAP2 SUB SWAP1 LOG1 POP JUMP JUMPDEST PUSH2 0x14F6 PUSH2 0x17B5 JUMP JUMPDEST PUSH1 0x3 PUSH0 PUSH1 0x3 DUP2 GT ISZERO PUSH2 0x150B JUMPI PUSH2 0x150A PUSH2 0x21EC JUMP JUMPDEST JUMPDEST PUSH1 0x8 PUSH0 SWAP1 SLOAD SWAP1 PUSH2 0x100 EXP SWAP1 DIV PUSH1 0xFF AND PUSH1 0x3 DUP2 GT ISZERO PUSH2 0x152C JUMPI PUSH2 0x152B PUSH2 0x21EC JUMP JUMPDEST JUMPDEST SUB PUSH2 0x1577 JUMPI DUP1 PUSH1 0x4 SLOAD LT ISZERO PUSH2 0x1576 JUMPI PUSH1 0x40 MLOAD PUSH32 0x8C379A000000000000000000000000000000000000000000000000000000000 DUP2 MSTORE PUSH1 0x4 ADD PUSH2 0x156D SWAP1 PUSH2 0x2CC8 JUMP JUMPDEST PUSH1 0x40 MLOAD DUP1 SWAP2 SUB SWAP1 REVERT JUMPDEST JUMPDEST PUSH1 0x2 PUSH1 0x1 PUSH1 0x3 DUP2 GT ISZERO PUSH2 0x158D JUMPI PUSH2 0x158C PUSH2 0x21EC JUMP JUMPDEST JUMPDEST PUSH1 0x8 PUSH0 SWAP1 SLOAD SWAP1 PUSH2 0x100 EXP SWAP1 DIV PUSH1 0xFF AND PUSH1 0x3 DUP2 GT ISZERO PUSH2 0x15AE JUMPI PUSH2 0x15AD PUSH2 0x21EC JUMP JUMPDEST JUMPDEST SUB PUSH2 0x15F9 JUMPI DUP1 PUSH1 0x7 SLOAD LT ISZERO PUSH2 0x15F8 JUMPI PUSH1 0x40 MLOAD PUSH32 0x8C379A000000000000000000000000000000000000000000000000000000000 DUP2 MSTORE PUSH1 0x4 ADD PUSH2 0x15EF SWAP1 PUSH2 0x2D56 JUMP JUMPDEST PUSH1 0x40 MLOAD DUP1 SWAP2 SUB SWAP1 REVERT JUMPDEST JUMPDEST PUSH1 0x1 PUSH1 0x2 PUSH1 0x3 DUP2 GT ISZERO PUSH2 0x160F JUMPI PUSH2 0x160E PUSH2 0x21EC JUMP JUMPDEST JUMPDEST PUSH1 0x8 PUSH0 SWAP1 SLOAD SWAP1 PUSH2 0x100 EXP SWAP1 DIV PUSH1 0xFF AND PUSH1 0x3 DUP2 GT ISZERO PUSH2 0x1630 JUMPI PUSH2 0x162F PUSH2 0x21EC JUMP JUMPDEST JUMPDEST SUB PUSH2 0x167B JUMPI DUP1 PUSH1 0x5 SLOAD LT ISZERO PUSH2 0x167A JUMPI PUSH1 0x40 MLOAD PUSH32 0x8C379A000000000000000000000000000000000000000000000000000000000 DUP2 MSTORE PUSH1 0x4 ADD PUSH2 0x1671 SWAP1 PUSH2 0x2DE4 JUMP JUMPDEST PUSH1 0x40 MLOAD DUP1 SWAP2 SUB SWAP1 REVERT JUMPDEST JUMPDEST PUSH1 0x3 DUP1 DUP2 GT ISZERO PUSH2 0x168E JUMPI PUSH2 0x168D PUSH2 0x21EC JUMP JUMPDEST JUMPDEST PUSH1 0x8 PUSH0 SWAP1 SLOAD SWAP1 PUSH2 0x100 EXP SWAP1 DIV PUSH1 0xFF AND PUSH1 0x3 DUP2 GT ISZERO PUSH2 0x16AF JUMPI PUSH2 0x16AE PUSH2 0x21EC JUMP JUMPDEST JUMPDEST SUB PUSH2 0x16EF JUMPI PUSH1 0x40 MLOAD PUSH32 0x8C379A000000000000000000000000000000000000000000000000000000000 DUP2 MSTORE PUSH1 0x4 ADD PUSH2 0x16E6 SWAP1 PUSH2 0x2E72 JUMP JUMPDEST PUSH1 0x40 MLOAD DUP1 SWAP2 SUB SWAP1 REVERT JUMPDEST PUSH0 PUSH1 0x8 PUSH0 SWAP1 SLOAD SWAP1 PUSH2 0x100 EXP SWAP1 DIV PUSH1 0xFF AND SWAP1 POP PUSH1 0x1 PUSH1 0x8 PUSH0 SWAP1 SLOAD SWAP1 PUSH2 0x100 EXP SWAP1 DIV PUSH1 0xFF AND PUSH1 0x3 DUP2 GT ISZERO PUSH2 0x1724 JUMPI PUSH2 0x1723 PUSH2 0x21EC JUMP JUMPDEST JUMPDEST PUSH2 0x172E SWAP2 SWAP1 PUSH2 0x2E90 JUMP JUMPDEST PUSH1 0x3 DUP2 GT ISZERO PUSH2 0x1740 JUMPI PUSH2 0x173F PUSH2 0x21EC JUMP JUMPDEST JUMPDEST PUSH1 0x8 PUSH0 PUSH2 0x100 EXP DUP2 SLOAD DUP2 PUSH1 0xFF MUL NOT AND SWAP1 DUP4 PUSH1 0x3 DUP2 GT ISZERO PUSH2 0x1763 JUMPI PUSH2 0x1762 PUSH2 0x21EC JUMP JUMPDEST JUMPDEST MUL OR SWAP1 SSTORE POP PUSH32 0xA97A4EE45751E2ABF3E4FC8946939630B11B371EA8AE39CCDC3056E98F5CC3F DUP2 PUSH1 0x8 PUSH0 SWAP1 SLOAD SWAP1 PUSH2 0x100 EXP SWAP1 DIV PUSH1 0xFF AND PUSH1 0x40 MLOAD PUSH2 0x17A7 SWAP3 SWAP2 SWAP1 PUSH2 0x2EC3 JUMP JUMPDEST PUSH1 0x40 MLOAD DUP1 SWAP2 SUB SWAP1 LOG1 POP POP POP POP JUMP JUMPDEST PUSH2 0x17BD PUSH2 0x1C01 JUMP JUMPDEST PUSH20 0xFFFFFFFFFFFFFFFFFFFFFFFFFFFFFFFFFFFFFFFF AND PUSH2 0x17DB PUSH2 0xD23 JUMP JUMPDEST PUSH20 0xFFFFFFFFFFFFFFFFFFFFFFFFFFFFFFFFFFFFFFFF AND EQ PUSH2 0x183A JUMPI PUSH2 0x17FE PUSH2 0x1C01 JUMP JUMPDEST PUSH1 0x40 MLOAD PUSH32 0x118CDAA700000000000000000000000000000000000000000000000000000000 DUP2 MSTORE PUSH1 0x4 ADD PUSH2 0x1831 SWAP2 SWAP1 PUSH2 0x217E JUMP JUMPDEST PUSH1 0x40 MLOAD DUP1 SWAP2 SUB SWAP1 REVERT JUMPDEST JUMP JUMPDEST PUSH0 DUP1 PUSH0 SWAP1 SLOAD SWAP1 PUSH2 0x100 EXP SWAP1 DIV PUSH20 0xFFFFFFFFFFFFFFFFFFFFFFFFFFFFFFFFFFFFFFFF AND SWAP1 POP DUP2 PUSH0 DUP1 PUSH2 0x100 EXP DUP2 SLOAD DUP2 PUSH20 0xFFFFFFFFFFFFFFFFFFFFFFFFFFFFFFFFFFFFFFFF MUL NOT AND SWAP1 DUP4 PUSH20 0xFFFFFFFFFFFFFFFFFFFFFFFFFFFFFFFFFFFFFFFF AND MUL OR SWAP1 SSTORE POP DUP2 PUSH20 0xFFFFFFFFFFFFFFFFFFFFFFFFFFFFFFFFFFFFFFFF AND DUP2 PUSH20 0xFFFFFFFFFFFFFFFFFFFFFFFFFFFFFFFFFFFFFFFF AND PUSH32 0x8BE0079C531659141344CD1FD0A4F28419497F9722A3DAAFE3B4186F6B6457E0 PUSH1 0x40 MLOAD PUSH1 0x40 MLOAD DUP1 SWAP2 SUB SWAP1 LOG3 POP POP JUMP JUMPDEST PUSH0 PUSH1 0x2 PUSH0 DUP4 PUSH20 0xFFFFFFFFFFFFFFFFFFFFFFFFFFFFFFFFFFFFFFFF AND PUSH20 0xFFFFFFFFFFFFFFFFFFFFFFFFFFFFFFFFFFFFFFFF AND DUP2 MSTORE PUSH1 0x20 ADD SWAP1 DUP2 MSTORE PUSH1 0x20 ADD PUSH0 KECCAK256 PUSH1 0x1 ADD DUP2 SWAP1 SSTORE POP PUSH1 0x1 PUSH1 0x2 PUSH0 DUP4 PUSH20 0xFFFFFFFFFFFFFFFFFFFFFFFFFFFFFFFFFFFFFFFF AND PUSH20 0xFFFFFFFFFFFFFFFFFFFFFFFFFFFFFFFFFFFFFFFF AND DUP2 MSTORE PUSH1 0x20 ADD SWAP1 DUP2 MSTORE PUSH1 0x20 ADD PUSH0 KECCAK256 PUSH1 0x2 ADD DUP2 SWAP1 SSTORE POP PUSH1 0x1 PUSH1 0x2 PUSH0 DUP4 PUSH20 0xFFFFFFFFFFFFFFFFFFFFFFFFFFFFFFFFFFFFFFFF AND PUSH20 0xFFFFFFFFFFFFFFFFFFFFFFFFFFFFFFFFFFFFFFFF AND DUP2 MSTORE PUSH1 0x20 ADD SWAP1 DUP2 MSTORE PUSH1 0x20 ADD PUSH0 KECCAK256 PUSH0 ADD PUSH0 PUSH2 0x100 EXP DUP2 SLOAD DUP2 PUSH1 0xFF MUL NOT AND SWAP1 DUP4 ISZERO ISZERO MUL OR SWAP1 SSTORE POP PUSH2 0x19E8 DUP2 PUSH2 0x1C08 JUMP JUMPDEST PUSH1 0x4 PUSH0 DUP2 SLOAD DUP1 SWAP3 SWAP2 SWAP1 PUSH2 0x19FA SWAP1 PUSH2 0x2878 JUMP JUMPDEST SWAP2 SWAP1 POP SSTORE POP POP JUMP JUMPDEST PUSH0 PUSH1 0x2 PUSH0 DUP4 PUSH20 0xFFFFFFFFFFFFFFFFFFFFFFFFFFFFFFFFFFFFFFFF AND PUSH20 0xFFFFFFFFFFFFFFFFFFFFFFFFFFFFFFFFFFFFFFFF AND DUP2 MSTORE PUSH1 0x20 ADD SWAP1 DUP2 MSTORE PUSH1 0x20 ADD PUSH0 KECCAK256 PUSH0 ADD PUSH0 PUSH2 0x100 EXP DUP2 SLOAD DUP2 PUSH1 0xFF MUL NOT AND SWAP1 DUP4 ISZERO ISZERO MUL OR SWAP1 SSTORE POP PUSH0 PUSH1 0x2 PUSH0 DUP4 PUSH20 0xFFFFFFFFFFFFFFFFFFFFFFFFFFFFFFFFFFFFFFFF AND PUSH20 0xFFFFFFFFFFFFFFFFFFFFFFFFFFFFFFFFFFFFFFFF AND DUP2 MSTORE PUSH1 0x20 ADD SWAP1 DUP2 MSTORE PUSH1 0x20 ADD PUSH0 KECCAK256 PUSH1 0x1 ADD DUP2 SWAP1 SSTORE POP PUSH1 0x1 PUSH1 0x2 PUSH0 DUP4 PUSH20 0xFFFFFFFFFFFFFFFFFFFFFFFFFFFFFFFFFFFFFFFF AND PUSH20 0xFFFFFFFFFFFFFFFFFFFFFFFFFFFFFFFFFFFFFFFF AND DUP2 MSTORE PUSH1 0x20 ADD SWAP1 DUP2 MSTORE PUSH1 0x20 ADD PUSH0 KECCAK256 PUSH1 0x2 ADD DUP2 SWAP1 SSTORE POP PUSH1 0x2 PUSH0 DUP3 PUSH20 0xFFFFFFFFFFFFFFFFFFFFFFFFFFFFFFFFFFFFFFFF AND PUSH20 0xFFFFFFFFFFFFFFFFFFFFFFFFFFFFFFFFFFFFFFFF AND DUP2 MSTORE PUSH1 0x20 ADD SWAP1 DUP2 MSTORE PUSH1 0x20 ADD PUSH0 KECCAK256 PUSH1 0x3 ADD PUSH0 PUSH2 0x1B2E SWAP2 SWAP1 PUSH2 0x1DA5 JUMP JUMPDEST PUSH0 JUMPDEST PUSH1 0x3 DUP1 SLOAD SWAP1 POP DUP2 LT ISZERO PUSH2 0x1BFD JUMPI DUP2 PUSH20 0xFFFFFFFFFFFFFFFFFFFFFFFFFFFFFFFFFFFFFFFF AND PUSH1 0x3 DUP3 DUP2 SLOAD DUP2 LT PUSH2 0x1B68 JUMPI PUSH2 0x1B67 PUSH2 0x23CA JUMP JUMPDEST JUMPDEST SWAP1 PUSH0 MSTORE PUSH1 0x20 PUSH0 KECCAK256 ADD PUSH0 SWAP1 SLOAD SWAP1 PUSH2 0x100 EXP SWAP1 DIV PUSH20 0xFFFFFFFFFFFFFFFFFFFFFFFFFFFFFFFFFFFFFFFF AND PUSH20 0xFFFFFFFFFFFFFFFFFFFFFFFFFFFFFFFFFFFFFFFF AND SUB PUSH2 0x1BF0 JUMPI PUSH1 0x3 DUP1 SLOAD DUP1 PUSH2 0x1BBD JUMPI PUSH2 0x1BBC PUSH2 0x2EEA JUMP JUMPDEST JUMPDEST PUSH1 0x1 SWAP1 SUB DUP2 DUP2 SWAP1 PUSH0 MSTORE PUSH1 0x20 PUSH0 KECCAK256 ADD PUSH0 PUSH2 0x100 EXP DUP2 SLOAD SWAP1 PUSH20 0xFFFFFFFFFFFFFFFFFFFFFFFFFFFFFFFFFFFFFFFF MUL NOT AND SWAP1 SSTORE SWAP1 SSTORE JUMPDEST DUP1 DUP1 PUSH1 0x1 ADD SWAP2 POP POP PUSH2 0x1B30 JUMP JUMPDEST POP POP JUMP JUMPDEST PUSH0 CALLER SWAP1 POP SWAP1 JUMP JUMPDEST PUSH0 DUP1 JUMPDEST PUSH1 0x3 DUP1 SLOAD SWAP1 POP DUP2 LT ISZERO PUSH2 0x1C98 JUMPI DUP3 PUSH20 0xFFFFFFFFFFFFFFFFFFFFFFFFFFFFFFFFFFFFFFFF AND PUSH1 0x3 DUP3 DUP2 SLOAD DUP2 LT PUSH2 0x1C43 JUMPI PUSH2 0x1C42 PUSH2 0x23CA JUMP JUMPDEST JUMPDEST SWAP1 PUSH0 MSTORE PUSH1 0x20 PUSH0 KECCAK256 ADD PUSH0 SWAP1 SLOAD SWAP1 PUSH2 0x100 EXP SWAP1 DIV PUSH20 0xFFFFFFFFFFFFFFFFFFFFFFFFFFFFFFFFFFFFFFFF AND PUSH20 0xFFFFFFFFFFFFFFFFFFFFFFFFFFFFFFFFFFFFFFFF AND SUB PUSH2 0x1C8B JUMPI PUSH1 0x1 SWAP2 POP JUMPDEST DUP1 DUP1 PUSH1 0x1 ADD SWAP2 POP POP PUSH2 0x1C0B JUMP JUMPDEST POP PUSH0 ISZERO ISZERO DUP2 ISZERO ISZERO SUB PUSH2 0x1D05 JUMPI PUSH1 0x3 DUP3 SWAP1 DUP1 PUSH1 0x1 DUP2 SLOAD ADD DUP1 DUP3 SSTORE DUP1 SWAP2 POP POP PUSH1 0x1 SWAP1 SUB SWAP1 PUSH0 MSTORE PUSH1 0x20 PUSH0 KECCAK256 ADD PUSH0 SWAP1 SWAP2 SWAP1 SWAP2 SWAP1 SWAP2 PUSH2 0x100 EXP DUP2 SLOAD DUP2 PUSH20 0xFFFFFFFFFFFFFFFFFFFFFFFFFFFFFFFFFFFFFFFF MUL NOT AND SWAP1 DUP4 PUSH20 0xFFFFFFFFFFFFFFFFFFFFFFFFFFFFFFFFFFFFFFFF AND MUL OR SWAP1 SSTORE POP JUMPDEST POP POP JUMP JUMPDEST POP DUP1 SLOAD PUSH0 DUP3 SSTORE PUSH1 0x3 MUL SWAP1 PUSH0 MSTORE PUSH1 0x20 PUSH0 KECCAK256 SWAP1 DUP2 ADD SWAP1 PUSH2 0x1D27 SWAP2 SWAP1 PUSH2 0x1DE1 JUMP JUMPDEST POP JUMP JUMPDEST DUP3 DUP1 SLOAD DUP3 DUP3 SSTORE SWAP1 PUSH0 MSTORE PUSH1 0x20 PUSH0 KECCAK256 SWAP1 PUSH1 0x3 MUL DUP2 ADD SWAP3 DUP3 ISZERO PUSH2 0x1D94 JUMPI PUSH0 MSTORE PUSH1 0x20 PUSH0 KECCAK256 SWAP2 PUSH1 0x3 MUL DUP3 ADD JUMPDEST DUP3 DUP2 GT ISZERO PUSH2 0x1D93 JUMPI DUP3 DUP3 PUSH0 DUP3 ADD SLOAD DUP2 PUSH0 ADD SSTORE PUSH1 0x1 DUP3 ADD DUP2 PUSH1 0x1 ADD SWAP1 DUP2 PUSH2 0x1D77 SWAP2 SWAP1 PUSH2 0x2F2C JUMP JUMPDEST POP PUSH1 0x2 DUP3 ADD SLOAD DUP2 PUSH1 0x2 ADD SSTORE POP POP SWAP2 PUSH1 0x3 ADD SWAP2 SWAP1 PUSH1 0x3 ADD SWAP1 PUSH2 0x1D51 JUMP JUMPDEST JUMPDEST POP SWAP1 POP PUSH2 0x1DA1 SWAP2 SWAP1 PUSH2 0x1DE1 JUMP JUMPDEST POP SWAP1 JUMP JUMPDEST POP DUP1 SLOAD PUSH0 DUP3 SSTORE SWAP1 PUSH0 MSTORE PUSH1 0x20 PUSH0 KECCAK256 SWAP1 DUP2 ADD SWAP1 PUSH2 0x1DC0 SWAP2 SWAP1 PUSH2 0x1E14 JUMP JUMPDEST POP JUMP JUMPDEST POP DUP1 SLOAD PUSH0 DUP3 SSTORE SWAP1 PUSH0 MSTORE PUSH1 0x20 PUSH0 KECCAK256 SWAP1 DUP2 ADD SWAP1 PUSH2 0x1DDE SWAP2 SWAP1 PUSH2 0x1E14 JUMP JUMPDEST POP JUMP JUMPDEST JUMPDEST DUP1 DUP3 GT ISZERO PUSH2 0x1E10 JUMPI PUSH0 DUP1 DUP3 ADD PUSH0 SWAP1 SSTORE PUSH1 0x1 DUP3 ADD PUSH0 PUSH2 0x1E00 SWAP2 SWAP1 PUSH2 0x1E2F JUMP JUMPDEST PUSH1 0x2 DUP3 ADD PUSH0 SWAP1 SSTORE POP PUSH1 0x3 ADD PUSH2 0x1DE2 JUMP JUMPDEST POP SWAP1 JUMP JUMPDEST JUMPDEST DUP1 DUP3 GT ISZERO PUSH2 0x1E2B JUMPI PUSH0 DUP2 PUSH0 SWAP1 SSTORE POP PUSH1 0x1 ADD PUSH2 0x1E15 JUMP JUMPDEST POP SWAP1 JUMP JUMPDEST POP DUP1 SLOAD PUSH2 0x1E3B SWAP1 PUSH2 0x24B2 JUMP JUMPDEST PUSH0 DUP3 SSTORE DUP1 PUSH1 0x1F LT PUSH2 0x1E4C JUMPI POP PUSH2 0x1E69 JUMP JUMPDEST PUSH1 0x1F ADD PUSH1 0x20 SWAP1 DIV SWAP1 PUSH0 MSTORE PUSH1 0x20 PUSH0 KECCAK256 SWAP1 DUP2 ADD SWAP1 PUSH2 0x1E68 SWAP2 SWAP1 PUSH2 0x1E14 JUMP JUMPDEST JUMPDEST POP JUMP JUMPDEST PUSH0 DUP2 MLOAD SWAP1 POP SWAP2 SWAP1 POP JUMP JUMPDEST PUSH0 DUP3 DUP3 MSTORE PUSH1 0x20 DUP3 ADD SWAP1 POP SWAP3 SWAP2 POP POP JUMP JUMPDEST PUSH0 DUP2 SWAP1 POP PUSH1 0x20 DUP3 ADD SWAP1 POP SWAP2 SWAP1 POP JUMP JUMPDEST PUSH0 DUP2 SWAP1 POP SWAP2 SWAP1 POP JUMP JUMPDEST PUSH2 0x1EA7 DUP2 PUSH2 0x1E95 JUMP JUMPDEST DUP3 MSTORE POP POP JUMP JUMPDEST PUSH0 DUP2 MLOAD SWAP1 POP SWAP2 SWAP1 POP JUMP JUMPDEST PUSH0 DUP3 DUP3 MSTORE PUSH1 0x20 DUP3 ADD SWAP1 POP SWAP3 SWAP2 POP POP JUMP JUMPDEST PUSH0 JUMPDEST DUP4 DUP2 LT ISZERO PUSH2 0x1EE4 JUMPI DUP1 DUP3 ADD MLOAD DUP2 DUP5 ADD MSTORE PUSH1 0x20 DUP2 ADD SWAP1 POP PUSH2 0x1EC9 JUMP JUMPDEST PUSH0 DUP5 DUP5 ADD MSTORE POP POP POP POP JUMP JUMPDEST PUSH0 PUSH1 0x1F NOT PUSH1 0x1F DUP4 ADD AND SWAP1 POP SWAP2 SWAP1 POP JUMP JUMPDEST PUSH0 PUSH2 0x1F09 DUP3 PUSH2 0x1EAD JUMP JUMPDEST PUSH2 0x1F13 DUP2 DUP6 PUSH2 0x1EB7 JUMP JUMPDEST SWAP4 POP PUSH2 0x1F23 DUP2 DUP6 PUSH1 0x20 DUP7 ADD PUSH2 0x1EC7 JUMP JUMPDEST PUSH2 0x1F2C DUP2 PUSH2 0x1EEF JUMP JUMPDEST DUP5 ADD SWAP2 POP POP SWAP3 SWAP2 POP POP JUMP JUMPDEST PUSH0 PUSH1 0x60 DUP4 ADD PUSH0 DUP4 ADD MLOAD PUSH2 0x1F4C PUSH0 DUP7 ADD DUP3 PUSH2 0x1E9E JUMP JUMPDEST POP PUSH1 0x20 DUP4 ADD MLOAD DUP5 DUP3 SUB PUSH1 0x20 DUP7 ADD MSTORE PUSH2 0x1F64 DUP3 DUP3 PUSH2 0x1EFF JUMP JUMPDEST SWAP2 POP POP PUSH1 0x40 DUP4 ADD MLOAD PUSH2 0x1F79 PUSH1 0x40 DUP7 ADD DUP3 PUSH2 0x1E9E JUMP JUMPDEST POP DUP1 SWAP2 POP POP SWAP3 SWAP2 POP POP JUMP JUMPDEST PUSH0 PUSH2 0x1F8F DUP4 DUP4 PUSH2 0x1F37 JUMP JUMPDEST SWAP1 POP SWAP3 SWAP2 POP POP JUMP JUMPDEST PUSH0 PUSH1 0x20 DUP3 ADD SWAP1 POP SWAP2 SWAP1 POP JUMP JUMPDEST PUSH0 PUSH2 0x1FAD DUP3 PUSH2 0x1E6C JUMP JUMPDEST PUSH2 0x1FB7 DUP2 DUP6 PUSH2 0x1E76 JUMP JUMPDEST SWAP4 POP DUP4 PUSH1 0x20 DUP3 MUL DUP6 ADD PUSH2 0x1FC9 DUP6 PUSH2 0x1E86 JUMP JUMPDEST DUP1 PUSH0 JUMPDEST DUP6 DUP2 LT ISZERO PUSH2 0x2004 JUMPI DUP5 DUP5 SUB DUP10 MSTORE DUP2 MLOAD PUSH2 0x1FE5 DUP6 DUP3 PUSH2 0x1F84 JUMP JUMPDEST SWAP5 POP PUSH2 0x1FF0 DUP4 PUSH2 0x1F97 JUMP JUMPDEST SWAP3 POP PUSH1 0x20 DUP11 ADD SWAP10 POP POP PUSH1 0x1 DUP2 ADD SWAP1 POP PUSH2 0x1FCC JUMP JUMPDEST POP DUP3 SWAP8 POP DUP8 SWAP6 POP POP POP POP POP POP SWAP3 SWAP2 POP POP JUMP JUMPDEST PUSH0 PUSH1 0x20 DUP3 ADD SWAP1 POP DUP2 DUP2 SUB PUSH0 DUP4 ADD MSTORE PUSH2 0x202E DUP2 DUP5 PUSH2 0x1FA3 JUMP JUMPDEST SWAP1 POP SWAP3 SWAP2 POP POP JUMP JUMPDEST PUSH0 DUP1 REVERT JUMPDEST PUSH0 DUP1 REVERT JUMPDEST PUSH0 DUP1 REVERT JUMPDEST PUSH0 DUP1 REVERT JUMPDEST PUSH0 DUP1 REVERT JUMPDEST PUSH0 DUP1 DUP4 PUSH1 0x1F DUP5 ADD SLT PUSH2 0x205F JUMPI PUSH2 0x205E PUSH2 0x203E JUMP JUMPDEST JUMPDEST DUP3 CALLDATALOAD SWAP1 POP PUSH8 0xFFFFFFFFFFFFFFFF DUP2 GT ISZERO PUSH2 0x207C JUMPI PUSH2 0x207B PUSH2 0x2042 JUMP JUMPDEST JUMPDEST PUSH1 0x20 DUP4 ADD SWAP2 POP DUP4 PUSH1 0x1 DUP3 MUL DUP4 ADD GT ISZERO PUSH2 0x2098 JUMPI PUSH2 0x2097 PUSH2 0x2046 JUMP JUMPDEST JUMPDEST SWAP3 POP SWAP3 SWAP1 POP JUMP JUMPDEST PUSH0 DUP1 PUSH1 0x20 DUP4 DUP6 SUB SLT ISZERO PUSH2 0x20B5 JUMPI PUSH2 0x20B4 PUSH2 0x2036 JUMP JUMPDEST JUMPDEST PUSH0 DUP4 ADD CALLDATALOAD PUSH8 0xFFFFFFFFFFFFFFFF DUP2 GT ISZERO PUSH2 0x20D2 JUMPI PUSH2 0x20D1 PUSH2 0x203A JUMP JUMPDEST JUMPDEST PUSH2 0x20DE DUP6 DUP3 DUP7 ADD PUSH2 0x204A JUMP JUMPDEST SWAP3 POP SWAP3 POP POP SWAP3 POP SWAP3 SWAP1 POP JUMP JUMPDEST PUSH2 0x20F3 DUP2 PUSH2 0x1E95 JUMP JUMPDEST DUP2 EQ PUSH2 0x20FD JUMPI PUSH0 DUP1 REVERT JUMPDEST POP JUMP JUMPDEST PUSH0 DUP2 CALLDATALOAD SWAP1 POP PUSH2 0x210E DUP2 PUSH2 0x20EA JUMP JUMPDEST SWAP3 SWAP2 POP POP JUMP JUMPDEST PUSH0 PUSH1 0x20 DUP3 DUP5 SUB SLT ISZERO PUSH2 0x2129 JUMPI PUSH2 0x2128 PUSH2 0x2036 JUMP JUMPDEST JUMPDEST PUSH0 PUSH2 0x2136 DUP5 DUP3 DUP6 ADD PUSH2 0x2100 JUMP JUMPDEST SWAP2 POP POP SWAP3 SWAP2 POP POP JUMP JUMPDEST PUSH0 PUSH20 0xFFFFFFFFFFFFFFFFFFFFFFFFFFFFFFFFFFFFFFFF DUP3 AND SWAP1 POP SWAP2 SWAP1 POP JUMP JUMPDEST PUSH0 PUSH2 0x2168 DUP3 PUSH2 0x213F JUMP JUMPDEST SWAP1 POP SWAP2 SWAP1 POP JUMP JUMPDEST PUSH2 0x2178 DUP2 PUSH2 0x215E JUMP JUMPDEST DUP3 MSTORE POP POP JUMP JUMPDEST PUSH0 PUSH1 0x20 DUP3 ADD SWAP1 POP PUSH2 0x2191 PUSH0 DUP4 ADD DUP5 PUSH2 0x216F JUMP JUMPDEST SWAP3 SWAP2 POP POP JUMP JUMPDEST PUSH2 0x21A0 DUP2 PUSH2 0x215E JUMP JUMPDEST DUP2 EQ PUSH2 0x21AA JUMPI PUSH0 DUP1 REVERT JUMPDEST POP JUMP JUMPDEST PUSH0 DUP2 CALLDATALOAD SWAP1 POP PUSH2 0x21BB DUP2 PUSH2 0x2197 JUMP JUMPDEST SWAP3 SWAP2 POP POP JUMP JUMPDEST PUSH0 PUSH1 0x20 DUP3 DUP5 SUB SLT ISZERO PUSH2 0x21D6 JUMPI PUSH2 0x21D5 PUSH2 0x2036 JUMP JUMPDEST JUMPDEST PUSH0 PUSH2 0x21E3 DUP5 DUP3 DUP6 ADD PUSH2 0x21AD JUMP JUMPDEST SWAP2 POP POP SWAP3 SWAP2 POP POP JUMP JUMPDEST PUSH32 0x4E487B7100000000000000000000000000000000000000000000000000000000 PUSH0 MSTORE PUSH1 0x21 PUSH1 0x4 MSTORE PUSH1 0x24 PUSH0 REVERT JUMPDEST PUSH1 0x4 DUP2 LT PUSH2 0x222A JUMPI PUSH2 0x2229 PUSH2 0x21EC JUMP JUMPDEST JUMPDEST POP JUMP JUMPDEST PUSH0 DUP2 SWAP1 POP PUSH2 0x223A DUP3 PUSH2 0x2219 JUMP JUMPDEST SWAP2 SWAP1 POP JUMP JUMPDEST PUSH0 PUSH2 0x2249 DUP3 PUSH2 0x222D JUMP JUMPDEST SWAP1 POP SWAP2 SWAP1 POP JUMP JUMPDEST PUSH2 0x2259 DUP2 PUSH2 0x223F JUMP JUMPDEST DUP3 MSTORE POP POP JUMP JUMPDEST PUSH0 PUSH1 0x20 DUP3 ADD SWAP1 POP PUSH2 0x2272 PUSH0 DUP4 ADD DUP5 PUSH2 0x2250 JUMP JUMPDEST SWAP3 SWAP2 POP POP JUMP JUMPDEST PUSH0 DUP3 DUP3 MSTORE PUSH1 0x20 DUP3 ADD SWAP1 POP SWAP3 SWAP2 POP POP JUMP JUMPDEST PUSH32 0x566F746573206E65656420746F2062652074616C6C69656420696E206F726465 PUSH0 DUP3 ADD MSTORE PUSH32 0x7220746F20706572666F726D2074686973206F7065726174696F6E0000000000 PUSH1 0x20 DUP3 ADD MSTORE POP JUMP JUMPDEST PUSH0 PUSH2 0x22E2 PUSH1 0x3B DUP4 PUSH2 0x2278 JUMP JUMPDEST SWAP2 POP PUSH2 0x22ED DUP3 PUSH2 0x2288 JUMP JUMPDEST PUSH1 0x40 DUP3 ADD SWAP1 POP SWAP2 SWAP1 POP JUMP JUMPDEST PUSH0 PUSH1 0x20 DUP3 ADD SWAP1 POP DUP2 DUP2 SUB PUSH0 DUP4 ADD MSTORE PUSH2 0x230F DUP2 PUSH2 0x22D6 JUMP JUMPDEST SWAP1 POP SWAP2 SWAP1 POP JUMP JUMPDEST PUSH32 0x546865726520617265206E6F20657175616C69747920696E20726573756C7473 PUSH0 DUP3 ADD MSTORE PUSH32 0x20736F20776520646F6E2774206E65656420746F20627265616B207468652074 PUSH1 0x20 DUP3 ADD MSTORE PUSH32 0x6965210000000000000000000000000000000000000000000000000000000000 PUSH1 0x40 DUP3 ADD MSTORE POP JUMP JUMPDEST PUSH0 PUSH2 0x2396 PUSH1 0x43 DUP4 PUSH2 0x2278 JUMP JUMPDEST SWAP2 POP PUSH2 0x23A1 DUP3 PUSH2 0x2316 JUMP JUMPDEST PUSH1 0x60 DUP3 ADD SWAP1 POP SWAP2 SWAP1 POP JUMP JUMPDEST PUSH0 PUSH1 0x20 DUP3 ADD SWAP1 POP DUP2 DUP2 SUB PUSH0 DUP4 ADD MSTORE PUSH2 0x23C3 DUP2 PUSH2 0x238A JUMP JUMPDEST SWAP1 POP SWAP2 SWAP1 POP JUMP JUMPDEST PUSH32 0x4E487B7100000000000000000000000000000000000000000000000000000000 PUSH0 MSTORE PUSH1 0x32 PUSH1 0x4 MSTORE PUSH1 0x24 PUSH0 REVERT JUMPDEST PUSH32 0x546865726520617265206E6F2070726F706F736974696F6E7320726567697374 PUSH0 DUP3 ADD MSTORE PUSH32 0x6572656420796574210000000000000000000000000000000000000000000000 PUSH1 0x20 DUP3 ADD MSTORE POP JUMP JUMPDEST PUSH0 PUSH2 0x2451 PUSH1 0x29 DUP4 PUSH2 0x2278 JUMP JUMPDEST SWAP2 POP PUSH2 0x245C DUP3 PUSH2 0x23F7 JUMP JUMPDEST PUSH1 0x40 DUP3 ADD SWAP1 POP SWAP2 SWAP1 POP JUMP JUMPDEST PUSH0 PUSH1 0x20 DUP3 ADD SWAP1 POP DUP2 DUP2 SUB PUSH0 DUP4 ADD MSTORE PUSH2 0x247E DUP2 PUSH2 0x2445 JUMP JUMPDEST SWAP1 POP SWAP2 SWAP1 POP JUMP JUMPDEST PUSH32 0x4E487B7100000000000000000000000000000000000000000000000000000000 PUSH0 MSTORE PUSH1 0x22 PUSH1 0x4 MSTORE PUSH1 0x24 PUSH0 REVERT JUMPDEST PUSH0 PUSH1 0x2 DUP3 DIV SWAP1 POP PUSH1 0x1 DUP3 AND DUP1 PUSH2 0x24C9 JUMPI PUSH1 0x7F DUP3 AND SWAP2 POP JUMPDEST PUSH1 0x20 DUP3 LT DUP2 SUB PUSH2 0x24DC JUMPI PUSH2 0x24DB PUSH2 0x2485 JUMP JUMPDEST JUMPDEST POP SWAP2 SWAP1 POP JUMP JUMPDEST PUSH32 0x596F7520617265206E6F7420612076616C696420766F74657221000000000000 PUSH0 DUP3 ADD MSTORE POP JUMP JUMPDEST PUSH0 PUSH2 0x2516 PUSH1 0x1A DUP4 PUSH2 0x2278 JUMP JUMPDEST SWAP2 POP PUSH2 0x2521 DUP3 PUSH2 0x24E2 JUMP JUMPDEST PUSH1 0x20 DUP3 ADD SWAP1 POP SWAP2 SWAP1 POP JUMP JUMPDEST PUSH0 PUSH1 0x20 DUP3 ADD SWAP1 POP DUP2 DUP2 SUB PUSH0 DUP4 ADD MSTORE PUSH2 0x2543 DUP2 PUSH2 0x250A JUMP JUMPDEST SWAP1 POP SWAP2 SWAP1 POP JUMP JUMPDEST PUSH32 0x596F752063616E6E6F742072656769737465722070726F706F73616C73000000 PUSH0 DUP3 ADD MSTORE POP JUMP JUMPDEST PUSH0 PUSH2 0x257E PUSH1 0x1D DUP4 PUSH2 0x2278 JUMP JUMPDEST SWAP2 POP PUSH2 0x2589 DUP3 PUSH2 0x254A JUMP JUMPDEST PUSH1 0x20 DUP3 ADD SWAP1 POP SWAP2 SWAP1 POP JUMP JUMPDEST PUSH0 PUSH1 0x20 DUP3 ADD SWAP1 POP DUP2 DUP2 SUB PUSH0 DUP4 ADD MSTORE PUSH2 0x25AB DUP2 PUSH2 0x2572 JUMP JUMPDEST SWAP1 POP SWAP2 SWAP1 POP JUMP JUMPDEST PUSH32 0x4E487B7100000000000000000000000000000000000000000000000000000000 PUSH0 MSTORE PUSH1 0x41 PUSH1 0x4 MSTORE PUSH1 0x24 PUSH0 REVERT JUMPDEST PUSH0 DUP2 SWAP1 POP DUP2 PUSH0 MSTORE PUSH1 0x20 PUSH0 KECCAK256 SWAP1 POP SWAP2 SWAP1 POP JUMP JUMPDEST PUSH0 PUSH1 0x20 PUSH1 0x1F DUP4 ADD DIV SWAP1 POP SWAP2 SWAP1 POP JUMP JUMPDEST PUSH0 DUP3 DUP3 SHL SWAP1 POP SWAP3 SWAP2 POP POP JUMP JUMPDEST PUSH0 PUSH1 0x8 DUP4 MUL PUSH2 0x263B PUSH32 0xFFFFFFFFFFFFFFFFFFFFFFFFFFFFFFFFFFFFFFFFFFFFFFFFFFFFFFFFFFFFFFFF DUP3 PUSH2 0x2600 JUMP JUMPDEST PUSH2 0x2645 DUP7 DUP4 PUSH2 0x2600 JUMP JUMPDEST SWAP6 POP DUP1 NOT DUP5 AND SWAP4 POP DUP1 DUP7 AND DUP5 OR SWAP3 POP POP POP SWAP4 SWAP3 POP POP POP JUMP JUMPDEST PUSH0 DUP2 SWAP1 POP SWAP2 SWAP1 POP JUMP JUMPDEST PUSH0 PUSH2 0x2680 PUSH2 0x267B PUSH2 0x2676 DUP5 PUSH2 0x1E95 JUMP JUMPDEST PUSH2 0x265D JUMP JUMPDEST PUSH2 0x1E95 JUMP JUMPDEST SWAP1 POP SWAP2 SWAP1 POP JUMP JUMPDEST PUSH0 DUP2 SWAP1 POP SWAP2 SWAP1 POP JUMP JUMPDEST PUSH2 0x2699 DUP4 PUSH2 0x2666 JUMP JUMPDEST PUSH2 0x26AD PUSH2 0x26A5 DUP3 PUSH2 0x2687 JUMP JUMPDEST DUP5 DUP5 SLOAD PUSH2 0x260C JUMP JUMPDEST DUP3 SSTORE POP POP POP POP JUMP JUMPDEST PUSH0 SWAP1 JUMP JUMPDEST PUSH2 0x26C1 PUSH2 0x26B5 JUMP JUMPDEST PUSH2 0x26CC DUP2 DUP5 DUP5 PUSH2 0x2690 JUMP JUMPDEST POP POP POP JUMP JUMPDEST JUMPDEST DUP2 DUP2 LT ISZERO PUSH2 0x26EF JUMPI PUSH2 0x26E4 PUSH0 DUP3 PUSH2 0x26B9 JUMP JUMPDEST PUSH1 0x1 DUP2 ADD SWAP1 POP PUSH2 0x26D2 JUMP JUMPDEST POP POP JUMP JUMPDEST PUSH1 0x1F DUP3 GT ISZERO PUSH2 0x2734 JUMPI PUSH2 0x2705 DUP2 PUSH2 0x25DF JUMP JUMPDEST PUSH2 0x270E DUP5 PUSH2 0x25F1 JUMP JUMPDEST DUP2 ADD PUSH1 0x20 DUP6 LT ISZERO PUSH2 0x271D JUMPI DUP2 SWAP1 POP JUMPDEST PUSH2 0x2731 PUSH2 0x2729 DUP6 PUSH2 0x25F1 JUMP JUMPDEST DUP4 ADD DUP3 PUSH2 0x26D1 JUMP JUMPDEST POP POP JUMPDEST POP POP POP JUMP JUMPDEST PUSH0 DUP3 DUP3 SHR SWAP1 POP SWAP3 SWAP2 POP POP JUMP JUMPDEST PUSH0 PUSH2 0x2754 PUSH0 NOT DUP5 PUSH1 0x8 MUL PUSH2 0x2739 JUMP JUMPDEST NOT DUP1 DUP4 AND SWAP2 POP POP SWAP3 SWAP2 POP POP JUMP JUMPDEST PUSH0 PUSH2 0x276C DUP4 DUP4 PUSH2 0x2745 JUMP JUMPDEST SWAP2 POP DUP3 PUSH1 0x2 MUL DUP3 OR SWAP1 POP SWAP3 SWAP2 POP POP JUMP JUMPDEST PUSH2 0x2785 DUP3 PUSH2 0x1EAD JUMP JUMPDEST PUSH8 0xFFFFFFFFFFFFFFFF DUP2 GT ISZERO PUSH2 0x279E JUMPI PUSH2 0x279D PUSH2 0x25B2 JUMP JUMPDEST JUMPDEST PUSH2 0x27A8 DUP3 SLOAD PUSH2 0x24B2 JUMP JUMPDEST PUSH2 0x27B3 DUP3 DUP3 DUP6 PUSH2 0x26F3 JUMP JUMPDEST PUSH0 PUSH1 0x20 SWAP1 POP PUSH1 0x1F DUP4 GT PUSH1 0x1 DUP2 EQ PUSH2 0x27E4 JUMPI PUSH0 DUP5 ISZERO PUSH2 0x27D2 JUMPI DUP3 DUP8 ADD MLOAD SWAP1 POP JUMPDEST PUSH2 0x27DC DUP6 DUP3 PUSH2 0x2761 JUMP JUMPDEST DUP7 SSTORE POP PUSH2 0x2843 JUMP JUMPDEST PUSH1 0x1F NOT DUP5 AND PUSH2 0x27F2 DUP7 PUSH2 0x25DF JUMP JUMPDEST PUSH0 JUMPDEST DUP3 DUP2 LT ISZERO PUSH2 0x2819 JUMPI DUP5 DUP10 ADD MLOAD DUP3 SSTORE PUSH1 0x1 DUP3 ADD SWAP2 POP PUSH1 0x20 DUP6 ADD SWAP5 POP PUSH1 0x20 DUP2 ADD SWAP1 POP PUSH2 0x27F4 JUMP JUMPDEST DUP7 DUP4 LT ISZERO PUSH2 0x2836 JUMPI DUP5 DUP10 ADD MLOAD PUSH2 0x2832 PUSH1 0x1F DUP10 AND DUP3 PUSH2 0x2745 JUMP JUMPDEST DUP4 SSTORE POP JUMPDEST PUSH1 0x1 PUSH1 0x2 DUP9 MUL ADD DUP9 SSTORE POP POP POP JUMPDEST POP POP POP POP POP POP JUMP JUMPDEST PUSH32 0x4E487B7100000000000000000000000000000000000000000000000000000000 PUSH0 MSTORE PUSH1 0x11 PUSH1 0x4 MSTORE PUSH1 0x24 PUSH0 REVERT JUMPDEST PUSH0 PUSH2 0x2882 DUP3 PUSH2 0x1E95 JUMP JUMPDEST SWAP2 POP PUSH32 0xFFFFFFFFFFFFFFFFFFFFFFFFFFFFFFFFFFFFFFFFFFFFFFFFFFFFFFFFFFFFFFFF DUP3 SUB PUSH2 0x28B4 JUMPI PUSH2 0x28B3 PUSH2 0x284B JUMP JUMPDEST JUMPDEST PUSH1 0x1 DUP3 ADD SWAP1 POP SWAP2 SWAP1 POP JUMP JUMPDEST PUSH2 0x28C8 DUP2 PUSH2 0x1E95 JUMP JUMPDEST DUP3 MSTORE POP POP JUMP JUMPDEST PUSH0 PUSH1 0x20 DUP3 ADD SWAP1 POP PUSH2 0x28E1 PUSH0 DUP4 ADD DUP5 PUSH2 0x28BF JUMP JUMPDEST SWAP3 SWAP2 POP POP JUMP JUMPDEST PUSH32 0x596F752063616E6E6F7420766F74652070726F706F73616C7300000000000000 PUSH0 DUP3 ADD MSTORE POP JUMP JUMPDEST PUSH0 PUSH2 0x291B PUSH1 0x19 DUP4 PUSH2 0x2278 JUMP JUMPDEST SWAP2 POP PUSH2 0x2926 DUP3 PUSH2 0x28E7 JUMP JUMPDEST PUSH1 0x20 DUP3 ADD SWAP1 POP SWAP2 SWAP1 POP JUMP JUMPDEST PUSH0 PUSH1 0x20 DUP3 ADD SWAP1 POP DUP2 DUP2 SUB PUSH0 DUP4 ADD MSTORE PUSH2 0x2948 DUP2 PUSH2 0x290F JUMP JUMPDEST SWAP1 POP SWAP2 SWAP1 POP JUMP JUMPDEST PUSH32 0x596F7520616C7265616479207573656420616C6C20796F757220766F74657321 PUSH0 DUP3 ADD MSTORE POP JUMP JUMPDEST PUSH0 PUSH2 0x2983 PUSH1 0x20 DUP4 PUSH2 0x2278 JUMP JUMPDEST SWAP2 POP PUSH2 0x298E DUP3 PUSH2 0x294F JUMP JUMPDEST PUSH1 0x20 DUP3 ADD SWAP1 POP SWAP2 SWAP1 POP JUMP JUMPDEST PUSH0 PUSH1 0x20 DUP3 ADD SWAP1 POP DUP2 DUP2 SUB PUSH0 DUP4 ADD MSTORE PUSH2 0x29B0 DUP2 PUSH2 0x2977 JUMP JUMPDEST SWAP1 POP SWAP2 SWAP1 POP JUMP JUMPDEST PUSH32 0x5468652070726F706F736974696F6E20796F7527726520766F74696E6720666F PUSH0 DUP3 ADD MSTORE PUSH32 0x7220646F6573206E6F7420657869737421000000000000000000000000000000 PUSH1 0x20 DUP3 ADD MSTORE POP JUMP JUMPDEST PUSH0 PUSH2 0x2A11 PUSH1 0x31 DUP4 PUSH2 0x2278 JUMP JUMPDEST SWAP2 POP PUSH2 0x2A1C DUP3 PUSH2 0x29B7 JUMP JUMPDEST PUSH1 0x40 DUP3 ADD SWAP1 POP SWAP2 SWAP1 POP JUMP JUMPDEST PUSH0 PUSH1 0x20 DUP3 ADD SWAP1 POP DUP2 DUP2 SUB PUSH0 DUP4 ADD MSTORE PUSH2 0x2A3E DUP2 PUSH2 0x2A05 JUMP JUMPDEST SWAP1 POP SWAP2 SWAP1 POP JUMP JUMPDEST PUSH0 PUSH1 0x40 DUP3 ADD SWAP1 POP PUSH2 0x2A58 PUSH0 DUP4 ADD DUP6 PUSH2 0x216F JUMP JUMPDEST PUSH2 0x2A65 PUSH1 0x20 DUP4 ADD DUP5 PUSH2 0x28BF JUMP JUMPDEST SWAP4 SWAP3 POP POP POP JUMP JUMPDEST PUSH32 0x596F75206D75737420766F746520616761696E20666F72206F6E65206F662074 PUSH0 DUP3 ADD MSTORE PUSH32 0x68652070726F706F736974696F6E73207768696368207175616C696669656420 PUSH1 0x20 DUP3 ADD MSTORE PUSH32 0x70726576696F75736C7921000000000000000000000000000000000000000000 PUSH1 0x40 DUP3 ADD MSTORE POP JUMP JUMPDEST PUSH0 PUSH2 0x2AEC PUSH1 0x4B DUP4 PUSH2 0x2278 JUMP JUMPDEST SWAP2 POP PUSH2 0x2AF7 DUP3 PUSH2 0x2A6C JUMP JUMPDEST PUSH1 0x60 DUP3 ADD SWAP1 POP SWAP2 SWAP1 POP JUMP JUMPDEST PUSH0 PUSH1 0x20 DUP3 ADD SWAP1 POP DUP2 DUP2 SUB PUSH0 DUP4 ADD MSTORE PUSH2 0x2B19 DUP2 PUSH2 0x2AE0 JUMP JUMPDEST SWAP1 POP SWAP2 SWAP1 POP JUMP JUMPDEST PUSH32 0x596F752063616E6E6F7420726567697374657220766F74657273000000000000 PUSH0 DUP3 ADD MSTORE POP JUMP JUMPDEST PUSH0 PUSH2 0x2B54 PUSH1 0x1A DUP4 PUSH2 0x2278 JUMP JUMPDEST SWAP2 POP PUSH2 0x2B5F DUP3 PUSH2 0x2B20 JUMP JUMPDEST PUSH1 0x20 DUP3 ADD SWAP1 POP SWAP2 SWAP1 POP JUMP JUMPDEST PUSH0 PUSH1 0x20 DUP3 ADD SWAP1 POP DUP2 DUP2 SUB PUSH0 DUP4 ADD MSTORE PUSH2 0x2B81 DUP2 PUSH2 0x2B48 JUMP JUMPDEST SWAP1 POP SWAP2 SWAP1 POP JUMP JUMPDEST PUSH32 0x4F776E65722063616E6E6F7420766F7465210000000000000000000000000000 PUSH0 DUP3 ADD MSTORE POP JUMP JUMPDEST PUSH0 PUSH2 0x2BBC PUSH1 0x12 DUP4 PUSH2 0x2278 JUMP JUMPDEST SWAP2 POP PUSH2 0x2BC7 DUP3 PUSH2 0x2B88 JUMP JUMPDEST PUSH1 0x20 DUP3 ADD SWAP1 POP SWAP2 SWAP1 POP JUMP JUMPDEST PUSH0 PUSH1 0x20 DUP3 ADD SWAP1 POP DUP2 DUP2 SUB PUSH0 DUP4 ADD MSTORE PUSH2 0x2BE9 DUP2 PUSH2 0x2BB0 JUMP JUMPDEST SWAP1 POP SWAP2 SWAP1 POP JUMP JUMPDEST PUSH32 0x566F74657220616C726561647920726567697374657265642100000000000000 PUSH0 DUP3 ADD MSTORE POP JUMP JUMPDEST PUSH0 PUSH2 0x2C24 PUSH1 0x19 DUP4 PUSH2 0x2278 JUMP JUMPDEST SWAP2 POP PUSH2 0x2C2F DUP3 PUSH2 0x2BF0 JUMP JUMPDEST PUSH1 0x20 DUP3 ADD SWAP1 POP SWAP2 SWAP1 POP JUMP JUMPDEST PUSH0 PUSH1 0x20 DUP3 ADD SWAP1 POP DUP2 DUP2 SUB PUSH0 DUP4 ADD MSTORE PUSH2 0x2C51 DUP2 PUSH2 0x2C18 JUMP JUMPDEST SWAP1 POP SWAP2 SWAP1 POP JUMP JUMPDEST PUSH32 0x41206D696E696D756D206E756D626572206F6620766F74657273206172652072 PUSH0 DUP3 ADD MSTORE PUSH32 0x6571756972656420746F20636F6E74696E756500000000000000000000000000 PUSH1 0x20 DUP3 ADD MSTORE POP JUMP JUMPDEST PUSH0 PUSH2 0x2CB2 PUSH1 0x33 DUP4 PUSH2 0x2278 JUMP JUMPDEST SWAP2 POP PUSH2 0x2CBD DUP3 PUSH2 0x2C58 JUMP JUMPDEST PUSH1 0x40 DUP3 ADD SWAP1 POP SWAP2 SWAP1 POP JUMP JUMPDEST PUSH0 PUSH1 0x20 DUP3 ADD SWAP1 POP DUP2 DUP2 SUB PUSH0 DUP4 ADD MSTORE PUSH2 0x2CDF DUP2 PUSH2 0x2CA6 JUMP JUMPDEST SWAP1 POP SWAP2 SWAP1 POP JUMP JUMPDEST PUSH32 0x41206D696E696D756D206E756D626572206F662070726F706F736974696F6E73 PUSH0 DUP3 ADD MSTORE PUSH32 0x2061726520726571756972656420746F20636F6E74696E756500000000000000 PUSH1 0x20 DUP3 ADD MSTORE POP JUMP JUMPDEST PUSH0 PUSH2 0x2D40 PUSH1 0x39 DUP4 PUSH2 0x2278 JUMP JUMPDEST SWAP2 POP PUSH2 0x2D4B DUP3 PUSH2 0x2CE6 JUMP JUMPDEST PUSH1 0x40 DUP3 ADD SWAP1 POP SWAP2 SWAP1 POP JUMP JUMPDEST PUSH0 PUSH1 0x20 DUP3 ADD SWAP1 POP DUP2 DUP2 SUB PUSH0 DUP4 ADD MSTORE PUSH2 0x2D6D DUP2 PUSH2 0x2D34 JUMP JUMPDEST SWAP1 POP SWAP2 SWAP1 POP JUMP JUMPDEST PUSH32 0x41206D696E696D756D206E756D626572206F6620766F74657320617265207265 PUSH0 DUP3 ADD MSTORE PUSH32 0x71756972656420746F20636F6E74696E75650000000000000000000000000000 PUSH1 0x20 DUP3 ADD MSTORE POP JUMP JUMPDEST PUSH0 PUSH2 0x2DCE PUSH1 0x32 DUP4 PUSH2 0x2278 JUMP JUMPDEST SWAP2 POP PUSH2 0x2DD9 DUP3 PUSH2 0x2D74 JUMP JUMPDEST PUSH1 0x40 DUP3 ADD SWAP1 POP SWAP2 SWAP1 POP JUMP JUMPDEST PUSH0 PUSH1 0x20 DUP3 ADD SWAP1 POP DUP2 DUP2 SUB PUSH0 DUP4 ADD MSTORE PUSH2 0x2DFB DUP2 PUSH2 0x2DC2 JUMP JUMPDEST SWAP1 POP SWAP2 SWAP1 POP JUMP JUMPDEST PUSH32 0x566F7465732068617665206265656E2074616C6C6965642E204974206973206F PUSH0 DUP3 ADD MSTORE PUSH32 0x7665722E205468657265206973206E6F206E6578742073746570210000000000 PUSH1 0x20 DUP3 ADD MSTORE POP JUMP JUMPDEST PUSH0 PUSH2 0x2E5C PUSH1 0x3B DUP4 PUSH2 0x2278 JUMP JUMPDEST SWAP2 POP PUSH2 0x2E67 DUP3 PUSH2 0x2E02 JUMP JUMPDEST PUSH1 0x40 DUP3 ADD SWAP1 POP SWAP2 SWAP1 POP JUMP JUMPDEST PUSH0 PUSH1 0x20 DUP3 ADD SWAP1 POP DUP2 DUP2 SUB PUSH0 DUP4 ADD MSTORE PUSH2 0x2E89 DUP2 PUSH2 0x2E50 JUMP JUMPDEST SWAP1 POP SWAP2 SWAP1 POP JUMP JUMPDEST PUSH0 PUSH2 0x2E9A DUP3 PUSH2 0x1E95 JUMP JUMPDEST SWAP2 POP PUSH2 0x2EA5 DUP4 PUSH2 0x1E95 JUMP JUMPDEST SWAP3 POP DUP3 DUP3 ADD SWAP1 POP DUP1 DUP3 GT ISZERO PUSH2 0x2EBD JUMPI PUSH2 0x2EBC PUSH2 0x284B JUMP JUMPDEST JUMPDEST SWAP3 SWAP2 POP POP JUMP JUMPDEST PUSH0 PUSH1 0x40 DUP3 ADD SWAP1 POP PUSH2 0x2ED6 PUSH0 DUP4 ADD DUP6 PUSH2 0x2250 JUMP JUMPDEST PUSH2 0x2EE3 PUSH1 0x20 DUP4 ADD DUP5 PUSH2 0x2250 JUMP JUMPDEST SWAP4 SWAP3 POP POP POP JUMP JUMPDEST PUSH32 0x4E487B7100000000000000000000000000000000000000000000000000000000 PUSH0 MSTORE PUSH1 0x31 PUSH1 0x4 MSTORE PUSH1 0x24 PUSH0 REVERT JUMPDEST PUSH0 DUP2 SLOAD SWAP1 POP PUSH2 0x2F25 DUP2 PUSH2 0x24B2 JUMP JUMPDEST SWAP1 POP SWAP2 SWAP1 POP JUMP JUMPDEST DUP2 DUP2 SUB PUSH2 0x2F3A JUMPI POP POP PUSH2 0x300F JUMP JUMPDEST PUSH2 0x2F43 DUP3 PUSH2 0x2F17 JUMP JUMPDEST PUSH8 0xFFFFFFFFFFFFFFFF DUP2 GT ISZERO PUSH2 0x2F5C JUMPI PUSH2 0x2F5B PUSH2 0x25B2 JUMP JUMPDEST JUMPDEST PUSH2 0x2F66 DUP3 SLOAD PUSH2 0x24B2 JUMP JUMPDEST PUSH2 0x2F71 DUP3 DUP3 DUP6 PUSH2 0x26F3 JUMP JUMPDEST PUSH0 PUSH1 0x1F DUP4 GT PUSH1 0x1 DUP2 EQ PUSH2 0x2F9E JUMPI PUSH0 DUP5 ISZERO PUSH2 0x2F8C JUMPI DUP3 DUP8 ADD SLOAD SWAP1 POP JUMPDEST PUSH2 0x2F96 DUP6 DUP3 PUSH2 0x2761 JUMP JUMPDEST DUP7 SSTORE POP PUSH2 0x3008 JUMP JUMPDEST PUSH1 0x1F NOT DUP5 AND PUSH2 0x2FAC DUP8 PUSH2 0x25DF JUMP JUMPDEST SWAP7 POP PUSH2 0x2FB7 DUP7 PUSH2 0x25DF JUMP JUMPDEST PUSH0 JUMPDEST DUP3 DUP2 LT ISZERO PUSH2 0x2FDE JUMPI DUP5 DUP10 ADD SLOAD DUP3 SSTORE PUSH1 0x1 DUP3 ADD SWAP2 POP PUSH1 0x1 DUP6 ADD SWAP5 POP PUSH1 0x20 DUP2 ADD SWAP1 POP PUSH2 0x2FB9 JUMP JUMPDEST DUP7 DUP4 LT ISZERO PUSH2 0x2FFB JUMPI DUP5 DUP10 ADD SLOAD PUSH2 0x2FF7 PUSH1 0x1F DUP10 AND DUP3 PUSH2 0x2745 JUMP JUMPDEST DUP4 SSTORE POP JUMPDEST PUSH1 0x1 PUSH1 0x2 DUP9 MUL ADD DUP9 SSTORE POP POP POP JUMPDEST POP POP POP POP POP POP JUMPDEST JUMP INVALID LOG2 PUSH5 0x6970667358 0x22 SLT KECCAK256 SELFDESTRUCT 0xB6 0x4B 0xE4 0xE2 0xAC 0xBD PUSH11 0x6745856577BBB68D9A2B4D MULMOD DUP9 DELEGATECALL DUP4 PUSH6 0xEE56D3AF2738 0xA8 SELFBALANCE PUSH5 0x736F6C6343 STOP ADDMOD OR STOP CALLER "
				},
				"gasEstimates": {
					"creation": {
						"codeDepositCost": "2471800",
						"executionCost": "infinite",
						"totalCost": "infinite"
					},
					"external": {
						"addProposal(string)": "infinite",
						"addVoter(address)": "infinite",
						"delegateVote(address)": "infinite",
						"getCurrentVoteStep()": "2583",
						"getWinner()": "infinite",
						"listProposals()": "infinite",
						"nextVoteStep()": "infinite",
						"owner()": "2538",
						"processEquality()": "infinite",
						"renounceOwnership()": "infinite",
						"restartVoteFromScratch()": "infinite",
						"transferOwnership(address)": "infinite",
						"voteForProposition(uint256)": "infinite"
					},
					"internal": {
						"addVoterInternal(address)": "infinite",
						"deleteVoter(address)": "infinite",
						"registerVoterKey(address)": "infinite"
					}
				},
				"methodIdentifiers": {
					"addProposal(string)": "2fdae3c5",
					"addVoter(address)": "f4ab9adf",
					"delegateVote(address)": "b31e1d4d",
					"getCurrentVoteStep()": "e77aa682",
					"getWinner()": "8e7ea5b2",
					"listProposals()": "26c7eb1c",
					"nextVoteStep()": "fd20255c",
					"owner()": "8da5cb5b",
					"processEquality()": "1d533571",
					"renounceOwnership()": "715018a6",
					"restartVoteFromScratch()": "6334ef66",
					"transferOwnership(address)": "f2fde38b",
					"voteForProposition(uint256)": "746536b5"
				}
			},
			"storageLayout": {
				"storage": [
					{
						"astId": 834,
						"contract": "VotingPlus.sol:VotingPlus",
						"label": "_owner",
						"offset": 0,
						"slot": "0",
						"type": "t_address"
					},
					{
						"astId": 37,
						"contract": "VotingPlus.sol:VotingPlus",
						"label": "winners",
						"offset": 0,
						"slot": "1",
						"type": "t_array(t_struct(Proposal)107_storage)dyn_storage"
					},
					{
						"astId": 54,
						"contract": "VotingPlus.sol:VotingPlus",
						"label": "voters",
						"offset": 0,
						"slot": "2",
						"type": "t_mapping(t_address,t_struct(Voter)48_storage)"
					},
					{
						"astId": 57,
						"contract": "VotingPlus.sol:VotingPlus",
						"label": "votersKeys",
						"offset": 0,
						"slot": "3",
						"type": "t_array(t_address)dyn_storage"
					},
					{
						"astId": 60,
						"contract": "VotingPlus.sol:VotingPlus",
						"label": "votersNumber",
						"offset": 0,
						"slot": "4",
						"type": "t_uint256"
					},
					{
						"astId": 63,
						"contract": "VotingPlus.sol:VotingPlus",
						"label": "atLeastOneVote",
						"offset": 0,
						"slot": "5",
						"type": "t_uint256"
					},
					{
						"astId": 112,
						"contract": "VotingPlus.sol:VotingPlus",
						"label": "proposals",
						"offset": 0,
						"slot": "6",
						"type": "t_array(t_struct(Proposal)107_storage)dyn_storage"
					},
					{
						"astId": 115,
						"contract": "VotingPlus.sol:VotingPlus",
						"label": "proposalIdCounter",
						"offset": 0,
						"slot": "7",
						"type": "t_uint256"
					},
					{
						"astId": 125,
						"contract": "VotingPlus.sol:VotingPlus",
						"label": "currentVoteState",
						"offset": 0,
						"slot": "8",
						"type": "t_enum(WorkflowStatus)121"
					}
				],
				"types": {
					"t_address": {
						"encoding": "inplace",
						"label": "address",
						"numberOfBytes": "20"
					},
					"t_array(t_address)dyn_storage": {
						"base": "t_address",
						"encoding": "dynamic_array",
						"label": "address[]",
						"numberOfBytes": "32"
					},
					"t_array(t_struct(Proposal)107_storage)dyn_storage": {
						"base": "t_struct(Proposal)107_storage",
						"encoding": "dynamic_array",
						"label": "struct VotingPlus.Proposal[]",
						"numberOfBytes": "32"
					},
					"t_array(t_uint256)dyn_storage": {
						"base": "t_uint256",
						"encoding": "dynamic_array",
						"label": "uint256[]",
						"numberOfBytes": "32"
					},
					"t_bool": {
						"encoding": "inplace",
						"label": "bool",
						"numberOfBytes": "1"
					},
					"t_enum(WorkflowStatus)121": {
						"encoding": "inplace",
						"label": "enum VotingPlus.WorkflowStatus",
						"numberOfBytes": "1"
					},
					"t_mapping(t_address,t_struct(Voter)48_storage)": {
						"encoding": "mapping",
						"key": "t_address",
						"label": "mapping(address => struct VotingPlus.Voter)",
						"numberOfBytes": "32",
						"value": "t_struct(Voter)48_storage"
					},
					"t_string_storage": {
						"encoding": "bytes",
						"label": "string",
						"numberOfBytes": "32"
					},
					"t_struct(Proposal)107_storage": {
						"encoding": "inplace",
						"label": "struct VotingPlus.Proposal",
						"members": [
							{
								"astId": 102,
								"contract": "VotingPlus.sol:VotingPlus",
								"label": "id",
								"offset": 0,
								"slot": "0",
								"type": "t_uint256"
							},
							{
								"astId": 104,
								"contract": "VotingPlus.sol:VotingPlus",
								"label": "description",
								"offset": 0,
								"slot": "1",
								"type": "t_string_storage"
							},
							{
								"astId": 106,
								"contract": "VotingPlus.sol:VotingPlus",
								"label": "voteCount",
								"offset": 0,
								"slot": "2",
								"type": "t_uint256"
							}
						],
						"numberOfBytes": "96"
					},
					"t_struct(Voter)48_storage": {
						"encoding": "inplace",
						"label": "struct VotingPlus.Voter",
						"members": [
							{
								"astId": 40,
								"contract": "VotingPlus.sol:VotingPlus",
								"label": "isRegistered",
								"offset": 0,
								"slot": "0",
								"type": "t_bool"
							},
							{
								"astId": 42,
								"contract": "VotingPlus.sol:VotingPlus",
								"label": "hasVoted",
								"offset": 0,
								"slot": "1",
								"type": "t_uint256"
							},
							{
								"astId": 44,
								"contract": "VotingPlus.sol:VotingPlus",
								"label": "nbVotes",
								"offset": 0,
								"slot": "2",
								"type": "t_uint256"
							},
							{
								"astId": 47,
								"contract": "VotingPlus.sol:VotingPlus",
								"label": "votedProposalIds",
								"offset": 0,
								"slot": "3",
								"type": "t_array(t_uint256)dyn_storage"
							}
						],
						"numberOfBytes": "128"
					},
					"t_uint256": {
						"encoding": "inplace",
						"label": "uint256",
						"numberOfBytes": "32"
					}
				}
			},
			"userdoc": {
				"events": {
					"VoterRegistered(address)": {
						"notice": "Events"
					}
				},
				"kind": "user",
				"methods": {
					"constructor": {
						"notice": "=================================================================================================================================================================== Smart Contract methods***================================================================================================================================================================="
					}
				},
				"notice": "You can use this contract for only the most basic simulation",
				"version": 1
			}
		}
	}
}