{
	"data": {
		"bytecode": {
			"linkReferences": {},
			"object": "60806040527fffffffffffffffffffffffffffffffffffffffffffffffffffffffffffffffff6001555f6005555f6006555f60085534801562000040575f80fd5b50335f73ffffffffffffffffffffffffffffffffffffffff168173ffffffffffffffffffffffffffffffffffffffff1603620000b5575f6040517f1e4fbdf7000000000000000000000000000000000000000000000000000000008152600401620000ac9190620001fd565b60405180910390fd5b620000c681620000f960201b60201c565b505f60095f6101000a81548160ff02191690836003811115620000ee57620000ed62000218565b5b021790555062000245565b5f805f9054906101000a900473ffffffffffffffffffffffffffffffffffffffff169050815f806101000a81548173ffffffffffffffffffffffffffffffffffffffff021916908373ffffffffffffffffffffffffffffffffffffffff1602179055508173ffffffffffffffffffffffffffffffffffffffff168173ffffffffffffffffffffffffffffffffffffffff167f8be0079c531659141344cd1fd0a4f28419497f9722a3daafe3b4186f6b6457e060405160405180910390a35050565b5f73ffffffffffffffffffffffffffffffffffffffff82169050919050565b5f620001e582620001ba565b9050919050565b620001f781620001d9565b82525050565b5f602082019050620002125f830184620001ec565b92915050565b7f4e487b71000000000000000000000000000000000000000000000000000000005f52602160045260245ffd5b6134e380620002535f395ff3fe608060405234801561000f575f80fd5b50600436106100f3575f3560e01c80638da5cb5b11610095578063e77aa68211610064578063e77aa682146101eb578063f2fde38b14610209578063f4ab9adf14610225578063fd20255c14610241576100f3565b80638da5cb5b146101895780638e7ea5b2146101a7578063a1b1f89a146101c5578063b31e1d4d146101cf576100f3565b80636334ef66116100d15780636334ef661461013b578063715018a614610145578063746536b51461014f578063898f00871461016b576100f3565b806326c7eb1c146100f75780632fdae3c51461011557806345ddbf7514610131575b5f80fd5b6100ff61024b565b60405161010c91906123f3565b60405180910390f35b61012f600480360381019061012a919061247c565b61039b565b005b6101396105b4565b005b610143610838565b005b61014d6109fc565b005b610169600480360381019061016491906124f1565b610a0f565b005b610173610ddb565b60405161018091906123f3565b60405180910390f35b6101916111b1565b60405161019e919061255b565b60405180910390f35b6101af6111d8565b6040516101bc919061258c565b60405180910390f35b6101cd611226565b005b6101e960048036038101906101e491906125cf565b61145d565b005b6101f3611624565b604051610200919061266d565b60405180910390f35b610223600480360381019061021e91906125cf565b611639565b005b61023f600480360381019061023a91906125cf565b6116bd565b005b610249611882565b005b60605f60078054905011610294576040517f08c379a000000000000000000000000000000000000000000000000000000000815260040161028b90612706565b60405180910390fd5b6007805480602002602001604051908101604052809291908181526020015f905b82821015610392578382905f5260205f2090600402016040518060800160405290815f82015481526020016001820180546102ef90612751565b80601f016020809104026020016040519081016040528092919081815260200182805461031b90612751565b80156103665780601f1061033d57610100808354040283529160200191610366565b820191905f5260205f20905b81548152906001019060200180831161034957829003601f168201915b5050505050815260200160028201548152602001600382015481525050815260200190600101906102b5565b50505050905090565b6001151560035f3373ffffffffffffffffffffffffffffffffffffffff1673ffffffffffffffffffffffffffffffffffffffff1681526020019081526020015f205f015f9054906101000a900460ff1615151461042d576040517f08c379a0000000000000000000000000000000000000000000000000000000008152600401610424906127cb565b60405180910390fd5b60016003811115610441576104406125fa565b5b60095f9054906101000a900460ff166003811115610462576104616125fa565b5b146104a2576040517f08c379a000000000000000000000000000000000000000000000000000000000815260040161049990612833565b60405180910390fd5b60076040518060800160405280600854815260200184848080601f0160208091040260200160405190810160405280939291908181526020018383808284375f81840152601f19601f8201169050808301925050505050505081526020015f81526020015f815250908060018154018082558091505060019003905f5260205f2090600402015f909190919091505f820151815f0155602082015181600101908161054d9190612a1b565b50604082015181600201556060820151816003015550507f92e393e9b54e2f801d3ea4beb0c5e71a21cc34a5d34b77d0fb8a3aa1650dc18f60085f81548092919061059790612b17565b919050556040516105a89190612b6d565b60405180910390a15050565b6105bc611b49565b6003808111156105cf576105ce6125fa565b5b60095f9054906101000a900460ff1660038111156105f0576105ef6125fa565b5b14610630576040517f08c379a000000000000000000000000000000000000000000000000000000000815260040161062790612bf6565b60405180910390fd5b600160028054905011610678576040517f08c379a000000000000000000000000000000000000000000000000000000000815260040161066f90612caa565b60405180910390fd5b60028054905060088190555060075f610691919061209d565b600260079080546106a39291906120be565b505f5b6007805490508110156106e8575f600782815481106106c8576106c7612cc8565b5b905f5260205f2090600402016002018190555080806001019150506106a6565b505f5b60048054905081101561080b575f60035f600484815481106107105761070f612cc8565b5b905f5260205f20015f9054906101000a900473ffffffffffffffffffffffffffffffffffffffff1673ffffffffffffffffffffffffffffffffffffffff1673ffffffffffffffffffffffffffffffffffffffff1681526020019081526020015f206001018190555060035f6004838154811061078f5761078e612cc8565b5b905f5260205f20015f9054906101000a900473ffffffffffffffffffffffffffffffffffffffff1673ffffffffffffffffffffffffffffffffffffffff1673ffffffffffffffffffffffffffffffffffffffff1681526020019081526020015f206003015f6107fe9190612143565b80806001019150506106eb565b50600260095f6101000a81548160ff02191690836003811115610831576108306125fa565b5b0217905550565b60038081111561084b5761084a6125fa565b5b60095f9054906101000a900460ff16600381111561086c5761086b6125fa565b5b146108ac576040517f08c379a00000000000000000000000000000000000000000000000000000000081526004016108a390612bf6565b60405180910390fd5b6108b4611b49565b5f60095f6101000a81548160ff021916908360038111156108d8576108d76125fa565b5b02179055505f60088190555060075f6108f1919061209d565b5f6005819055505f6006819055505f5b6004805490508110156109c55760035f6004838154811061092557610924612cc8565b5b905f5260205f20015f9054906101000a900473ffffffffffffffffffffffffffffffffffffffff1673ffffffffffffffffffffffffffffffffffffffff1673ffffffffffffffffffffffffffffffffffffffff1681526020019081526020015f205f8082015f6101000a81549060ff0219169055600182015f9055600282015f9055600382015f6109b69190612143565b50508080600101915050610901565b5060045f6109d39190612161565b7fffffffffffffffffffffffffffffffffffffffffffffffffffffffffffffffff600181905550565b610a04611b49565b610a0d5f611bd0565b565b6001151560035f3373ffffffffffffffffffffffffffffffffffffffff1673ffffffffffffffffffffffffffffffffffffffff1681526020019081526020015f205f015f9054906101000a900460ff16151514610aa1576040517f08c379a0000000000000000000000000000000000000000000000000000000008152600401610a98906127cb565b60405180910390fd5b60026003811115610ab557610ab46125fa565b5b60095f9054906101000a900460ff166003811115610ad657610ad56125fa565b5b14610b16576040517f08c379a0000000000000000000000000000000000000000000000000000000008152600401610b0d90612d3f565b60405180910390fd5b60035f3373ffffffffffffffffffffffffffffffffffffffff1673ffffffffffffffffffffffffffffffffffffffff1681526020019081526020015f206002015460035f3373ffffffffffffffffffffffffffffffffffffffff1673ffffffffffffffffffffffffffffffffffffffff1681526020019081526020015f206001015410610bd8576040517f08c379a0000000000000000000000000000000000000000000000000000000008152600401610bcf90612da7565b60405180910390fd5b5f8110158015610bec575060078054905081105b610c2b576040517f08c379a0000000000000000000000000000000000000000000000000000000008152600401610c2290612e35565b60405180910390fd5b60078181548110610c3f57610c3e612cc8565b5b905f5260205f2090600402016002015f815480929190610c5e90612b17565b91905055504260078281548110610c7857610c77612cc8565b5b905f5260205f2090600402016003018190555060035f3373ffffffffffffffffffffffffffffffffffffffff1673ffffffffffffffffffffffffffffffffffffffff1681526020019081526020015f206001015f815480929190610cdb90612b17565b919050555060035f3373ffffffffffffffffffffffffffffffffffffffff1673ffffffffffffffffffffffffffffffffffffffff1681526020019081526020015f2060030160078281548110610d3457610d33612cc8565b5b905f5260205f2090600402015f0154908060018154018082558091505060019003905f5260205f20015f909190919091505560065f815480929190610d7890612b17565b91905055507f4d99b957a2bc29a30ebd96a7be8e68fe50a3c701db28a91436490b7d53870ca43360078381548110610db357610db2612cc8565b5b905f5260205f2090600402015f0154604051610dd0929190612e53565b60405180910390a150565b6060600380811115610df057610def6125fa565b5b60095f9054906101000a900460ff166003811115610e1157610e106125fa565b5b14610e51576040517f08c379a0000000000000000000000000000000000000000000000000000000008152600401610e4890612bf6565b60405180910390fd5b5f805b600780549050811015611036575f60078281548110610e7657610e75612cc8565b5b905f5260205f2090600402016040518060800160405290815f8201548152602001600182018054610ea690612751565b80601f0160208091040260200160405190810160405280929190818152602001828054610ed290612751565b8015610f1d5780601f10610ef457610100808354040283529160200191610f1d565b820191905f5260205f20905b815481529060010190602001808311610f0057829003601f168201915b505050505081526020016002820154815260200160038201548152505090508281604001511115610fbe5760025f610f55919061209d565b600281908060018154018082558091505060019003905f5260205f2090600402015f909190919091505f820151815f01556020820151816001019081610f9b9190612a1b565b506040820151816002015560608201518160030155505080604001519250611028565b8281604001510361102757600281908060018154018082558091505060019003905f5260205f2090600402015f909190919091505f820151815f0155602082015181600101908161100f9190612a1b565b50604082015181600201556060820151816003015550505b5b508080600101915050610e54565b506001600280549050111561107f577f9152e2dccfc44aa8ab1fb145f54b5e72ae0202e28c3ce79d77c70e502c31eae260405161107290612f10565b60405180910390a16110a9565b60025f8154811061109357611092612cc8565b5b905f5260205f2090600402015f01546001819055505b6002805480602002602001604051908101604052809291908181526020015f905b828210156111a7578382905f5260205f2090600402016040518060800160405290815f820154815260200160018201805461110490612751565b80601f016020809104026020016040519081016040528092919081815260200182805461113090612751565b801561117b5780601f106111525761010080835404028352916020019161117b565b820191905f5260205f20905b81548152906001019060200180831161115e57829003601f168201915b5050505050815260200160028201548152602001600382015481525050815260200190600101906110ca565b5050505091505090565b5f805f9054906101000a900473ffffffffffffffffffffffffffffffffffffffff16905090565b5f80600154121561121e576040517f08c379a000000000000000000000000000000000000000000000000000000000815260040161121590612f9e565b60405180910390fd5b600154905090565b61122e611b49565b600380811115611241576112406125fa565b5b60095f9054906101000a900460ff166003811115611262576112616125fa565b5b146112a2576040517f08c379a000000000000000000000000000000000000000000000000000000000815260040161129990612bf6565b60405180910390fd5b6001600280549050116112ea576040517f08c379a00000000000000000000000000000000000000000000000000000000081526004016112e190612caa565b60405180910390fd5b5f4290506112f661217f565b5f5b60028054905081101561144e575f6002828154811061131a57611319612cc8565b5b905f5260205f209060040201600301541415801561135a5750826002828154811061134857611347612cc8565b5b905f5260205f20906004020160030154105b15611441576002818154811061137357611372612cc8565b5b905f5260205f2090600402016040518060800160405290815f82015481526020016001820180546113a390612751565b80601f01602080910402602001604051908101604052809291908181526020018280546113cf90612751565b801561141a5780601f106113f15761010080835404028352916020019161141a565b820191905f5260205f20905b8154815290600101906020018083116113fd57829003601f168201915b50505050508152602001600282015481526020016003820154815250509150816060015192505b80806001019150506112f8565b50805f01516001819055505050565b6001151560035f3373ffffffffffffffffffffffffffffffffffffffff1673ffffffffffffffffffffffffffffffffffffffff1681526020019081526020015f205f015f9054906101000a900460ff161515146114ef576040517f08c379a00000000000000000000000000000000000000000000000000000000081526004016114e6906127cb565b60405180910390fd5b5f6003811115611502576115016125fa565b5b60095f9054906101000a900460ff166003811115611523576115226125fa565b5b14611563576040517f08c379a000000000000000000000000000000000000000000000000000000000815260040161155a90613006565b60405180910390fd5b60035f8273ffffffffffffffffffffffffffffffffffffffff1673ffffffffffffffffffffffffffffffffffffffff1681526020019081526020015f205f015f9054906101000a900460ff161561160e5760035f8273ffffffffffffffffffffffffffffffffffffffff1673ffffffffffffffffffffffffffffffffffffffff1681526020019081526020015f206002015f81548092919061160490612b17565b9190505550611618565b61161781611c91565b5b61162133611d96565b50565b5f60095f9054906101000a900460ff16905090565b611641611b49565b5f73ffffffffffffffffffffffffffffffffffffffff168173ffffffffffffffffffffffffffffffffffffffff16036116b1575f6040517f1e4fbdf70000000000000000000000000000000000000000000000000000000081526004016116a8919061255b565b60405180910390fd5b6116ba81611bd0565b50565b6116c5611b49565b5f60038111156116d8576116d76125fa565b5b60095f9054906101000a900460ff1660038111156116f9576116f86125fa565b5b14611739576040517f08c379a000000000000000000000000000000000000000000000000000000000815260040161173090613006565b60405180910390fd5b6117416111b1565b73ffffffffffffffffffffffffffffffffffffffff168173ffffffffffffffffffffffffffffffffffffffff16036117ae576040517f08c379a00000000000000000000000000000000000000000000000000000000081526004016117a59061306e565b60405180910390fd5b5f151560035f8373ffffffffffffffffffffffffffffffffffffffff1673ffffffffffffffffffffffffffffffffffffffff1681526020019081526020015f205f015f9054906101000a900460ff1615151461183f576040517f08c379a0000000000000000000000000000000000000000000000000000000008152600401611836906130d6565b60405180910390fd5b61184881611c91565b7fb6be2187d059cc2a55fe29e0e503b566e1e0f8c8780096e185429350acffd3dd81604051611877919061255b565b60405180910390a150565b61188a611b49565b60035f600381111561189f5761189e6125fa565b5b60095f9054906101000a900460ff1660038111156118c0576118bf6125fa565b5b0361190b5780600554101561190a576040517f08c379a000000000000000000000000000000000000000000000000000000000815260040161190190613164565b60405180910390fd5b5b600260016003811115611921576119206125fa565b5b60095f9054906101000a900460ff166003811115611942576119416125fa565b5b0361198d5780600854101561198c576040517f08c379a0000000000000000000000000000000000000000000000000000000008152600401611983906131f2565b60405180910390fd5b5b6001600260038111156119a3576119a26125fa565b5b60095f9054906101000a900460ff1660038111156119c4576119c36125fa565b5b03611a0f57806006541015611a0e576040517f08c379a0000000000000000000000000000000000000000000000000000000008152600401611a0590613280565b60405180910390fd5b5b600380811115611a2257611a216125fa565b5b60095f9054906101000a900460ff166003811115611a4357611a426125fa565b5b03611a83576040517f08c379a0000000000000000000000000000000000000000000000000000000008152600401611a7a9061330e565b60405180910390fd5b5f60095f9054906101000a900460ff169050600160095f9054906101000a900460ff166003811115611ab857611ab76125fa565b5b611ac2919061332c565b6003811115611ad457611ad36125fa565b5b60095f6101000a81548160ff02191690836003811115611af757611af66125fa565b5b02179055507f0a97a4ee45751e2abf3e4fc8946939630b11b371ea8ae39ccdc3056e98f5cc3f8160095f9054906101000a900460ff16604051611b3b92919061335f565b60405180910390a150505050565b611b51611f95565b73ffffffffffffffffffffffffffffffffffffffff16611b6f6111b1565b73ffffffffffffffffffffffffffffffffffffffff1614611bce57611b92611f95565b6040517f118cdaa7000000000000000000000000000000000000000000000000000000008152600401611bc5919061255b565b60405180910390fd5b565b5f805f9054906101000a900473ffffffffffffffffffffffffffffffffffffffff169050815f806101000a81548173ffffffffffffffffffffffffffffffffffffffff021916908373ffffffffffffffffffffffffffffffffffffffff1602179055508173ffffffffffffffffffffffffffffffffffffffff168173ffffffffffffffffffffffffffffffffffffffff167f8be0079c531659141344cd1fd0a4f28419497f9722a3daafe3b4186f6b6457e060405160405180910390a35050565b5f60035f8373ffffffffffffffffffffffffffffffffffffffff1673ffffffffffffffffffffffffffffffffffffffff1681526020019081526020015f2060010181905550600160035f8373ffffffffffffffffffffffffffffffffffffffff1673ffffffffffffffffffffffffffffffffffffffff1681526020019081526020015f2060020181905550600160035f8373ffffffffffffffffffffffffffffffffffffffff1673ffffffffffffffffffffffffffffffffffffffff1681526020019081526020015f205f015f6101000a81548160ff021916908315150217905550611d7c81611f9c565b60055f815480929190611d8e90612b17565b919050555050565b5f60035f8373ffffffffffffffffffffffffffffffffffffffff1673ffffffffffffffffffffffffffffffffffffffff1681526020019081526020015f205f015f6101000a81548160ff0219169083151502179055505f60035f8373ffffffffffffffffffffffffffffffffffffffff1673ffffffffffffffffffffffffffffffffffffffff1681526020019081526020015f2060010181905550600160035f8373ffffffffffffffffffffffffffffffffffffffff1673ffffffffffffffffffffffffffffffffffffffff1681526020019081526020015f206002018190555060035f8273ffffffffffffffffffffffffffffffffffffffff1673ffffffffffffffffffffffffffffffffffffffff1681526020019081526020015f206003015f611ec29190612143565b5f5b600480549050811015611f91578173ffffffffffffffffffffffffffffffffffffffff1660048281548110611efc57611efb612cc8565b5b905f5260205f20015f9054906101000a900473ffffffffffffffffffffffffffffffffffffffff1673ffffffffffffffffffffffffffffffffffffffff1603611f84576004805480611f5157611f50613386565b5b600190038181905f5260205f20015f6101000a81549073ffffffffffffffffffffffffffffffffffffffff021916905590555b8080600101915050611ec4565b5050565b5f33905090565b5f805b60048054905081101561202c578273ffffffffffffffffffffffffffffffffffffffff1660048281548110611fd757611fd6612cc8565b5b905f5260205f20015f9054906101000a900473ffffffffffffffffffffffffffffffffffffffff1673ffffffffffffffffffffffffffffffffffffffff160361201f57600191505b8080600101915050611f9f565b505f15158115150361209957600482908060018154018082558091505060019003905f5260205f20015f9091909190916101000a81548173ffffffffffffffffffffffffffffffffffffffff021916908373ffffffffffffffffffffffffffffffffffffffff1602179055505b5050565b5080545f8255600402905f5260205f20908101906120bb91906121a4565b50565b828054828255905f5260205f20906004028101928215612132575f5260205f209160040282015b828111156121315782825f820154815f01556001820181600101908161210b91906133c8565b5060028201548160020155600382015481600301555050916004019190600401906120e5565b5b50905061213f91906121a4565b5090565b5080545f8255905f5260205f209081019061215e91906121de565b50565b5080545f8255905f5260205f209081019061217c91906121de565b50565b60405180608001604052805f8152602001606081526020015f81526020015f81525090565b5b808211156121da575f8082015f9055600182015f6121c391906121f9565b600282015f9055600382015f9055506004016121a5565b5090565b5b808211156121f5575f815f9055506001016121df565b5090565b50805461220590612751565b5f825580601f106122165750612233565b601f0160209004905f5260205f209081019061223291906121de565b5b50565b5f81519050919050565b5f82825260208201905092915050565b5f819050602082019050919050565b5f819050919050565b6122718161225f565b82525050565b5f81519050919050565b5f82825260208201905092915050565b5f5b838110156122ae578082015181840152602081019050612293565b5f8484015250505050565b5f601f19601f8301169050919050565b5f6122d382612277565b6122dd8185612281565b93506122ed818560208601612291565b6122f6816122b9565b840191505092915050565b5f608083015f8301516123165f860182612268565b506020830151848203602086015261232e82826122c9565b91505060408301516123436040860182612268565b5060608301516123566060860182612268565b508091505092915050565b5f61236c8383612301565b905092915050565b5f602082019050919050565b5f61238a82612236565b6123948185612240565b9350836020820285016123a685612250565b805f5b858110156123e157848403895281516123c28582612361565b94506123cd83612374565b925060208a019950506001810190506123a9565b50829750879550505050505092915050565b5f6020820190508181035f83015261240b8184612380565b905092915050565b5f80fd5b5f80fd5b5f80fd5b5f80fd5b5f80fd5b5f8083601f84011261243c5761243b61241b565b5b8235905067ffffffffffffffff8111156124595761245861241f565b5b60208301915083600182028301111561247557612474612423565b5b9250929050565b5f806020838503121561249257612491612413565b5b5f83013567ffffffffffffffff8111156124af576124ae612417565b5b6124bb85828601612427565b92509250509250929050565b6124d08161225f565b81146124da575f80fd5b50565b5f813590506124eb816124c7565b92915050565b5f6020828403121561250657612505612413565b5b5f612513848285016124dd565b91505092915050565b5f73ffffffffffffffffffffffffffffffffffffffff82169050919050565b5f6125458261251c565b9050919050565b6125558161253b565b82525050565b5f60208201905061256e5f83018461254c565b92915050565b5f819050919050565b61258681612574565b82525050565b5f60208201905061259f5f83018461257d565b92915050565b6125ae8161253b565b81146125b8575f80fd5b50565b5f813590506125c9816125a5565b92915050565b5f602082840312156125e4576125e3612413565b5b5f6125f1848285016125bb565b91505092915050565b7f4e487b71000000000000000000000000000000000000000000000000000000005f52602160045260245ffd5b60048110612638576126376125fa565b5b50565b5f81905061264882612627565b919050565b5f6126578261263b565b9050919050565b6126678161264d565b82525050565b5f6020820190506126805f83018461265e565b92915050565b5f82825260208201905092915050565b7f546865726520617265206e6f2070726f706f736974696f6e73207265676973745f8201527f6572656420796574210000000000000000000000000000000000000000000000602082015250565b5f6126f0602983612686565b91506126fb82612696565b604082019050919050565b5f6020820190508181035f83015261271d816126e4565b9050919050565b7f4e487b71000000000000000000000000000000000000000000000000000000005f52602260045260245ffd5b5f600282049050600182168061276857607f821691505b60208210810361277b5761277a612724565b5b50919050565b7f596f7520617265206e6f7420612076616c696420766f746572210000000000005f82015250565b5f6127b5601a83612686565b91506127c082612781565b602082019050919050565b5f6020820190508181035f8301526127e2816127a9565b9050919050565b7f596f752063616e6e6f742072656769737465722070726f706f73616c730000005f82015250565b5f61281d601d83612686565b9150612828826127e9565b602082019050919050565b5f6020820190508181035f83015261284a81612811565b9050919050565b7f4e487b71000000000000000000000000000000000000000000000000000000005f52604160045260245ffd5b5f819050815f5260205f209050919050565b5f6020601f8301049050919050565b5f82821b905092915050565b5f600883026128da7fffffffffffffffffffffffffffffffffffffffffffffffffffffffffffffffff8261289f565b6128e4868361289f565b95508019841693508086168417925050509392505050565b5f819050919050565b5f61291f61291a6129158461225f565b6128fc565b61225f565b9050919050565b5f819050919050565b61293883612905565b61294c61294482612926565b8484546128ab565b825550505050565b5f90565b612960612954565b61296b81848461292f565b505050565b5b8181101561298e576129835f82612958565b600181019050612971565b5050565b601f8211156129d3576129a48161287e565b6129ad84612890565b810160208510156129bc578190505b6129d06129c885612890565b830182612970565b50505b505050565b5f82821c905092915050565b5f6129f35f19846008026129d8565b1980831691505092915050565b5f612a0b83836129e4565b9150826002028217905092915050565b612a2482612277565b67ffffffffffffffff811115612a3d57612a3c612851565b5b612a478254612751565b612a52828285612992565b5f60209050601f831160018114612a83575f8415612a71578287015190505b612a7b8582612a00565b865550612ae2565b601f198416612a918661287e565b5f5b82811015612ab857848901518255600182019150602085019450602081019050612a93565b86831015612ad55784890151612ad1601f8916826129e4565b8355505b6001600288020188555050505b505050505050565b7f4e487b71000000000000000000000000000000000000000000000000000000005f52601160045260245ffd5b5f612b218261225f565b91507fffffffffffffffffffffffffffffffffffffffffffffffffffffffffffffffff8203612b5357612b52612aea565b5b600182019050919050565b612b678161225f565b82525050565b5f602082019050612b805f830184612b5e565b92915050565b7f566f746573206e65656420746f2062652074616c6c69656420696e206f7264655f8201527f7220746f20706572666f726d2074686973206f7065726174696f6e0000000000602082015250565b5f612be0603b83612686565b9150612beb82612b86565b604082019050919050565b5f6020820190508181035f830152612c0d81612bd4565b9050919050565b7f546865726520617265206e6f20657175616c69747920696e20726573756c74735f8201527f20736f20776520646f6e2774206e65656420746f20627265616b20746865207460208201527f6965210000000000000000000000000000000000000000000000000000000000604082015250565b5f612c94604383612686565b9150612c9f82612c14565b606082019050919050565b5f6020820190508181035f830152612cc181612c88565b9050919050565b7f4e487b71000000000000000000000000000000000000000000000000000000005f52603260045260245ffd5b7f596f752063616e6e6f7420766f74652070726f706f73616c73000000000000005f82015250565b5f612d29601983612686565b9150612d3482612cf5565b602082019050919050565b5f6020820190508181035f830152612d5681612d1d565b9050919050565b7f596f7520616c7265616479207573656420616c6c20796f757220766f746573215f82015250565b5f612d91602083612686565b9150612d9c82612d5d565b602082019050919050565b5f6020820190508181035f830152612dbe81612d85565b9050919050565b7f5468652070726f706f736974696f6e20796f7527726520766f74696e6720666f5f8201527f7220646f6573206e6f7420657869737421000000000000000000000000000000602082015250565b5f612e1f603183612686565b9150612e2a82612dc5565b604082019050919050565b5f6020820190508181035f830152612e4c81612e13565b9050919050565b5f604082019050612e665f83018561254c565b612e736020830184612b5e565b9392505050565b7f596f75206d75737420766f746520616761696e20666f72206f6e65206f6620745f8201527f68652070726f706f736974696f6e73207768696368207175616c69666965642060208201527f70726576696f75736c7921000000000000000000000000000000000000000000604082015250565b5f612efa604b83612686565b9150612f0582612e7a565b606082019050919050565b5f6020820190508181035f830152612f2781612eee565b9050919050565b7f5468657265206973206e6f2077696e6e696e672070726f706f736974696f6e205f8201527f7965742100000000000000000000000000000000000000000000000000000000602082015250565b5f612f88602483612686565b9150612f9382612f2e565b604082019050919050565b5f6020820190508181035f830152612fb581612f7c565b9050919050565b7f596f752063616e6e6f7420726567697374657220766f746572730000000000005f82015250565b5f612ff0601a83612686565b9150612ffb82612fbc565b602082019050919050565b5f6020820190508181035f83015261301d81612fe4565b9050919050565b7f4f776e65722063616e6e6f7420766f74652100000000000000000000000000005f82015250565b5f613058601283612686565b915061306382613024565b602082019050919050565b5f6020820190508181035f8301526130858161304c565b9050919050565b7f566f74657220616c7265616479207265676973746572656421000000000000005f82015250565b5f6130c0601983612686565b91506130cb8261308c565b602082019050919050565b5f6020820190508181035f8301526130ed816130b4565b9050919050565b7f41206d696e696d756d206e756d626572206f6620766f746572732061726520725f8201527f6571756972656420746f20636f6e74696e756500000000000000000000000000602082015250565b5f61314e603383612686565b9150613159826130f4565b604082019050919050565b5f6020820190508181035f83015261317b81613142565b9050919050565b7f41206d696e696d756d206e756d626572206f662070726f706f736974696f6e735f8201527f2061726520726571756972656420746f20636f6e74696e756500000000000000602082015250565b5f6131dc603983612686565b91506131e782613182565b604082019050919050565b5f6020820190508181035f830152613209816131d0565b9050919050565b7f41206d696e696d756d206e756d626572206f6620766f746573206172652072655f8201527f71756972656420746f20636f6e74696e75650000000000000000000000000000602082015250565b5f61326a603283612686565b915061327582613210565b604082019050919050565b5f6020820190508181035f8301526132978161325e565b9050919050565b7f566f746573206861766520746f2062652074616c6c6965642e204974206973205f8201527f6f7665722e205468657265206973206e6f206e65787420737465702100000000602082015250565b5f6132f8603c83612686565b91506133038261329e565b604082019050919050565b5f6020820190508181035f830152613325816132ec565b9050919050565b5f6133368261225f565b91506133418361225f565b925082820190508082111561335957613358612aea565b5b92915050565b5f6040820190506133725f83018561265e565b61337f602083018461265e565b9392505050565b7f4e487b71000000000000000000000000000000000000000000000000000000005f52603160045260245ffd5b5f815490506133c181612751565b9050919050565b8181036133d65750506134ab565b6133df826133b3565b67ffffffffffffffff8111156133f8576133f7612851565b5b6134028254612751565b61340d828285612992565b5f601f83116001811461343a575f8415613428578287015490505b6134328582612a00565b8655506134a4565b601f1984166134488761287e565b96506134538661287e565b5f5b8281101561347a57848901548255600182019150600185019450602081019050613455565b868310156134975784890154613493601f8916826129e4565b8355505b6001600288020188555050505b5050505050505b56fea264697066735822122055515c43253db05e23c1e1c72fb06d2f4de94da44a526164ed915d34d3fd20a064736f6c63430008170033",
			"opcodes": "PUSH1 0x80 PUSH1 0x40 MSTORE PUSH32 0xFFFFFFFFFFFFFFFFFFFFFFFFFFFFFFFFFFFFFFFFFFFFFFFFFFFFFFFFFFFFFFFF PUSH1 0x1 SSTORE PUSH0 PUSH1 0x5 SSTORE PUSH0 PUSH1 0x6 SSTORE PUSH0 PUSH1 0x8 SSTORE CALLVALUE DUP1 ISZERO PUSH3 0x40 JUMPI PUSH0 DUP1 REVERT JUMPDEST POP CALLER PUSH0 PUSH20 0xFFFFFFFFFFFFFFFFFFFFFFFFFFFFFFFFFFFFFFFF AND DUP2 PUSH20 0xFFFFFFFFFFFFFFFFFFFFFFFFFFFFFFFFFFFFFFFF AND SUB PUSH3 0xB5 JUMPI PUSH0 PUSH1 0x40 MLOAD PUSH32 0x1E4FBDF700000000000000000000000000000000000000000000000000000000 DUP2 MSTORE PUSH1 0x4 ADD PUSH3 0xAC SWAP2 SWAP1 PUSH3 0x1FD JUMP JUMPDEST PUSH1 0x40 MLOAD DUP1 SWAP2 SUB SWAP1 REVERT JUMPDEST PUSH3 0xC6 DUP2 PUSH3 0xF9 PUSH1 0x20 SHL PUSH1 0x20 SHR JUMP JUMPDEST POP PUSH0 PUSH1 0x9 PUSH0 PUSH2 0x100 EXP DUP2 SLOAD DUP2 PUSH1 0xFF MUL NOT AND SWAP1 DUP4 PUSH1 0x3 DUP2 GT ISZERO PUSH3 0xEE JUMPI PUSH3 0xED PUSH3 0x218 JUMP JUMPDEST JUMPDEST MUL OR SWAP1 SSTORE POP PUSH3 0x245 JUMP JUMPDEST PUSH0 DUP1 PUSH0 SWAP1 SLOAD SWAP1 PUSH2 0x100 EXP SWAP1 DIV PUSH20 0xFFFFFFFFFFFFFFFFFFFFFFFFFFFFFFFFFFFFFFFF AND SWAP1 POP DUP2 PUSH0 DUP1 PUSH2 0x100 EXP DUP2 SLOAD DUP2 PUSH20 0xFFFFFFFFFFFFFFFFFFFFFFFFFFFFFFFFFFFFFFFF MUL NOT AND SWAP1 DUP4 PUSH20 0xFFFFFFFFFFFFFFFFFFFFFFFFFFFFFFFFFFFFFFFF AND MUL OR SWAP1 SSTORE POP DUP2 PUSH20 0xFFFFFFFFFFFFFFFFFFFFFFFFFFFFFFFFFFFFFFFF AND DUP2 PUSH20 0xFFFFFFFFFFFFFFFFFFFFFFFFFFFFFFFFFFFFFFFF AND PUSH32 0x8BE0079C531659141344CD1FD0A4F28419497F9722A3DAAFE3B4186F6B6457E0 PUSH1 0x40 MLOAD PUSH1 0x40 MLOAD DUP1 SWAP2 SUB SWAP1 LOG3 POP POP JUMP JUMPDEST PUSH0 PUSH20 0xFFFFFFFFFFFFFFFFFFFFFFFFFFFFFFFFFFFFFFFF DUP3 AND SWAP1 POP SWAP2 SWAP1 POP JUMP JUMPDEST PUSH0 PUSH3 0x1E5 DUP3 PUSH3 0x1BA JUMP JUMPDEST SWAP1 POP SWAP2 SWAP1 POP JUMP JUMPDEST PUSH3 0x1F7 DUP2 PUSH3 0x1D9 JUMP JUMPDEST DUP3 MSTORE POP POP JUMP JUMPDEST PUSH0 PUSH1 0x20 DUP3 ADD SWAP1 POP PUSH3 0x212 PUSH0 DUP4 ADD DUP5 PUSH3 0x1EC JUMP JUMPDEST SWAP3 SWAP2 POP POP JUMP JUMPDEST PUSH32 0x4E487B7100000000000000000000000000000000000000000000000000000000 PUSH0 MSTORE PUSH1 0x21 PUSH1 0x4 MSTORE PUSH1 0x24 PUSH0 REVERT JUMPDEST PUSH2 0x34E3 DUP1 PUSH3 0x253 PUSH0 CODECOPY PUSH0 RETURN INVALID PUSH1 0x80 PUSH1 0x40 MSTORE CALLVALUE DUP1 ISZERO PUSH2 0xF JUMPI PUSH0 DUP1 REVERT JUMPDEST POP PUSH1 0x4 CALLDATASIZE LT PUSH2 0xF3 JUMPI PUSH0 CALLDATALOAD PUSH1 0xE0 SHR DUP1 PUSH4 0x8DA5CB5B GT PUSH2 0x95 JUMPI DUP1 PUSH4 0xE77AA682 GT PUSH2 0x64 JUMPI DUP1 PUSH4 0xE77AA682 EQ PUSH2 0x1EB JUMPI DUP1 PUSH4 0xF2FDE38B EQ PUSH2 0x209 JUMPI DUP1 PUSH4 0xF4AB9ADF EQ PUSH2 0x225 JUMPI DUP1 PUSH4 0xFD20255C EQ PUSH2 0x241 JUMPI PUSH2 0xF3 JUMP JUMPDEST DUP1 PUSH4 0x8DA5CB5B EQ PUSH2 0x189 JUMPI DUP1 PUSH4 0x8E7EA5B2 EQ PUSH2 0x1A7 JUMPI DUP1 PUSH4 0xA1B1F89A EQ PUSH2 0x1C5 JUMPI DUP1 PUSH4 0xB31E1D4D EQ PUSH2 0x1CF JUMPI PUSH2 0xF3 JUMP JUMPDEST DUP1 PUSH4 0x6334EF66 GT PUSH2 0xD1 JUMPI DUP1 PUSH4 0x6334EF66 EQ PUSH2 0x13B JUMPI DUP1 PUSH4 0x715018A6 EQ PUSH2 0x145 JUMPI DUP1 PUSH4 0x746536B5 EQ PUSH2 0x14F JUMPI DUP1 PUSH4 0x898F0087 EQ PUSH2 0x16B JUMPI PUSH2 0xF3 JUMP JUMPDEST DUP1 PUSH4 0x26C7EB1C EQ PUSH2 0xF7 JUMPI DUP1 PUSH4 0x2FDAE3C5 EQ PUSH2 0x115 JUMPI DUP1 PUSH4 0x45DDBF75 EQ PUSH2 0x131 JUMPI JUMPDEST PUSH0 DUP1 REVERT JUMPDEST PUSH2 0xFF PUSH2 0x24B JUMP JUMPDEST PUSH1 0x40 MLOAD PUSH2 0x10C SWAP2 SWAP1 PUSH2 0x23F3 JUMP JUMPDEST PUSH1 0x40 MLOAD DUP1 SWAP2 SUB SWAP1 RETURN JUMPDEST PUSH2 0x12F PUSH1 0x4 DUP1 CALLDATASIZE SUB DUP2 ADD SWAP1 PUSH2 0x12A SWAP2 SWAP1 PUSH2 0x247C JUMP JUMPDEST PUSH2 0x39B JUMP JUMPDEST STOP JUMPDEST PUSH2 0x139 PUSH2 0x5B4 JUMP JUMPDEST STOP JUMPDEST PUSH2 0x143 PUSH2 0x838 JUMP JUMPDEST STOP JUMPDEST PUSH2 0x14D PUSH2 0x9FC JUMP JUMPDEST STOP JUMPDEST PUSH2 0x169 PUSH1 0x4 DUP1 CALLDATASIZE SUB DUP2 ADD SWAP1 PUSH2 0x164 SWAP2 SWAP1 PUSH2 0x24F1 JUMP JUMPDEST PUSH2 0xA0F JUMP JUMPDEST STOP JUMPDEST PUSH2 0x173 PUSH2 0xDDB JUMP JUMPDEST PUSH1 0x40 MLOAD PUSH2 0x180 SWAP2 SWAP1 PUSH2 0x23F3 JUMP JUMPDEST PUSH1 0x40 MLOAD DUP1 SWAP2 SUB SWAP1 RETURN JUMPDEST PUSH2 0x191 PUSH2 0x11B1 JUMP JUMPDEST PUSH1 0x40 MLOAD PUSH2 0x19E SWAP2 SWAP1 PUSH2 0x255B JUMP JUMPDEST PUSH1 0x40 MLOAD DUP1 SWAP2 SUB SWAP1 RETURN JUMPDEST PUSH2 0x1AF PUSH2 0x11D8 JUMP JUMPDEST PUSH1 0x40 MLOAD PUSH2 0x1BC SWAP2 SWAP1 PUSH2 0x258C JUMP JUMPDEST PUSH1 0x40 MLOAD DUP1 SWAP2 SUB SWAP1 RETURN JUMPDEST PUSH2 0x1CD PUSH2 0x1226 JUMP JUMPDEST STOP JUMPDEST PUSH2 0x1E9 PUSH1 0x4 DUP1 CALLDATASIZE SUB DUP2 ADD SWAP1 PUSH2 0x1E4 SWAP2 SWAP1 PUSH2 0x25CF JUMP JUMPDEST PUSH2 0x145D JUMP JUMPDEST STOP JUMPDEST PUSH2 0x1F3 PUSH2 0x1624 JUMP JUMPDEST PUSH1 0x40 MLOAD PUSH2 0x200 SWAP2 SWAP1 PUSH2 0x266D JUMP JUMPDEST PUSH1 0x40 MLOAD DUP1 SWAP2 SUB SWAP1 RETURN JUMPDEST PUSH2 0x223 PUSH1 0x4 DUP1 CALLDATASIZE SUB DUP2 ADD SWAP1 PUSH2 0x21E SWAP2 SWAP1 PUSH2 0x25CF JUMP JUMPDEST PUSH2 0x1639 JUMP JUMPDEST STOP JUMPDEST PUSH2 0x23F PUSH1 0x4 DUP1 CALLDATASIZE SUB DUP2 ADD SWAP1 PUSH2 0x23A SWAP2 SWAP1 PUSH2 0x25CF JUMP JUMPDEST PUSH2 0x16BD JUMP JUMPDEST STOP JUMPDEST PUSH2 0x249 PUSH2 0x1882 JUMP JUMPDEST STOP JUMPDEST PUSH1 0x60 PUSH0 PUSH1 0x7 DUP1 SLOAD SWAP1 POP GT PUSH2 0x294 JUMPI PUSH1 0x40 MLOAD PUSH32 0x8C379A000000000000000000000000000000000000000000000000000000000 DUP2 MSTORE PUSH1 0x4 ADD PUSH2 0x28B SWAP1 PUSH2 0x2706 JUMP JUMPDEST PUSH1 0x40 MLOAD DUP1 SWAP2 SUB SWAP1 REVERT JUMPDEST PUSH1 0x7 DUP1 SLOAD DUP1 PUSH1 0x20 MUL PUSH1 0x20 ADD PUSH1 0x40 MLOAD SWAP1 DUP2 ADD PUSH1 0x40 MSTORE DUP1 SWAP3 SWAP2 SWAP1 DUP2 DUP2 MSTORE PUSH1 0x20 ADD PUSH0 SWAP1 JUMPDEST DUP3 DUP3 LT ISZERO PUSH2 0x392 JUMPI DUP4 DUP3 SWAP1 PUSH0 MSTORE PUSH1 0x20 PUSH0 KECCAK256 SWAP1 PUSH1 0x4 MUL ADD PUSH1 0x40 MLOAD DUP1 PUSH1 0x80 ADD PUSH1 0x40 MSTORE SWAP1 DUP2 PUSH0 DUP3 ADD SLOAD DUP2 MSTORE PUSH1 0x20 ADD PUSH1 0x1 DUP3 ADD DUP1 SLOAD PUSH2 0x2EF SWAP1 PUSH2 0x2751 JUMP JUMPDEST DUP1 PUSH1 0x1F ADD PUSH1 0x20 DUP1 SWAP2 DIV MUL PUSH1 0x20 ADD PUSH1 0x40 MLOAD SWAP1 DUP2 ADD PUSH1 0x40 MSTORE DUP1 SWAP3 SWAP2 SWAP1 DUP2 DUP2 MSTORE PUSH1 0x20 ADD DUP3 DUP1 SLOAD PUSH2 0x31B SWAP1 PUSH2 0x2751 JUMP JUMPDEST DUP1 ISZERO PUSH2 0x366 JUMPI DUP1 PUSH1 0x1F LT PUSH2 0x33D JUMPI PUSH2 0x100 DUP1 DUP4 SLOAD DIV MUL DUP4 MSTORE SWAP2 PUSH1 0x20 ADD SWAP2 PUSH2 0x366 JUMP JUMPDEST DUP3 ADD SWAP2 SWAP1 PUSH0 MSTORE PUSH1 0x20 PUSH0 KECCAK256 SWAP1 JUMPDEST DUP2 SLOAD DUP2 MSTORE SWAP1 PUSH1 0x1 ADD SWAP1 PUSH1 0x20 ADD DUP1 DUP4 GT PUSH2 0x349 JUMPI DUP3 SWAP1 SUB PUSH1 0x1F AND DUP3 ADD SWAP2 JUMPDEST POP POP POP POP POP DUP2 MSTORE PUSH1 0x20 ADD PUSH1 0x2 DUP3 ADD SLOAD DUP2 MSTORE PUSH1 0x20 ADD PUSH1 0x3 DUP3 ADD SLOAD DUP2 MSTORE POP POP DUP2 MSTORE PUSH1 0x20 ADD SWAP1 PUSH1 0x1 ADD SWAP1 PUSH2 0x2B5 JUMP JUMPDEST POP POP POP POP SWAP1 POP SWAP1 JUMP JUMPDEST PUSH1 0x1 ISZERO ISZERO PUSH1 0x3 PUSH0 CALLER PUSH20 0xFFFFFFFFFFFFFFFFFFFFFFFFFFFFFFFFFFFFFFFF AND PUSH20 0xFFFFFFFFFFFFFFFFFFFFFFFFFFFFFFFFFFFFFFFF AND DUP2 MSTORE PUSH1 0x20 ADD SWAP1 DUP2 MSTORE PUSH1 0x20 ADD PUSH0 KECCAK256 PUSH0 ADD PUSH0 SWAP1 SLOAD SWAP1 PUSH2 0x100 EXP SWAP1 DIV PUSH1 0xFF AND ISZERO ISZERO EQ PUSH2 0x42D JUMPI PUSH1 0x40 MLOAD PUSH32 0x8C379A000000000000000000000000000000000000000000000000000000000 DUP2 MSTORE PUSH1 0x4 ADD PUSH2 0x424 SWAP1 PUSH2 0x27CB JUMP JUMPDEST PUSH1 0x40 MLOAD DUP1 SWAP2 SUB SWAP1 REVERT JUMPDEST PUSH1 0x1 PUSH1 0x3 DUP2 GT ISZERO PUSH2 0x441 JUMPI PUSH2 0x440 PUSH2 0x25FA JUMP JUMPDEST JUMPDEST PUSH1 0x9 PUSH0 SWAP1 SLOAD SWAP1 PUSH2 0x100 EXP SWAP1 DIV PUSH1 0xFF AND PUSH1 0x3 DUP2 GT ISZERO PUSH2 0x462 JUMPI PUSH2 0x461 PUSH2 0x25FA JUMP JUMPDEST JUMPDEST EQ PUSH2 0x4A2 JUMPI PUSH1 0x40 MLOAD PUSH32 0x8C379A000000000000000000000000000000000000000000000000000000000 DUP2 MSTORE PUSH1 0x4 ADD PUSH2 0x499 SWAP1 PUSH2 0x2833 JUMP JUMPDEST PUSH1 0x40 MLOAD DUP1 SWAP2 SUB SWAP1 REVERT JUMPDEST PUSH1 0x7 PUSH1 0x40 MLOAD DUP1 PUSH1 0x80 ADD PUSH1 0x40 MSTORE DUP1 PUSH1 0x8 SLOAD DUP2 MSTORE PUSH1 0x20 ADD DUP5 DUP5 DUP1 DUP1 PUSH1 0x1F ADD PUSH1 0x20 DUP1 SWAP2 DIV MUL PUSH1 0x20 ADD PUSH1 0x40 MLOAD SWAP1 DUP2 ADD PUSH1 0x40 MSTORE DUP1 SWAP4 SWAP3 SWAP2 SWAP1 DUP2 DUP2 MSTORE PUSH1 0x20 ADD DUP4 DUP4 DUP1 DUP3 DUP5 CALLDATACOPY PUSH0 DUP2 DUP5 ADD MSTORE PUSH1 0x1F NOT PUSH1 0x1F DUP3 ADD AND SWAP1 POP DUP1 DUP4 ADD SWAP3 POP POP POP POP POP POP POP DUP2 MSTORE PUSH1 0x20 ADD PUSH0 DUP2 MSTORE PUSH1 0x20 ADD PUSH0 DUP2 MSTORE POP SWAP1 DUP1 PUSH1 0x1 DUP2 SLOAD ADD DUP1 DUP3 SSTORE DUP1 SWAP2 POP POP PUSH1 0x1 SWAP1 SUB SWAP1 PUSH0 MSTORE PUSH1 0x20 PUSH0 KECCAK256 SWAP1 PUSH1 0x4 MUL ADD PUSH0 SWAP1 SWAP2 SWAP1 SWAP2 SWAP1 SWAP2 POP PUSH0 DUP3 ADD MLOAD DUP2 PUSH0 ADD SSTORE PUSH1 0x20 DUP3 ADD MLOAD DUP2 PUSH1 0x1 ADD SWAP1 DUP2 PUSH2 0x54D SWAP2 SWAP1 PUSH2 0x2A1B JUMP JUMPDEST POP PUSH1 0x40 DUP3 ADD MLOAD DUP2 PUSH1 0x2 ADD SSTORE PUSH1 0x60 DUP3 ADD MLOAD DUP2 PUSH1 0x3 ADD SSTORE POP POP PUSH32 0x92E393E9B54E2F801D3EA4BEB0C5E71A21CC34A5D34B77D0FB8A3AA1650DC18F PUSH1 0x8 PUSH0 DUP2 SLOAD DUP1 SWAP3 SWAP2 SWAP1 PUSH2 0x597 SWAP1 PUSH2 0x2B17 JUMP JUMPDEST SWAP2 SWAP1 POP SSTORE PUSH1 0x40 MLOAD PUSH2 0x5A8 SWAP2 SWAP1 PUSH2 0x2B6D JUMP JUMPDEST PUSH1 0x40 MLOAD DUP1 SWAP2 SUB SWAP1 LOG1 POP POP JUMP JUMPDEST PUSH2 0x5BC PUSH2 0x1B49 JUMP JUMPDEST PUSH1 0x3 DUP1 DUP2 GT ISZERO PUSH2 0x5CF JUMPI PUSH2 0x5CE PUSH2 0x25FA JUMP JUMPDEST JUMPDEST PUSH1 0x9 PUSH0 SWAP1 SLOAD SWAP1 PUSH2 0x100 EXP SWAP1 DIV PUSH1 0xFF AND PUSH1 0x3 DUP2 GT ISZERO PUSH2 0x5F0 JUMPI PUSH2 0x5EF PUSH2 0x25FA JUMP JUMPDEST JUMPDEST EQ PUSH2 0x630 JUMPI PUSH1 0x40 MLOAD PUSH32 0x8C379A000000000000000000000000000000000000000000000000000000000 DUP2 MSTORE PUSH1 0x4 ADD PUSH2 0x627 SWAP1 PUSH2 0x2BF6 JUMP JUMPDEST PUSH1 0x40 MLOAD DUP1 SWAP2 SUB SWAP1 REVERT JUMPDEST PUSH1 0x1 PUSH1 0x2 DUP1 SLOAD SWAP1 POP GT PUSH2 0x678 JUMPI PUSH1 0x40 MLOAD PUSH32 0x8C379A000000000000000000000000000000000000000000000000000000000 DUP2 MSTORE PUSH1 0x4 ADD PUSH2 0x66F SWAP1 PUSH2 0x2CAA JUMP JUMPDEST PUSH1 0x40 MLOAD DUP1 SWAP2 SUB SWAP1 REVERT JUMPDEST PUSH1 0x2 DUP1 SLOAD SWAP1 POP PUSH1 0x8 DUP2 SWAP1 SSTORE POP PUSH1 0x7 PUSH0 PUSH2 0x691 SWAP2 SWAP1 PUSH2 0x209D JUMP JUMPDEST PUSH1 0x2 PUSH1 0x7 SWAP1 DUP1 SLOAD PUSH2 0x6A3 SWAP3 SWAP2 SWAP1 PUSH2 0x20BE JUMP JUMPDEST POP PUSH0 JUMPDEST PUSH1 0x7 DUP1 SLOAD SWAP1 POP DUP2 LT ISZERO PUSH2 0x6E8 JUMPI PUSH0 PUSH1 0x7 DUP3 DUP2 SLOAD DUP2 LT PUSH2 0x6C8 JUMPI PUSH2 0x6C7 PUSH2 0x2CC8 JUMP JUMPDEST JUMPDEST SWAP1 PUSH0 MSTORE PUSH1 0x20 PUSH0 KECCAK256 SWAP1 PUSH1 0x4 MUL ADD PUSH1 0x2 ADD DUP2 SWAP1 SSTORE POP DUP1 DUP1 PUSH1 0x1 ADD SWAP2 POP POP PUSH2 0x6A6 JUMP JUMPDEST POP PUSH0 JUMPDEST PUSH1 0x4 DUP1 SLOAD SWAP1 POP DUP2 LT ISZERO PUSH2 0x80B JUMPI PUSH0 PUSH1 0x3 PUSH0 PUSH1 0x4 DUP5 DUP2 SLOAD DUP2 LT PUSH2 0x710 JUMPI PUSH2 0x70F PUSH2 0x2CC8 JUMP JUMPDEST JUMPDEST SWAP1 PUSH0 MSTORE PUSH1 0x20 PUSH0 KECCAK256 ADD PUSH0 SWAP1 SLOAD SWAP1 PUSH2 0x100 EXP SWAP1 DIV PUSH20 0xFFFFFFFFFFFFFFFFFFFFFFFFFFFFFFFFFFFFFFFF AND PUSH20 0xFFFFFFFFFFFFFFFFFFFFFFFFFFFFFFFFFFFFFFFF AND PUSH20 0xFFFFFFFFFFFFFFFFFFFFFFFFFFFFFFFFFFFFFFFF AND DUP2 MSTORE PUSH1 0x20 ADD SWAP1 DUP2 MSTORE PUSH1 0x20 ADD PUSH0 KECCAK256 PUSH1 0x1 ADD DUP2 SWAP1 SSTORE POP PUSH1 0x3 PUSH0 PUSH1 0x4 DUP4 DUP2 SLOAD DUP2 LT PUSH2 0x78F JUMPI PUSH2 0x78E PUSH2 0x2CC8 JUMP JUMPDEST JUMPDEST SWAP1 PUSH0 MSTORE PUSH1 0x20 PUSH0 KECCAK256 ADD PUSH0 SWAP1 SLOAD SWAP1 PUSH2 0x100 EXP SWAP1 DIV PUSH20 0xFFFFFFFFFFFFFFFFFFFFFFFFFFFFFFFFFFFFFFFF AND PUSH20 0xFFFFFFFFFFFFFFFFFFFFFFFFFFFFFFFFFFFFFFFF AND PUSH20 0xFFFFFFFFFFFFFFFFFFFFFFFFFFFFFFFFFFFFFFFF AND DUP2 MSTORE PUSH1 0x20 ADD SWAP1 DUP2 MSTORE PUSH1 0x20 ADD PUSH0 KECCAK256 PUSH1 0x3 ADD PUSH0 PUSH2 0x7FE SWAP2 SWAP1 PUSH2 0x2143 JUMP JUMPDEST DUP1 DUP1 PUSH1 0x1 ADD SWAP2 POP POP PUSH2 0x6EB JUMP JUMPDEST POP PUSH1 0x2 PUSH1 0x9 PUSH0 PUSH2 0x100 EXP DUP2 SLOAD DUP2 PUSH1 0xFF MUL NOT AND SWAP1 DUP4 PUSH1 0x3 DUP2 GT ISZERO PUSH2 0x831 JUMPI PUSH2 0x830 PUSH2 0x25FA JUMP JUMPDEST JUMPDEST MUL OR SWAP1 SSTORE POP JUMP JUMPDEST PUSH1 0x3 DUP1 DUP2 GT ISZERO PUSH2 0x84B JUMPI PUSH2 0x84A PUSH2 0x25FA JUMP JUMPDEST JUMPDEST PUSH1 0x9 PUSH0 SWAP1 SLOAD SWAP1 PUSH2 0x100 EXP SWAP1 DIV PUSH1 0xFF AND PUSH1 0x3 DUP2 GT ISZERO PUSH2 0x86C JUMPI PUSH2 0x86B PUSH2 0x25FA JUMP JUMPDEST JUMPDEST EQ PUSH2 0x8AC JUMPI PUSH1 0x40 MLOAD PUSH32 0x8C379A000000000000000000000000000000000000000000000000000000000 DUP2 MSTORE PUSH1 0x4 ADD PUSH2 0x8A3 SWAP1 PUSH2 0x2BF6 JUMP JUMPDEST PUSH1 0x40 MLOAD DUP1 SWAP2 SUB SWAP1 REVERT JUMPDEST PUSH2 0x8B4 PUSH2 0x1B49 JUMP JUMPDEST PUSH0 PUSH1 0x9 PUSH0 PUSH2 0x100 EXP DUP2 SLOAD DUP2 PUSH1 0xFF MUL NOT AND SWAP1 DUP4 PUSH1 0x3 DUP2 GT ISZERO PUSH2 0x8D8 JUMPI PUSH2 0x8D7 PUSH2 0x25FA JUMP JUMPDEST JUMPDEST MUL OR SWAP1 SSTORE POP PUSH0 PUSH1 0x8 DUP2 SWAP1 SSTORE POP PUSH1 0x7 PUSH0 PUSH2 0x8F1 SWAP2 SWAP1 PUSH2 0x209D JUMP JUMPDEST PUSH0 PUSH1 0x5 DUP2 SWAP1 SSTORE POP PUSH0 PUSH1 0x6 DUP2 SWAP1 SSTORE POP PUSH0 JUMPDEST PUSH1 0x4 DUP1 SLOAD SWAP1 POP DUP2 LT ISZERO PUSH2 0x9C5 JUMPI PUSH1 0x3 PUSH0 PUSH1 0x4 DUP4 DUP2 SLOAD DUP2 LT PUSH2 0x925 JUMPI PUSH2 0x924 PUSH2 0x2CC8 JUMP JUMPDEST JUMPDEST SWAP1 PUSH0 MSTORE PUSH1 0x20 PUSH0 KECCAK256 ADD PUSH0 SWAP1 SLOAD SWAP1 PUSH2 0x100 EXP SWAP1 DIV PUSH20 0xFFFFFFFFFFFFFFFFFFFFFFFFFFFFFFFFFFFFFFFF AND PUSH20 0xFFFFFFFFFFFFFFFFFFFFFFFFFFFFFFFFFFFFFFFF AND PUSH20 0xFFFFFFFFFFFFFFFFFFFFFFFFFFFFFFFFFFFFFFFF AND DUP2 MSTORE PUSH1 0x20 ADD SWAP1 DUP2 MSTORE PUSH1 0x20 ADD PUSH0 KECCAK256 PUSH0 DUP1 DUP3 ADD PUSH0 PUSH2 0x100 EXP DUP2 SLOAD SWAP1 PUSH1 0xFF MUL NOT AND SWAP1 SSTORE PUSH1 0x1 DUP3 ADD PUSH0 SWAP1 SSTORE PUSH1 0x2 DUP3 ADD PUSH0 SWAP1 SSTORE PUSH1 0x3 DUP3 ADD PUSH0 PUSH2 0x9B6 SWAP2 SWAP1 PUSH2 0x2143 JUMP JUMPDEST POP POP DUP1 DUP1 PUSH1 0x1 ADD SWAP2 POP POP PUSH2 0x901 JUMP JUMPDEST POP PUSH1 0x4 PUSH0 PUSH2 0x9D3 SWAP2 SWAP1 PUSH2 0x2161 JUMP JUMPDEST PUSH32 0xFFFFFFFFFFFFFFFFFFFFFFFFFFFFFFFFFFFFFFFFFFFFFFFFFFFFFFFFFFFFFFFF PUSH1 0x1 DUP2 SWAP1 SSTORE POP JUMP JUMPDEST PUSH2 0xA04 PUSH2 0x1B49 JUMP JUMPDEST PUSH2 0xA0D PUSH0 PUSH2 0x1BD0 JUMP JUMPDEST JUMP JUMPDEST PUSH1 0x1 ISZERO ISZERO PUSH1 0x3 PUSH0 CALLER PUSH20 0xFFFFFFFFFFFFFFFFFFFFFFFFFFFFFFFFFFFFFFFF AND PUSH20 0xFFFFFFFFFFFFFFFFFFFFFFFFFFFFFFFFFFFFFFFF AND DUP2 MSTORE PUSH1 0x20 ADD SWAP1 DUP2 MSTORE PUSH1 0x20 ADD PUSH0 KECCAK256 PUSH0 ADD PUSH0 SWAP1 SLOAD SWAP1 PUSH2 0x100 EXP SWAP1 DIV PUSH1 0xFF AND ISZERO ISZERO EQ PUSH2 0xAA1 JUMPI PUSH1 0x40 MLOAD PUSH32 0x8C379A000000000000000000000000000000000000000000000000000000000 DUP2 MSTORE PUSH1 0x4 ADD PUSH2 0xA98 SWAP1 PUSH2 0x27CB JUMP JUMPDEST PUSH1 0x40 MLOAD DUP1 SWAP2 SUB SWAP1 REVERT JUMPDEST PUSH1 0x2 PUSH1 0x3 DUP2 GT ISZERO PUSH2 0xAB5 JUMPI PUSH2 0xAB4 PUSH2 0x25FA JUMP JUMPDEST JUMPDEST PUSH1 0x9 PUSH0 SWAP1 SLOAD SWAP1 PUSH2 0x100 EXP SWAP1 DIV PUSH1 0xFF AND PUSH1 0x3 DUP2 GT ISZERO PUSH2 0xAD6 JUMPI PUSH2 0xAD5 PUSH2 0x25FA JUMP JUMPDEST JUMPDEST EQ PUSH2 0xB16 JUMPI PUSH1 0x40 MLOAD PUSH32 0x8C379A000000000000000000000000000000000000000000000000000000000 DUP2 MSTORE PUSH1 0x4 ADD PUSH2 0xB0D SWAP1 PUSH2 0x2D3F JUMP JUMPDEST PUSH1 0x40 MLOAD DUP1 SWAP2 SUB SWAP1 REVERT JUMPDEST PUSH1 0x3 PUSH0 CALLER PUSH20 0xFFFFFFFFFFFFFFFFFFFFFFFFFFFFFFFFFFFFFFFF AND PUSH20 0xFFFFFFFFFFFFFFFFFFFFFFFFFFFFFFFFFFFFFFFF AND DUP2 MSTORE PUSH1 0x20 ADD SWAP1 DUP2 MSTORE PUSH1 0x20 ADD PUSH0 KECCAK256 PUSH1 0x2 ADD SLOAD PUSH1 0x3 PUSH0 CALLER PUSH20 0xFFFFFFFFFFFFFFFFFFFFFFFFFFFFFFFFFFFFFFFF AND PUSH20 0xFFFFFFFFFFFFFFFFFFFFFFFFFFFFFFFFFFFFFFFF AND DUP2 MSTORE PUSH1 0x20 ADD SWAP1 DUP2 MSTORE PUSH1 0x20 ADD PUSH0 KECCAK256 PUSH1 0x1 ADD SLOAD LT PUSH2 0xBD8 JUMPI PUSH1 0x40 MLOAD PUSH32 0x8C379A000000000000000000000000000000000000000000000000000000000 DUP2 MSTORE PUSH1 0x4 ADD PUSH2 0xBCF SWAP1 PUSH2 0x2DA7 JUMP JUMPDEST PUSH1 0x40 MLOAD DUP1 SWAP2 SUB SWAP1 REVERT JUMPDEST PUSH0 DUP2 LT ISZERO DUP1 ISZERO PUSH2 0xBEC JUMPI POP PUSH1 0x7 DUP1 SLOAD SWAP1 POP DUP2 LT JUMPDEST PUSH2 0xC2B JUMPI PUSH1 0x40 MLOAD PUSH32 0x8C379A000000000000000000000000000000000000000000000000000000000 DUP2 MSTORE PUSH1 0x4 ADD PUSH2 0xC22 SWAP1 PUSH2 0x2E35 JUMP JUMPDEST PUSH1 0x40 MLOAD DUP1 SWAP2 SUB SWAP1 REVERT JUMPDEST PUSH1 0x7 DUP2 DUP2 SLOAD DUP2 LT PUSH2 0xC3F JUMPI PUSH2 0xC3E PUSH2 0x2CC8 JUMP JUMPDEST JUMPDEST SWAP1 PUSH0 MSTORE PUSH1 0x20 PUSH0 KECCAK256 SWAP1 PUSH1 0x4 MUL ADD PUSH1 0x2 ADD PUSH0 DUP2 SLOAD DUP1 SWAP3 SWAP2 SWAP1 PUSH2 0xC5E SWAP1 PUSH2 0x2B17 JUMP JUMPDEST SWAP2 SWAP1 POP SSTORE POP TIMESTAMP PUSH1 0x7 DUP3 DUP2 SLOAD DUP2 LT PUSH2 0xC78 JUMPI PUSH2 0xC77 PUSH2 0x2CC8 JUMP JUMPDEST JUMPDEST SWAP1 PUSH0 MSTORE PUSH1 0x20 PUSH0 KECCAK256 SWAP1 PUSH1 0x4 MUL ADD PUSH1 0x3 ADD DUP2 SWAP1 SSTORE POP PUSH1 0x3 PUSH0 CALLER PUSH20 0xFFFFFFFFFFFFFFFFFFFFFFFFFFFFFFFFFFFFFFFF AND PUSH20 0xFFFFFFFFFFFFFFFFFFFFFFFFFFFFFFFFFFFFFFFF AND DUP2 MSTORE PUSH1 0x20 ADD SWAP1 DUP2 MSTORE PUSH1 0x20 ADD PUSH0 KECCAK256 PUSH1 0x1 ADD PUSH0 DUP2 SLOAD DUP1 SWAP3 SWAP2 SWAP1 PUSH2 0xCDB SWAP1 PUSH2 0x2B17 JUMP JUMPDEST SWAP2 SWAP1 POP SSTORE POP PUSH1 0x3 PUSH0 CALLER PUSH20 0xFFFFFFFFFFFFFFFFFFFFFFFFFFFFFFFFFFFFFFFF AND PUSH20 0xFFFFFFFFFFFFFFFFFFFFFFFFFFFFFFFFFFFFFFFF AND DUP2 MSTORE PUSH1 0x20 ADD SWAP1 DUP2 MSTORE PUSH1 0x20 ADD PUSH0 KECCAK256 PUSH1 0x3 ADD PUSH1 0x7 DUP3 DUP2 SLOAD DUP2 LT PUSH2 0xD34 JUMPI PUSH2 0xD33 PUSH2 0x2CC8 JUMP JUMPDEST JUMPDEST SWAP1 PUSH0 MSTORE PUSH1 0x20 PUSH0 KECCAK256 SWAP1 PUSH1 0x4 MUL ADD PUSH0 ADD SLOAD SWAP1 DUP1 PUSH1 0x1 DUP2 SLOAD ADD DUP1 DUP3 SSTORE DUP1 SWAP2 POP POP PUSH1 0x1 SWAP1 SUB SWAP1 PUSH0 MSTORE PUSH1 0x20 PUSH0 KECCAK256 ADD PUSH0 SWAP1 SWAP2 SWAP1 SWAP2 SWAP1 SWAP2 POP SSTORE PUSH1 0x6 PUSH0 DUP2 SLOAD DUP1 SWAP3 SWAP2 SWAP1 PUSH2 0xD78 SWAP1 PUSH2 0x2B17 JUMP JUMPDEST SWAP2 SWAP1 POP SSTORE POP PUSH32 0x4D99B957A2BC29A30EBD96A7BE8E68FE50A3C701DB28A91436490B7D53870CA4 CALLER PUSH1 0x7 DUP4 DUP2 SLOAD DUP2 LT PUSH2 0xDB3 JUMPI PUSH2 0xDB2 PUSH2 0x2CC8 JUMP JUMPDEST JUMPDEST SWAP1 PUSH0 MSTORE PUSH1 0x20 PUSH0 KECCAK256 SWAP1 PUSH1 0x4 MUL ADD PUSH0 ADD SLOAD PUSH1 0x40 MLOAD PUSH2 0xDD0 SWAP3 SWAP2 SWAP1 PUSH2 0x2E53 JUMP JUMPDEST PUSH1 0x40 MLOAD DUP1 SWAP2 SUB SWAP1 LOG1 POP JUMP JUMPDEST PUSH1 0x60 PUSH1 0x3 DUP1 DUP2 GT ISZERO PUSH2 0xDF0 JUMPI PUSH2 0xDEF PUSH2 0x25FA JUMP JUMPDEST JUMPDEST PUSH1 0x9 PUSH0 SWAP1 SLOAD SWAP1 PUSH2 0x100 EXP SWAP1 DIV PUSH1 0xFF AND PUSH1 0x3 DUP2 GT ISZERO PUSH2 0xE11 JUMPI PUSH2 0xE10 PUSH2 0x25FA JUMP JUMPDEST JUMPDEST EQ PUSH2 0xE51 JUMPI PUSH1 0x40 MLOAD PUSH32 0x8C379A000000000000000000000000000000000000000000000000000000000 DUP2 MSTORE PUSH1 0x4 ADD PUSH2 0xE48 SWAP1 PUSH2 0x2BF6 JUMP JUMPDEST PUSH1 0x40 MLOAD DUP1 SWAP2 SUB SWAP1 REVERT JUMPDEST PUSH0 DUP1 JUMPDEST PUSH1 0x7 DUP1 SLOAD SWAP1 POP DUP2 LT ISZERO PUSH2 0x1036 JUMPI PUSH0 PUSH1 0x7 DUP3 DUP2 SLOAD DUP2 LT PUSH2 0xE76 JUMPI PUSH2 0xE75 PUSH2 0x2CC8 JUMP JUMPDEST JUMPDEST SWAP1 PUSH0 MSTORE PUSH1 0x20 PUSH0 KECCAK256 SWAP1 PUSH1 0x4 MUL ADD PUSH1 0x40 MLOAD DUP1 PUSH1 0x80 ADD PUSH1 0x40 MSTORE SWAP1 DUP2 PUSH0 DUP3 ADD SLOAD DUP2 MSTORE PUSH1 0x20 ADD PUSH1 0x1 DUP3 ADD DUP1 SLOAD PUSH2 0xEA6 SWAP1 PUSH2 0x2751 JUMP JUMPDEST DUP1 PUSH1 0x1F ADD PUSH1 0x20 DUP1 SWAP2 DIV MUL PUSH1 0x20 ADD PUSH1 0x40 MLOAD SWAP1 DUP2 ADD PUSH1 0x40 MSTORE DUP1 SWAP3 SWAP2 SWAP1 DUP2 DUP2 MSTORE PUSH1 0x20 ADD DUP3 DUP1 SLOAD PUSH2 0xED2 SWAP1 PUSH2 0x2751 JUMP JUMPDEST DUP1 ISZERO PUSH2 0xF1D JUMPI DUP1 PUSH1 0x1F LT PUSH2 0xEF4 JUMPI PUSH2 0x100 DUP1 DUP4 SLOAD DIV MUL DUP4 MSTORE SWAP2 PUSH1 0x20 ADD SWAP2 PUSH2 0xF1D JUMP JUMPDEST DUP3 ADD SWAP2 SWAP1 PUSH0 MSTORE PUSH1 0x20 PUSH0 KECCAK256 SWAP1 JUMPDEST DUP2 SLOAD DUP2 MSTORE SWAP1 PUSH1 0x1 ADD SWAP1 PUSH1 0x20 ADD DUP1 DUP4 GT PUSH2 0xF00 JUMPI DUP3 SWAP1 SUB PUSH1 0x1F AND DUP3 ADD SWAP2 JUMPDEST POP POP POP POP POP DUP2 MSTORE PUSH1 0x20 ADD PUSH1 0x2 DUP3 ADD SLOAD DUP2 MSTORE PUSH1 0x20 ADD PUSH1 0x3 DUP3 ADD SLOAD DUP2 MSTORE POP POP SWAP1 POP DUP3 DUP2 PUSH1 0x40 ADD MLOAD GT ISZERO PUSH2 0xFBE JUMPI PUSH1 0x2 PUSH0 PUSH2 0xF55 SWAP2 SWAP1 PUSH2 0x209D JUMP JUMPDEST PUSH1 0x2 DUP2 SWAP1 DUP1 PUSH1 0x1 DUP2 SLOAD ADD DUP1 DUP3 SSTORE DUP1 SWAP2 POP POP PUSH1 0x1 SWAP1 SUB SWAP1 PUSH0 MSTORE PUSH1 0x20 PUSH0 KECCAK256 SWAP1 PUSH1 0x4 MUL ADD PUSH0 SWAP1 SWAP2 SWAP1 SWAP2 SWAP1 SWAP2 POP PUSH0 DUP3 ADD MLOAD DUP2 PUSH0 ADD SSTORE PUSH1 0x20 DUP3 ADD MLOAD DUP2 PUSH1 0x1 ADD SWAP1 DUP2 PUSH2 0xF9B SWAP2 SWAP1 PUSH2 0x2A1B JUMP JUMPDEST POP PUSH1 0x40 DUP3 ADD MLOAD DUP2 PUSH1 0x2 ADD SSTORE PUSH1 0x60 DUP3 ADD MLOAD DUP2 PUSH1 0x3 ADD SSTORE POP POP DUP1 PUSH1 0x40 ADD MLOAD SWAP3 POP PUSH2 0x1028 JUMP JUMPDEST DUP3 DUP2 PUSH1 0x40 ADD MLOAD SUB PUSH2 0x1027 JUMPI PUSH1 0x2 DUP2 SWAP1 DUP1 PUSH1 0x1 DUP2 SLOAD ADD DUP1 DUP3 SSTORE DUP1 SWAP2 POP POP PUSH1 0x1 SWAP1 SUB SWAP1 PUSH0 MSTORE PUSH1 0x20 PUSH0 KECCAK256 SWAP1 PUSH1 0x4 MUL ADD PUSH0 SWAP1 SWAP2 SWAP1 SWAP2 SWAP1 SWAP2 POP PUSH0 DUP3 ADD MLOAD DUP2 PUSH0 ADD SSTORE PUSH1 0x20 DUP3 ADD MLOAD DUP2 PUSH1 0x1 ADD SWAP1 DUP2 PUSH2 0x100F SWAP2 SWAP1 PUSH2 0x2A1B JUMP JUMPDEST POP PUSH1 0x40 DUP3 ADD MLOAD DUP2 PUSH1 0x2 ADD SSTORE PUSH1 0x60 DUP3 ADD MLOAD DUP2 PUSH1 0x3 ADD SSTORE POP POP JUMPDEST JUMPDEST POP DUP1 DUP1 PUSH1 0x1 ADD SWAP2 POP POP PUSH2 0xE54 JUMP JUMPDEST POP PUSH1 0x1 PUSH1 0x2 DUP1 SLOAD SWAP1 POP GT ISZERO PUSH2 0x107F JUMPI PUSH32 0x9152E2DCCFC44AA8AB1FB145F54B5E72AE0202E28C3CE79D77C70E502C31EAE2 PUSH1 0x40 MLOAD PUSH2 0x1072 SWAP1 PUSH2 0x2F10 JUMP JUMPDEST PUSH1 0x40 MLOAD DUP1 SWAP2 SUB SWAP1 LOG1 PUSH2 0x10A9 JUMP JUMPDEST PUSH1 0x2 PUSH0 DUP2 SLOAD DUP2 LT PUSH2 0x1093 JUMPI PUSH2 0x1092 PUSH2 0x2CC8 JUMP JUMPDEST JUMPDEST SWAP1 PUSH0 MSTORE PUSH1 0x20 PUSH0 KECCAK256 SWAP1 PUSH1 0x4 MUL ADD PUSH0 ADD SLOAD PUSH1 0x1 DUP2 SWAP1 SSTORE POP JUMPDEST PUSH1 0x2 DUP1 SLOAD DUP1 PUSH1 0x20 MUL PUSH1 0x20 ADD PUSH1 0x40 MLOAD SWAP1 DUP2 ADD PUSH1 0x40 MSTORE DUP1 SWAP3 SWAP2 SWAP1 DUP2 DUP2 MSTORE PUSH1 0x20 ADD PUSH0 SWAP1 JUMPDEST DUP3 DUP3 LT ISZERO PUSH2 0x11A7 JUMPI DUP4 DUP3 SWAP1 PUSH0 MSTORE PUSH1 0x20 PUSH0 KECCAK256 SWAP1 PUSH1 0x4 MUL ADD PUSH1 0x40 MLOAD DUP1 PUSH1 0x80 ADD PUSH1 0x40 MSTORE SWAP1 DUP2 PUSH0 DUP3 ADD SLOAD DUP2 MSTORE PUSH1 0x20 ADD PUSH1 0x1 DUP3 ADD DUP1 SLOAD PUSH2 0x1104 SWAP1 PUSH2 0x2751 JUMP JUMPDEST DUP1 PUSH1 0x1F ADD PUSH1 0x20 DUP1 SWAP2 DIV MUL PUSH1 0x20 ADD PUSH1 0x40 MLOAD SWAP1 DUP2 ADD PUSH1 0x40 MSTORE DUP1 SWAP3 SWAP2 SWAP1 DUP2 DUP2 MSTORE PUSH1 0x20 ADD DUP3 DUP1 SLOAD PUSH2 0x1130 SWAP1 PUSH2 0x2751 JUMP JUMPDEST DUP1 ISZERO PUSH2 0x117B JUMPI DUP1 PUSH1 0x1F LT PUSH2 0x1152 JUMPI PUSH2 0x100 DUP1 DUP4 SLOAD DIV MUL DUP4 MSTORE SWAP2 PUSH1 0x20 ADD SWAP2 PUSH2 0x117B JUMP JUMPDEST DUP3 ADD SWAP2 SWAP1 PUSH0 MSTORE PUSH1 0x20 PUSH0 KECCAK256 SWAP1 JUMPDEST DUP2 SLOAD DUP2 MSTORE SWAP1 PUSH1 0x1 ADD SWAP1 PUSH1 0x20 ADD DUP1 DUP4 GT PUSH2 0x115E JUMPI DUP3 SWAP1 SUB PUSH1 0x1F AND DUP3 ADD SWAP2 JUMPDEST POP POP POP POP POP DUP2 MSTORE PUSH1 0x20 ADD PUSH1 0x2 DUP3 ADD SLOAD DUP2 MSTORE PUSH1 0x20 ADD PUSH1 0x3 DUP3 ADD SLOAD DUP2 MSTORE POP POP DUP2 MSTORE PUSH1 0x20 ADD SWAP1 PUSH1 0x1 ADD SWAP1 PUSH2 0x10CA JUMP JUMPDEST POP POP POP POP SWAP2 POP POP SWAP1 JUMP JUMPDEST PUSH0 DUP1 PUSH0 SWAP1 SLOAD SWAP1 PUSH2 0x100 EXP SWAP1 DIV PUSH20 0xFFFFFFFFFFFFFFFFFFFFFFFFFFFFFFFFFFFFFFFF AND SWAP1 POP SWAP1 JUMP JUMPDEST PUSH0 DUP1 PUSH1 0x1 SLOAD SLT ISZERO PUSH2 0x121E JUMPI PUSH1 0x40 MLOAD PUSH32 0x8C379A000000000000000000000000000000000000000000000000000000000 DUP2 MSTORE PUSH1 0x4 ADD PUSH2 0x1215 SWAP1 PUSH2 0x2F9E JUMP JUMPDEST PUSH1 0x40 MLOAD DUP1 SWAP2 SUB SWAP1 REVERT JUMPDEST PUSH1 0x1 SLOAD SWAP1 POP SWAP1 JUMP JUMPDEST PUSH2 0x122E PUSH2 0x1B49 JUMP JUMPDEST PUSH1 0x3 DUP1 DUP2 GT ISZERO PUSH2 0x1241 JUMPI PUSH2 0x1240 PUSH2 0x25FA JUMP JUMPDEST JUMPDEST PUSH1 0x9 PUSH0 SWAP1 SLOAD SWAP1 PUSH2 0x100 EXP SWAP1 DIV PUSH1 0xFF AND PUSH1 0x3 DUP2 GT ISZERO PUSH2 0x1262 JUMPI PUSH2 0x1261 PUSH2 0x25FA JUMP JUMPDEST JUMPDEST EQ PUSH2 0x12A2 JUMPI PUSH1 0x40 MLOAD PUSH32 0x8C379A000000000000000000000000000000000000000000000000000000000 DUP2 MSTORE PUSH1 0x4 ADD PUSH2 0x1299 SWAP1 PUSH2 0x2BF6 JUMP JUMPDEST PUSH1 0x40 MLOAD DUP1 SWAP2 SUB SWAP1 REVERT JUMPDEST PUSH1 0x1 PUSH1 0x2 DUP1 SLOAD SWAP1 POP GT PUSH2 0x12EA JUMPI PUSH1 0x40 MLOAD PUSH32 0x8C379A000000000000000000000000000000000000000000000000000000000 DUP2 MSTORE PUSH1 0x4 ADD PUSH2 0x12E1 SWAP1 PUSH2 0x2CAA JUMP JUMPDEST PUSH1 0x40 MLOAD DUP1 SWAP2 SUB SWAP1 REVERT JUMPDEST PUSH0 TIMESTAMP SWAP1 POP PUSH2 0x12F6 PUSH2 0x217F JUMP JUMPDEST PUSH0 JUMPDEST PUSH1 0x2 DUP1 SLOAD SWAP1 POP DUP2 LT ISZERO PUSH2 0x144E JUMPI PUSH0 PUSH1 0x2 DUP3 DUP2 SLOAD DUP2 LT PUSH2 0x131A JUMPI PUSH2 0x1319 PUSH2 0x2CC8 JUMP JUMPDEST JUMPDEST SWAP1 PUSH0 MSTORE PUSH1 0x20 PUSH0 KECCAK256 SWAP1 PUSH1 0x4 MUL ADD PUSH1 0x3 ADD SLOAD EQ ISZERO DUP1 ISZERO PUSH2 0x135A JUMPI POP DUP3 PUSH1 0x2 DUP3 DUP2 SLOAD DUP2 LT PUSH2 0x1348 JUMPI PUSH2 0x1347 PUSH2 0x2CC8 JUMP JUMPDEST JUMPDEST SWAP1 PUSH0 MSTORE PUSH1 0x20 PUSH0 KECCAK256 SWAP1 PUSH1 0x4 MUL ADD PUSH1 0x3 ADD SLOAD LT JUMPDEST ISZERO PUSH2 0x1441 JUMPI PUSH1 0x2 DUP2 DUP2 SLOAD DUP2 LT PUSH2 0x1373 JUMPI PUSH2 0x1372 PUSH2 0x2CC8 JUMP JUMPDEST JUMPDEST SWAP1 PUSH0 MSTORE PUSH1 0x20 PUSH0 KECCAK256 SWAP1 PUSH1 0x4 MUL ADD PUSH1 0x40 MLOAD DUP1 PUSH1 0x80 ADD PUSH1 0x40 MSTORE SWAP1 DUP2 PUSH0 DUP3 ADD SLOAD DUP2 MSTORE PUSH1 0x20 ADD PUSH1 0x1 DUP3 ADD DUP1 SLOAD PUSH2 0x13A3 SWAP1 PUSH2 0x2751 JUMP JUMPDEST DUP1 PUSH1 0x1F ADD PUSH1 0x20 DUP1 SWAP2 DIV MUL PUSH1 0x20 ADD PUSH1 0x40 MLOAD SWAP1 DUP2 ADD PUSH1 0x40 MSTORE DUP1 SWAP3 SWAP2 SWAP1 DUP2 DUP2 MSTORE PUSH1 0x20 ADD DUP3 DUP1 SLOAD PUSH2 0x13CF SWAP1 PUSH2 0x2751 JUMP JUMPDEST DUP1 ISZERO PUSH2 0x141A JUMPI DUP1 PUSH1 0x1F LT PUSH2 0x13F1 JUMPI PUSH2 0x100 DUP1 DUP4 SLOAD DIV MUL DUP4 MSTORE SWAP2 PUSH1 0x20 ADD SWAP2 PUSH2 0x141A JUMP JUMPDEST DUP3 ADD SWAP2 SWAP1 PUSH0 MSTORE PUSH1 0x20 PUSH0 KECCAK256 SWAP1 JUMPDEST DUP2 SLOAD DUP2 MSTORE SWAP1 PUSH1 0x1 ADD SWAP1 PUSH1 0x20 ADD DUP1 DUP4 GT PUSH2 0x13FD JUMPI DUP3 SWAP1 SUB PUSH1 0x1F AND DUP3 ADD SWAP2 JUMPDEST POP POP POP POP POP DUP2 MSTORE PUSH1 0x20 ADD PUSH1 0x2 DUP3 ADD SLOAD DUP2 MSTORE PUSH1 0x20 ADD PUSH1 0x3 DUP3 ADD SLOAD DUP2 MSTORE POP POP SWAP2 POP DUP2 PUSH1 0x60 ADD MLOAD SWAP3 POP JUMPDEST DUP1 DUP1 PUSH1 0x1 ADD SWAP2 POP POP PUSH2 0x12F8 JUMP JUMPDEST POP DUP1 PUSH0 ADD MLOAD PUSH1 0x1 DUP2 SWAP1 SSTORE POP POP POP JUMP JUMPDEST PUSH1 0x1 ISZERO ISZERO PUSH1 0x3 PUSH0 CALLER PUSH20 0xFFFFFFFFFFFFFFFFFFFFFFFFFFFFFFFFFFFFFFFF AND PUSH20 0xFFFFFFFFFFFFFFFFFFFFFFFFFFFFFFFFFFFFFFFF AND DUP2 MSTORE PUSH1 0x20 ADD SWAP1 DUP2 MSTORE PUSH1 0x20 ADD PUSH0 KECCAK256 PUSH0 ADD PUSH0 SWAP1 SLOAD SWAP1 PUSH2 0x100 EXP SWAP1 DIV PUSH1 0xFF AND ISZERO ISZERO EQ PUSH2 0x14EF JUMPI PUSH1 0x40 MLOAD PUSH32 0x8C379A000000000000000000000000000000000000000000000000000000000 DUP2 MSTORE PUSH1 0x4 ADD PUSH2 0x14E6 SWAP1 PUSH2 0x27CB JUMP JUMPDEST PUSH1 0x40 MLOAD DUP1 SWAP2 SUB SWAP1 REVERT JUMPDEST PUSH0 PUSH1 0x3 DUP2 GT ISZERO PUSH2 0x1502 JUMPI PUSH2 0x1501 PUSH2 0x25FA JUMP JUMPDEST JUMPDEST PUSH1 0x9 PUSH0 SWAP1 SLOAD SWAP1 PUSH2 0x100 EXP SWAP1 DIV PUSH1 0xFF AND PUSH1 0x3 DUP2 GT ISZERO PUSH2 0x1523 JUMPI PUSH2 0x1522 PUSH2 0x25FA JUMP JUMPDEST JUMPDEST EQ PUSH2 0x1563 JUMPI PUSH1 0x40 MLOAD PUSH32 0x8C379A000000000000000000000000000000000000000000000000000000000 DUP2 MSTORE PUSH1 0x4 ADD PUSH2 0x155A SWAP1 PUSH2 0x3006 JUMP JUMPDEST PUSH1 0x40 MLOAD DUP1 SWAP2 SUB SWAP1 REVERT JUMPDEST PUSH1 0x3 PUSH0 DUP3 PUSH20 0xFFFFFFFFFFFFFFFFFFFFFFFFFFFFFFFFFFFFFFFF AND PUSH20 0xFFFFFFFFFFFFFFFFFFFFFFFFFFFFFFFFFFFFFFFF AND DUP2 MSTORE PUSH1 0x20 ADD SWAP1 DUP2 MSTORE PUSH1 0x20 ADD PUSH0 KECCAK256 PUSH0 ADD PUSH0 SWAP1 SLOAD SWAP1 PUSH2 0x100 EXP SWAP1 DIV PUSH1 0xFF AND ISZERO PUSH2 0x160E JUMPI PUSH1 0x3 PUSH0 DUP3 PUSH20 0xFFFFFFFFFFFFFFFFFFFFFFFFFFFFFFFFFFFFFFFF AND PUSH20 0xFFFFFFFFFFFFFFFFFFFFFFFFFFFFFFFFFFFFFFFF AND DUP2 MSTORE PUSH1 0x20 ADD SWAP1 DUP2 MSTORE PUSH1 0x20 ADD PUSH0 KECCAK256 PUSH1 0x2 ADD PUSH0 DUP2 SLOAD DUP1 SWAP3 SWAP2 SWAP1 PUSH2 0x1604 SWAP1 PUSH2 0x2B17 JUMP JUMPDEST SWAP2 SWAP1 POP SSTORE POP PUSH2 0x1618 JUMP JUMPDEST PUSH2 0x1617 DUP2 PUSH2 0x1C91 JUMP JUMPDEST JUMPDEST PUSH2 0x1621 CALLER PUSH2 0x1D96 JUMP JUMPDEST POP JUMP JUMPDEST PUSH0 PUSH1 0x9 PUSH0 SWAP1 SLOAD SWAP1 PUSH2 0x100 EXP SWAP1 DIV PUSH1 0xFF AND SWAP1 POP SWAP1 JUMP JUMPDEST PUSH2 0x1641 PUSH2 0x1B49 JUMP JUMPDEST PUSH0 PUSH20 0xFFFFFFFFFFFFFFFFFFFFFFFFFFFFFFFFFFFFFFFF AND DUP2 PUSH20 0xFFFFFFFFFFFFFFFFFFFFFFFFFFFFFFFFFFFFFFFF AND SUB PUSH2 0x16B1 JUMPI PUSH0 PUSH1 0x40 MLOAD PUSH32 0x1E4FBDF700000000000000000000000000000000000000000000000000000000 DUP2 MSTORE PUSH1 0x4 ADD PUSH2 0x16A8 SWAP2 SWAP1 PUSH2 0x255B JUMP JUMPDEST PUSH1 0x40 MLOAD DUP1 SWAP2 SUB SWAP1 REVERT JUMPDEST PUSH2 0x16BA DUP2 PUSH2 0x1BD0 JUMP JUMPDEST POP JUMP JUMPDEST PUSH2 0x16C5 PUSH2 0x1B49 JUMP JUMPDEST PUSH0 PUSH1 0x3 DUP2 GT ISZERO PUSH2 0x16D8 JUMPI PUSH2 0x16D7 PUSH2 0x25FA JUMP JUMPDEST JUMPDEST PUSH1 0x9 PUSH0 SWAP1 SLOAD SWAP1 PUSH2 0x100 EXP SWAP1 DIV PUSH1 0xFF AND PUSH1 0x3 DUP2 GT ISZERO PUSH2 0x16F9 JUMPI PUSH2 0x16F8 PUSH2 0x25FA JUMP JUMPDEST JUMPDEST EQ PUSH2 0x1739 JUMPI PUSH1 0x40 MLOAD PUSH32 0x8C379A000000000000000000000000000000000000000000000000000000000 DUP2 MSTORE PUSH1 0x4 ADD PUSH2 0x1730 SWAP1 PUSH2 0x3006 JUMP JUMPDEST PUSH1 0x40 MLOAD DUP1 SWAP2 SUB SWAP1 REVERT JUMPDEST PUSH2 0x1741 PUSH2 0x11B1 JUMP JUMPDEST PUSH20 0xFFFFFFFFFFFFFFFFFFFFFFFFFFFFFFFFFFFFFFFF AND DUP2 PUSH20 0xFFFFFFFFFFFFFFFFFFFFFFFFFFFFFFFFFFFFFFFF AND SUB PUSH2 0x17AE JUMPI PUSH1 0x40 MLOAD PUSH32 0x8C379A000000000000000000000000000000000000000000000000000000000 DUP2 MSTORE PUSH1 0x4 ADD PUSH2 0x17A5 SWAP1 PUSH2 0x306E JUMP JUMPDEST PUSH1 0x40 MLOAD DUP1 SWAP2 SUB SWAP1 REVERT JUMPDEST PUSH0 ISZERO ISZERO PUSH1 0x3 PUSH0 DUP4 PUSH20 0xFFFFFFFFFFFFFFFFFFFFFFFFFFFFFFFFFFFFFFFF AND PUSH20 0xFFFFFFFFFFFFFFFFFFFFFFFFFFFFFFFFFFFFFFFF AND DUP2 MSTORE PUSH1 0x20 ADD SWAP1 DUP2 MSTORE PUSH1 0x20 ADD PUSH0 KECCAK256 PUSH0 ADD PUSH0 SWAP1 SLOAD SWAP1 PUSH2 0x100 EXP SWAP1 DIV PUSH1 0xFF AND ISZERO ISZERO EQ PUSH2 0x183F JUMPI PUSH1 0x40 MLOAD PUSH32 0x8C379A000000000000000000000000000000000000000000000000000000000 DUP2 MSTORE PUSH1 0x4 ADD PUSH2 0x1836 SWAP1 PUSH2 0x30D6 JUMP JUMPDEST PUSH1 0x40 MLOAD DUP1 SWAP2 SUB SWAP1 REVERT JUMPDEST PUSH2 0x1848 DUP2 PUSH2 0x1C91 JUMP JUMPDEST PUSH32 0xB6BE2187D059CC2A55FE29E0E503B566E1E0F8C8780096E185429350ACFFD3DD DUP2 PUSH1 0x40 MLOAD PUSH2 0x1877 SWAP2 SWAP1 PUSH2 0x255B JUMP JUMPDEST PUSH1 0x40 MLOAD DUP1 SWAP2 SUB SWAP1 LOG1 POP JUMP JUMPDEST PUSH2 0x188A PUSH2 0x1B49 JUMP JUMPDEST PUSH1 0x3 PUSH0 PUSH1 0x3 DUP2 GT ISZERO PUSH2 0x189F JUMPI PUSH2 0x189E PUSH2 0x25FA JUMP JUMPDEST JUMPDEST PUSH1 0x9 PUSH0 SWAP1 SLOAD SWAP1 PUSH2 0x100 EXP SWAP1 DIV PUSH1 0xFF AND PUSH1 0x3 DUP2 GT ISZERO PUSH2 0x18C0 JUMPI PUSH2 0x18BF PUSH2 0x25FA JUMP JUMPDEST JUMPDEST SUB PUSH2 0x190B JUMPI DUP1 PUSH1 0x5 SLOAD LT ISZERO PUSH2 0x190A JUMPI PUSH1 0x40 MLOAD PUSH32 0x8C379A000000000000000000000000000000000000000000000000000000000 DUP2 MSTORE PUSH1 0x4 ADD PUSH2 0x1901 SWAP1 PUSH2 0x3164 JUMP JUMPDEST PUSH1 0x40 MLOAD DUP1 SWAP2 SUB SWAP1 REVERT JUMPDEST JUMPDEST PUSH1 0x2 PUSH1 0x1 PUSH1 0x3 DUP2 GT ISZERO PUSH2 0x1921 JUMPI PUSH2 0x1920 PUSH2 0x25FA JUMP JUMPDEST JUMPDEST PUSH1 0x9 PUSH0 SWAP1 SLOAD SWAP1 PUSH2 0x100 EXP SWAP1 DIV PUSH1 0xFF AND PUSH1 0x3 DUP2 GT ISZERO PUSH2 0x1942 JUMPI PUSH2 0x1941 PUSH2 0x25FA JUMP JUMPDEST JUMPDEST SUB PUSH2 0x198D JUMPI DUP1 PUSH1 0x8 SLOAD LT ISZERO PUSH2 0x198C JUMPI PUSH1 0x40 MLOAD PUSH32 0x8C379A000000000000000000000000000000000000000000000000000000000 DUP2 MSTORE PUSH1 0x4 ADD PUSH2 0x1983 SWAP1 PUSH2 0x31F2 JUMP JUMPDEST PUSH1 0x40 MLOAD DUP1 SWAP2 SUB SWAP1 REVERT JUMPDEST JUMPDEST PUSH1 0x1 PUSH1 0x2 PUSH1 0x3 DUP2 GT ISZERO PUSH2 0x19A3 JUMPI PUSH2 0x19A2 PUSH2 0x25FA JUMP JUMPDEST JUMPDEST PUSH1 0x9 PUSH0 SWAP1 SLOAD SWAP1 PUSH2 0x100 EXP SWAP1 DIV PUSH1 0xFF AND PUSH1 0x3 DUP2 GT ISZERO PUSH2 0x19C4 JUMPI PUSH2 0x19C3 PUSH2 0x25FA JUMP JUMPDEST JUMPDEST SUB PUSH2 0x1A0F JUMPI DUP1 PUSH1 0x6 SLOAD LT ISZERO PUSH2 0x1A0E JUMPI PUSH1 0x40 MLOAD PUSH32 0x8C379A000000000000000000000000000000000000000000000000000000000 DUP2 MSTORE PUSH1 0x4 ADD PUSH2 0x1A05 SWAP1 PUSH2 0x3280 JUMP JUMPDEST PUSH1 0x40 MLOAD DUP1 SWAP2 SUB SWAP1 REVERT JUMPDEST JUMPDEST PUSH1 0x3 DUP1 DUP2 GT ISZERO PUSH2 0x1A22 JUMPI PUSH2 0x1A21 PUSH2 0x25FA JUMP JUMPDEST JUMPDEST PUSH1 0x9 PUSH0 SWAP1 SLOAD SWAP1 PUSH2 0x100 EXP SWAP1 DIV PUSH1 0xFF AND PUSH1 0x3 DUP2 GT ISZERO PUSH2 0x1A43 JUMPI PUSH2 0x1A42 PUSH2 0x25FA JUMP JUMPDEST JUMPDEST SUB PUSH2 0x1A83 JUMPI PUSH1 0x40 MLOAD PUSH32 0x8C379A000000000000000000000000000000000000000000000000000000000 DUP2 MSTORE PUSH1 0x4 ADD PUSH2 0x1A7A SWAP1 PUSH2 0x330E JUMP JUMPDEST PUSH1 0x40 MLOAD DUP1 SWAP2 SUB SWAP1 REVERT JUMPDEST PUSH0 PUSH1 0x9 PUSH0 SWAP1 SLOAD SWAP1 PUSH2 0x100 EXP SWAP1 DIV PUSH1 0xFF AND SWAP1 POP PUSH1 0x1 PUSH1 0x9 PUSH0 SWAP1 SLOAD SWAP1 PUSH2 0x100 EXP SWAP1 DIV PUSH1 0xFF AND PUSH1 0x3 DUP2 GT ISZERO PUSH2 0x1AB8 JUMPI PUSH2 0x1AB7 PUSH2 0x25FA JUMP JUMPDEST JUMPDEST PUSH2 0x1AC2 SWAP2 SWAP1 PUSH2 0x332C JUMP JUMPDEST PUSH1 0x3 DUP2 GT ISZERO PUSH2 0x1AD4 JUMPI PUSH2 0x1AD3 PUSH2 0x25FA JUMP JUMPDEST JUMPDEST PUSH1 0x9 PUSH0 PUSH2 0x100 EXP DUP2 SLOAD DUP2 PUSH1 0xFF MUL NOT AND SWAP1 DUP4 PUSH1 0x3 DUP2 GT ISZERO PUSH2 0x1AF7 JUMPI PUSH2 0x1AF6 PUSH2 0x25FA JUMP JUMPDEST JUMPDEST MUL OR SWAP1 SSTORE POP PUSH32 0xA97A4EE45751E2ABF3E4FC8946939630B11B371EA8AE39CCDC3056E98F5CC3F DUP2 PUSH1 0x9 PUSH0 SWAP1 SLOAD SWAP1 PUSH2 0x100 EXP SWAP1 DIV PUSH1 0xFF AND PUSH1 0x40 MLOAD PUSH2 0x1B3B SWAP3 SWAP2 SWAP1 PUSH2 0x335F JUMP JUMPDEST PUSH1 0x40 MLOAD DUP1 SWAP2 SUB SWAP1 LOG1 POP POP POP POP JUMP JUMPDEST PUSH2 0x1B51 PUSH2 0x1F95 JUMP JUMPDEST PUSH20 0xFFFFFFFFFFFFFFFFFFFFFFFFFFFFFFFFFFFFFFFF AND PUSH2 0x1B6F PUSH2 0x11B1 JUMP JUMPDEST PUSH20 0xFFFFFFFFFFFFFFFFFFFFFFFFFFFFFFFFFFFFFFFF AND EQ PUSH2 0x1BCE JUMPI PUSH2 0x1B92 PUSH2 0x1F95 JUMP JUMPDEST PUSH1 0x40 MLOAD PUSH32 0x118CDAA700000000000000000000000000000000000000000000000000000000 DUP2 MSTORE PUSH1 0x4 ADD PUSH2 0x1BC5 SWAP2 SWAP1 PUSH2 0x255B JUMP JUMPDEST PUSH1 0x40 MLOAD DUP1 SWAP2 SUB SWAP1 REVERT JUMPDEST JUMP JUMPDEST PUSH0 DUP1 PUSH0 SWAP1 SLOAD SWAP1 PUSH2 0x100 EXP SWAP1 DIV PUSH20 0xFFFFFFFFFFFFFFFFFFFFFFFFFFFFFFFFFFFFFFFF AND SWAP1 POP DUP2 PUSH0 DUP1 PUSH2 0x100 EXP DUP2 SLOAD DUP2 PUSH20 0xFFFFFFFFFFFFFFFFFFFFFFFFFFFFFFFFFFFFFFFF MUL NOT AND SWAP1 DUP4 PUSH20 0xFFFFFFFFFFFFFFFFFFFFFFFFFFFFFFFFFFFFFFFF AND MUL OR SWAP1 SSTORE POP DUP2 PUSH20 0xFFFFFFFFFFFFFFFFFFFFFFFFFFFFFFFFFFFFFFFF AND DUP2 PUSH20 0xFFFFFFFFFFFFFFFFFFFFFFFFFFFFFFFFFFFFFFFF AND PUSH32 0x8BE0079C531659141344CD1FD0A4F28419497F9722A3DAAFE3B4186F6B6457E0 PUSH1 0x40 MLOAD PUSH1 0x40 MLOAD DUP1 SWAP2 SUB SWAP1 LOG3 POP POP JUMP JUMPDEST PUSH0 PUSH1 0x3 PUSH0 DUP4 PUSH20 0xFFFFFFFFFFFFFFFFFFFFFFFFFFFFFFFFFFFFFFFF AND PUSH20 0xFFFFFFFFFFFFFFFFFFFFFFFFFFFFFFFFFFFFFFFF AND DUP2 MSTORE PUSH1 0x20 ADD SWAP1 DUP2 MSTORE PUSH1 0x20 ADD PUSH0 KECCAK256 PUSH1 0x1 ADD DUP2 SWAP1 SSTORE POP PUSH1 0x1 PUSH1 0x3 PUSH0 DUP4 PUSH20 0xFFFFFFFFFFFFFFFFFFFFFFFFFFFFFFFFFFFFFFFF AND PUSH20 0xFFFFFFFFFFFFFFFFFFFFFFFFFFFFFFFFFFFFFFFF AND DUP2 MSTORE PUSH1 0x20 ADD SWAP1 DUP2 MSTORE PUSH1 0x20 ADD PUSH0 KECCAK256 PUSH1 0x2 ADD DUP2 SWAP1 SSTORE POP PUSH1 0x1 PUSH1 0x3 PUSH0 DUP4 PUSH20 0xFFFFFFFFFFFFFFFFFFFFFFFFFFFFFFFFFFFFFFFF AND PUSH20 0xFFFFFFFFFFFFFFFFFFFFFFFFFFFFFFFFFFFFFFFF AND DUP2 MSTORE PUSH1 0x20 ADD SWAP1 DUP2 MSTORE PUSH1 0x20 ADD PUSH0 KECCAK256 PUSH0 ADD PUSH0 PUSH2 0x100 EXP DUP2 SLOAD DUP2 PUSH1 0xFF MUL NOT AND SWAP1 DUP4 ISZERO ISZERO MUL OR SWAP1 SSTORE POP PUSH2 0x1D7C DUP2 PUSH2 0x1F9C JUMP JUMPDEST PUSH1 0x5 PUSH0 DUP2 SLOAD DUP1 SWAP3 SWAP2 SWAP1 PUSH2 0x1D8E SWAP1 PUSH2 0x2B17 JUMP JUMPDEST SWAP2 SWAP1 POP SSTORE POP POP JUMP JUMPDEST PUSH0 PUSH1 0x3 PUSH0 DUP4 PUSH20 0xFFFFFFFFFFFFFFFFFFFFFFFFFFFFFFFFFFFFFFFF AND PUSH20 0xFFFFFFFFFFFFFFFFFFFFFFFFFFFFFFFFFFFFFFFF AND DUP2 MSTORE PUSH1 0x20 ADD SWAP1 DUP2 MSTORE PUSH1 0x20 ADD PUSH0 KECCAK256 PUSH0 ADD PUSH0 PUSH2 0x100 EXP DUP2 SLOAD DUP2 PUSH1 0xFF MUL NOT AND SWAP1 DUP4 ISZERO ISZERO MUL OR SWAP1 SSTORE POP PUSH0 PUSH1 0x3 PUSH0 DUP4 PUSH20 0xFFFFFFFFFFFFFFFFFFFFFFFFFFFFFFFFFFFFFFFF AND PUSH20 0xFFFFFFFFFFFFFFFFFFFFFFFFFFFFFFFFFFFFFFFF AND DUP2 MSTORE PUSH1 0x20 ADD SWAP1 DUP2 MSTORE PUSH1 0x20 ADD PUSH0 KECCAK256 PUSH1 0x1 ADD DUP2 SWAP1 SSTORE POP PUSH1 0x1 PUSH1 0x3 PUSH0 DUP4 PUSH20 0xFFFFFFFFFFFFFFFFFFFFFFFFFFFFFFFFFFFFFFFF AND PUSH20 0xFFFFFFFFFFFFFFFFFFFFFFFFFFFFFFFFFFFFFFFF AND DUP2 MSTORE PUSH1 0x20 ADD SWAP1 DUP2 MSTORE PUSH1 0x20 ADD PUSH0 KECCAK256 PUSH1 0x2 ADD DUP2 SWAP1 SSTORE POP PUSH1 0x3 PUSH0 DUP3 PUSH20 0xFFFFFFFFFFFFFFFFFFFFFFFFFFFFFFFFFFFFFFFF AND PUSH20 0xFFFFFFFFFFFFFFFFFFFFFFFFFFFFFFFFFFFFFFFF AND DUP2 MSTORE PUSH1 0x20 ADD SWAP1 DUP2 MSTORE PUSH1 0x20 ADD PUSH0 KECCAK256 PUSH1 0x3 ADD PUSH0 PUSH2 0x1EC2 SWAP2 SWAP1 PUSH2 0x2143 JUMP JUMPDEST PUSH0 JUMPDEST PUSH1 0x4 DUP1 SLOAD SWAP1 POP DUP2 LT ISZERO PUSH2 0x1F91 JUMPI DUP2 PUSH20 0xFFFFFFFFFFFFFFFFFFFFFFFFFFFFFFFFFFFFFFFF AND PUSH1 0x4 DUP3 DUP2 SLOAD DUP2 LT PUSH2 0x1EFC JUMPI PUSH2 0x1EFB PUSH2 0x2CC8 JUMP JUMPDEST JUMPDEST SWAP1 PUSH0 MSTORE PUSH1 0x20 PUSH0 KECCAK256 ADD PUSH0 SWAP1 SLOAD SWAP1 PUSH2 0x100 EXP SWAP1 DIV PUSH20 0xFFFFFFFFFFFFFFFFFFFFFFFFFFFFFFFFFFFFFFFF AND PUSH20 0xFFFFFFFFFFFFFFFFFFFFFFFFFFFFFFFFFFFFFFFF AND SUB PUSH2 0x1F84 JUMPI PUSH1 0x4 DUP1 SLOAD DUP1 PUSH2 0x1F51 JUMPI PUSH2 0x1F50 PUSH2 0x3386 JUMP JUMPDEST JUMPDEST PUSH1 0x1 SWAP1 SUB DUP2 DUP2 SWAP1 PUSH0 MSTORE PUSH1 0x20 PUSH0 KECCAK256 ADD PUSH0 PUSH2 0x100 EXP DUP2 SLOAD SWAP1 PUSH20 0xFFFFFFFFFFFFFFFFFFFFFFFFFFFFFFFFFFFFFFFF MUL NOT AND SWAP1 SSTORE SWAP1 SSTORE JUMPDEST DUP1 DUP1 PUSH1 0x1 ADD SWAP2 POP POP PUSH2 0x1EC4 JUMP JUMPDEST POP POP JUMP JUMPDEST PUSH0 CALLER SWAP1 POP SWAP1 JUMP JUMPDEST PUSH0 DUP1 JUMPDEST PUSH1 0x4 DUP1 SLOAD SWAP1 POP DUP2 LT ISZERO PUSH2 0x202C JUMPI DUP3 PUSH20 0xFFFFFFFFFFFFFFFFFFFFFFFFFFFFFFFFFFFFFFFF AND PUSH1 0x4 DUP3 DUP2 SLOAD DUP2 LT PUSH2 0x1FD7 JUMPI PUSH2 0x1FD6 PUSH2 0x2CC8 JUMP JUMPDEST JUMPDEST SWAP1 PUSH0 MSTORE PUSH1 0x20 PUSH0 KECCAK256 ADD PUSH0 SWAP1 SLOAD SWAP1 PUSH2 0x100 EXP SWAP1 DIV PUSH20 0xFFFFFFFFFFFFFFFFFFFFFFFFFFFFFFFFFFFFFFFF AND PUSH20 0xFFFFFFFFFFFFFFFFFFFFFFFFFFFFFFFFFFFFFFFF AND SUB PUSH2 0x201F JUMPI PUSH1 0x1 SWAP2 POP JUMPDEST DUP1 DUP1 PUSH1 0x1 ADD SWAP2 POP POP PUSH2 0x1F9F JUMP JUMPDEST POP PUSH0 ISZERO ISZERO DUP2 ISZERO ISZERO SUB PUSH2 0x2099 JUMPI PUSH1 0x4 DUP3 SWAP1 DUP1 PUSH1 0x1 DUP2 SLOAD ADD DUP1 DUP3 SSTORE DUP1 SWAP2 POP POP PUSH1 0x1 SWAP1 SUB SWAP1 PUSH0 MSTORE PUSH1 0x20 PUSH0 KECCAK256 ADD PUSH0 SWAP1 SWAP2 SWAP1 SWAP2 SWAP1 SWAP2 PUSH2 0x100 EXP DUP2 SLOAD DUP2 PUSH20 0xFFFFFFFFFFFFFFFFFFFFFFFFFFFFFFFFFFFFFFFF MUL NOT AND SWAP1 DUP4 PUSH20 0xFFFFFFFFFFFFFFFFFFFFFFFFFFFFFFFFFFFFFFFF AND MUL OR SWAP1 SSTORE POP JUMPDEST POP POP JUMP JUMPDEST POP DUP1 SLOAD PUSH0 DUP3 SSTORE PUSH1 0x4 MUL SWAP1 PUSH0 MSTORE PUSH1 0x20 PUSH0 KECCAK256 SWAP1 DUP2 ADD SWAP1 PUSH2 0x20BB SWAP2 SWAP1 PUSH2 0x21A4 JUMP JUMPDEST POP JUMP JUMPDEST DUP3 DUP1 SLOAD DUP3 DUP3 SSTORE SWAP1 PUSH0 MSTORE PUSH1 0x20 PUSH0 KECCAK256 SWAP1 PUSH1 0x4 MUL DUP2 ADD SWAP3 DUP3 ISZERO PUSH2 0x2132 JUMPI PUSH0 MSTORE PUSH1 0x20 PUSH0 KECCAK256 SWAP2 PUSH1 0x4 MUL DUP3 ADD JUMPDEST DUP3 DUP2 GT ISZERO PUSH2 0x2131 JUMPI DUP3 DUP3 PUSH0 DUP3 ADD SLOAD DUP2 PUSH0 ADD SSTORE PUSH1 0x1 DUP3 ADD DUP2 PUSH1 0x1 ADD SWAP1 DUP2 PUSH2 0x210B SWAP2 SWAP1 PUSH2 0x33C8 JUMP JUMPDEST POP PUSH1 0x2 DUP3 ADD SLOAD DUP2 PUSH1 0x2 ADD SSTORE PUSH1 0x3 DUP3 ADD SLOAD DUP2 PUSH1 0x3 ADD SSTORE POP POP SWAP2 PUSH1 0x4 ADD SWAP2 SWAP1 PUSH1 0x4 ADD SWAP1 PUSH2 0x20E5 JUMP JUMPDEST JUMPDEST POP SWAP1 POP PUSH2 0x213F SWAP2 SWAP1 PUSH2 0x21A4 JUMP JUMPDEST POP SWAP1 JUMP JUMPDEST POP DUP1 SLOAD PUSH0 DUP3 SSTORE SWAP1 PUSH0 MSTORE PUSH1 0x20 PUSH0 KECCAK256 SWAP1 DUP2 ADD SWAP1 PUSH2 0x215E SWAP2 SWAP1 PUSH2 0x21DE JUMP JUMPDEST POP JUMP JUMPDEST POP DUP1 SLOAD PUSH0 DUP3 SSTORE SWAP1 PUSH0 MSTORE PUSH1 0x20 PUSH0 KECCAK256 SWAP1 DUP2 ADD SWAP1 PUSH2 0x217C SWAP2 SWAP1 PUSH2 0x21DE JUMP JUMPDEST POP JUMP JUMPDEST PUSH1 0x40 MLOAD DUP1 PUSH1 0x80 ADD PUSH1 0x40 MSTORE DUP1 PUSH0 DUP2 MSTORE PUSH1 0x20 ADD PUSH1 0x60 DUP2 MSTORE PUSH1 0x20 ADD PUSH0 DUP2 MSTORE PUSH1 0x20 ADD PUSH0 DUP2 MSTORE POP SWAP1 JUMP JUMPDEST JUMPDEST DUP1 DUP3 GT ISZERO PUSH2 0x21DA JUMPI PUSH0 DUP1 DUP3 ADD PUSH0 SWAP1 SSTORE PUSH1 0x1 DUP3 ADD PUSH0 PUSH2 0x21C3 SWAP2 SWAP1 PUSH2 0x21F9 JUMP JUMPDEST PUSH1 0x2 DUP3 ADD PUSH0 SWAP1 SSTORE PUSH1 0x3 DUP3 ADD PUSH0 SWAP1 SSTORE POP PUSH1 0x4 ADD PUSH2 0x21A5 JUMP JUMPDEST POP SWAP1 JUMP JUMPDEST JUMPDEST DUP1 DUP3 GT ISZERO PUSH2 0x21F5 JUMPI PUSH0 DUP2 PUSH0 SWAP1 SSTORE POP PUSH1 0x1 ADD PUSH2 0x21DF JUMP JUMPDEST POP SWAP1 JUMP JUMPDEST POP DUP1 SLOAD PUSH2 0x2205 SWAP1 PUSH2 0x2751 JUMP JUMPDEST PUSH0 DUP3 SSTORE DUP1 PUSH1 0x1F LT PUSH2 0x2216 JUMPI POP PUSH2 0x2233 JUMP JUMPDEST PUSH1 0x1F ADD PUSH1 0x20 SWAP1 DIV SWAP1 PUSH0 MSTORE PUSH1 0x20 PUSH0 KECCAK256 SWAP1 DUP2 ADD SWAP1 PUSH2 0x2232 SWAP2 SWAP1 PUSH2 0x21DE JUMP JUMPDEST JUMPDEST POP JUMP JUMPDEST PUSH0 DUP2 MLOAD SWAP1 POP SWAP2 SWAP1 POP JUMP JUMPDEST PUSH0 DUP3 DUP3 MSTORE PUSH1 0x20 DUP3 ADD SWAP1 POP SWAP3 SWAP2 POP POP JUMP JUMPDEST PUSH0 DUP2 SWAP1 POP PUSH1 0x20 DUP3 ADD SWAP1 POP SWAP2 SWAP1 POP JUMP JUMPDEST PUSH0 DUP2 SWAP1 POP SWAP2 SWAP1 POP JUMP JUMPDEST PUSH2 0x2271 DUP2 PUSH2 0x225F JUMP JUMPDEST DUP3 MSTORE POP POP JUMP JUMPDEST PUSH0 DUP2 MLOAD SWAP1 POP SWAP2 SWAP1 POP JUMP JUMPDEST PUSH0 DUP3 DUP3 MSTORE PUSH1 0x20 DUP3 ADD SWAP1 POP SWAP3 SWAP2 POP POP JUMP JUMPDEST PUSH0 JUMPDEST DUP4 DUP2 LT ISZERO PUSH2 0x22AE JUMPI DUP1 DUP3 ADD MLOAD DUP2 DUP5 ADD MSTORE PUSH1 0x20 DUP2 ADD SWAP1 POP PUSH2 0x2293 JUMP JUMPDEST PUSH0 DUP5 DUP5 ADD MSTORE POP POP POP POP JUMP JUMPDEST PUSH0 PUSH1 0x1F NOT PUSH1 0x1F DUP4 ADD AND SWAP1 POP SWAP2 SWAP1 POP JUMP JUMPDEST PUSH0 PUSH2 0x22D3 DUP3 PUSH2 0x2277 JUMP JUMPDEST PUSH2 0x22DD DUP2 DUP6 PUSH2 0x2281 JUMP JUMPDEST SWAP4 POP PUSH2 0x22ED DUP2 DUP6 PUSH1 0x20 DUP7 ADD PUSH2 0x2291 JUMP JUMPDEST PUSH2 0x22F6 DUP2 PUSH2 0x22B9 JUMP JUMPDEST DUP5 ADD SWAP2 POP POP SWAP3 SWAP2 POP POP JUMP JUMPDEST PUSH0 PUSH1 0x80 DUP4 ADD PUSH0 DUP4 ADD MLOAD PUSH2 0x2316 PUSH0 DUP7 ADD DUP3 PUSH2 0x2268 JUMP JUMPDEST POP PUSH1 0x20 DUP4 ADD MLOAD DUP5 DUP3 SUB PUSH1 0x20 DUP7 ADD MSTORE PUSH2 0x232E DUP3 DUP3 PUSH2 0x22C9 JUMP JUMPDEST SWAP2 POP POP PUSH1 0x40 DUP4 ADD MLOAD PUSH2 0x2343 PUSH1 0x40 DUP7 ADD DUP3 PUSH2 0x2268 JUMP JUMPDEST POP PUSH1 0x60 DUP4 ADD MLOAD PUSH2 0x2356 PUSH1 0x60 DUP7 ADD DUP3 PUSH2 0x2268 JUMP JUMPDEST POP DUP1 SWAP2 POP POP SWAP3 SWAP2 POP POP JUMP JUMPDEST PUSH0 PUSH2 0x236C DUP4 DUP4 PUSH2 0x2301 JUMP JUMPDEST SWAP1 POP SWAP3 SWAP2 POP POP JUMP JUMPDEST PUSH0 PUSH1 0x20 DUP3 ADD SWAP1 POP SWAP2 SWAP1 POP JUMP JUMPDEST PUSH0 PUSH2 0x238A DUP3 PUSH2 0x2236 JUMP JUMPDEST PUSH2 0x2394 DUP2 DUP6 PUSH2 0x2240 JUMP JUMPDEST SWAP4 POP DUP4 PUSH1 0x20 DUP3 MUL DUP6 ADD PUSH2 0x23A6 DUP6 PUSH2 0x2250 JUMP JUMPDEST DUP1 PUSH0 JUMPDEST DUP6 DUP2 LT ISZERO PUSH2 0x23E1 JUMPI DUP5 DUP5 SUB DUP10 MSTORE DUP2 MLOAD PUSH2 0x23C2 DUP6 DUP3 PUSH2 0x2361 JUMP JUMPDEST SWAP5 POP PUSH2 0x23CD DUP4 PUSH2 0x2374 JUMP JUMPDEST SWAP3 POP PUSH1 0x20 DUP11 ADD SWAP10 POP POP PUSH1 0x1 DUP2 ADD SWAP1 POP PUSH2 0x23A9 JUMP JUMPDEST POP DUP3 SWAP8 POP DUP8 SWAP6 POP POP POP POP POP POP SWAP3 SWAP2 POP POP JUMP JUMPDEST PUSH0 PUSH1 0x20 DUP3 ADD SWAP1 POP DUP2 DUP2 SUB PUSH0 DUP4 ADD MSTORE PUSH2 0x240B DUP2 DUP5 PUSH2 0x2380 JUMP JUMPDEST SWAP1 POP SWAP3 SWAP2 POP POP JUMP JUMPDEST PUSH0 DUP1 REVERT JUMPDEST PUSH0 DUP1 REVERT JUMPDEST PUSH0 DUP1 REVERT JUMPDEST PUSH0 DUP1 REVERT JUMPDEST PUSH0 DUP1 REVERT JUMPDEST PUSH0 DUP1 DUP4 PUSH1 0x1F DUP5 ADD SLT PUSH2 0x243C JUMPI PUSH2 0x243B PUSH2 0x241B JUMP JUMPDEST JUMPDEST DUP3 CALLDATALOAD SWAP1 POP PUSH8 0xFFFFFFFFFFFFFFFF DUP2 GT ISZERO PUSH2 0x2459 JUMPI PUSH2 0x2458 PUSH2 0x241F JUMP JUMPDEST JUMPDEST PUSH1 0x20 DUP4 ADD SWAP2 POP DUP4 PUSH1 0x1 DUP3 MUL DUP4 ADD GT ISZERO PUSH2 0x2475 JUMPI PUSH2 0x2474 PUSH2 0x2423 JUMP JUMPDEST JUMPDEST SWAP3 POP SWAP3 SWAP1 POP JUMP JUMPDEST PUSH0 DUP1 PUSH1 0x20 DUP4 DUP6 SUB SLT ISZERO PUSH2 0x2492 JUMPI PUSH2 0x2491 PUSH2 0x2413 JUMP JUMPDEST JUMPDEST PUSH0 DUP4 ADD CALLDATALOAD PUSH8 0xFFFFFFFFFFFFFFFF DUP2 GT ISZERO PUSH2 0x24AF JUMPI PUSH2 0x24AE PUSH2 0x2417 JUMP JUMPDEST JUMPDEST PUSH2 0x24BB DUP6 DUP3 DUP7 ADD PUSH2 0x2427 JUMP JUMPDEST SWAP3 POP SWAP3 POP POP SWAP3 POP SWAP3 SWAP1 POP JUMP JUMPDEST PUSH2 0x24D0 DUP2 PUSH2 0x225F JUMP JUMPDEST DUP2 EQ PUSH2 0x24DA JUMPI PUSH0 DUP1 REVERT JUMPDEST POP JUMP JUMPDEST PUSH0 DUP2 CALLDATALOAD SWAP1 POP PUSH2 0x24EB DUP2 PUSH2 0x24C7 JUMP JUMPDEST SWAP3 SWAP2 POP POP JUMP JUMPDEST PUSH0 PUSH1 0x20 DUP3 DUP5 SUB SLT ISZERO PUSH2 0x2506 JUMPI PUSH2 0x2505 PUSH2 0x2413 JUMP JUMPDEST JUMPDEST PUSH0 PUSH2 0x2513 DUP5 DUP3 DUP6 ADD PUSH2 0x24DD JUMP JUMPDEST SWAP2 POP POP SWAP3 SWAP2 POP POP JUMP JUMPDEST PUSH0 PUSH20 0xFFFFFFFFFFFFFFFFFFFFFFFFFFFFFFFFFFFFFFFF DUP3 AND SWAP1 POP SWAP2 SWAP1 POP JUMP JUMPDEST PUSH0 PUSH2 0x2545 DUP3 PUSH2 0x251C JUMP JUMPDEST SWAP1 POP SWAP2 SWAP1 POP JUMP JUMPDEST PUSH2 0x2555 DUP2 PUSH2 0x253B JUMP JUMPDEST DUP3 MSTORE POP POP JUMP JUMPDEST PUSH0 PUSH1 0x20 DUP3 ADD SWAP1 POP PUSH2 0x256E PUSH0 DUP4 ADD DUP5 PUSH2 0x254C JUMP JUMPDEST SWAP3 SWAP2 POP POP JUMP JUMPDEST PUSH0 DUP2 SWAP1 POP SWAP2 SWAP1 POP JUMP JUMPDEST PUSH2 0x2586 DUP2 PUSH2 0x2574 JUMP JUMPDEST DUP3 MSTORE POP POP JUMP JUMPDEST PUSH0 PUSH1 0x20 DUP3 ADD SWAP1 POP PUSH2 0x259F PUSH0 DUP4 ADD DUP5 PUSH2 0x257D JUMP JUMPDEST SWAP3 SWAP2 POP POP JUMP JUMPDEST PUSH2 0x25AE DUP2 PUSH2 0x253B JUMP JUMPDEST DUP2 EQ PUSH2 0x25B8 JUMPI PUSH0 DUP1 REVERT JUMPDEST POP JUMP JUMPDEST PUSH0 DUP2 CALLDATALOAD SWAP1 POP PUSH2 0x25C9 DUP2 PUSH2 0x25A5 JUMP JUMPDEST SWAP3 SWAP2 POP POP JUMP JUMPDEST PUSH0 PUSH1 0x20 DUP3 DUP5 SUB SLT ISZERO PUSH2 0x25E4 JUMPI PUSH2 0x25E3 PUSH2 0x2413 JUMP JUMPDEST JUMPDEST PUSH0 PUSH2 0x25F1 DUP5 DUP3 DUP6 ADD PUSH2 0x25BB JUMP JUMPDEST SWAP2 POP POP SWAP3 SWAP2 POP POP JUMP JUMPDEST PUSH32 0x4E487B7100000000000000000000000000000000000000000000000000000000 PUSH0 MSTORE PUSH1 0x21 PUSH1 0x4 MSTORE PUSH1 0x24 PUSH0 REVERT JUMPDEST PUSH1 0x4 DUP2 LT PUSH2 0x2638 JUMPI PUSH2 0x2637 PUSH2 0x25FA JUMP JUMPDEST JUMPDEST POP JUMP JUMPDEST PUSH0 DUP2 SWAP1 POP PUSH2 0x2648 DUP3 PUSH2 0x2627 JUMP JUMPDEST SWAP2 SWAP1 POP JUMP JUMPDEST PUSH0 PUSH2 0x2657 DUP3 PUSH2 0x263B JUMP JUMPDEST SWAP1 POP SWAP2 SWAP1 POP JUMP JUMPDEST PUSH2 0x2667 DUP2 PUSH2 0x264D JUMP JUMPDEST DUP3 MSTORE POP POP JUMP JUMPDEST PUSH0 PUSH1 0x20 DUP3 ADD SWAP1 POP PUSH2 0x2680 PUSH0 DUP4 ADD DUP5 PUSH2 0x265E JUMP JUMPDEST SWAP3 SWAP2 POP POP JUMP JUMPDEST PUSH0 DUP3 DUP3 MSTORE PUSH1 0x20 DUP3 ADD SWAP1 POP SWAP3 SWAP2 POP POP JUMP JUMPDEST PUSH32 0x546865726520617265206E6F2070726F706F736974696F6E7320726567697374 PUSH0 DUP3 ADD MSTORE PUSH32 0x6572656420796574210000000000000000000000000000000000000000000000 PUSH1 0x20 DUP3 ADD MSTORE POP JUMP JUMPDEST PUSH0 PUSH2 0x26F0 PUSH1 0x29 DUP4 PUSH2 0x2686 JUMP JUMPDEST SWAP2 POP PUSH2 0x26FB DUP3 PUSH2 0x2696 JUMP JUMPDEST PUSH1 0x40 DUP3 ADD SWAP1 POP SWAP2 SWAP1 POP JUMP JUMPDEST PUSH0 PUSH1 0x20 DUP3 ADD SWAP1 POP DUP2 DUP2 SUB PUSH0 DUP4 ADD MSTORE PUSH2 0x271D DUP2 PUSH2 0x26E4 JUMP JUMPDEST SWAP1 POP SWAP2 SWAP1 POP JUMP JUMPDEST PUSH32 0x4E487B7100000000000000000000000000000000000000000000000000000000 PUSH0 MSTORE PUSH1 0x22 PUSH1 0x4 MSTORE PUSH1 0x24 PUSH0 REVERT JUMPDEST PUSH0 PUSH1 0x2 DUP3 DIV SWAP1 POP PUSH1 0x1 DUP3 AND DUP1 PUSH2 0x2768 JUMPI PUSH1 0x7F DUP3 AND SWAP2 POP JUMPDEST PUSH1 0x20 DUP3 LT DUP2 SUB PUSH2 0x277B JUMPI PUSH2 0x277A PUSH2 0x2724 JUMP JUMPDEST JUMPDEST POP SWAP2 SWAP1 POP JUMP JUMPDEST PUSH32 0x596F7520617265206E6F7420612076616C696420766F74657221000000000000 PUSH0 DUP3 ADD MSTORE POP JUMP JUMPDEST PUSH0 PUSH2 0x27B5 PUSH1 0x1A DUP4 PUSH2 0x2686 JUMP JUMPDEST SWAP2 POP PUSH2 0x27C0 DUP3 PUSH2 0x2781 JUMP JUMPDEST PUSH1 0x20 DUP3 ADD SWAP1 POP SWAP2 SWAP1 POP JUMP JUMPDEST PUSH0 PUSH1 0x20 DUP3 ADD SWAP1 POP DUP2 DUP2 SUB PUSH0 DUP4 ADD MSTORE PUSH2 0x27E2 DUP2 PUSH2 0x27A9 JUMP JUMPDEST SWAP1 POP SWAP2 SWAP1 POP JUMP JUMPDEST PUSH32 0x596F752063616E6E6F742072656769737465722070726F706F73616C73000000 PUSH0 DUP3 ADD MSTORE POP JUMP JUMPDEST PUSH0 PUSH2 0x281D PUSH1 0x1D DUP4 PUSH2 0x2686 JUMP JUMPDEST SWAP2 POP PUSH2 0x2828 DUP3 PUSH2 0x27E9 JUMP JUMPDEST PUSH1 0x20 DUP3 ADD SWAP1 POP SWAP2 SWAP1 POP JUMP JUMPDEST PUSH0 PUSH1 0x20 DUP3 ADD SWAP1 POP DUP2 DUP2 SUB PUSH0 DUP4 ADD MSTORE PUSH2 0x284A DUP2 PUSH2 0x2811 JUMP JUMPDEST SWAP1 POP SWAP2 SWAP1 POP JUMP JUMPDEST PUSH32 0x4E487B7100000000000000000000000000000000000000000000000000000000 PUSH0 MSTORE PUSH1 0x41 PUSH1 0x4 MSTORE PUSH1 0x24 PUSH0 REVERT JUMPDEST PUSH0 DUP2 SWAP1 POP DUP2 PUSH0 MSTORE PUSH1 0x20 PUSH0 KECCAK256 SWAP1 POP SWAP2 SWAP1 POP JUMP JUMPDEST PUSH0 PUSH1 0x20 PUSH1 0x1F DUP4 ADD DIV SWAP1 POP SWAP2 SWAP1 POP JUMP JUMPDEST PUSH0 DUP3 DUP3 SHL SWAP1 POP SWAP3 SWAP2 POP POP JUMP JUMPDEST PUSH0 PUSH1 0x8 DUP4 MUL PUSH2 0x28DA PUSH32 0xFFFFFFFFFFFFFFFFFFFFFFFFFFFFFFFFFFFFFFFFFFFFFFFFFFFFFFFFFFFFFFFF DUP3 PUSH2 0x289F JUMP JUMPDEST PUSH2 0x28E4 DUP7 DUP4 PUSH2 0x289F JUMP JUMPDEST SWAP6 POP DUP1 NOT DUP5 AND SWAP4 POP DUP1 DUP7 AND DUP5 OR SWAP3 POP POP POP SWAP4 SWAP3 POP POP POP JUMP JUMPDEST PUSH0 DUP2 SWAP1 POP SWAP2 SWAP1 POP JUMP JUMPDEST PUSH0 PUSH2 0x291F PUSH2 0x291A PUSH2 0x2915 DUP5 PUSH2 0x225F JUMP JUMPDEST PUSH2 0x28FC JUMP JUMPDEST PUSH2 0x225F JUMP JUMPDEST SWAP1 POP SWAP2 SWAP1 POP JUMP JUMPDEST PUSH0 DUP2 SWAP1 POP SWAP2 SWAP1 POP JUMP JUMPDEST PUSH2 0x2938 DUP4 PUSH2 0x2905 JUMP JUMPDEST PUSH2 0x294C PUSH2 0x2944 DUP3 PUSH2 0x2926 JUMP JUMPDEST DUP5 DUP5 SLOAD PUSH2 0x28AB JUMP JUMPDEST DUP3 SSTORE POP POP POP POP JUMP JUMPDEST PUSH0 SWAP1 JUMP JUMPDEST PUSH2 0x2960 PUSH2 0x2954 JUMP JUMPDEST PUSH2 0x296B DUP2 DUP5 DUP5 PUSH2 0x292F JUMP JUMPDEST POP POP POP JUMP JUMPDEST JUMPDEST DUP2 DUP2 LT ISZERO PUSH2 0x298E JUMPI PUSH2 0x2983 PUSH0 DUP3 PUSH2 0x2958 JUMP JUMPDEST PUSH1 0x1 DUP2 ADD SWAP1 POP PUSH2 0x2971 JUMP JUMPDEST POP POP JUMP JUMPDEST PUSH1 0x1F DUP3 GT ISZERO PUSH2 0x29D3 JUMPI PUSH2 0x29A4 DUP2 PUSH2 0x287E JUMP JUMPDEST PUSH2 0x29AD DUP5 PUSH2 0x2890 JUMP JUMPDEST DUP2 ADD PUSH1 0x20 DUP6 LT ISZERO PUSH2 0x29BC JUMPI DUP2 SWAP1 POP JUMPDEST PUSH2 0x29D0 PUSH2 0x29C8 DUP6 PUSH2 0x2890 JUMP JUMPDEST DUP4 ADD DUP3 PUSH2 0x2970 JUMP JUMPDEST POP POP JUMPDEST POP POP POP JUMP JUMPDEST PUSH0 DUP3 DUP3 SHR SWAP1 POP SWAP3 SWAP2 POP POP JUMP JUMPDEST PUSH0 PUSH2 0x29F3 PUSH0 NOT DUP5 PUSH1 0x8 MUL PUSH2 0x29D8 JUMP JUMPDEST NOT DUP1 DUP4 AND SWAP2 POP POP SWAP3 SWAP2 POP POP JUMP JUMPDEST PUSH0 PUSH2 0x2A0B DUP4 DUP4 PUSH2 0x29E4 JUMP JUMPDEST SWAP2 POP DUP3 PUSH1 0x2 MUL DUP3 OR SWAP1 POP SWAP3 SWAP2 POP POP JUMP JUMPDEST PUSH2 0x2A24 DUP3 PUSH2 0x2277 JUMP JUMPDEST PUSH8 0xFFFFFFFFFFFFFFFF DUP2 GT ISZERO PUSH2 0x2A3D JUMPI PUSH2 0x2A3C PUSH2 0x2851 JUMP JUMPDEST JUMPDEST PUSH2 0x2A47 DUP3 SLOAD PUSH2 0x2751 JUMP JUMPDEST PUSH2 0x2A52 DUP3 DUP3 DUP6 PUSH2 0x2992 JUMP JUMPDEST PUSH0 PUSH1 0x20 SWAP1 POP PUSH1 0x1F DUP4 GT PUSH1 0x1 DUP2 EQ PUSH2 0x2A83 JUMPI PUSH0 DUP5 ISZERO PUSH2 0x2A71 JUMPI DUP3 DUP8 ADD MLOAD SWAP1 POP JUMPDEST PUSH2 0x2A7B DUP6 DUP3 PUSH2 0x2A00 JUMP JUMPDEST DUP7 SSTORE POP PUSH2 0x2AE2 JUMP JUMPDEST PUSH1 0x1F NOT DUP5 AND PUSH2 0x2A91 DUP7 PUSH2 0x287E JUMP JUMPDEST PUSH0 JUMPDEST DUP3 DUP2 LT ISZERO PUSH2 0x2AB8 JUMPI DUP5 DUP10 ADD MLOAD DUP3 SSTORE PUSH1 0x1 DUP3 ADD SWAP2 POP PUSH1 0x20 DUP6 ADD SWAP5 POP PUSH1 0x20 DUP2 ADD SWAP1 POP PUSH2 0x2A93 JUMP JUMPDEST DUP7 DUP4 LT ISZERO PUSH2 0x2AD5 JUMPI DUP5 DUP10 ADD MLOAD PUSH2 0x2AD1 PUSH1 0x1F DUP10 AND DUP3 PUSH2 0x29E4 JUMP JUMPDEST DUP4 SSTORE POP JUMPDEST PUSH1 0x1 PUSH1 0x2 DUP9 MUL ADD DUP9 SSTORE POP POP POP JUMPDEST POP POP POP POP POP POP JUMP JUMPDEST PUSH32 0x4E487B7100000000000000000000000000000000000000000000000000000000 PUSH0 MSTORE PUSH1 0x11 PUSH1 0x4 MSTORE PUSH1 0x24 PUSH0 REVERT JUMPDEST PUSH0 PUSH2 0x2B21 DUP3 PUSH2 0x225F JUMP JUMPDEST SWAP2 POP PUSH32 0xFFFFFFFFFFFFFFFFFFFFFFFFFFFFFFFFFFFFFFFFFFFFFFFFFFFFFFFFFFFFFFFF DUP3 SUB PUSH2 0x2B53 JUMPI PUSH2 0x2B52 PUSH2 0x2AEA JUMP JUMPDEST JUMPDEST PUSH1 0x1 DUP3 ADD SWAP1 POP SWAP2 SWAP1 POP JUMP JUMPDEST PUSH2 0x2B67 DUP2 PUSH2 0x225F JUMP JUMPDEST DUP3 MSTORE POP POP JUMP JUMPDEST PUSH0 PUSH1 0x20 DUP3 ADD SWAP1 POP PUSH2 0x2B80 PUSH0 DUP4 ADD DUP5 PUSH2 0x2B5E JUMP JUMPDEST SWAP3 SWAP2 POP POP JUMP JUMPDEST PUSH32 0x566F746573206E65656420746F2062652074616C6C69656420696E206F726465 PUSH0 DUP3 ADD MSTORE PUSH32 0x7220746F20706572666F726D2074686973206F7065726174696F6E0000000000 PUSH1 0x20 DUP3 ADD MSTORE POP JUMP JUMPDEST PUSH0 PUSH2 0x2BE0 PUSH1 0x3B DUP4 PUSH2 0x2686 JUMP JUMPDEST SWAP2 POP PUSH2 0x2BEB DUP3 PUSH2 0x2B86 JUMP JUMPDEST PUSH1 0x40 DUP3 ADD SWAP1 POP SWAP2 SWAP1 POP JUMP JUMPDEST PUSH0 PUSH1 0x20 DUP3 ADD SWAP1 POP DUP2 DUP2 SUB PUSH0 DUP4 ADD MSTORE PUSH2 0x2C0D DUP2 PUSH2 0x2BD4 JUMP JUMPDEST SWAP1 POP SWAP2 SWAP1 POP JUMP JUMPDEST PUSH32 0x546865726520617265206E6F20657175616C69747920696E20726573756C7473 PUSH0 DUP3 ADD MSTORE PUSH32 0x20736F20776520646F6E2774206E65656420746F20627265616B207468652074 PUSH1 0x20 DUP3 ADD MSTORE PUSH32 0x6965210000000000000000000000000000000000000000000000000000000000 PUSH1 0x40 DUP3 ADD MSTORE POP JUMP JUMPDEST PUSH0 PUSH2 0x2C94 PUSH1 0x43 DUP4 PUSH2 0x2686 JUMP JUMPDEST SWAP2 POP PUSH2 0x2C9F DUP3 PUSH2 0x2C14 JUMP JUMPDEST PUSH1 0x60 DUP3 ADD SWAP1 POP SWAP2 SWAP1 POP JUMP JUMPDEST PUSH0 PUSH1 0x20 DUP3 ADD SWAP1 POP DUP2 DUP2 SUB PUSH0 DUP4 ADD MSTORE PUSH2 0x2CC1 DUP2 PUSH2 0x2C88 JUMP JUMPDEST SWAP1 POP SWAP2 SWAP1 POP JUMP JUMPDEST PUSH32 0x4E487B7100000000000000000000000000000000000000000000000000000000 PUSH0 MSTORE PUSH1 0x32 PUSH1 0x4 MSTORE PUSH1 0x24 PUSH0 REVERT JUMPDEST PUSH32 0x596F752063616E6E6F7420766F74652070726F706F73616C7300000000000000 PUSH0 DUP3 ADD MSTORE POP JUMP JUMPDEST PUSH0 PUSH2 0x2D29 PUSH1 0x19 DUP4 PUSH2 0x2686 JUMP JUMPDEST SWAP2 POP PUSH2 0x2D34 DUP3 PUSH2 0x2CF5 JUMP JUMPDEST PUSH1 0x20 DUP3 ADD SWAP1 POP SWAP2 SWAP1 POP JUMP JUMPDEST PUSH0 PUSH1 0x20 DUP3 ADD SWAP1 POP DUP2 DUP2 SUB PUSH0 DUP4 ADD MSTORE PUSH2 0x2D56 DUP2 PUSH2 0x2D1D JUMP JUMPDEST SWAP1 POP SWAP2 SWAP1 POP JUMP JUMPDEST PUSH32 0x596F7520616C7265616479207573656420616C6C20796F757220766F74657321 PUSH0 DUP3 ADD MSTORE POP JUMP JUMPDEST PUSH0 PUSH2 0x2D91 PUSH1 0x20 DUP4 PUSH2 0x2686 JUMP JUMPDEST SWAP2 POP PUSH2 0x2D9C DUP3 PUSH2 0x2D5D JUMP JUMPDEST PUSH1 0x20 DUP3 ADD SWAP1 POP SWAP2 SWAP1 POP JUMP JUMPDEST PUSH0 PUSH1 0x20 DUP3 ADD SWAP1 POP DUP2 DUP2 SUB PUSH0 DUP4 ADD MSTORE PUSH2 0x2DBE DUP2 PUSH2 0x2D85 JUMP JUMPDEST SWAP1 POP SWAP2 SWAP1 POP JUMP JUMPDEST PUSH32 0x5468652070726F706F736974696F6E20796F7527726520766F74696E6720666F PUSH0 DUP3 ADD MSTORE PUSH32 0x7220646F6573206E6F7420657869737421000000000000000000000000000000 PUSH1 0x20 DUP3 ADD MSTORE POP JUMP JUMPDEST PUSH0 PUSH2 0x2E1F PUSH1 0x31 DUP4 PUSH2 0x2686 JUMP JUMPDEST SWAP2 POP PUSH2 0x2E2A DUP3 PUSH2 0x2DC5 JUMP JUMPDEST PUSH1 0x40 DUP3 ADD SWAP1 POP SWAP2 SWAP1 POP JUMP JUMPDEST PUSH0 PUSH1 0x20 DUP3 ADD SWAP1 POP DUP2 DUP2 SUB PUSH0 DUP4 ADD MSTORE PUSH2 0x2E4C DUP2 PUSH2 0x2E13 JUMP JUMPDEST SWAP1 POP SWAP2 SWAP1 POP JUMP JUMPDEST PUSH0 PUSH1 0x40 DUP3 ADD SWAP1 POP PUSH2 0x2E66 PUSH0 DUP4 ADD DUP6 PUSH2 0x254C JUMP JUMPDEST PUSH2 0x2E73 PUSH1 0x20 DUP4 ADD DUP5 PUSH2 0x2B5E JUMP JUMPDEST SWAP4 SWAP3 POP POP POP JUMP JUMPDEST PUSH32 0x596F75206D75737420766F746520616761696E20666F72206F6E65206F662074 PUSH0 DUP3 ADD MSTORE PUSH32 0x68652070726F706F736974696F6E73207768696368207175616C696669656420 PUSH1 0x20 DUP3 ADD MSTORE PUSH32 0x70726576696F75736C7921000000000000000000000000000000000000000000 PUSH1 0x40 DUP3 ADD MSTORE POP JUMP JUMPDEST PUSH0 PUSH2 0x2EFA PUSH1 0x4B DUP4 PUSH2 0x2686 JUMP JUMPDEST SWAP2 POP PUSH2 0x2F05 DUP3 PUSH2 0x2E7A JUMP JUMPDEST PUSH1 0x60 DUP3 ADD SWAP1 POP SWAP2 SWAP1 POP JUMP JUMPDEST PUSH0 PUSH1 0x20 DUP3 ADD SWAP1 POP DUP2 DUP2 SUB PUSH0 DUP4 ADD MSTORE PUSH2 0x2F27 DUP2 PUSH2 0x2EEE JUMP JUMPDEST SWAP1 POP SWAP2 SWAP1 POP JUMP JUMPDEST PUSH32 0x5468657265206973206E6F2077696E6E696E672070726F706F736974696F6E20 PUSH0 DUP3 ADD MSTORE PUSH32 0x7965742100000000000000000000000000000000000000000000000000000000 PUSH1 0x20 DUP3 ADD MSTORE POP JUMP JUMPDEST PUSH0 PUSH2 0x2F88 PUSH1 0x24 DUP4 PUSH2 0x2686 JUMP JUMPDEST SWAP2 POP PUSH2 0x2F93 DUP3 PUSH2 0x2F2E JUMP JUMPDEST PUSH1 0x40 DUP3 ADD SWAP1 POP SWAP2 SWAP1 POP JUMP JUMPDEST PUSH0 PUSH1 0x20 DUP3 ADD SWAP1 POP DUP2 DUP2 SUB PUSH0 DUP4 ADD MSTORE PUSH2 0x2FB5 DUP2 PUSH2 0x2F7C JUMP JUMPDEST SWAP1 POP SWAP2 SWAP1 POP JUMP JUMPDEST PUSH32 0x596F752063616E6E6F7420726567697374657220766F74657273000000000000 PUSH0 DUP3 ADD MSTORE POP JUMP JUMPDEST PUSH0 PUSH2 0x2FF0 PUSH1 0x1A DUP4 PUSH2 0x2686 JUMP JUMPDEST SWAP2 POP PUSH2 0x2FFB DUP3 PUSH2 0x2FBC JUMP JUMPDEST PUSH1 0x20 DUP3 ADD SWAP1 POP SWAP2 SWAP1 POP JUMP JUMPDEST PUSH0 PUSH1 0x20 DUP3 ADD SWAP1 POP DUP2 DUP2 SUB PUSH0 DUP4 ADD MSTORE PUSH2 0x301D DUP2 PUSH2 0x2FE4 JUMP JUMPDEST SWAP1 POP SWAP2 SWAP1 POP JUMP JUMPDEST PUSH32 0x4F776E65722063616E6E6F7420766F7465210000000000000000000000000000 PUSH0 DUP3 ADD MSTORE POP JUMP JUMPDEST PUSH0 PUSH2 0x3058 PUSH1 0x12 DUP4 PUSH2 0x2686 JUMP JUMPDEST SWAP2 POP PUSH2 0x3063 DUP3 PUSH2 0x3024 JUMP JUMPDEST PUSH1 0x20 DUP3 ADD SWAP1 POP SWAP2 SWAP1 POP JUMP JUMPDEST PUSH0 PUSH1 0x20 DUP3 ADD SWAP1 POP DUP2 DUP2 SUB PUSH0 DUP4 ADD MSTORE PUSH2 0x3085 DUP2 PUSH2 0x304C JUMP JUMPDEST SWAP1 POP SWAP2 SWAP1 POP JUMP JUMPDEST PUSH32 0x566F74657220616C726561647920726567697374657265642100000000000000 PUSH0 DUP3 ADD MSTORE POP JUMP JUMPDEST PUSH0 PUSH2 0x30C0 PUSH1 0x19 DUP4 PUSH2 0x2686 JUMP JUMPDEST SWAP2 POP PUSH2 0x30CB DUP3 PUSH2 0x308C JUMP JUMPDEST PUSH1 0x20 DUP3 ADD SWAP1 POP SWAP2 SWAP1 POP JUMP JUMPDEST PUSH0 PUSH1 0x20 DUP3 ADD SWAP1 POP DUP2 DUP2 SUB PUSH0 DUP4 ADD MSTORE PUSH2 0x30ED DUP2 PUSH2 0x30B4 JUMP JUMPDEST SWAP1 POP SWAP2 SWAP1 POP JUMP JUMPDEST PUSH32 0x41206D696E696D756D206E756D626572206F6620766F74657273206172652072 PUSH0 DUP3 ADD MSTORE PUSH32 0x6571756972656420746F20636F6E74696E756500000000000000000000000000 PUSH1 0x20 DUP3 ADD MSTORE POP JUMP JUMPDEST PUSH0 PUSH2 0x314E PUSH1 0x33 DUP4 PUSH2 0x2686 JUMP JUMPDEST SWAP2 POP PUSH2 0x3159 DUP3 PUSH2 0x30F4 JUMP JUMPDEST PUSH1 0x40 DUP3 ADD SWAP1 POP SWAP2 SWAP1 POP JUMP JUMPDEST PUSH0 PUSH1 0x20 DUP3 ADD SWAP1 POP DUP2 DUP2 SUB PUSH0 DUP4 ADD MSTORE PUSH2 0x317B DUP2 PUSH2 0x3142 JUMP JUMPDEST SWAP1 POP SWAP2 SWAP1 POP JUMP JUMPDEST PUSH32 0x41206D696E696D756D206E756D626572206F662070726F706F736974696F6E73 PUSH0 DUP3 ADD MSTORE PUSH32 0x2061726520726571756972656420746F20636F6E74696E756500000000000000 PUSH1 0x20 DUP3 ADD MSTORE POP JUMP JUMPDEST PUSH0 PUSH2 0x31DC PUSH1 0x39 DUP4 PUSH2 0x2686 JUMP JUMPDEST SWAP2 POP PUSH2 0x31E7 DUP3 PUSH2 0x3182 JUMP JUMPDEST PUSH1 0x40 DUP3 ADD SWAP1 POP SWAP2 SWAP1 POP JUMP JUMPDEST PUSH0 PUSH1 0x20 DUP3 ADD SWAP1 POP DUP2 DUP2 SUB PUSH0 DUP4 ADD MSTORE PUSH2 0x3209 DUP2 PUSH2 0x31D0 JUMP JUMPDEST SWAP1 POP SWAP2 SWAP1 POP JUMP JUMPDEST PUSH32 0x41206D696E696D756D206E756D626572206F6620766F74657320617265207265 PUSH0 DUP3 ADD MSTORE PUSH32 0x71756972656420746F20636F6E74696E75650000000000000000000000000000 PUSH1 0x20 DUP3 ADD MSTORE POP JUMP JUMPDEST PUSH0 PUSH2 0x326A PUSH1 0x32 DUP4 PUSH2 0x2686 JUMP JUMPDEST SWAP2 POP PUSH2 0x3275 DUP3 PUSH2 0x3210 JUMP JUMPDEST PUSH1 0x40 DUP3 ADD SWAP1 POP SWAP2 SWAP1 POP JUMP JUMPDEST PUSH0 PUSH1 0x20 DUP3 ADD SWAP1 POP DUP2 DUP2 SUB PUSH0 DUP4 ADD MSTORE PUSH2 0x3297 DUP2 PUSH2 0x325E JUMP JUMPDEST SWAP1 POP SWAP2 SWAP1 POP JUMP JUMPDEST PUSH32 0x566F746573206861766520746F2062652074616C6C6965642E20497420697320 PUSH0 DUP3 ADD MSTORE PUSH32 0x6F7665722E205468657265206973206E6F206E65787420737465702100000000 PUSH1 0x20 DUP3 ADD MSTORE POP JUMP JUMPDEST PUSH0 PUSH2 0x32F8 PUSH1 0x3C DUP4 PUSH2 0x2686 JUMP JUMPDEST SWAP2 POP PUSH2 0x3303 DUP3 PUSH2 0x329E JUMP JUMPDEST PUSH1 0x40 DUP3 ADD SWAP1 POP SWAP2 SWAP1 POP JUMP JUMPDEST PUSH0 PUSH1 0x20 DUP3 ADD SWAP1 POP DUP2 DUP2 SUB PUSH0 DUP4 ADD MSTORE PUSH2 0x3325 DUP2 PUSH2 0x32EC JUMP JUMPDEST SWAP1 POP SWAP2 SWAP1 POP JUMP JUMPDEST PUSH0 PUSH2 0x3336 DUP3 PUSH2 0x225F JUMP JUMPDEST SWAP2 POP PUSH2 0x3341 DUP4 PUSH2 0x225F JUMP JUMPDEST SWAP3 POP DUP3 DUP3 ADD SWAP1 POP DUP1 DUP3 GT ISZERO PUSH2 0x3359 JUMPI PUSH2 0x3358 PUSH2 0x2AEA JUMP JUMPDEST JUMPDEST SWAP3 SWAP2 POP POP JUMP JUMPDEST PUSH0 PUSH1 0x40 DUP3 ADD SWAP1 POP PUSH2 0x3372 PUSH0 DUP4 ADD DUP6 PUSH2 0x265E JUMP JUMPDEST PUSH2 0x337F PUSH1 0x20 DUP4 ADD DUP5 PUSH2 0x265E JUMP JUMPDEST SWAP4 SWAP3 POP POP POP JUMP JUMPDEST PUSH32 0x4E487B7100000000000000000000000000000000000000000000000000000000 PUSH0 MSTORE PUSH1 0x31 PUSH1 0x4 MSTORE PUSH1 0x24 PUSH0 REVERT JUMPDEST PUSH0 DUP2 SLOAD SWAP1 POP PUSH2 0x33C1 DUP2 PUSH2 0x2751 JUMP JUMPDEST SWAP1 POP SWAP2 SWAP1 POP JUMP JUMPDEST DUP2 DUP2 SUB PUSH2 0x33D6 JUMPI POP POP PUSH2 0x34AB JUMP JUMPDEST PUSH2 0x33DF DUP3 PUSH2 0x33B3 JUMP JUMPDEST PUSH8 0xFFFFFFFFFFFFFFFF DUP2 GT ISZERO PUSH2 0x33F8 JUMPI PUSH2 0x33F7 PUSH2 0x2851 JUMP JUMPDEST JUMPDEST PUSH2 0x3402 DUP3 SLOAD PUSH2 0x2751 JUMP JUMPDEST PUSH2 0x340D DUP3 DUP3 DUP6 PUSH2 0x2992 JUMP JUMPDEST PUSH0 PUSH1 0x1F DUP4 GT PUSH1 0x1 DUP2 EQ PUSH2 0x343A JUMPI PUSH0 DUP5 ISZERO PUSH2 0x3428 JUMPI DUP3 DUP8 ADD SLOAD SWAP1 POP JUMPDEST PUSH2 0x3432 DUP6 DUP3 PUSH2 0x2A00 JUMP JUMPDEST DUP7 SSTORE POP PUSH2 0x34A4 JUMP JUMPDEST PUSH1 0x1F NOT DUP5 AND PUSH2 0x3448 DUP8 PUSH2 0x287E JUMP JUMPDEST SWAP7 POP PUSH2 0x3453 DUP7 PUSH2 0x287E JUMP JUMPDEST PUSH0 JUMPDEST DUP3 DUP2 LT ISZERO PUSH2 0x347A JUMPI DUP5 DUP10 ADD SLOAD DUP3 SSTORE PUSH1 0x1 DUP3 ADD SWAP2 POP PUSH1 0x1 DUP6 ADD SWAP5 POP PUSH1 0x20 DUP2 ADD SWAP1 POP PUSH2 0x3455 JUMP JUMPDEST DUP7 DUP4 LT ISZERO PUSH2 0x3497 JUMPI DUP5 DUP10 ADD SLOAD PUSH2 0x3493 PUSH1 0x1F DUP10 AND DUP3 PUSH2 0x29E4 JUMP JUMPDEST DUP4 SSTORE POP JUMPDEST PUSH1 0x1 PUSH1 0x2 DUP9 MUL ADD DUP9 SSTORE POP POP POP JUMPDEST POP POP POP POP POP POP JUMPDEST JUMP INVALID LOG2 PUSH5 0x6970667358 0x22 SLT KECCAK256 SSTORE MLOAD 0x5C NUMBER 0x25 RETURNDATASIZE 0xB0 0x5E 0x23 0xC1 0xE1 0xC7 0x2F 0xB0 PUSH14 0x2F4DE94DA44A526164ED915D34D3 REVERT KECCAK256 LOG0 PUSH5 0x736F6C6343 STOP ADDMOD OR STOP CALLER "
		},
		"gasEstimates": {
			"creation": {
				"codeDepositCost": "2707800",
				"executionCost": "infinite",
				"totalCost": "infinite"
			},
			"external": {
				"addProposal(string)": "infinite",
				"addVoter(address)": "infinite",
				"delegateVote(address)": "infinite",
				"getCurrentVoteStep()": "2583",
				"getWinner()": "4603",
				"listProposals()": "infinite",
				"nextVoteStep()": "infinite",
				"owner()": "2538",
				"renounceOwnership()": "infinite",
				"restartVoteFromScratch()": "infinite",
				"solveEqualityWithTimestamp()": "infinite",
				"solveEqualityWithVote()": "infinite",
				"tailVotes()": "infinite",
				"transferOwnership(address)": "infinite",
				"voteForProposition(uint256)": "infinite"
			},
			"internal": {
				"addVoterInternal(address)": "infinite",
				"deleteVoter(address)": "infinite",
				"registerVoterKey(address)": "infinite"
			}
		},
		"methodIdentifiers": {
			"addProposal(string)": "2fdae3c5",
			"addVoter(address)": "f4ab9adf",
			"delegateVote(address)": "b31e1d4d",
			"getCurrentVoteStep()": "e77aa682",
			"getWinner()": "8e7ea5b2",
			"listProposals()": "26c7eb1c",
			"nextVoteStep()": "fd20255c",
			"owner()": "8da5cb5b",
			"renounceOwnership()": "715018a6",
			"restartVoteFromScratch()": "6334ef66",
			"solveEqualityWithTimestamp()": "a1b1f89a",
			"solveEqualityWithVote()": "45ddbf75",
			"tailVotes()": "898f0087",
			"transferOwnership(address)": "f2fde38b",
			"voteForProposition(uint256)": "746536b5"
		}
	},
	"abi": [
		{
			"inputs": [],
			"stateMutability": "nonpayable",
			"type": "constructor"
		},
		{
			"inputs": [
				{
					"internalType": "address",
					"name": "owner",
					"type": "address"
				}
			],
			"name": "OwnableInvalidOwner",
			"type": "error"
		},
		{
			"inputs": [
				{
					"internalType": "address",
					"name": "account",
					"type": "address"
				}
			],
			"name": "OwnableUnauthorizedAccount",
			"type": "error"
		},
		{
			"anonymous": false,
			"inputs": [
				{
					"indexed": true,
					"internalType": "address",
					"name": "previousOwner",
					"type": "address"
				},
				{
					"indexed": true,
					"internalType": "address",
					"name": "newOwner",
					"type": "address"
				}
			],
			"name": "OwnershipTransferred",
			"type": "event"
		},
		{
			"anonymous": false,
			"inputs": [
				{
					"indexed": false,
					"internalType": "uint256",
					"name": "proposalId",
					"type": "uint256"
				}
			],
			"name": "ProposalRegistered",
			"type": "event"
		},
		{
			"anonymous": false,
			"inputs": [
				{
					"indexed": false,
					"internalType": "string",
					"name": "message",
					"type": "string"
				}
			],
			"name": "VoteEquality",
			"type": "event"
		},
		{
			"anonymous": false,
			"inputs": [
				{
					"indexed": false,
					"internalType": "address",
					"name": "voter",
					"type": "address"
				},
				{
					"indexed": false,
					"internalType": "uint256",
					"name": "proposalId",
					"type": "uint256"
				}
			],
			"name": "Voted",
			"type": "event"
		},
		{
			"anonymous": false,
			"inputs": [
				{
					"indexed": false,
					"internalType": "address",
					"name": "voterAddress",
					"type": "address"
				}
			],
			"name": "VoterRegistered",
			"type": "event"
		},
		{
			"anonymous": false,
			"inputs": [
				{
					"indexed": false,
					"internalType": "enum VotingPlus.WorkflowStatus",
					"name": "previousStatus",
					"type": "uint8"
				},
				{
					"indexed": false,
					"internalType": "enum VotingPlus.WorkflowStatus",
					"name": "newStatus",
					"type": "uint8"
				}
			],
			"name": "WorkflowStatusChange",
			"type": "event"
		},
		{
			"inputs": [
				{
					"internalType": "string",
					"name": "_description",
					"type": "string"
				}
			],
			"name": "addProposal",
			"outputs": [],
			"stateMutability": "nonpayable",
			"type": "function"
		},
		{
			"inputs": [
				{
					"internalType": "address",
					"name": "_address",
					"type": "address"
				}
			],
			"name": "addVoter",
			"outputs": [],
			"stateMutability": "nonpayable",
			"type": "function"
		},
		{
			"inputs": [
				{
					"internalType": "address",
					"name": "_delegate",
					"type": "address"
				}
			],
			"name": "delegateVote",
			"outputs": [],
			"stateMutability": "nonpayable",
			"type": "function"
		},
		{
			"inputs": [],
			"name": "getCurrentVoteStep",
			"outputs": [
				{
					"internalType": "enum VotingPlus.WorkflowStatus",
					"name": "",
					"type": "uint8"
				}
			],
			"stateMutability": "view",
			"type": "function"
		},
		{
			"inputs": [],
			"name": "getWinner",
			"outputs": [
				{
					"internalType": "int256",
					"name": "",
					"type": "int256"
				}
			],
			"stateMutability": "view",
			"type": "function"
		},
		{
			"inputs": [],
			"name": "listProposals",
			"outputs": [
				{
					"components": [
						{
							"internalType": "uint256",
							"name": "id",
							"type": "uint256"
						},
						{
							"internalType": "string",
							"name": "description",
							"type": "string"
						},
						{
							"internalType": "uint256",
							"name": "voteCount",
							"type": "uint256"
						},
						{
							"internalType": "uint256",
							"name": "lastVoteTimestamp",
							"type": "uint256"
						}
					],
					"internalType": "struct VotingPlus.Proposal[]",
					"name": "",
					"type": "tuple[]"
				}
			],
			"stateMutability": "view",
			"type": "function"
		},
		{
			"inputs": [],
			"name": "nextVoteStep",
			"outputs": [],
			"stateMutability": "nonpayable",
			"type": "function"
		},
		{
			"inputs": [],
			"name": "owner",
			"outputs": [
				{
					"internalType": "address",
					"name": "",
					"type": "address"
				}
			],
			"stateMutability": "view",
			"type": "function"
		},
		{
			"inputs": [],
			"name": "renounceOwnership",
			"outputs": [],
			"stateMutability": "nonpayable",
			"type": "function"
		},
		{
			"inputs": [],
			"name": "restartVoteFromScratch",
			"outputs": [],
			"stateMutability": "nonpayable",
			"type": "function"
		},
		{
			"inputs": [],
			"name": "solveEqualityWithTimestamp",
			"outputs": [],
			"stateMutability": "nonpayable",
			"type": "function"
		},
		{
			"inputs": [],
			"name": "solveEqualityWithVote",
			"outputs": [],
			"stateMutability": "nonpayable",
			"type": "function"
		},
		{
			"inputs": [],
			"name": "tailVotes",
			"outputs": [
				{
					"components": [
						{
							"internalType": "uint256",
							"name": "id",
							"type": "uint256"
						},
						{
							"internalType": "string",
							"name": "description",
							"type": "string"
						},
						{
							"internalType": "uint256",
							"name": "voteCount",
							"type": "uint256"
						},
						{
							"internalType": "uint256",
							"name": "lastVoteTimestamp",
							"type": "uint256"
						}
					],
					"internalType": "struct VotingPlus.Proposal[]",
					"name": "",
					"type": "tuple[]"
				}
			],
			"stateMutability": "nonpayable",
			"type": "function"
		},
		{
			"inputs": [
				{
					"internalType": "address",
					"name": "newOwner",
					"type": "address"
				}
			],
			"name": "transferOwnership",
			"outputs": [],
			"stateMutability": "nonpayable",
			"type": "function"
		},
		{
			"inputs": [
				{
					"internalType": "uint256",
					"name": "_proposalId",
					"type": "uint256"
				}
			],
			"name": "voteForProposition",
			"outputs": [],
			"stateMutability": "nonpayable",
			"type": "function"
		}
	]
}